{
  "contractName": "Crowdsale",
  "abi": [
    {
      "inputs": [
        {
          "internalType": "uint256",
          "name": "_goal",
          "type": "uint256"
        },
        {
          "internalType": "address",
          "name": "_escrow",
          "type": "address"
        }
      ],
      "stateMutability": "nonpayable",
      "type": "constructor"
    },
    {
      "inputs": [],
      "name": "invest",
      "outputs": [],
      "stateMutability": "payable",
      "type": "function"
    },
    {
      "inputs": [],
      "name": "close",
      "outputs": [],
      "stateMutability": "nonpayable",
      "type": "function"
    }
  ],
  "bytecode": "0x6080604052600060015569021e19e0c9bab240000060025562278d00426100269190610139565b60035534801561003557600080fd5b50604051610e71380380610e718339818101604052810190610057919061021e565b80604051610064906100f3565b61006e919061027f565b604051809103906000f08015801561008a573d6000803e3d6000fd5b506000806101000a81548173ffffffffffffffffffffffffffffffffffffffff021916908373ffffffffffffffffffffffffffffffffffffffff160217905550816002819055506000600460006101000a81548160ff021916908315150217905550505061029a565b6108478061062a83390190565b6000819050919050565b7f4e487b7100000000000000000000000000000000000000000000000000000000600052601160045260246000fd5b600061014482610100565b915061014f83610100565b9250827fffffffffffffffffffffffffffffffffffffffffffffffffffffffffffffffff038211156101845761018361010a565b5b828201905092915050565b600080fd5b61019d81610100565b81146101a857600080fd5b50565b6000815190506101ba81610194565b92915050565b600073ffffffffffffffffffffffffffffffffffffffff82169050919050565b60006101eb826101c0565b9050919050565b6101fb816101e0565b811461020657600080fd5b50565b600081519050610218816101f2565b92915050565b600080604083850312156102355761023461018f565b5b6000610243858286016101ab565b925050602061025485828601610209565b9150509250929050565b6000610269826101c0565b9050919050565b6102798161025e565b82525050565b60006020820190506102946000830184610270565b92915050565b610381806102a96000396000f3fe6080604052600436106100295760003560e01c806343d726d61461002e578063e8b5e51f14610045575b600080fd5b34801561003a57600080fd5b5061004361004f565b005b61004d61019a565b005b600354421180610063575060025460015410155b61006c57600080fd5b600254600154106101175760008054906101000a900473ffffffffffffffffffffffffffffffffffffffff1673ffffffffffffffffffffffffffffffffffffffff166343d726d66040518163ffffffff1660e01b8152600401600060405180830381600087803b1580156100df57600080fd5b505af11580156100f3573d6000803e3d6000fd5b505050506001600460006101000a81548160ff021916908315150217905550610198565b60008054906101000a900473ffffffffffffffffffffffffffffffffffffffff1673ffffffffffffffffffffffffffffffffffffffff1663590e1ae36040518163ffffffff1660e01b8152600401600060405180830381600087803b15801561017f57600080fd5b505af1158015610193573d6000803e3d6000fd5b505050505b565b6003544211156101a957600080fd5b600254600154106101b957600080fd5b60008054906101000a900473ffffffffffffffffffffffffffffffffffffffff1673ffffffffffffffffffffffffffffffffffffffff1663f340fa0134336040518363ffffffff1660e01b815260040161021391906102a1565b6000604051808303818588803b15801561022c57600080fd5b505af1158015610240573d6000803e3d6000fd5b5050505050346001600082825461025791906102f5565b92505081905550565b600073ffffffffffffffffffffffffffffffffffffffff82169050919050565b600061028b82610260565b9050919050565b61029b81610280565b82525050565b60006020820190506102b66000830184610292565b92915050565b6000819050919050565b7f4e487b7100000000000000000000000000000000000000000000000000000000600052601160045260246000fd5b6000610300826102bc565b915061030b836102bc565b9250827fffffffffffffffffffffffffffffffffffffffffffffffffffffffffffffffff038211156103405761033f6102c6565b5b82820190509291505056fea2646970667358221220b1591db6a972e89099c4735c63666bdca56253d49e9b7e3464d66823172031f664736f6c634300080c003360806040526000600160006101000a81548160ff0219169083600281111561002a576100296100ec565b5b021790555034801561003b57600080fd5b50604051610847380380610847833981810160405281019061005d919061017e565b80600260006101000a81548173ffffffffffffffffffffffffffffffffffffffff021916908373ffffffffffffffffffffffffffffffffffffffff160217905550336001806101000a81548173ffffffffffffffffffffffffffffffffffffffff021916908373ffffffffffffffffffffffffffffffffffffffff1602179055506000600381905550506101ab565b7f4e487b7100000000000000000000000000000000000000000000000000000000600052602160045260246000fd5b600080fd5b600073ffffffffffffffffffffffffffffffffffffffff82169050919050565b600061014b82610120565b9050919050565b61015b81610140565b811461016657600080fd5b50565b60008151905061017881610152565b92915050565b6000602082840312156101945761019361011b565b5b60006101a284828501610169565b91505092915050565b61068d806101ba6000396000f3fe60806040526004361061004a5760003560e01c80633ccfd60b1461004f57806343d726d614610066578063590e1ae31461007d578063bffa55d514610094578063f340fa01146100bd575b600080fd5b34801561005b57600080fd5b506100646100d9565b005b34801561007257600080fd5b5061007b610184565b005b34801561008957600080fd5b50610092610208565b005b3480156100a057600080fd5b506100bb60048036038101906100b69190610501565b61028d565b005b6100d760048036038101906100d2919061056c565b61039e565b005b600160028111156100ed576100ec610599565b5b600160009054906101000a900460ff16600281111561010f5761010e610599565b5b1461011957600080fd5b600260009054906101000a900473ffffffffffffffffffffffffffffffffffffffff1673ffffffffffffffffffffffffffffffffffffffff166108fc479081150290604051600060405180830381858888f19350505050158015610181573d6000803e3d6000fd5b50565b3373ffffffffffffffffffffffffffffffffffffffff1660018054906101000a900473ffffffffffffffffffffffffffffffffffffffff1673ffffffffffffffffffffffffffffffffffffffff16146101dc57600080fd5b60018060006101000a81548160ff0219169083600281111561020157610200610599565b5b0217905550565b3373ffffffffffffffffffffffffffffffffffffffff1660018054906101000a900473ffffffffffffffffffffffffffffffffffffffff1673ffffffffffffffffffffffffffffffffffffffff161461026057600080fd5b6002600160006101000a81548160ff0219169083600281111561028657610285610599565b5b0217905550565b6002808111156102a05761029f610599565b5b600160009054906101000a900460ff1660028111156102c2576102c1610599565b5b146102cc57600080fd5b60008060008373ffffffffffffffffffffffffffffffffffffffff1673ffffffffffffffffffffffffffffffffffffffff16815260200190815260200160002054905060008060008473ffffffffffffffffffffffffffffffffffffffff1673ffffffffffffffffffffffffffffffffffffffff168152602001908152602001600020819055508173ffffffffffffffffffffffffffffffffffffffff166108fc829081150290604051600060405180830381858888f19350505050158015610399573d6000803e3d6000fd5b505050565b3373ffffffffffffffffffffffffffffffffffffffff1660018054906101000a900473ffffffffffffffffffffffffffffffffffffffff1673ffffffffffffffffffffffffffffffffffffffff16146103f657600080fd5b346000808373ffffffffffffffffffffffffffffffffffffffff1673ffffffffffffffffffffffffffffffffffffffff168152602001908152602001600020546104409190610601565b6000808373ffffffffffffffffffffffffffffffffffffffff1673ffffffffffffffffffffffffffffffffffffffff1681526020019081526020016000208190555034600360008282546104949190610601565b9250508190555050565b600080fd5b600073ffffffffffffffffffffffffffffffffffffffff82169050919050565b60006104ce826104a3565b9050919050565b6104de816104c3565b81146104e957600080fd5b50565b6000813590506104fb816104d5565b92915050565b6000602082840312156105175761051661049e565b5b6000610525848285016104ec565b91505092915050565b6000610539826104a3565b9050919050565b6105498161052e565b811461055457600080fd5b50565b60008135905061056681610540565b92915050565b6000602082840312156105825761058161049e565b5b600061059084828501610557565b91505092915050565b7f4e487b7100000000000000000000000000000000000000000000000000000000600052602160045260246000fd5b6000819050919050565b7f4e487b7100000000000000000000000000000000000000000000000000000000600052601160045260246000fd5b600061060c826105c8565b9150610617836105c8565b9250827fffffffffffffffffffffffffffffffffffffffffffffffffffffffffffffffff0382111561064c5761064b6105d2565b5b82820190509291505056fea2646970667358221220b7ed62fb9817dfbc8bdafacd9ff90b4343f9a11a400043e36695ea5f15c007e664736f6c634300080c0033",
  "immutableReferences": {},
  "source": "// source: https://github.com/eth-sri/verx-benchmarks/blob/master/overview/main.sol\n\n// SPDX-License-Identifier: MIT\npragma solidity ^0.8.0;\n\ncontract Escrow {\n  mapping(address => uint256) deposits;\n  enum State {OPEN, SUCCESS, REFUND}\n  State state = State.OPEN;\n  address owner;\n  address payable beneficiary;\n  // uint256 totalFunds;\n  uint256 raised;\n\n  constructor(address payable b) public {\n    beneficiary = b;\n    owner = msg.sender;\n    // totalFunds = 0;\n    raised = 0;\n  }\n\n  function deposit(address p) onlyOwner public payable {\n    deposits[p] = deposits[p] + msg.value;\n    // totalFunds += msg.value;\n    raised += msg.value;\n  }\n\n  function withdraw() public {\n    require(state == State.SUCCESS);\n    beneficiary.transfer(address(this).balance);\n    // totalFunds = 0;\n  }\n\n  function claimRefund(address payable p) public {\n    require(state == State.REFUND);\n    uint256 amount = deposits[p];\n    deposits[p] = 0;\n    p.transfer(amount);\n    // totalFunds -= amount;\n  }\n\n  modifier onlyOwner {require(owner == msg.sender); _; }\n  function close() onlyOwner public{state = State.SUCCESS;}\n  function refund() onlyOwner public{state = State.REFUND;}\n  // function check() public view {\n  //   assert(totalFunds == raised || state != State.OPEN);\n  // }\n}\n\ncontract Crowdsale {\n  Escrow escrow;\n  uint256 raised = 0;\n  uint256 goal = 10000 * 10**18;\n  uint256 closeTime = block.timestamp + 30 days;\n  bool closed;\n\n  //address payable constant init = payable(address(uint160(0xDEADBEEF)));\n\n  constructor(uint256 _goal, address _escrow) public{\n    // escrow = new Escrow(payable(address(0xDEADBEEF)));\n    escrow = new Escrow(payable(_escrow));\n    goal = _goal;\n    closed = false;\n  }\n\n  function invest() payable public{\n    // fix:\n    require(block.timestamp<=closeTime);\n    require(raised < goal);\n    escrow.deposit{value: msg.value}(msg.sender);\n    raised += msg.value;\n  }\n\n  function close() public{\n    require(block.timestamp > closeTime || raised >= goal);\n    if (raised >= goal) {\n      escrow.close();\n      closed = true;\n    } else {\n      escrow.refund();\n   }\n  }\n}\n\ncontract Deployer{\n    Crowdsale c = new Crowdsale(10000 * 10**18, address(0xDEADBEEF));\n}",
  "sourcePath": "/Users/ljy/Desktop/PENN/2023_summer/boon_dsc/smart-contracts/optimizations/references_2/contracts/crowFunding.sol",
  "compiler": {
    "name": "solc",
    "version": "0.8.12+commit.f00d7308.Emscripten.clang"
  },
  "schemaVersion": "3.4.16",
  "updatedAt": "2023-10-19T20:17:12.645Z",
  "devdoc": {
    "kind": "dev",
    "methods": {},
    "version": 1
  },
  "userdoc": {
    "kind": "user",
    "methods": {},
    "version": 1
  }
}