{
  "contractName": "ERC1155",
  "abi": [
    {
      "inputs": [
        {
          "internalType": "string",
          "name": "uri_",
          "type": "string"
        }
      ],
      "stateMutability": "nonpayable",
      "type": "constructor"
    },
    {
      "anonymous": false,
      "inputs": [
        {
          "indexed": true,
          "internalType": "address",
          "name": "account",
          "type": "address"
        },
        {
          "indexed": true,
          "internalType": "address",
          "name": "operator",
          "type": "address"
        },
        {
          "indexed": false,
          "internalType": "bool",
          "name": "approved",
          "type": "bool"
        }
      ],
      "name": "ApprovalForAll",
      "type": "event"
    },
    {
      "anonymous": false,
      "inputs": [
        {
          "indexed": true,
          "internalType": "address",
          "name": "operator",
          "type": "address"
        },
        {
          "indexed": true,
          "internalType": "address",
          "name": "from",
          "type": "address"
        },
        {
          "indexed": true,
          "internalType": "address",
          "name": "to",
          "type": "address"
        },
        {
          "indexed": false,
          "internalType": "uint256[]",
          "name": "ids",
          "type": "uint256[]"
        },
        {
          "indexed": false,
          "internalType": "uint256[]",
          "name": "values",
          "type": "uint256[]"
        }
      ],
      "name": "TransferBatch",
      "type": "event"
    },
    {
      "anonymous": false,
      "inputs": [
        {
          "indexed": true,
          "internalType": "address",
          "name": "operator",
          "type": "address"
        },
        {
          "indexed": true,
          "internalType": "address",
          "name": "from",
          "type": "address"
        },
        {
          "indexed": true,
          "internalType": "address",
          "name": "to",
          "type": "address"
        },
        {
          "indexed": false,
          "internalType": "uint256",
          "name": "id",
          "type": "uint256"
        },
        {
          "indexed": false,
          "internalType": "uint256",
          "name": "value",
          "type": "uint256"
        }
      ],
      "name": "TransferSingle",
      "type": "event"
    },
    {
      "anonymous": false,
      "inputs": [
        {
          "indexed": false,
          "internalType": "string",
          "name": "value",
          "type": "string"
        },
        {
          "indexed": true,
          "internalType": "uint256",
          "name": "id",
          "type": "uint256"
        }
      ],
      "name": "URI",
      "type": "event"
    },
    {
      "inputs": [
        {
          "internalType": "bytes4",
          "name": "interfaceId",
          "type": "bytes4"
        }
      ],
      "name": "supportsInterface",
      "outputs": [
        {
          "internalType": "bool",
          "name": "",
          "type": "bool"
        }
      ],
      "stateMutability": "view",
      "type": "function"
    },
    {
      "inputs": [
        {
          "internalType": "address",
          "name": "account",
          "type": "address"
        },
        {
          "internalType": "uint256",
          "name": "id",
          "type": "uint256"
        }
      ],
      "name": "balanceOf",
      "outputs": [
        {
          "internalType": "uint256",
          "name": "",
          "type": "uint256"
        }
      ],
      "stateMutability": "view",
      "type": "function"
    },
    {
      "inputs": [
        {
          "internalType": "address",
          "name": "operator",
          "type": "address"
        },
        {
          "internalType": "bool",
          "name": "approved",
          "type": "bool"
        }
      ],
      "name": "setApprovalForAll",
      "outputs": [],
      "stateMutability": "nonpayable",
      "type": "function"
    },
    {
      "inputs": [
        {
          "internalType": "address",
          "name": "account",
          "type": "address"
        },
        {
          "internalType": "address",
          "name": "operator",
          "type": "address"
        }
      ],
      "name": "isApprovedForAll",
      "outputs": [
        {
          "internalType": "bool",
          "name": "",
          "type": "bool"
        }
      ],
      "stateMutability": "view",
      "type": "function"
    },
    {
      "inputs": [
        {
          "internalType": "address",
          "name": "from",
          "type": "address"
        },
        {
          "internalType": "address",
          "name": "to",
          "type": "address"
        },
        {
          "internalType": "uint256",
          "name": "id",
          "type": "uint256"
        },
        {
          "internalType": "uint256",
          "name": "amount",
          "type": "uint256"
        },
        {
          "internalType": "bytes",
          "name": "data",
          "type": "bytes"
        }
      ],
      "name": "safeTransferFrom",
      "outputs": [],
      "stateMutability": "nonpayable",
      "type": "function"
    },
    {
      "inputs": [
        {
          "internalType": "address",
          "name": "to",
          "type": "address"
        },
        {
          "internalType": "uint256",
          "name": "amount",
          "type": "uint256"
        }
      ],
      "name": "mint",
      "outputs": [],
      "stateMutability": "nonpayable",
      "type": "function"
    },
    {
      "inputs": [
        {
          "internalType": "address",
          "name": "to",
          "type": "address"
        },
        {
          "internalType": "uint256",
          "name": "amount",
          "type": "uint256"
        }
      ],
      "name": "burn",
      "outputs": [],
      "stateMutability": "nonpayable",
      "type": "function"
    }
  ],
  "bytecode": "0x60806040523480156200001157600080fd5b5060405162001b0038038062001b008339818101604052810190620000379190620002b8565b62000048816200004f60201b60201c565b506200036e565b8060039080519060200190620000679291906200006b565b5050565b828054620000799062000338565b90600052602060002090601f0160209004810192826200009d5760008555620000e9565b82601f10620000b857805160ff1916838001178555620000e9565b82800160010185558215620000e9579182015b82811115620000e8578251825591602001919060010190620000cb565b5b509050620000f89190620000fc565b5090565b5b8082111562000117576000816000905550600101620000fd565b5090565b6000604051905090565b600080fd5b600080fd5b600080fd5b600080fd5b6000601f19601f8301169050919050565b7f4e487b7100000000000000000000000000000000000000000000000000000000600052604160045260246000fd5b620001848262000139565b810181811067ffffffffffffffff82111715620001a657620001a56200014a565b5b80604052505050565b6000620001bb6200011b565b9050620001c9828262000179565b919050565b600067ffffffffffffffff821115620001ec57620001eb6200014a565b5b620001f78262000139565b9050602081019050919050565b60005b838110156200022457808201518184015260208101905062000207565b8381111562000234576000848401525b50505050565b6000620002516200024b84620001ce565b620001af565b90508281526020810184848401111562000270576200026f62000134565b5b6200027d84828562000204565b509392505050565b600082601f8301126200029d576200029c6200012f565b5b8151620002af8482602086016200023a565b91505092915050565b600060208284031215620002d157620002d062000125565b5b600082015167ffffffffffffffff811115620002f257620002f16200012a565b5b620003008482850162000285565b91505092915050565b7f4e487b7100000000000000000000000000000000000000000000000000000000600052602260045260246000fd5b600060028204905060018216806200035157607f821691505b6020821081141562000368576200036762000309565b5b50919050565b611782806200037e6000396000f3fe608060405234801561001057600080fd5b506004361061007c5760003560e01c80639dc29fac1161005b5780639dc29fac146100fd578063a22cb46514610119578063e985e9c514610135578063f242432a146101655761007c565b8062fdd58e1461008157806301ffc9a7146100b157806340c10f19146100e1575b600080fd5b61009b60048036038101906100969190610dec565b610181565b6040516100a89190610e3b565b60405180910390f35b6100cb60048036038101906100c69190610eae565b61024a565b6040516100d89190610ef6565b60405180910390f35b6100fb60048036038101906100f69190610dec565b6102b4565b005b61011760048036038101906101129190610dec565b610312565b005b610133600480360381019061012e9190610f3d565b61032f565b005b61014f600480360381019061014a9190610f7d565b610345565b60405161015c9190610ef6565b60405180910390f35b61017f600480360381019061017a9190611103565b6103d9565b005b60008073ffffffffffffffffffffffffffffffffffffffff168373ffffffffffffffffffffffffffffffffffffffff1614156101f2576040517f08c379a00000000000000000000000000000000000000000000000000000000081526004016101e99061121d565b60405180910390fd5b60008083815260200190815260200160002060008473ffffffffffffffffffffffffffffffffffffffff1673ffffffffffffffffffffffffffffffffffffffff16815260200190815260200160002054905092915050565b60007f01ffc9a7000000000000000000000000000000000000000000000000000000007bffffffffffffffffffffffffffffffffffffffffffffffffffffffff1916827bffffffffffffffffffffffffffffffffffffffffffffffffffffffff1916149050919050565b61030e82600183600a67ffffffffffffffff8111156102d6576102d5610fd8565b5b6040519080825280601f01601f1916602001820160405280156103085781602001600182028036833780820191505090505b5061047a565b5050565b600061031c610646565b905061032a8360018461064e565b505050565b61034161033a610646565b83836108bf565b5050565b6000600260008473ffffffffffffffffffffffffffffffffffffffff1673ffffffffffffffffffffffffffffffffffffffff16815260200190815260200160002060008373ffffffffffffffffffffffffffffffffffffffff1673ffffffffffffffffffffffffffffffffffffffff16815260200190815260200160002060009054906101000a900460ff16905092915050565b6103e1610646565b73ffffffffffffffffffffffffffffffffffffffff168573ffffffffffffffffffffffffffffffffffffffff161480610427575061042685610421610646565b610345565b5b610466576040517f08c379a000000000000000000000000000000000000000000000000000000000815260040161045d906112af565b60405180910390fd5b6104738585858585610a2c565b5050505050565b600073ffffffffffffffffffffffffffffffffffffffff168473ffffffffffffffffffffffffffffffffffffffff1614156104ea576040517f08c379a00000000000000000000000000000000000000000000000000000000081526004016104e190611341565b60405180910390fd5b60006104f4610646565b9050600061050185610cba565b9050600061050e85610cba565b905061051f83600089858589610d34565b8460008088815260200190815260200160002060008973ffffffffffffffffffffffffffffffffffffffff1673ffffffffffffffffffffffffffffffffffffffff168152602001908152602001600020600082825461057e9190611390565b92505081905550846001600088815260200190815260200160002060008282546105a89190611390565b925050819055508673ffffffffffffffffffffffffffffffffffffffff16600073ffffffffffffffffffffffffffffffffffffffff168473ffffffffffffffffffffffffffffffffffffffff167fc3d58168c5ae7397731d063d5bbf3d657854427343f4c083240f7aacaa2d0f6289896040516106269291906113e6565b60405180910390a461063d83600089858589610d3c565b50505050505050565b600033905090565b600073ffffffffffffffffffffffffffffffffffffffff168373ffffffffffffffffffffffffffffffffffffffff1614156106be576040517f08c379a00000000000000000000000000000000000000000000000000000000081526004016106b590611481565b60405180910390fd5b60006106c8610646565b905060006106d584610cba565b905060006106e284610cba565b905061070283876000858560405180602001604052806000815250610d34565b600080600087815260200190815260200160002060008873ffffffffffffffffffffffffffffffffffffffff1673ffffffffffffffffffffffffffffffffffffffff16815260200190815260200160002054905084811015610799576040517f08c379a000000000000000000000000000000000000000000000000000000000815260040161079090611513565b60405180910390fd5b84810360008088815260200190815260200160002060008973ffffffffffffffffffffffffffffffffffffffff1673ffffffffffffffffffffffffffffffffffffffff16815260200190815260200160002081905550846001600088815260200190815260200160002060008282546108129190611533565b92505081905550600073ffffffffffffffffffffffffffffffffffffffff168773ffffffffffffffffffffffffffffffffffffffff168573ffffffffffffffffffffffffffffffffffffffff167fc3d58168c5ae7397731d063d5bbf3d657854427343f4c083240f7aacaa2d0f6289896040516108909291906113e6565b60405180910390a46108b684886000868660405180602001604052806000815250610d3c565b50505050505050565b8173ffffffffffffffffffffffffffffffffffffffff168373ffffffffffffffffffffffffffffffffffffffff16141561092e576040517f08c379a0000000000000000000000000000000000000000000000000000000008152600401610925906115d9565b60405180910390fd5b80600260008573ffffffffffffffffffffffffffffffffffffffff1673ffffffffffffffffffffffffffffffffffffffff16815260200190815260200160002060008473ffffffffffffffffffffffffffffffffffffffff1673ffffffffffffffffffffffffffffffffffffffff16815260200190815260200160002060006101000a81548160ff0219169083151502179055508173ffffffffffffffffffffffffffffffffffffffff168373ffffffffffffffffffffffffffffffffffffffff167f17307eab39ab6107e8899845ad3d59bd9653f200f220920489ca2b5937696c3183604051610a1f9190610ef6565b60405180910390a3505050565b600073ffffffffffffffffffffffffffffffffffffffff168473ffffffffffffffffffffffffffffffffffffffff161415610a9c576040517f08c379a0000000000000000000000000000000000000000000000000000000008152600401610a939061166b565b60405180910390fd5b6000610aa6610646565b90506000610ab385610cba565b90506000610ac085610cba565b9050610ad0838989858589610d34565b600080600088815260200190815260200160002060008a73ffffffffffffffffffffffffffffffffffffffff1673ffffffffffffffffffffffffffffffffffffffff16815260200190815260200160002054905085811015610b67576040517f08c379a0000000000000000000000000000000000000000000000000000000008152600401610b5e906116fd565b60405180910390fd5b85810360008089815260200190815260200160002060008b73ffffffffffffffffffffffffffffffffffffffff1673ffffffffffffffffffffffffffffffffffffffff168152602001908152602001600020819055508560008089815260200190815260200160002060008a73ffffffffffffffffffffffffffffffffffffffff1673ffffffffffffffffffffffffffffffffffffffff1681526020019081526020016000206000828254610c1c9190611390565b925050819055508773ffffffffffffffffffffffffffffffffffffffff168973ffffffffffffffffffffffffffffffffffffffff168573ffffffffffffffffffffffffffffffffffffffff167fc3d58168c5ae7397731d063d5bbf3d657854427343f4c083240f7aacaa2d0f628a8a604051610c999291906113e6565b60405180910390a4610caf848a8a86868a610d3c565b505050505050505050565b60606000600167ffffffffffffffff811115610cd957610cd8610fd8565b5b604051908082528060200260200182016040528015610d075781602001602082028036833780820191505090505b5090508281600081518110610d1f57610d1e61171d565b5b60200260200101818152505080915050919050565b505050505050565b505050505050565b6000604051905090565b600080fd5b600080fd5b600073ffffffffffffffffffffffffffffffffffffffff82169050919050565b6000610d8382610d58565b9050919050565b610d9381610d78565b8114610d9e57600080fd5b50565b600081359050610db081610d8a565b92915050565b6000819050919050565b610dc981610db6565b8114610dd457600080fd5b50565b600081359050610de681610dc0565b92915050565b60008060408385031215610e0357610e02610d4e565b5b6000610e1185828601610da1565b9250506020610e2285828601610dd7565b9150509250929050565b610e3581610db6565b82525050565b6000602082019050610e506000830184610e2c565b92915050565b60007fffffffff0000000000000000000000000000000000000000000000000000000082169050919050565b610e8b81610e56565b8114610e9657600080fd5b50565b600081359050610ea881610e82565b92915050565b600060208284031215610ec457610ec3610d4e565b5b6000610ed284828501610e99565b91505092915050565b60008115159050919050565b610ef081610edb565b82525050565b6000602082019050610f0b6000830184610ee7565b92915050565b610f1a81610edb565b8114610f2557600080fd5b50565b600081359050610f3781610f11565b92915050565b60008060408385031215610f5457610f53610d4e565b5b6000610f6285828601610da1565b9250506020610f7385828601610f28565b9150509250929050565b60008060408385031215610f9457610f93610d4e565b5b6000610fa285828601610da1565b9250506020610fb385828601610da1565b9150509250929050565b600080fd5b600080fd5b6000601f19601f8301169050919050565b7f4e487b7100000000000000000000000000000000000000000000000000000000600052604160045260246000fd5b61101082610fc7565b810181811067ffffffffffffffff8211171561102f5761102e610fd8565b5b80604052505050565b6000611042610d44565b905061104e8282611007565b919050565b600067ffffffffffffffff82111561106e5761106d610fd8565b5b61107782610fc7565b9050602081019050919050565b82818337600083830152505050565b60006110a66110a184611053565b611038565b9050828152602081018484840111156110c2576110c1610fc2565b5b6110cd848285611084565b509392505050565b600082601f8301126110ea576110e9610fbd565b5b81356110fa848260208601611093565b91505092915050565b600080600080600060a0868803121561111f5761111e610d4e565b5b600061112d88828901610da1565b955050602061113e88828901610da1565b945050604061114f88828901610dd7565b935050606061116088828901610dd7565b925050608086013567ffffffffffffffff81111561118157611180610d53565b5b61118d888289016110d5565b9150509295509295909350565b600082825260208201905092915050565b7f455243313135353a2061646472657373207a65726f206973206e6f742061207660008201527f616c6964206f776e657200000000000000000000000000000000000000000000602082015250565b6000611207602a8361119a565b9150611212826111ab565b604082019050919050565b60006020820190508181036000830152611236816111fa565b9050919050565b7f455243313135353a2063616c6c6572206973206e6f7420746f6b656e206f776e60008201527f6572206e6f7220617070726f7665640000000000000000000000000000000000602082015250565b6000611299602f8361119a565b91506112a48261123d565b604082019050919050565b600060208201905081810360008301526112c88161128c565b9050919050565b7f455243313135353a206d696e7420746f20746865207a65726f2061646472657360008201527f7300000000000000000000000000000000000000000000000000000000000000602082015250565b600061132b60218361119a565b9150611336826112cf565b604082019050919050565b6000602082019050818103600083015261135a8161131e565b9050919050565b7f4e487b7100000000000000000000000000000000000000000000000000000000600052601160045260246000fd5b600061139b82610db6565b91506113a683610db6565b9250827fffffffffffffffffffffffffffffffffffffffffffffffffffffffffffffffff038211156113db576113da611361565b5b828201905092915050565b60006040820190506113fb6000830185610e2c565b6114086020830184610e2c565b9392505050565b7f455243313135353a206275726e2066726f6d20746865207a65726f206164647260008201527f6573730000000000000000000000000000000000000000000000000000000000602082015250565b600061146b60238361119a565b91506114768261140f565b604082019050919050565b6000602082019050818103600083015261149a8161145e565b9050919050565b7f455243313135353a206275726e20616d6f756e7420657863656564732062616c60008201527f616e636500000000000000000000000000000000000000000000000000000000602082015250565b60006114fd60248361119a565b9150611508826114a1565b604082019050919050565b6000602082019050818103600083015261152c816114f0565b9050919050565b600061153e82610db6565b915061154983610db6565b92508282101561155c5761155b611361565b5b828203905092915050565b7f455243313135353a2073657474696e6720617070726f76616c2073746174757360008201527f20666f722073656c660000000000000000000000000000000000000000000000602082015250565b60006115c360298361119a565b91506115ce82611567565b604082019050919050565b600060208201905081810360008301526115f2816115b6565b9050919050565b7f455243313135353a207472616e7366657220746f20746865207a65726f20616460008201527f6472657373000000000000000000000000000000000000000000000000000000602082015250565b600061165560258361119a565b9150611660826115f9565b604082019050919050565b6000602082019050818103600083015261168481611648565b9050919050565b7f455243313135353a20696e73756666696369656e742062616c616e636520666f60008201527f72207472616e7366657200000000000000000000000000000000000000000000602082015250565b60006116e7602a8361119a565b91506116f28261168b565b604082019050919050565b60006020820190508181036000830152611716816116da565b9050919050565b7f4e487b7100000000000000000000000000000000000000000000000000000000600052603260045260246000fdfea2646970667358221220232d578dfb107a0cb33156d1f2a2017c905b1b2a712211933b47d10fab93907564736f6c634300080c0033",
  "immutableReferences": {},
  "source": "// SPDX-License-Identifier: MIT\n// OpenZeppelin Contracts (last updated v4.7.0) (token/ERC1155/ERC1155.sol)\n\npragma solidity ^0.8.0;\n\n// import \"@openzeppelin/contracts/token/ERC1155/IERC1155.sol\";\nimport \"@openzeppelin/contracts/utils/introspection/IERC165.sol\";\nimport \"@openzeppelin/contracts/token/ERC1155/IERC1155Receiver.sol\";\n// import \"@openzeppelin/contracts/token/ERC1155/extensions/IERC1155MetadataURI.sol\";\n// import \"@openzeppelin/contracts/utils/Address.sol\";\nimport \"@openzeppelin/contracts/utils/Context.sol\";\nimport \"@openzeppelin/contracts/utils/introspection/ERC165.sol\";\n\ninterface IERC1155 is IERC165 {\n    /**\n     * @dev Emitted when `value` tokens of token type `id` are transferred from `from` to `to` by `operator`.\n     */\n    event TransferSingle(address indexed operator, address indexed from, address indexed to, uint256 id, uint256 value);\n\n    /**\n     * @dev Equivalent to multiple {TransferSingle} events, where `operator`, `from` and `to` are the same for all\n     * transfers.\n     */\n    event TransferBatch(\n        address indexed operator,\n        address indexed from,\n        address indexed to,\n        uint256[] ids,\n        uint256[] values\n    );\n\n    /**\n     * @dev Emitted when `account` grants or revokes permission to `operator` to transfer their tokens, according to\n     * `approved`.\n     */\n    event ApprovalForAll(address indexed account, address indexed operator, bool approved);\n\n    /**\n     * @dev Emitted when the URI for token type `id` changes to `value`, if it is a non-programmatic URI.\n     *\n     * If an {URI} event was emitted for `id`, the standard\n     * https://eips.ethereum.org/EIPS/eip-1155#metadata-extensions[guarantees] that `value` will equal the value\n     * returned by {IERC1155MetadataURI-uri}.\n     */\n    event URI(string value, uint256 indexed id);\n\n    /**\n     * @dev Returns the amount of tokens of token type `id` owned by `account`.\n     *\n     * Requirements:\n     *\n     * - `account` cannot be the zero address.\n     */\n    function balanceOf(address account, uint256 id) external view returns (uint256);\n\n    /**\n     * @dev xref:ROOT:erc1155.adoc#batch-operations[Batched] version of {balanceOf}.\n     *\n     * Requirements:\n     *\n     * - `accounts` and `ids` must have the same length.\n     */\n    // function balanceOfBatch(address[] calldata accounts, uint256[] calldata ids)\n    //     external\n    //     view\n    //     returns (uint256[] memory);\n\n    /**\n     * @dev Grants or revokes permission to `operator` to transfer the caller's tokens, according to `approved`,\n     *\n     * Emits an {ApprovalForAll} event.\n     *\n     * Requirements:\n     *\n     * - `operator` cannot be the caller.\n     */\n    function setApprovalForAll(address operator, bool approved) external;\n\n    /**\n     * @dev Returns true if `operator` is approved to transfer ``account``'s tokens.\n     *\n     * See {setApprovalForAll}.\n     */\n    function isApprovedForAll(address account, address operator) external view returns (bool);\n\n    /**\n     * @dev Transfers `amount` tokens of token type `id` from `from` to `to`.\n     *\n     * Emits a {TransferSingle} event.\n     *\n     * Requirements:\n     *\n     * - `to` cannot be the zero address.\n     * - If the caller is not `from`, it must have been approved to spend ``from``'s tokens via {setApprovalForAll}.\n     * - `from` must have a balance of tokens of type `id` of at least `amount`.\n     * - If `to` refers to a smart contract, it must implement {IERC1155Receiver-onERC1155Received} and return the\n     * acceptance magic value.\n     */\n    function safeTransferFrom(\n        address from,\n        address to,\n        uint256 id,\n        uint256 amount,\n        bytes calldata data\n    ) external;\n\n    /**\n     * @dev xref:ROOT:erc1155.adoc#batch-operations[Batched] version of {safeTransferFrom}.\n     *\n     * Emits a {TransferBatch} event.\n     *\n     * Requirements:\n     *\n     * - `ids` and `amounts` must have the same length.\n     * - If `to` refers to a smart contract, it must implement {IERC1155Receiver-onERC1155BatchReceived} and return the\n     * acceptance magic value.\n     */\n    // function safeBatchTransferFrom(\n    //     address from,\n    //     address to,\n    //     uint256[] calldata ids,\n    //     uint256[] calldata amounts,\n    //     bytes calldata data\n    // ) external;\n}\n\n/**\n * @dev Implementation of the basic standard multi-token.\n * See https://eips.ethereum.org/EIPS/eip-1155\n * Originally based on code by Enjin: https://github.com/enjin/erc-1155\n *\n * _Available since v3.1._\n */\n// contract ERC1155 is Context, ERC165, IERC1155, IERC1155MetadataURI {\ncontract ERC1155 is Context, ERC165, IERC1155 {\n    // using Address for address;\n\n    // Mapping from token ID to account balances\n    mapping(uint256 => mapping(address => uint256)) private _balances;\n\n    // mapping(uint256 => uint256) private totalBalances;\n    mapping(uint256 => uint256) private totalSupply;\n\n    // Mapping from account to operator approvals\n    mapping(address => mapping(address => bool)) private _operatorApprovals;\n\n    // Used as the URI for all token types by relying on ID substitution, e.g. https://token-cdn-domain/{id}.json\n    string private _uri;\n\n    /**\n     * @dev See {_setURI}.\n     */\n    constructor(string memory uri_) {\n        _setURI(uri_);\n    }\n\n    /**\n     * @dev See {IERC165-supportsInterface}.\n     */\n    // function supportsInterface(bytes4 interfaceId) public view virtual override(ERC165, IERC165) returns (bool) {\n    //     return\n    //         interfaceId == type(IERC1155).interfaceId ||\n    //         interfaceId == type(IERC1155MetadataURI).interfaceId ||\n    //         super.supportsInterface(interfaceId);\n    // }\n\n    /**\n     * @dev See {IERC1155MetadataURI-uri}.\n     *\n     * This implementation returns the same URI for *all* token types. It relies\n     * on the token type ID substitution mechanism\n     * https://eips.ethereum.org/EIPS/eip-1155#metadata[defined in the EIP].\n     *\n     * Clients calling this function must replace the `\\{id\\}` substring with the\n     * actual token type ID.\n     */\n    //function uri(uint256) public view virtual override returns (string memory) {\n    //    return _uri;\n    //}\n\n    /**\n     * @dev See {IERC1155-balanceOf}.\n     *\n     * Requirements:\n     *\n     * - `account` cannot be the zero address.\n     */\n    function balanceOf(address account, uint256 id) public view virtual override returns (uint256) {\n        require(account != address(0), \"ERC1155: address zero is not a valid owner\");\n        return _balances[id][account];\n    }\n\n    /**\n     * @dev See {IERC1155-balanceOfBatch}.\n     *\n     * Requirements:\n     *\n     * - `accounts` and `ids` must have the same length.\n     */\n    // function balanceOfBatch(address[] memory accounts, uint256[] memory ids)\n    //     public\n    //     view\n    //     virtual\n    //     override\n    //     returns (uint256[] memory)\n    // {\n    //     require(accounts.length == ids.length, \"ERC1155: accounts and ids length mismatch\");\n\n    //     uint256[] memory batchBalances = new uint256[](accounts.length);\n\n    //     for (uint256 i = 0; i < accounts.length; ++i) {\n    //         batchBalances[i] = balanceOf(accounts[i], ids[i]);\n    //     }\n\n    //     return batchBalances;\n    // }\n\n    /**\n     * @dev See {IERC1155-setApprovalForAll}.\n     */\n    function setApprovalForAll(address operator, bool approved) public virtual override {\n        _setApprovalForAll(_msgSender(), operator, approved);\n    }\n\n    /**\n     * @dev See {IERC1155-isApprovedForAll}.\n     */\n    function isApprovedForAll(address account, address operator) public view virtual override returns (bool) {\n        return _operatorApprovals[account][operator];\n    }\n\n    /**\n     * @dev See {IERC1155-safeTransferFrom}.\n     */\n    function safeTransferFrom(\n        address from,\n        address to,\n        uint256 id,\n        uint256 amount,\n        bytes memory data\n    ) public virtual override {\n        require(\n            from == _msgSender() || isApprovedForAll(from, _msgSender()),\n            \"ERC1155: caller is not token owner nor approved\"\n        );\n        _safeTransferFrom(from, to, id, amount, data);\n    }\n\n    /**\n     * @dev See {IERC1155-safeBatchTransferFrom}.\n     */\n    // function safeBatchTransferFrom(\n    //     address from,\n    //     address to,\n    //     uint256[] memory ids,\n    //     uint256[] memory amounts,\n    //     bytes memory data\n    // ) public virtual override {\n    //     require(\n    //         from == _msgSender() || isApprovedForAll(from, _msgSender()),\n    //         \"ERC1155: caller is not token owner nor approved\"\n    //     );\n    //     _safeBatchTransferFrom(from, to, ids, amounts, data);\n    // }\n\n    /**\n     * @dev Transfers `amount` tokens of token type `id` from `from` to `to`.\n     *\n     * Emits a {TransferSingle} event.\n     *\n     * Requirements:\n     *\n     * - `to` cannot be the zero address.\n     * - `from` must have a balance of tokens of type `id` of at least `amount`.\n     * - If `to` refers to a smart contract, it must implement {IERC1155Receiver-onERC1155Received} and return the\n     * acceptance magic value.\n     */\n    function _safeTransferFrom(\n        address from,\n        address to,\n        uint256 id,\n        uint256 amount,\n        bytes memory data\n    ) internal virtual {\n        require(to != address(0), \"ERC1155: transfer to the zero address\");\n\n        address operator = _msgSender();\n        uint256[] memory ids = _asSingletonArray(id);\n        uint256[] memory amounts = _asSingletonArray(amount);\n\n        _beforeTokenTransfer(operator, from, to, ids, amounts, data);\n\n        uint256 fromBalance = _balances[id][from];\n        require(fromBalance >= amount, \"ERC1155: insufficient balance for transfer\");\n        unchecked {\n            _balances[id][from] = fromBalance - amount;\n            // totalBalances[id] -= amount;\n        }\n        _balances[id][to] += amount;\n        // totalBalances[id] += amount;\n\n        emit TransferSingle(operator, from, to, id, amount);\n\n        _afterTokenTransfer(operator, from, to, ids, amounts, data);\n\n        // _doSafeTransferAcceptanceCheck(operator, from, to, id, amount, data);\n    }\n\n    /**\n     * @dev xref:ROOT:erc1155.adoc#batch-operations[Batched] version of {_safeTransferFrom}.\n     *\n     * Emits a {TransferBatch} event.\n     *\n     * Requirements:\n     *\n     * - If `to` refers to a smart contract, it must implement {IERC1155Receiver-onERC1155BatchReceived} and return the\n     * acceptance magic value.\n     */\n    // function _safeBatchTransferFrom(\n    //     address from,\n    //     address to,\n    //     uint256[] memory ids,\n    //     uint256[] memory amounts,\n    //     bytes memory data\n    // ) internal virtual {\n    //     require(ids.length == amounts.length, \"ERC1155: ids and amounts length mismatch\");\n    //     require(to != address(0), \"ERC1155: transfer to the zero address\");\n\n    //     address operator = _msgSender();\n\n    //     _beforeTokenTransfer(operator, from, to, ids, amounts, data);\n\n    //     for (uint256 i = 0; i < ids.length; ++i) {\n    //         uint256 id = ids[i];\n    //         uint256 amount = amounts[i];\n\n    //         uint256 fromBalance = _balances[id][from];\n    //         require(fromBalance >= amount, \"ERC1155: insufficient balance for transfer\");\n    //         unchecked {\n    //             _balances[id][from] = fromBalance - amount;\n    //         }\n    //         _balances[id][to] += amount;\n    //     }\n\n    //     emit TransferBatch(operator, from, to, ids, amounts);\n\n    //     _afterTokenTransfer(operator, from, to, ids, amounts, data);\n\n    //     _doSafeBatchTransferAcceptanceCheck(operator, from, to, ids, amounts, data);\n    // }\n\n    /**\n     * @dev Sets a new URI for all token types, by relying on the token type ID\n     * substitution mechanism\n     * https://eips.ethereum.org/EIPS/eip-1155#metadata[defined in the EIP].\n     *\n     * By this mechanism, any occurrence of the `\\{id\\}` substring in either the\n     * URI or any of the amounts in the JSON file at said URI will be replaced by\n     * clients with the token type ID.\n     *\n     * For example, the `https://token-cdn-domain/\\{id\\}.json` URI would be\n     * interpreted by clients as\n     * `https://token-cdn-domain/000000000000000000000000000000000000000000000000000000000004cce0.json`\n     * for token type ID 0x4cce0.\n     *\n     * See {uri}.\n     *\n     * Because these URIs cannot be meaningfully represented by the {URI} event,\n     * this function emits no events.\n     */\n    function _setURI(string memory newuri) internal virtual {\n        _uri = newuri;\n    }\n\n    /**\n     * @dev Creates `amount` tokens of token type `id`, and assigns them to `to`.\n     *\n     * Emits a {TransferSingle} event.\n     *\n     * Requirements:\n     *\n     * - `to` cannot be the zero address.\n     * - If `to` refers to a smart contract, it must implement {IERC1155Receiver-onERC1155Received} and return the\n     * acceptance magic value.\n     */\n    function _mint(\n        address to,\n        uint256 id,\n        uint256 amount,\n        bytes memory data\n    ) internal virtual {\n        require(to != address(0), \"ERC1155: mint to the zero address\");\n\n        address operator = _msgSender();\n        uint256[] memory ids = _asSingletonArray(id);\n        uint256[] memory amounts = _asSingletonArray(amount);\n\n        _beforeTokenTransfer(operator, address(0), to, ids, amounts, data);\n\n        _balances[id][to] += amount;\n        // totalBalances[id] += amount;\n        totalSupply[id] += amount;\n        emit TransferSingle(operator, address(0), to, id, amount);\n\n        _afterTokenTransfer(operator, address(0), to, ids, amounts, data);\n\n        // _doSafeTransferAcceptanceCheck(operator, address(0), to, id, amount, data);\n    }\n\n    function mint(address to, uint256 amount) public {\n        _mint(to, 1, amount, new bytes(10));\n    }\n\n    /**\n     * @dev xref:ROOT:erc1155.adoc#batch-operations[Batched] version of {_mint}.\n     *\n     * Emits a {TransferBatch} event.\n     *\n     * Requirements:\n     *\n     * - `ids` and `amounts` must have the same length.\n     * - If `to` refers to a smart contract, it must implement {IERC1155Receiver-onERC1155BatchReceived} and return the\n     * acceptance magic value.\n     */\n    // function _mintBatch(\n    //     address to,\n    //     uint256[] memory ids,\n    //     uint256[] memory amounts,\n    //     bytes memory data\n    // ) internal virtual {\n    //     require(to != address(0), \"ERC1155: mint to the zero address\");\n    //     require(ids.length == amounts.length, \"ERC1155: ids and amounts length mismatch\");\n\n    //     address operator = _msgSender();\n\n    //     _beforeTokenTransfer(operator, address(0), to, ids, amounts, data);\n\n    //     for (uint256 i = 0; i < ids.length; i++) {\n    //         _balances[ids[i]][to] += amounts[i];\n    //     }\n\n    //     emit TransferBatch(operator, address(0), to, ids, amounts);\n\n    //     _afterTokenTransfer(operator, address(0), to, ids, amounts, data);\n\n    //     _doSafeBatchTransferAcceptanceCheck(operator, address(0), to, ids, amounts, data);\n    // }\n\n    /**\n     * @dev Destroys `amount` tokens of token type `id` from `from`\n     *\n     * Emits a {TransferSingle} event.\n     *\n     * Requirements:\n     *\n     * - `from` cannot be the zero address.\n     * - `from` must have at least `amount` tokens of token type `id`.\n     */\n    function _burn(\n        address from,\n        uint256 id,\n        uint256 amount\n    ) internal virtual {\n        require(from != address(0), \"ERC1155: burn from the zero address\");\n\n        address operator = _msgSender();\n        uint256[] memory ids = _asSingletonArray(id);\n        uint256[] memory amounts = _asSingletonArray(amount);\n\n        _beforeTokenTransfer(operator, from, address(0), ids, amounts, \"\");\n\n        uint256 fromBalance = _balances[id][from];\n        require(fromBalance >= amount, \"ERC1155: burn amount exceeds balance\");\n        unchecked {\n            _balances[id][from] = fromBalance - amount;\n            // totalBalances[id] -= amount;\n        }\n        totalSupply[id] -= amount;\n\n        emit TransferSingle(operator, from, address(0), id, amount);\n\n        _afterTokenTransfer(operator, from, address(0), ids, amounts, \"\");\n    }\n\n    function burn(address to, uint256 amount) public {\n        address sender = _msgSender();\n        _burn(to, 1, amount);\n    }\n\n    /**\n     * @dev xref:ROOT:erc1155.adoc#batch-operations[Batched] version of {_burn}.\n     *\n     * Emits a {TransferBatch} event.\n     *\n     * Requirements:\n     *\n     * - `ids` and `amounts` must have the same length.\n     */\n    // function _burnBatch(\n    //     address from,\n    //     uint256[] memory ids,\n    //     uint256[] memory amounts\n    // ) internal virtual {\n    //     require(from != address(0), \"ERC1155: burn from the zero address\");\n    //     require(ids.length == amounts.length, \"ERC1155: ids and amounts length mismatch\");\n\n    //     address operator = _msgSender();\n\n    //     _beforeTokenTransfer(operator, from, address(0), ids, amounts, \"\");\n\n    //     for (uint256 i = 0; i < ids.length; i++) {\n    //         uint256 id = ids[i];\n    //         uint256 amount = amounts[i];\n\n    //         uint256 fromBalance = _balances[id][from];\n    //         require(fromBalance >= amount, \"ERC1155: burn amount exceeds balance\");\n    //         unchecked {\n    //             _balances[id][from] = fromBalance - amount;\n    //         }\n    //     }\n\n    //     emit TransferBatch(operator, from, address(0), ids, amounts);\n\n    //     _afterTokenTransfer(operator, from, address(0), ids, amounts, \"\");\n    // }\n\n    /**\n     * @dev Approve `operator` to operate on all of `owner` tokens\n     *\n     * Emits an {ApprovalForAll} event.\n     */\n    function _setApprovalForAll(\n        address owner,\n        address operator,\n        bool approved\n    ) internal virtual {\n        require(owner != operator, \"ERC1155: setting approval status for self\");\n        _operatorApprovals[owner][operator] = approved;\n        emit ApprovalForAll(owner, operator, approved);\n    }\n\n    /**\n     * @dev Hook that is called before any token transfer. This includes minting\n     * and burning, as well as batched variants.\n     *\n     * The same hook is called on both single and batched variants. For single\n     * transfers, the length of the `ids` and `amounts` arrays will be 1.\n     *\n     * Calling conditions (for each `id` and `amount` pair):\n     *\n     * - When `from` and `to` are both non-zero, `amount` of ``from``'s tokens\n     * of token type `id` will be  transferred to `to`.\n     * - When `from` is zero, `amount` tokens of token type `id` will be minted\n     * for `to`.\n     * - when `to` is zero, `amount` of ``from``'s tokens of token type `id`\n     * will be burned.\n     * - `from` and `to` are never both zero.\n     * - `ids` and `amounts` have the same, non-zero length.\n     *\n     * To learn more about hooks, head to xref:ROOT:extending-contracts.adoc#using-hooks[Using Hooks].\n     */\n    function _beforeTokenTransfer(\n        address operator,\n        address from,\n        address to,\n        uint256[] memory ids,\n        uint256[] memory amounts,\n        bytes memory data\n    ) internal virtual {}\n\n    /**\n     * @dev Hook that is called after any token transfer. This includes minting\n     * and burning, as well as batched variants.\n     *\n     * The same hook is called on both single and batched variants. For single\n     * transfers, the length of the `id` and `amount` arrays will be 1.\n     *\n     * Calling conditions (for each `id` and `amount` pair):\n     *\n     * - When `from` and `to` are both non-zero, `amount` of ``from``'s tokens\n     * of token type `id` will be  transferred to `to`.\n     * - When `from` is zero, `amount` tokens of token type `id` will be minted\n     * for `to`.\n     * - when `to` is zero, `amount` of ``from``'s tokens of token type `id`\n     * will be burned.\n     * - `from` and `to` are never both zero.\n     * - `ids` and `amounts` have the same, non-zero length.\n     *\n     * To learn more about hooks, head to xref:ROOT:extending-contracts.adoc#using-hooks[Using Hooks].\n     */\n    function _afterTokenTransfer(\n        address operator,\n        address from,\n        address to,\n        uint256[] memory ids,\n        uint256[] memory amounts,\n        bytes memory data\n    ) internal virtual {}\n\n    // function _doSafeTransferAcceptanceCheck(\n    //     address operator,\n    //     address from,\n    //     address to,\n    //     uint256 id,\n    //     uint256 amount,\n    //     bytes memory data\n    // ) private {\n    //     if (to.isContract()) {\n    //         try IERC1155Receiver(to).onERC1155Received(operator, from, id, amount, data) returns (bytes4 response) {\n    //             if (response != IERC1155Receiver.onERC1155Received.selector) {\n    //                 revert(\"ERC1155: ERC1155Receiver rejected tokens\");\n    //             }\n    //         } catch Error(string memory reason) {\n    //             revert(reason);\n    //         } catch {\n    //             revert(\"ERC1155: transfer to non ERC1155Receiver implementer\");\n    //         }\n    //     }\n    // }\n\n    // function _doSafeBatchTransferAcceptanceCheck(\n    //     address operator,\n    //     address from,\n    //     address to,\n    //     uint256[] memory ids,\n    //     uint256[] memory amounts,\n    //     bytes memory data\n    // ) private {\n    //     if (to.isContract()) {\n    //         try IERC1155Receiver(to).onERC1155BatchReceived(operator, from, ids, amounts, data) returns (\n    //             bytes4 response\n    //         ) {\n    //             if (response != IERC1155Receiver.onERC1155BatchReceived.selector) {\n    //                 revert(\"ERC1155: ERC1155Receiver rejected tokens\");\n    //             }\n    //         } catch Error(string memory reason) {\n    //             revert(reason);\n    //         } catch {\n    //             revert(\"ERC1155: transfer to non ERC1155Receiver implementer\");\n    //         }\n    //     }\n    // }\n\n    function _asSingletonArray(uint256 element) private pure returns (uint256[] memory) {\n        uint256[] memory array = new uint256[](1);\n        array[0] = element;\n\n        return array;\n    }\n\n    // function equalBalance(uint256 tokenId) public view {\n    //   assert(totalBalances[tokenId] == totalSupply[tokenId]);\n    // }\n}",
  "sourcePath": "/Users/ljy/Desktop/PENN/2023_summer/boon_dsc/smart-contracts/optimizations/references_2/contracts/erc1155.sol",
  "compiler": {
    "name": "solc",
    "version": "0.8.12+commit.f00d7308.Emscripten.clang"
  },
  "schemaVersion": "3.4.16",
  "updatedAt": "2023-10-20T05:59:28.567Z",
  "devdoc": {
    "details": "Implementation of the basic standard multi-token. See https://eips.ethereum.org/EIPS/eip-1155 Originally based on code by Enjin: https://github.com/enjin/erc-1155 _Available since v3.1._",
    "kind": "dev",
    "methods": {
      "balanceOf(address,uint256)": {
        "details": "See {IERC1155-balanceOf}. Requirements: - `account` cannot be the zero address."
      },
      "constructor": {
        "details": "See {_setURI}."
      },
      "isApprovedForAll(address,address)": {
        "details": "See {IERC1155-isApprovedForAll}."
      },
      "safeTransferFrom(address,address,uint256,uint256,bytes)": {
        "details": "See {IERC1155-safeTransferFrom}."
      },
      "setApprovalForAll(address,bool)": {
        "details": "See {IERC1155-setApprovalForAll}."
      },
      "supportsInterface(bytes4)": {
        "details": "See {IERC165-supportsInterface}."
      }
    },
    "version": 1
  },
  "userdoc": {
    "kind": "user",
    "methods": {},
    "version": 1
  }
}