{
  "contractName": "TetherToken",
  "abi": [
    {
      "inputs": [
        {
          "internalType": "uint256",
          "name": "_initialSupply",
          "type": "uint256"
        }
      ],
      "stateMutability": "nonpayable",
      "type": "constructor"
    },
    {
      "anonymous": false,
      "inputs": [
        {
          "indexed": false,
          "internalType": "address",
          "name": "_user",
          "type": "address"
        }
      ],
      "name": "AddedBlackList",
      "type": "event"
    },
    {
      "anonymous": false,
      "inputs": [
        {
          "indexed": true,
          "internalType": "address",
          "name": "owner",
          "type": "address"
        },
        {
          "indexed": true,
          "internalType": "address",
          "name": "spender",
          "type": "address"
        },
        {
          "indexed": false,
          "internalType": "uint256",
          "name": "value",
          "type": "uint256"
        }
      ],
      "name": "Approval",
      "type": "event"
    },
    {
      "anonymous": false,
      "inputs": [
        {
          "indexed": false,
          "internalType": "address",
          "name": "_blackListedUser",
          "type": "address"
        },
        {
          "indexed": false,
          "internalType": "uint256",
          "name": "_balance",
          "type": "uint256"
        }
      ],
      "name": "DestroyedBlackFunds",
      "type": "event"
    },
    {
      "anonymous": false,
      "inputs": [
        {
          "indexed": false,
          "internalType": "uint256",
          "name": "amount",
          "type": "uint256"
        }
      ],
      "name": "Issue",
      "type": "event"
    },
    {
      "anonymous": false,
      "inputs": [
        {
          "indexed": false,
          "internalType": "uint256",
          "name": "feeBasisPoints",
          "type": "uint256"
        },
        {
          "indexed": false,
          "internalType": "uint256",
          "name": "maxFee",
          "type": "uint256"
        }
      ],
      "name": "Params",
      "type": "event"
    },
    {
      "anonymous": false,
      "inputs": [],
      "name": "Pause",
      "type": "event"
    },
    {
      "anonymous": false,
      "inputs": [
        {
          "indexed": false,
          "internalType": "uint256",
          "name": "amount",
          "type": "uint256"
        }
      ],
      "name": "Redeem",
      "type": "event"
    },
    {
      "anonymous": false,
      "inputs": [
        {
          "indexed": false,
          "internalType": "address",
          "name": "_user",
          "type": "address"
        }
      ],
      "name": "RemovedBlackList",
      "type": "event"
    },
    {
      "anonymous": false,
      "inputs": [
        {
          "indexed": true,
          "internalType": "address",
          "name": "from",
          "type": "address"
        },
        {
          "indexed": true,
          "internalType": "address",
          "name": "to",
          "type": "address"
        },
        {
          "indexed": false,
          "internalType": "uint256",
          "name": "value",
          "type": "uint256"
        }
      ],
      "name": "Transfer",
      "type": "event"
    },
    {
      "anonymous": false,
      "inputs": [],
      "name": "Unpause",
      "type": "event"
    },
    {
      "inputs": [],
      "name": "MAX_UINT",
      "outputs": [
        {
          "internalType": "uint256",
          "name": "",
          "type": "uint256"
        }
      ],
      "stateMutability": "view",
      "type": "function"
    },
    {
      "inputs": [],
      "name": "_totalSupply",
      "outputs": [
        {
          "internalType": "uint256",
          "name": "",
          "type": "uint256"
        }
      ],
      "stateMutability": "view",
      "type": "function"
    },
    {
      "inputs": [
        {
          "internalType": "address",
          "name": "_evilUser",
          "type": "address"
        }
      ],
      "name": "addBlackList",
      "outputs": [],
      "stateMutability": "nonpayable",
      "type": "function"
    },
    {
      "inputs": [
        {
          "internalType": "address",
          "name": "_owner",
          "type": "address"
        },
        {
          "internalType": "address",
          "name": "_spender",
          "type": "address"
        }
      ],
      "name": "allowance",
      "outputs": [
        {
          "internalType": "uint256",
          "name": "",
          "type": "uint256"
        }
      ],
      "stateMutability": "view",
      "type": "function"
    },
    {
      "inputs": [
        {
          "internalType": "address",
          "name": "",
          "type": "address"
        },
        {
          "internalType": "address",
          "name": "",
          "type": "address"
        }
      ],
      "name": "allowed",
      "outputs": [
        {
          "internalType": "uint256",
          "name": "",
          "type": "uint256"
        }
      ],
      "stateMutability": "view",
      "type": "function"
    },
    {
      "inputs": [
        {
          "internalType": "address",
          "name": "_spender",
          "type": "address"
        },
        {
          "internalType": "uint256",
          "name": "_value",
          "type": "uint256"
        }
      ],
      "name": "approve",
      "outputs": [],
      "stateMutability": "nonpayable",
      "type": "function"
    },
    {
      "inputs": [
        {
          "internalType": "address",
          "name": "_owner",
          "type": "address"
        }
      ],
      "name": "balanceOf",
      "outputs": [
        {
          "internalType": "uint256",
          "name": "",
          "type": "uint256"
        }
      ],
      "stateMutability": "view",
      "type": "function"
    },
    {
      "inputs": [
        {
          "internalType": "address",
          "name": "",
          "type": "address"
        }
      ],
      "name": "balances",
      "outputs": [
        {
          "internalType": "uint256",
          "name": "",
          "type": "uint256"
        }
      ],
      "stateMutability": "view",
      "type": "function"
    },
    {
      "inputs": [],
      "name": "basisPointsRate",
      "outputs": [
        {
          "internalType": "uint256",
          "name": "",
          "type": "uint256"
        }
      ],
      "stateMutability": "view",
      "type": "function"
    },
    {
      "inputs": [],
      "name": "decimals",
      "outputs": [
        {
          "internalType": "uint256",
          "name": "",
          "type": "uint256"
        }
      ],
      "stateMutability": "view",
      "type": "function"
    },
    {
      "inputs": [
        {
          "internalType": "address",
          "name": "_blackListedUser",
          "type": "address"
        }
      ],
      "name": "destroyBlackFunds",
      "outputs": [],
      "stateMutability": "nonpayable",
      "type": "function"
    },
    {
      "inputs": [
        {
          "internalType": "address",
          "name": "_maker",
          "type": "address"
        }
      ],
      "name": "getBlackListStatus",
      "outputs": [
        {
          "internalType": "bool",
          "name": "",
          "type": "bool"
        }
      ],
      "stateMutability": "view",
      "type": "function"
    },
    {
      "inputs": [],
      "name": "getOwner",
      "outputs": [
        {
          "internalType": "address",
          "name": "",
          "type": "address"
        }
      ],
      "stateMutability": "view",
      "type": "function"
    },
    {
      "inputs": [
        {
          "internalType": "address",
          "name": "",
          "type": "address"
        }
      ],
      "name": "isBlackListed",
      "outputs": [
        {
          "internalType": "bool",
          "name": "",
          "type": "bool"
        }
      ],
      "stateMutability": "view",
      "type": "function"
    },
    {
      "inputs": [],
      "name": "maximumFee",
      "outputs": [
        {
          "internalType": "uint256",
          "name": "",
          "type": "uint256"
        }
      ],
      "stateMutability": "view",
      "type": "function"
    },
    {
      "inputs": [],
      "name": "name",
      "outputs": [
        {
          "internalType": "string",
          "name": "",
          "type": "string"
        }
      ],
      "stateMutability": "view",
      "type": "function"
    },
    {
      "inputs": [],
      "name": "owner",
      "outputs": [
        {
          "internalType": "address",
          "name": "",
          "type": "address"
        }
      ],
      "stateMutability": "view",
      "type": "function"
    },
    {
      "inputs": [],
      "name": "pause",
      "outputs": [],
      "stateMutability": "nonpayable",
      "type": "function"
    },
    {
      "inputs": [],
      "name": "paused",
      "outputs": [
        {
          "internalType": "bool",
          "name": "",
          "type": "bool"
        }
      ],
      "stateMutability": "view",
      "type": "function"
    },
    {
      "inputs": [
        {
          "internalType": "address",
          "name": "_clearedUser",
          "type": "address"
        }
      ],
      "name": "removeBlackList",
      "outputs": [],
      "stateMutability": "nonpayable",
      "type": "function"
    },
    {
      "inputs": [],
      "name": "symbol",
      "outputs": [
        {
          "internalType": "string",
          "name": "",
          "type": "string"
        }
      ],
      "stateMutability": "view",
      "type": "function"
    },
    {
      "inputs": [
        {
          "internalType": "address",
          "name": "newOwner",
          "type": "address"
        }
      ],
      "name": "transferOwnership",
      "outputs": [],
      "stateMutability": "nonpayable",
      "type": "function"
    },
    {
      "inputs": [],
      "name": "unpause",
      "outputs": [],
      "stateMutability": "nonpayable",
      "type": "function"
    },
    {
      "inputs": [
        {
          "internalType": "address",
          "name": "_to",
          "type": "address"
        },
        {
          "internalType": "uint256",
          "name": "_value",
          "type": "uint256"
        }
      ],
      "name": "transfer",
      "outputs": [],
      "stateMutability": "nonpayable",
      "type": "function"
    },
    {
      "inputs": [
        {
          "internalType": "address",
          "name": "_from",
          "type": "address"
        },
        {
          "internalType": "address",
          "name": "_to",
          "type": "address"
        },
        {
          "internalType": "uint256",
          "name": "_value",
          "type": "uint256"
        }
      ],
      "name": "transferFrom",
      "outputs": [],
      "stateMutability": "nonpayable",
      "type": "function"
    },
    {
      "inputs": [],
      "name": "totalSupply",
      "outputs": [
        {
          "internalType": "uint256",
          "name": "",
          "type": "uint256"
        }
      ],
      "stateMutability": "view",
      "type": "function"
    },
    {
      "inputs": [
        {
          "internalType": "uint256",
          "name": "amount",
          "type": "uint256"
        }
      ],
      "name": "issue",
      "outputs": [],
      "stateMutability": "nonpayable",
      "type": "function"
    },
    {
      "inputs": [
        {
          "internalType": "uint256",
          "name": "amount",
          "type": "uint256"
        }
      ],
      "name": "redeem",
      "outputs": [],
      "stateMutability": "nonpayable",
      "type": "function"
    },
    {
      "inputs": [
        {
          "internalType": "uint256",
          "name": "newBasisPoints",
          "type": "uint256"
        },
        {
          "internalType": "uint256",
          "name": "newMaxFee",
          "type": "uint256"
        }
      ],
      "name": "setParams",
      "outputs": [],
      "stateMutability": "nonpayable",
      "type": "function"
    }
  ],
  "bytecode": "0x608060405260008060146101000a81548160ff021916908315150217905550600060035560006004557fffffffffffffffffffffffffffffffffffffffffffffffffffffffffffffffff6006553480156200005957600080fd5b50604051620026b7380380620026b783398181016040528101906200007f919062000172565b336000806101000a81548173ffffffffffffffffffffffffffffffffffffffff021916908373ffffffffffffffffffffffffffffffffffffffff1602179055508060018190555080600260008060009054906101000a900473ffffffffffffffffffffffffffffffffffffffff1673ffffffffffffffffffffffffffffffffffffffff1673ffffffffffffffffffffffffffffffffffffffff1681526020019081526020016000208190555050620001a4565b600080fd5b6000819050919050565b6200014c8162000137565b81146200015857600080fd5b50565b6000815190506200016c8162000141565b92915050565b6000602082840312156200018b576200018a62000132565b5b60006200019b848285016200015b565b91505092915050565b61250380620001b46000396000f3fe608060405234801561001057600080fd5b50600436106101cf5760003560e01c80638456cb5911610104578063db006a75116100a2578063e4997dc511610071578063e4997dc5146104f8578063e5b5019a14610514578063f2fde38b14610532578063f3bdc2281461054e576101cf565b8063db006a751461045e578063dd62ed3e1461047a578063dd644f72146104aa578063e47d6060146104c8576101cf565b806395d89b41116100de57806395d89b41146103ec578063a9059cbb1461040a578063c0324c7714610426578063cc872b6614610442576101cf565b80638456cb59146103a6578063893d20e8146103b05780638da5cb5b146103ce576101cf565b8063353907141161017157806359bf1abe1161014b57806359bf1abe146102f85780635c658165146103285780635c975abb1461035857806370a0823114610376576101cf565b806335390714146102b25780633eaaf86b146102d05780633f4ba83a146102ee576101cf565b806318160ddd116101ad57806318160ddd1461022a57806323b872dd1461024857806327e235e314610264578063313ce56714610294576101cf565b806306fdde03146101d4578063095ea7b3146101f25780630ecb93c01461020e575b600080fd5b6101dc61056a565b6040516101e99190611e77565b60405180910390f35b61020c60048036038101906102079190611f32565b6105f8565b005b61022860048036038101906102239190611f72565b61079a565b005b610232610884565b60405161023f9190611fae565b60405180910390f35b610262600480360381019061025d9190611fc9565b61088e565b005b61027e60048036038101906102799190611f72565b61090f565b60405161028b9190611fae565b60405180910390f35b61029c610927565b6040516102a99190611fae565b60405180910390f35b6102ba61092d565b6040516102c79190611fae565b60405180910390f35b6102d8610933565b6040516102e59190611fae565b60405180910390f35b6102f6610939565b005b610312600480360381019061030d9190611f72565b6109f2565b60405161031f9190612037565b60405180910390f35b610342600480360381019061033d9190612052565b610a48565b60405161034f9190611fae565b60405180910390f35b610360610a6d565b60405161036d9190612037565b60405180910390f35b610390600480360381019061038b9190611f72565b610a80565b60405161039d9190611fae565b60405180910390f35b6103ae610ac9565b005b6103b8610b84565b6040516103c591906120a1565b60405180910390f35b6103d6610bad565b6040516103e391906120a1565b60405180910390f35b6103f4610bd1565b6040516104019190611e77565b60405180910390f35b610424600480360381019061041f9190611f32565b610c5f565b005b610440600480360381019061043b91906120bc565b610cde565b005b61045c600480360381019061045791906120fc565b610dbf565b005b610478600480360381019061047391906120fc565b610fd3565b005b610494600480360381019061048f9190612052565b611171565b6040516104a19190611fae565b60405180910390f35b6104b26111f8565b6040516104bf9190611fae565b60405180910390f35b6104e260048036038101906104dd9190611f72565b6111fe565b6040516104ef9190612037565b60405180910390f35b610512600480360381019061050d9190611f72565b61121e565b005b61051c611308565b6040516105299190611fae565b60405180910390f35b61054c60048036038101906105479190611f72565b61130e565b005b61056860048036038101906105639190611f72565b6113de565b005b6008805461057790612158565b80601f01602080910402602001604051908101604052809291908181526020018280546105a390612158565b80156105f05780601f106105c5576101008083540402835291602001916105f0565b820191906000526020600020905b8154815290600101906020018083116105d357829003601f168201915b505050505081565b604060048161060791906121b9565b6000369050101561061757600080fd5b600082141580156106a557506000600560003373ffffffffffffffffffffffffffffffffffffffff1673ffffffffffffffffffffffffffffffffffffffff16815260200190815260200160002060008573ffffffffffffffffffffffffffffffffffffffff1673ffffffffffffffffffffffffffffffffffffffff1681526020019081526020016000205414155b156106af57600080fd5b81600560003373ffffffffffffffffffffffffffffffffffffffff1673ffffffffffffffffffffffffffffffffffffffff16815260200190815260200160002060008573ffffffffffffffffffffffffffffffffffffffff1673ffffffffffffffffffffffffffffffffffffffff168152602001908152602001600020819055508273ffffffffffffffffffffffffffffffffffffffff163373ffffffffffffffffffffffffffffffffffffffff167f8c5be1e5ebec7d5bd14f71427d1e84f3dd0314c0f7b2291e5b200ac8c7c3b9258460405161078d9190611fae565b60405180910390a3505050565b60008054906101000a900473ffffffffffffffffffffffffffffffffffffffff1673ffffffffffffffffffffffffffffffffffffffff163373ffffffffffffffffffffffffffffffffffffffff16146107f257600080fd5b6001600760008373ffffffffffffffffffffffffffffffffffffffff1673ffffffffffffffffffffffffffffffffffffffff16815260200190815260200160002060006101000a81548160ff0219169083151502179055507f42e160154868087d6bfdc0ca23d96a1c1cfa32f1b72ba9ba27b69b98a0d819dc8160405161087991906120a1565b60405180910390a150565b6000600154905090565b600060149054906101000a900460ff16156108a857600080fd5b600760008473ffffffffffffffffffffffffffffffffffffffff1673ffffffffffffffffffffffffffffffffffffffff16815260200190815260200160002060009054906101000a900460ff16156108ff57600080fd5b61090a838383611534565b505050565b60026020528060005260406000206000915090505481565b600a5481565b60045481565b60015481565b60008054906101000a900473ffffffffffffffffffffffffffffffffffffffff1673ffffffffffffffffffffffffffffffffffffffff163373ffffffffffffffffffffffffffffffffffffffff161461099157600080fd5b600060149054906101000a900460ff166109aa57600080fd5b60008060146101000a81548160ff0219169083151502179055507f7805862f689e2f13df9f062ff482ad3ad112aca9e0847911ed832e158c525b3360405160405180910390a1565b6000600760008373ffffffffffffffffffffffffffffffffffffffff1673ffffffffffffffffffffffffffffffffffffffff16815260200190815260200160002060009054906101000a900460ff169050919050565b6005602052816000526040600020602052806000526040600020600091509150505481565b600060149054906101000a900460ff1681565b6000600260008373ffffffffffffffffffffffffffffffffffffffff1673ffffffffffffffffffffffffffffffffffffffff168152602001908152602001600020549050919050565b60008054906101000a900473ffffffffffffffffffffffffffffffffffffffff1673ffffffffffffffffffffffffffffffffffffffff163373ffffffffffffffffffffffffffffffffffffffff1614610b2157600080fd5b600060149054906101000a900460ff1615610b3b57600080fd5b6001600060146101000a81548160ff0219169083151502179055507f6985a02210a168e66602d3235cb6db0e70f92b3ba4d376a33c0f3d9434bff62560405160405180910390a1565b60008060009054906101000a900473ffffffffffffffffffffffffffffffffffffffff16905090565b60008054906101000a900473ffffffffffffffffffffffffffffffffffffffff1681565b60098054610bde90612158565b80601f0160208091040260200160405190810160405280929190818152602001828054610c0a90612158565b8015610c575780601f10610c2c57610100808354040283529160200191610c57565b820191906000526020600020905b815481529060010190602001808311610c3a57829003601f168201915b505050505081565b600060149054906101000a900460ff1615610c7957600080fd5b600760003373ffffffffffffffffffffffffffffffffffffffff1673ffffffffffffffffffffffffffffffffffffffff16815260200190815260200160002060009054906101000a900460ff1615610cd057600080fd5b610cda82826119c4565b5050565b60008054906101000a900473ffffffffffffffffffffffffffffffffffffffff1673ffffffffffffffffffffffffffffffffffffffff163373ffffffffffffffffffffffffffffffffffffffff1614610d3657600080fd5b60148210610d4357600080fd5b60328110610d5057600080fd5b81600381905550610d78600a54600a610d699190612342565b82611d3390919063ffffffff16565b6004819055507fb044a1e409eac5c48e5af22d4af52670dd1a99059537a78b31b48c6500a6354e600354600454604051610db392919061238d565b60405180910390a15050565b60008054906101000a900473ffffffffffffffffffffffffffffffffffffffff1673ffffffffffffffffffffffffffffffffffffffff163373ffffffffffffffffffffffffffffffffffffffff1614610e1757600080fd5b60015481600154610e2891906121b9565b11610e3257600080fd5b600260008060009054906101000a900473ffffffffffffffffffffffffffffffffffffffff1673ffffffffffffffffffffffffffffffffffffffff1673ffffffffffffffffffffffffffffffffffffffff1681526020019081526020016000205481600260008060009054906101000a900473ffffffffffffffffffffffffffffffffffffffff1673ffffffffffffffffffffffffffffffffffffffff1673ffffffffffffffffffffffffffffffffffffffff16815260200190815260200160002054610eff91906121b9565b11610f0957600080fd5b80600260008060009054906101000a900473ffffffffffffffffffffffffffffffffffffffff1673ffffffffffffffffffffffffffffffffffffffff1673ffffffffffffffffffffffffffffffffffffffff1681526020019081526020016000206000828254610f7991906121b9565b925050819055508060016000828254610f9291906121b9565b925050819055507fcb8241adb0c3fdb35b70c24ce35c5eb0c17af7431c99f827d44a445ca624176a81604051610fc89190611fae565b60405180910390a150565b60008054906101000a900473ffffffffffffffffffffffffffffffffffffffff1673ffffffffffffffffffffffffffffffffffffffff163373ffffffffffffffffffffffffffffffffffffffff161461102b57600080fd5b80600154101561103a57600080fd5b80600260008060009054906101000a900473ffffffffffffffffffffffffffffffffffffffff1673ffffffffffffffffffffffffffffffffffffffff1673ffffffffffffffffffffffffffffffffffffffff1681526020019081526020016000205410156110a757600080fd5b80600160008282546110b991906123b6565b9250508190555080600260008060009054906101000a900473ffffffffffffffffffffffffffffffffffffffff1673ffffffffffffffffffffffffffffffffffffffff1673ffffffffffffffffffffffffffffffffffffffff168152602001908152602001600020600082825461113091906123b6565b925050819055507f702d5967f45f6513a38ffc42d6ba9bf230bd40e8f53b16363c7eb4fd2deb9a44816040516111669190611fae565b60405180910390a150565b6000600560008473ffffffffffffffffffffffffffffffffffffffff1673ffffffffffffffffffffffffffffffffffffffff16815260200190815260200160002060008373ffffffffffffffffffffffffffffffffffffffff1673ffffffffffffffffffffffffffffffffffffffff16815260200190815260200160002054905092915050565b60035481565b60076020528060005260406000206000915054906101000a900460ff1681565b60008054906101000a900473ffffffffffffffffffffffffffffffffffffffff1673ffffffffffffffffffffffffffffffffffffffff163373ffffffffffffffffffffffffffffffffffffffff161461127657600080fd5b6000600760008373ffffffffffffffffffffffffffffffffffffffff1673ffffffffffffffffffffffffffffffffffffffff16815260200190815260200160002060006101000a81548160ff0219169083151502179055507fd7e9ec6e6ecd65492dce6bf513cd6867560d49544421d0783ddf06e76c24470c816040516112fd91906120a1565b60405180910390a150565b60065481565b60008054906101000a900473ffffffffffffffffffffffffffffffffffffffff1673ffffffffffffffffffffffffffffffffffffffff163373ffffffffffffffffffffffffffffffffffffffff161461136657600080fd5b600073ffffffffffffffffffffffffffffffffffffffff168173ffffffffffffffffffffffffffffffffffffffff16146113db57806000806101000a81548173ffffffffffffffffffffffffffffffffffffffff021916908373ffffffffffffffffffffffffffffffffffffffff1602179055505b50565b60008054906101000a900473ffffffffffffffffffffffffffffffffffffffff1673ffffffffffffffffffffffffffffffffffffffff163373ffffffffffffffffffffffffffffffffffffffff161461143657600080fd5b600760008273ffffffffffffffffffffffffffffffffffffffff1673ffffffffffffffffffffffffffffffffffffffff16815260200190815260200160002060009054906101000a900460ff1661148c57600080fd5b600061149782610a80565b90506000600260008473ffffffffffffffffffffffffffffffffffffffff1673ffffffffffffffffffffffffffffffffffffffff1681526020019081526020016000208190555080600160008282546114f091906123b6565b925050819055507f61e6e66b0d6339b2980aecc6ccc0039736791f0ccde9ed512e789a7fbdd698c682826040516115289291906123ea565b60405180910390a15050565b602060048161154391906121b9565b6000369050101561155357600080fd5b6000600560008673ffffffffffffffffffffffffffffffffffffffff1673ffffffffffffffffffffffffffffffffffffffff16815260200190815260200160002060003373ffffffffffffffffffffffffffffffffffffffff1673ffffffffffffffffffffffffffffffffffffffff16815260200190815260200160002054905060006115ff6127106115f160035487611d3390919063ffffffff16565b611d7890919063ffffffff16565b90506004548111156116115760045490505b6006548210156116af5761162e8483611d9390919063ffffffff16565b600560008873ffffffffffffffffffffffffffffffffffffffff1673ffffffffffffffffffffffffffffffffffffffff16815260200190815260200160002060003373ffffffffffffffffffffffffffffffffffffffff1673ffffffffffffffffffffffffffffffffffffffff168152602001908152602001600020819055505b60006116c48286611d9390919063ffffffff16565b905061171885600260008a73ffffffffffffffffffffffffffffffffffffffff1673ffffffffffffffffffffffffffffffffffffffff16815260200190815260200160002054611d9390919063ffffffff16565b600260008973ffffffffffffffffffffffffffffffffffffffff1673ffffffffffffffffffffffffffffffffffffffff168152602001908152602001600020819055506117ad81600260008973ffffffffffffffffffffffffffffffffffffffff1673ffffffffffffffffffffffffffffffffffffffff16815260200190815260200160002054611db690919063ffffffff16565b600260008873ffffffffffffffffffffffffffffffffffffffff1673ffffffffffffffffffffffffffffffffffffffff1681526020019081526020016000208190555060008211156119565761186c82600260008060009054906101000a900473ffffffffffffffffffffffffffffffffffffffff1673ffffffffffffffffffffffffffffffffffffffff1673ffffffffffffffffffffffffffffffffffffffff16815260200190815260200160002054611db690919063ffffffff16565b600260008060009054906101000a900473ffffffffffffffffffffffffffffffffffffffff1673ffffffffffffffffffffffffffffffffffffffff1673ffffffffffffffffffffffffffffffffffffffff1681526020019081526020016000208190555060008054906101000a900473ffffffffffffffffffffffffffffffffffffffff1673ffffffffffffffffffffffffffffffffffffffff168773ffffffffffffffffffffffffffffffffffffffff167fddf252ad1be2c89b69c2b068fc378daa952ba7f163c4a11628f55a4df523b3ef8460405161194d9190611fae565b60405180910390a35b8573ffffffffffffffffffffffffffffffffffffffff168773ffffffffffffffffffffffffffffffffffffffff167fddf252ad1be2c89b69c2b068fc378daa952ba7f163c4a11628f55a4df523b3ef836040516119b39190611fae565b60405180910390a350505050505050565b60206004816119d391906121b9565b600036905010156119e357600080fd5b6000611a0e612710611a0060035486611d3390919063ffffffff16565b611d7890919063ffffffff16565b9050600454811115611a205760045490505b6000611a358285611d9390919063ffffffff16565b9050611a8984600260003373ffffffffffffffffffffffffffffffffffffffff1673ffffffffffffffffffffffffffffffffffffffff16815260200190815260200160002054611d9390919063ffffffff16565b600260003373ffffffffffffffffffffffffffffffffffffffff1673ffffffffffffffffffffffffffffffffffffffff16815260200190815260200160002081905550611b1e81600260008873ffffffffffffffffffffffffffffffffffffffff1673ffffffffffffffffffffffffffffffffffffffff16815260200190815260200160002054611db690919063ffffffff16565b600260008773ffffffffffffffffffffffffffffffffffffffff1673ffffffffffffffffffffffffffffffffffffffff168152602001908152602001600020819055506000821115611cc757611bdd82600260008060009054906101000a900473ffffffffffffffffffffffffffffffffffffffff1673ffffffffffffffffffffffffffffffffffffffff1673ffffffffffffffffffffffffffffffffffffffff16815260200190815260200160002054611db690919063ffffffff16565b600260008060009054906101000a900473ffffffffffffffffffffffffffffffffffffffff1673ffffffffffffffffffffffffffffffffffffffff1673ffffffffffffffffffffffffffffffffffffffff1681526020019081526020016000208190555060008054906101000a900473ffffffffffffffffffffffffffffffffffffffff1673ffffffffffffffffffffffffffffffffffffffff163373ffffffffffffffffffffffffffffffffffffffff167fddf252ad1be2c89b69c2b068fc378daa952ba7f163c4a11628f55a4df523b3ef84604051611cbe9190611fae565b60405180910390a35b8473ffffffffffffffffffffffffffffffffffffffff163373ffffffffffffffffffffffffffffffffffffffff167fddf252ad1be2c89b69c2b068fc378daa952ba7f163c4a11628f55a4df523b3ef83604051611d249190611fae565b60405180910390a35050505050565b600080831415611d465760009050611d72565b60008284611d549190612413565b9050828482611d63919061249c565b14611d6d57600080fd5b809150505b92915050565b6000808284611d87919061249c565b90508091505092915050565b600082821115611da257600080fd5b8183611dae91906123b6565b905092915050565b6000808284611dc591906121b9565b905083811015611dd457600080fd5b8091505092915050565b600081519050919050565b600082825260208201905092915050565b60005b83811015611e18578082015181840152602081019050611dfd565b83811115611e27576000848401525b50505050565b6000601f19601f8301169050919050565b6000611e4982611dde565b611e538185611de9565b9350611e63818560208601611dfa565b611e6c81611e2d565b840191505092915050565b60006020820190508181036000830152611e918184611e3e565b905092915050565b600080fd5b600073ffffffffffffffffffffffffffffffffffffffff82169050919050565b6000611ec982611e9e565b9050919050565b611ed981611ebe565b8114611ee457600080fd5b50565b600081359050611ef681611ed0565b92915050565b6000819050919050565b611f0f81611efc565b8114611f1a57600080fd5b50565b600081359050611f2c81611f06565b92915050565b60008060408385031215611f4957611f48611e99565b5b6000611f5785828601611ee7565b9250506020611f6885828601611f1d565b9150509250929050565b600060208284031215611f8857611f87611e99565b5b6000611f9684828501611ee7565b91505092915050565b611fa881611efc565b82525050565b6000602082019050611fc36000830184611f9f565b92915050565b600080600060608486031215611fe257611fe1611e99565b5b6000611ff086828701611ee7565b935050602061200186828701611ee7565b925050604061201286828701611f1d565b9150509250925092565b60008115159050919050565b6120318161201c565b82525050565b600060208201905061204c6000830184612028565b92915050565b6000806040838503121561206957612068611e99565b5b600061207785828601611ee7565b925050602061208885828601611ee7565b9150509250929050565b61209b81611ebe565b82525050565b60006020820190506120b66000830184612092565b92915050565b600080604083850312156120d3576120d2611e99565b5b60006120e185828601611f1d565b92505060206120f285828601611f1d565b9150509250929050565b60006020828403121561211257612111611e99565b5b600061212084828501611f1d565b91505092915050565b7f4e487b7100000000000000000000000000000000000000000000000000000000600052602260045260246000fd5b6000600282049050600182168061217057607f821691505b6020821081141561218457612183612129565b5b50919050565b7f4e487b7100000000000000000000000000000000000000000000000000000000600052601160045260246000fd5b60006121c482611efc565b91506121cf83611efc565b9250827fffffffffffffffffffffffffffffffffffffffffffffffffffffffffffffffff038211156122045761220361218a565b5b828201905092915050565b60008160011c9050919050565b6000808291508390505b6001851115612266578086048111156122425761224161218a565b5b60018516156122515780820291505b808102905061225f8561220f565b9450612226565b94509492505050565b60008261227f576001905061233b565b8161228d576000905061233b565b81600181146122a357600281146122ad576122dc565b600191505061233b565b60ff8411156122bf576122be61218a565b5b8360020a9150848211156122d6576122d561218a565b5b5061233b565b5060208310610133831016604e8410600b84101617156123115782820a90508381111561230c5761230b61218a565b5b61233b565b61231e848484600161221c565b925090508184048111156123355761233461218a565b5b81810290505b9392505050565b600061234d82611efc565b915061235883611efc565b92506123857fffffffffffffffffffffffffffffffffffffffffffffffffffffffffffffffff848461226f565b905092915050565b60006040820190506123a26000830185611f9f565b6123af6020830184611f9f565b9392505050565b60006123c182611efc565b91506123cc83611efc565b9250828210156123df576123de61218a565b5b828203905092915050565b60006040820190506123ff6000830185612092565b61240c6020830184611f9f565b9392505050565b600061241e82611efc565b915061242983611efc565b9250817fffffffffffffffffffffffffffffffffffffffffffffffffffffffffffffffff04831182151516156124625761246161218a565b5b828202905092915050565b7f4e487b7100000000000000000000000000000000000000000000000000000000600052601260045260246000fd5b60006124a782611efc565b91506124b283611efc565b9250826124c2576124c161246d565b5b82820490509291505056fea2646970667358221220c4537699838059d4083d79063a25f722882d0b06bc3b5fab7363fa0d058c264864736f6c634300080c0033",
  "immutableReferences": {},
  "source": "/**\n *Submitted for verification at Etherscan.io on 2017-11-28\n*/\n\n// pragma solidity ^0.4.17;\npragma solidity ^0.8.0;\n\n/**\n * @title SafeMath\n * @dev Math operations with safety checks that throw on error\n */\nlibrary SafeMath {\n    function mul(uint256 a, uint256 b) internal pure returns (uint256) {\n        if (a == 0) {\n            return 0;\n        }\n        uint256 c = a * b;\n        require(c / a == b);\n        return c;\n    }\n\n    function div(uint256 a, uint256 b) internal pure returns (uint256) {\n        // assert(b > 0); // Solidity automatically throws when dividing by 0\n        uint256 c = a / b;\n        // assert(a == b * c + a % b); // There is no case in which this doesn't hold\n        return c;\n    }\n\n    function sub(uint256 a, uint256 b) internal pure returns (uint256) {\n        require(b <= a);\n        return a - b;\n    }\n\n    function add(uint256 a, uint256 b) internal pure returns (uint256) {\n        uint256 c = a + b;\n        require(c >= a);\n        return c;\n    }\n}\n\n/**\n * @title Ownable\n * @dev The Ownable contract has an owner address, and provides basic authorization control\n * functions, this simplifies the implementation of \"user permissions\".\n */\ncontract Ownable {\n    address public owner;\n\n    /**\n      * @dev The Ownable constructor sets the original `owner` of the contract to the sender\n      * account.\n      */\n    constructor() {\n        owner = msg.sender;\n    }\n\n    /**\n      * @dev Throws if called by any account other than the owner.\n      */\n    modifier onlyOwner() {\n        require(msg.sender == owner);\n        _;\n    }\n\n    /**\n    * @dev Allows the current owner to transfer control of the contract to a newOwner.\n    * @param newOwner The address to transfer ownership to.\n    */\n    function transferOwnership(address newOwner) public onlyOwner {\n        if (newOwner != address(0)) {\n            owner = newOwner;\n        }\n    }\n\n}\n\n/**\n * @title ERC20Basic\n * @dev Simpler version of ERC20 interface\n * @dev see https://github.com/ethereum/EIPs/issues/20\n */\nabstract contract ERC20Basic {\n    uint public _totalSupply;\n    function totalSupply() public view virtual returns (uint);\n    function balanceOf(address who) public view virtual returns (uint);\n    function transfer(address to, uint value) public virtual;\n    event Transfer(address indexed from, address indexed to, uint value);\n}\n\n/**\n * @title ERC20 interface\n * @dev see https://github.com/ethereum/EIPs/issues/20\n */\nabstract contract ERC20 is ERC20Basic {\n    function allowance(address owner, address spender) public view virtual returns (uint);\n    function transferFrom(address from, address to, uint value) public virtual;\n    function approve(address spender, uint value) public virtual;\n    event Approval(address indexed owner, address indexed spender, uint value);\n}\n\n/**\n * @title Basic token\n * @dev Basic version of StandardToken, with no allowances.\n */\nabstract contract BasicToken is Ownable, ERC20Basic {\n    using SafeMath for uint;\n\n    mapping(address => uint) public balances;\n\n    // uint256 balanceTotal;\n\n    // additional variables for use if transaction fees ever became necessary\n    uint public basisPointsRate = 0;\n    uint public maximumFee = 0;\n\n    /**\n    * @dev Fix for the ERC20 short address attack.\n    */\n    modifier onlyPayloadSize(uint size) {\n        require(!(msg.data.length < size + 4));\n        _;\n    }\n\n    /**\n    * @dev transfer token for a specified address\n    * @param _to The address to transfer to.\n    * @param _value The amount to be transferred.\n    */\n    function transfer(address _to, uint _value) public virtual override onlyPayloadSize(1 * 32) {\n        uint fee = (_value.mul(basisPointsRate)).div(10000);\n        if (fee > maximumFee) {\n            fee = maximumFee;\n        }\n        uint sendAmount = _value.sub(fee);\n        balances[msg.sender] = balances[msg.sender].sub(_value);\n        // balanceTotal = balanceTotal.sub(_value);\n        balances[_to] = balances[_to].add(sendAmount);\n        // balanceTotal = balanceTotal.add(sendAmount);\n        if (fee > 0) {\n            balances[owner] = balances[owner].add(fee);\n            // balanceTotal = balanceTotal.add(fee);\n            emit Transfer(msg.sender, owner, fee);\n        }\n        emit Transfer(msg.sender, _to, sendAmount);\n    }\n\n    /**\n    * @dev Gets the balance of the specified address.\n    * @param _owner The address to query the the balance of.\n    * @return An uint representing the amount owned by the passed address.\n    */\n    function balanceOf(address _owner) public view virtual override returns (uint) {\n        return balances[_owner];\n    }\n\n}\n\n/**\n * @title Standard ERC20 token\n *\n * @dev Implementation of the basic standard token.\n * @dev https://github.com/ethereum/EIPs/issues/20\n * @dev Based oncode by FirstBlood: https://github.com/Firstbloodio/token/blob/master/smart_contract/FirstBloodToken.sol\n */\nabstract contract StandardToken is BasicToken, ERC20 {\n\n    using SafeMath for uint;\n\n    mapping (address => mapping (address => uint)) public allowed;\n\n    uint public MAX_UINT = 2**256 - 1;\n\n    /**\n    * @dev Transfer tokens from one address to another\n    * @param _from address The address which you want to send tokens from\n    * @param _to address The address which you want to transfer to\n    * @param _value uint the amount of tokens to be transferred\n    */\n    function transferFrom(address _from, address _to, uint _value) public virtual override onlyPayloadSize(1 * 32) {\n        uint _allowance = allowed[_from][msg.sender];\n\n        // Check is not needed because sub(_allowance, _value) will already throw if this condition is not met\n        // if (_value > _allowance) throw;\n\n        uint fee = (_value.mul(basisPointsRate)).div(10000);\n        if (fee > maximumFee) {\n            fee = maximumFee;\n        }\n        if (_allowance < MAX_UINT) {\n            allowed[_from][msg.sender] = _allowance.sub(_value);\n        }\n        uint sendAmount = _value.sub(fee);\n        balances[_from] = balances[_from].sub(_value);\n        // balanceTotal = balanceTotal.sub(_value);\n        balances[_to] = balances[_to].add(sendAmount);\n        // balanceTotal = balanceTotal.add(sendAmount);\n        if (fee > 0) {\n            balances[owner] = balances[owner].add(fee);\n            // balanceTotal = balanceTotal.add(fee);\n            emit Transfer(_from, owner, fee);\n        }\n        emit Transfer(_from, _to, sendAmount);\n    }\n\n    /**\n    * @dev Approve the passed address to spend the specified amount of tokens on behalf of msg.sender.\n    * @param _spender The address which will spend the funds.\n    * @param _value The amount of tokens to be spent.\n    */\n    function approve(address _spender, uint _value) public virtual override onlyPayloadSize(2 * 32) {\n\n        // To change the approve amount you first have to reduce the addresses`\n        //  allowance to zero by calling `approve(_spender, 0)` if it is not\n        //  already 0 to mitigate the race condition described here:\n        //  https://github.com/ethereum/EIPs/issues/20#issuecomment-263524729\n        require(!((_value != 0) && (allowed[msg.sender][_spender] != 0)));\n\n        allowed[msg.sender][_spender] = _value;\n        emit Approval(msg.sender, _spender, _value);\n    }\n\n    /**\n    * @dev Function to check the amount of tokens than an owner allowed to a spender.\n    * @param _owner address The address which owns the funds.\n    * @param _spender address The address which will spend the funds.\n    * @return A uint specifying the amount of tokens still available for the spender.\n    */\n    function allowance(address _owner, address _spender) public view virtual override returns (uint) {\n        return allowed[_owner][_spender];\n    }\n\n}\n\n\n/**\n * @title Pausable\n * @dev Base contract which allows children to implement an emergency stop mechanism.\n */\ncontract Pausable is Ownable {\n  event Pause();\n  event Unpause();\n\n  bool public paused = false;\n\n\n  /**\n   * @dev Modifier to make a function callable only when the contract is not paused.\n   */\n  modifier whenNotPaused() {\n    require(!paused);\n    _;\n  }\n\n  /**\n   * @dev Modifier to make a function callable only when the contract is paused.\n   */\n  modifier whenPaused() {\n    require(paused);\n    _;\n  }\n\n  /**\n   * @dev called by the owner to pause, triggers stopped state\n   */\n  function pause() onlyOwner whenNotPaused public {\n    paused = true;\n    emit Pause();\n  }\n\n  /**\n   * @dev called by the owner to unpause, returns to normal state\n   */\n  function unpause() onlyOwner whenPaused public {\n    paused = false;\n    emit Unpause();\n  }\n}\n\nabstract contract BlackList is Ownable, BasicToken {\n\n    /////// Getters to allow the same blacklist to be used also by other contracts (including upgraded Tether) ///////\n    function getBlackListStatus(address _maker) external view returns (bool) {\n        return isBlackListed[_maker];\n    }\n\n    function getOwner() external view returns (address) {\n        return owner;\n    }\n\n    mapping (address => bool) public isBlackListed;\n    \n    function addBlackList (address _evilUser) public onlyOwner {\n        isBlackListed[_evilUser] = true;\n        emit AddedBlackList(_evilUser);\n    }\n\n    function removeBlackList (address _clearedUser) public onlyOwner {\n        isBlackListed[_clearedUser] = false;\n        emit RemovedBlackList(_clearedUser);\n    }\n\n    function destroyBlackFunds (address _blackListedUser) public onlyOwner {\n        require(isBlackListed[_blackListedUser]);\n        uint dirtyFunds = balanceOf(_blackListedUser);\n        balances[_blackListedUser] = 0;\n        // balanceTotal -= dirtyFunds;\n        _totalSupply -= dirtyFunds;\n        emit DestroyedBlackFunds(_blackListedUser, dirtyFunds);\n    }\n\n    event DestroyedBlackFunds(address _blackListedUser, uint _balance);\n\n    event AddedBlackList(address _user);\n\n    event RemovedBlackList(address _user);\n\n}\n\nabstract contract UpgradedStandardToken is StandardToken{\n    // those methods are called by the legacy contract\n    // and they must ensure msg.sender to be the contract address\n    function transferByLegacy(address from, address to, uint value) public virtual;\n    function transferFromByLegacy(address sender, address from, address spender, uint value) public virtual;\n    function approveByLegacy(address from, address spender, uint value) public virtual;\n}\n\ncontract TetherToken is Pausable, StandardToken, BlackList {\n    using SafeMath for uint;\n\n    string public name;\n    string public symbol;\n    uint public decimals;\n    // address public upgradedAddress;\n    // bool public deprecated;\n\n    //  The contract can be initialized with a number of tokens\n    //  All the tokens are deposited to the owner address\n    //\n    // @param _balance Initial supply of the contract\n    // @param _name Token Name\n    // @param _symbol Token symbol\n    // @param _decimals Token decimals\n    constructor(uint _initialSupply \n                // string memory _name, string memory _symbol, uint _decimals\n               ) {\n        _totalSupply = _initialSupply;\n        // name = _name;\n        // symbol = _symbol;\n        // decimals = _decimals;\n        balances[owner] = _initialSupply;\n        // balanceTotal = _initialSupply;\n        // deprecated = false;\n    }\n\n    // Forward ERC20 methods to upgraded contract if this one is deprecated\n    function transfer(address _to, uint _value) public override(BasicToken, ERC20Basic) whenNotPaused {\n        require(!isBlackListed[msg.sender]);\n        // if (deprecated) {\n        //     return UpgradedStandardToken(upgradedAddress).transferByLegacy(msg.sender, _to, _value);\n        // } else {\n        //     return super.transfer(_to, _value);\n        // }\n        return super.transfer(_to, _value);\n    }\n\n    // Forward ERC20 methods to upgraded contract if this one is deprecated\n    function transferFrom(address _from, address _to, uint _value) public override whenNotPaused {\n        require(!isBlackListed[_from]);\n        // if (deprecated) {\n        //     return UpgradedStandardToken(upgradedAddress).transferFromByLegacy(msg.sender, _from, _to, _value);\n        // } else {\n        //     return super.transferFrom(_from, _to, _value);\n        // }\n        return super.transferFrom(_from, _to, _value);\n    }\n\n    // Forward ERC20 methods to upgraded contract if this one is deprecated\n    // function balanceOf(address who) public view override(BasicToken, ERC20Basic) returns (uint) {\n    //     if (deprecated) {\n    //         return UpgradedStandardToken(upgradedAddress).balanceOf(who);\n    //     } else {\n    //         return super.balanceOf(who);\n    //     }\n    // }\n\n    // Forward ERC20 methods to upgraded contract if this one is deprecated\n    // function approve(address _spender, uint _value) public override onlyPayloadSize(2 * 32) {\n    //     if (deprecated) {\n    //         return UpgradedStandardToken(upgradedAddress).approveByLegacy(msg.sender, _spender, _value);\n    //     } else {\n    //         return super.approve(_spender, _value);\n    //     }\n    // }\n\n    // Forward ERC20 methods to upgraded contract if this one is deprecated\n    // function allowance(address _owner, address _spender) public view override returns (uint remaining) {\n    //     if (deprecated) {\n    //         return StandardToken(upgradedAddress).allowance(_owner, _spender);\n    //     } else {\n    //         return super.allowance(_owner, _spender);\n    //     }\n    // }\n\n    // deprecate current contract in favour of a new one\n    // function deprecate(address _upgradedAddress) public onlyOwner {\n    //     deprecated = true;\n    //     upgradedAddress = _upgradedAddress;\n    //     emit Deprecate(_upgradedAddress);\n    // }\n\n    // deprecate current contract if favour of a new one\n    function totalSupply() public view override returns (uint) {\n        // if (deprecated) {\n        //     return StandardToken(upgradedAddress).totalSupply();\n        // } else {\n        //     return _totalSupply;\n        // }\n        return _totalSupply;\n    }\n\n    // Issue a new amount of tokens\n    // these tokens are deposited into the owner address\n    //\n    // @param _amount Number of tokens to be issued\n    function issue(uint amount) public onlyOwner {\n        require(_totalSupply + amount > _totalSupply);\n        require(balances[owner] + amount > balances[owner]);\n\n        balances[owner] += amount;\n        // balanceTotal += amount;\n        _totalSupply += amount;\n        emit Issue(amount);\n    }\n\n    // Redeem tokens.\n    // These tokens are withdrawn from the owner address\n    // if the balance must be enough to cover the redeem\n    // or the call will fail.\n    // @param _amount Number of tokens to be issued\n    function redeem(uint amount) public onlyOwner {\n        require(_totalSupply >= amount);\n        require(balances[owner] >= amount);\n\n        _totalSupply -= amount;\n        balances[owner] -= amount;\n        // balanceTotal -= amount;\n        emit Redeem(amount);\n    }\n\n    function setParams(uint newBasisPoints, uint newMaxFee) public onlyOwner {\n        // Ensure transparency by hardcoding limit beyond which fees can never be added\n        require(newBasisPoints < 20);\n        require(newMaxFee < 50);\n\n        basisPointsRate = newBasisPoints;\n        maximumFee = newMaxFee.mul(10**decimals);\n\n        emit Params(basisPointsRate, maximumFee);\n    }\n\n    // Called when new token are issued\n    event Issue(uint amount);\n\n    // Called when tokens are redeemed\n    event Redeem(uint amount);\n\n    // Called when contract is deprecated\n    // event Deprecate(address newAddress);\n\n    // Called if contract ever adds fees\n    event Params(uint feeBasisPoints, uint maxFee);\n\n    // function check() public view {\n    //   assert(balanceTotal == totalSupply());\n    // }\n}",
  "sourcePath": "/Users/ljy/Desktop/PENN/2023_summer/boon_dsc/smart-contracts/optimizations/references_2/contracts/tether.sol",
  "compiler": {
    "name": "solc",
    "version": "0.8.12+commit.f00d7308.Emscripten.clang"
  },
  "schemaVersion": "3.4.16",
  "updatedAt": "2023-10-20T02:54:58.182Z",
  "devdoc": {
    "kind": "dev",
    "methods": {
      "allowance(address,address)": {
        "details": "Function to check the amount of tokens than an owner allowed to a spender.",
        "params": {
          "_owner": "address The address which owns the funds.",
          "_spender": "address The address which will spend the funds."
        },
        "returns": {
          "_0": "A uint specifying the amount of tokens still available for the spender."
        }
      },
      "approve(address,uint256)": {
        "details": "Approve the passed address to spend the specified amount of tokens on behalf of msg.sender.",
        "params": {
          "_spender": "The address which will spend the funds.",
          "_value": "The amount of tokens to be spent."
        }
      },
      "balanceOf(address)": {
        "details": "Gets the balance of the specified address.",
        "params": {
          "_owner": "The address to query the the balance of."
        },
        "returns": {
          "_0": "An uint representing the amount owned by the passed address."
        }
      },
      "pause()": {
        "details": "called by the owner to pause, triggers stopped state"
      },
      "transferFrom(address,address,uint256)": {
        "details": "Transfer tokens from one address to another",
        "params": {
          "_from": "address The address which you want to send tokens from",
          "_to": "address The address which you want to transfer to",
          "_value": "uint the amount of tokens to be transferred"
        }
      },
      "transferOwnership(address)": {
        "details": "Allows the current owner to transfer control of the contract to a newOwner.",
        "params": {
          "newOwner": "The address to transfer ownership to."
        }
      },
      "unpause()": {
        "details": "called by the owner to unpause, returns to normal state"
      }
    },
    "version": 1
  },
  "userdoc": {
    "kind": "user",
    "methods": {},
    "version": 1
  }
}