{
  "contractName": "Erc777",
  "abi": [
    {
      "inputs": [
        {
          "internalType": "uint256",
          "name": "name",
          "type": "uint256"
        },
        {
          "internalType": "uint256",
          "name": "symbol",
          "type": "uint256"
        }
      ],
      "stateMutability": "nonpayable",
      "type": "constructor"
    },
    {
      "anonymous": false,
      "inputs": [
        {
          "indexed": false,
          "internalType": "address",
          "name": "p",
          "type": "address"
        },
        {
          "indexed": false,
          "internalType": "uint256",
          "name": "amount",
          "type": "uint256"
        },
        {
          "indexed": false,
          "internalType": "uint256",
          "name": "data",
          "type": "uint256"
        },
        {
          "indexed": false,
          "internalType": "uint256",
          "name": "odata",
          "type": "uint256"
        }
      ],
      "name": "Burn",
      "type": "event"
    },
    {
      "anonymous": false,
      "inputs": [
        {
          "indexed": false,
          "internalType": "address",
          "name": "p",
          "type": "address"
        },
        {
          "indexed": false,
          "internalType": "address",
          "name": "s",
          "type": "address"
        },
        {
          "indexed": false,
          "internalType": "uint256",
          "name": "n",
          "type": "uint256"
        }
      ],
      "name": "IncreaseAllowance",
      "type": "event"
    },
    {
      "anonymous": false,
      "inputs": [
        {
          "indexed": false,
          "internalType": "address",
          "name": "p",
          "type": "address"
        },
        {
          "indexed": false,
          "internalType": "uint256",
          "name": "amount",
          "type": "uint256"
        },
        {
          "indexed": false,
          "internalType": "uint256",
          "name": "data",
          "type": "uint256"
        },
        {
          "indexed": false,
          "internalType": "uint256",
          "name": "odata",
          "type": "uint256"
        }
      ],
      "name": "Mint",
      "type": "event"
    },
    {
      "anonymous": false,
      "inputs": [
        {
          "indexed": false,
          "internalType": "address",
          "name": "p",
          "type": "address"
        },
        {
          "indexed": false,
          "internalType": "address",
          "name": "s",
          "type": "address"
        },
        {
          "indexed": false,
          "internalType": "uint256",
          "name": "n",
          "type": "uint256"
        },
        {
          "indexed": false,
          "internalType": "uint256",
          "name": "data",
          "type": "uint256"
        },
        {
          "indexed": false,
          "internalType": "uint256",
          "name": "operatorData",
          "type": "uint256"
        }
      ],
      "name": "OperatorBurn",
      "type": "event"
    },
    {
      "anonymous": false,
      "inputs": [
        {
          "indexed": false,
          "internalType": "address",
          "name": "o",
          "type": "address"
        },
        {
          "indexed": false,
          "internalType": "address",
          "name": "r",
          "type": "address"
        },
        {
          "indexed": false,
          "internalType": "address",
          "name": "s",
          "type": "address"
        },
        {
          "indexed": false,
          "internalType": "uint256",
          "name": "n",
          "type": "uint256"
        },
        {
          "indexed": false,
          "internalType": "uint256",
          "name": "data",
          "type": "uint256"
        },
        {
          "indexed": false,
          "internalType": "uint256",
          "name": "operatorData",
          "type": "uint256"
        }
      ],
      "name": "OperatorSend",
      "type": "event"
    },
    {
      "anonymous": false,
      "inputs": [
        {
          "indexed": false,
          "internalType": "address",
          "name": "p",
          "type": "address"
        },
        {
          "indexed": false,
          "internalType": "address",
          "name": "o",
          "type": "address"
        },
        {
          "indexed": false,
          "internalType": "bool",
          "name": "b",
          "type": "bool"
        }
      ],
      "name": "Operators",
      "type": "event"
    },
    {
      "anonymous": false,
      "inputs": [
        {
          "indexed": false,
          "internalType": "address",
          "name": "p",
          "type": "address"
        },
        {
          "indexed": false,
          "internalType": "address",
          "name": "o",
          "type": "address"
        },
        {
          "indexed": false,
          "internalType": "bool",
          "name": "b",
          "type": "bool"
        }
      ],
      "name": "RevokedDefaultOperator",
      "type": "event"
    },
    {
      "anonymous": false,
      "inputs": [
        {
          "indexed": false,
          "internalType": "address",
          "name": "o",
          "type": "address"
        },
        {
          "indexed": false,
          "internalType": "address",
          "name": "r",
          "type": "address"
        },
        {
          "indexed": false,
          "internalType": "uint256",
          "name": "n",
          "type": "uint256"
        },
        {
          "indexed": false,
          "internalType": "uint256",
          "name": "data",
          "type": "uint256"
        },
        {
          "indexed": false,
          "internalType": "uint256",
          "name": "rdata",
          "type": "uint256"
        },
        {
          "indexed": false,
          "internalType": "bool",
          "name": "b",
          "type": "bool"
        }
      ],
      "name": "Transfer",
      "type": "event"
    },
    {
      "anonymous": false,
      "inputs": [
        {
          "indexed": false,
          "internalType": "address",
          "name": "from",
          "type": "address"
        },
        {
          "indexed": false,
          "internalType": "address",
          "name": "to",
          "type": "address"
        },
        {
          "indexed": false,
          "internalType": "address",
          "name": "spender",
          "type": "address"
        },
        {
          "indexed": false,
          "internalType": "uint256",
          "name": "amount",
          "type": "uint256"
        }
      ],
      "name": "TransferFrom",
      "type": "event"
    },
    {
      "inputs": [
        {
          "internalType": "uint256",
          "name": "amount",
          "type": "uint256"
        },
        {
          "internalType": "uint256",
          "name": "data",
          "type": "uint256"
        }
      ],
      "name": "burn",
      "outputs": [],
      "stateMutability": "nonpayable",
      "type": "function"
    },
    {
      "inputs": [
        {
          "internalType": "address",
          "name": "p",
          "type": "address"
        },
        {
          "internalType": "uint256",
          "name": "n",
          "type": "uint256"
        },
        {
          "internalType": "uint256",
          "name": "data",
          "type": "uint256"
        },
        {
          "internalType": "uint256",
          "name": "operatorData",
          "type": "uint256"
        }
      ],
      "name": "operatorBurn",
      "outputs": [
        {
          "internalType": "uint256",
          "name": "",
          "type": "uint256"
        }
      ],
      "stateMutability": "nonpayable",
      "type": "function"
    },
    {
      "inputs": [
        {
          "internalType": "address",
          "name": "s",
          "type": "address"
        },
        {
          "internalType": "uint256",
          "name": "n",
          "type": "uint256"
        }
      ],
      "name": "approve",
      "outputs": [],
      "stateMutability": "nonpayable",
      "type": "function"
    },
    {
      "inputs": [
        {
          "internalType": "address",
          "name": "p",
          "type": "address"
        }
      ],
      "name": "getBalanceOf",
      "outputs": [
        {
          "internalType": "uint256",
          "name": "",
          "type": "uint256"
        }
      ],
      "stateMutability": "view",
      "type": "function"
    },
    {
      "inputs": [
        {
          "internalType": "address",
          "name": "p",
          "type": "address"
        },
        {
          "internalType": "address",
          "name": "s",
          "type": "address"
        }
      ],
      "name": "getAllowance",
      "outputs": [
        {
          "internalType": "uint256",
          "name": "",
          "type": "uint256"
        }
      ],
      "stateMutability": "view",
      "type": "function"
    },
    {
      "inputs": [
        {
          "internalType": "address",
          "name": "p",
          "type": "address"
        }
      ],
      "name": "getDefaultOperator",
      "outputs": [
        {
          "internalType": "bool",
          "name": "",
          "type": "bool"
        }
      ],
      "stateMutability": "view",
      "type": "function"
    },
    {
      "inputs": [
        {
          "internalType": "address",
          "name": "r",
          "type": "address"
        },
        {
          "internalType": "uint256",
          "name": "amount",
          "type": "uint256"
        }
      ],
      "name": "transfer",
      "outputs": [],
      "stateMutability": "nonpayable",
      "type": "function"
    },
    {
      "inputs": [
        {
          "internalType": "address",
          "name": "p",
          "type": "address"
        },
        {
          "internalType": "address",
          "name": "o",
          "type": "address"
        }
      ],
      "name": "getOperators",
      "outputs": [
        {
          "internalType": "bool",
          "name": "",
          "type": "bool"
        }
      ],
      "stateMutability": "view",
      "type": "function"
    },
    {
      "inputs": [],
      "name": "getTotalSupply",
      "outputs": [
        {
          "internalType": "uint256",
          "name": "",
          "type": "uint256"
        }
      ],
      "stateMutability": "view",
      "type": "function"
    },
    {
      "inputs": [
        {
          "internalType": "address",
          "name": "o",
          "type": "address"
        }
      ],
      "name": "authorizeOperator",
      "outputs": [],
      "stateMutability": "nonpayable",
      "type": "function"
    },
    {
      "inputs": [
        {
          "internalType": "address",
          "name": "from",
          "type": "address"
        },
        {
          "internalType": "address",
          "name": "to",
          "type": "address"
        },
        {
          "internalType": "uint256",
          "name": "amount",
          "type": "uint256"
        }
      ],
      "name": "transferFrom",
      "outputs": [],
      "stateMutability": "nonpayable",
      "type": "function"
    },
    {
      "inputs": [
        {
          "internalType": "uint256",
          "name": "amount",
          "type": "uint256"
        },
        {
          "internalType": "uint256",
          "name": "data",
          "type": "uint256"
        }
      ],
      "name": "mint",
      "outputs": [],
      "stateMutability": "nonpayable",
      "type": "function"
    },
    {
      "inputs": [
        {
          "internalType": "address",
          "name": "p",
          "type": "address"
        },
        {
          "internalType": "address",
          "name": "o",
          "type": "address"
        }
      ],
      "name": "getRevokedDefaultOperator",
      "outputs": [
        {
          "internalType": "bool",
          "name": "",
          "type": "bool"
        }
      ],
      "stateMutability": "view",
      "type": "function"
    },
    {
      "inputs": [
        {
          "internalType": "address",
          "name": "o",
          "type": "address"
        }
      ],
      "name": "revokeOperator",
      "outputs": [],
      "stateMutability": "nonpayable",
      "type": "function"
    },
    {
      "inputs": [
        {
          "internalType": "address",
          "name": "o",
          "type": "address"
        },
        {
          "internalType": "address",
          "name": "r",
          "type": "address"
        },
        {
          "internalType": "uint256",
          "name": "n",
          "type": "uint256"
        },
        {
          "internalType": "uint256",
          "name": "data",
          "type": "uint256"
        },
        {
          "internalType": "uint256",
          "name": "operatorData",
          "type": "uint256"
        }
      ],
      "name": "operatorSend",
      "outputs": [
        {
          "internalType": "uint256",
          "name": "",
          "type": "uint256"
        }
      ],
      "stateMutability": "nonpayable",
      "type": "function"
    }
  ],
  "bytecode": "0x60806040523480156200001157600080fd5b506040516200290838038062002908833981810160405281019062000037919062000143565b620000476200005f60201b60201c565b620000576200006160201b60201c565b50506200018a565b565b600033905060405180604001604052808273ffffffffffffffffffffffffffffffffffffffff16815260200160011515815250600d60008201518160000160006101000a81548173ffffffffffffffffffffffffffffffffffffffff021916908373ffffffffffffffffffffffffffffffffffffffff16021790555060208201518160000160146101000a81548160ff02191690831515021790555090505050565b600080fd5b6000819050919050565b6200011d8162000108565b81146200012957600080fd5b50565b6000815190506200013d8162000112565b92915050565b600080604083850312156200015d576200015c62000103565b5b60006200016d858286016200012c565b925050602062000180858286016200012c565b9150509250929050565b61276e806200019a6000396000f3fe608060405234801561001057600080fd5b50600436106100f55760003560e01c80636c070aa811610097578063a9059cbb11610066578063a9059cbb146102ba578063b390c0ab146102d6578063c4e41b22146102f2578063fad8b32a14610310576100f5565b80636c070aa81461020e57806387e8fc6a1461023e578063959b8c3f1461026e5780639b96eece1461028a576100f5565b80631b2ef1ca116100d35780631b2ef1ca1461017657806323b872dd1461019257806343c494e7146101ae578063448e2c9c146101de576100f5565b8063095ea7b3146100fa5780630af4187d1461011657806317d92cff14610146575b600080fd5b610114600480360381019061010f91906120da565b61032c565b005b610130600480360381019061012b919061211a565b610387565b60405161013d9190612169565b60405180910390f35b610160600480360381019061015b919061211a565b6103a0565b60405161016d919061219f565b60405180910390f35b610190600480360381019061018b91906121ba565b61043c565b005b6101ac60048036038101906101a791906121fa565b610497565b005b6101c860048036038101906101c3919061224d565b6104f4565b6040516101d59190612169565b60405180910390f35b6101f860048036038101906101f391906122c8565b61059c565b604051610205919061219f565b60405180910390f35b610228600480360381019061022391906122f5565b6105fa565b6040516102359190612169565b60405180910390f35b6102586004803603810190610253919061211a565b61067d565b604051610265919061219f565b60405180910390f35b610288600480360381019061028391906122c8565b610719565b005b6102a4600480360381019061029f91906122c8565b610790565b6040516102b19190612169565b60405180910390f35b6102d460048036038101906102cf91906120da565b6107a7565b005b6102f060048036038101906102eb91906121ba565b610802565b005b6102fa61085d565b6040516103079190612169565b60405180910390f35b61032a600480360381019061032591906122c8565b610871565b005b600061033883836108e8565b9050600015158115151415610382576040517f08c379a0000000000000000000000000000000000000000000000000000000008152600401610379906123b9565b60405180910390fd5b505050565b600080610394848461095f565b90508091505092915050565b600080600960008573ffffffffffffffffffffffffffffffffffffffff1673ffffffffffffffffffffffffffffffffffffffff16815260200190815260200160002060008473ffffffffffffffffffffffffffffffffffffffff1673ffffffffffffffffffffffffffffffffffffffff16815260200190815260200160002060000160009054906101000a900460ff1690508091505092915050565b60006104488383610a84565b9050600015158115151415610492576040517f08c379a0000000000000000000000000000000000000000000000000000000008152600401610489906123b9565b60405180910390fd5b505050565b60006104a4848484610ae6565b90506000151581151514156104ee576040517f08c379a00000000000000000000000000000000000000000000000000000000081526004016104e5906123b9565b60405180910390fd5b50505050565b6000806105048787878787610b8a565b905060006105158888888888610cec565b905060006105268989898989610de3565b905060001515831515148015610540575060001515821515145b8015610550575060001515811515145b15610590576040517f08c379a0000000000000000000000000000000000000000000000000000000008152600401610587906123b9565b60405180910390fd5b50505095945050505050565b600080600c60008473ffffffffffffffffffffffffffffffffffffffff1673ffffffffffffffffffffffffffffffffffffffff16815260200190815260200160002060000160009054906101000a900460ff16905080915050919050565b60008061060986868686610fa2565b905060006106198787878761115f565b905060001515821515148015610633575060001515811515145b15610673576040517f08c379a000000000000000000000000000000000000000000000000000000000815260040161066a906123b9565b60405180910390fd5b5050949350505050565b600080600460008573ffffffffffffffffffffffffffffffffffffffff1673ffffffffffffffffffffffffffffffffffffffff16815260200190815260200160002060008473ffffffffffffffffffffffffffffffffffffffff1673ffffffffffffffffffffffffffffffffffffffff16815260200190815260200160002060000160009054906101000a900460ff1690508091505092915050565b6000610724826112bf565b9050600061073183611480565b90506000151582151514801561074b575060001515811515145b1561078b576040517f08c379a0000000000000000000000000000000000000000000000000000000008152600401610782906123b9565b60405180910390fd5b505050565b60008061079c83611641565b905080915050919050565b60006107b38383611790565b90506000151581151514156107fd576040517f08c379a00000000000000000000000000000000000000000000000000000000081526004016107f4906123b9565b60405180910390fd5b505050565b600061080e8383611819565b9050600015158115151415610858576040517f08c379a000000000000000000000000000000000000000000000000000000000815260040161084f906123b9565b60405180910390fd5b505050565b60008061086861189c565b90508091505090565b600061087c826118ca565b9050600061088983611a8b565b9050600015158215151480156108a3575060001515811515145b156108e3576040517f08c379a00000000000000000000000000000000000000000000000000000000081526004016108da906123b9565b60405180910390fd5b505050565b60008033905060006108fa828661095f565b90506000818561090a9190612408565b9050610917838783611c4c565b7f01722f0e92ffd761d4a842cffdd36fe3adb6091e41732a4e714250176b7d8d2283878360405161094a9392919061244b565b60405180910390a16001935050505092915050565b600080600860008573ffffffffffffffffffffffffffffffffffffffff1673ffffffffffffffffffffffffffffffffffffffff16815260200190815260200160002060008473ffffffffffffffffffffffffffffffffffffffff1673ffffffffffffffffffffffffffffffffffffffff1681526020019081526020016000206000015490506000600760008673ffffffffffffffffffffffffffffffffffffffff1673ffffffffffffffffffffffffffffffffffffffff16815260200190815260200160002060008573ffffffffffffffffffffffffffffffffffffffff1673ffffffffffffffffffffffffffffffffffffffff16815260200190815260200160002060000154905060008282610a769190612408565b905080935050505092915050565b600080339050610a948185611ce7565b610a9d84611d44565b7fb4c03061fb5b7fed76389d5af8f2e0ddb09f8c70d1333abbb62582835e10accb8185856000604051610ad394939291906124c7565b60405180910390a1600191505092915050565b6000803390506000610af8868361095f565b90506000610b0587611641565b9050848110158015610b175750848210155b15610b7b57610b27878787611d63565b610b32878487611dbf565b7f5f7542858008eeb041631f30e6109ae94b83a58e9a58261dd2c42c508850f93987878588604051610b67949392919061250c565b60405180910390a160019350505050610b83565b600093505050505b9392505050565b600080339050600460008873ffffffffffffffffffffffffffffffffffffffff1673ffffffffffffffffffffffffffffffffffffffff16815260200190815260200160002060008273ffffffffffffffffffffffffffffffffffffffff1673ffffffffffffffffffffffffffffffffffffffff16815260200190815260200160002060000160009054906101000a900460ff161515600115151415610cdd576000610c3488611641565b9050858110158015610c735750600073ffffffffffffffffffffffffffffffffffffffff168773ffffffffffffffffffffffffffffffffffffffff1614155b8015610c7f5750600086115b15610cdb57610c8f888888611e5a565b7f29201c375a50a1787e78de24fb74f692471dddef5031bac82dacb23b57075f81888884898989604051610cc896959493929190612551565b60405180910390a1600192505050610ce3565b505b60009150505b95945050505050565b60003373ffffffffffffffffffffffffffffffffffffffff168673ffffffffffffffffffffffffffffffffffffffff161415610dd5576000610d2d87611641565b9050848110158015610d6c5750600073ffffffffffffffffffffffffffffffffffffffff168673ffffffffffffffffffffffffffffffffffffffff1614155b8015610d785750600085115b15610dd357610d88878787611e5a565b7f29201c375a50a1787e78de24fb74f692471dddef5031bac82dacb23b57075f81878789888888604051610dc196959493929190612551565b60405180910390a16001915050610dda565b505b600090505b95945050505050565b600080339050600960008873ffffffffffffffffffffffffffffffffffffffff1673ffffffffffffffffffffffffffffffffffffffff16815260200190815260200160002060008273ffffffffffffffffffffffffffffffffffffffff1673ffffffffffffffffffffffffffffffffffffffff16815260200190815260200160002060000160009054906101000a900460ff161515600015151415610f9357600c60008273ffffffffffffffffffffffffffffffffffffffff1673ffffffffffffffffffffffffffffffffffffffff16815260200190815260200160002060000160009054906101000a900460ff161515600115151415610f92576000610ee988611641565b9050858110158015610f285750600073ffffffffffffffffffffffffffffffffffffffff168773ffffffffffffffffffffffffffffffffffffffff1614155b8015610f345750600086115b15610f9057610f44888888611e5a565b7f29201c375a50a1787e78de24fb74f692471dddef5031bac82dacb23b57075f81888884898989604051610f7d96959493929190612551565b60405180910390a1600192505050610f99565b505b5b60009150505b95945050505050565b600080339050600960008773ffffffffffffffffffffffffffffffffffffffff1673ffffffffffffffffffffffffffffffffffffffff16815260200190815260200160002060008273ffffffffffffffffffffffffffffffffffffffff1673ffffffffffffffffffffffffffffffffffffffff16815260200190815260200160002060000160009054906101000a900460ff16151560001515141561115157600c60008273ffffffffffffffffffffffffffffffffffffffff1673ffffffffffffffffffffffffffffffffffffffff16815260200190815260200160002060000160009054906101000a900460ff1615156001151514156111505760006110a887611641565b90508581101580156110e75750600073ffffffffffffffffffffffffffffffffffffffff168773ffffffffffffffffffffffffffffffffffffffff1614155b80156110f35750600086115b1561114e5761110487878787611eb6565b7f661b592c15cc184c8bffad3f1fc1f294b124b503ce79e2e905923ab89ec55a04878388888860405161113b9594939291906125b2565b60405180910390a1600192505050611157565b505b5b60009150505b949350505050565b600080339050600460008773ffffffffffffffffffffffffffffffffffffffff1673ffffffffffffffffffffffffffffffffffffffff16815260200190815260200160002060008273ffffffffffffffffffffffffffffffffffffffff1673ffffffffffffffffffffffffffffffffffffffff16815260200190815260200160002060000160009054906101000a900460ff1615156001151514156112b157600061120987611641565b90508581101580156112485750600073ffffffffffffffffffffffffffffffffffffffff168773ffffffffffffffffffffffffffffffffffffffff1614155b80156112545750600086115b156112af5761126587878787611eb6565b7f661b592c15cc184c8bffad3f1fc1f294b124b503ce79e2e905923ab89ec55a04878388888860405161129c9594939291906125b2565b60405180910390a16001925050506112b7565b505b60009150505b949350505050565b600080339050600c60008473ffffffffffffffffffffffffffffffffffffffff1673ffffffffffffffffffffffffffffffffffffffff16815260200190815260200160002060000160009054906101000a900460ff161515600115151415611475578273ffffffffffffffffffffffffffffffffffffffff168173ffffffffffffffffffffffffffffffffffffffff161461147457604051806040016040528060001515815260200160011515815250600960008573ffffffffffffffffffffffffffffffffffffffff1673ffffffffffffffffffffffffffffffffffffffff16815260200190815260200160002060008373ffffffffffffffffffffffffffffffffffffffff1673ffffffffffffffffffffffffffffffffffffffff16815260200190815260200160002060008201518160000160006101000a81548160ff02191690831515021790555060208201518160000160016101000a81548160ff0219169083151502179055509050507fd85ebb1e330b590f50fd30c048a0ba5753d6a30db94527512c0a05d3ca090a808382600060405161146293929190612605565b60405180910390a1600191505061147b565b5b60009150505b919050565b600080339050600c60008473ffffffffffffffffffffffffffffffffffffffff1673ffffffffffffffffffffffffffffffffffffffff16815260200190815260200160002060000160009054906101000a900460ff161515600015151415611636578273ffffffffffffffffffffffffffffffffffffffff168173ffffffffffffffffffffffffffffffffffffffff161461163557604051806040016040528060011515815260200160011515815250600460008373ffffffffffffffffffffffffffffffffffffffff1673ffffffffffffffffffffffffffffffffffffffff16815260200190815260200160002060008573ffffffffffffffffffffffffffffffffffffffff1673ffffffffffffffffffffffffffffffffffffffff16815260200190815260200160002060008201518160000160006101000a81548160ff02191690831515021790555060208201518160000160016101000a81548160ff0219169083151502179055509050507f5e980782d2447d80fcce00db806dd0b2b22fa21fca194769d0a751ecdb972b8d8184600160405161162393929190612605565b60405180910390a1600191505061163c565b5b60009150505b919050565b6000806000808473ffffffffffffffffffffffffffffffffffffffff1673ffffffffffffffffffffffffffffffffffffffff1681526020019081526020016000206000015490506000600160008573ffffffffffffffffffffffffffffffffffffffff1673ffffffffffffffffffffffffffffffffffffffff1681526020019081526020016000206000015490506000600260008673ffffffffffffffffffffffffffffffffffffffff1673ffffffffffffffffffffffffffffffffffffffff1681526020019081526020016000206000015490506000600360008773ffffffffffffffffffffffffffffffffffffffff1673ffffffffffffffffffffffffffffffffffffffff16815260200190815260200160002060000154905060008383868461176d919061263c565b6117779190612408565b6117819190612408565b90508095505050505050919050565b60008033905060006117a182611641565b905080841161180c576117b48285611f0c565b6117be8585611f69565b7fd15345fd274726faa9a362e713fddd54c2302df785660da4271dae1fc8eeef4582868660008060006040516117f996959493929190612692565b60405180910390a1600192505050611813565b6000925050505b92915050565b600080339050600061182a82611641565b905080851161188f5761183d8286611fc5565b61184685612022565b7f743033787f4738ff4d6a7225ce2bd0977ee5f86b91a902a58f5e4d0b297b4644828686600060405161187c94939291906124c7565b60405180910390a1600192505050611896565b6000925050505b92915050565b600080600a60000154905060006005600001549050600082826118bf9190612408565b905080935050505090565b600080339050600c60008473ffffffffffffffffffffffffffffffffffffffff1673ffffffffffffffffffffffffffffffffffffffff16815260200190815260200160002060000160009054906101000a900460ff161515600115151415611a80578273ffffffffffffffffffffffffffffffffffffffff168173ffffffffffffffffffffffffffffffffffffffff1614611a7f57604051806040016040528060011515815260200160011515815250600960008373ffffffffffffffffffffffffffffffffffffffff1673ffffffffffffffffffffffffffffffffffffffff16815260200190815260200160002060008573ffffffffffffffffffffffffffffffffffffffff1673ffffffffffffffffffffffffffffffffffffffff16815260200190815260200160002060008201518160000160006101000a81548160ff02191690831515021790555060208201518160000160016101000a81548160ff0219169083151502179055509050507fd85ebb1e330b590f50fd30c048a0ba5753d6a30db94527512c0a05d3ca090a8081846001604051611a6d93929190612605565b60405180910390a16001915050611a86565b5b60009150505b919050565b600080339050600c60008473ffffffffffffffffffffffffffffffffffffffff1673ffffffffffffffffffffffffffffffffffffffff16815260200190815260200160002060000160009054906101000a900460ff161515600015151415611c41578273ffffffffffffffffffffffffffffffffffffffff168173ffffffffffffffffffffffffffffffffffffffff1614611c4057604051806040016040528060001515815260200160011515815250600460008373ffffffffffffffffffffffffffffffffffffffff1673ffffffffffffffffffffffffffffffffffffffff16815260200190815260200160002060008573ffffffffffffffffffffffffffffffffffffffff1673ffffffffffffffffffffffffffffffffffffffff16815260200190815260200160002060008201518160000160006101000a81548160ff02191690831515021790555060208201518160000160016101000a81548160ff0219169083151502179055509050507f5e980782d2447d80fcce00db806dd0b2b22fa21fca194769d0a751ecdb972b8d81846000604051611c2e93929190612605565b60405180910390a16001915050611c47565b5b60009150505b919050565b80600760008573ffffffffffffffffffffffffffffffffffffffff1673ffffffffffffffffffffffffffffffffffffffff16815260200190815260200160002060008473ffffffffffffffffffffffffffffffffffffffff1673ffffffffffffffffffffffffffffffffffffffff1681526020019081526020016000206000016000828254611cdb919061263c565b92505081905550505050565b80600360008473ffffffffffffffffffffffffffffffffffffffff1673ffffffffffffffffffffffffffffffffffffffff1681526020019081526020016000206000016000828254611d39919061263c565b925050819055505050565b8060056000016000828254611d59919061263c565b9250508190555050565b611d6d8282611f69565b611d778382611f0c565b7fd15345fd274726faa9a362e713fddd54c2302df785660da4271dae1fc8eeef458383836000806000604051611db296959493929190612692565b60405180910390a1505050565b80600860008573ffffffffffffffffffffffffffffffffffffffff1673ffffffffffffffffffffffffffffffffffffffff16815260200190815260200160002060008473ffffffffffffffffffffffffffffffffffffffff1673ffffffffffffffffffffffffffffffffffffffff1681526020019081526020016000206000016000828254611e4e919061263c565b92505081905550505050565b611e648282611f69565b611e6e8382611f0c565b7fd15345fd274726faa9a362e713fddd54c2302df785660da4271dae1fc8eeef458383836000806000604051611ea996959493929190612692565b60405180910390a1505050565b611ebf83612022565b611ec98484611fc5565b7f743033787f4738ff4d6a7225ce2bd0977ee5f86b91a902a58f5e4d0b297b464484848484604051611efe94939291906126f3565b60405180910390a150505050565b80600160008473ffffffffffffffffffffffffffffffffffffffff1673ffffffffffffffffffffffffffffffffffffffff1681526020019081526020016000206000016000828254611f5e919061263c565b925050819055505050565b806000808473ffffffffffffffffffffffffffffffffffffffff1673ffffffffffffffffffffffffffffffffffffffff1681526020019081526020016000206000016000828254611fba919061263c565b925050819055505050565b80600260008473ffffffffffffffffffffffffffffffffffffffff1673ffffffffffffffffffffffffffffffffffffffff1681526020019081526020016000206000016000828254612017919061263c565b925050819055505050565b80600a6000016000828254612037919061263c565b9250508190555050565b600080fd5b600073ffffffffffffffffffffffffffffffffffffffff82169050919050565b600061207182612046565b9050919050565b61208181612066565b811461208c57600080fd5b50565b60008135905061209e81612078565b92915050565b6000819050919050565b6120b7816120a4565b81146120c257600080fd5b50565b6000813590506120d4816120ae565b92915050565b600080604083850312156120f1576120f0612041565b5b60006120ff8582860161208f565b9250506020612110858286016120c5565b9150509250929050565b6000806040838503121561213157612130612041565b5b600061213f8582860161208f565b92505060206121508582860161208f565b9150509250929050565b612163816120a4565b82525050565b600060208201905061217e600083018461215a565b92915050565b60008115159050919050565b61219981612184565b82525050565b60006020820190506121b46000830184612190565b92915050565b600080604083850312156121d1576121d0612041565b5b60006121df858286016120c5565b92505060206121f0858286016120c5565b9150509250929050565b60008060006060848603121561221357612212612041565b5b60006122218682870161208f565b93505060206122328682870161208f565b9250506040612243868287016120c5565b9150509250925092565b600080600080600060a0868803121561226957612268612041565b5b60006122778882890161208f565b95505060206122888882890161208f565b9450506040612299888289016120c5565b93505060606122aa888289016120c5565b92505060806122bb888289016120c5565b9150509295509295909350565b6000602082840312156122de576122dd612041565b5b60006122ec8482850161208f565b91505092915050565b6000806000806080858703121561230f5761230e612041565b5b600061231d8782880161208f565b945050602061232e878288016120c5565b935050604061233f878288016120c5565b9250506060612350878288016120c5565b91505092959194509250565b600082825260208201905092915050565b7f52756c6520636f6e646974696f6e206661696c65640000000000000000000000600082015250565b60006123a360158361235c565b91506123ae8261236d565b602082019050919050565b600060208201905081810360008301526123d281612396565b9050919050565b7f4e487b7100000000000000000000000000000000000000000000000000000000600052601160045260246000fd5b6000612413826120a4565b915061241e836120a4565b925082821015612431576124306123d9565b5b828203905092915050565b61244581612066565b82525050565b6000606082019050612460600083018661243c565b61246d602083018561243c565b61247a604083018461215a565b949350505050565b6000819050919050565b6000819050919050565b60006124b16124ac6124a784612482565b61248c565b6120a4565b9050919050565b6124c181612496565b82525050565b60006080820190506124dc600083018761243c565b6124e9602083018661215a565b6124f6604083018561215a565b61250360608301846124b8565b95945050505050565b6000608082019050612521600083018761243c565b61252e602083018661243c565b61253b604083018561243c565b612548606083018461215a565b95945050505050565b600060c082019050612566600083018961243c565b612573602083018861243c565b612580604083018761243c565b61258d606083018661215a565b61259a608083018561215a565b6125a760a083018461215a565b979650505050505050565b600060a0820190506125c7600083018861243c565b6125d4602083018761243c565b6125e1604083018661215a565b6125ee606083018561215a565b6125fb608083018461215a565b9695505050505050565b600060608201905061261a600083018661243c565b612627602083018561243c565b6126346040830184612190565b949350505050565b6000612647826120a4565b9150612652836120a4565b9250827fffffffffffffffffffffffffffffffffffffffffffffffffffffffffffffffff03821115612687576126866123d9565b5b828201905092915050565b600060c0820190506126a7600083018961243c565b6126b4602083018861243c565b6126c1604083018761215a565b6126ce60608301866124b8565b6126db60808301856124b8565b6126e860a0830184612190565b979650505050505050565b6000608082019050612708600083018761243c565b612715602083018661215a565b612722604083018561215a565b61272f606083018461215a565b9594505050505056fea2646970667358221220244532d5fd94d84b2080be806f313984101483981377abe3bab5aea6c8c2831164736f6c634300080c0033",
  "immutableReferences": {},
  "source": "contract Erc777 {\n  struct TotalOutTuple {\n    uint n;\n    bool _valid;\n  }\n  struct TotalMintTuple {\n    uint n;\n    bool _valid;\n  }\n  struct AllowanceTotalTuple {\n    uint m;\n    bool _valid;\n  }\n  struct RevokedDefaultOperatorTuple {\n    bool b;\n    bool _valid;\n  }\n  struct TotalInTuple {\n    uint n;\n    bool _valid;\n  }\n  struct TotalBurnTuple {\n    uint n;\n    bool _valid;\n  }\n  struct DefaultOperatorTuple {\n    bool b;\n    bool _valid;\n  }\n  struct OwnerTuple {\n    address p;\n    bool _valid;\n  }\n  struct OperatorsTuple {\n    bool b;\n    bool _valid;\n  }\n  struct AllMintTuple {\n    uint n;\n    bool _valid;\n  }\n  struct SpentTotalTuple {\n    uint m;\n    bool _valid;\n  }\n  struct AllBurnTuple {\n    uint n;\n    bool _valid;\n  }\n  mapping(address=>TotalInTuple) totalIn;\n  mapping(address=>TotalOutTuple) totalOut;\n  mapping(address=>TotalBurnTuple) totalBurn;\n  mapping(address=>TotalMintTuple) totalMint;\n  mapping(address=>mapping(address=>OperatorsTuple)) operators;\n  AllMintTuple allMint;\n  mapping(address=>mapping(address=>AllowanceTotalTuple)) allowanceTotal;\n  mapping(address=>mapping(address=>SpentTotalTuple)) spentTotal;\n  mapping(address=>mapping(address=>RevokedDefaultOperatorTuple)) revokedDefaultOperator;\n  AllBurnTuple allBurn;\n  mapping(address=>DefaultOperatorTuple) defaultOperator;\n  OwnerTuple owner;\n  event OperatorBurn(address p,address s,uint n,uint data,uint operatorData);\n  event TransferFrom(address from,address to,address spender,uint amount);\n  event Mint(address p,uint amount,uint data,uint odata);\n  event Transfer(address o,address r,uint n,uint data,uint rdata,bool b);\n  event IncreaseAllowance(address p,address s,uint n);\n  event OperatorSend(address o,address r,address s,uint n,uint data,uint operatorData);\n  event Burn(address p,uint amount,uint data,uint odata);\n  event RevokedDefaultOperator(address p,address o,bool b);\n  event Operators(address p,address o,bool b);\n  constructor(uint name,uint symbol) public {\n    updateTotalSupplyOnInsertConstructor_r6();\n    updateOwnerOnInsertConstructor_r20();\n  }\n  function burn(uint amount,uint data) public    {\n      bool r12 = updateBurnOnInsertRecv_burn_r12(amount,data);\n      if(r12==false) {\n        revert(\"Rule condition failed\");\n      }\n  }\n  function operatorBurn(address p,uint n,uint data,uint operatorData) public   returns (uint) {\n      bool r17 = updateOperatorBurnOnInsertRecv_operatorBurn_r17(p,n,data,operatorData);\n      bool r7 = updateOperatorBurnOnInsertRecv_operatorBurn_r7(p,n,data,operatorData);\n      if(r17==false && r7==false) {\n        revert(\"Rule condition failed\");\n      }\n  }\n  function approve(address s,uint n) public    {\n      bool r27 = updateIncreaseAllowanceOnInsertRecv_approve_r27(s,n);\n      if(r27==false) {\n        revert(\"Rule condition failed\");\n      }\n  }\n  function getBalanceOf(address p) public view  returns (uint) {\n      uint n = balanceOf(p);\n      return n;\n  }\n  function getAllowance(address p,address s) public view  returns (uint) {\n      uint n = allowance(p,s);\n      return n;\n  }\n  function getDefaultOperator(address p) public view  returns (bool) {\n      bool b = defaultOperator[p].b;\n      return b;\n  }\n  function transfer(address r,uint amount) public    {\n      bool r2 = updateTransferOnInsertRecv_transfer_r2(r,amount);\n      if(r2==false) {\n        revert(\"Rule condition failed\");\n      }\n  }\n  function getOperators(address p,address o) public view  returns (bool) {\n      bool b = operators[p][o].b;\n      return b;\n  }\n  function getTotalSupply() public view  returns (uint) {\n      uint n = totalSupply();\n      return n;\n  }\n  function authorizeOperator(address o) public    {\n      bool r14 = updateRevokedDefaultOperatorOnInsertRecv_authorizeOperator_r14(o);\n      bool r23 = updateOperatorsOnInsertRecv_authorizeOperator_r23(o);\n      if(r14==false && r23==false) {\n        revert(\"Rule condition failed\");\n      }\n  }\n  function transferFrom(address from,address to,uint amount) public    {\n      bool r25 = updateTransferFromOnInsertRecv_transferFrom_r25(from,to,amount);\n      if(r25==false) {\n        revert(\"Rule condition failed\");\n      }\n  }\n  function mint(uint amount,uint data) public    {\n      bool r9 = updateMintOnInsertRecv_mint_r9(amount,data);\n      if(r9==false) {\n        revert(\"Rule condition failed\");\n      }\n  }\n  function getRevokedDefaultOperator(address p,address o) public view  returns (bool) {\n      bool b = revokedDefaultOperator[p][o].b;\n      return b;\n  }\n  function revokeOperator(address o) public    {\n      bool r29 = updateRevokedDefaultOperatorOnInsertRecv_revokeOperator_r29(o);\n      bool r28 = updateOperatorsOnInsertRecv_revokeOperator_r28(o);\n      if(r29==false && r28==false) {\n        revert(\"Rule condition failed\");\n      }\n  }\n  function operatorSend(address o,address r,uint n,uint data,uint operatorData) public   returns (uint) {\n      bool r24 = updateOperatorSendOnInsertRecv_operatorSend_r24(o,r,n,data,operatorData);\n      bool r5 = updateOperatorSendOnInsertRecv_operatorSend_r5(o,r,n,data,operatorData);\n      bool r26 = updateOperatorSendOnInsertRecv_operatorSend_r26(o,r,n,data,operatorData);\n      if(r24==false && r5==false && r26==false) {\n        revert(\"Rule condition failed\");\n      }\n  }\n  function updateOperatorSendOnInsertRecv_operatorSend_r24(address o,address r,uint n,uint data,uint operatorData) private   returns (bool) {\n      address s = msg.sender;\n      if(true==operators[o][s].b) {\n        uint m = balanceOf(o);\n        if(m>=n && r!=address(0) && n>0) {\n          updateTransferOnInsertOperatorSend_r11(o,r,n);\n          emit OperatorSend(o,r,s,n,data,operatorData);\n          return true;\n        }\n      }\n      return false;\n  }\n  function updateTransferOnInsertRecv_transfer_r2(address r,uint n) private   returns (bool) {\n      address s = msg.sender;\n      uint m = balanceOf(s);\n      if(n<=m) {\n        updateTotalOutOnInsertTransfer_r3(s,n);\n        updateTotalInOnInsertTransfer_r0(r,n);\n        emit Transfer(s,r,n,0,0,false);\n        return true;\n      }\n      return false;\n  }\n  function totalSupply() private view  returns (uint) {\n      uint b = allBurn.n;\n      uint m = allMint.n;\n      uint n = m-b;\n      return n;\n  }\n  function updateBurnOnInsertRecv_burn_r12(uint a,uint d) private   returns (bool) {\n      address s = msg.sender;\n      uint m = balanceOf(s);\n      if(a<=m) {\n        updateTotalBurnOnInsertBurn_r4(s,a);\n        updateAllBurnOnInsertBurn_r1(a);\n        emit Burn(s,a,d,0);\n        return true;\n      }\n      return false;\n  }\n  function updateBurnOnInsertOperatorBurn_r21(address p,uint n,uint d,uint o) private    {\n      updateAllBurnOnInsertBurn_r1(n);\n      updateTotalBurnOnInsertBurn_r4(p,n);\n      emit Burn(p,n,d,o);\n  }\n  function balanceOf(address p) private view  returns (uint) {\n      uint i = totalIn[p].n;\n      uint o = totalOut[p].n;\n      uint m = totalBurn[p].n;\n      uint n = totalMint[p].n;\n      uint s = ((n+i)-m)-o;\n      return s;\n  }\n  function updateSpentTotalOnInsertTransferFrom_r22(address o,address s,uint n) private    {\n      spentTotal[o][s].m += n;\n  }\n  function updateMintOnInsertRecv_mint_r9(uint a,uint d) private   returns (bool) {\n      address s = msg.sender;\n      updateTotalMintOnInsertMint_r19(s,a);\n      updateAllMintOnInsertMint_r16(a);\n      emit Mint(s,a,d,0);\n      return true;\n      return false;\n  }\n  function updateOperatorSendOnInsertRecv_operatorSend_r5(address o,address r,uint n,uint data,uint operatorData) private   returns (bool) {\n      if(o==msg.sender) {\n        uint m = balanceOf(o);\n        if(m>=n && r!=address(0) && n>0) {\n          updateTransferOnInsertOperatorSend_r11(o,r,n);\n          emit OperatorSend(o,r,o,n,data,operatorData);\n          return true;\n        }\n      }\n      return false;\n  }\n  function updateAllBurnOnInsertBurn_r1(uint a) private    {\n      allBurn.n += a;\n  }\n  function updateOwnerOnInsertConstructor_r20() private    {\n      address s = msg.sender;\n      owner = OwnerTuple(s,true);\n  }\n  function updateIncreaseAllowanceOnInsertRecv_approve_r27(address s,uint n) private   returns (bool) {\n      address o = msg.sender;\n      uint m = allowance(o,s);\n      uint d = n-m;\n      updateAllowanceTotalOnInsertIncreaseAllowance_r30(o,s,d);\n      emit IncreaseAllowance(o,s,d);\n      return true;\n      return false;\n  }\n  function updateAllMintOnInsertMint_r16(uint a) private    {\n      allMint.n += a;\n  }\n  function updateOperatorBurnOnInsertRecv_operatorBurn_r7(address p,uint n,uint data,uint operatorData) private   returns (bool) {\n      address s = msg.sender;\n      if(true==operators[p][s].b) {\n        uint m = balanceOf(p);\n        if(m>=n && p!=address(0) && n>0) {\n          updateBurnOnInsertOperatorBurn_r21(p,n,data,operatorData);\n          emit OperatorBurn(p,s,n,data,operatorData);\n          return true;\n        }\n      }\n      return false;\n  }\n  function updateTransferFromOnInsertRecv_transferFrom_r25(address o,address r,uint n) private   returns (bool) {\n      address s = msg.sender;\n      uint k = allowance(o,s);\n      uint m = balanceOf(o);\n      if(m>=n && k>=n) {\n        updateTransferOnInsertTransferFrom_r18(o,r,n);\n        updateSpentTotalOnInsertTransferFrom_r22(o,s,n);\n        emit TransferFrom(o,r,s,n);\n        return true;\n      }\n      return false;\n  }\n  function updateOperatorsOnInsertRecv_revokeOperator_r28(address o) private   returns (bool) {\n      address p = msg.sender;\n      if(false==defaultOperator[o].b) {\n        if(p!=o) {\n          operators[p][o] = OperatorsTuple(false,true);\n          emit Operators(p,o,false);\n          return true;\n        }\n      }\n      return false;\n  }\n  function updateTotalMintOnInsertMint_r19(address p,uint a) private    {\n      totalMint[p].n += a;\n  }\n  function updateTotalBurnOnInsertBurn_r4(address p,uint a) private    {\n      totalBurn[p].n += a;\n  }\n  function updateRevokedDefaultOperatorOnInsertRecv_authorizeOperator_r14(address o) private   returns (bool) {\n      address p = msg.sender;\n      if(true==defaultOperator[o].b) {\n        if(p!=o) {\n          revokedDefaultOperator[o][p] = RevokedDefaultOperatorTuple(false,true);\n          emit RevokedDefaultOperator(o,p,false);\n          return true;\n        }\n      }\n      return false;\n  }\n  function updateOperatorsOnInsertRecv_authorizeOperator_r23(address o) private   returns (bool) {\n      address p = msg.sender;\n      if(false==defaultOperator[o].b) {\n        if(p!=o) {\n          operators[p][o] = OperatorsTuple(true,true);\n          emit Operators(p,o,true);\n          return true;\n        }\n      }\n      return false;\n  }\n  function allowance(address o,address s) private view  returns (uint) {\n      uint l = spentTotal[o][s].m;\n      uint m = allowanceTotal[o][s].m;\n      uint n = m-l;\n      return n;\n  }\n  function updateuintByint(uint x,int delta) private   returns (uint) {\n      int convertedX = int(x);\n      int value = convertedX+delta;\n      uint convertedValue = uint(value);\n      return convertedValue;\n  }\n  function updateRevokedDefaultOperatorOnInsertRecv_revokeOperator_r29(address o) private   returns (bool) {\n      address p = msg.sender;\n      if(true==defaultOperator[o].b) {\n        if(p!=o) {\n          revokedDefaultOperator[p][o] = RevokedDefaultOperatorTuple(true,true);\n          emit RevokedDefaultOperator(p,o,true);\n          return true;\n        }\n      }\n      return false;\n  }\n  function updateTransferOnInsertTransferFrom_r18(address o,address r,uint n) private    {\n      updateTotalInOnInsertTransfer_r0(r,n);\n      updateTotalOutOnInsertTransfer_r3(o,n);\n      emit Transfer(o,r,n,0,0,false);\n  }\n  function updateTransferOnInsertOperatorSend_r11(address o,address r,uint n) private    {\n      updateTotalInOnInsertTransfer_r0(r,n);\n      updateTotalOutOnInsertTransfer_r3(o,n);\n      emit Transfer(o,r,n,0,0,false);\n  }\n  function updateTotalInOnInsertTransfer_r0(address p,uint n) private    {\n      totalIn[p].n += n;\n  }\n  function updateTotalSupplyOnInsertConstructor_r6() private    {\n      // Empty()\n  }\n  function updateAllowanceTotalOnInsertIncreaseAllowance_r30(address o,address s,uint n) private    {\n      allowanceTotal[o][s].m += n;\n  }\n  function updateTotalOutOnInsertTransfer_r3(address p,uint n) private    {\n      totalOut[p].n += n;\n  }\n  function updateOperatorSendOnInsertRecv_operatorSend_r26(address o,address r,uint n,uint data,uint operatorData) private   returns (bool) {\n      address s = msg.sender;\n      if(false==revokedDefaultOperator[o][s].b) {\n        if(true==defaultOperator[s].b) {\n          uint m = balanceOf(o);\n          if(m>=n && r!=address(0) && n>0) {\n            updateTransferOnInsertOperatorSend_r11(o,r,n);\n            emit OperatorSend(o,r,s,n,data,operatorData);\n            return true;\n          }\n        }\n      }\n      return false;\n  }\n  function updateOperatorBurnOnInsertRecv_operatorBurn_r17(address p,uint n,uint data,uint operatorData) private   returns (bool) {\n      address s = msg.sender;\n      if(false==revokedDefaultOperator[p][s].b) {\n        if(true==defaultOperator[s].b) {\n          uint m = balanceOf(p);\n          if(m>=n && p!=address(0) && n>0) {\n            updateBurnOnInsertOperatorBurn_r21(p,n,data,operatorData);\n            emit OperatorBurn(p,s,n,data,operatorData);\n            return true;\n          }\n        }\n      }\n      return false;\n  }\n}",
  "sourcePath": "/Users/ljy/Desktop/PENN/2023_summer/boon_dsc/smart-contracts/optimizations/min/contracts/erc777/erc7778.sol",
  "compiler": {
    "name": "solc",
    "version": "0.8.12+commit.f00d7308.Emscripten.clang"
  },
  "schemaVersion": "3.4.16",
  "updatedAt": "2024-01-04T08:55:27.329Z",
  "devdoc": {
    "kind": "dev",
    "methods": {},
    "version": 1
  },
  "userdoc": {
    "kind": "user",
    "methods": {},
    "version": 1
  }
}