{
  "contractName": "Bnb",
  "abi": [
    {
      "inputs": [
        {
          "internalType": "uint256",
          "name": "initialSupply",
          "type": "uint256"
        }
      ],
      "stateMutability": "nonpayable",
      "type": "constructor"
    },
    {
      "anonymous": false,
      "inputs": [
        {
          "indexed": false,
          "internalType": "address",
          "name": "p",
          "type": "address"
        },
        {
          "indexed": false,
          "internalType": "uint256",
          "name": "amount",
          "type": "uint256"
        }
      ],
      "name": "Burn",
      "type": "event"
    },
    {
      "anonymous": false,
      "inputs": [
        {
          "indexed": false,
          "internalType": "address",
          "name": "p",
          "type": "address"
        },
        {
          "indexed": false,
          "internalType": "uint256",
          "name": "n",
          "type": "uint256"
        }
      ],
      "name": "Freeze",
      "type": "event"
    },
    {
      "anonymous": false,
      "inputs": [
        {
          "indexed": false,
          "internalType": "address",
          "name": "p",
          "type": "address"
        },
        {
          "indexed": false,
          "internalType": "address",
          "name": "s",
          "type": "address"
        },
        {
          "indexed": false,
          "internalType": "uint256",
          "name": "n",
          "type": "uint256"
        }
      ],
      "name": "IncreaseAllowance",
      "type": "event"
    },
    {
      "anonymous": false,
      "inputs": [
        {
          "indexed": false,
          "internalType": "address",
          "name": "p",
          "type": "address"
        },
        {
          "indexed": false,
          "internalType": "uint256",
          "name": "amount",
          "type": "uint256"
        }
      ],
      "name": "Mint",
      "type": "event"
    },
    {
      "anonymous": false,
      "inputs": [
        {
          "indexed": false,
          "internalType": "address",
          "name": "from",
          "type": "address"
        },
        {
          "indexed": false,
          "internalType": "address",
          "name": "to",
          "type": "address"
        },
        {
          "indexed": false,
          "internalType": "uint256",
          "name": "amount",
          "type": "uint256"
        }
      ],
      "name": "Transfer",
      "type": "event"
    },
    {
      "anonymous": false,
      "inputs": [
        {
          "indexed": false,
          "internalType": "address",
          "name": "from",
          "type": "address"
        },
        {
          "indexed": false,
          "internalType": "address",
          "name": "to",
          "type": "address"
        },
        {
          "indexed": false,
          "internalType": "address",
          "name": "spender",
          "type": "address"
        },
        {
          "indexed": false,
          "internalType": "uint256",
          "name": "amount",
          "type": "uint256"
        }
      ],
      "name": "TransferFrom",
      "type": "event"
    },
    {
      "anonymous": false,
      "inputs": [
        {
          "indexed": false,
          "internalType": "address",
          "name": "p",
          "type": "address"
        },
        {
          "indexed": false,
          "internalType": "uint256",
          "name": "n",
          "type": "uint256"
        }
      ],
      "name": "Unfreeze",
      "type": "event"
    },
    {
      "anonymous": false,
      "inputs": [
        {
          "indexed": false,
          "internalType": "address",
          "name": "p",
          "type": "address"
        },
        {
          "indexed": false,
          "internalType": "uint256",
          "name": "amount",
          "type": "uint256"
        }
      ],
      "name": "WithdrawEther",
      "type": "event"
    },
    {
      "inputs": [
        {
          "internalType": "address",
          "name": "s",
          "type": "address"
        },
        {
          "internalType": "uint256",
          "name": "n",
          "type": "uint256"
        }
      ],
      "name": "approve",
      "outputs": [],
      "stateMutability": "nonpayable",
      "type": "function"
    },
    {
      "inputs": [
        {
          "internalType": "address",
          "name": "to",
          "type": "address"
        },
        {
          "internalType": "uint256",
          "name": "amount",
          "type": "uint256"
        }
      ],
      "name": "transfer",
      "outputs": [],
      "stateMutability": "nonpayable",
      "type": "function"
    },
    {
      "inputs": [
        {
          "internalType": "uint256",
          "name": "n",
          "type": "uint256"
        }
      ],
      "name": "freeze",
      "outputs": [],
      "stateMutability": "nonpayable",
      "type": "function"
    },
    {
      "inputs": [
        {
          "internalType": "uint256",
          "name": "n",
          "type": "uint256"
        }
      ],
      "name": "unfreeze",
      "outputs": [],
      "stateMutability": "nonpayable",
      "type": "function"
    },
    {
      "inputs": [],
      "name": "getTotalSupply",
      "outputs": [
        {
          "internalType": "uint256",
          "name": "",
          "type": "uint256"
        }
      ],
      "stateMutability": "view",
      "type": "function"
    },
    {
      "inputs": [
        {
          "internalType": "address",
          "name": "p",
          "type": "address"
        },
        {
          "internalType": "address",
          "name": "s",
          "type": "address"
        }
      ],
      "name": "getAllowance",
      "outputs": [
        {
          "internalType": "uint256",
          "name": "",
          "type": "uint256"
        }
      ],
      "stateMutability": "view",
      "type": "function"
    },
    {
      "inputs": [
        {
          "internalType": "address",
          "name": "p",
          "type": "address"
        }
      ],
      "name": "getBalanceOf",
      "outputs": [
        {
          "internalType": "uint256",
          "name": "",
          "type": "uint256"
        }
      ],
      "stateMutability": "view",
      "type": "function"
    },
    {
      "inputs": [
        {
          "internalType": "address",
          "name": "from",
          "type": "address"
        },
        {
          "internalType": "address",
          "name": "to",
          "type": "address"
        },
        {
          "internalType": "uint256",
          "name": "amount",
          "type": "uint256"
        }
      ],
      "name": "transferFrom",
      "outputs": [],
      "stateMutability": "nonpayable",
      "type": "function"
    },
    {
      "inputs": [
        {
          "internalType": "uint256",
          "name": "amount",
          "type": "uint256"
        }
      ],
      "name": "withdrawEther",
      "outputs": [],
      "stateMutability": "nonpayable",
      "type": "function"
    },
    {
      "inputs": [
        {
          "internalType": "uint256",
          "name": "amount",
          "type": "uint256"
        }
      ],
      "name": "burn",
      "outputs": [],
      "stateMutability": "nonpayable",
      "type": "function"
    }
  ],
  "bytecode": "0x60806040523480156200001157600080fd5b506040516200195938038062001959833981810160405281019062000037919062000285565b6200004881620000b460201b60201c565b6200005981620000b760201b60201c565b6200006a81620000ba60201b60201c565b6200007b816200014760201b60201c565b6200008c816200015060201b60201c565b6200009c6200015960201b60201c565b620000ad81620001fb60201b60201c565b50620002b7565b50565b50565b6000339050604051806040016040528083815260200160011515815250600360008373ffffffffffffffffffffffffffffffffffffffff1673ffffffffffffffffffffffffffffffffffffffff1681526020019081526020016000206000820151816000015560208201518160010160006101000a81548160ff0219169083151502179055509050505050565b60003390505050565b60003390505050565b600033905060405180604001604052808273ffffffffffffffffffffffffffffffffffffffff16815260200160011515815250600560008201518160000160006101000a81548173ffffffffffffffffffffffffffffffffffffffff021916908373ffffffffffffffffffffffffffffffffffffffff16021790555060208201518160000160146101000a81548160ff02191690831515021790555090505050565b60405180604001604052808281526020016001151581525060016000820151816000015560208201518160010160006101000a81548160ff02191690831515021790555090505050565b600080fd5b6000819050919050565b6200025f816200024a565b81146200026b57600080fd5b50565b6000815190506200027f8162000254565b92915050565b6000602082840312156200029e576200029d62000245565b5b6000620002ae848285016200026e565b91505092915050565b61169280620002c76000396000f3fe608060405234801561001057600080fd5b506004361061009e5760003560e01c80636623fc46116100665780636623fc46146101435780639b96eece1461015f578063a9059cbb1461018f578063c4e41b22146101ab578063d7a78db8146101c95761009e565b8063095ea7b3146100a35780630af4187d146100bf57806323b872dd146100ef5780633bed33ce1461010b57806342966c6814610127575b600080fd5b6100bd60048036038101906100b8919061131b565b6101e5565b005b6100d960048036038101906100d4919061135b565b610240565b6040516100e691906113aa565b60405180910390f35b610109600480360381019061010491906113c5565b610305565b005b61012560048036038101906101209190611418565b610362565b005b610141600480360381019061013c9190611418565b6103bb565b005b61015d60048036038101906101589190611418565b610414565b005b61017960048036038101906101749190611445565b61046d565b60405161018691906113aa565b60405180910390f35b6101a960048036038101906101a4919061131b565b6104f4565b005b6101b361054f565b6040516101c091906113aa565b60405180910390f35b6101e360048036038101906101de9190611418565b610561565b005b60006101f183836105ba565b905060001515811515141561023b576040517f08c379a0000000000000000000000000000000000000000000000000000000008152600401610232906114cf565b60405180910390fd5b505050565b600080600460008573ffffffffffffffffffffffffffffffffffffffff1673ffffffffffffffffffffffffffffffffffffffff16815260200190815260200160002060008473ffffffffffffffffffffffffffffffffffffffff1673ffffffffffffffffffffffffffffffffffffffff168152602001908152602001600020604051806040016040529081600082015481526020016001820160009054906101000a900460ff1615151515815250509050600081600001519050809250505092915050565b6000610312848484610768565b905060001515811515141561035c576040517f08c379a0000000000000000000000000000000000000000000000000000000008152600401610353906114cf565b60405180910390fd5b50505050565b600061036d82610af3565b90506000151581151514156103b7576040517f08c379a00000000000000000000000000000000000000000000000000000000081526004016103ae906114cf565b60405180910390fd5b5050565b60006103c682610bd6565b9050600015158115151415610410576040517f08c379a0000000000000000000000000000000000000000000000000000000008152600401610407906114cf565b60405180910390fd5b5050565b600061041f82610d61565b9050600015158115151415610469576040517f08c379a0000000000000000000000000000000000000000000000000000000008152600401610460906114cf565b60405180910390fd5b5050565b600080600360008473ffffffffffffffffffffffffffffffffffffffff1673ffffffffffffffffffffffffffffffffffffffff168152602001908152602001600020604051806040016040529081600082015481526020016001820160009054906101000a900460ff16151515158152505090506000816000015190508092505050919050565b60006105008383610efa565b905060001515811515141561054a576040517f08c379a0000000000000000000000000000000000000000000000000000000008152600401610541906114cf565b60405180910390fd5b505050565b60008060016000015490508091505090565b600061056c826110e8565b90506000151581151514156105b6576040517f08c379a00000000000000000000000000000000000000000000000000000000081526004016105ad906114cf565b60405180910390fd5b5050565b6000803390506000600460008373ffffffffffffffffffffffffffffffffffffffff1673ffffffffffffffffffffffffffffffffffffffff16815260200190815260200160002060008673ffffffffffffffffffffffffffffffffffffffff1673ffffffffffffffffffffffffffffffffffffffff168152602001908152602001600020604051806040016040529081600082015481526020016001820160009054906101000a900460ff161515151581525050905060008160000151905060008186610687919061151e565b90507f01722f0e92ffd761d4a842cffdd36fe3adb6091e41732a4e714250176b7d8d228488836040516106bc93929190611561565b60405180910390a180600460008673ffffffffffffffffffffffffffffffffffffffff1673ffffffffffffffffffffffffffffffffffffffff16815260200190815260200160002060008973ffffffffffffffffffffffffffffffffffffffff1673ffffffffffffffffffffffffffffffffffffffff16815260200190815260200160002060000160008282546107539190611598565b92505081905550600194505050505092915050565b6000803390506000600460008773ffffffffffffffffffffffffffffffffffffffff1673ffffffffffffffffffffffffffffffffffffffff16815260200190815260200160002060008373ffffffffffffffffffffffffffffffffffffffff1673ffffffffffffffffffffffffffffffffffffffff168152602001908152602001600020604051806040016040529081600082015481526020016001820160009054906101000a900460ff16151515158152505090506000816000015190506000600360008973ffffffffffffffffffffffffffffffffffffffff1673ffffffffffffffffffffffffffffffffffffffff168152602001908152602001600020604051806040016040529081600082015481526020016001820160009054906101000a900460ff16151515158152505090506000816000015190508681101580156108e05750600073ffffffffffffffffffffffffffffffffffffffff168873ffffffffffffffffffffffffffffffffffffffff1614155b80156108f757508081886108f49190611598565b10155b80156109035750600087115b801561090f5750868310155b15610ae2577f5f7542858008eeb041631f30e6109ae94b83a58e9a58261dd2c42c508850f9398989878a60405161094994939291906115ee565b60405180910390a17fddf252ad1be2c89b69c2b068fc378daa952ba7f163c4a11628f55a4df523b3ef89898960405161098493929190611561565b60405180910390a186600360008b73ffffffffffffffffffffffffffffffffffffffff1673ffffffffffffffffffffffffffffffffffffffff16815260200190815260200160002060000160008282546109de919061151e565b9250508190555086600360008a73ffffffffffffffffffffffffffffffffffffffff1673ffffffffffffffffffffffffffffffffffffffff1681526020019081526020016000206000016000828254610a379190611598565b9250508190555086600460008b73ffffffffffffffffffffffffffffffffffffffff1673ffffffffffffffffffffffffffffffffffffffff16815260200190815260200160002060008773ffffffffffffffffffffffffffffffffffffffff1673ffffffffffffffffffffffffffffffffffffffff1681526020019081526020016000206000016000828254610acd919061151e565b92505081905550600195505050505050610aec565b6000955050505050505b9392505050565b600080600560000160009054906101000a900473ffffffffffffffffffffffffffffffffffffffff1690503373ffffffffffffffffffffffffffffffffffffffff168173ffffffffffffffffffffffffffffffffffffffff161415610bcb577fdb35132c111efe920cede025e819975671cfd1b8fcc1174762c8670c4e94c2118184604051610b83929190611633565b60405180910390a18073ffffffffffffffffffffffffffffffffffffffff166108fc849081150290604051600060405180830381858888f19350505050506001915050610bd1565b60009150505b919050565b6000803390506000600360008373ffffffffffffffffffffffffffffffffffffffff1673ffffffffffffffffffffffffffffffffffffffff168152602001908152602001600020604051806040016040529081600082015481526020016001820160009054906101000a900460ff1615151515815250509050600081600001519050600073ffffffffffffffffffffffffffffffffffffffff168373ffffffffffffffffffffffffffffffffffffffff1614158015610c955750808511155b15610d54577fcc16f5dbb4873280815c1ee09dbd06736cffcc184412cf7a71a0fdb75d397ca58386604051610ccb929190611633565b60405180910390a184600360008573ffffffffffffffffffffffffffffffffffffffff1673ffffffffffffffffffffffffffffffffffffffff1681526020019081526020016000206000016000828254610d25919061151e565b925050819055508460016000016000828254610d41919061151e565b9250508190555060019350505050610d5c565b600093505050505b919050565b60008033905060008060008373ffffffffffffffffffffffffffffffffffffffff1673ffffffffffffffffffffffffffffffffffffffff168152602001908152602001600020604051806040016040529081600082015481526020016001820160009054906101000a900460ff1615151515815250509050600081600001519050808511158015610df25750600085115b15610eed577f2cfce4af01bcb9d6cf6c84ee1b7c491100b8695368264146a94d71e10a63083f8386604051610e28929190611633565b60405180910390a1846000808573ffffffffffffffffffffffffffffffffffffffff1673ffffffffffffffffffffffffffffffffffffffff1681526020019081526020016000206000016000828254610e81919061151e565b9250508190555084600360008573ffffffffffffffffffffffffffffffffffffffff1673ffffffffffffffffffffffffffffffffffffffff1681526020019081526020016000206000016000828254610eda9190611598565b9250508190555060019350505050610ef5565b600093505050505b919050565b6000803390506000600360008373ffffffffffffffffffffffffffffffffffffffff1673ffffffffffffffffffffffffffffffffffffffff168152602001908152602001600020604051806040016040529081600082015481526020016001820160009054906101000a900460ff1615151515815250509050600081600001519050808511158015610f8c5750600085115b8015610fc55750600073ffffffffffffffffffffffffffffffffffffffff168673ffffffffffffffffffffffffffffffffffffffff1614155b8015610fdc5750808186610fd99190611598565b10155b156110da577fddf252ad1be2c89b69c2b068fc378daa952ba7f163c4a11628f55a4df523b3ef83878760405161101493929190611561565b60405180910390a184600360008573ffffffffffffffffffffffffffffffffffffffff1673ffffffffffffffffffffffffffffffffffffffff168152602001908152602001600020600001600082825461106e919061151e565b9250508190555084600360008873ffffffffffffffffffffffffffffffffffffffff1673ffffffffffffffffffffffffffffffffffffffff16815260200190815260200160002060000160008282546110c79190611598565b92505081905550600193505050506110e2565b600093505050505b92915050565b6000803390506000600360008373ffffffffffffffffffffffffffffffffffffffff1673ffffffffffffffffffffffffffffffffffffffff168152602001908152602001600020604051806040016040529081600082015481526020016001820160009054906101000a900460ff161515151581525050905060008160000151905080851115801561117a5750600085115b15611275577ff97a274face0b5517365ad396b1fdba6f68bd3135ef603e44272adba3af5a1e083866040516111b0929190611633565b60405180910390a1846000808573ffffffffffffffffffffffffffffffffffffffff1673ffffffffffffffffffffffffffffffffffffffff16815260200190815260200160002060000160008282546112099190611598565b9250508190555084600360008573ffffffffffffffffffffffffffffffffffffffff1673ffffffffffffffffffffffffffffffffffffffff1681526020019081526020016000206000016000828254611262919061151e565b925050819055506001935050505061127d565b600093505050505b919050565b600080fd5b600073ffffffffffffffffffffffffffffffffffffffff82169050919050565b60006112b282611287565b9050919050565b6112c2816112a7565b81146112cd57600080fd5b50565b6000813590506112df816112b9565b92915050565b6000819050919050565b6112f8816112e5565b811461130357600080fd5b50565b600081359050611315816112ef565b92915050565b6000806040838503121561133257611331611282565b5b6000611340858286016112d0565b925050602061135185828601611306565b9150509250929050565b6000806040838503121561137257611371611282565b5b6000611380858286016112d0565b9250506020611391858286016112d0565b9150509250929050565b6113a4816112e5565b82525050565b60006020820190506113bf600083018461139b565b92915050565b6000806000606084860312156113de576113dd611282565b5b60006113ec868287016112d0565b93505060206113fd868287016112d0565b925050604061140e86828701611306565b9150509250925092565b60006020828403121561142e5761142d611282565b5b600061143c84828501611306565b91505092915050565b60006020828403121561145b5761145a611282565b5b6000611469848285016112d0565b91505092915050565b600082825260208201905092915050565b7f52756c6520636f6e646974696f6e206661696c65640000000000000000000000600082015250565b60006114b9601583611472565b91506114c482611483565b602082019050919050565b600060208201905081810360008301526114e8816114ac565b9050919050565b7f4e487b7100000000000000000000000000000000000000000000000000000000600052601160045260246000fd5b6000611529826112e5565b9150611534836112e5565b925082821015611547576115466114ef565b5b828203905092915050565b61155b816112a7565b82525050565b60006060820190506115766000830186611552565b6115836020830185611552565b611590604083018461139b565b949350505050565b60006115a3826112e5565b91506115ae836112e5565b9250827fffffffffffffffffffffffffffffffffffffffffffffffffffffffffffffffff038211156115e3576115e26114ef565b5b828201905092915050565b60006080820190506116036000830187611552565b6116106020830186611552565b61161d6040830185611552565b61162a606083018461139b565b95945050505050565b60006040820190506116486000830185611552565b611655602083018461139b565b939250505056fea2646970667358221220dc7860ac8e6894742725be1b00bcd1f42a802ba1861cfddad9431b17e9c73f5864736f6c634300080c0033",
  "immutableReferences": {},
  "source": "contract Bnb {\n  struct TotalSupplyTuple {\n    uint n;\n    bool _valid;\n  }\n  struct AllowanceTuple {\n    uint n;\n    bool _valid;\n  }\n  struct OwnerTuple {\n    address p;\n    bool _valid;\n  }\n  struct FreezeOfTuple {\n    uint n;\n    bool _valid;\n  }\n  struct BalanceOfTuple {\n    uint n;\n    bool _valid;\n  }\n  mapping(address=>FreezeOfTuple) freezeOf;\n  TotalSupplyTuple totalSupply;\n  mapping(address=>BalanceOfTuple) balanceOf;\n  mapping(address=>mapping(address=>AllowanceTuple)) allowance;\n  OwnerTuple owner;\n  event TransferFrom(address from,address to,address spender,uint amount);\n  event Burn(address p,uint amount);\n  event Mint(address p,uint amount);\n  event WithdrawEther(address p,uint amount);\n  event IncreaseAllowance(address p,address s,uint n);\n  event Unfreeze(address p,uint n);\n  event Freeze(address p,uint n);\n  event Transfer(address from,address to,uint amount);\n  constructor(uint initialSupply) public {\n    updateTotalBalancesOnInsertConstructor_r25(initialSupply);\n    updateAllMintOnInsertConstructor_r9(initialSupply);\n    updateBalanceOfOnInsertConstructor_r4(initialSupply);\n    updateTotalMintOnInsertConstructor_r32(initialSupply);\n    updateTotalInOnInsertConstructor_r30(initialSupply);\n    updateOwnerOnInsertConstructor_r7();\n    updateTotalSupplyOnInsertConstructor_r5(initialSupply);\n  }\n  function approve(address s,uint n) public    {\n      bool r29 = updateIncreaseAllowanceOnInsertRecv_approve_r29(s,n);\n      if(r29==false) {\n        revert(\"Rule condition failed\");\n      }\n  }\n  function transfer(address to,uint amount) public    {\n      bool r8 = updateTransferOnInsertRecv_transfer_r8(to,amount);\n      if(r8==false) {\n        revert(\"Rule condition failed\");\n      }\n  }\n  function freeze(uint n) public    {\n      bool r24 = updateFreezeOnInsertRecv_freeze_r24(n);\n      if(r24==false) {\n        revert(\"Rule condition failed\");\n      }\n  }\n  function unfreeze(uint n) public    {\n      bool r6 = updateUnfreezeOnInsertRecv_unfreeze_r6(n);\n      if(r6==false) {\n        revert(\"Rule condition failed\");\n      }\n  }\n  function getTotalSupply() public view  returns (uint) {\n      uint n = totalSupply.n;\n      return n;\n  }\n  function getAllowance(address p,address s) public view  returns (uint) {\n      AllowanceTuple memory allowanceTuple = allowance[p][s];\n      uint n = allowanceTuple.n;\n      return n;\n  }\n  function getBalanceOf(address p) public view  returns (uint) {\n      BalanceOfTuple memory balanceOfTuple = balanceOf[p];\n      uint n = balanceOfTuple.n;\n      return n;\n  }\n  function transferFrom(address from,address to,uint amount) public    {\n      bool r14 = updateTransferFromOnInsertRecv_transferFrom_r14(from,to,amount);\n      if(r14==false) {\n        revert(\"Rule condition failed\");\n      }\n  }\n  function withdrawEther(uint amount) public    {\n      bool r23 = updateWithdrawEtherOnInsertRecv_withdrawEther_r23(amount);\n      if(r23==false) {\n        revert(\"Rule condition failed\");\n      }\n  }\n  function burn(uint amount) public    {\n      bool r16 = updateBurnOnInsertRecv_burn_r16(amount);\n      if(r16==false) {\n        revert(\"Rule condition failed\");\n      }\n  }\n  function updateTotalInOnInsertConstructor_r30(uint n) private    {\n      address s = msg.sender;\n      // Empty()\n  }\n  function updateFreezeOnInsertRecv_freeze_r24(uint n) private   returns (bool) {\n      address p = msg.sender;\n      BalanceOfTuple memory balanceOfTuple = balanceOf[p];\n      uint m = balanceOfTuple.n;\n      if(n<=m && n>0) {\n        emit Freeze(p,n);\n        freezeOf[p].n += n;\n        balanceOf[p].n -= n;\n        return true;\n      }\n      return false;\n  }\n  function updateTotalBalancesOnInsertConstructor_r25(uint n) private    {\n      // Empty()\n  }\n  function updateTransferFromOnInsertRecv_transferFrom_r14(address o,address r,uint n) private   returns (bool) {\n      address s = msg.sender;\n      AllowanceTuple memory allowanceTuple = allowance[o][s];\n      uint k = allowanceTuple.n;\n      BalanceOfTuple memory balanceOfTuple = balanceOf[o];\n      uint m = balanceOfTuple.n;\n      if(m>=n && r!=address(0) && n+m>=m && n>0 && k>=n) {\n        emit TransferFrom(o,r,s,n);\n        emit Transfer(o,r,n);\n        balanceOf[o].n -= n;\n        balanceOf[r].n += n;\n        allowance[o][s].n -= n;\n        return true;\n      }\n      return false;\n  }\n  function updateuintByint(uint x,int delta) private   returns (uint) {\n      int convertedX = int(x);\n      int value = convertedX+delta;\n      uint convertedValue = uint(value);\n      return convertedValue;\n  }\n  function updateUnfreezeOnInsertRecv_unfreeze_r6(uint n) private   returns (bool) {\n      address p = msg.sender;\n      FreezeOfTuple memory freezeOfTuple = freezeOf[p];\n      uint m = freezeOfTuple.n;\n      if(n<=m && n>0) {\n        emit Unfreeze(p,n);\n        freezeOf[p].n -= n;\n        balanceOf[p].n += n;\n        return true;\n      }\n      return false;\n  }\n  function updateBalanceOfOnInsertConstructor_r4(uint n) private    {\n      address s = msg.sender;\n      balanceOf[s] = BalanceOfTuple(n,true);\n  }\n  function updateTotalSupplyOnInsertConstructor_r5(uint n) private    {\n      totalSupply = TotalSupplyTuple(n,true);\n  }\n  function updateOwnerOnInsertConstructor_r7() private    {\n      address s = msg.sender;\n      owner = OwnerTuple(s,true);\n  }\n  function updateBurnOnInsertRecv_burn_r16(uint n) private   returns (bool) {\n      address p = msg.sender;\n      BalanceOfTuple memory balanceOfTuple = balanceOf[p];\n      uint m = balanceOfTuple.n;\n      if(p!=address(0) && n<=m) {\n        emit Burn(p,n);\n        balanceOf[p].n -= n;\n        totalSupply.n -= n;\n        return true;\n      }\n      return false;\n  }\n  function updateIncreaseAllowanceOnInsertRecv_approve_r29(address s,uint n) private   returns (bool) {\n      address o = msg.sender;\n      AllowanceTuple memory allowanceTuple = allowance[o][s];\n      uint m = allowanceTuple.n;\n      uint d = n-m;\n      emit IncreaseAllowance(o,s,d);\n      allowance[o][s].n += d;\n      return true;\n      return false;\n  }\n  function updateAllMintOnInsertConstructor_r9(uint n) private    {\n      // Empty()\n  }\n  function updateWithdrawEtherOnInsertRecv_withdrawEther_r23(uint n) private   returns (bool) {\n      address p = owner.p;\n      if(p==msg.sender) {\n        emit WithdrawEther(p,n);\n        payable(p).send(n);\n        return true;\n      }\n      return false;\n  }\n  function updateTransferOnInsertRecv_transfer_r8(address r,uint n) private   returns (bool) {\n      address s = msg.sender;\n      BalanceOfTuple memory balanceOfTuple = balanceOf[s];\n      uint m = balanceOfTuple.n;\n      if(n<=m && n>0 && r!=address(0) && n+m>=m) {\n        emit Transfer(s,r,n);\n        balanceOf[s].n -= n;\n        balanceOf[r].n += n;\n        return true;\n      }\n      return false;\n  }\n  function updateTotalMintOnInsertConstructor_r32(uint n) private    {\n      address s = msg.sender;\n      // Empty()\n  }\n}",
  "sourcePath": "/Users/ljy/Desktop/PENN/2023_summer/boon_dsc/smart-contracts/optimizations/ablation/projection/contracts/bnb.sol",
  "compiler": {
    "name": "solc",
    "version": "0.8.12+commit.f00d7308.Emscripten.clang"
  },
  "schemaVersion": "3.4.13",
  "updatedAt": "2023-07-25T16:08:17.564Z",
  "devdoc": {
    "kind": "dev",
    "methods": {},
    "version": 1
  },
  "userdoc": {
    "kind": "user",
    "methods": {},
    "version": 1
  }
}