{
  "contractName": "Matic",
  "abi": [
    {
      "inputs": [
        {
          "internalType": "uint256",
          "name": "n",
          "type": "uint256"
        }
      ],
      "stateMutability": "nonpayable",
      "type": "constructor"
    },
    {
      "anonymous": false,
      "inputs": [
        {
          "indexed": false,
          "internalType": "address",
          "name": "p",
          "type": "address"
        },
        {
          "indexed": false,
          "internalType": "uint256",
          "name": "amount",
          "type": "uint256"
        }
      ],
      "name": "Burn",
      "type": "event"
    },
    {
      "anonymous": false,
      "inputs": [
        {
          "indexed": false,
          "internalType": "address",
          "name": "p",
          "type": "address"
        },
        {
          "indexed": false,
          "internalType": "address",
          "name": "s",
          "type": "address"
        },
        {
          "indexed": false,
          "internalType": "uint256",
          "name": "n",
          "type": "uint256"
        }
      ],
      "name": "DecreaseAllowance",
      "type": "event"
    },
    {
      "anonymous": false,
      "inputs": [
        {
          "indexed": false,
          "internalType": "address",
          "name": "p",
          "type": "address"
        },
        {
          "indexed": false,
          "internalType": "address",
          "name": "s",
          "type": "address"
        },
        {
          "indexed": false,
          "internalType": "uint256",
          "name": "n",
          "type": "uint256"
        }
      ],
      "name": "IncreaseAllowance",
      "type": "event"
    },
    {
      "anonymous": false,
      "inputs": [
        {
          "indexed": false,
          "internalType": "address",
          "name": "p",
          "type": "address"
        },
        {
          "indexed": false,
          "internalType": "bool",
          "name": "b",
          "type": "bool"
        }
      ],
      "name": "IsPauser",
      "type": "event"
    },
    {
      "anonymous": false,
      "inputs": [
        {
          "indexed": false,
          "internalType": "address",
          "name": "p",
          "type": "address"
        },
        {
          "indexed": false,
          "internalType": "uint256",
          "name": "amount",
          "type": "uint256"
        }
      ],
      "name": "Mint",
      "type": "event"
    },
    {
      "anonymous": false,
      "inputs": [
        {
          "indexed": false,
          "internalType": "bool",
          "name": "b",
          "type": "bool"
        }
      ],
      "name": "Paused",
      "type": "event"
    },
    {
      "anonymous": false,
      "inputs": [
        {
          "indexed": false,
          "internalType": "address",
          "name": "from",
          "type": "address"
        },
        {
          "indexed": false,
          "internalType": "address",
          "name": "to",
          "type": "address"
        },
        {
          "indexed": false,
          "internalType": "uint256",
          "name": "amount",
          "type": "uint256"
        }
      ],
      "name": "Transfer",
      "type": "event"
    },
    {
      "anonymous": false,
      "inputs": [
        {
          "indexed": false,
          "internalType": "address",
          "name": "from",
          "type": "address"
        },
        {
          "indexed": false,
          "internalType": "address",
          "name": "to",
          "type": "address"
        },
        {
          "indexed": false,
          "internalType": "address",
          "name": "spender",
          "type": "address"
        },
        {
          "indexed": false,
          "internalType": "uint256",
          "name": "amount",
          "type": "uint256"
        }
      ],
      "name": "TransferFrom",
      "type": "event"
    },
    {
      "inputs": [
        {
          "internalType": "address",
          "name": "p",
          "type": "address"
        }
      ],
      "name": "addPauser",
      "outputs": [],
      "stateMutability": "nonpayable",
      "type": "function"
    },
    {
      "inputs": [],
      "name": "renouncePauser",
      "outputs": [],
      "stateMutability": "nonpayable",
      "type": "function"
    },
    {
      "inputs": [],
      "name": "getTotalSupply",
      "outputs": [
        {
          "internalType": "uint256",
          "name": "",
          "type": "uint256"
        }
      ],
      "stateMutability": "view",
      "type": "function"
    },
    {
      "inputs": [
        {
          "internalType": "address",
          "name": "from",
          "type": "address"
        },
        {
          "internalType": "address",
          "name": "to",
          "type": "address"
        },
        {
          "internalType": "uint256",
          "name": "amount",
          "type": "uint256"
        }
      ],
      "name": "transferFrom",
      "outputs": [],
      "stateMutability": "nonpayable",
      "type": "function"
    },
    {
      "inputs": [
        {
          "internalType": "address",
          "name": "to",
          "type": "address"
        },
        {
          "internalType": "uint256",
          "name": "amount",
          "type": "uint256"
        }
      ],
      "name": "transfer",
      "outputs": [],
      "stateMutability": "nonpayable",
      "type": "function"
    },
    {
      "inputs": [
        {
          "internalType": "address",
          "name": "s",
          "type": "address"
        },
        {
          "internalType": "uint256",
          "name": "n",
          "type": "uint256"
        }
      ],
      "name": "approve",
      "outputs": [],
      "stateMutability": "nonpayable",
      "type": "function"
    },
    {
      "inputs": [
        {
          "internalType": "address",
          "name": "p",
          "type": "address"
        },
        {
          "internalType": "uint256",
          "name": "amount",
          "type": "uint256"
        }
      ],
      "name": "mint",
      "outputs": [],
      "stateMutability": "nonpayable",
      "type": "function"
    },
    {
      "inputs": [],
      "name": "unpause",
      "outputs": [],
      "stateMutability": "nonpayable",
      "type": "function"
    },
    {
      "inputs": [
        {
          "internalType": "address",
          "name": "p",
          "type": "address"
        },
        {
          "internalType": "uint256",
          "name": "n",
          "type": "uint256"
        }
      ],
      "name": "increaseAllowance",
      "outputs": [],
      "stateMutability": "nonpayable",
      "type": "function"
    },
    {
      "inputs": [
        {
          "internalType": "address",
          "name": "p",
          "type": "address"
        },
        {
          "internalType": "uint256",
          "name": "n",
          "type": "uint256"
        }
      ],
      "name": "decreaseAllowance",
      "outputs": [],
      "stateMutability": "nonpayable",
      "type": "function"
    },
    {
      "inputs": [
        {
          "internalType": "address",
          "name": "p",
          "type": "address"
        }
      ],
      "name": "getBalanceOf",
      "outputs": [
        {
          "internalType": "uint256",
          "name": "",
          "type": "uint256"
        }
      ],
      "stateMutability": "view",
      "type": "function"
    },
    {
      "inputs": [
        {
          "internalType": "address",
          "name": "p",
          "type": "address"
        },
        {
          "internalType": "uint256",
          "name": "amount",
          "type": "uint256"
        }
      ],
      "name": "burn",
      "outputs": [],
      "stateMutability": "nonpayable",
      "type": "function"
    },
    {
      "inputs": [
        {
          "internalType": "address",
          "name": "p",
          "type": "address"
        },
        {
          "internalType": "address",
          "name": "s",
          "type": "address"
        }
      ],
      "name": "getAllowance",
      "outputs": [
        {
          "internalType": "uint256",
          "name": "",
          "type": "uint256"
        }
      ],
      "stateMutability": "view",
      "type": "function"
    },
    {
      "inputs": [],
      "name": "pause",
      "outputs": [],
      "stateMutability": "nonpayable",
      "type": "function"
    }
  ],
  "bytecode": "0x60806040523480156200001157600080fd5b506040516200237c3803806200237c833981810160405281019062000037919062000407565b62000047620000c360201b60201c565b62000058816200015f60201b60201c565b62000068620001ec60201b60201c565b6200007981620002cd60201b60201c565b6200008a81620002d060201b60201c565b6200009b81620002d960201b60201c565b620000ac81620002dc60201b60201c565b620000bc6200032560201b60201c565b50620004e5565b604051806040016040528060001515815260200160011515815250600660008201518160000160006101000a81548160ff02191690831515021790555060208201518160000160016101000a81548160ff0219169083151502179055509050507f0e2fb031ee032dc02d8011dc50b816eb450cf856abd8261680dac74f72165bd2600060405162000155919062000456565b60405180910390a1565b6000339050604051806040016040528083815260200160011515815250600360008373ffffffffffffffffffffffffffffffffffffffff1673ffffffffffffffffffffffffffffffffffffffff1681526020019081526020016000206000820151816000015560208201518160010160006101000a81548160ff0219169083151502179055509050505050565b6000339050604051806040016040528060011515815260200160011515815250600260008373ffffffffffffffffffffffffffffffffffffffff1673ffffffffffffffffffffffffffffffffffffffff16815260200190815260200160002060008201518160000160006101000a81548160ff02191690831515021790555060208201518160000160016101000a81548160ff0219169083151502179055509050507f8ac9153754152e5b728b2c6bdaca961a07c94cfbf57278f89a9865679d90fe73816001604051620002c2929190620004b8565b60405180910390a150565b50565b60003390505050565b50565b604051806040016040528082815260200160011515815250600080820151816000015560208201518160010160006101000a81548160ff02191690831515021790555090505050565b600033905060405180604001604052808273ffffffffffffffffffffffffffffffffffffffff16815260200160011515815250600460008201518160000160006101000a81548173ffffffffffffffffffffffffffffffffffffffff021916908373ffffffffffffffffffffffffffffffffffffffff16021790555060208201518160000160146101000a81548160ff02191690831515021790555090505050565b600080fd5b6000819050919050565b620003e181620003cc565b8114620003ed57600080fd5b50565b6000815190506200040181620003d6565b92915050565b60006020828403121562000420576200041f620003c7565b5b60006200043084828501620003f0565b91505092915050565b60008115159050919050565b620004508162000439565b82525050565b60006020820190506200046d600083018462000445565b92915050565b600073ffffffffffffffffffffffffffffffffffffffff82169050919050565b6000620004a08262000473565b9050919050565b620004b28162000493565b82525050565b6000604082019050620004cf6000830185620004a7565b620004de602083018462000445565b9392505050565b611e8780620004f56000396000f3fe608060405234801561001057600080fd5b50600436106100ea5760003560e01c806382dc1ec41161008c5780639dc29fac116100665780639dc29fac146101f9578063a457c2d714610215578063a9059cbb14610231578063c4e41b221461024d576100ea565b806382dc1ec4146101a35780638456cb59146101bf5780639b96eece146101c9576100ea565b806339509351116100c857806339509351146101575780633f4ba83a1461017357806340c10f191461017d5780636ef8d66d14610199576100ea565b8063095ea7b3146100ef5780630af4187d1461010b57806323b872dd1461013b575b600080fd5b61010960048036038101906101049190611ade565b61026b565b005b61012560048036038101906101209190611b1e565b6102c6565b6040516101329190611b6d565b60405180910390f35b61015560048036038101906101509190611b88565b61038b565b005b610171600480360381019061016c9190611ade565b6103e8565b005b61017b610443565b005b61019760048036038101906101929190611ade565b61049a565b005b6101a16104f5565b005b6101bd60048036038101906101b89190611bdb565b61054c565b005b6101c76105a5565b005b6101e360048036038101906101de9190611bdb565b6105fc565b6040516101f09190611b6d565b60405180910390f35b610213600480360381019061020e9190611ade565b610683565b005b61022f600480360381019061022a9190611ade565b6106de565b005b61024b60048036038101906102469190611ade565b610739565b005b610255610794565b6040516102629190611b6d565b60405180910390f35b600061027783836107a5565b90506000151581151514156102c1576040517f08c379a00000000000000000000000000000000000000000000000000000000081526004016102b890611c65565b60405180910390fd5b505050565b600080600560008573ffffffffffffffffffffffffffffffffffffffff1673ffffffffffffffffffffffffffffffffffffffff16815260200190815260200160002060008473ffffffffffffffffffffffffffffffffffffffff1673ffffffffffffffffffffffffffffffffffffffff168152602001908152602001600020604051806040016040529081600082015481526020016001820160009054906101000a900460ff1615151515815250509050600081600001519050809250505092915050565b6000610398848484610953565b90506000151581151514156103e2576040517f08c379a00000000000000000000000000000000000000000000000000000000081526004016103d990611c65565b60405180910390fd5b50505050565b60006103f48383610ca2565b905060001515811515141561043e576040517f08c379a000000000000000000000000000000000000000000000000000000000815260040161043590611c65565b60405180910390fd5b505050565b600061044d610d84565b9050600015158115151415610497576040517f08c379a000000000000000000000000000000000000000000000000000000000815260040161048e90611c65565b60405180910390fd5b50565b60006104a68383610eed565b90506000151581151514156104f0576040517f08c379a00000000000000000000000000000000000000000000000000000000081526004016104e790611c65565b60405180910390fd5b505050565b60006104ff611065565b9050600015158115151415610549576040517f08c379a000000000000000000000000000000000000000000000000000000000815260040161054090611c65565b60405180910390fd5b50565b6000610557826111ec565b90506000151581151514156105a1576040517f08c379a000000000000000000000000000000000000000000000000000000000815260040161059890611c65565b60405180910390fd5b5050565b60006105af611375565b90506000151581151514156105f9576040517f08c379a00000000000000000000000000000000000000000000000000000000081526004016105f090611c65565b60405180910390fd5b50565b600080600360008473ffffffffffffffffffffffffffffffffffffffff1673ffffffffffffffffffffffffffffffffffffffff168152602001908152602001600020604051806040016040529081600082015481526020016001820160009054906101000a900460ff16151515158152505090506000816000015190508092505050919050565b600061068f83836114de565b90506000151581151514156106d9576040517f08c379a00000000000000000000000000000000000000000000000000000000081526004016106d090611c65565b60405180910390fd5b505050565b60006106ea83836116e3565b9050600015158115151415610734576040517f08c379a000000000000000000000000000000000000000000000000000000000815260040161072b90611c65565b60405180910390fd5b505050565b60006107458383611894565b905060001515811515141561078f576040517f08c379a000000000000000000000000000000000000000000000000000000000815260040161078690611c65565b60405180910390fd5b505050565b600080600080015490508091505090565b6000803390506000600560008373ffffffffffffffffffffffffffffffffffffffff1673ffffffffffffffffffffffffffffffffffffffff16815260200190815260200160002060008673ffffffffffffffffffffffffffffffffffffffff1673ffffffffffffffffffffffffffffffffffffffff168152602001908152602001600020604051806040016040529081600082015481526020016001820160009054906101000a900460ff1615151515815250509050600081600001519050600081866108729190611cb4565b90507f01722f0e92ffd761d4a842cffdd36fe3adb6091e41732a4e714250176b7d8d228488836040516108a793929190611cf7565b60405180910390a180600560008673ffffffffffffffffffffffffffffffffffffffff1673ffffffffffffffffffffffffffffffffffffffff16815260200190815260200160002060008973ffffffffffffffffffffffffffffffffffffffff1673ffffffffffffffffffffffffffffffffffffffff168152602001908152602001600020600001600082825461093e9190611d2e565b92505081905550600194505050505092915050565b600080339050600660000160009054906101000a900460ff161515600015151415610c95576000600360008773ffffffffffffffffffffffffffffffffffffffff1673ffffffffffffffffffffffffffffffffffffffff168152602001908152602001600020604051806040016040529081600082015481526020016001820160009054906101000a900460ff16151515158152505090506000816000015190506000600560008973ffffffffffffffffffffffffffffffffffffffff1673ffffffffffffffffffffffffffffffffffffffff16815260200190815260200160002060008573ffffffffffffffffffffffffffffffffffffffff1673ffffffffffffffffffffffffffffffffffffffff168152602001908152602001600020604051806040016040529081600082015481526020016001820160009054906101000a900460ff1615151515815250509050600081600001519050868310158015610abd5750868110155b15610c90577f5f7542858008eeb041631f30e6109ae94b83a58e9a58261dd2c42c508850f9398989878a604051610af79493929190611d84565b60405180910390a17fddf252ad1be2c89b69c2b068fc378daa952ba7f163c4a11628f55a4df523b3ef898989604051610b3293929190611cf7565b60405180910390a186600360008b73ffffffffffffffffffffffffffffffffffffffff1673ffffffffffffffffffffffffffffffffffffffff1681526020019081526020016000206000016000828254610b8c9190611cb4565b9250508190555086600360008a73ffffffffffffffffffffffffffffffffffffffff1673ffffffffffffffffffffffffffffffffffffffff1681526020019081526020016000206000016000828254610be59190611d2e565b9250508190555086600560008b73ffffffffffffffffffffffffffffffffffffffff1673ffffffffffffffffffffffffffffffffffffffff16815260200190815260200160002060008773ffffffffffffffffffffffffffffffffffffffff1673ffffffffffffffffffffffffffffffffffffffff1681526020019081526020016000206000016000828254610c7b9190611cb4565b92505081905550600195505050505050610c9b565b505050505b60009150505b9392505050565b6000803390507f01722f0e92ffd761d4a842cffdd36fe3adb6091e41732a4e714250176b7d8d22818585604051610cdb93929190611cf7565b60405180910390a182600560008373ffffffffffffffffffffffffffffffffffffffff1673ffffffffffffffffffffffffffffffffffffffff16815260200190815260200160002060008673ffffffffffffffffffffffffffffffffffffffff1673ffffffffffffffffffffffffffffffffffffffff1681526020019081526020016000206000016000828254610d729190611d2e565b92505081905550600191505092915050565b6000600660000160009054906101000a900460ff161515600115151415610ee55760003390506000600260008373ffffffffffffffffffffffffffffffffffffffff1673ffffffffffffffffffffffffffffffffffffffff1681526020019081526020016000206040518060400160405290816000820160009054906101000a900460ff161515151581526020016000820160019054906101000a900460ff161515151581525050905080600001511515600115151415610ee257604051806040016040528060001515815260200160011515815250600660008201518160000160006101000a81548160ff02191690831515021790555060208201518160000160016101000a81548160ff0219169083151502179055509050507f0e2fb031ee032dc02d8011dc50b816eb450cf856abd8261680dac74f72165bd26000604051610ecf9190611de4565b60405180910390a1600192505050610eea565b50505b600090505b90565b6000600660000160009054906101000a900460ff16151560001515141561105a576000600460000160009054906101000a900473ffffffffffffffffffffffffffffffffffffffff1690503373ffffffffffffffffffffffffffffffffffffffff168173ffffffffffffffffffffffffffffffffffffffff16141561105857600073ffffffffffffffffffffffffffffffffffffffff168473ffffffffffffffffffffffffffffffffffffffff1614611057577f0f6798a560793a54c3bcfe86a93cde1e73087d944c0ea20544137d41213968858484604051610fd1929190611dff565b60405180910390a182600080016000828254610fed9190611d2e565b9250508190555082600360008673ffffffffffffffffffffffffffffffffffffffff1673ffffffffffffffffffffffffffffffffffffffff16815260200190815260200160002060000160008282546110469190611d2e565b92505081905550600191505061105f565b5b505b600090505b92915050565b6000803390506000600260008373ffffffffffffffffffffffffffffffffffffffff1673ffffffffffffffffffffffffffffffffffffffff1681526020019081526020016000206040518060400160405290816000820160009054906101000a900460ff161515151581526020016000820160019054906101000a900460ff1615151515815250509050806000015115156001151514156111e257604051806040016040528060001515815260200160011515815250600260008473ffffffffffffffffffffffffffffffffffffffff1673ffffffffffffffffffffffffffffffffffffffff16815260200190815260200160002060008201518160000160006101000a81548160ff02191690831515021790555060208201518160000160016101000a81548160ff0219169083151502179055509050507f8ac9153754152e5b728b2c6bdaca961a07c94cfbf57278f89a9865679d90fe738260006040516111cf929190611e28565b60405180910390a16001925050506111e9565b6000925050505b90565b6000803390506000600260008373ffffffffffffffffffffffffffffffffffffffff1673ffffffffffffffffffffffffffffffffffffffff1681526020019081526020016000206040518060400160405290816000820160009054906101000a900460ff161515151581526020016000820160019054906101000a900460ff16151515158152505090508060000151151560011515141561136957604051806040016040528060011515815260200160011515815250600260008673ffffffffffffffffffffffffffffffffffffffff1673ffffffffffffffffffffffffffffffffffffffff16815260200190815260200160002060008201518160000160006101000a81548160ff02191690831515021790555060208201518160000160016101000a81548160ff0219169083151502179055509050507f8ac9153754152e5b728b2c6bdaca961a07c94cfbf57278f89a9865679d90fe73846001604051611356929190611e28565b60405180910390a1600192505050611370565b6000925050505b919050565b6000600660000160009054906101000a900460ff1615156000151514156114d65760003390506000600260008373ffffffffffffffffffffffffffffffffffffffff1673ffffffffffffffffffffffffffffffffffffffff1681526020019081526020016000206040518060400160405290816000820160009054906101000a900460ff161515151581526020016000820160019054906101000a900460ff1615151515815250509050806000015115156001151514156114d357604051806040016040528060011515815260200160011515815250600660008201518160000160006101000a81548160ff02191690831515021790555060208201518160000160016101000a81548160ff0219169083151502179055509050507f0e2fb031ee032dc02d8011dc50b816eb450cf856abd8261680dac74f72165bd260016040516114c09190611de4565b60405180910390a16001925050506114db565b50505b600090505b90565b600080339050600660000160009054906101000a900460ff1615156000151514156116d757600460000160009054906101000a900473ffffffffffffffffffffffffffffffffffffffff1673ffffffffffffffffffffffffffffffffffffffff168173ffffffffffffffffffffffffffffffffffffffff1614156116d6576000600360008673ffffffffffffffffffffffffffffffffffffffff1673ffffffffffffffffffffffffffffffffffffffff168152602001908152602001600020604051806040016040529081600082015481526020016001820160009054906101000a900460ff1615151515815250509050600081600001519050600073ffffffffffffffffffffffffffffffffffffffff168673ffffffffffffffffffffffffffffffffffffffff16141580156116155750808511155b156116d3577fcc16f5dbb4873280815c1ee09dbd06736cffcc184412cf7a71a0fdb75d397ca5868660405161164b929190611dff565b60405180910390a184600360008873ffffffffffffffffffffffffffffffffffffffff1673ffffffffffffffffffffffffffffffffffffffff16815260200190815260200160002060000160008282546116a59190611cb4565b92505081905550846000800160008282546116c09190611cb4565b92505081905550600193505050506116dd565b50505b5b60009150505b92915050565b6000803390506000600560008373ffffffffffffffffffffffffffffffffffffffff1673ffffffffffffffffffffffffffffffffffffffff16815260200190815260200160002060008673ffffffffffffffffffffffffffffffffffffffff1673ffffffffffffffffffffffffffffffffffffffff168152602001908152602001600020604051806040016040529081600082015481526020016001820160009054906101000a900460ff1615151515815250509050600081600001519050848110611886577f3fda289a93fbd447987ffc8940a1af71a1fad600cc184d06b56d4aa2713935228387876040516117dc93929190611cf7565b60405180910390a184600560008573ffffffffffffffffffffffffffffffffffffffff1673ffffffffffffffffffffffffffffffffffffffff16815260200190815260200160002060008873ffffffffffffffffffffffffffffffffffffffff1673ffffffffffffffffffffffffffffffffffffffff16815260200190815260200160002060000160008282546118739190611cb4565b925050819055506001935050505061188e565b600093505050505b92915050565b6000600660000160009054906101000a900460ff161515600015151415611a3a5760003390506000600360008373ffffffffffffffffffffffffffffffffffffffff1673ffffffffffffffffffffffffffffffffffffffff168152602001908152602001600020604051806040016040529081600082015481526020016001820160009054906101000a900460ff1615151515815250509050600081600001519050808511611a36577fddf252ad1be2c89b69c2b068fc378daa952ba7f163c4a11628f55a4df523b3ef83878760405161197093929190611cf7565b60405180910390a184600360008573ffffffffffffffffffffffffffffffffffffffff1673ffffffffffffffffffffffffffffffffffffffff16815260200190815260200160002060000160008282546119ca9190611cb4565b9250508190555084600360008873ffffffffffffffffffffffffffffffffffffffff1673ffffffffffffffffffffffffffffffffffffffff1681526020019081526020016000206000016000828254611a239190611d2e565b9250508190555060019350505050611a3f565b5050505b600090505b92915050565b600080fd5b600073ffffffffffffffffffffffffffffffffffffffff82169050919050565b6000611a7582611a4a565b9050919050565b611a8581611a6a565b8114611a9057600080fd5b50565b600081359050611aa281611a7c565b92915050565b6000819050919050565b611abb81611aa8565b8114611ac657600080fd5b50565b600081359050611ad881611ab2565b92915050565b60008060408385031215611af557611af4611a45565b5b6000611b0385828601611a93565b9250506020611b1485828601611ac9565b9150509250929050565b60008060408385031215611b3557611b34611a45565b5b6000611b4385828601611a93565b9250506020611b5485828601611a93565b9150509250929050565b611b6781611aa8565b82525050565b6000602082019050611b826000830184611b5e565b92915050565b600080600060608486031215611ba157611ba0611a45565b5b6000611baf86828701611a93565b9350506020611bc086828701611a93565b9250506040611bd186828701611ac9565b9150509250925092565b600060208284031215611bf157611bf0611a45565b5b6000611bff84828501611a93565b91505092915050565b600082825260208201905092915050565b7f52756c6520636f6e646974696f6e206661696c65640000000000000000000000600082015250565b6000611c4f601583611c08565b9150611c5a82611c19565b602082019050919050565b60006020820190508181036000830152611c7e81611c42565b9050919050565b7f4e487b7100000000000000000000000000000000000000000000000000000000600052601160045260246000fd5b6000611cbf82611aa8565b9150611cca83611aa8565b925082821015611cdd57611cdc611c85565b5b828203905092915050565b611cf181611a6a565b82525050565b6000606082019050611d0c6000830186611ce8565b611d196020830185611ce8565b611d266040830184611b5e565b949350505050565b6000611d3982611aa8565b9150611d4483611aa8565b9250827fffffffffffffffffffffffffffffffffffffffffffffffffffffffffffffffff03821115611d7957611d78611c85565b5b828201905092915050565b6000608082019050611d996000830187611ce8565b611da66020830186611ce8565b611db36040830185611ce8565b611dc06060830184611b5e565b95945050505050565b60008115159050919050565b611dde81611dc9565b82525050565b6000602082019050611df96000830184611dd5565b92915050565b6000604082019050611e146000830185611ce8565b611e216020830184611b5e565b9392505050565b6000604082019050611e3d6000830185611ce8565b611e4a6020830184611dd5565b939250505056fea2646970667358221220a1553a1661322ee448a1b6079344cfd51c4072d2eb1c419c707cc5f4928cd03f64736f6c634300080c0033",
  "immutableReferences": {},
  "source": "contract Matic {\n  struct OwnerTuple {\n    address p;\n    bool _valid;\n  }\n  struct TotalSupplyTuple {\n    uint n;\n    bool _valid;\n  }\n  struct IsPauserTuple {\n    bool b;\n    bool _valid;\n  }\n  struct BalanceOfTuple {\n    uint n;\n    bool _valid;\n  }\n  struct AllowanceTuple {\n    uint n;\n    bool _valid;\n  }\n  struct PausedTuple {\n    bool b;\n    bool _valid;\n  }\n  TotalSupplyTuple totalSupply;\n  mapping(address=>IsPauserTuple) isPauser;\n  mapping(address=>BalanceOfTuple) balanceOf;\n  OwnerTuple owner;\n  mapping(address=>mapping(address=>AllowanceTuple)) allowance;\n  PausedTuple paused;\n  event Burn(address p,uint amount);\n  event Mint(address p,uint amount);\n  event DecreaseAllowance(address p,address s,uint n);\n  event IncreaseAllowance(address p,address s,uint n);\n  event IsPauser(address p,bool b);\n  event Transfer(address from,address to,uint amount);\n  event Paused(bool b);\n  event TransferFrom(address from,address to,address spender,uint amount);\n  constructor(uint n) public {\n    updatePausedOnInsertConstructor_r25();\n    updateBalanceOfOnInsertConstructor_r18(n);\n    updateIsPauserOnInsertConstructor_r22();\n    updateTotalBalancesOnInsertConstructor_r32(n);\n    updateTotalMintOnInsertConstructor_r20(n);\n    updateAllMintOnInsertConstructor_r12(n);\n    updateTotalSupplyOnInsertConstructor_r28(n);\n    updateOwnerOnInsertConstructor_r6();\n  }\n  function addPauser(address p) public    {\n      bool r5 = updateIsPauserOnInsertRecv_addPauser_r5(p);\n      if(r5==false) {\n        revert(\"Rule condition failed\");\n      }\n  }\n  function renouncePauser() public    {\n      bool r0 = updateIsPauserOnInsertRecv_renouncePauser_r0();\n      if(r0==false) {\n        revert(\"Rule condition failed\");\n      }\n  }\n  function getTotalSupply() public view  returns (uint) {\n      uint n = totalSupply.n;\n      return n;\n  }\n  function transferFrom(address from,address to,uint amount) public    {\n      bool r2 = updateTransferFromOnInsertRecv_transferFrom_r2(from,to,amount);\n      if(r2==false) {\n        revert(\"Rule condition failed\");\n      }\n  }\n  function transfer(address to,uint amount) public    {\n      bool r11 = updateTransferOnInsertRecv_transfer_r11(to,amount);\n      if(r11==false) {\n        revert(\"Rule condition failed\");\n      }\n  }\n  function approve(address s,uint n) public    {\n      bool r31 = updateIncreaseAllowanceOnInsertRecv_approve_r31(s,n);\n      if(r31==false) {\n        revert(\"Rule condition failed\");\n      }\n  }\n  function mint(address p,uint amount) public    {\n      bool r3 = updateMintOnInsertRecv_mint_r3(p,amount);\n      if(r3==false) {\n        revert(\"Rule condition failed\");\n      }\n  }\n  function unpause() public    {\n      bool r13 = updatePausedOnInsertRecv_unpause_r13();\n      if(r13==false) {\n        revert(\"Rule condition failed\");\n      }\n  }\n  function increaseAllowance(address p,uint n) public    {\n      bool r10 = updateIncreaseAllowanceOnInsertRecv_increaseApproval_r10(p,n);\n      if(r10==false) {\n        revert(\"Rule condition failed\");\n      }\n  }\n  function decreaseAllowance(address p,uint n) public    {\n      bool r17 = updateDecreaseAllowanceOnInsertRecv_decreaseApproval_r17(p,n);\n      if(r17==false) {\n        revert(\"Rule condition failed\");\n      }\n  }\n  function getBalanceOf(address p) public view  returns (uint) {\n      BalanceOfTuple memory balanceOfTuple = balanceOf[p];\n      uint n = balanceOfTuple.n;\n      return n;\n  }\n  function burn(address p,uint amount) public    {\n      bool r8 = updateBurnOnInsertRecv_burn_r8(p,amount);\n      if(r8==false) {\n        revert(\"Rule condition failed\");\n      }\n  }\n  function getAllowance(address p,address s) public view  returns (uint) {\n      AllowanceTuple memory allowanceTuple = allowance[p][s];\n      uint n = allowanceTuple.n;\n      return n;\n  }\n  function pause() public    {\n      bool r21 = updatePausedOnInsertRecv_pause_r21();\n      if(r21==false) {\n        revert(\"Rule condition failed\");\n      }\n  }\n  function updateTransferFromOnInsertRecv_transferFrom_r2(address o,address r,uint n) private   returns (bool) {\n      address s = msg.sender;\n      if(false==paused.b) {\n        BalanceOfTuple memory balanceOfTuple = balanceOf[o];\n        uint m = balanceOfTuple.n;\n        AllowanceTuple memory allowanceTuple = allowance[o][s];\n        uint k = allowanceTuple.n;\n        if(m>=n && k>=n) {\n          emit TransferFrom(o,r,s,n);\n          emit Transfer(o,r,n);\n          balanceOf[o].n -= n;\n          balanceOf[r].n += n;\n          allowance[o][s].n -= n;\n          return true;\n        }\n      }\n      return false;\n  }\n  function updateTotalSupplyOnInsertConstructor_r28(uint n) private    {\n      totalSupply = TotalSupplyTuple(n,true);\n  }\n  function updateDecreaseAllowanceOnInsertRecv_decreaseApproval_r17(address s,uint n) private   returns (bool) {\n      address o = msg.sender;\n      AllowanceTuple memory allowanceTuple = allowance[o][s];\n      uint m = allowanceTuple.n;\n      if(m>=n) {\n        emit DecreaseAllowance(o,s,n);\n        allowance[o][s].n -= n;\n        return true;\n      }\n      return false;\n  }\n  function updatePausedOnInsertConstructor_r25() private    {\n      paused = PausedTuple(false,true);\n      emit Paused(false);\n  }\n  function updateOwnerOnInsertConstructor_r6() private    {\n      address s = msg.sender;\n      owner = OwnerTuple(s,true);\n  }\n  function updateBalanceOfOnInsertConstructor_r18(uint n) private    {\n      address s = msg.sender;\n      balanceOf[s] = BalanceOfTuple(n,true);\n  }\n  function updateIsPauserOnInsertRecv_addPauser_r5(address p) private   returns (bool) {\n      address s = msg.sender;\n      IsPauserTuple memory isPauserTuple = isPauser[s];\n      if(true==isPauserTuple.b) {\n        isPauser[p] = IsPauserTuple(true,true);\n        emit IsPauser(p,true);\n        return true;\n      }\n      return false;\n  }\n  function updateIsPauserOnInsertRecv_renouncePauser_r0() private   returns (bool) {\n      address s = msg.sender;\n      IsPauserTuple memory isPauserTuple = isPauser[s];\n      if(true==isPauserTuple.b) {\n        isPauser[s] = IsPauserTuple(false,true);\n        emit IsPauser(s,false);\n        return true;\n      }\n      return false;\n  }\n  function updateIsPauserOnInsertConstructor_r22() private    {\n      address s = msg.sender;\n      isPauser[s] = IsPauserTuple(true,true);\n      emit IsPauser(s,true);\n  }\n  function updateTotalBalancesOnInsertConstructor_r32(uint n) private    {\n      // Empty()\n  }\n  function updateIncreaseAllowanceOnInsertRecv_approve_r31(address s,uint n) private   returns (bool) {\n      address o = msg.sender;\n      AllowanceTuple memory allowanceTuple = allowance[o][s];\n      uint m = allowanceTuple.n;\n      uint d = n-m;\n      emit IncreaseAllowance(o,s,d);\n      allowance[o][s].n += d;\n      return true;\n      return false;\n  }\n  function updateIncreaseAllowanceOnInsertRecv_increaseApproval_r10(address s,uint n) private   returns (bool) {\n      address o = msg.sender;\n      emit IncreaseAllowance(o,s,n);\n      allowance[o][s].n += n;\n      return true;\n      return false;\n  }\n  function updateTotalMintOnInsertConstructor_r20(uint n) private    {\n      address s = msg.sender;\n      // Empty()\n  }\n  function updateBurnOnInsertRecv_burn_r8(address p,uint n) private   returns (bool) {\n      address s = msg.sender;\n      if(false==paused.b) {\n        if(s==owner.p) {\n          BalanceOfTuple memory balanceOfTuple = balanceOf[p];\n          uint m = balanceOfTuple.n;\n          if(p!=address(0) && n<=m) {\n            emit Burn(p,n);\n            balanceOf[p].n -= n;\n            totalSupply.n -= n;\n            return true;\n          }\n        }\n      }\n      return false;\n  }\n  function updatePausedOnInsertRecv_unpause_r13() private   returns (bool) {\n      if(true==paused.b) {\n        address s = msg.sender;\n        IsPauserTuple memory isPauserTuple = isPauser[s];\n        if(true==isPauserTuple.b) {\n          paused = PausedTuple(false,true);\n          emit Paused(false);\n          return true;\n        }\n      }\n      return false;\n  }\n  function updateTransferOnInsertRecv_transfer_r11(address r,uint n) private   returns (bool) {\n      if(false==paused.b) {\n        address s = msg.sender;\n        BalanceOfTuple memory balanceOfTuple = balanceOf[s];\n        uint m = balanceOfTuple.n;\n        if(n<=m) {\n          emit Transfer(s,r,n);\n          balanceOf[s].n -= n;\n          balanceOf[r].n += n;\n          return true;\n        }\n      }\n      return false;\n  }\n  function updatePausedOnInsertRecv_pause_r21() private   returns (bool) {\n      if(false==paused.b) {\n        address s = msg.sender;\n        IsPauserTuple memory isPauserTuple = isPauser[s];\n        if(true==isPauserTuple.b) {\n          paused = PausedTuple(true,true);\n          emit Paused(true);\n          return true;\n        }\n      }\n      return false;\n  }\n  function updateMintOnInsertRecv_mint_r3(address p,uint n) private   returns (bool) {\n      if(false==paused.b) {\n        address s = owner.p;\n        if(s==msg.sender) {\n          if(p!=address(0)) {\n            emit Mint(p,n);\n            totalSupply.n += n;\n            balanceOf[p].n += n;\n            return true;\n          }\n        }\n      }\n      return false;\n  }\n  function updateAllMintOnInsertConstructor_r12(uint n) private    {\n      // Empty()\n  }\n  function updateuintByint(uint x,int delta) private   returns (uint) {\n      int convertedX = int(x);\n      int value = convertedX+delta;\n      uint convertedValue = uint(value);\n      return convertedValue;\n  }\n}",
  "sourcePath": "/Users/ljy/Desktop/PENN/2023_summer/boon_dsc/smart-contracts/optimizations/ablation/projection/contracts/matic.sol",
  "compiler": {
    "name": "solc",
    "version": "0.8.12+commit.f00d7308.Emscripten.clang"
  },
  "schemaVersion": "3.4.13",
  "updatedAt": "2023-07-27T05:17:31.908Z",
  "devdoc": {
    "kind": "dev",
    "methods": {},
    "version": 1
  },
  "userdoc": {
    "kind": "user",
    "methods": {},
    "version": 1
  }
}