{
	"contracts/bnb.sol": {
		"BNB": {
			"abi": [
				{
					"inputs": [
						{
							"internalType": "uint256",
							"name": "initialSupply",
							"type": "uint256"
						},
						{
							"internalType": "string",
							"name": "tokenName",
							"type": "string"
						},
						{
							"internalType": "uint8",
							"name": "decimalUnits",
							"type": "uint8"
						},
						{
							"internalType": "string",
							"name": "tokenSymbol",
							"type": "string"
						}
					],
					"stateMutability": "nonpayable",
					"type": "constructor"
				},
				{
					"anonymous": false,
					"inputs": [
						{
							"indexed": true,
							"internalType": "address",
							"name": "from",
							"type": "address"
						},
						{
							"indexed": false,
							"internalType": "uint256",
							"name": "value",
							"type": "uint256"
						}
					],
					"name": "Burn",
					"type": "event"
				},
				{
					"anonymous": false,
					"inputs": [
						{
							"indexed": true,
							"internalType": "address",
							"name": "from",
							"type": "address"
						},
						{
							"indexed": false,
							"internalType": "uint256",
							"name": "value",
							"type": "uint256"
						}
					],
					"name": "Freeze",
					"type": "event"
				},
				{
					"anonymous": false,
					"inputs": [
						{
							"indexed": true,
							"internalType": "address",
							"name": "from",
							"type": "address"
						},
						{
							"indexed": true,
							"internalType": "address",
							"name": "to",
							"type": "address"
						},
						{
							"indexed": false,
							"internalType": "uint256",
							"name": "value",
							"type": "uint256"
						}
					],
					"name": "Transfer",
					"type": "event"
				},
				{
					"anonymous": false,
					"inputs": [
						{
							"indexed": true,
							"internalType": "address",
							"name": "from",
							"type": "address"
						},
						{
							"indexed": false,
							"internalType": "uint256",
							"name": "value",
							"type": "uint256"
						}
					],
					"name": "Unfreeze",
					"type": "event"
				},
				{
					"stateMutability": "payable",
					"type": "fallback"
				},
				{
					"inputs": [
						{
							"internalType": "address",
							"name": "",
							"type": "address"
						},
						{
							"internalType": "address",
							"name": "",
							"type": "address"
						}
					],
					"name": "allowance",
					"outputs": [
						{
							"internalType": "uint256",
							"name": "",
							"type": "uint256"
						}
					],
					"stateMutability": "view",
					"type": "function"
				},
				{
					"inputs": [
						{
							"internalType": "address",
							"name": "_spender",
							"type": "address"
						},
						{
							"internalType": "uint256",
							"name": "_value",
							"type": "uint256"
						}
					],
					"name": "approve",
					"outputs": [
						{
							"internalType": "bool",
							"name": "success",
							"type": "bool"
						}
					],
					"stateMutability": "nonpayable",
					"type": "function"
				},
				{
					"inputs": [
						{
							"internalType": "address",
							"name": "",
							"type": "address"
						}
					],
					"name": "balanceOf",
					"outputs": [
						{
							"internalType": "uint256",
							"name": "",
							"type": "uint256"
						}
					],
					"stateMutability": "view",
					"type": "function"
				},
				{
					"inputs": [
						{
							"internalType": "uint256",
							"name": "_value",
							"type": "uint256"
						}
					],
					"name": "burn",
					"outputs": [
						{
							"internalType": "bool",
							"name": "success",
							"type": "bool"
						}
					],
					"stateMutability": "nonpayable",
					"type": "function"
				},
				{
					"inputs": [],
					"name": "decimals",
					"outputs": [
						{
							"internalType": "uint8",
							"name": "",
							"type": "uint8"
						}
					],
					"stateMutability": "view",
					"type": "function"
				},
				{
					"inputs": [],
					"name": "equalBalance",
					"outputs": [],
					"stateMutability": "view",
					"type": "function"
				},
				{
					"inputs": [
						{
							"internalType": "uint256",
							"name": "_value",
							"type": "uint256"
						}
					],
					"name": "freeze",
					"outputs": [
						{
							"internalType": "bool",
							"name": "success",
							"type": "bool"
						}
					],
					"stateMutability": "nonpayable",
					"type": "function"
				},
				{
					"inputs": [
						{
							"internalType": "address",
							"name": "",
							"type": "address"
						}
					],
					"name": "freezeOf",
					"outputs": [
						{
							"internalType": "uint256",
							"name": "",
							"type": "uint256"
						}
					],
					"stateMutability": "view",
					"type": "function"
				},
				{
					"inputs": [],
					"name": "name",
					"outputs": [
						{
							"internalType": "string",
							"name": "",
							"type": "string"
						}
					],
					"stateMutability": "view",
					"type": "function"
				},
				{
					"inputs": [],
					"name": "owner",
					"outputs": [
						{
							"internalType": "address",
							"name": "",
							"type": "address"
						}
					],
					"stateMutability": "view",
					"type": "function"
				},
				{
					"inputs": [],
					"name": "symbol",
					"outputs": [
						{
							"internalType": "string",
							"name": "",
							"type": "string"
						}
					],
					"stateMutability": "view",
					"type": "function"
				},
				{
					"inputs": [],
					"name": "totalSupply",
					"outputs": [
						{
							"internalType": "uint256",
							"name": "",
							"type": "uint256"
						}
					],
					"stateMutability": "view",
					"type": "function"
				},
				{
					"inputs": [
						{
							"internalType": "address",
							"name": "_to",
							"type": "address"
						},
						{
							"internalType": "uint256",
							"name": "_value",
							"type": "uint256"
						}
					],
					"name": "transfer",
					"outputs": [],
					"stateMutability": "nonpayable",
					"type": "function"
				},
				{
					"inputs": [
						{
							"internalType": "address",
							"name": "_from",
							"type": "address"
						},
						{
							"internalType": "address",
							"name": "_to",
							"type": "address"
						},
						{
							"internalType": "uint256",
							"name": "_value",
							"type": "uint256"
						}
					],
					"name": "transferFrom",
					"outputs": [
						{
							"internalType": "bool",
							"name": "success",
							"type": "bool"
						}
					],
					"stateMutability": "nonpayable",
					"type": "function"
				},
				{
					"inputs": [
						{
							"internalType": "uint256",
							"name": "_value",
							"type": "uint256"
						}
					],
					"name": "unfreeze",
					"outputs": [
						{
							"internalType": "bool",
							"name": "success",
							"type": "bool"
						}
					],
					"stateMutability": "nonpayable",
					"type": "function"
				},
				{
					"inputs": [
						{
							"internalType": "uint256",
							"name": "amount",
							"type": "uint256"
						}
					],
					"name": "withdrawEther",
					"outputs": [],
					"stateMutability": "payable",
					"type": "function"
				}
			],
			"devdoc": {
				"kind": "dev",
				"methods": {},
				"version": 1
			},
			"evm": {
				"assembly": "    /* \"contracts/bnb.sol\":889:7234  contract BNB is SafeMath{... */\n  mstore(0x40, 0x80)\n    /* \"contracts/bnb.sol\":1960:2690  constructor(... */\n  callvalue\n  dup1\n  iszero\n  tag_1\n  jumpi\n  0x00\n  dup1\n  revert\ntag_1:\n  pop\n  mload(0x40)\n  sub(codesize, bytecodeSize)\n  dup1\n  bytecodeSize\n  dup4\n  codecopy\n  dup2\n  dup2\n  add\n  0x40\n  mstore\n  dup2\n  add\n  swap1\n  tag_2\n  swap2\n  swap1\n  tag_3\n  jump\t// in\ntag_2:\n    /* \"contracts/bnb.sol\":2143:2156  initialSupply */\n  dup4\n    /* \"contracts/bnb.sol\":2119:2128  balanceOf */\n  0x07\n    /* \"contracts/bnb.sol\":2119:2140  balanceOf[msg.sender] */\n  0x00\n    /* \"contracts/bnb.sol\":2129:2139  msg.sender */\n  caller\n    /* \"contracts/bnb.sol\":2119:2140  balanceOf[msg.sender] */\n  0xffffffffffffffffffffffffffffffffffffffff\n  and\n  0xffffffffffffffffffffffffffffffffffffffff\n  and\n  dup2\n  mstore\n  0x20\n  add\n  swap1\n  dup2\n  mstore\n  0x20\n  add\n  0x00\n  keccak256\n    /* \"contracts/bnb.sol\":2119:2156  balanceOf[msg.sender] = initialSupply */\n  dup2\n  swap1\n  sstore\n  pop\n    /* \"contracts/bnb.sol\":2233:2246  initialSupply */\n  dup4\n    /* \"contracts/bnb.sol\":2218:2230  totalBalance */\n  0x05\n    /* \"contracts/bnb.sol\":2218:2246  totalBalance = initialSupply */\n  dup2\n  swap1\n  sstore\n  pop\n    /* \"contracts/bnb.sol\":2270:2271  0 */\n  0x00\n    /* \"contracts/bnb.sol\":2256:2267  freezeTotal */\n  0x06\n    /* \"contracts/bnb.sol\":2256:2271  freezeTotal = 0 */\n  dup2\n  swap1\n  sstore\n  pop\n    /* \"contracts/bnb.sol\":2296:2309  initialSupply */\n  dup4\n    /* \"contracts/bnb.sol\":2282:2293  totalSupply */\n  0x03\n    /* \"contracts/bnb.sol\":2282:2309  totalSupply = initialSupply */\n  dup2\n  swap1\n  sstore\n  pop\n    /* \"contracts/bnb.sol\":2372:2381  tokenName */\n  dup3\n    /* \"contracts/bnb.sol\":2365:2369  name */\n  0x00\n    /* \"contracts/bnb.sol\":2365:2381  name = tokenName */\n  swap1\n  dup2\n  tag_6\n  swap2\n  swap1\n  tag_7\n  jump\t// in\ntag_6:\n  pop\n    /* \"contracts/bnb.sol\":2471:2482  tokenSymbol */\n  dup1\n    /* \"contracts/bnb.sol\":2462:2468  symbol */\n  0x01\n    /* \"contracts/bnb.sol\":2462:2482  symbol = tokenSymbol */\n  swap1\n  dup2\n  tag_8\n  swap2\n  swap1\n  tag_7\n  jump\t// in\ntag_8:\n  pop\n    /* \"contracts/bnb.sol\":2572:2584  decimalUnits */\n  dup2\n    /* \"contracts/bnb.sol\":2561:2569  decimals */\n  0x02\n  0x00\n    /* \"contracts/bnb.sol\":2561:2584  decimals = decimalUnits */\n  0x0100\n  exp\n  dup2\n  sload\n  dup2\n  0xff\n  mul\n  not\n  and\n  swap1\n  dup4\n  0xff\n  and\n  mul\n  or\n  swap1\n  sstore\n  pop\n    /* \"contracts/bnb.sol\":2672:2682  msg.sender */\n  caller\n    /* \"contracts/bnb.sol\":2664:2669  owner */\n  0x04\n  0x00\n    /* \"contracts/bnb.sol\":2664:2682  owner = msg.sender */\n  0x0100\n  exp\n  dup2\n  sload\n  dup2\n  0xffffffffffffffffffffffffffffffffffffffff\n  mul\n  not\n  and\n  swap1\n  dup4\n  0xffffffffffffffffffffffffffffffffffffffff\n  and\n  mul\n  or\n  swap1\n  sstore\n  pop\n    /* \"contracts/bnb.sol\":1960:2690  constructor(... */\n  pop\n  pop\n  pop\n  pop\n    /* \"contracts/bnb.sol\":889:7234  contract BNB is SafeMath{... */\n  jump(tag_9)\n    /* \"#utility.yul\":7:82   */\ntag_10:\n    /* \"#utility.yul\":40:46   */\n  0x00\n    /* \"#utility.yul\":73:75   */\n  0x40\n    /* \"#utility.yul\":67:76   */\n  mload\n    /* \"#utility.yul\":57:76   */\n  swap1\n  pop\n    /* \"#utility.yul\":7:82   */\n  swap1\n  jump\t// out\n    /* \"#utility.yul\":88:205   */\ntag_11:\n    /* \"#utility.yul\":197:198   */\n  0x00\n    /* \"#utility.yul\":194:195   */\n  dup1\n    /* \"#utility.yul\":187:199   */\n  revert\n    /* \"#utility.yul\":211:328   */\ntag_12:\n    /* \"#utility.yul\":320:321   */\n  0x00\n    /* \"#utility.yul\":317:318   */\n  dup1\n    /* \"#utility.yul\":310:322   */\n  revert\n    /* \"#utility.yul\":334:411   */\ntag_13:\n    /* \"#utility.yul\":371:378   */\n  0x00\n    /* \"#utility.yul\":400:405   */\n  dup2\n    /* \"#utility.yul\":389:405   */\n  swap1\n  pop\n    /* \"#utility.yul\":334:411   */\n  swap2\n  swap1\n  pop\n  jump\t// out\n    /* \"#utility.yul\":417:539   */\ntag_14:\n    /* \"#utility.yul\":490:514   */\n  tag_53\n    /* \"#utility.yul\":508:513   */\n  dup2\n    /* \"#utility.yul\":490:514   */\n  tag_13\n  jump\t// in\ntag_53:\n    /* \"#utility.yul\":483:488   */\n  dup2\n    /* \"#utility.yul\":480:515   */\n  eq\n    /* \"#utility.yul\":470:533   */\n  tag_54\n  jumpi\n    /* \"#utility.yul\":529:530   */\n  0x00\n    /* \"#utility.yul\":526:527   */\n  dup1\n    /* \"#utility.yul\":519:531   */\n  revert\n    /* \"#utility.yul\":470:533   */\ntag_54:\n    /* \"#utility.yul\":417:539   */\n  pop\n  jump\t// out\n    /* \"#utility.yul\":545:688   */\ntag_15:\n    /* \"#utility.yul\":602:607   */\n  0x00\n    /* \"#utility.yul\":633:639   */\n  dup2\n    /* \"#utility.yul\":627:640   */\n  mload\n    /* \"#utility.yul\":618:640   */\n  swap1\n  pop\n    /* \"#utility.yul\":649:682   */\n  tag_56\n    /* \"#utility.yul\":676:681   */\n  dup2\n    /* \"#utility.yul\":649:682   */\n  tag_14\n  jump\t// in\ntag_56:\n    /* \"#utility.yul\":545:688   */\n  swap3\n  swap2\n  pop\n  pop\n  jump\t// out\n    /* \"#utility.yul\":694:811   */\ntag_16:\n    /* \"#utility.yul\":803:804   */\n  0x00\n    /* \"#utility.yul\":800:801   */\n  dup1\n    /* \"#utility.yul\":793:805   */\n  revert\n    /* \"#utility.yul\":817:934   */\ntag_17:\n    /* \"#utility.yul\":926:927   */\n  0x00\n    /* \"#utility.yul\":923:924   */\n  dup1\n    /* \"#utility.yul\":916:928   */\n  revert\n    /* \"#utility.yul\":940:1042   */\ntag_18:\n    /* \"#utility.yul\":981:987   */\n  0x00\n    /* \"#utility.yul\":1032:1034   */\n  0x1f\n    /* \"#utility.yul\":1028:1035   */\n  not\n    /* \"#utility.yul\":1023:1025   */\n  0x1f\n    /* \"#utility.yul\":1016:1021   */\n  dup4\n    /* \"#utility.yul\":1012:1026   */\n  add\n    /* \"#utility.yul\":1008:1036   */\n  and\n    /* \"#utility.yul\":998:1036   */\n  swap1\n  pop\n    /* \"#utility.yul\":940:1042   */\n  swap2\n  swap1\n  pop\n  jump\t// out\n    /* \"#utility.yul\":1048:1228   */\ntag_19:\n    /* \"#utility.yul\":1096:1173   */\n  0x4e487b7100000000000000000000000000000000000000000000000000000000\n    /* \"#utility.yul\":1093:1094   */\n  0x00\n    /* \"#utility.yul\":1086:1174   */\n  mstore\n    /* \"#utility.yul\":1193:1197   */\n  0x41\n    /* \"#utility.yul\":1190:1191   */\n  0x04\n    /* \"#utility.yul\":1183:1198   */\n  mstore\n    /* \"#utility.yul\":1217:1221   */\n  0x24\n    /* \"#utility.yul\":1214:1215   */\n  0x00\n    /* \"#utility.yul\":1207:1222   */\n  revert\n    /* \"#utility.yul\":1234:1515   */\ntag_20:\n    /* \"#utility.yul\":1317:1344   */\n  tag_62\n    /* \"#utility.yul\":1339:1343   */\n  dup3\n    /* \"#utility.yul\":1317:1344   */\n  tag_18\n  jump\t// in\ntag_62:\n    /* \"#utility.yul\":1309:1315   */\n  dup2\n    /* \"#utility.yul\":1305:1345   */\n  add\n    /* \"#utility.yul\":1447:1453   */\n  dup2\n    /* \"#utility.yul\":1435:1445   */\n  dup2\n    /* \"#utility.yul\":1432:1454   */\n  lt\n    /* \"#utility.yul\":1411:1429   */\n  0xffffffffffffffff\n    /* \"#utility.yul\":1399:1409   */\n  dup3\n    /* \"#utility.yul\":1396:1430   */\n  gt\n    /* \"#utility.yul\":1393:1455   */\n  or\n    /* \"#utility.yul\":1390:1478   */\n  iszero\n  tag_63\n  jumpi\n    /* \"#utility.yul\":1458:1476   */\n  tag_64\n  tag_19\n  jump\t// in\ntag_64:\n    /* \"#utility.yul\":1390:1478   */\ntag_63:\n    /* \"#utility.yul\":1498:1508   */\n  dup1\n    /* \"#utility.yul\":1494:1496   */\n  0x40\n    /* \"#utility.yul\":1487:1509   */\n  mstore\n    /* \"#utility.yul\":1277:1515   */\n  pop\n    /* \"#utility.yul\":1234:1515   */\n  pop\n  pop\n  jump\t// out\n    /* \"#utility.yul\":1521:1650   */\ntag_21:\n    /* \"#utility.yul\":1555:1561   */\n  0x00\n    /* \"#utility.yul\":1582:1602   */\n  tag_66\n  tag_10\n  jump\t// in\ntag_66:\n    /* \"#utility.yul\":1572:1602   */\n  swap1\n  pop\n    /* \"#utility.yul\":1611:1644   */\n  tag_67\n    /* \"#utility.yul\":1639:1643   */\n  dup3\n    /* \"#utility.yul\":1631:1637   */\n  dup3\n    /* \"#utility.yul\":1611:1644   */\n  tag_20\n  jump\t// in\ntag_67:\n    /* \"#utility.yul\":1521:1650   */\n  swap2\n  swap1\n  pop\n  jump\t// out\n    /* \"#utility.yul\":1656:1964   */\ntag_22:\n    /* \"#utility.yul\":1718:1722   */\n  0x00\n    /* \"#utility.yul\":1808:1826   */\n  0xffffffffffffffff\n    /* \"#utility.yul\":1800:1806   */\n  dup3\n    /* \"#utility.yul\":1797:1827   */\n  gt\n    /* \"#utility.yul\":1794:1850   */\n  iszero\n  tag_69\n  jumpi\n    /* \"#utility.yul\":1830:1848   */\n  tag_70\n  tag_19\n  jump\t// in\ntag_70:\n    /* \"#utility.yul\":1794:1850   */\ntag_69:\n    /* \"#utility.yul\":1868:1897   */\n  tag_71\n    /* \"#utility.yul\":1890:1896   */\n  dup3\n    /* \"#utility.yul\":1868:1897   */\n  tag_18\n  jump\t// in\ntag_71:\n    /* \"#utility.yul\":1860:1897   */\n  swap1\n  pop\n    /* \"#utility.yul\":1952:1956   */\n  0x20\n    /* \"#utility.yul\":1946:1950   */\n  dup2\n    /* \"#utility.yul\":1942:1957   */\n  add\n    /* \"#utility.yul\":1934:1957   */\n  swap1\n  pop\n    /* \"#utility.yul\":1656:1964   */\n  swap2\n  swap1\n  pop\n  jump\t// out\n    /* \"#utility.yul\":1970:2216   */\ntag_23:\n    /* \"#utility.yul\":2051:2052   */\n  0x00\n    /* \"#utility.yul\":2061:2174   */\ntag_73:\n    /* \"#utility.yul\":2075:2081   */\n  dup4\n    /* \"#utility.yul\":2072:2073   */\n  dup2\n    /* \"#utility.yul\":2069:2082   */\n  lt\n    /* \"#utility.yul\":2061:2174   */\n  iszero\n  tag_75\n  jumpi\n    /* \"#utility.yul\":2160:2161   */\n  dup1\n    /* \"#utility.yul\":2155:2158   */\n  dup3\n    /* \"#utility.yul\":2151:2162   */\n  add\n    /* \"#utility.yul\":2145:2163   */\n  mload\n    /* \"#utility.yul\":2141:2142   */\n  dup2\n    /* \"#utility.yul\":2136:2139   */\n  dup5\n    /* \"#utility.yul\":2132:2143   */\n  add\n    /* \"#utility.yul\":2125:2164   */\n  mstore\n    /* \"#utility.yul\":2097:2099   */\n  0x20\n    /* \"#utility.yul\":2094:2095   */\n  dup2\n    /* \"#utility.yul\":2090:2100   */\n  add\n    /* \"#utility.yul\":2085:2100   */\n  swap1\n  pop\n    /* \"#utility.yul\":2061:2174   */\n  jump(tag_73)\ntag_75:\n    /* \"#utility.yul\":2208:2209   */\n  0x00\n    /* \"#utility.yul\":2199:2205   */\n  dup5\n    /* \"#utility.yul\":2194:2197   */\n  dup5\n    /* \"#utility.yul\":2190:2206   */\n  add\n    /* \"#utility.yul\":2183:2210   */\n  mstore\n    /* \"#utility.yul\":2032:2216   */\n  pop\n    /* \"#utility.yul\":1970:2216   */\n  pop\n  pop\n  pop\n  jump\t// out\n    /* \"#utility.yul\":2222:2656   */\ntag_24:\n    /* \"#utility.yul\":2311:2316   */\n  0x00\n    /* \"#utility.yul\":2336:2402   */\n  tag_77\n    /* \"#utility.yul\":2352:2401   */\n  tag_78\n    /* \"#utility.yul\":2394:2400   */\n  dup5\n    /* \"#utility.yul\":2352:2401   */\n  tag_22\n  jump\t// in\ntag_78:\n    /* \"#utility.yul\":2336:2402   */\n  tag_21\n  jump\t// in\ntag_77:\n    /* \"#utility.yul\":2327:2402   */\n  swap1\n  pop\n    /* \"#utility.yul\":2425:2431   */\n  dup3\n    /* \"#utility.yul\":2418:2423   */\n  dup2\n    /* \"#utility.yul\":2411:2432   */\n  mstore\n    /* \"#utility.yul\":2463:2467   */\n  0x20\n    /* \"#utility.yul\":2456:2461   */\n  dup2\n    /* \"#utility.yul\":2452:2468   */\n  add\n    /* \"#utility.yul\":2501:2504   */\n  dup5\n    /* \"#utility.yul\":2492:2498   */\n  dup5\n    /* \"#utility.yul\":2487:2490   */\n  dup5\n    /* \"#utility.yul\":2483:2499   */\n  add\n    /* \"#utility.yul\":2480:2505   */\n  gt\n    /* \"#utility.yul\":2477:2589   */\n  iszero\n  tag_79\n  jumpi\n    /* \"#utility.yul\":2508:2587   */\n  tag_80\n  tag_17\n  jump\t// in\ntag_80:\n    /* \"#utility.yul\":2477:2589   */\ntag_79:\n    /* \"#utility.yul\":2598:2650   */\n  tag_81\n    /* \"#utility.yul\":2643:2649   */\n  dup5\n    /* \"#utility.yul\":2638:2641   */\n  dup3\n    /* \"#utility.yul\":2633:2636   */\n  dup6\n    /* \"#utility.yul\":2598:2650   */\n  tag_23\n  jump\t// in\ntag_81:\n    /* \"#utility.yul\":2317:2656   */\n  pop\n    /* \"#utility.yul\":2222:2656   */\n  swap4\n  swap3\n  pop\n  pop\n  pop\n  jump\t// out\n    /* \"#utility.yul\":2676:3031   */\ntag_25:\n    /* \"#utility.yul\":2743:2748   */\n  0x00\n    /* \"#utility.yul\":2792:2795   */\n  dup3\n    /* \"#utility.yul\":2785:2789   */\n  0x1f\n    /* \"#utility.yul\":2777:2783   */\n  dup4\n    /* \"#utility.yul\":2773:2790   */\n  add\n    /* \"#utility.yul\":2769:2796   */\n  slt\n    /* \"#utility.yul\":2759:2881   */\n  tag_83\n  jumpi\n    /* \"#utility.yul\":2800:2879   */\n  tag_84\n  tag_16\n  jump\t// in\ntag_84:\n    /* \"#utility.yul\":2759:2881   */\ntag_83:\n    /* \"#utility.yul\":2910:2916   */\n  dup2\n    /* \"#utility.yul\":2904:2917   */\n  mload\n    /* \"#utility.yul\":2935:3025   */\n  tag_85\n    /* \"#utility.yul\":3021:3024   */\n  dup5\n    /* \"#utility.yul\":3013:3019   */\n  dup3\n    /* \"#utility.yul\":3006:3010   */\n  0x20\n    /* \"#utility.yul\":2998:3004   */\n  dup7\n    /* \"#utility.yul\":2994:3011   */\n  add\n    /* \"#utility.yul\":2935:3025   */\n  tag_24\n  jump\t// in\ntag_85:\n    /* \"#utility.yul\":2926:3025   */\n  swap2\n  pop\n    /* \"#utility.yul\":2749:3031   */\n  pop\n    /* \"#utility.yul\":2676:3031   */\n  swap3\n  swap2\n  pop\n  pop\n  jump\t// out\n    /* \"#utility.yul\":3037:3123   */\ntag_26:\n    /* \"#utility.yul\":3072:3079   */\n  0x00\n    /* \"#utility.yul\":3112:3116   */\n  0xff\n    /* \"#utility.yul\":3105:3110   */\n  dup3\n    /* \"#utility.yul\":3101:3117   */\n  and\n    /* \"#utility.yul\":3090:3117   */\n  swap1\n  pop\n    /* \"#utility.yul\":3037:3123   */\n  swap2\n  swap1\n  pop\n  jump\t// out\n    /* \"#utility.yul\":3129:3247   */\ntag_27:\n    /* \"#utility.yul\":3200:3222   */\n  tag_88\n    /* \"#utility.yul\":3216:3221   */\n  dup2\n    /* \"#utility.yul\":3200:3222   */\n  tag_26\n  jump\t// in\ntag_88:\n    /* \"#utility.yul\":3193:3198   */\n  dup2\n    /* \"#utility.yul\":3190:3223   */\n  eq\n    /* \"#utility.yul\":3180:3241   */\n  tag_89\n  jumpi\n    /* \"#utility.yul\":3237:3238   */\n  0x00\n    /* \"#utility.yul\":3234:3235   */\n  dup1\n    /* \"#utility.yul\":3227:3239   */\n  revert\n    /* \"#utility.yul\":3180:3241   */\ntag_89:\n    /* \"#utility.yul\":3129:3247   */\n  pop\n  jump\t// out\n    /* \"#utility.yul\":3253:3392   */\ntag_28:\n    /* \"#utility.yul\":3308:3313   */\n  0x00\n    /* \"#utility.yul\":3339:3345   */\n  dup2\n    /* \"#utility.yul\":3333:3346   */\n  mload\n    /* \"#utility.yul\":3324:3346   */\n  swap1\n  pop\n    /* \"#utility.yul\":3355:3386   */\n  tag_91\n    /* \"#utility.yul\":3380:3385   */\n  dup2\n    /* \"#utility.yul\":3355:3386   */\n  tag_27\n  jump\t// in\ntag_91:\n    /* \"#utility.yul\":3253:3392   */\n  swap3\n  swap2\n  pop\n  pop\n  jump\t// out\n    /* \"#utility.yul\":3398:4560   */\ntag_3:\n    /* \"#utility.yul\":3513:3519   */\n  0x00\n    /* \"#utility.yul\":3521:3527   */\n  dup1\n    /* \"#utility.yul\":3529:3535   */\n  0x00\n    /* \"#utility.yul\":3537:3543   */\n  dup1\n    /* \"#utility.yul\":3586:3589   */\n  0x80\n    /* \"#utility.yul\":3574:3583   */\n  dup6\n    /* \"#utility.yul\":3565:3572   */\n  dup8\n    /* \"#utility.yul\":3561:3584   */\n  sub\n    /* \"#utility.yul\":3557:3590   */\n  slt\n    /* \"#utility.yul\":3554:3674   */\n  iszero\n  tag_93\n  jumpi\n    /* \"#utility.yul\":3593:3672   */\n  tag_94\n  tag_11\n  jump\t// in\ntag_94:\n    /* \"#utility.yul\":3554:3674   */\ntag_93:\n    /* \"#utility.yul\":3713:3714   */\n  0x00\n    /* \"#utility.yul\":3738:3802   */\n  tag_95\n    /* \"#utility.yul\":3794:3801   */\n  dup8\n    /* \"#utility.yul\":3785:3791   */\n  dup3\n    /* \"#utility.yul\":3774:3783   */\n  dup9\n    /* \"#utility.yul\":3770:3792   */\n  add\n    /* \"#utility.yul\":3738:3802   */\n  tag_15\n  jump\t// in\ntag_95:\n    /* \"#utility.yul\":3728:3802   */\n  swap5\n  pop\n    /* \"#utility.yul\":3684:3812   */\n  pop\n    /* \"#utility.yul\":3872:3874   */\n  0x20\n    /* \"#utility.yul\":3861:3870   */\n  dup6\n    /* \"#utility.yul\":3857:3875   */\n  add\n    /* \"#utility.yul\":3851:3876   */\n  mload\n    /* \"#utility.yul\":3903:3921   */\n  0xffffffffffffffff\n    /* \"#utility.yul\":3895:3901   */\n  dup2\n    /* \"#utility.yul\":3892:3922   */\n  gt\n    /* \"#utility.yul\":3889:4006   */\n  iszero\n  tag_96\n  jumpi\n    /* \"#utility.yul\":3925:4004   */\n  tag_97\n  tag_12\n  jump\t// in\ntag_97:\n    /* \"#utility.yul\":3889:4006   */\ntag_96:\n    /* \"#utility.yul\":4030:4104   */\n  tag_98\n    /* \"#utility.yul\":4096:4103   */\n  dup8\n    /* \"#utility.yul\":4087:4093   */\n  dup3\n    /* \"#utility.yul\":4076:4085   */\n  dup9\n    /* \"#utility.yul\":4072:4094   */\n  add\n    /* \"#utility.yul\":4030:4104   */\n  tag_25\n  jump\t// in\ntag_98:\n    /* \"#utility.yul\":4020:4104   */\n  swap4\n  pop\n    /* \"#utility.yul\":3822:4114   */\n  pop\n    /* \"#utility.yul\":4153:4155   */\n  0x40\n    /* \"#utility.yul\":4179:4241   */\n  tag_99\n    /* \"#utility.yul\":4233:4240   */\n  dup8\n    /* \"#utility.yul\":4224:4230   */\n  dup3\n    /* \"#utility.yul\":4213:4222   */\n  dup9\n    /* \"#utility.yul\":4209:4231   */\n  add\n    /* \"#utility.yul\":4179:4241   */\n  tag_28\n  jump\t// in\ntag_99:\n    /* \"#utility.yul\":4169:4241   */\n  swap3\n  pop\n    /* \"#utility.yul\":4124:4251   */\n  pop\n    /* \"#utility.yul\":4311:4313   */\n  0x60\n    /* \"#utility.yul\":4300:4309   */\n  dup6\n    /* \"#utility.yul\":4296:4314   */\n  add\n    /* \"#utility.yul\":4290:4315   */\n  mload\n    /* \"#utility.yul\":4342:4360   */\n  0xffffffffffffffff\n    /* \"#utility.yul\":4334:4340   */\n  dup2\n    /* \"#utility.yul\":4331:4361   */\n  gt\n    /* \"#utility.yul\":4328:4445   */\n  iszero\n  tag_100\n  jumpi\n    /* \"#utility.yul\":4364:4443   */\n  tag_101\n  tag_12\n  jump\t// in\ntag_101:\n    /* \"#utility.yul\":4328:4445   */\ntag_100:\n    /* \"#utility.yul\":4469:4543   */\n  tag_102\n    /* \"#utility.yul\":4535:4542   */\n  dup8\n    /* \"#utility.yul\":4526:4532   */\n  dup3\n    /* \"#utility.yul\":4515:4524   */\n  dup9\n    /* \"#utility.yul\":4511:4533   */\n  add\n    /* \"#utility.yul\":4469:4543   */\n  tag_25\n  jump\t// in\ntag_102:\n    /* \"#utility.yul\":4459:4543   */\n  swap2\n  pop\n    /* \"#utility.yul\":4261:4553   */\n  pop\n    /* \"#utility.yul\":3398:4560   */\n  swap3\n  swap6\n  swap2\n  swap5\n  pop\n  swap3\n  pop\n  jump\t// out\n    /* \"#utility.yul\":4566:4665   */\ntag_29:\n    /* \"#utility.yul\":4618:4624   */\n  0x00\n    /* \"#utility.yul\":4652:4657   */\n  dup2\n    /* \"#utility.yul\":4646:4658   */\n  mload\n    /* \"#utility.yul\":4636:4658   */\n  swap1\n  pop\n    /* \"#utility.yul\":4566:4665   */\n  swap2\n  swap1\n  pop\n  jump\t// out\n    /* \"#utility.yul\":4671:4851   */\ntag_30:\n    /* \"#utility.yul\":4719:4796   */\n  0x4e487b7100000000000000000000000000000000000000000000000000000000\n    /* \"#utility.yul\":4716:4717   */\n  0x00\n    /* \"#utility.yul\":4709:4797   */\n  mstore\n    /* \"#utility.yul\":4816:4820   */\n  0x22\n    /* \"#utility.yul\":4813:4814   */\n  0x04\n    /* \"#utility.yul\":4806:4821   */\n  mstore\n    /* \"#utility.yul\":4840:4844   */\n  0x24\n    /* \"#utility.yul\":4837:4838   */\n  0x00\n    /* \"#utility.yul\":4830:4845   */\n  revert\n    /* \"#utility.yul\":4857:5177   */\ntag_31:\n    /* \"#utility.yul\":4901:4907   */\n  0x00\n    /* \"#utility.yul\":4938:4939   */\n  0x02\n    /* \"#utility.yul\":4932:4936   */\n  dup3\n    /* \"#utility.yul\":4928:4940   */\n  div\n    /* \"#utility.yul\":4918:4940   */\n  swap1\n  pop\n    /* \"#utility.yul\":4985:4986   */\n  0x01\n    /* \"#utility.yul\":4979:4983   */\n  dup3\n    /* \"#utility.yul\":4975:4987   */\n  and\n    /* \"#utility.yul\":5006:5024   */\n  dup1\n    /* \"#utility.yul\":4996:5077   */\n  tag_106\n  jumpi\n    /* \"#utility.yul\":5062:5066   */\n  0x7f\n    /* \"#utility.yul\":5054:5060   */\n  dup3\n    /* \"#utility.yul\":5050:5067   */\n  and\n    /* \"#utility.yul\":5040:5067   */\n  swap2\n  pop\n    /* \"#utility.yul\":4996:5077   */\ntag_106:\n    /* \"#utility.yul\":5124:5126   */\n  0x20\n    /* \"#utility.yul\":5116:5122   */\n  dup3\n    /* \"#utility.yul\":5113:5127   */\n  lt\n    /* \"#utility.yul\":5093:5111   */\n  dup2\n    /* \"#utility.yul\":5090:5128   */\n  sub\n    /* \"#utility.yul\":5087:5171   */\n  tag_107\n  jumpi\n    /* \"#utility.yul\":5143:5161   */\n  tag_108\n  tag_30\n  jump\t// in\ntag_108:\n    /* \"#utility.yul\":5087:5171   */\ntag_107:\n    /* \"#utility.yul\":4908:5177   */\n  pop\n    /* \"#utility.yul\":4857:5177   */\n  swap2\n  swap1\n  pop\n  jump\t// out\n    /* \"#utility.yul\":5183:5324   */\ntag_32:\n    /* \"#utility.yul\":5232:5236   */\n  0x00\n    /* \"#utility.yul\":5255:5258   */\n  dup2\n    /* \"#utility.yul\":5247:5258   */\n  swap1\n  pop\n    /* \"#utility.yul\":5278:5281   */\n  dup2\n    /* \"#utility.yul\":5275:5276   */\n  0x00\n    /* \"#utility.yul\":5268:5282   */\n  mstore\n    /* \"#utility.yul\":5312:5316   */\n  0x20\n    /* \"#utility.yul\":5309:5310   */\n  0x00\n    /* \"#utility.yul\":5299:5317   */\n  keccak256\n    /* \"#utility.yul\":5291:5317   */\n  swap1\n  pop\n    /* \"#utility.yul\":5183:5324   */\n  swap2\n  swap1\n  pop\n  jump\t// out\n    /* \"#utility.yul\":5330:5423   */\ntag_33:\n    /* \"#utility.yul\":5367:5373   */\n  0x00\n    /* \"#utility.yul\":5414:5416   */\n  0x20\n    /* \"#utility.yul\":5409:5411   */\n  0x1f\n    /* \"#utility.yul\":5402:5407   */\n  dup4\n    /* \"#utility.yul\":5398:5412   */\n  add\n    /* \"#utility.yul\":5394:5417   */\n  div\n    /* \"#utility.yul\":5384:5417   */\n  swap1\n  pop\n    /* \"#utility.yul\":5330:5423   */\n  swap2\n  swap1\n  pop\n  jump\t// out\n    /* \"#utility.yul\":5429:5536   */\ntag_34:\n    /* \"#utility.yul\":5473:5481   */\n  0x00\n    /* \"#utility.yul\":5523:5528   */\n  dup3\n    /* \"#utility.yul\":5517:5521   */\n  dup3\n    /* \"#utility.yul\":5513:5529   */\n  shl\n    /* \"#utility.yul\":5492:5529   */\n  swap1\n  pop\n    /* \"#utility.yul\":5429:5536   */\n  swap3\n  swap2\n  pop\n  pop\n  jump\t// out\n    /* \"#utility.yul\":5542:5935   */\ntag_35:\n    /* \"#utility.yul\":5611:5617   */\n  0x00\n    /* \"#utility.yul\":5661:5662   */\n  0x08\n    /* \"#utility.yul\":5649:5659   */\n  dup4\n    /* \"#utility.yul\":5645:5663   */\n  mul\n    /* \"#utility.yul\":5684:5781   */\n  tag_113\n    /* \"#utility.yul\":5714:5780   */\n  0xffffffffffffffffffffffffffffffffffffffffffffffffffffffffffffffff\n    /* \"#utility.yul\":5703:5712   */\n  dup3\n    /* \"#utility.yul\":5684:5781   */\n  tag_34\n  jump\t// in\ntag_113:\n    /* \"#utility.yul\":5802:5841   */\n  tag_114\n    /* \"#utility.yul\":5832:5840   */\n  dup7\n    /* \"#utility.yul\":5821:5830   */\n  dup4\n    /* \"#utility.yul\":5802:5841   */\n  tag_34\n  jump\t// in\ntag_114:\n    /* \"#utility.yul\":5790:5841   */\n  swap6\n  pop\n    /* \"#utility.yul\":5874:5878   */\n  dup1\n    /* \"#utility.yul\":5870:5879   */\n  not\n    /* \"#utility.yul\":5863:5868   */\n  dup5\n    /* \"#utility.yul\":5859:5880   */\n  and\n    /* \"#utility.yul\":5850:5880   */\n  swap4\n  pop\n    /* \"#utility.yul\":5923:5927   */\n  dup1\n    /* \"#utility.yul\":5913:5921   */\n  dup7\n    /* \"#utility.yul\":5909:5928   */\n  and\n    /* \"#utility.yul\":5902:5907   */\n  dup5\n    /* \"#utility.yul\":5899:5929   */\n  or\n    /* \"#utility.yul\":5889:5929   */\n  swap3\n  pop\n    /* \"#utility.yul\":5618:5935   */\n  pop\n  pop\n    /* \"#utility.yul\":5542:5935   */\n  swap4\n  swap3\n  pop\n  pop\n  pop\n  jump\t// out\n    /* \"#utility.yul\":5941:6001   */\ntag_36:\n    /* \"#utility.yul\":5969:5972   */\n  0x00\n    /* \"#utility.yul\":5990:5995   */\n  dup2\n    /* \"#utility.yul\":5983:5995   */\n  swap1\n  pop\n    /* \"#utility.yul\":5941:6001   */\n  swap2\n  swap1\n  pop\n  jump\t// out\n    /* \"#utility.yul\":6007:6149   */\ntag_37:\n    /* \"#utility.yul\":6057:6066   */\n  0x00\n    /* \"#utility.yul\":6090:6143   */\n  tag_117\n    /* \"#utility.yul\":6108:6142   */\n  tag_118\n    /* \"#utility.yul\":6117:6141   */\n  tag_119\n    /* \"#utility.yul\":6135:6140   */\n  dup5\n    /* \"#utility.yul\":6117:6141   */\n  tag_13\n  jump\t// in\ntag_119:\n    /* \"#utility.yul\":6108:6142   */\n  tag_36\n  jump\t// in\ntag_118:\n    /* \"#utility.yul\":6090:6143   */\n  tag_13\n  jump\t// in\ntag_117:\n    /* \"#utility.yul\":6077:6143   */\n  swap1\n  pop\n    /* \"#utility.yul\":6007:6149   */\n  swap2\n  swap1\n  pop\n  jump\t// out\n    /* \"#utility.yul\":6155:6230   */\ntag_38:\n    /* \"#utility.yul\":6198:6201   */\n  0x00\n    /* \"#utility.yul\":6219:6224   */\n  dup2\n    /* \"#utility.yul\":6212:6224   */\n  swap1\n  pop\n    /* \"#utility.yul\":6155:6230   */\n  swap2\n  swap1\n  pop\n  jump\t// out\n    /* \"#utility.yul\":6236:6505   */\ntag_39:\n    /* \"#utility.yul\":6346:6385   */\n  tag_122\n    /* \"#utility.yul\":6377:6384   */\n  dup4\n    /* \"#utility.yul\":6346:6385   */\n  tag_37\n  jump\t// in\ntag_122:\n    /* \"#utility.yul\":6407:6498   */\n  tag_123\n    /* \"#utility.yul\":6456:6497   */\n  tag_124\n    /* \"#utility.yul\":6480:6496   */\n  dup3\n    /* \"#utility.yul\":6456:6497   */\n  tag_38\n  jump\t// in\ntag_124:\n    /* \"#utility.yul\":6448:6454   */\n  dup5\n    /* \"#utility.yul\":6441:6445   */\n  dup5\n    /* \"#utility.yul\":6435:6446   */\n  sload\n    /* \"#utility.yul\":6407:6498   */\n  tag_35\n  jump\t// in\ntag_123:\n    /* \"#utility.yul\":6401:6405   */\n  dup3\n    /* \"#utility.yul\":6394:6499   */\n  sstore\n    /* \"#utility.yul\":6312:6505   */\n  pop\n    /* \"#utility.yul\":6236:6505   */\n  pop\n  pop\n  pop\n  jump\t// out\n    /* \"#utility.yul\":6511:6584   */\ntag_40:\n    /* \"#utility.yul\":6556:6559   */\n  0x00\n    /* \"#utility.yul\":6511:6584   */\n  swap1\n  jump\t// out\n    /* \"#utility.yul\":6590:6779   */\ntag_41:\n    /* \"#utility.yul\":6667:6699   */\n  tag_127\n  tag_40\n  jump\t// in\ntag_127:\n    /* \"#utility.yul\":6708:6773   */\n  tag_128\n    /* \"#utility.yul\":6766:6772   */\n  dup2\n    /* \"#utility.yul\":6758:6764   */\n  dup5\n    /* \"#utility.yul\":6752:6756   */\n  dup5\n    /* \"#utility.yul\":6708:6773   */\n  tag_39\n  jump\t// in\ntag_128:\n    /* \"#utility.yul\":6643:6779   */\n  pop\n    /* \"#utility.yul\":6590:6779   */\n  pop\n  pop\n  jump\t// out\n    /* \"#utility.yul\":6785:6971   */\ntag_42:\n    /* \"#utility.yul\":6845:6965   */\ntag_130:\n    /* \"#utility.yul\":6862:6865   */\n  dup2\n    /* \"#utility.yul\":6855:6860   */\n  dup2\n    /* \"#utility.yul\":6852:6866   */\n  lt\n    /* \"#utility.yul\":6845:6965   */\n  iszero\n  tag_132\n  jumpi\n    /* \"#utility.yul\":6916:6955   */\n  tag_133\n    /* \"#utility.yul\":6953:6954   */\n  0x00\n    /* \"#utility.yul\":6946:6951   */\n  dup3\n    /* \"#utility.yul\":6916:6955   */\n  tag_41\n  jump\t// in\ntag_133:\n    /* \"#utility.yul\":6889:6890   */\n  0x01\n    /* \"#utility.yul\":6882:6887   */\n  dup2\n    /* \"#utility.yul\":6878:6891   */\n  add\n    /* \"#utility.yul\":6869:6891   */\n  swap1\n  pop\n    /* \"#utility.yul\":6845:6965   */\n  jump(tag_130)\ntag_132:\n    /* \"#utility.yul\":6785:6971   */\n  pop\n  pop\n  jump\t// out\n    /* \"#utility.yul\":6977:7520   */\ntag_43:\n    /* \"#utility.yul\":7078:7080   */\n  0x1f\n    /* \"#utility.yul\":7073:7076   */\n  dup3\n    /* \"#utility.yul\":7070:7081   */\n  gt\n    /* \"#utility.yul\":7067:7513   */\n  iszero\n  tag_135\n  jumpi\n    /* \"#utility.yul\":7112:7150   */\n  tag_136\n    /* \"#utility.yul\":7144:7149   */\n  dup2\n    /* \"#utility.yul\":7112:7150   */\n  tag_32\n  jump\t// in\ntag_136:\n    /* \"#utility.yul\":7196:7225   */\n  tag_137\n    /* \"#utility.yul\":7214:7224   */\n  dup5\n    /* \"#utility.yul\":7196:7225   */\n  tag_33\n  jump\t// in\ntag_137:\n    /* \"#utility.yul\":7186:7194   */\n  dup2\n    /* \"#utility.yul\":7182:7226   */\n  add\n    /* \"#utility.yul\":7379:7381   */\n  0x20\n    /* \"#utility.yul\":7367:7377   */\n  dup6\n    /* \"#utility.yul\":7364:7382   */\n  lt\n    /* \"#utility.yul\":7361:7410   */\n  iszero\n  tag_138\n  jumpi\n    /* \"#utility.yul\":7400:7408   */\n  dup2\n    /* \"#utility.yul\":7385:7408   */\n  swap1\n  pop\n    /* \"#utility.yul\":7361:7410   */\ntag_138:\n    /* \"#utility.yul\":7423:7503   */\n  tag_139\n    /* \"#utility.yul\":7479:7501   */\n  tag_140\n    /* \"#utility.yul\":7497:7500   */\n  dup6\n    /* \"#utility.yul\":7479:7501   */\n  tag_33\n  jump\t// in\ntag_140:\n    /* \"#utility.yul\":7469:7477   */\n  dup4\n    /* \"#utility.yul\":7465:7502   */\n  add\n    /* \"#utility.yul\":7452:7463   */\n  dup3\n    /* \"#utility.yul\":7423:7503   */\n  tag_42\n  jump\t// in\ntag_139:\n    /* \"#utility.yul\":7082:7513   */\n  pop\n  pop\n    /* \"#utility.yul\":7067:7513   */\ntag_135:\n    /* \"#utility.yul\":6977:7520   */\n  pop\n  pop\n  pop\n  jump\t// out\n    /* \"#utility.yul\":7526:7643   */\ntag_44:\n    /* \"#utility.yul\":7580:7588   */\n  0x00\n    /* \"#utility.yul\":7630:7635   */\n  dup3\n    /* \"#utility.yul\":7624:7628   */\n  dup3\n    /* \"#utility.yul\":7620:7636   */\n  shr\n    /* \"#utility.yul\":7599:7636   */\n  swap1\n  pop\n    /* \"#utility.yul\":7526:7643   */\n  swap3\n  swap2\n  pop\n  pop\n  jump\t// out\n    /* \"#utility.yul\":7649:7818   */\ntag_45:\n    /* \"#utility.yul\":7693:7699   */\n  0x00\n    /* \"#utility.yul\":7726:7777   */\n  tag_143\n    /* \"#utility.yul\":7774:7775   */\n  0x00\n    /* \"#utility.yul\":7770:7776   */\n  not\n    /* \"#utility.yul\":7762:7767   */\n  dup5\n    /* \"#utility.yul\":7759:7760   */\n  0x08\n    /* \"#utility.yul\":7755:7768   */\n  mul\n    /* \"#utility.yul\":7726:7777   */\n  tag_44\n  jump\t// in\ntag_143:\n    /* \"#utility.yul\":7722:7778   */\n  not\n    /* \"#utility.yul\":7807:7811   */\n  dup1\n    /* \"#utility.yul\":7801:7805   */\n  dup4\n    /* \"#utility.yul\":7797:7812   */\n  and\n    /* \"#utility.yul\":7787:7812   */\n  swap2\n  pop\n    /* \"#utility.yul\":7700:7818   */\n  pop\n    /* \"#utility.yul\":7649:7818   */\n  swap3\n  swap2\n  pop\n  pop\n  jump\t// out\n    /* \"#utility.yul\":7823:8118   */\ntag_46:\n    /* \"#utility.yul\":7899:7903   */\n  0x00\n    /* \"#utility.yul\":8045:8074   */\n  tag_145\n    /* \"#utility.yul\":8070:8073   */\n  dup4\n    /* \"#utility.yul\":8064:8068   */\n  dup4\n    /* \"#utility.yul\":8045:8074   */\n  tag_45\n  jump\t// in\ntag_145:\n    /* \"#utility.yul\":8037:8074   */\n  swap2\n  pop\n    /* \"#utility.yul\":8107:8110   */\n  dup3\n    /* \"#utility.yul\":8104:8105   */\n  0x02\n    /* \"#utility.yul\":8100:8111   */\n  mul\n    /* \"#utility.yul\":8094:8098   */\n  dup3\n    /* \"#utility.yul\":8091:8112   */\n  or\n    /* \"#utility.yul\":8083:8112   */\n  swap1\n  pop\n    /* \"#utility.yul\":7823:8118   */\n  swap3\n  swap2\n  pop\n  pop\n  jump\t// out\n    /* \"#utility.yul\":8123:9518   */\ntag_7:\n    /* \"#utility.yul\":8240:8277   */\n  tag_147\n    /* \"#utility.yul\":8273:8276   */\n  dup3\n    /* \"#utility.yul\":8240:8277   */\n  tag_29\n  jump\t// in\ntag_147:\n    /* \"#utility.yul\":8342:8360   */\n  0xffffffffffffffff\n    /* \"#utility.yul\":8334:8340   */\n  dup2\n    /* \"#utility.yul\":8331:8361   */\n  gt\n    /* \"#utility.yul\":8328:8384   */\n  iszero\n  tag_148\n  jumpi\n    /* \"#utility.yul\":8364:8382   */\n  tag_149\n  tag_19\n  jump\t// in\ntag_149:\n    /* \"#utility.yul\":8328:8384   */\ntag_148:\n    /* \"#utility.yul\":8408:8446   */\n  tag_150\n    /* \"#utility.yul\":8440:8444   */\n  dup3\n    /* \"#utility.yul\":8434:8445   */\n  sload\n    /* \"#utility.yul\":8408:8446   */\n  tag_31\n  jump\t// in\ntag_150:\n    /* \"#utility.yul\":8493:8560   */\n  tag_151\n    /* \"#utility.yul\":8553:8559   */\n  dup3\n    /* \"#utility.yul\":8545:8551   */\n  dup3\n    /* \"#utility.yul\":8539:8543   */\n  dup6\n    /* \"#utility.yul\":8493:8560   */\n  tag_43\n  jump\t// in\ntag_151:\n    /* \"#utility.yul\":8587:8588   */\n  0x00\n    /* \"#utility.yul\":8611:8615   */\n  0x20\n    /* \"#utility.yul\":8598:8615   */\n  swap1\n  pop\n    /* \"#utility.yul\":8643:8645   */\n  0x1f\n    /* \"#utility.yul\":8635:8641   */\n  dup4\n    /* \"#utility.yul\":8632:8646   */\n  gt\n    /* \"#utility.yul\":8660:8661   */\n  0x01\n    /* \"#utility.yul\":8655:9273   */\n  dup2\n  eq\n  tag_153\n  jumpi\n    /* \"#utility.yul\":9317:9318   */\n  0x00\n    /* \"#utility.yul\":9334:9340   */\n  dup5\n    /* \"#utility.yul\":9331:9408   */\n  iszero\n  tag_154\n  jumpi\n    /* \"#utility.yul\":9383:9392   */\n  dup3\n    /* \"#utility.yul\":9378:9381   */\n  dup8\n    /* \"#utility.yul\":9374:9393   */\n  add\n    /* \"#utility.yul\":9368:9394   */\n  mload\n    /* \"#utility.yul\":9359:9394   */\n  swap1\n  pop\n    /* \"#utility.yul\":9331:9408   */\ntag_154:\n    /* \"#utility.yul\":9434:9501   */\n  tag_155\n    /* \"#utility.yul\":9494:9500   */\n  dup6\n    /* \"#utility.yul\":9487:9492   */\n  dup3\n    /* \"#utility.yul\":9434:9501   */\n  tag_46\n  jump\t// in\ntag_155:\n    /* \"#utility.yul\":9428:9432   */\n  dup7\n    /* \"#utility.yul\":9421:9502   */\n  sstore\n    /* \"#utility.yul\":9290:9512   */\n  pop\n    /* \"#utility.yul\":8625:9512   */\n  jump(tag_152)\n    /* \"#utility.yul\":8655:9273   */\ntag_153:\n    /* \"#utility.yul\":8707:8711   */\n  0x1f\n    /* \"#utility.yul\":8703:8712   */\n  not\n    /* \"#utility.yul\":8695:8701   */\n  dup5\n    /* \"#utility.yul\":8691:8713   */\n  and\n    /* \"#utility.yul\":8741:8778   */\n  tag_156\n    /* \"#utility.yul\":8773:8777   */\n  dup7\n    /* \"#utility.yul\":8741:8778   */\n  tag_32\n  jump\t// in\ntag_156:\n    /* \"#utility.yul\":8800:8801   */\n  0x00\n    /* \"#utility.yul\":8814:9022   */\ntag_157:\n    /* \"#utility.yul\":8828:8835   */\n  dup3\n    /* \"#utility.yul\":8825:8826   */\n  dup2\n    /* \"#utility.yul\":8822:8836   */\n  lt\n    /* \"#utility.yul\":8814:9022   */\n  iszero\n  tag_159\n  jumpi\n    /* \"#utility.yul\":8907:8916   */\n  dup5\n    /* \"#utility.yul\":8902:8905   */\n  dup10\n    /* \"#utility.yul\":8898:8917   */\n  add\n    /* \"#utility.yul\":8892:8918   */\n  mload\n    /* \"#utility.yul\":8884:8890   */\n  dup3\n    /* \"#utility.yul\":8877:8919   */\n  sstore\n    /* \"#utility.yul\":8958:8959   */\n  0x01\n    /* \"#utility.yul\":8950:8956   */\n  dup3\n    /* \"#utility.yul\":8946:8960   */\n  add\n    /* \"#utility.yul\":8936:8960   */\n  swap2\n  pop\n    /* \"#utility.yul\":9005:9007   */\n  0x20\n    /* \"#utility.yul\":8994:9003   */\n  dup6\n    /* \"#utility.yul\":8990:9008   */\n  add\n    /* \"#utility.yul\":8977:9008   */\n  swap5\n  pop\n    /* \"#utility.yul\":8851:8855   */\n  0x20\n    /* \"#utility.yul\":8848:8849   */\n  dup2\n    /* \"#utility.yul\":8844:8856   */\n  add\n    /* \"#utility.yul\":8839:8856   */\n  swap1\n  pop\n    /* \"#utility.yul\":8814:9022   */\n  jump(tag_157)\ntag_159:\n    /* \"#utility.yul\":9050:9056   */\n  dup7\n    /* \"#utility.yul\":9041:9048   */\n  dup4\n    /* \"#utility.yul\":9038:9057   */\n  lt\n    /* \"#utility.yul\":9035:9214   */\n  iszero\n  tag_160\n  jumpi\n    /* \"#utility.yul\":9108:9117   */\n  dup5\n    /* \"#utility.yul\":9103:9106   */\n  dup10\n    /* \"#utility.yul\":9099:9118   */\n  add\n    /* \"#utility.yul\":9093:9119   */\n  mload\n    /* \"#utility.yul\":9151:9199   */\n  tag_161\n    /* \"#utility.yul\":9193:9197   */\n  0x1f\n    /* \"#utility.yul\":9185:9191   */\n  dup10\n    /* \"#utility.yul\":9181:9198   */\n  and\n    /* \"#utility.yul\":9170:9179   */\n  dup3\n    /* \"#utility.yul\":9151:9199   */\n  tag_45\n  jump\t// in\ntag_161:\n    /* \"#utility.yul\":9143:9149   */\n  dup4\n    /* \"#utility.yul\":9136:9200   */\n  sstore\n    /* \"#utility.yul\":9058:9214   */\n  pop\n    /* \"#utility.yul\":9035:9214   */\ntag_160:\n    /* \"#utility.yul\":9260:9261   */\n  0x01\n    /* \"#utility.yul\":9256:9257   */\n  0x02\n    /* \"#utility.yul\":9248:9254   */\n  dup9\n    /* \"#utility.yul\":9244:9258   */\n  mul\n    /* \"#utility.yul\":9240:9262   */\n  add\n    /* \"#utility.yul\":9234:9238   */\n  dup9\n    /* \"#utility.yul\":9227:9263   */\n  sstore\n    /* \"#utility.yul\":8662:9273   */\n  pop\n  pop\n  pop\n    /* \"#utility.yul\":8625:9512   */\ntag_152:\n  pop\n    /* \"#utility.yul\":8215:9518   */\n  pop\n  pop\n  pop\n    /* \"#utility.yul\":8123:9518   */\n  pop\n  pop\n  jump\t// out\n    /* \"contracts/bnb.sol\":889:7234  contract BNB is SafeMath{... */\ntag_9:\n  dataSize(sub_0)\n  dup1\n  dataOffset(sub_0)\n  0x00\n  codecopy\n  0x00\n  return\nstop\n\nsub_0: assembly {\n        /* \"contracts/bnb.sol\":889:7234  contract BNB is SafeMath{... */\n      mstore(0x40, 0x80)\n      jumpi(tag_1, lt(calldatasize, 0x04))\n      shr(0xe0, calldataload(0x00))\n      dup1\n      0x70a08231\n      gt\n      tag_19\n      jumpi\n      dup1\n      0xa9059cbb\n      gt\n      tag_20\n      jumpi\n      dup1\n      0xa9059cbb\n      eq\n      tag_15\n      jumpi\n      dup1\n      0xcd4217c1\n      eq\n      tag_16\n      jumpi\n      dup1\n      0xd7a78db8\n      eq\n      tag_17\n      jumpi\n      dup1\n      0xdd62ed3e\n      eq\n      tag_18\n      jumpi\n      jump(tag_2)\n    tag_20:\n      dup1\n      0x70a08231\n      eq\n      tag_11\n      jumpi\n      dup1\n      0x7fb28a2b\n      eq\n      tag_12\n      jumpi\n      dup1\n      0x8da5cb5b\n      eq\n      tag_13\n      jumpi\n      dup1\n      0x95d89b41\n      eq\n      tag_14\n      jumpi\n      jump(tag_2)\n    tag_19:\n      dup1\n      0x313ce567\n      gt\n      tag_21\n      jumpi\n      dup1\n      0x313ce567\n      eq\n      tag_7\n      jumpi\n      dup1\n      0x3bed33ce\n      eq\n      tag_8\n      jumpi\n      dup1\n      0x42966c68\n      eq\n      tag_9\n      jumpi\n      dup1\n      0x6623fc46\n      eq\n      tag_10\n      jumpi\n      jump(tag_2)\n    tag_21:\n      dup1\n      0x06fdde03\n      eq\n      tag_3\n      jumpi\n      dup1\n      0x095ea7b3\n      eq\n      tag_4\n      jumpi\n      dup1\n      0x18160ddd\n      eq\n      tag_5\n      jumpi\n      dup1\n      0x23b872dd\n      eq\n      tag_6\n      jumpi\n      jump(tag_2)\n    tag_1:\n    tag_2:\n      stop\n        /* \"contracts/bnb.sol\":919:937  string public name */\n    tag_3:\n      callvalue\n      dup1\n      iszero\n      tag_24\n      jumpi\n      0x00\n      dup1\n      revert\n    tag_24:\n      pop\n      tag_25\n      tag_26\n      jump\t// in\n    tag_25:\n      mload(0x40)\n      tag_27\n      swap2\n      swap1\n      tag_28\n      jump\t// in\n    tag_27:\n      mload(0x40)\n      dup1\n      swap2\n      sub\n      swap1\n      return\n        /* \"contracts/bnb.sol\":3701:3899  function approve(address _spender, uint256 _value) public ... */\n    tag_4:\n      callvalue\n      dup1\n      iszero\n      tag_29\n      jumpi\n      0x00\n      dup1\n      revert\n    tag_29:\n      pop\n      tag_30\n      0x04\n      dup1\n      calldatasize\n      sub\n      dup2\n      add\n      swap1\n      tag_31\n      swap2\n      swap1\n      tag_32\n      jump\t// in\n    tag_31:\n      tag_33\n      jump\t// in\n    tag_30:\n      mload(0x40)\n      tag_34\n      swap2\n      swap1\n      tag_35\n      jump\t// in\n    tag_34:\n      mload(0x40)\n      dup1\n      swap2\n      sub\n      swap1\n      return\n        /* \"contracts/bnb.sol\":996:1022  uint256 public totalSupply */\n    tag_5:\n      callvalue\n      dup1\n      iszero\n      tag_36\n      jumpi\n      0x00\n      dup1\n      revert\n    tag_36:\n      pop\n      tag_37\n      tag_38\n      jump\t// in\n    tag_37:\n      mload(0x40)\n      tag_39\n      swap2\n      swap1\n      tag_40\n      jump\t// in\n    tag_39:\n      mload(0x40)\n      dup1\n      swap2\n      sub\n      swap1\n      return\n        /* \"contracts/bnb.sol\":3960:5035  function transferFrom(address _from, address _to, uint256 _value) public returns (bool success) {... */\n    tag_6:\n      callvalue\n      dup1\n      iszero\n      tag_41\n      jumpi\n      0x00\n      dup1\n      revert\n    tag_41:\n      pop\n      tag_42\n      0x04\n      dup1\n      calldatasize\n      sub\n      dup2\n      add\n      swap1\n      tag_43\n      swap2\n      swap1\n      tag_44\n      jump\t// in\n    tag_43:\n      tag_45\n      jump\t// in\n    tag_42:\n      mload(0x40)\n      tag_46\n      swap2\n      swap1\n      tag_35\n      jump\t// in\n    tag_46:\n      mload(0x40)\n      dup1\n      swap2\n      sub\n      swap1\n      return\n        /* \"contracts/bnb.sol\":969:990  uint8 public decimals */\n    tag_7:\n      callvalue\n      dup1\n      iszero\n      tag_47\n      jumpi\n      0x00\n      dup1\n      revert\n    tag_47:\n      pop\n      tag_48\n      tag_49\n      jump\t// in\n    tag_48:\n      mload(0x40)\n      tag_50\n      swap2\n      swap1\n      tag_51\n      jump\t// in\n    tag_50:\n      mload(0x40)\n      dup1\n      swap2\n      sub\n      swap1\n      return\n        /* \"contracts/bnb.sol\":6924:7077  function withdrawEther(uint256 amount) public payable {... */\n    tag_8:\n      tag_52\n      0x04\n      dup1\n      calldatasize\n      sub\n      dup2\n      add\n      swap1\n      tag_53\n      swap2\n      swap1\n      tag_54\n      jump\t// in\n    tag_53:\n      tag_55\n      jump\t// in\n    tag_52:\n      stop\n        /* \"contracts/bnb.sol\":5041:5604  function burn(uint256 _value) public returns (bool success) {... */\n    tag_9:\n      callvalue\n      dup1\n      iszero\n      tag_56\n      jumpi\n      0x00\n      dup1\n      revert\n    tag_56:\n      pop\n      tag_57\n      0x04\n      dup1\n      calldatasize\n      sub\n      dup2\n      add\n      swap1\n      tag_58\n      swap2\n      swap1\n      tag_54\n      jump\t// in\n    tag_58:\n      tag_59\n      jump\t// in\n    tag_57:\n      mload(0x40)\n      tag_60\n      swap2\n      swap1\n      tag_35\n      jump\t// in\n    tag_60:\n      mload(0x40)\n      dup1\n      swap2\n      sub\n      swap1\n      return\n        /* \"contracts/bnb.sol\":6259:6855  function unfreeze(uint256 _value) public returns (bool success) {... */\n    tag_10:\n      callvalue\n      dup1\n      iszero\n      tag_61\n      jumpi\n      0x00\n      dup1\n      revert\n    tag_61:\n      pop\n      tag_62\n      0x04\n      dup1\n      calldatasize\n      sub\n      dup2\n      add\n      swap1\n      tag_63\n      swap2\n      swap1\n      tag_54\n      jump\t// in\n    tag_63:\n      tag_64\n      jump\t// in\n    tag_62:\n      mload(0x40)\n      tag_65\n      swap2\n      swap1\n      tag_35\n      jump\t// in\n    tag_65:\n      mload(0x40)\n      dup1\n      swap2\n      sub\n      swap1\n      return\n        /* \"contracts/bnb.sol\":1206:1251  mapping (address => uint256) public balanceOf */\n    tag_11:\n      callvalue\n      dup1\n      iszero\n      tag_66\n      jumpi\n      0x00\n      dup1\n      revert\n    tag_66:\n      pop\n      tag_67\n      0x04\n      dup1\n      calldatasize\n      sub\n      dup2\n      add\n      swap1\n      tag_68\n      swap2\n      swap1\n      tag_69\n      jump\t// in\n    tag_68:\n      tag_70\n      jump\t// in\n    tag_67:\n      mload(0x40)\n      tag_71\n      swap2\n      swap1\n      tag_40\n      jump\t// in\n    tag_71:\n      mload(0x40)\n      dup1\n      swap2\n      sub\n      swap1\n      return\n        /* \"contracts/bnb.sol\":7081:7177  function equalBalance() public view {... */\n    tag_12:\n      callvalue\n      dup1\n      iszero\n      tag_72\n      jumpi\n      0x00\n      dup1\n      revert\n    tag_72:\n      pop\n      tag_73\n      tag_74\n      jump\t// in\n    tag_73:\n      stop\n        /* \"contracts/bnb.sol\":1025:1045  address public owner */\n    tag_13:\n      callvalue\n      dup1\n      iszero\n      tag_75\n      jumpi\n      0x00\n      dup1\n      revert\n    tag_75:\n      pop\n      tag_76\n      tag_77\n      jump\t// in\n    tag_76:\n      mload(0x40)\n      tag_78\n      swap2\n      swap1\n      tag_79\n      jump\t// in\n    tag_78:\n      mload(0x40)\n      dup1\n      swap2\n      sub\n      swap1\n      return\n        /* \"contracts/bnb.sol\":943:963  string public symbol */\n    tag_14:\n      callvalue\n      dup1\n      iszero\n      tag_80\n      jumpi\n      0x00\n      dup1\n      revert\n    tag_80:\n      pop\n      tag_81\n      tag_82\n      jump\t// in\n    tag_81:\n      mload(0x40)\n      tag_83\n      swap2\n      swap1\n      tag_28\n      jump\t// in\n    tag_83:\n      mload(0x40)\n      dup1\n      swap2\n      sub\n      swap1\n      return\n        /* \"contracts/bnb.sol\":2717:3626  function transfer(address _to, uint256 _value) public {... */\n    tag_15:\n      callvalue\n      dup1\n      iszero\n      tag_84\n      jumpi\n      0x00\n      dup1\n      revert\n    tag_84:\n      pop\n      tag_85\n      0x04\n      dup1\n      calldatasize\n      sub\n      dup2\n      add\n      swap1\n      tag_86\n      swap2\n      swap1\n      tag_32\n      jump\t// in\n    tag_86:\n      tag_87\n      jump\t// in\n    tag_85:\n      stop\n        /* \"contracts/bnb.sol\":1254:1298  mapping (address => uint256) public freezeOf */\n    tag_16:\n      callvalue\n      dup1\n      iszero\n      tag_88\n      jumpi\n      0x00\n      dup1\n      revert\n    tag_88:\n      pop\n      tag_89\n      0x04\n      dup1\n      calldatasize\n      sub\n      dup2\n      add\n      swap1\n      tag_90\n      swap2\n      swap1\n      tag_69\n      jump\t// in\n    tag_90:\n      tag_91\n      jump\t// in\n    tag_89:\n      mload(0x40)\n      tag_92\n      swap2\n      swap1\n      tag_40\n      jump\t// in\n    tag_92:\n      mload(0x40)\n      dup1\n      swap2\n      sub\n      swap1\n      return\n        /* \"contracts/bnb.sol\":5608:6255  function freeze(uint256 _value) public returns (bool success) {... */\n    tag_17:\n      callvalue\n      dup1\n      iszero\n      tag_93\n      jumpi\n      0x00\n      dup1\n      revert\n    tag_93:\n      pop\n      tag_94\n      0x04\n      dup1\n      calldatasize\n      sub\n      dup2\n      add\n      swap1\n      tag_95\n      swap2\n      swap1\n      tag_54\n      jump\t// in\n    tag_95:\n      tag_96\n      jump\t// in\n    tag_94:\n      mload(0x40)\n      tag_97\n      swap2\n      swap1\n      tag_35\n      jump\t// in\n    tag_97:\n      mload(0x40)\n      dup1\n      swap2\n      sub\n      swap1\n      return\n        /* \"contracts/bnb.sol\":1304:1370  mapping (address => mapping (address => uint256)) public allowance */\n    tag_18:\n      callvalue\n      dup1\n      iszero\n      tag_98\n      jumpi\n      0x00\n      dup1\n      revert\n    tag_98:\n      pop\n      tag_99\n      0x04\n      dup1\n      calldatasize\n      sub\n      dup2\n      add\n      swap1\n      tag_100\n      swap2\n      swap1\n      tag_101\n      jump\t// in\n    tag_100:\n      tag_102\n      jump\t// in\n    tag_99:\n      mload(0x40)\n      tag_103\n      swap2\n      swap1\n      tag_40\n      jump\t// in\n    tag_103:\n      mload(0x40)\n      dup1\n      swap2\n      sub\n      swap1\n      return\n        /* \"contracts/bnb.sol\":919:937  string public name */\n    tag_26:\n      0x00\n      dup1\n      sload\n      tag_104\n      swap1\n      tag_105\n      jump\t// in\n    tag_104:\n      dup1\n      0x1f\n      add\n      0x20\n      dup1\n      swap2\n      div\n      mul\n      0x20\n      add\n      mload(0x40)\n      swap1\n      dup2\n      add\n      0x40\n      mstore\n      dup1\n      swap3\n      swap2\n      swap1\n      dup2\n      dup2\n      mstore\n      0x20\n      add\n      dup3\n      dup1\n      sload\n      tag_106\n      swap1\n      tag_105\n      jump\t// in\n    tag_106:\n      dup1\n      iszero\n      tag_107\n      jumpi\n      dup1\n      0x1f\n      lt\n      tag_108\n      jumpi\n      0x0100\n      dup1\n      dup4\n      sload\n      div\n      mul\n      dup4\n      mstore\n      swap2\n      0x20\n      add\n      swap2\n      jump(tag_107)\n    tag_108:\n      dup3\n      add\n      swap2\n      swap1\n      0x00\n      mstore\n      keccak256(0x00, 0x20)\n      swap1\n    tag_109:\n      dup2\n      sload\n      dup2\n      mstore\n      swap1\n      0x01\n      add\n      swap1\n      0x20\n      add\n      dup1\n      dup4\n      gt\n      tag_109\n      jumpi\n      dup3\n      swap1\n      sub\n      0x1f\n      and\n      dup3\n      add\n      swap2\n    tag_107:\n      pop\n      pop\n      pop\n      pop\n      pop\n      dup2\n      jump\t// out\n        /* \"contracts/bnb.sol\":3701:3899  function approve(address _spender, uint256 _value) public ... */\n    tag_33:\n        /* \"contracts/bnb.sol\":3777:3789  bool success */\n      0x00\n        /* \"contracts/bnb.sol\":3809:3810  0 */\n      dup1\n        /* \"contracts/bnb.sol\":3799:3805  _value */\n      dup3\n        /* \"contracts/bnb.sol\":3799:3810  _value <= 0 */\n      gt\n        /* \"contracts/bnb.sol\":3795:3820  if (_value <= 0) revert() */\n      tag_111\n      jumpi\n        /* \"contracts/bnb.sol\":3812:3820  revert() */\n      0x00\n      dup1\n      revert\n        /* \"contracts/bnb.sol\":3795:3820  if (_value <= 0) revert() */\n    tag_111:\n        /* \"contracts/bnb.sol\":3865:3871  _value */\n      dup2\n        /* \"contracts/bnb.sol\":3831:3840  allowance */\n      0x09\n        /* \"contracts/bnb.sol\":3831:3852  allowance[msg.sender] */\n      0x00\n        /* \"contracts/bnb.sol\":3841:3851  msg.sender */\n      caller\n        /* \"contracts/bnb.sol\":3831:3852  allowance[msg.sender] */\n      0xffffffffffffffffffffffffffffffffffffffff\n      and\n      0xffffffffffffffffffffffffffffffffffffffff\n      and\n      dup2\n      mstore\n      0x20\n      add\n      swap1\n      dup2\n      mstore\n      0x20\n      add\n      0x00\n      keccak256\n        /* \"contracts/bnb.sol\":3831:3862  allowance[msg.sender][_spender] */\n      0x00\n        /* \"contracts/bnb.sol\":3853:3861  _spender */\n      dup6\n        /* \"contracts/bnb.sol\":3831:3862  allowance[msg.sender][_spender] */\n      0xffffffffffffffffffffffffffffffffffffffff\n      and\n      0xffffffffffffffffffffffffffffffffffffffff\n      and\n      dup2\n      mstore\n      0x20\n      add\n      swap1\n      dup2\n      mstore\n      0x20\n      add\n      0x00\n      keccak256\n        /* \"contracts/bnb.sol\":3831:3871  allowance[msg.sender][_spender] = _value */\n      dup2\n      swap1\n      sstore\n      pop\n        /* \"contracts/bnb.sol\":3888:3892  true */\n      0x01\n        /* \"contracts/bnb.sol\":3881:3892  return true */\n      swap1\n      pop\n        /* \"contracts/bnb.sol\":3701:3899  function approve(address _spender, uint256 _value) public ... */\n      swap3\n      swap2\n      pop\n      pop\n      jump\t// out\n        /* \"contracts/bnb.sol\":996:1022  uint256 public totalSupply */\n    tag_38:\n      sload(0x03)\n      dup2\n      jump\t// out\n        /* \"contracts/bnb.sol\":3960:5035  function transferFrom(address _from, address _to, uint256 _value) public returns (bool success) {... */\n    tag_45:\n        /* \"contracts/bnb.sol\":4042:4054  bool success */\n      0x00\n        /* \"contracts/bnb.sol\":4085:4088  0x0 */\n      dup1\n        /* \"contracts/bnb.sol\":4070:4089  _to == address(0x0) */\n      0xffffffffffffffffffffffffffffffffffffffff\n      and\n        /* \"contracts/bnb.sol\":4070:4073  _to */\n      dup4\n        /* \"contracts/bnb.sol\":4070:4089  _to == address(0x0) */\n      0xffffffffffffffffffffffffffffffffffffffff\n      and\n      sub\n        /* \"contracts/bnb.sol\":4066:4099  if (_to == address(0x0)) revert() */\n      tag_113\n      jumpi\n        /* \"contracts/bnb.sol\":4091:4099  revert() */\n      0x00\n      dup1\n      revert\n        /* \"contracts/bnb.sol\":4066:4099  if (_to == address(0x0)) revert() */\n    tag_113:\n        /* \"contracts/bnb.sol\":4207:4208  0 */\n      0x00\n        /* \"contracts/bnb.sol\":4197:4203  _value */\n      dup3\n        /* \"contracts/bnb.sol\":4197:4208  _value <= 0 */\n      gt\n        /* \"contracts/bnb.sol\":4193:4218  if (_value <= 0) revert() */\n      tag_114\n      jumpi\n        /* \"contracts/bnb.sol\":4210:4218  revert() */\n      0x00\n      dup1\n      revert\n        /* \"contracts/bnb.sol\":4193:4218  if (_value <= 0) revert() */\n    tag_114:\n        /* \"contracts/bnb.sol\":4252:4258  _value */\n      dup2\n        /* \"contracts/bnb.sol\":4233:4242  balanceOf */\n      0x07\n        /* \"contracts/bnb.sol\":4233:4249  balanceOf[_from] */\n      0x00\n        /* \"contracts/bnb.sol\":4243:4248  _from */\n      dup7\n        /* \"contracts/bnb.sol\":4233:4249  balanceOf[_from] */\n      0xffffffffffffffffffffffffffffffffffffffff\n      and\n      0xffffffffffffffffffffffffffffffffffffffff\n      and\n      dup2\n      mstore\n      0x20\n      add\n      swap1\n      dup2\n      mstore\n      0x20\n      add\n      0x00\n      keccak256\n      sload\n        /* \"contracts/bnb.sol\":4233:4258  balanceOf[_from] < _value */\n      lt\n        /* \"contracts/bnb.sol\":4229:4268  if (balanceOf[_from] < _value) revert() */\n      iszero\n      tag_115\n      jumpi\n        /* \"contracts/bnb.sol\":4260:4268  revert() */\n      0x00\n      dup1\n      revert\n        /* \"contracts/bnb.sol\":4229:4268  if (balanceOf[_from] < _value) revert() */\n    tag_115:\n        /* \"contracts/bnb.sol\":4358:4367  balanceOf */\n      0x07\n        /* \"contracts/bnb.sol\":4358:4372  balanceOf[_to] */\n      0x00\n        /* \"contracts/bnb.sol\":4368:4371  _to */\n      dup5\n        /* \"contracts/bnb.sol\":4358:4372  balanceOf[_to] */\n      0xffffffffffffffffffffffffffffffffffffffff\n      and\n      0xffffffffffffffffffffffffffffffffffffffff\n      and\n      dup2\n      mstore\n      0x20\n      add\n      swap1\n      dup2\n      mstore\n      0x20\n      add\n      0x00\n      keccak256\n      sload\n        /* \"contracts/bnb.sol\":4349:4355  _value */\n      dup3\n        /* \"contracts/bnb.sol\":4332:4341  balanceOf */\n      0x07\n        /* \"contracts/bnb.sol\":4332:4346  balanceOf[_to] */\n      0x00\n        /* \"contracts/bnb.sol\":4342:4345  _to */\n      dup7\n        /* \"contracts/bnb.sol\":4332:4346  balanceOf[_to] */\n      0xffffffffffffffffffffffffffffffffffffffff\n      and\n      0xffffffffffffffffffffffffffffffffffffffff\n      and\n      dup2\n      mstore\n      0x20\n      add\n      swap1\n      dup2\n      mstore\n      0x20\n      add\n      0x00\n      keccak256\n      sload\n        /* \"contracts/bnb.sol\":4332:4355  balanceOf[_to] + _value */\n      tag_116\n      swap2\n      swap1\n      tag_117\n      jump\t// in\n    tag_116:\n        /* \"contracts/bnb.sol\":4332:4372  balanceOf[_to] + _value < balanceOf[_to] */\n      lt\n        /* \"contracts/bnb.sol\":4328:4382  if (balanceOf[_to] + _value < balanceOf[_to]) revert() */\n      iszero\n      tag_118\n      jumpi\n        /* \"contracts/bnb.sol\":4374:4382  revert() */\n      0x00\n      dup1\n      revert\n        /* \"contracts/bnb.sol\":4328:4382  if (balanceOf[_to] + _value < balanceOf[_to]) revert() */\n    tag_118:\n        /* \"contracts/bnb.sol\":4429:4438  allowance */\n      0x09\n        /* \"contracts/bnb.sol\":4429:4445  allowance[_from] */\n      0x00\n        /* \"contracts/bnb.sol\":4439:4444  _from */\n      dup6\n        /* \"contracts/bnb.sol\":4429:4445  allowance[_from] */\n      0xffffffffffffffffffffffffffffffffffffffff\n      and\n      0xffffffffffffffffffffffffffffffffffffffff\n      and\n      dup2\n      mstore\n      0x20\n      add\n      swap1\n      dup2\n      mstore\n      0x20\n      add\n      0x00\n      keccak256\n        /* \"contracts/bnb.sol\":4429:4457  allowance[_from][msg.sender] */\n      0x00\n        /* \"contracts/bnb.sol\":4446:4456  msg.sender */\n      caller\n        /* \"contracts/bnb.sol\":4429:4457  allowance[_from][msg.sender] */\n      0xffffffffffffffffffffffffffffffffffffffff\n      and\n      0xffffffffffffffffffffffffffffffffffffffff\n      and\n      dup2\n      mstore\n      0x20\n      add\n      swap1\n      dup2\n      mstore\n      0x20\n      add\n      0x00\n      keccak256\n      sload\n        /* \"contracts/bnb.sol\":4420:4426  _value */\n      dup3\n        /* \"contracts/bnb.sol\":4420:4457  _value > allowance[_from][msg.sender] */\n      gt\n        /* \"contracts/bnb.sol\":4416:4467  if (_value > allowance[_from][msg.sender]) revert() */\n      iszero\n      tag_119\n      jumpi\n        /* \"contracts/bnb.sol\":4459:4467  revert() */\n      0x00\n      dup1\n      revert\n        /* \"contracts/bnb.sol\":4416:4467  if (_value > allowance[_from][msg.sender]) revert() */\n    tag_119:\n        /* \"contracts/bnb.sol\":4519:4561  SafeMath.safeSub(balanceOf[_from], _value) */\n      tag_120\n        /* \"contracts/bnb.sol\":4536:4545  balanceOf */\n      0x07\n        /* \"contracts/bnb.sol\":4536:4552  balanceOf[_from] */\n      0x00\n        /* \"contracts/bnb.sol\":4546:4551  _from */\n      dup7\n        /* \"contracts/bnb.sol\":4536:4552  balanceOf[_from] */\n      0xffffffffffffffffffffffffffffffffffffffff\n      and\n      0xffffffffffffffffffffffffffffffffffffffff\n      and\n      dup2\n      mstore\n      0x20\n      add\n      swap1\n      dup2\n      mstore\n      0x20\n      add\n      0x00\n      keccak256\n      sload\n        /* \"contracts/bnb.sol\":4554:4560  _value */\n      dup4\n        /* \"contracts/bnb.sol\":4519:4535  SafeMath.safeSub */\n      tag_121\n        /* \"contracts/bnb.sol\":4519:4561  SafeMath.safeSub(balanceOf[_from], _value) */\n      jump\t// in\n    tag_120:\n        /* \"contracts/bnb.sol\":4500:4509  balanceOf */\n      0x07\n        /* \"contracts/bnb.sol\":4500:4516  balanceOf[_from] */\n      0x00\n        /* \"contracts/bnb.sol\":4510:4515  _from */\n      dup7\n        /* \"contracts/bnb.sol\":4500:4516  balanceOf[_from] */\n      0xffffffffffffffffffffffffffffffffffffffff\n      and\n      0xffffffffffffffffffffffffffffffffffffffff\n      and\n      dup2\n      mstore\n      0x20\n      add\n      swap1\n      dup2\n      mstore\n      0x20\n      add\n      0x00\n      keccak256\n        /* \"contracts/bnb.sol\":4500:4561  balanceOf[_from] = SafeMath.safeSub(balanceOf[_from], _value) */\n      dup2\n      swap1\n      sstore\n      pop\n        /* \"contracts/bnb.sol\":4640:4678  SafeMath.safeSub(totalBalance, _value) */\n      tag_122\n        /* \"contracts/bnb.sol\":4657:4669  totalBalance */\n      sload(0x05)\n        /* \"contracts/bnb.sol\":4671:4677  _value */\n      dup4\n        /* \"contracts/bnb.sol\":4640:4656  SafeMath.safeSub */\n      tag_121\n        /* \"contracts/bnb.sol\":4640:4678  SafeMath.safeSub(totalBalance, _value) */\n      jump\t// in\n    tag_122:\n        /* \"contracts/bnb.sol\":4625:4637  totalBalance */\n      0x05\n        /* \"contracts/bnb.sol\":4625:4678  totalBalance = SafeMath.safeSub(totalBalance, _value) */\n      dup2\n      swap1\n      sstore\n      pop\n        /* \"contracts/bnb.sol\":4705:4745  SafeMath.safeAdd(balanceOf[_to], _value) */\n      tag_123\n        /* \"contracts/bnb.sol\":4722:4731  balanceOf */\n      0x07\n        /* \"contracts/bnb.sol\":4722:4736  balanceOf[_to] */\n      0x00\n        /* \"contracts/bnb.sol\":4732:4735  _to */\n      dup6\n        /* \"contracts/bnb.sol\":4722:4736  balanceOf[_to] */\n      0xffffffffffffffffffffffffffffffffffffffff\n      and\n      0xffffffffffffffffffffffffffffffffffffffff\n      and\n      dup2\n      mstore\n      0x20\n      add\n      swap1\n      dup2\n      mstore\n      0x20\n      add\n      0x00\n      keccak256\n      sload\n        /* \"contracts/bnb.sol\":4738:4744  _value */\n      dup4\n        /* \"contracts/bnb.sol\":4705:4721  SafeMath.safeAdd */\n      tag_124\n        /* \"contracts/bnb.sol\":4705:4745  SafeMath.safeAdd(balanceOf[_to], _value) */\n      jump\t// in\n    tag_123:\n        /* \"contracts/bnb.sol\":4688:4697  balanceOf */\n      0x07\n        /* \"contracts/bnb.sol\":4688:4702  balanceOf[_to] */\n      0x00\n        /* \"contracts/bnb.sol\":4698:4701  _to */\n      dup6\n        /* \"contracts/bnb.sol\":4688:4702  balanceOf[_to] */\n      0xffffffffffffffffffffffffffffffffffffffff\n      and\n      0xffffffffffffffffffffffffffffffffffffffff\n      and\n      dup2\n      mstore\n      0x20\n      add\n      swap1\n      dup2\n      mstore\n      0x20\n      add\n      0x00\n      keccak256\n        /* \"contracts/bnb.sol\":4688:4745  balanceOf[_to] = SafeMath.safeAdd(balanceOf[_to], _value) */\n      dup2\n      swap1\n      sstore\n      pop\n        /* \"contracts/bnb.sol\":4831:4869  SafeMath.safeAdd(totalBalance, _value) */\n      tag_125\n        /* \"contracts/bnb.sol\":4848:4860  totalBalance */\n      sload(0x05)\n        /* \"contracts/bnb.sol\":4862:4868  _value */\n      dup4\n        /* \"contracts/bnb.sol\":4831:4847  SafeMath.safeAdd */\n      tag_124\n        /* \"contracts/bnb.sol\":4831:4869  SafeMath.safeAdd(totalBalance, _value) */\n      jump\t// in\n    tag_125:\n        /* \"contracts/bnb.sol\":4816:4828  totalBalance */\n      0x05\n        /* \"contracts/bnb.sol\":4816:4869  totalBalance = SafeMath.safeAdd(totalBalance, _value) */\n      dup2\n      swap1\n      sstore\n      pop\n        /* \"contracts/bnb.sol\":4910:4964  SafeMath.safeSub(allowance[_from][msg.sender], _value) */\n      tag_126\n        /* \"contracts/bnb.sol\":4927:4936  allowance */\n      0x09\n        /* \"contracts/bnb.sol\":4927:4943  allowance[_from] */\n      0x00\n        /* \"contracts/bnb.sol\":4937:4942  _from */\n      dup7\n        /* \"contracts/bnb.sol\":4927:4943  allowance[_from] */\n      0xffffffffffffffffffffffffffffffffffffffff\n      and\n      0xffffffffffffffffffffffffffffffffffffffff\n      and\n      dup2\n      mstore\n      0x20\n      add\n      swap1\n      dup2\n      mstore\n      0x20\n      add\n      0x00\n      keccak256\n        /* \"contracts/bnb.sol\":4927:4955  allowance[_from][msg.sender] */\n      0x00\n        /* \"contracts/bnb.sol\":4944:4954  msg.sender */\n      caller\n        /* \"contracts/bnb.sol\":4927:4955  allowance[_from][msg.sender] */\n      0xffffffffffffffffffffffffffffffffffffffff\n      and\n      0xffffffffffffffffffffffffffffffffffffffff\n      and\n      dup2\n      mstore\n      0x20\n      add\n      swap1\n      dup2\n      mstore\n      0x20\n      add\n      0x00\n      keccak256\n      sload\n        /* \"contracts/bnb.sol\":4957:4963  _value */\n      dup4\n        /* \"contracts/bnb.sol\":4910:4926  SafeMath.safeSub */\n      tag_121\n        /* \"contracts/bnb.sol\":4910:4964  SafeMath.safeSub(allowance[_from][msg.sender], _value) */\n      jump\t// in\n    tag_126:\n        /* \"contracts/bnb.sol\":4879:4888  allowance */\n      0x09\n        /* \"contracts/bnb.sol\":4879:4895  allowance[_from] */\n      0x00\n        /* \"contracts/bnb.sol\":4889:4894  _from */\n      dup7\n        /* \"contracts/bnb.sol\":4879:4895  allowance[_from] */\n      0xffffffffffffffffffffffffffffffffffffffff\n      and\n      0xffffffffffffffffffffffffffffffffffffffff\n      and\n      dup2\n      mstore\n      0x20\n      add\n      swap1\n      dup2\n      mstore\n      0x20\n      add\n      0x00\n      keccak256\n        /* \"contracts/bnb.sol\":4879:4907  allowance[_from][msg.sender] */\n      0x00\n        /* \"contracts/bnb.sol\":4896:4906  msg.sender */\n      caller\n        /* \"contracts/bnb.sol\":4879:4907  allowance[_from][msg.sender] */\n      0xffffffffffffffffffffffffffffffffffffffff\n      and\n      0xffffffffffffffffffffffffffffffffffffffff\n      and\n      dup2\n      mstore\n      0x20\n      add\n      swap1\n      dup2\n      mstore\n      0x20\n      add\n      0x00\n      keccak256\n        /* \"contracts/bnb.sol\":4879:4964  allowance[_from][msg.sender] = SafeMath.safeSub(allowance[_from][msg.sender], _value) */\n      dup2\n      swap1\n      sstore\n      pop\n        /* \"contracts/bnb.sol\":4995:4998  _to */\n      dup3\n        /* \"contracts/bnb.sol\":4979:5007  Transfer(_from, _to, _value) */\n      0xffffffffffffffffffffffffffffffffffffffff\n      and\n        /* \"contracts/bnb.sol\":4988:4993  _from */\n      dup5\n        /* \"contracts/bnb.sol\":4979:5007  Transfer(_from, _to, _value) */\n      0xffffffffffffffffffffffffffffffffffffffff\n      and\n      0xddf252ad1be2c89b69c2b068fc378daa952ba7f163c4a11628f55a4df523b3ef\n        /* \"contracts/bnb.sol\":5000:5006  _value */\n      dup5\n        /* \"contracts/bnb.sol\":4979:5007  Transfer(_from, _to, _value) */\n      mload(0x40)\n      tag_127\n      swap2\n      swap1\n      tag_40\n      jump\t// in\n    tag_127:\n      mload(0x40)\n      dup1\n      swap2\n      sub\n      swap1\n      log3\n        /* \"contracts/bnb.sol\":5024:5028  true */\n      0x01\n        /* \"contracts/bnb.sol\":5017:5028  return true */\n      swap1\n      pop\n        /* \"contracts/bnb.sol\":3960:5035  function transferFrom(address _from, address _to, uint256 _value) public returns (bool success) {... */\n      swap4\n      swap3\n      pop\n      pop\n      pop\n      jump\t// out\n        /* \"contracts/bnb.sol\":969:990  uint8 public decimals */\n    tag_49:\n      0x02\n      0x00\n      swap1\n      sload\n      swap1\n      0x0100\n      exp\n      swap1\n      div\n      0xff\n      and\n      dup2\n      jump\t// out\n        /* \"contracts/bnb.sol\":6924:7077  function withdrawEther(uint256 amount) public payable {... */\n    tag_55:\n        /* \"contracts/bnb.sol\":6999:7004  owner */\n      0x04\n      0x00\n      swap1\n      sload\n      swap1\n      0x0100\n      exp\n      swap1\n      div\n      0xffffffffffffffffffffffffffffffffffffffff\n      and\n        /* \"contracts/bnb.sol\":6985:7004  msg.sender != owner */\n      0xffffffffffffffffffffffffffffffffffffffff\n      and\n        /* \"contracts/bnb.sol\":6985:6995  msg.sender */\n      caller\n        /* \"contracts/bnb.sol\":6985:7004  msg.sender != owner */\n      0xffffffffffffffffffffffffffffffffffffffff\n      and\n      eq\n        /* \"contracts/bnb.sol\":6982:7039  if(msg.sender != owner) {... */\n      tag_129\n      jumpi\n        /* \"contracts/bnb.sol\":7020:7028  revert() */\n      0x00\n      dup1\n      revert\n        /* \"contracts/bnb.sol\":6982:7039  if(msg.sender != owner) {... */\n    tag_129:\n        /* \"contracts/bnb.sol\":7050:7055  owner */\n      0x04\n      0x00\n      swap1\n      sload\n      swap1\n      0x0100\n      exp\n      swap1\n      div\n      0xffffffffffffffffffffffffffffffffffffffff\n      and\n        /* \"contracts/bnb.sol\":7042:7065  payable(owner).transfer */\n      0xffffffffffffffffffffffffffffffffffffffff\n      and\n        /* \"contracts/bnb.sol\":7042:7073  payable(owner).transfer(amount) */\n      0x08fc\n        /* \"contracts/bnb.sol\":7066:7072  amount */\n      dup3\n        /* \"contracts/bnb.sol\":7042:7073  payable(owner).transfer(amount) */\n      swap1\n      dup2\n      iszero\n      mul\n      swap1\n      mload(0x40)\n      0x00\n      mload(0x40)\n      dup1\n      dup4\n      sub\n      dup2\n      dup6\n      dup9\n      dup9\n      call\n      swap4\n      pop\n      pop\n      pop\n      pop\n      iszero\n      dup1\n      iszero\n      tag_131\n      jumpi\n      returndatasize\n      0x00\n      dup1\n      returndatacopy\n      revert(0x00, returndatasize)\n    tag_131:\n      pop\n        /* \"contracts/bnb.sol\":6924:7077  function withdrawEther(uint256 amount) public payable {... */\n      pop\n      jump\t// out\n        /* \"contracts/bnb.sol\":5041:5604  function burn(uint256 _value) public returns (bool success) {... */\n    tag_59:\n        /* \"contracts/bnb.sol\":5087:5099  bool success */\n      0x00\n        /* \"contracts/bnb.sol\":5139:5145  _value */\n      dup2\n        /* \"contracts/bnb.sol\":5115:5124  balanceOf */\n      0x07\n        /* \"contracts/bnb.sol\":5115:5136  balanceOf[msg.sender] */\n      0x00\n        /* \"contracts/bnb.sol\":5125:5135  msg.sender */\n      caller\n        /* \"contracts/bnb.sol\":5115:5136  balanceOf[msg.sender] */\n      0xffffffffffffffffffffffffffffffffffffffff\n      and\n      0xffffffffffffffffffffffffffffffffffffffff\n      and\n      dup2\n      mstore\n      0x20\n      add\n      swap1\n      dup2\n      mstore\n      0x20\n      add\n      0x00\n      keccak256\n      sload\n        /* \"contracts/bnb.sol\":5115:5145  balanceOf[msg.sender] < _value */\n      lt\n        /* \"contracts/bnb.sol\":5111:5155  if (balanceOf[msg.sender] < _value) revert() */\n      iszero\n      tag_133\n      jumpi\n        /* \"contracts/bnb.sol\":5147:5155  revert() */\n      0x00\n      dup1\n      revert\n        /* \"contracts/bnb.sol\":5111:5155  if (balanceOf[msg.sender] < _value) revert() */\n    tag_133:\n        /* \"contracts/bnb.sol\":5218:5219  0 */\n      0x00\n        /* \"contracts/bnb.sol\":5208:5214  _value */\n      dup3\n        /* \"contracts/bnb.sol\":5208:5219  _value <= 0 */\n      gt\n        /* \"contracts/bnb.sol\":5204:5229  if (_value <= 0) revert() */\n      tag_134\n      jumpi\n        /* \"contracts/bnb.sol\":5221:5229  revert() */\n      0x00\n      dup1\n      revert\n        /* \"contracts/bnb.sol\":5204:5229  if (_value <= 0) revert() */\n    tag_134:\n        /* \"contracts/bnb.sol\":5264:5311  SafeMath.safeSub(balanceOf[msg.sender], _value) */\n      tag_135\n        /* \"contracts/bnb.sol\":5281:5290  balanceOf */\n      0x07\n        /* \"contracts/bnb.sol\":5281:5302  balanceOf[msg.sender] */\n      0x00\n        /* \"contracts/bnb.sol\":5291:5301  msg.sender */\n      caller\n        /* \"contracts/bnb.sol\":5281:5302  balanceOf[msg.sender] */\n      0xffffffffffffffffffffffffffffffffffffffff\n      and\n      0xffffffffffffffffffffffffffffffffffffffff\n      and\n      dup2\n      mstore\n      0x20\n      add\n      swap1\n      dup2\n      mstore\n      0x20\n      add\n      0x00\n      keccak256\n      sload\n        /* \"contracts/bnb.sol\":5304:5310  _value */\n      dup4\n        /* \"contracts/bnb.sol\":5264:5280  SafeMath.safeSub */\n      tag_121\n        /* \"contracts/bnb.sol\":5264:5311  SafeMath.safeSub(balanceOf[msg.sender], _value) */\n      jump\t// in\n    tag_135:\n        /* \"contracts/bnb.sol\":5240:5249  balanceOf */\n      0x07\n        /* \"contracts/bnb.sol\":5240:5261  balanceOf[msg.sender] */\n      0x00\n        /* \"contracts/bnb.sol\":5250:5260  msg.sender */\n      caller\n        /* \"contracts/bnb.sol\":5240:5261  balanceOf[msg.sender] */\n      0xffffffffffffffffffffffffffffffffffffffff\n      and\n      0xffffffffffffffffffffffffffffffffffffffff\n      and\n      dup2\n      mstore\n      0x20\n      add\n      swap1\n      dup2\n      mstore\n      0x20\n      add\n      0x00\n      keccak256\n        /* \"contracts/bnb.sol\":5240:5311  balanceOf[msg.sender] = SafeMath.safeSub(balanceOf[msg.sender], _value) */\n      dup2\n      swap1\n      sstore\n      pop\n        /* \"contracts/bnb.sol\":5385:5423  SafeMath.safeSub(totalBalance, _value) */\n      tag_136\n        /* \"contracts/bnb.sol\":5402:5414  totalBalance */\n      sload(0x05)\n        /* \"contracts/bnb.sol\":5416:5422  _value */\n      dup4\n        /* \"contracts/bnb.sol\":5385:5401  SafeMath.safeSub */\n      tag_121\n        /* \"contracts/bnb.sol\":5385:5423  SafeMath.safeSub(totalBalance, _value) */\n      jump\t// in\n    tag_136:\n        /* \"contracts/bnb.sol\":5370:5382  totalBalance */\n      0x05\n        /* \"contracts/bnb.sol\":5370:5423  totalBalance = SafeMath.safeSub(totalBalance, _value) */\n      dup2\n      swap1\n      sstore\n      pop\n        /* \"contracts/bnb.sol\":5447:5483  SafeMath.safeSub(totalSupply,_value) */\n      tag_137\n        /* \"contracts/bnb.sol\":5464:5475  totalSupply */\n      sload(0x03)\n        /* \"contracts/bnb.sol\":5476:5482  _value */\n      dup4\n        /* \"contracts/bnb.sol\":5447:5463  SafeMath.safeSub */\n      tag_121\n        /* \"contracts/bnb.sol\":5447:5483  SafeMath.safeSub(totalSupply,_value) */\n      jump\t// in\n    tag_137:\n        /* \"contracts/bnb.sol\":5433:5444  totalSupply */\n      0x03\n        /* \"contracts/bnb.sol\":5433:5483  totalSupply = SafeMath.safeSub(totalSupply,_value) */\n      dup2\n      swap1\n      sstore\n      pop\n        /* \"contracts/bnb.sol\":5557:5567  msg.sender */\n      caller\n        /* \"contracts/bnb.sol\":5552:5576  Burn(msg.sender, _value) */\n      0xffffffffffffffffffffffffffffffffffffffff\n      and\n      0xcc16f5dbb4873280815c1ee09dbd06736cffcc184412cf7a71a0fdb75d397ca5\n        /* \"contracts/bnb.sol\":5569:5575  _value */\n      dup4\n        /* \"contracts/bnb.sol\":5552:5576  Burn(msg.sender, _value) */\n      mload(0x40)\n      tag_138\n      swap2\n      swap1\n      tag_40\n      jump\t// in\n    tag_138:\n      mload(0x40)\n      dup1\n      swap2\n      sub\n      swap1\n      log2\n        /* \"contracts/bnb.sol\":5593:5597  true */\n      0x01\n        /* \"contracts/bnb.sol\":5586:5597  return true */\n      swap1\n      pop\n        /* \"contracts/bnb.sol\":5041:5604  function burn(uint256 _value) public returns (bool success) {... */\n      swap2\n      swap1\n      pop\n      jump\t// out\n        /* \"contracts/bnb.sol\":6259:6855  function unfreeze(uint256 _value) public returns (bool success) {... */\n    tag_64:\n        /* \"contracts/bnb.sol\":6309:6321  bool success */\n      0x00\n        /* \"contracts/bnb.sol\":6360:6366  _value */\n      dup2\n        /* \"contracts/bnb.sol\":6337:6345  freezeOf */\n      0x08\n        /* \"contracts/bnb.sol\":6337:6357  freezeOf[msg.sender] */\n      0x00\n        /* \"contracts/bnb.sol\":6346:6356  msg.sender */\n      caller\n        /* \"contracts/bnb.sol\":6337:6357  freezeOf[msg.sender] */\n      0xffffffffffffffffffffffffffffffffffffffff\n      and\n      0xffffffffffffffffffffffffffffffffffffffff\n      and\n      dup2\n      mstore\n      0x20\n      add\n      swap1\n      dup2\n      mstore\n      0x20\n      add\n      0x00\n      keccak256\n      sload\n        /* \"contracts/bnb.sol\":6337:6366  freezeOf[msg.sender] < _value */\n      lt\n        /* \"contracts/bnb.sol\":6333:6376  if (freezeOf[msg.sender] < _value) revert() */\n      iszero\n      tag_140\n      jumpi\n        /* \"contracts/bnb.sol\":6368:6376  revert() */\n      0x00\n      dup1\n      revert\n        /* \"contracts/bnb.sol\":6333:6376  if (freezeOf[msg.sender] < _value) revert() */\n    tag_140:\n        /* \"contracts/bnb.sol\":6439:6440  0 */\n      0x00\n        /* \"contracts/bnb.sol\":6429:6435  _value */\n      dup3\n        /* \"contracts/bnb.sol\":6429:6440  _value <= 0 */\n      gt\n        /* \"contracts/bnb.sol\":6425:6450  if (_value <= 0) revert() */\n      tag_141\n      jumpi\n        /* \"contracts/bnb.sol\":6442:6450  revert() */\n      0x00\n      dup1\n      revert\n        /* \"contracts/bnb.sol\":6425:6450  if (_value <= 0) revert() */\n    tag_141:\n        /* \"contracts/bnb.sol\":6484:6530  SafeMath.safeSub(freezeOf[msg.sender], _value) */\n      tag_142\n        /* \"contracts/bnb.sol\":6501:6509  freezeOf */\n      0x08\n        /* \"contracts/bnb.sol\":6501:6521  freezeOf[msg.sender] */\n      0x00\n        /* \"contracts/bnb.sol\":6510:6520  msg.sender */\n      caller\n        /* \"contracts/bnb.sol\":6501:6521  freezeOf[msg.sender] */\n      0xffffffffffffffffffffffffffffffffffffffff\n      and\n      0xffffffffffffffffffffffffffffffffffffffff\n      and\n      dup2\n      mstore\n      0x20\n      add\n      swap1\n      dup2\n      mstore\n      0x20\n      add\n      0x00\n      keccak256\n      sload\n        /* \"contracts/bnb.sol\":6523:6529  _value */\n      dup4\n        /* \"contracts/bnb.sol\":6484:6500  SafeMath.safeSub */\n      tag_121\n        /* \"contracts/bnb.sol\":6484:6530  SafeMath.safeSub(freezeOf[msg.sender], _value) */\n      jump\t// in\n    tag_142:\n        /* \"contracts/bnb.sol\":6461:6469  freezeOf */\n      0x08\n        /* \"contracts/bnb.sol\":6461:6481  freezeOf[msg.sender] */\n      0x00\n        /* \"contracts/bnb.sol\":6470:6480  msg.sender */\n      caller\n        /* \"contracts/bnb.sol\":6461:6481  freezeOf[msg.sender] */\n      0xffffffffffffffffffffffffffffffffffffffff\n      and\n      0xffffffffffffffffffffffffffffffffffffffff\n      and\n      dup2\n      mstore\n      0x20\n      add\n      swap1\n      dup2\n      mstore\n      0x20\n      add\n      0x00\n      keccak256\n        /* \"contracts/bnb.sol\":6461:6530  freezeOf[msg.sender] = SafeMath.safeSub(freezeOf[msg.sender], _value) */\n      dup2\n      swap1\n      sstore\n      pop\n        /* \"contracts/bnb.sol\":6603:6640  SafeMath.safeSub(freezeTotal, _value) */\n      tag_143\n        /* \"contracts/bnb.sol\":6620:6631  freezeTotal */\n      sload(0x06)\n        /* \"contracts/bnb.sol\":6633:6639  _value */\n      dup4\n        /* \"contracts/bnb.sol\":6603:6619  SafeMath.safeSub */\n      tag_121\n        /* \"contracts/bnb.sol\":6603:6640  SafeMath.safeSub(freezeTotal, _value) */\n      jump\t// in\n    tag_143:\n        /* \"contracts/bnb.sol\":6589:6600  freezeTotal */\n      0x06\n        /* \"contracts/bnb.sol\":6589:6640  freezeTotal = SafeMath.safeSub(freezeTotal, _value) */\n      dup2\n      swap1\n      sstore\n      pop\n        /* \"contracts/bnb.sol\":6674:6721  SafeMath.safeAdd(balanceOf[msg.sender], _value) */\n      tag_144\n        /* \"contracts/bnb.sol\":6691:6700  balanceOf */\n      0x07\n        /* \"contracts/bnb.sol\":6691:6712  balanceOf[msg.sender] */\n      0x00\n        /* \"contracts/bnb.sol\":6701:6711  msg.sender */\n      caller\n        /* \"contracts/bnb.sol\":6691:6712  balanceOf[msg.sender] */\n      0xffffffffffffffffffffffffffffffffffffffff\n      and\n      0xffffffffffffffffffffffffffffffffffffffff\n      and\n      dup2\n      mstore\n      0x20\n      add\n      swap1\n      dup2\n      mstore\n      0x20\n      add\n      0x00\n      keccak256\n      sload\n        /* \"contracts/bnb.sol\":6714:6720  _value */\n      dup4\n        /* \"contracts/bnb.sol\":6674:6690  SafeMath.safeAdd */\n      tag_124\n        /* \"contracts/bnb.sol\":6674:6721  SafeMath.safeAdd(balanceOf[msg.sender], _value) */\n      jump\t// in\n    tag_144:\n        /* \"contracts/bnb.sol\":6650:6659  balanceOf */\n      0x07\n        /* \"contracts/bnb.sol\":6650:6671  balanceOf[msg.sender] */\n      0x00\n        /* \"contracts/bnb.sol\":6660:6670  msg.sender */\n      caller\n        /* \"contracts/bnb.sol\":6650:6671  balanceOf[msg.sender] */\n      0xffffffffffffffffffffffffffffffffffffffff\n      and\n      0xffffffffffffffffffffffffffffffffffffffff\n      and\n      dup2\n      mstore\n      0x20\n      add\n      swap1\n      dup2\n      mstore\n      0x20\n      add\n      0x00\n      keccak256\n        /* \"contracts/bnb.sol\":6650:6721  balanceOf[msg.sender] = SafeMath.safeAdd(balanceOf[msg.sender], _value) */\n      dup2\n      swap1\n      sstore\n      pop\n        /* \"contracts/bnb.sol\":6746:6784  SafeMath.safeAdd(totalBalance, _value) */\n      tag_145\n        /* \"contracts/bnb.sol\":6763:6775  totalBalance */\n      sload(0x05)\n        /* \"contracts/bnb.sol\":6777:6783  _value */\n      dup4\n        /* \"contracts/bnb.sol\":6746:6762  SafeMath.safeAdd */\n      tag_124\n        /* \"contracts/bnb.sol\":6746:6784  SafeMath.safeAdd(totalBalance, _value) */\n      jump\t// in\n    tag_145:\n        /* \"contracts/bnb.sol\":6731:6743  totalBalance */\n      0x05\n        /* \"contracts/bnb.sol\":6731:6784  totalBalance = SafeMath.safeAdd(totalBalance, _value) */\n      dup2\n      swap1\n      sstore\n      pop\n        /* \"contracts/bnb.sol\":6808:6818  msg.sender */\n      caller\n        /* \"contracts/bnb.sol\":6799:6827  Unfreeze(msg.sender, _value) */\n      0xffffffffffffffffffffffffffffffffffffffff\n      and\n      0x2cfce4af01bcb9d6cf6c84ee1b7c491100b8695368264146a94d71e10a63083f\n        /* \"contracts/bnb.sol\":6820:6826  _value */\n      dup4\n        /* \"contracts/bnb.sol\":6799:6827  Unfreeze(msg.sender, _value) */\n      mload(0x40)\n      tag_146\n      swap2\n      swap1\n      tag_40\n      jump\t// in\n    tag_146:\n      mload(0x40)\n      dup1\n      swap2\n      sub\n      swap1\n      log2\n        /* \"contracts/bnb.sol\":6844:6848  true */\n      0x01\n        /* \"contracts/bnb.sol\":6837:6848  return true */\n      swap1\n      pop\n        /* \"contracts/bnb.sol\":6259:6855  function unfreeze(uint256 _value) public returns (bool success) {... */\n      swap2\n      swap1\n      pop\n      jump\t// out\n        /* \"contracts/bnb.sol\":1206:1251  mapping (address => uint256) public balanceOf */\n    tag_70:\n      mstore(0x20, 0x07)\n      dup1\n      0x00\n      mstore\n      keccak256(0x00, 0x40)\n      0x00\n      swap2\n      pop\n      swap1\n      pop\n      sload\n      dup2\n      jump\t// out\n        /* \"contracts/bnb.sol\":7081:7177  function equalBalance() public view {... */\n    tag_74:\n        /* \"contracts/bnb.sol\":7160:7171  totalSupply */\n      sload(0x03)\n        /* \"contracts/bnb.sol\":7145:7156  freezeTotal */\n      sload(0x06)\n        /* \"contracts/bnb.sol\":7130:7142  totalBalance */\n      sload(0x05)\n        /* \"contracts/bnb.sol\":7130:7156  totalBalance + freezeTotal */\n      tag_148\n      swap2\n      swap1\n      tag_117\n      jump\t// in\n    tag_148:\n        /* \"contracts/bnb.sol\":7130:7171  totalBalance + freezeTotal == totalSupply */\n      eq\n        /* \"contracts/bnb.sol\":7123:7172  assert(totalBalance + freezeTotal == totalSupply) */\n      tag_149\n      jumpi\n      tag_150\n      tag_151\n      jump\t// in\n    tag_150:\n    tag_149:\n        /* \"contracts/bnb.sol\":7081:7177  function equalBalance() public view {... */\n      jump\t// out\n        /* \"contracts/bnb.sol\":1025:1045  address public owner */\n    tag_77:\n      0x04\n      0x00\n      swap1\n      sload\n      swap1\n      0x0100\n      exp\n      swap1\n      div\n      0xffffffffffffffffffffffffffffffffffffffff\n      and\n      dup2\n      jump\t// out\n        /* \"contracts/bnb.sol\":943:963  string public symbol */\n    tag_82:\n      0x01\n      dup1\n      sload\n      tag_152\n      swap1\n      tag_105\n      jump\t// in\n    tag_152:\n      dup1\n      0x1f\n      add\n      0x20\n      dup1\n      swap2\n      div\n      mul\n      0x20\n      add\n      mload(0x40)\n      swap1\n      dup2\n      add\n      0x40\n      mstore\n      dup1\n      swap3\n      swap2\n      swap1\n      dup2\n      dup2\n      mstore\n      0x20\n      add\n      dup3\n      dup1\n      sload\n      tag_153\n      swap1\n      tag_105\n      jump\t// in\n    tag_153:\n      dup1\n      iszero\n      tag_154\n      jumpi\n      dup1\n      0x1f\n      lt\n      tag_155\n      jumpi\n      0x0100\n      dup1\n      dup4\n      sload\n      div\n      mul\n      dup4\n      mstore\n      swap2\n      0x20\n      add\n      swap2\n      jump(tag_154)\n    tag_155:\n      dup3\n      add\n      swap2\n      swap1\n      0x00\n      mstore\n      keccak256(0x00, 0x20)\n      swap1\n    tag_156:\n      dup2\n      sload\n      dup2\n      mstore\n      swap1\n      0x01\n      add\n      swap1\n      0x20\n      add\n      dup1\n      dup4\n      gt\n      tag_156\n      jumpi\n      dup3\n      swap1\n      sub\n      0x1f\n      and\n      dup3\n      add\n      swap2\n    tag_154:\n      pop\n      pop\n      pop\n      pop\n      pop\n      dup2\n      jump\t// out\n        /* \"contracts/bnb.sol\":2717:3626  function transfer(address _to, uint256 _value) public {... */\n    tag_87:\n        /* \"contracts/bnb.sol\":2800:2803  0x0 */\n      0x00\n        /* \"contracts/bnb.sol\":2785:2804  _to == address(0x0) */\n      0xffffffffffffffffffffffffffffffffffffffff\n      and\n        /* \"contracts/bnb.sol\":2785:2788  _to */\n      dup3\n        /* \"contracts/bnb.sol\":2785:2804  _to == address(0x0) */\n      0xffffffffffffffffffffffffffffffffffffffff\n      and\n      sub\n        /* \"contracts/bnb.sol\":2781:2814  if (_to == address(0x0)) revert() */\n      tag_158\n      jumpi\n        /* \"contracts/bnb.sol\":2806:2814  revert() */\n      0x00\n      dup1\n      revert\n        /* \"contracts/bnb.sol\":2781:2814  if (_to == address(0x0)) revert() */\n    tag_158:\n        /* \"contracts/bnb.sol\":2917:2918  0 */\n      0x00\n        /* \"contracts/bnb.sol\":2907:2913  _value */\n      dup2\n        /* \"contracts/bnb.sol\":2907:2918  _value <= 0 */\n      gt\n        /* \"contracts/bnb.sol\":2903:2928  if (_value <= 0) revert() */\n      tag_159\n      jumpi\n        /* \"contracts/bnb.sol\":2920:2928  revert() */\n      0x00\n      dup1\n      revert\n        /* \"contracts/bnb.sol\":2903:2928  if (_value <= 0) revert() */\n    tag_159:\n        /* \"contracts/bnb.sol\":2967:2973  _value */\n      dup1\n        /* \"contracts/bnb.sol\":2943:2952  balanceOf */\n      0x07\n        /* \"contracts/bnb.sol\":2943:2964  balanceOf[msg.sender] */\n      0x00\n        /* \"contracts/bnb.sol\":2953:2963  msg.sender */\n      caller\n        /* \"contracts/bnb.sol\":2943:2964  balanceOf[msg.sender] */\n      0xffffffffffffffffffffffffffffffffffffffff\n      and\n      0xffffffffffffffffffffffffffffffffffffffff\n      and\n      dup2\n      mstore\n      0x20\n      add\n      swap1\n      dup2\n      mstore\n      0x20\n      add\n      0x00\n      keccak256\n      sload\n        /* \"contracts/bnb.sol\":2943:2973  balanceOf[msg.sender] < _value */\n      lt\n        /* \"contracts/bnb.sol\":2939:2983  if (balanceOf[msg.sender] < _value) revert() */\n      iszero\n      tag_160\n      jumpi\n        /* \"contracts/bnb.sol\":2975:2983  revert() */\n      0x00\n      dup1\n      revert\n        /* \"contracts/bnb.sol\":2939:2983  if (balanceOf[msg.sender] < _value) revert() */\n    tag_160:\n        /* \"contracts/bnb.sol\":3067:3076  balanceOf */\n      0x07\n        /* \"contracts/bnb.sol\":3067:3081  balanceOf[_to] */\n      0x00\n        /* \"contracts/bnb.sol\":3077:3080  _to */\n      dup4\n        /* \"contracts/bnb.sol\":3067:3081  balanceOf[_to] */\n      0xffffffffffffffffffffffffffffffffffffffff\n      and\n      0xffffffffffffffffffffffffffffffffffffffff\n      and\n      dup2\n      mstore\n      0x20\n      add\n      swap1\n      dup2\n      mstore\n      0x20\n      add\n      0x00\n      keccak256\n      sload\n        /* \"contracts/bnb.sol\":3058:3064  _value */\n      dup2\n        /* \"contracts/bnb.sol\":3041:3050  balanceOf */\n      0x07\n        /* \"contracts/bnb.sol\":3041:3055  balanceOf[_to] */\n      0x00\n        /* \"contracts/bnb.sol\":3051:3054  _to */\n      dup6\n        /* \"contracts/bnb.sol\":3041:3055  balanceOf[_to] */\n      0xffffffffffffffffffffffffffffffffffffffff\n      and\n      0xffffffffffffffffffffffffffffffffffffffff\n      and\n      dup2\n      mstore\n      0x20\n      add\n      swap1\n      dup2\n      mstore\n      0x20\n      add\n      0x00\n      keccak256\n      sload\n        /* \"contracts/bnb.sol\":3041:3064  balanceOf[_to] + _value */\n      tag_161\n      swap2\n      swap1\n      tag_117\n      jump\t// in\n    tag_161:\n        /* \"contracts/bnb.sol\":3041:3081  balanceOf[_to] + _value < balanceOf[_to] */\n      lt\n        /* \"contracts/bnb.sol\":3037:3091  if (balanceOf[_to] + _value < balanceOf[_to]) revert() */\n      iszero\n      tag_162\n      jumpi\n        /* \"contracts/bnb.sol\":3083:3091  revert() */\n      0x00\n      dup1\n      revert\n        /* \"contracts/bnb.sol\":3037:3091  if (balanceOf[_to] + _value < balanceOf[_to]) revert() */\n    tag_162:\n        /* \"contracts/bnb.sol\":3148:3195  SafeMath.safeSub(balanceOf[msg.sender], _value) */\n      tag_163\n        /* \"contracts/bnb.sol\":3165:3174  balanceOf */\n      0x07\n        /* \"contracts/bnb.sol\":3165:3186  balanceOf[msg.sender] */\n      0x00\n        /* \"contracts/bnb.sol\":3175:3185  msg.sender */\n      caller\n        /* \"contracts/bnb.sol\":3165:3186  balanceOf[msg.sender] */\n      0xffffffffffffffffffffffffffffffffffffffff\n      and\n      0xffffffffffffffffffffffffffffffffffffffff\n      and\n      dup2\n      mstore\n      0x20\n      add\n      swap1\n      dup2\n      mstore\n      0x20\n      add\n      0x00\n      keccak256\n      sload\n        /* \"contracts/bnb.sol\":3188:3194  _value */\n      dup3\n        /* \"contracts/bnb.sol\":3148:3164  SafeMath.safeSub */\n      tag_121\n        /* \"contracts/bnb.sol\":3148:3195  SafeMath.safeSub(balanceOf[msg.sender], _value) */\n      jump\t// in\n    tag_163:\n        /* \"contracts/bnb.sol\":3124:3133  balanceOf */\n      0x07\n        /* \"contracts/bnb.sol\":3124:3145  balanceOf[msg.sender] */\n      0x00\n        /* \"contracts/bnb.sol\":3134:3144  msg.sender */\n      caller\n        /* \"contracts/bnb.sol\":3124:3145  balanceOf[msg.sender] */\n      0xffffffffffffffffffffffffffffffffffffffff\n      and\n      0xffffffffffffffffffffffffffffffffffffffff\n      and\n      dup2\n      mstore\n      0x20\n      add\n      swap1\n      dup2\n      mstore\n      0x20\n      add\n      0x00\n      keccak256\n        /* \"contracts/bnb.sol\":3124:3195  balanceOf[msg.sender] = SafeMath.safeSub(balanceOf[msg.sender], _value) */\n      dup2\n      swap1\n      sstore\n      pop\n        /* \"contracts/bnb.sol\":3268:3306  SafeMath.safeSub(totalBalance, _value) */\n      tag_164\n        /* \"contracts/bnb.sol\":3285:3297  totalBalance */\n      sload(0x05)\n        /* \"contracts/bnb.sol\":3299:3305  _value */\n      dup3\n        /* \"contracts/bnb.sol\":3268:3284  SafeMath.safeSub */\n      tag_121\n        /* \"contracts/bnb.sol\":3268:3306  SafeMath.safeSub(totalBalance, _value) */\n      jump\t// in\n    tag_164:\n        /* \"contracts/bnb.sol\":3253:3265  totalBalance */\n      0x05\n        /* \"contracts/bnb.sol\":3253:3306  totalBalance = SafeMath.safeSub(totalBalance, _value) */\n      dup2\n      swap1\n      sstore\n      pop\n        /* \"contracts/bnb.sol\":3333:3373  SafeMath.safeAdd(balanceOf[_to], _value) */\n      tag_165\n        /* \"contracts/bnb.sol\":3350:3359  balanceOf */\n      0x07\n        /* \"contracts/bnb.sol\":3350:3364  balanceOf[_to] */\n      0x00\n        /* \"contracts/bnb.sol\":3360:3363  _to */\n      dup5\n        /* \"contracts/bnb.sol\":3350:3364  balanceOf[_to] */\n      0xffffffffffffffffffffffffffffffffffffffff\n      and\n      0xffffffffffffffffffffffffffffffffffffffff\n      and\n      dup2\n      mstore\n      0x20\n      add\n      swap1\n      dup2\n      mstore\n      0x20\n      add\n      0x00\n      keccak256\n      sload\n        /* \"contracts/bnb.sol\":3366:3372  _value */\n      dup3\n        /* \"contracts/bnb.sol\":3333:3349  SafeMath.safeAdd */\n      tag_124\n        /* \"contracts/bnb.sol\":3333:3373  SafeMath.safeAdd(balanceOf[_to], _value) */\n      jump\t// in\n    tag_165:\n        /* \"contracts/bnb.sol\":3316:3325  balanceOf */\n      0x07\n        /* \"contracts/bnb.sol\":3316:3330  balanceOf[_to] */\n      0x00\n        /* \"contracts/bnb.sol\":3326:3329  _to */\n      dup5\n        /* \"contracts/bnb.sol\":3316:3330  balanceOf[_to] */\n      0xffffffffffffffffffffffffffffffffffffffff\n      and\n      0xffffffffffffffffffffffffffffffffffffffff\n      and\n      dup2\n      mstore\n      0x20\n      add\n      swap1\n      dup2\n      mstore\n      0x20\n      add\n      0x00\n      keccak256\n        /* \"contracts/bnb.sol\":3316:3373  balanceOf[_to] = SafeMath.safeAdd(balanceOf[_to], _value) */\n      dup2\n      swap1\n      sstore\n      pop\n        /* \"contracts/bnb.sol\":3458:3496  SafeMath.safeAdd(totalBalance, _value) */\n      tag_166\n        /* \"contracts/bnb.sol\":3475:3487  totalBalance */\n      sload(0x05)\n        /* \"contracts/bnb.sol\":3489:3495  _value */\n      dup3\n        /* \"contracts/bnb.sol\":3458:3474  SafeMath.safeAdd */\n      tag_124\n        /* \"contracts/bnb.sol\":3458:3496  SafeMath.safeAdd(totalBalance, _value) */\n      jump\t// in\n    tag_166:\n        /* \"contracts/bnb.sol\":3443:3455  totalBalance */\n      0x05\n        /* \"contracts/bnb.sol\":3443:3496  totalBalance = SafeMath.safeAdd(totalBalance, _value) */\n      dup2\n      swap1\n      sstore\n      pop\n        /* \"contracts/bnb.sol\":3532:3535  _to */\n      dup2\n        /* \"contracts/bnb.sol\":3511:3544  Transfer(msg.sender, _to, _value) */\n      0xffffffffffffffffffffffffffffffffffffffff\n      and\n        /* \"contracts/bnb.sol\":3520:3530  msg.sender */\n      caller\n        /* \"contracts/bnb.sol\":3511:3544  Transfer(msg.sender, _to, _value) */\n      0xffffffffffffffffffffffffffffffffffffffff\n      and\n      0xddf252ad1be2c89b69c2b068fc378daa952ba7f163c4a11628f55a4df523b3ef\n        /* \"contracts/bnb.sol\":3537:3543  _value */\n      dup4\n        /* \"contracts/bnb.sol\":3511:3544  Transfer(msg.sender, _to, _value) */\n      mload(0x40)\n      tag_167\n      swap2\n      swap1\n      tag_40\n      jump\t// in\n    tag_167:\n      mload(0x40)\n      dup1\n      swap2\n      sub\n      swap1\n      log3\n        /* \"contracts/bnb.sol\":2717:3626  function transfer(address _to, uint256 _value) public {... */\n      pop\n      pop\n      jump\t// out\n        /* \"contracts/bnb.sol\":1254:1298  mapping (address => uint256) public freezeOf */\n    tag_91:\n      mstore(0x20, 0x08)\n      dup1\n      0x00\n      mstore\n      keccak256(0x00, 0x40)\n      0x00\n      swap2\n      pop\n      swap1\n      pop\n      sload\n      dup2\n      jump\t// out\n        /* \"contracts/bnb.sol\":5608:6255  function freeze(uint256 _value) public returns (bool success) {... */\n    tag_96:\n        /* \"contracts/bnb.sol\":5656:5668  bool success */\n      0x00\n        /* \"contracts/bnb.sol\":5708:5714  _value */\n      dup2\n        /* \"contracts/bnb.sol\":5684:5693  balanceOf */\n      0x07\n        /* \"contracts/bnb.sol\":5684:5705  balanceOf[msg.sender] */\n      0x00\n        /* \"contracts/bnb.sol\":5694:5704  msg.sender */\n      caller\n        /* \"contracts/bnb.sol\":5684:5705  balanceOf[msg.sender] */\n      0xffffffffffffffffffffffffffffffffffffffff\n      and\n      0xffffffffffffffffffffffffffffffffffffffff\n      and\n      dup2\n      mstore\n      0x20\n      add\n      swap1\n      dup2\n      mstore\n      0x20\n      add\n      0x00\n      keccak256\n      sload\n        /* \"contracts/bnb.sol\":5684:5714  balanceOf[msg.sender] < _value */\n      lt\n        /* \"contracts/bnb.sol\":5680:5724  if (balanceOf[msg.sender] < _value) revert() */\n      iszero\n      tag_169\n      jumpi\n        /* \"contracts/bnb.sol\":5716:5724  revert() */\n      0x00\n      dup1\n      revert\n        /* \"contracts/bnb.sol\":5680:5724  if (balanceOf[msg.sender] < _value) revert() */\n    tag_169:\n        /* \"contracts/bnb.sol\":5787:5788  0 */\n      0x00\n        /* \"contracts/bnb.sol\":5777:5783  _value */\n      dup3\n        /* \"contracts/bnb.sol\":5777:5788  _value <= 0 */\n      gt\n        /* \"contracts/bnb.sol\":5773:5798  if (_value <= 0) revert() */\n      tag_170\n      jumpi\n        /* \"contracts/bnb.sol\":5790:5798  revert() */\n      0x00\n      dup1\n      revert\n        /* \"contracts/bnb.sol\":5773:5798  if (_value <= 0) revert() */\n    tag_170:\n        /* \"contracts/bnb.sol\":5833:5880  SafeMath.safeSub(balanceOf[msg.sender], _value) */\n      tag_171\n        /* \"contracts/bnb.sol\":5850:5859  balanceOf */\n      0x07\n        /* \"contracts/bnb.sol\":5850:5871  balanceOf[msg.sender] */\n      0x00\n        /* \"contracts/bnb.sol\":5860:5870  msg.sender */\n      caller\n        /* \"contracts/bnb.sol\":5850:5871  balanceOf[msg.sender] */\n      0xffffffffffffffffffffffffffffffffffffffff\n      and\n      0xffffffffffffffffffffffffffffffffffffffff\n      and\n      dup2\n      mstore\n      0x20\n      add\n      swap1\n      dup2\n      mstore\n      0x20\n      add\n      0x00\n      keccak256\n      sload\n        /* \"contracts/bnb.sol\":5873:5879  _value */\n      dup4\n        /* \"contracts/bnb.sol\":5833:5849  SafeMath.safeSub */\n      tag_121\n        /* \"contracts/bnb.sol\":5833:5880  SafeMath.safeSub(balanceOf[msg.sender], _value) */\n      jump\t// in\n    tag_171:\n        /* \"contracts/bnb.sol\":5809:5818  balanceOf */\n      0x07\n        /* \"contracts/bnb.sol\":5809:5830  balanceOf[msg.sender] */\n      0x00\n        /* \"contracts/bnb.sol\":5819:5829  msg.sender */\n      caller\n        /* \"contracts/bnb.sol\":5809:5830  balanceOf[msg.sender] */\n      0xffffffffffffffffffffffffffffffffffffffff\n      and\n      0xffffffffffffffffffffffffffffffffffffffff\n      and\n      dup2\n      mstore\n      0x20\n      add\n      swap1\n      dup2\n      mstore\n      0x20\n      add\n      0x00\n      keccak256\n        /* \"contracts/bnb.sol\":5809:5880  balanceOf[msg.sender] = SafeMath.safeSub(balanceOf[msg.sender], _value) */\n      dup2\n      swap1\n      sstore\n      pop\n        /* \"contracts/bnb.sol\":5954:5992  SafeMath.safeSub(totalBalance, _value) */\n      tag_172\n        /* \"contracts/bnb.sol\":5971:5983  totalBalance */\n      sload(0x05)\n        /* \"contracts/bnb.sol\":5985:5991  _value */\n      dup4\n        /* \"contracts/bnb.sol\":5954:5970  SafeMath.safeSub */\n      tag_121\n        /* \"contracts/bnb.sol\":5954:5992  SafeMath.safeSub(totalBalance, _value) */\n      jump\t// in\n    tag_172:\n        /* \"contracts/bnb.sol\":5939:5951  totalBalance */\n      0x05\n        /* \"contracts/bnb.sol\":5939:5992  totalBalance = SafeMath.safeSub(totalBalance, _value) */\n      dup2\n      swap1\n      sstore\n      pop\n        /* \"contracts/bnb.sol\":6025:6071  SafeMath.safeAdd(freezeOf[msg.sender], _value) */\n      tag_173\n        /* \"contracts/bnb.sol\":6042:6050  freezeOf */\n      0x08\n        /* \"contracts/bnb.sol\":6042:6062  freezeOf[msg.sender] */\n      0x00\n        /* \"contracts/bnb.sol\":6051:6061  msg.sender */\n      caller\n        /* \"contracts/bnb.sol\":6042:6062  freezeOf[msg.sender] */\n      0xffffffffffffffffffffffffffffffffffffffff\n      and\n      0xffffffffffffffffffffffffffffffffffffffff\n      and\n      dup2\n      mstore\n      0x20\n      add\n      swap1\n      dup2\n      mstore\n      0x20\n      add\n      0x00\n      keccak256\n      sload\n        /* \"contracts/bnb.sol\":6064:6070  _value */\n      dup4\n        /* \"contracts/bnb.sol\":6025:6041  SafeMath.safeAdd */\n      tag_124\n        /* \"contracts/bnb.sol\":6025:6071  SafeMath.safeAdd(freezeOf[msg.sender], _value) */\n      jump\t// in\n    tag_173:\n        /* \"contracts/bnb.sol\":6002:6010  freezeOf */\n      0x08\n        /* \"contracts/bnb.sol\":6002:6022  freezeOf[msg.sender] */\n      0x00\n        /* \"contracts/bnb.sol\":6011:6021  msg.sender */\n      caller\n        /* \"contracts/bnb.sol\":6002:6022  freezeOf[msg.sender] */\n      0xffffffffffffffffffffffffffffffffffffffff\n      and\n      0xffffffffffffffffffffffffffffffffffffffff\n      and\n      dup2\n      mstore\n      0x20\n      add\n      swap1\n      dup2\n      mstore\n      0x20\n      add\n      0x00\n      keccak256\n        /* \"contracts/bnb.sol\":6002:6071  freezeOf[msg.sender] = SafeMath.safeAdd(freezeOf[msg.sender], _value) */\n      dup2\n      swap1\n      sstore\n      pop\n        /* \"contracts/bnb.sol\":6149:6186  SafeMath.safeAdd(freezeTotal, _value) */\n      tag_174\n        /* \"contracts/bnb.sol\":6166:6177  freezeTotal */\n      sload(0x06)\n        /* \"contracts/bnb.sol\":6179:6185  _value */\n      dup4\n        /* \"contracts/bnb.sol\":6149:6165  SafeMath.safeAdd */\n      tag_124\n        /* \"contracts/bnb.sol\":6149:6186  SafeMath.safeAdd(freezeTotal, _value) */\n      jump\t// in\n    tag_174:\n        /* \"contracts/bnb.sol\":6135:6146  freezeTotal */\n      0x06\n        /* \"contracts/bnb.sol\":6135:6186  freezeTotal = SafeMath.safeAdd(freezeTotal, _value) */\n      dup2\n      swap1\n      sstore\n      pop\n        /* \"contracts/bnb.sol\":6208:6218  msg.sender */\n      caller\n        /* \"contracts/bnb.sol\":6201:6227  Freeze(msg.sender, _value) */\n      0xffffffffffffffffffffffffffffffffffffffff\n      and\n      0xf97a274face0b5517365ad396b1fdba6f68bd3135ef603e44272adba3af5a1e0\n        /* \"contracts/bnb.sol\":6220:6226  _value */\n      dup4\n        /* \"contracts/bnb.sol\":6201:6227  Freeze(msg.sender, _value) */\n      mload(0x40)\n      tag_175\n      swap2\n      swap1\n      tag_40\n      jump\t// in\n    tag_175:\n      mload(0x40)\n      dup1\n      swap2\n      sub\n      swap1\n      log2\n        /* \"contracts/bnb.sol\":6244:6248  true */\n      0x01\n        /* \"contracts/bnb.sol\":6237:6248  return true */\n      swap1\n      pop\n        /* \"contracts/bnb.sol\":5608:6255  function freeze(uint256 _value) public returns (bool success) {... */\n      swap2\n      swap1\n      pop\n      jump\t// out\n        /* \"contracts/bnb.sol\":1304:1370  mapping (address => mapping (address => uint256)) public allowance */\n    tag_102:\n      mstore(0x20, 0x09)\n      dup2\n      0x00\n      mstore\n      mstore(0x20, keccak256(0x00, 0x40))\n      dup1\n      0x00\n      mstore\n      keccak256(0x00, 0x40)\n      0x00\n      swap2\n      pop\n      swap2\n      pop\n      pop\n      sload\n      dup2\n      jump\t// out\n        /* \"contracts/bnb.sol\":518:633  function safeSub(uint256 a, uint256 b) pure internal returns (uint256) {... */\n    tag_121:\n        /* \"contracts/bnb.sol\":580:587  uint256 */\n      0x00\n        /* \"contracts/bnb.sol\":608:609  a */\n      dup3\n        /* \"contracts/bnb.sol\":603:604  b */\n      dup3\n        /* \"contracts/bnb.sol\":603:609  b <= a */\n      gt\n      iszero\n        /* \"contracts/bnb.sol\":595:610  require(b <= a) */\n      tag_177\n      jumpi\n      0x00\n      dup1\n      revert\n    tag_177:\n        /* \"contracts/bnb.sol\":627:628  b */\n      dup2\n        /* \"contracts/bnb.sol\":623:624  a */\n      dup4\n        /* \"contracts/bnb.sol\":623:628  a - b */\n      tag_178\n      swap2\n      swap1\n      tag_179\n      jump\t// in\n    tag_178:\n        /* \"contracts/bnb.sol\":616:628  return a - b */\n      swap1\n      pop\n        /* \"contracts/bnb.sol\":518:633  function safeSub(uint256 a, uint256 b) pure internal returns (uint256) {... */\n      swap3\n      swap2\n      pop\n      pop\n      jump\t// out\n        /* \"contracts/bnb.sol\":637:777  function safeAdd(uint256 a, uint256 b) pure internal returns (uint256) {... */\n    tag_124:\n        /* \"contracts/bnb.sol\":699:706  uint256 */\n      0x00\n        /* \"contracts/bnb.sol\":714:723  uint256 c */\n      dup1\n        /* \"contracts/bnb.sol\":730:731  b */\n      dup3\n        /* \"contracts/bnb.sol\":726:727  a */\n      dup5\n        /* \"contracts/bnb.sol\":726:731  a + b */\n      tag_181\n      swap2\n      swap1\n      tag_117\n      jump\t// in\n    tag_181:\n        /* \"contracts/bnb.sol\":714:731  uint256 c = a + b */\n      swap1\n      pop\n        /* \"contracts/bnb.sol\":748:749  a */\n      dup4\n        /* \"contracts/bnb.sol\":745:746  c */\n      dup2\n        /* \"contracts/bnb.sol\":745:749  c>=a */\n      lt\n      iszero\n        /* \"contracts/bnb.sol\":745:757  c>=a && c>=b */\n      dup1\n      iszero\n      tag_182\n      jumpi\n      pop\n        /* \"contracts/bnb.sol\":756:757  b */\n      dup3\n        /* \"contracts/bnb.sol\":753:754  c */\n      dup2\n        /* \"contracts/bnb.sol\":753:757  c>=b */\n      lt\n      iszero\n        /* \"contracts/bnb.sol\":745:757  c>=a && c>=b */\n    tag_182:\n        /* \"contracts/bnb.sol\":737:758  require(c>=a && c>=b) */\n      tag_183\n      jumpi\n      0x00\n      dup1\n      revert\n    tag_183:\n        /* \"contracts/bnb.sol\":771:772  c */\n      dup1\n        /* \"contracts/bnb.sol\":764:772  return c */\n      swap2\n      pop\n      pop\n        /* \"contracts/bnb.sol\":637:777  function safeAdd(uint256 a, uint256 b) pure internal returns (uint256) {... */\n      swap3\n      swap2\n      pop\n      pop\n      jump\t// out\n        /* \"#utility.yul\":7:106   */\n    tag_184:\n        /* \"#utility.yul\":59:65   */\n      0x00\n        /* \"#utility.yul\":93:98   */\n      dup2\n        /* \"#utility.yul\":87:99   */\n      mload\n        /* \"#utility.yul\":77:99   */\n      swap1\n      pop\n        /* \"#utility.yul\":7:106   */\n      swap2\n      swap1\n      pop\n      jump\t// out\n        /* \"#utility.yul\":112:281   */\n    tag_185:\n        /* \"#utility.yul\":196:207   */\n      0x00\n        /* \"#utility.yul\":230:236   */\n      dup3\n        /* \"#utility.yul\":225:228   */\n      dup3\n        /* \"#utility.yul\":218:237   */\n      mstore\n        /* \"#utility.yul\":270:274   */\n      0x20\n        /* \"#utility.yul\":265:268   */\n      dup3\n        /* \"#utility.yul\":261:275   */\n      add\n        /* \"#utility.yul\":246:275   */\n      swap1\n      pop\n        /* \"#utility.yul\":112:281   */\n      swap3\n      swap2\n      pop\n      pop\n      jump\t// out\n        /* \"#utility.yul\":287:533   */\n    tag_186:\n        /* \"#utility.yul\":368:369   */\n      0x00\n        /* \"#utility.yul\":378:491   */\n    tag_211:\n        /* \"#utility.yul\":392:398   */\n      dup4\n        /* \"#utility.yul\":389:390   */\n      dup2\n        /* \"#utility.yul\":386:399   */\n      lt\n        /* \"#utility.yul\":378:491   */\n      iszero\n      tag_213\n      jumpi\n        /* \"#utility.yul\":477:478   */\n      dup1\n        /* \"#utility.yul\":472:475   */\n      dup3\n        /* \"#utility.yul\":468:479   */\n      add\n        /* \"#utility.yul\":462:480   */\n      mload\n        /* \"#utility.yul\":458:459   */\n      dup2\n        /* \"#utility.yul\":453:456   */\n      dup5\n        /* \"#utility.yul\":449:460   */\n      add\n        /* \"#utility.yul\":442:481   */\n      mstore\n        /* \"#utility.yul\":414:416   */\n      0x20\n        /* \"#utility.yul\":411:412   */\n      dup2\n        /* \"#utility.yul\":407:417   */\n      add\n        /* \"#utility.yul\":402:417   */\n      swap1\n      pop\n        /* \"#utility.yul\":378:491   */\n      jump(tag_211)\n    tag_213:\n        /* \"#utility.yul\":525:526   */\n      0x00\n        /* \"#utility.yul\":516:522   */\n      dup5\n        /* \"#utility.yul\":511:514   */\n      dup5\n        /* \"#utility.yul\":507:523   */\n      add\n        /* \"#utility.yul\":500:527   */\n      mstore\n        /* \"#utility.yul\":349:533   */\n      pop\n        /* \"#utility.yul\":287:533   */\n      pop\n      pop\n      pop\n      jump\t// out\n        /* \"#utility.yul\":539:641   */\n    tag_187:\n        /* \"#utility.yul\":580:586   */\n      0x00\n        /* \"#utility.yul\":631:633   */\n      0x1f\n        /* \"#utility.yul\":627:634   */\n      not\n        /* \"#utility.yul\":622:624   */\n      0x1f\n        /* \"#utility.yul\":615:620   */\n      dup4\n        /* \"#utility.yul\":611:625   */\n      add\n        /* \"#utility.yul\":607:635   */\n      and\n        /* \"#utility.yul\":597:635   */\n      swap1\n      pop\n        /* \"#utility.yul\":539:641   */\n      swap2\n      swap1\n      pop\n      jump\t// out\n        /* \"#utility.yul\":647:1024   */\n    tag_188:\n        /* \"#utility.yul\":735:738   */\n      0x00\n        /* \"#utility.yul\":763:802   */\n      tag_216\n        /* \"#utility.yul\":796:801   */\n      dup3\n        /* \"#utility.yul\":763:802   */\n      tag_184\n      jump\t// in\n    tag_216:\n        /* \"#utility.yul\":818:889   */\n      tag_217\n        /* \"#utility.yul\":882:888   */\n      dup2\n        /* \"#utility.yul\":877:880   */\n      dup6\n        /* \"#utility.yul\":818:889   */\n      tag_185\n      jump\t// in\n    tag_217:\n        /* \"#utility.yul\":811:889   */\n      swap4\n      pop\n        /* \"#utility.yul\":898:963   */\n      tag_218\n        /* \"#utility.yul\":956:962   */\n      dup2\n        /* \"#utility.yul\":951:954   */\n      dup6\n        /* \"#utility.yul\":944:948   */\n      0x20\n        /* \"#utility.yul\":937:942   */\n      dup7\n        /* \"#utility.yul\":933:949   */\n      add\n        /* \"#utility.yul\":898:963   */\n      tag_186\n      jump\t// in\n    tag_218:\n        /* \"#utility.yul\":988:1017   */\n      tag_219\n        /* \"#utility.yul\":1010:1016   */\n      dup2\n        /* \"#utility.yul\":988:1017   */\n      tag_187\n      jump\t// in\n    tag_219:\n        /* \"#utility.yul\":983:986   */\n      dup5\n        /* \"#utility.yul\":979:1018   */\n      add\n        /* \"#utility.yul\":972:1018   */\n      swap2\n      pop\n        /* \"#utility.yul\":739:1024   */\n      pop\n        /* \"#utility.yul\":647:1024   */\n      swap3\n      swap2\n      pop\n      pop\n      jump\t// out\n        /* \"#utility.yul\":1030:1343   */\n    tag_28:\n        /* \"#utility.yul\":1143:1147   */\n      0x00\n        /* \"#utility.yul\":1181:1183   */\n      0x20\n        /* \"#utility.yul\":1170:1179   */\n      dup3\n        /* \"#utility.yul\":1166:1184   */\n      add\n        /* \"#utility.yul\":1158:1184   */\n      swap1\n      pop\n        /* \"#utility.yul\":1230:1239   */\n      dup2\n        /* \"#utility.yul\":1224:1228   */\n      dup2\n        /* \"#utility.yul\":1220:1240   */\n      sub\n        /* \"#utility.yul\":1216:1217   */\n      0x00\n        /* \"#utility.yul\":1205:1214   */\n      dup4\n        /* \"#utility.yul\":1201:1218   */\n      add\n        /* \"#utility.yul\":1194:1241   */\n      mstore\n        /* \"#utility.yul\":1258:1336   */\n      tag_221\n        /* \"#utility.yul\":1331:1335   */\n      dup2\n        /* \"#utility.yul\":1322:1328   */\n      dup5\n        /* \"#utility.yul\":1258:1336   */\n      tag_188\n      jump\t// in\n    tag_221:\n        /* \"#utility.yul\":1250:1336   */\n      swap1\n      pop\n        /* \"#utility.yul\":1030:1343   */\n      swap3\n      swap2\n      pop\n      pop\n      jump\t// out\n        /* \"#utility.yul\":1430:1547   */\n    tag_190:\n        /* \"#utility.yul\":1539:1540   */\n      0x00\n        /* \"#utility.yul\":1536:1537   */\n      dup1\n        /* \"#utility.yul\":1529:1541   */\n      revert\n        /* \"#utility.yul\":1676:1802   */\n    tag_192:\n        /* \"#utility.yul\":1713:1720   */\n      0x00\n        /* \"#utility.yul\":1753:1795   */\n      0xffffffffffffffffffffffffffffffffffffffff\n        /* \"#utility.yul\":1746:1751   */\n      dup3\n        /* \"#utility.yul\":1742:1796   */\n      and\n        /* \"#utility.yul\":1731:1796   */\n      swap1\n      pop\n        /* \"#utility.yul\":1676:1802   */\n      swap2\n      swap1\n      pop\n      jump\t// out\n        /* \"#utility.yul\":1808:1904   */\n    tag_193:\n        /* \"#utility.yul\":1845:1852   */\n      0x00\n        /* \"#utility.yul\":1874:1898   */\n      tag_227\n        /* \"#utility.yul\":1892:1897   */\n      dup3\n        /* \"#utility.yul\":1874:1898   */\n      tag_192\n      jump\t// in\n    tag_227:\n        /* \"#utility.yul\":1863:1898   */\n      swap1\n      pop\n        /* \"#utility.yul\":1808:1904   */\n      swap2\n      swap1\n      pop\n      jump\t// out\n        /* \"#utility.yul\":1910:2032   */\n    tag_194:\n        /* \"#utility.yul\":1983:2007   */\n      tag_229\n        /* \"#utility.yul\":2001:2006   */\n      dup2\n        /* \"#utility.yul\":1983:2007   */\n      tag_193\n      jump\t// in\n    tag_229:\n        /* \"#utility.yul\":1976:1981   */\n      dup2\n        /* \"#utility.yul\":1973:2008   */\n      eq\n        /* \"#utility.yul\":1963:2026   */\n      tag_230\n      jumpi\n        /* \"#utility.yul\":2022:2023   */\n      0x00\n        /* \"#utility.yul\":2019:2020   */\n      dup1\n        /* \"#utility.yul\":2012:2024   */\n      revert\n        /* \"#utility.yul\":1963:2026   */\n    tag_230:\n        /* \"#utility.yul\":1910:2032   */\n      pop\n      jump\t// out\n        /* \"#utility.yul\":2038:2177   */\n    tag_195:\n        /* \"#utility.yul\":2084:2089   */\n      0x00\n        /* \"#utility.yul\":2122:2128   */\n      dup2\n        /* \"#utility.yul\":2109:2129   */\n      calldataload\n        /* \"#utility.yul\":2100:2129   */\n      swap1\n      pop\n        /* \"#utility.yul\":2138:2171   */\n      tag_232\n        /* \"#utility.yul\":2165:2170   */\n      dup2\n        /* \"#utility.yul\":2138:2171   */\n      tag_194\n      jump\t// in\n    tag_232:\n        /* \"#utility.yul\":2038:2177   */\n      swap3\n      swap2\n      pop\n      pop\n      jump\t// out\n        /* \"#utility.yul\":2183:2260   */\n    tag_196:\n        /* \"#utility.yul\":2220:2227   */\n      0x00\n        /* \"#utility.yul\":2249:2254   */\n      dup2\n        /* \"#utility.yul\":2238:2254   */\n      swap1\n      pop\n        /* \"#utility.yul\":2183:2260   */\n      swap2\n      swap1\n      pop\n      jump\t// out\n        /* \"#utility.yul\":2266:2388   */\n    tag_197:\n        /* \"#utility.yul\":2339:2363   */\n      tag_235\n        /* \"#utility.yul\":2357:2362   */\n      dup2\n        /* \"#utility.yul\":2339:2363   */\n      tag_196\n      jump\t// in\n    tag_235:\n        /* \"#utility.yul\":2332:2337   */\n      dup2\n        /* \"#utility.yul\":2329:2364   */\n      eq\n        /* \"#utility.yul\":2319:2382   */\n      tag_236\n      jumpi\n        /* \"#utility.yul\":2378:2379   */\n      0x00\n        /* \"#utility.yul\":2375:2376   */\n      dup1\n        /* \"#utility.yul\":2368:2380   */\n      revert\n        /* \"#utility.yul\":2319:2382   */\n    tag_236:\n        /* \"#utility.yul\":2266:2388   */\n      pop\n      jump\t// out\n        /* \"#utility.yul\":2394:2533   */\n    tag_198:\n        /* \"#utility.yul\":2440:2445   */\n      0x00\n        /* \"#utility.yul\":2478:2484   */\n      dup2\n        /* \"#utility.yul\":2465:2485   */\n      calldataload\n        /* \"#utility.yul\":2456:2485   */\n      swap1\n      pop\n        /* \"#utility.yul\":2494:2527   */\n      tag_238\n        /* \"#utility.yul\":2521:2526   */\n      dup2\n        /* \"#utility.yul\":2494:2527   */\n      tag_197\n      jump\t// in\n    tag_238:\n        /* \"#utility.yul\":2394:2533   */\n      swap3\n      swap2\n      pop\n      pop\n      jump\t// out\n        /* \"#utility.yul\":2539:3013   */\n    tag_32:\n        /* \"#utility.yul\":2607:2613   */\n      0x00\n        /* \"#utility.yul\":2615:2621   */\n      dup1\n        /* \"#utility.yul\":2664:2666   */\n      0x40\n        /* \"#utility.yul\":2652:2661   */\n      dup4\n        /* \"#utility.yul\":2643:2650   */\n      dup6\n        /* \"#utility.yul\":2639:2662   */\n      sub\n        /* \"#utility.yul\":2635:2667   */\n      slt\n        /* \"#utility.yul\":2632:2751   */\n      iszero\n      tag_240\n      jumpi\n        /* \"#utility.yul\":2670:2749   */\n      tag_241\n      tag_190\n      jump\t// in\n    tag_241:\n        /* \"#utility.yul\":2632:2751   */\n    tag_240:\n        /* \"#utility.yul\":2790:2791   */\n      0x00\n        /* \"#utility.yul\":2815:2868   */\n      tag_242\n        /* \"#utility.yul\":2860:2867   */\n      dup6\n        /* \"#utility.yul\":2851:2857   */\n      dup3\n        /* \"#utility.yul\":2840:2849   */\n      dup7\n        /* \"#utility.yul\":2836:2858   */\n      add\n        /* \"#utility.yul\":2815:2868   */\n      tag_195\n      jump\t// in\n    tag_242:\n        /* \"#utility.yul\":2805:2868   */\n      swap3\n      pop\n        /* \"#utility.yul\":2761:2878   */\n      pop\n        /* \"#utility.yul\":2917:2919   */\n      0x20\n        /* \"#utility.yul\":2943:2996   */\n      tag_243\n        /* \"#utility.yul\":2988:2995   */\n      dup6\n        /* \"#utility.yul\":2979:2985   */\n      dup3\n        /* \"#utility.yul\":2968:2977   */\n      dup7\n        /* \"#utility.yul\":2964:2986   */\n      add\n        /* \"#utility.yul\":2943:2996   */\n      tag_198\n      jump\t// in\n    tag_243:\n        /* \"#utility.yul\":2933:2996   */\n      swap2\n      pop\n        /* \"#utility.yul\":2888:3006   */\n      pop\n        /* \"#utility.yul\":2539:3013   */\n      swap3\n      pop\n      swap3\n      swap1\n      pop\n      jump\t// out\n        /* \"#utility.yul\":3019:3109   */\n    tag_199:\n        /* \"#utility.yul\":3053:3060   */\n      0x00\n        /* \"#utility.yul\":3096:3101   */\n      dup2\n        /* \"#utility.yul\":3089:3102   */\n      iszero\n        /* \"#utility.yul\":3082:3103   */\n      iszero\n        /* \"#utility.yul\":3071:3103   */\n      swap1\n      pop\n        /* \"#utility.yul\":3019:3109   */\n      swap2\n      swap1\n      pop\n      jump\t// out\n        /* \"#utility.yul\":3115:3224   */\n    tag_200:\n        /* \"#utility.yul\":3196:3217   */\n      tag_246\n        /* \"#utility.yul\":3211:3216   */\n      dup2\n        /* \"#utility.yul\":3196:3217   */\n      tag_199\n      jump\t// in\n    tag_246:\n        /* \"#utility.yul\":3191:3194   */\n      dup3\n        /* \"#utility.yul\":3184:3218   */\n      mstore\n        /* \"#utility.yul\":3115:3224   */\n      pop\n      pop\n      jump\t// out\n        /* \"#utility.yul\":3230:3440   */\n    tag_35:\n        /* \"#utility.yul\":3317:3321   */\n      0x00\n        /* \"#utility.yul\":3355:3357   */\n      0x20\n        /* \"#utility.yul\":3344:3353   */\n      dup3\n        /* \"#utility.yul\":3340:3358   */\n      add\n        /* \"#utility.yul\":3332:3358   */\n      swap1\n      pop\n        /* \"#utility.yul\":3368:3433   */\n      tag_248\n        /* \"#utility.yul\":3430:3431   */\n      0x00\n        /* \"#utility.yul\":3419:3428   */\n      dup4\n        /* \"#utility.yul\":3415:3432   */\n      add\n        /* \"#utility.yul\":3406:3412   */\n      dup5\n        /* \"#utility.yul\":3368:3433   */\n      tag_200\n      jump\t// in\n    tag_248:\n        /* \"#utility.yul\":3230:3440   */\n      swap3\n      swap2\n      pop\n      pop\n      jump\t// out\n        /* \"#utility.yul\":3446:3564   */\n    tag_201:\n        /* \"#utility.yul\":3533:3557   */\n      tag_250\n        /* \"#utility.yul\":3551:3556   */\n      dup2\n        /* \"#utility.yul\":3533:3557   */\n      tag_196\n      jump\t// in\n    tag_250:\n        /* \"#utility.yul\":3528:3531   */\n      dup3\n        /* \"#utility.yul\":3521:3558   */\n      mstore\n        /* \"#utility.yul\":3446:3564   */\n      pop\n      pop\n      jump\t// out\n        /* \"#utility.yul\":3570:3792   */\n    tag_40:\n        /* \"#utility.yul\":3663:3667   */\n      0x00\n        /* \"#utility.yul\":3701:3703   */\n      0x20\n        /* \"#utility.yul\":3690:3699   */\n      dup3\n        /* \"#utility.yul\":3686:3704   */\n      add\n        /* \"#utility.yul\":3678:3704   */\n      swap1\n      pop\n        /* \"#utility.yul\":3714:3785   */\n      tag_252\n        /* \"#utility.yul\":3782:3783   */\n      0x00\n        /* \"#utility.yul\":3771:3780   */\n      dup4\n        /* \"#utility.yul\":3767:3784   */\n      add\n        /* \"#utility.yul\":3758:3764   */\n      dup5\n        /* \"#utility.yul\":3714:3785   */\n      tag_201\n      jump\t// in\n    tag_252:\n        /* \"#utility.yul\":3570:3792   */\n      swap3\n      swap2\n      pop\n      pop\n      jump\t// out\n        /* \"#utility.yul\":3798:4417   */\n    tag_44:\n        /* \"#utility.yul\":3875:3881   */\n      0x00\n        /* \"#utility.yul\":3883:3889   */\n      dup1\n        /* \"#utility.yul\":3891:3897   */\n      0x00\n        /* \"#utility.yul\":3940:3942   */\n      0x60\n        /* \"#utility.yul\":3928:3937   */\n      dup5\n        /* \"#utility.yul\":3919:3926   */\n      dup7\n        /* \"#utility.yul\":3915:3938   */\n      sub\n        /* \"#utility.yul\":3911:3943   */\n      slt\n        /* \"#utility.yul\":3908:4027   */\n      iszero\n      tag_254\n      jumpi\n        /* \"#utility.yul\":3946:4025   */\n      tag_255\n      tag_190\n      jump\t// in\n    tag_255:\n        /* \"#utility.yul\":3908:4027   */\n    tag_254:\n        /* \"#utility.yul\":4066:4067   */\n      0x00\n        /* \"#utility.yul\":4091:4144   */\n      tag_256\n        /* \"#utility.yul\":4136:4143   */\n      dup7\n        /* \"#utility.yul\":4127:4133   */\n      dup3\n        /* \"#utility.yul\":4116:4125   */\n      dup8\n        /* \"#utility.yul\":4112:4134   */\n      add\n        /* \"#utility.yul\":4091:4144   */\n      tag_195\n      jump\t// in\n    tag_256:\n        /* \"#utility.yul\":4081:4144   */\n      swap4\n      pop\n        /* \"#utility.yul\":4037:4154   */\n      pop\n        /* \"#utility.yul\":4193:4195   */\n      0x20\n        /* \"#utility.yul\":4219:4272   */\n      tag_257\n        /* \"#utility.yul\":4264:4271   */\n      dup7\n        /* \"#utility.yul\":4255:4261   */\n      dup3\n        /* \"#utility.yul\":4244:4253   */\n      dup8\n        /* \"#utility.yul\":4240:4262   */\n      add\n        /* \"#utility.yul\":4219:4272   */\n      tag_195\n      jump\t// in\n    tag_257:\n        /* \"#utility.yul\":4209:4272   */\n      swap3\n      pop\n        /* \"#utility.yul\":4164:4282   */\n      pop\n        /* \"#utility.yul\":4321:4323   */\n      0x40\n        /* \"#utility.yul\":4347:4400   */\n      tag_258\n        /* \"#utility.yul\":4392:4399   */\n      dup7\n        /* \"#utility.yul\":4383:4389   */\n      dup3\n        /* \"#utility.yul\":4372:4381   */\n      dup8\n        /* \"#utility.yul\":4368:4390   */\n      add\n        /* \"#utility.yul\":4347:4400   */\n      tag_198\n      jump\t// in\n    tag_258:\n        /* \"#utility.yul\":4337:4400   */\n      swap2\n      pop\n        /* \"#utility.yul\":4292:4410   */\n      pop\n        /* \"#utility.yul\":3798:4417   */\n      swap3\n      pop\n      swap3\n      pop\n      swap3\n      jump\t// out\n        /* \"#utility.yul\":4423:4509   */\n    tag_202:\n        /* \"#utility.yul\":4458:4465   */\n      0x00\n        /* \"#utility.yul\":4498:4502   */\n      0xff\n        /* \"#utility.yul\":4491:4496   */\n      dup3\n        /* \"#utility.yul\":4487:4503   */\n      and\n        /* \"#utility.yul\":4476:4503   */\n      swap1\n      pop\n        /* \"#utility.yul\":4423:4509   */\n      swap2\n      swap1\n      pop\n      jump\t// out\n        /* \"#utility.yul\":4515:4627   */\n    tag_203:\n        /* \"#utility.yul\":4598:4620   */\n      tag_261\n        /* \"#utility.yul\":4614:4619   */\n      dup2\n        /* \"#utility.yul\":4598:4620   */\n      tag_202\n      jump\t// in\n    tag_261:\n        /* \"#utility.yul\":4593:4596   */\n      dup3\n        /* \"#utility.yul\":4586:4621   */\n      mstore\n        /* \"#utility.yul\":4515:4627   */\n      pop\n      pop\n      jump\t// out\n        /* \"#utility.yul\":4633:4847   */\n    tag_51:\n        /* \"#utility.yul\":4722:4726   */\n      0x00\n        /* \"#utility.yul\":4760:4762   */\n      0x20\n        /* \"#utility.yul\":4749:4758   */\n      dup3\n        /* \"#utility.yul\":4745:4763   */\n      add\n        /* \"#utility.yul\":4737:4763   */\n      swap1\n      pop\n        /* \"#utility.yul\":4773:4840   */\n      tag_263\n        /* \"#utility.yul\":4837:4838   */\n      0x00\n        /* \"#utility.yul\":4826:4835   */\n      dup4\n        /* \"#utility.yul\":4822:4839   */\n      add\n        /* \"#utility.yul\":4813:4819   */\n      dup5\n        /* \"#utility.yul\":4773:4840   */\n      tag_203\n      jump\t// in\n    tag_263:\n        /* \"#utility.yul\":4633:4847   */\n      swap3\n      swap2\n      pop\n      pop\n      jump\t// out\n        /* \"#utility.yul\":4853:5182   */\n    tag_54:\n        /* \"#utility.yul\":4912:4918   */\n      0x00\n        /* \"#utility.yul\":4961:4963   */\n      0x20\n        /* \"#utility.yul\":4949:4958   */\n      dup3\n        /* \"#utility.yul\":4940:4947   */\n      dup5\n        /* \"#utility.yul\":4936:4959   */\n      sub\n        /* \"#utility.yul\":4932:4964   */\n      slt\n        /* \"#utility.yul\":4929:5048   */\n      iszero\n      tag_265\n      jumpi\n        /* \"#utility.yul\":4967:5046   */\n      tag_266\n      tag_190\n      jump\t// in\n    tag_266:\n        /* \"#utility.yul\":4929:5048   */\n    tag_265:\n        /* \"#utility.yul\":5087:5088   */\n      0x00\n        /* \"#utility.yul\":5112:5165   */\n      tag_267\n        /* \"#utility.yul\":5157:5164   */\n      dup5\n        /* \"#utility.yul\":5148:5154   */\n      dup3\n        /* \"#utility.yul\":5137:5146   */\n      dup6\n        /* \"#utility.yul\":5133:5155   */\n      add\n        /* \"#utility.yul\":5112:5165   */\n      tag_198\n      jump\t// in\n    tag_267:\n        /* \"#utility.yul\":5102:5165   */\n      swap2\n      pop\n        /* \"#utility.yul\":5058:5175   */\n      pop\n        /* \"#utility.yul\":4853:5182   */\n      swap3\n      swap2\n      pop\n      pop\n      jump\t// out\n        /* \"#utility.yul\":5188:5517   */\n    tag_69:\n        /* \"#utility.yul\":5247:5253   */\n      0x00\n        /* \"#utility.yul\":5296:5298   */\n      0x20\n        /* \"#utility.yul\":5284:5293   */\n      dup3\n        /* \"#utility.yul\":5275:5282   */\n      dup5\n        /* \"#utility.yul\":5271:5294   */\n      sub\n        /* \"#utility.yul\":5267:5299   */\n      slt\n        /* \"#utility.yul\":5264:5383   */\n      iszero\n      tag_269\n      jumpi\n        /* \"#utility.yul\":5302:5381   */\n      tag_270\n      tag_190\n      jump\t// in\n    tag_270:\n        /* \"#utility.yul\":5264:5383   */\n    tag_269:\n        /* \"#utility.yul\":5422:5423   */\n      0x00\n        /* \"#utility.yul\":5447:5500   */\n      tag_271\n        /* \"#utility.yul\":5492:5499   */\n      dup5\n        /* \"#utility.yul\":5483:5489   */\n      dup3\n        /* \"#utility.yul\":5472:5481   */\n      dup6\n        /* \"#utility.yul\":5468:5490   */\n      add\n        /* \"#utility.yul\":5447:5500   */\n      tag_195\n      jump\t// in\n    tag_271:\n        /* \"#utility.yul\":5437:5500   */\n      swap2\n      pop\n        /* \"#utility.yul\":5393:5510   */\n      pop\n        /* \"#utility.yul\":5188:5517   */\n      swap3\n      swap2\n      pop\n      pop\n      jump\t// out\n        /* \"#utility.yul\":5523:5641   */\n    tag_204:\n        /* \"#utility.yul\":5610:5634   */\n      tag_273\n        /* \"#utility.yul\":5628:5633   */\n      dup2\n        /* \"#utility.yul\":5610:5634   */\n      tag_193\n      jump\t// in\n    tag_273:\n        /* \"#utility.yul\":5605:5608   */\n      dup3\n        /* \"#utility.yul\":5598:5635   */\n      mstore\n        /* \"#utility.yul\":5523:5641   */\n      pop\n      pop\n      jump\t// out\n        /* \"#utility.yul\":5647:5869   */\n    tag_79:\n        /* \"#utility.yul\":5740:5744   */\n      0x00\n        /* \"#utility.yul\":5778:5780   */\n      0x20\n        /* \"#utility.yul\":5767:5776   */\n      dup3\n        /* \"#utility.yul\":5763:5781   */\n      add\n        /* \"#utility.yul\":5755:5781   */\n      swap1\n      pop\n        /* \"#utility.yul\":5791:5862   */\n      tag_275\n        /* \"#utility.yul\":5859:5860   */\n      0x00\n        /* \"#utility.yul\":5848:5857   */\n      dup4\n        /* \"#utility.yul\":5844:5861   */\n      add\n        /* \"#utility.yul\":5835:5841   */\n      dup5\n        /* \"#utility.yul\":5791:5862   */\n      tag_204\n      jump\t// in\n    tag_275:\n        /* \"#utility.yul\":5647:5869   */\n      swap3\n      swap2\n      pop\n      pop\n      jump\t// out\n        /* \"#utility.yul\":5875:6349   */\n    tag_101:\n        /* \"#utility.yul\":5943:5949   */\n      0x00\n        /* \"#utility.yul\":5951:5957   */\n      dup1\n        /* \"#utility.yul\":6000:6002   */\n      0x40\n        /* \"#utility.yul\":5988:5997   */\n      dup4\n        /* \"#utility.yul\":5979:5986   */\n      dup6\n        /* \"#utility.yul\":5975:5998   */\n      sub\n        /* \"#utility.yul\":5971:6003   */\n      slt\n        /* \"#utility.yul\":5968:6087   */\n      iszero\n      tag_277\n      jumpi\n        /* \"#utility.yul\":6006:6085   */\n      tag_278\n      tag_190\n      jump\t// in\n    tag_278:\n        /* \"#utility.yul\":5968:6087   */\n    tag_277:\n        /* \"#utility.yul\":6126:6127   */\n      0x00\n        /* \"#utility.yul\":6151:6204   */\n      tag_279\n        /* \"#utility.yul\":6196:6203   */\n      dup6\n        /* \"#utility.yul\":6187:6193   */\n      dup3\n        /* \"#utility.yul\":6176:6185   */\n      dup7\n        /* \"#utility.yul\":6172:6194   */\n      add\n        /* \"#utility.yul\":6151:6204   */\n      tag_195\n      jump\t// in\n    tag_279:\n        /* \"#utility.yul\":6141:6204   */\n      swap3\n      pop\n        /* \"#utility.yul\":6097:6214   */\n      pop\n        /* \"#utility.yul\":6253:6255   */\n      0x20\n        /* \"#utility.yul\":6279:6332   */\n      tag_280\n        /* \"#utility.yul\":6324:6331   */\n      dup6\n        /* \"#utility.yul\":6315:6321   */\n      dup3\n        /* \"#utility.yul\":6304:6313   */\n      dup7\n        /* \"#utility.yul\":6300:6322   */\n      add\n        /* \"#utility.yul\":6279:6332   */\n      tag_195\n      jump\t// in\n    tag_280:\n        /* \"#utility.yul\":6269:6332   */\n      swap2\n      pop\n        /* \"#utility.yul\":6224:6342   */\n      pop\n        /* \"#utility.yul\":5875:6349   */\n      swap3\n      pop\n      swap3\n      swap1\n      pop\n      jump\t// out\n        /* \"#utility.yul\":6355:6535   */\n    tag_205:\n        /* \"#utility.yul\":6403:6480   */\n      0x4e487b7100000000000000000000000000000000000000000000000000000000\n        /* \"#utility.yul\":6400:6401   */\n      0x00\n        /* \"#utility.yul\":6393:6481   */\n      mstore\n        /* \"#utility.yul\":6500:6504   */\n      0x22\n        /* \"#utility.yul\":6497:6498   */\n      0x04\n        /* \"#utility.yul\":6490:6505   */\n      mstore\n        /* \"#utility.yul\":6524:6528   */\n      0x24\n        /* \"#utility.yul\":6521:6522   */\n      0x00\n        /* \"#utility.yul\":6514:6529   */\n      revert\n        /* \"#utility.yul\":6541:6861   */\n    tag_105:\n        /* \"#utility.yul\":6585:6591   */\n      0x00\n        /* \"#utility.yul\":6622:6623   */\n      0x02\n        /* \"#utility.yul\":6616:6620   */\n      dup3\n        /* \"#utility.yul\":6612:6624   */\n      div\n        /* \"#utility.yul\":6602:6624   */\n      swap1\n      pop\n        /* \"#utility.yul\":6669:6670   */\n      0x01\n        /* \"#utility.yul\":6663:6667   */\n      dup3\n        /* \"#utility.yul\":6659:6671   */\n      and\n        /* \"#utility.yul\":6690:6708   */\n      dup1\n        /* \"#utility.yul\":6680:6761   */\n      tag_283\n      jumpi\n        /* \"#utility.yul\":6746:6750   */\n      0x7f\n        /* \"#utility.yul\":6738:6744   */\n      dup3\n        /* \"#utility.yul\":6734:6751   */\n      and\n        /* \"#utility.yul\":6724:6751   */\n      swap2\n      pop\n        /* \"#utility.yul\":6680:6761   */\n    tag_283:\n        /* \"#utility.yul\":6808:6810   */\n      0x20\n        /* \"#utility.yul\":6800:6806   */\n      dup3\n        /* \"#utility.yul\":6797:6811   */\n      lt\n        /* \"#utility.yul\":6777:6795   */\n      dup2\n        /* \"#utility.yul\":6774:6812   */\n      sub\n        /* \"#utility.yul\":6771:6855   */\n      tag_284\n      jumpi\n        /* \"#utility.yul\":6827:6845   */\n      tag_285\n      tag_205\n      jump\t// in\n    tag_285:\n        /* \"#utility.yul\":6771:6855   */\n    tag_284:\n        /* \"#utility.yul\":6592:6861   */\n      pop\n        /* \"#utility.yul\":6541:6861   */\n      swap2\n      swap1\n      pop\n      jump\t// out\n        /* \"#utility.yul\":6867:7047   */\n    tag_206:\n        /* \"#utility.yul\":6915:6992   */\n      0x4e487b7100000000000000000000000000000000000000000000000000000000\n        /* \"#utility.yul\":6912:6913   */\n      0x00\n        /* \"#utility.yul\":6905:6993   */\n      mstore\n        /* \"#utility.yul\":7012:7016   */\n      0x11\n        /* \"#utility.yul\":7009:7010   */\n      0x04\n        /* \"#utility.yul\":7002:7017   */\n      mstore\n        /* \"#utility.yul\":7036:7040   */\n      0x24\n        /* \"#utility.yul\":7033:7034   */\n      0x00\n        /* \"#utility.yul\":7026:7041   */\n      revert\n        /* \"#utility.yul\":7053:7244   */\n    tag_117:\n        /* \"#utility.yul\":7093:7096   */\n      0x00\n        /* \"#utility.yul\":7112:7132   */\n      tag_288\n        /* \"#utility.yul\":7130:7131   */\n      dup3\n        /* \"#utility.yul\":7112:7132   */\n      tag_196\n      jump\t// in\n    tag_288:\n        /* \"#utility.yul\":7107:7132   */\n      swap2\n      pop\n        /* \"#utility.yul\":7146:7166   */\n      tag_289\n        /* \"#utility.yul\":7164:7165   */\n      dup4\n        /* \"#utility.yul\":7146:7166   */\n      tag_196\n      jump\t// in\n    tag_289:\n        /* \"#utility.yul\":7141:7166   */\n      swap3\n      pop\n        /* \"#utility.yul\":7189:7190   */\n      dup3\n        /* \"#utility.yul\":7186:7187   */\n      dup3\n        /* \"#utility.yul\":7182:7191   */\n      add\n        /* \"#utility.yul\":7175:7191   */\n      swap1\n      pop\n        /* \"#utility.yul\":7210:7213   */\n      dup1\n        /* \"#utility.yul\":7207:7208   */\n      dup3\n        /* \"#utility.yul\":7204:7214   */\n      gt\n        /* \"#utility.yul\":7201:7237   */\n      iszero\n      tag_290\n      jumpi\n        /* \"#utility.yul\":7217:7235   */\n      tag_291\n      tag_206\n      jump\t// in\n    tag_291:\n        /* \"#utility.yul\":7201:7237   */\n    tag_290:\n        /* \"#utility.yul\":7053:7244   */\n      swap3\n      swap2\n      pop\n      pop\n      jump\t// out\n        /* \"#utility.yul\":7250:7430   */\n    tag_151:\n        /* \"#utility.yul\":7298:7375   */\n      0x4e487b7100000000000000000000000000000000000000000000000000000000\n        /* \"#utility.yul\":7295:7296   */\n      0x00\n        /* \"#utility.yul\":7288:7376   */\n      mstore\n        /* \"#utility.yul\":7395:7399   */\n      0x01\n        /* \"#utility.yul\":7392:7393   */\n      0x04\n        /* \"#utility.yul\":7385:7400   */\n      mstore\n        /* \"#utility.yul\":7419:7423   */\n      0x24\n        /* \"#utility.yul\":7416:7417   */\n      0x00\n        /* \"#utility.yul\":7409:7424   */\n      revert\n        /* \"#utility.yul\":7436:7630   */\n    tag_179:\n        /* \"#utility.yul\":7476:7480   */\n      0x00\n        /* \"#utility.yul\":7496:7516   */\n      tag_294\n        /* \"#utility.yul\":7514:7515   */\n      dup3\n        /* \"#utility.yul\":7496:7516   */\n      tag_196\n      jump\t// in\n    tag_294:\n        /* \"#utility.yul\":7491:7516   */\n      swap2\n      pop\n        /* \"#utility.yul\":7530:7550   */\n      tag_295\n        /* \"#utility.yul\":7548:7549   */\n      dup4\n        /* \"#utility.yul\":7530:7550   */\n      tag_196\n      jump\t// in\n    tag_295:\n        /* \"#utility.yul\":7525:7550   */\n      swap3\n      pop\n        /* \"#utility.yul\":7574:7575   */\n      dup3\n        /* \"#utility.yul\":7571:7572   */\n      dup3\n        /* \"#utility.yul\":7567:7576   */\n      sub\n        /* \"#utility.yul\":7559:7576   */\n      swap1\n      pop\n        /* \"#utility.yul\":7598:7599   */\n      dup2\n        /* \"#utility.yul\":7592:7596   */\n      dup2\n        /* \"#utility.yul\":7589:7600   */\n      gt\n        /* \"#utility.yul\":7586:7623   */\n      iszero\n      tag_296\n      jumpi\n        /* \"#utility.yul\":7603:7621   */\n      tag_297\n      tag_206\n      jump\t// in\n    tag_297:\n        /* \"#utility.yul\":7586:7623   */\n    tag_296:\n        /* \"#utility.yul\":7436:7630   */\n      swap3\n      swap2\n      pop\n      pop\n      jump\t// out\n\n    auxdata: 0xa26469706673582212209de4c133ab6cfec8878d5d9ccfbb52dad5eb2d664b3a7ee5cc9f81a5683ff67a64736f6c63430008120033\n}\n",
				"bytecode": {
					"linkReferences": {},
					"object": "60806040523480156200001157600080fd5b5060405162001fb138038062001fb1833981810160405281019062000037919062000327565b83600760003373ffffffffffffffffffffffffffffffffffffffff1673ffffffffffffffffffffffffffffffffffffffff16815260200190815260200160002081905550836005819055506000600681905550836003819055508260009081620000a2919062000618565b508060019081620000b4919062000618565b5081600260006101000a81548160ff021916908360ff16021790555033600460006101000a81548173ffffffffffffffffffffffffffffffffffffffff021916908373ffffffffffffffffffffffffffffffffffffffff16021790555050505050620006ff565b6000604051905090565b600080fd5b600080fd5b6000819050919050565b62000144816200012f565b81146200015057600080fd5b50565b600081519050620001648162000139565b92915050565b600080fd5b600080fd5b6000601f19601f8301169050919050565b7f4e487b7100000000000000000000000000000000000000000000000000000000600052604160045260246000fd5b620001bf8262000174565b810181811067ffffffffffffffff82111715620001e157620001e062000185565b5b80604052505050565b6000620001f66200011b565b9050620002048282620001b4565b919050565b600067ffffffffffffffff82111562000227576200022662000185565b5b620002328262000174565b9050602081019050919050565b60005b838110156200025f57808201518184015260208101905062000242565b60008484015250505050565b6000620002826200027c8462000209565b620001ea565b905082815260208101848484011115620002a157620002a06200016f565b5b620002ae8482856200023f565b509392505050565b600082601f830112620002ce57620002cd6200016a565b5b8151620002e08482602086016200026b565b91505092915050565b600060ff82169050919050565b6200030181620002e9565b81146200030d57600080fd5b50565b6000815190506200032181620002f6565b92915050565b6000806000806080858703121562000344576200034362000125565b5b6000620003548782880162000153565b945050602085015167ffffffffffffffff8111156200037857620003776200012a565b5b6200038687828801620002b6565b9350506040620003998782880162000310565b925050606085015167ffffffffffffffff811115620003bd57620003bc6200012a565b5b620003cb87828801620002b6565b91505092959194509250565b600081519050919050565b7f4e487b7100000000000000000000000000000000000000000000000000000000600052602260045260246000fd5b600060028204905060018216806200042a57607f821691505b60208210810362000440576200043f620003e2565b5b50919050565b60008190508160005260206000209050919050565b60006020601f8301049050919050565b600082821b905092915050565b600060088302620004aa7fffffffffffffffffffffffffffffffffffffffffffffffffffffffffffffffff826200046b565b620004b686836200046b565b95508019841693508086168417925050509392505050565b6000819050919050565b6000620004f9620004f3620004ed846200012f565b620004ce565b6200012f565b9050919050565b6000819050919050565b6200051583620004d8565b6200052d620005248262000500565b84845462000478565b825550505050565b600090565b6200054462000535565b620005518184846200050a565b505050565b5b8181101562000579576200056d6000826200053a565b60018101905062000557565b5050565b601f821115620005c857620005928162000446565b6200059d846200045b565b81016020851015620005ad578190505b620005c5620005bc856200045b565b83018262000556565b50505b505050565b600082821c905092915050565b6000620005ed60001984600802620005cd565b1980831691505092915050565b6000620006088383620005da565b9150826002028217905092915050565b6200062382620003d7565b67ffffffffffffffff8111156200063f576200063e62000185565b5b6200064b825462000411565b620006588282856200057d565b600060209050601f8311600181146200069057600084156200067b578287015190505b620006878582620005fa565b865550620006f7565b601f198416620006a08662000446565b60005b82811015620006ca57848901518255600182019150602085019450602081019050620006a3565b86831015620006ea5784890151620006e6601f891682620005da565b8355505b6001600288020188555050505b505050505050565b6118a2806200070f6000396000f3fe6080604052600436106100f75760003560e01c806370a082311161008a578063a9059cbb11610059578063a9059cbb14610335578063cd4217c11461035e578063d7a78db81461039b578063dd62ed3e146103d8576100f8565b806370a082311461028b5780637fb28a2b146102c85780638da5cb5b146102df57806395d89b411461030a576100f8565b8063313ce567116100c6578063313ce567146101ca5780633bed33ce146101f557806342966c68146102115780636623fc461461024e576100f8565b806306fdde03146100fa578063095ea7b31461012557806318160ddd1461016257806323b872dd1461018d576100f8565b5b005b34801561010657600080fd5b5061010f610415565b60405161011c919061149d565b60405180910390f35b34801561013157600080fd5b5061014c60048036038101906101479190611558565b6104a3565b60405161015991906115b3565b60405180910390f35b34801561016e57600080fd5b5061017761053c565b60405161018491906115dd565b60405180910390f35b34801561019957600080fd5b506101b460048036038101906101af91906115f8565b610542565b6040516101c191906115b3565b60405180910390f35b3480156101d657600080fd5b506101df6109a6565b6040516101ec9190611667565b60405180910390f35b61020f600480360381019061020a9190611682565b6109b9565b005b34801561021d57600080fd5b5061023860048036038101906102339190611682565b610a7f565b60405161024591906115b3565b60405180910390f35b34801561025a57600080fd5b5061027560048036038101906102709190611682565b610be1565b60405161028291906115b3565b60405180910390f35b34801561029757600080fd5b506102b260048036038101906102ad91906116af565b610dcf565b6040516102bf91906115dd565b60405180910390f35b3480156102d457600080fd5b506102dd610de7565b005b3480156102eb57600080fd5b506102f4610e0a565b60405161030191906116eb565b60405180910390f35b34801561031657600080fd5b5061031f610e30565b60405161032c919061149d565b60405180910390f35b34801561034157600080fd5b5061035c60048036038101906103579190611558565b610ebe565b005b34801561036a57600080fd5b50610385600480360381019061038091906116af565b61118b565b60405161039291906115dd565b60405180910390f35b3480156103a757600080fd5b506103c260048036038101906103bd9190611682565b6111a3565b6040516103cf91906115b3565b60405180910390f35b3480156103e457600080fd5b506103ff60048036038101906103fa9190611706565b611391565b60405161040c91906115dd565b60405180910390f35b6000805461042290611775565b80601f016020809104026020016040519081016040528092919081815260200182805461044e90611775565b801561049b5780601f106104705761010080835404028352916020019161049b565b820191906000526020600020905b81548152906001019060200180831161047e57829003601f168201915b505050505081565b60008082116104b157600080fd5b81600960003373ffffffffffffffffffffffffffffffffffffffff1673ffffffffffffffffffffffffffffffffffffffff16815260200190815260200160002060008573ffffffffffffffffffffffffffffffffffffffff1673ffffffffffffffffffffffffffffffffffffffff168152602001908152602001600020819055506001905092915050565b60035481565b60008073ffffffffffffffffffffffffffffffffffffffff168373ffffffffffffffffffffffffffffffffffffffff160361057c57600080fd5b6000821161058957600080fd5b81600760008673ffffffffffffffffffffffffffffffffffffffff1673ffffffffffffffffffffffffffffffffffffffff1681526020019081526020016000205410156105d557600080fd5b600760008473ffffffffffffffffffffffffffffffffffffffff1673ffffffffffffffffffffffffffffffffffffffff1681526020019081526020016000205482600760008673ffffffffffffffffffffffffffffffffffffffff1673ffffffffffffffffffffffffffffffffffffffff1681526020019081526020016000205461066091906117d5565b101561066b57600080fd5b600960008573ffffffffffffffffffffffffffffffffffffffff1673ffffffffffffffffffffffffffffffffffffffff16815260200190815260200160002060003373ffffffffffffffffffffffffffffffffffffffff1673ffffffffffffffffffffffffffffffffffffffff168152602001908152602001600020548211156106f457600080fd5b61073d600760008673ffffffffffffffffffffffffffffffffffffffff1673ffffffffffffffffffffffffffffffffffffffff16815260200190815260200160002054836113b6565b600760008673ffffffffffffffffffffffffffffffffffffffff1673ffffffffffffffffffffffffffffffffffffffff1681526020019081526020016000208190555061078c600554836113b6565b6005819055506107db600760008573ffffffffffffffffffffffffffffffffffffffff1673ffffffffffffffffffffffffffffffffffffffff16815260200190815260200160002054836113d9565b600760008573ffffffffffffffffffffffffffffffffffffffff1673ffffffffffffffffffffffffffffffffffffffff1681526020019081526020016000208190555061082a600554836113d9565b6005819055506108b6600960008673ffffffffffffffffffffffffffffffffffffffff1673ffffffffffffffffffffffffffffffffffffffff16815260200190815260200160002060003373ffffffffffffffffffffffffffffffffffffffff1673ffffffffffffffffffffffffffffffffffffffff16815260200190815260200160002054836113b6565b600960008673ffffffffffffffffffffffffffffffffffffffff1673ffffffffffffffffffffffffffffffffffffffff16815260200190815260200160002060003373ffffffffffffffffffffffffffffffffffffffff1673ffffffffffffffffffffffffffffffffffffffff168152602001908152602001600020819055508273ffffffffffffffffffffffffffffffffffffffff168473ffffffffffffffffffffffffffffffffffffffff167fddf252ad1be2c89b69c2b068fc378daa952ba7f163c4a11628f55a4df523b3ef8460405161099391906115dd565b60405180910390a3600190509392505050565b600260009054906101000a900460ff1681565b600460009054906101000a900473ffffffffffffffffffffffffffffffffffffffff1673ffffffffffffffffffffffffffffffffffffffff163373ffffffffffffffffffffffffffffffffffffffff1614610a1357600080fd5b600460009054906101000a900473ffffffffffffffffffffffffffffffffffffffff1673ffffffffffffffffffffffffffffffffffffffff166108fc829081150290604051600060405180830381858888f19350505050158015610a7b573d6000803e3d6000fd5b5050565b600081600760003373ffffffffffffffffffffffffffffffffffffffff1673ffffffffffffffffffffffffffffffffffffffff168152602001908152602001600020541015610acd57600080fd5b60008211610ada57600080fd5b610b23600760003373ffffffffffffffffffffffffffffffffffffffff1673ffffffffffffffffffffffffffffffffffffffff16815260200190815260200160002054836113b6565b600760003373ffffffffffffffffffffffffffffffffffffffff1673ffffffffffffffffffffffffffffffffffffffff16815260200190815260200160002081905550610b72600554836113b6565b600581905550610b84600354836113b6565b6003819055503373ffffffffffffffffffffffffffffffffffffffff167fcc16f5dbb4873280815c1ee09dbd06736cffcc184412cf7a71a0fdb75d397ca583604051610bd091906115dd565b60405180910390a260019050919050565b600081600860003373ffffffffffffffffffffffffffffffffffffffff1673ffffffffffffffffffffffffffffffffffffffff168152602001908152602001600020541015610c2f57600080fd5b60008211610c3c57600080fd5b610c85600860003373ffffffffffffffffffffffffffffffffffffffff1673ffffffffffffffffffffffffffffffffffffffff16815260200190815260200160002054836113b6565b600860003373ffffffffffffffffffffffffffffffffffffffff1673ffffffffffffffffffffffffffffffffffffffff16815260200190815260200160002081905550610cd4600654836113b6565b600681905550610d23600760003373ffffffffffffffffffffffffffffffffffffffff1673ffffffffffffffffffffffffffffffffffffffff16815260200190815260200160002054836113d9565b600760003373ffffffffffffffffffffffffffffffffffffffff1673ffffffffffffffffffffffffffffffffffffffff16815260200190815260200160002081905550610d72600554836113d9565b6005819055503373ffffffffffffffffffffffffffffffffffffffff167f2cfce4af01bcb9d6cf6c84ee1b7c491100b8695368264146a94d71e10a63083f83604051610dbe91906115dd565b60405180910390a260019050919050565b60076020528060005260406000206000915090505481565b600354600654600554610dfa91906117d5565b14610e0857610e07611809565b5b565b600460009054906101000a900473ffffffffffffffffffffffffffffffffffffffff1681565b60018054610e3d90611775565b80601f0160208091040260200160405190810160405280929190818152602001828054610e6990611775565b8015610eb65780601f10610e8b57610100808354040283529160200191610eb6565b820191906000526020600020905b815481529060010190602001808311610e9957829003601f168201915b505050505081565b600073ffffffffffffffffffffffffffffffffffffffff168273ffffffffffffffffffffffffffffffffffffffff1603610ef757600080fd5b60008111610f0457600080fd5b80600760003373ffffffffffffffffffffffffffffffffffffffff1673ffffffffffffffffffffffffffffffffffffffff168152602001908152602001600020541015610f5057600080fd5b600760008373ffffffffffffffffffffffffffffffffffffffff1673ffffffffffffffffffffffffffffffffffffffff1681526020019081526020016000205481600760008573ffffffffffffffffffffffffffffffffffffffff1673ffffffffffffffffffffffffffffffffffffffff16815260200190815260200160002054610fdb91906117d5565b1015610fe657600080fd5b61102f600760003373ffffffffffffffffffffffffffffffffffffffff1673ffffffffffffffffffffffffffffffffffffffff16815260200190815260200160002054826113b6565b600760003373ffffffffffffffffffffffffffffffffffffffff1673ffffffffffffffffffffffffffffffffffffffff1681526020019081526020016000208190555061107e600554826113b6565b6005819055506110cd600760008473ffffffffffffffffffffffffffffffffffffffff1673ffffffffffffffffffffffffffffffffffffffff16815260200190815260200160002054826113d9565b600760008473ffffffffffffffffffffffffffffffffffffffff1673ffffffffffffffffffffffffffffffffffffffff1681526020019081526020016000208190555061111c600554826113d9565b6005819055508173ffffffffffffffffffffffffffffffffffffffff163373ffffffffffffffffffffffffffffffffffffffff167fddf252ad1be2c89b69c2b068fc378daa952ba7f163c4a11628f55a4df523b3ef8360405161117f91906115dd565b60405180910390a35050565b60086020528060005260406000206000915090505481565b600081600760003373ffffffffffffffffffffffffffffffffffffffff1673ffffffffffffffffffffffffffffffffffffffff1681526020019081526020016000205410156111f157600080fd5b600082116111fe57600080fd5b611247600760003373ffffffffffffffffffffffffffffffffffffffff1673ffffffffffffffffffffffffffffffffffffffff16815260200190815260200160002054836113b6565b600760003373ffffffffffffffffffffffffffffffffffffffff1673ffffffffffffffffffffffffffffffffffffffff16815260200190815260200160002081905550611296600554836113b6565b6005819055506112e5600860003373ffffffffffffffffffffffffffffffffffffffff1673ffffffffffffffffffffffffffffffffffffffff16815260200190815260200160002054836113d9565b600860003373ffffffffffffffffffffffffffffffffffffffff1673ffffffffffffffffffffffffffffffffffffffff16815260200190815260200160002081905550611334600654836113d9565b6006819055503373ffffffffffffffffffffffffffffffffffffffff167ff97a274face0b5517365ad396b1fdba6f68bd3135ef603e44272adba3af5a1e08360405161138091906115dd565b60405180910390a260019050919050565b6009602052816000526040600020602052806000526040600020600091509150505481565b6000828211156113c557600080fd5b81836113d19190611838565b905092915050565b60008082846113e891906117d5565b90508381101580156113fa5750828110155b61140357600080fd5b8091505092915050565b600081519050919050565b600082825260208201905092915050565b60005b8381101561144757808201518184015260208101905061142c565b60008484015250505050565b6000601f19601f8301169050919050565b600061146f8261140d565b6114798185611418565b9350611489818560208601611429565b61149281611453565b840191505092915050565b600060208201905081810360008301526114b78184611464565b905092915050565b600080fd5b600073ffffffffffffffffffffffffffffffffffffffff82169050919050565b60006114ef826114c4565b9050919050565b6114ff816114e4565b811461150a57600080fd5b50565b60008135905061151c816114f6565b92915050565b6000819050919050565b61153581611522565b811461154057600080fd5b50565b6000813590506115528161152c565b92915050565b6000806040838503121561156f5761156e6114bf565b5b600061157d8582860161150d565b925050602061158e85828601611543565b9150509250929050565b60008115159050919050565b6115ad81611598565b82525050565b60006020820190506115c860008301846115a4565b92915050565b6115d781611522565b82525050565b60006020820190506115f260008301846115ce565b92915050565b600080600060608486031215611611576116106114bf565b5b600061161f8682870161150d565b93505060206116308682870161150d565b925050604061164186828701611543565b9150509250925092565b600060ff82169050919050565b6116618161164b565b82525050565b600060208201905061167c6000830184611658565b92915050565b600060208284031215611698576116976114bf565b5b60006116a684828501611543565b91505092915050565b6000602082840312156116c5576116c46114bf565b5b60006116d38482850161150d565b91505092915050565b6116e5816114e4565b82525050565b600060208201905061170060008301846116dc565b92915050565b6000806040838503121561171d5761171c6114bf565b5b600061172b8582860161150d565b925050602061173c8582860161150d565b9150509250929050565b7f4e487b7100000000000000000000000000000000000000000000000000000000600052602260045260246000fd5b6000600282049050600182168061178d57607f821691505b6020821081036117a05761179f611746565b5b50919050565b7f4e487b7100000000000000000000000000000000000000000000000000000000600052601160045260246000fd5b60006117e082611522565b91506117eb83611522565b9250828201905080821115611803576118026117a6565b5b92915050565b7f4e487b7100000000000000000000000000000000000000000000000000000000600052600160045260246000fd5b600061184382611522565b915061184e83611522565b9250828203905081811115611866576118656117a6565b5b9291505056fea26469706673582212209de4c133ab6cfec8878d5d9ccfbb52dad5eb2d664b3a7ee5cc9f81a5683ff67a64736f6c63430008120033",
					"opcodes": "PUSH1 0x80 PUSH1 0x40 MSTORE CALLVALUE DUP1 ISZERO PUSH3 0x11 JUMPI PUSH1 0x0 DUP1 REVERT JUMPDEST POP PUSH1 0x40 MLOAD PUSH3 0x1FB1 CODESIZE SUB DUP1 PUSH3 0x1FB1 DUP4 CODECOPY DUP2 DUP2 ADD PUSH1 0x40 MSTORE DUP2 ADD SWAP1 PUSH3 0x37 SWAP2 SWAP1 PUSH3 0x327 JUMP JUMPDEST DUP4 PUSH1 0x7 PUSH1 0x0 CALLER PUSH20 0xFFFFFFFFFFFFFFFFFFFFFFFFFFFFFFFFFFFFFFFF AND PUSH20 0xFFFFFFFFFFFFFFFFFFFFFFFFFFFFFFFFFFFFFFFF AND DUP2 MSTORE PUSH1 0x20 ADD SWAP1 DUP2 MSTORE PUSH1 0x20 ADD PUSH1 0x0 KECCAK256 DUP2 SWAP1 SSTORE POP DUP4 PUSH1 0x5 DUP2 SWAP1 SSTORE POP PUSH1 0x0 PUSH1 0x6 DUP2 SWAP1 SSTORE POP DUP4 PUSH1 0x3 DUP2 SWAP1 SSTORE POP DUP3 PUSH1 0x0 SWAP1 DUP2 PUSH3 0xA2 SWAP2 SWAP1 PUSH3 0x618 JUMP JUMPDEST POP DUP1 PUSH1 0x1 SWAP1 DUP2 PUSH3 0xB4 SWAP2 SWAP1 PUSH3 0x618 JUMP JUMPDEST POP DUP2 PUSH1 0x2 PUSH1 0x0 PUSH2 0x100 EXP DUP2 SLOAD DUP2 PUSH1 0xFF MUL NOT AND SWAP1 DUP4 PUSH1 0xFF AND MUL OR SWAP1 SSTORE POP CALLER PUSH1 0x4 PUSH1 0x0 PUSH2 0x100 EXP DUP2 SLOAD DUP2 PUSH20 0xFFFFFFFFFFFFFFFFFFFFFFFFFFFFFFFFFFFFFFFF MUL NOT AND SWAP1 DUP4 PUSH20 0xFFFFFFFFFFFFFFFFFFFFFFFFFFFFFFFFFFFFFFFF AND MUL OR SWAP1 SSTORE POP POP POP POP POP PUSH3 0x6FF JUMP JUMPDEST PUSH1 0x0 PUSH1 0x40 MLOAD SWAP1 POP SWAP1 JUMP JUMPDEST PUSH1 0x0 DUP1 REVERT JUMPDEST PUSH1 0x0 DUP1 REVERT JUMPDEST PUSH1 0x0 DUP2 SWAP1 POP SWAP2 SWAP1 POP JUMP JUMPDEST PUSH3 0x144 DUP2 PUSH3 0x12F JUMP JUMPDEST DUP2 EQ PUSH3 0x150 JUMPI PUSH1 0x0 DUP1 REVERT JUMPDEST POP JUMP JUMPDEST PUSH1 0x0 DUP2 MLOAD SWAP1 POP PUSH3 0x164 DUP2 PUSH3 0x139 JUMP JUMPDEST SWAP3 SWAP2 POP POP JUMP JUMPDEST PUSH1 0x0 DUP1 REVERT JUMPDEST PUSH1 0x0 DUP1 REVERT JUMPDEST PUSH1 0x0 PUSH1 0x1F NOT PUSH1 0x1F DUP4 ADD AND SWAP1 POP SWAP2 SWAP1 POP JUMP JUMPDEST PUSH32 0x4E487B7100000000000000000000000000000000000000000000000000000000 PUSH1 0x0 MSTORE PUSH1 0x41 PUSH1 0x4 MSTORE PUSH1 0x24 PUSH1 0x0 REVERT JUMPDEST PUSH3 0x1BF DUP3 PUSH3 0x174 JUMP JUMPDEST DUP2 ADD DUP2 DUP2 LT PUSH8 0xFFFFFFFFFFFFFFFF DUP3 GT OR ISZERO PUSH3 0x1E1 JUMPI PUSH3 0x1E0 PUSH3 0x185 JUMP JUMPDEST JUMPDEST DUP1 PUSH1 0x40 MSTORE POP POP POP JUMP JUMPDEST PUSH1 0x0 PUSH3 0x1F6 PUSH3 0x11B JUMP JUMPDEST SWAP1 POP PUSH3 0x204 DUP3 DUP3 PUSH3 0x1B4 JUMP JUMPDEST SWAP2 SWAP1 POP JUMP JUMPDEST PUSH1 0x0 PUSH8 0xFFFFFFFFFFFFFFFF DUP3 GT ISZERO PUSH3 0x227 JUMPI PUSH3 0x226 PUSH3 0x185 JUMP JUMPDEST JUMPDEST PUSH3 0x232 DUP3 PUSH3 0x174 JUMP JUMPDEST SWAP1 POP PUSH1 0x20 DUP2 ADD SWAP1 POP SWAP2 SWAP1 POP JUMP JUMPDEST PUSH1 0x0 JUMPDEST DUP4 DUP2 LT ISZERO PUSH3 0x25F JUMPI DUP1 DUP3 ADD MLOAD DUP2 DUP5 ADD MSTORE PUSH1 0x20 DUP2 ADD SWAP1 POP PUSH3 0x242 JUMP JUMPDEST PUSH1 0x0 DUP5 DUP5 ADD MSTORE POP POP POP POP JUMP JUMPDEST PUSH1 0x0 PUSH3 0x282 PUSH3 0x27C DUP5 PUSH3 0x209 JUMP JUMPDEST PUSH3 0x1EA JUMP JUMPDEST SWAP1 POP DUP3 DUP2 MSTORE PUSH1 0x20 DUP2 ADD DUP5 DUP5 DUP5 ADD GT ISZERO PUSH3 0x2A1 JUMPI PUSH3 0x2A0 PUSH3 0x16F JUMP JUMPDEST JUMPDEST PUSH3 0x2AE DUP5 DUP3 DUP6 PUSH3 0x23F JUMP JUMPDEST POP SWAP4 SWAP3 POP POP POP JUMP JUMPDEST PUSH1 0x0 DUP3 PUSH1 0x1F DUP4 ADD SLT PUSH3 0x2CE JUMPI PUSH3 0x2CD PUSH3 0x16A JUMP JUMPDEST JUMPDEST DUP2 MLOAD PUSH3 0x2E0 DUP5 DUP3 PUSH1 0x20 DUP7 ADD PUSH3 0x26B JUMP JUMPDEST SWAP2 POP POP SWAP3 SWAP2 POP POP JUMP JUMPDEST PUSH1 0x0 PUSH1 0xFF DUP3 AND SWAP1 POP SWAP2 SWAP1 POP JUMP JUMPDEST PUSH3 0x301 DUP2 PUSH3 0x2E9 JUMP JUMPDEST DUP2 EQ PUSH3 0x30D JUMPI PUSH1 0x0 DUP1 REVERT JUMPDEST POP JUMP JUMPDEST PUSH1 0x0 DUP2 MLOAD SWAP1 POP PUSH3 0x321 DUP2 PUSH3 0x2F6 JUMP JUMPDEST SWAP3 SWAP2 POP POP JUMP JUMPDEST PUSH1 0x0 DUP1 PUSH1 0x0 DUP1 PUSH1 0x80 DUP6 DUP8 SUB SLT ISZERO PUSH3 0x344 JUMPI PUSH3 0x343 PUSH3 0x125 JUMP JUMPDEST JUMPDEST PUSH1 0x0 PUSH3 0x354 DUP8 DUP3 DUP9 ADD PUSH3 0x153 JUMP JUMPDEST SWAP5 POP POP PUSH1 0x20 DUP6 ADD MLOAD PUSH8 0xFFFFFFFFFFFFFFFF DUP2 GT ISZERO PUSH3 0x378 JUMPI PUSH3 0x377 PUSH3 0x12A JUMP JUMPDEST JUMPDEST PUSH3 0x386 DUP8 DUP3 DUP9 ADD PUSH3 0x2B6 JUMP JUMPDEST SWAP4 POP POP PUSH1 0x40 PUSH3 0x399 DUP8 DUP3 DUP9 ADD PUSH3 0x310 JUMP JUMPDEST SWAP3 POP POP PUSH1 0x60 DUP6 ADD MLOAD PUSH8 0xFFFFFFFFFFFFFFFF DUP2 GT ISZERO PUSH3 0x3BD JUMPI PUSH3 0x3BC PUSH3 0x12A JUMP JUMPDEST JUMPDEST PUSH3 0x3CB DUP8 DUP3 DUP9 ADD PUSH3 0x2B6 JUMP JUMPDEST SWAP2 POP POP SWAP3 SWAP6 SWAP2 SWAP5 POP SWAP3 POP JUMP JUMPDEST PUSH1 0x0 DUP2 MLOAD SWAP1 POP SWAP2 SWAP1 POP JUMP JUMPDEST PUSH32 0x4E487B7100000000000000000000000000000000000000000000000000000000 PUSH1 0x0 MSTORE PUSH1 0x22 PUSH1 0x4 MSTORE PUSH1 0x24 PUSH1 0x0 REVERT JUMPDEST PUSH1 0x0 PUSH1 0x2 DUP3 DIV SWAP1 POP PUSH1 0x1 DUP3 AND DUP1 PUSH3 0x42A JUMPI PUSH1 0x7F DUP3 AND SWAP2 POP JUMPDEST PUSH1 0x20 DUP3 LT DUP2 SUB PUSH3 0x440 JUMPI PUSH3 0x43F PUSH3 0x3E2 JUMP JUMPDEST JUMPDEST POP SWAP2 SWAP1 POP JUMP JUMPDEST PUSH1 0x0 DUP2 SWAP1 POP DUP2 PUSH1 0x0 MSTORE PUSH1 0x20 PUSH1 0x0 KECCAK256 SWAP1 POP SWAP2 SWAP1 POP JUMP JUMPDEST PUSH1 0x0 PUSH1 0x20 PUSH1 0x1F DUP4 ADD DIV SWAP1 POP SWAP2 SWAP1 POP JUMP JUMPDEST PUSH1 0x0 DUP3 DUP3 SHL SWAP1 POP SWAP3 SWAP2 POP POP JUMP JUMPDEST PUSH1 0x0 PUSH1 0x8 DUP4 MUL PUSH3 0x4AA PUSH32 0xFFFFFFFFFFFFFFFFFFFFFFFFFFFFFFFFFFFFFFFFFFFFFFFFFFFFFFFFFFFFFFFF DUP3 PUSH3 0x46B JUMP JUMPDEST PUSH3 0x4B6 DUP7 DUP4 PUSH3 0x46B JUMP JUMPDEST SWAP6 POP DUP1 NOT DUP5 AND SWAP4 POP DUP1 DUP7 AND DUP5 OR SWAP3 POP POP POP SWAP4 SWAP3 POP POP POP JUMP JUMPDEST PUSH1 0x0 DUP2 SWAP1 POP SWAP2 SWAP1 POP JUMP JUMPDEST PUSH1 0x0 PUSH3 0x4F9 PUSH3 0x4F3 PUSH3 0x4ED DUP5 PUSH3 0x12F JUMP JUMPDEST PUSH3 0x4CE JUMP JUMPDEST PUSH3 0x12F JUMP JUMPDEST SWAP1 POP SWAP2 SWAP1 POP JUMP JUMPDEST PUSH1 0x0 DUP2 SWAP1 POP SWAP2 SWAP1 POP JUMP JUMPDEST PUSH3 0x515 DUP4 PUSH3 0x4D8 JUMP JUMPDEST PUSH3 0x52D PUSH3 0x524 DUP3 PUSH3 0x500 JUMP JUMPDEST DUP5 DUP5 SLOAD PUSH3 0x478 JUMP JUMPDEST DUP3 SSTORE POP POP POP POP JUMP JUMPDEST PUSH1 0x0 SWAP1 JUMP JUMPDEST PUSH3 0x544 PUSH3 0x535 JUMP JUMPDEST PUSH3 0x551 DUP2 DUP5 DUP5 PUSH3 0x50A JUMP JUMPDEST POP POP POP JUMP JUMPDEST JUMPDEST DUP2 DUP2 LT ISZERO PUSH3 0x579 JUMPI PUSH3 0x56D PUSH1 0x0 DUP3 PUSH3 0x53A JUMP JUMPDEST PUSH1 0x1 DUP2 ADD SWAP1 POP PUSH3 0x557 JUMP JUMPDEST POP POP JUMP JUMPDEST PUSH1 0x1F DUP3 GT ISZERO PUSH3 0x5C8 JUMPI PUSH3 0x592 DUP2 PUSH3 0x446 JUMP JUMPDEST PUSH3 0x59D DUP5 PUSH3 0x45B JUMP JUMPDEST DUP2 ADD PUSH1 0x20 DUP6 LT ISZERO PUSH3 0x5AD JUMPI DUP2 SWAP1 POP JUMPDEST PUSH3 0x5C5 PUSH3 0x5BC DUP6 PUSH3 0x45B JUMP JUMPDEST DUP4 ADD DUP3 PUSH3 0x556 JUMP JUMPDEST POP POP JUMPDEST POP POP POP JUMP JUMPDEST PUSH1 0x0 DUP3 DUP3 SHR SWAP1 POP SWAP3 SWAP2 POP POP JUMP JUMPDEST PUSH1 0x0 PUSH3 0x5ED PUSH1 0x0 NOT DUP5 PUSH1 0x8 MUL PUSH3 0x5CD JUMP JUMPDEST NOT DUP1 DUP4 AND SWAP2 POP POP SWAP3 SWAP2 POP POP JUMP JUMPDEST PUSH1 0x0 PUSH3 0x608 DUP4 DUP4 PUSH3 0x5DA JUMP JUMPDEST SWAP2 POP DUP3 PUSH1 0x2 MUL DUP3 OR SWAP1 POP SWAP3 SWAP2 POP POP JUMP JUMPDEST PUSH3 0x623 DUP3 PUSH3 0x3D7 JUMP JUMPDEST PUSH8 0xFFFFFFFFFFFFFFFF DUP2 GT ISZERO PUSH3 0x63F JUMPI PUSH3 0x63E PUSH3 0x185 JUMP JUMPDEST JUMPDEST PUSH3 0x64B DUP3 SLOAD PUSH3 0x411 JUMP JUMPDEST PUSH3 0x658 DUP3 DUP3 DUP6 PUSH3 0x57D JUMP JUMPDEST PUSH1 0x0 PUSH1 0x20 SWAP1 POP PUSH1 0x1F DUP4 GT PUSH1 0x1 DUP2 EQ PUSH3 0x690 JUMPI PUSH1 0x0 DUP5 ISZERO PUSH3 0x67B JUMPI DUP3 DUP8 ADD MLOAD SWAP1 POP JUMPDEST PUSH3 0x687 DUP6 DUP3 PUSH3 0x5FA JUMP JUMPDEST DUP7 SSTORE POP PUSH3 0x6F7 JUMP JUMPDEST PUSH1 0x1F NOT DUP5 AND PUSH3 0x6A0 DUP7 PUSH3 0x446 JUMP JUMPDEST PUSH1 0x0 JUMPDEST DUP3 DUP2 LT ISZERO PUSH3 0x6CA JUMPI DUP5 DUP10 ADD MLOAD DUP3 SSTORE PUSH1 0x1 DUP3 ADD SWAP2 POP PUSH1 0x20 DUP6 ADD SWAP5 POP PUSH1 0x20 DUP2 ADD SWAP1 POP PUSH3 0x6A3 JUMP JUMPDEST DUP7 DUP4 LT ISZERO PUSH3 0x6EA JUMPI DUP5 DUP10 ADD MLOAD PUSH3 0x6E6 PUSH1 0x1F DUP10 AND DUP3 PUSH3 0x5DA JUMP JUMPDEST DUP4 SSTORE POP JUMPDEST PUSH1 0x1 PUSH1 0x2 DUP9 MUL ADD DUP9 SSTORE POP POP POP JUMPDEST POP POP POP POP POP POP JUMP JUMPDEST PUSH2 0x18A2 DUP1 PUSH3 0x70F PUSH1 0x0 CODECOPY PUSH1 0x0 RETURN INVALID PUSH1 0x80 PUSH1 0x40 MSTORE PUSH1 0x4 CALLDATASIZE LT PUSH2 0xF7 JUMPI PUSH1 0x0 CALLDATALOAD PUSH1 0xE0 SHR DUP1 PUSH4 0x70A08231 GT PUSH2 0x8A JUMPI DUP1 PUSH4 0xA9059CBB GT PUSH2 0x59 JUMPI DUP1 PUSH4 0xA9059CBB EQ PUSH2 0x335 JUMPI DUP1 PUSH4 0xCD4217C1 EQ PUSH2 0x35E JUMPI DUP1 PUSH4 0xD7A78DB8 EQ PUSH2 0x39B JUMPI DUP1 PUSH4 0xDD62ED3E EQ PUSH2 0x3D8 JUMPI PUSH2 0xF8 JUMP JUMPDEST DUP1 PUSH4 0x70A08231 EQ PUSH2 0x28B JUMPI DUP1 PUSH4 0x7FB28A2B EQ PUSH2 0x2C8 JUMPI DUP1 PUSH4 0x8DA5CB5B EQ PUSH2 0x2DF JUMPI DUP1 PUSH4 0x95D89B41 EQ PUSH2 0x30A JUMPI PUSH2 0xF8 JUMP JUMPDEST DUP1 PUSH4 0x313CE567 GT PUSH2 0xC6 JUMPI DUP1 PUSH4 0x313CE567 EQ PUSH2 0x1CA JUMPI DUP1 PUSH4 0x3BED33CE EQ PUSH2 0x1F5 JUMPI DUP1 PUSH4 0x42966C68 EQ PUSH2 0x211 JUMPI DUP1 PUSH4 0x6623FC46 EQ PUSH2 0x24E JUMPI PUSH2 0xF8 JUMP JUMPDEST DUP1 PUSH4 0x6FDDE03 EQ PUSH2 0xFA JUMPI DUP1 PUSH4 0x95EA7B3 EQ PUSH2 0x125 JUMPI DUP1 PUSH4 0x18160DDD EQ PUSH2 0x162 JUMPI DUP1 PUSH4 0x23B872DD EQ PUSH2 0x18D JUMPI PUSH2 0xF8 JUMP JUMPDEST JUMPDEST STOP JUMPDEST CALLVALUE DUP1 ISZERO PUSH2 0x106 JUMPI PUSH1 0x0 DUP1 REVERT JUMPDEST POP PUSH2 0x10F PUSH2 0x415 JUMP JUMPDEST PUSH1 0x40 MLOAD PUSH2 0x11C SWAP2 SWAP1 PUSH2 0x149D JUMP JUMPDEST PUSH1 0x40 MLOAD DUP1 SWAP2 SUB SWAP1 RETURN JUMPDEST CALLVALUE DUP1 ISZERO PUSH2 0x131 JUMPI PUSH1 0x0 DUP1 REVERT JUMPDEST POP PUSH2 0x14C PUSH1 0x4 DUP1 CALLDATASIZE SUB DUP2 ADD SWAP1 PUSH2 0x147 SWAP2 SWAP1 PUSH2 0x1558 JUMP JUMPDEST PUSH2 0x4A3 JUMP JUMPDEST PUSH1 0x40 MLOAD PUSH2 0x159 SWAP2 SWAP1 PUSH2 0x15B3 JUMP JUMPDEST PUSH1 0x40 MLOAD DUP1 SWAP2 SUB SWAP1 RETURN JUMPDEST CALLVALUE DUP1 ISZERO PUSH2 0x16E JUMPI PUSH1 0x0 DUP1 REVERT JUMPDEST POP PUSH2 0x177 PUSH2 0x53C JUMP JUMPDEST PUSH1 0x40 MLOAD PUSH2 0x184 SWAP2 SWAP1 PUSH2 0x15DD JUMP JUMPDEST PUSH1 0x40 MLOAD DUP1 SWAP2 SUB SWAP1 RETURN JUMPDEST CALLVALUE DUP1 ISZERO PUSH2 0x199 JUMPI PUSH1 0x0 DUP1 REVERT JUMPDEST POP PUSH2 0x1B4 PUSH1 0x4 DUP1 CALLDATASIZE SUB DUP2 ADD SWAP1 PUSH2 0x1AF SWAP2 SWAP1 PUSH2 0x15F8 JUMP JUMPDEST PUSH2 0x542 JUMP JUMPDEST PUSH1 0x40 MLOAD PUSH2 0x1C1 SWAP2 SWAP1 PUSH2 0x15B3 JUMP JUMPDEST PUSH1 0x40 MLOAD DUP1 SWAP2 SUB SWAP1 RETURN JUMPDEST CALLVALUE DUP1 ISZERO PUSH2 0x1D6 JUMPI PUSH1 0x0 DUP1 REVERT JUMPDEST POP PUSH2 0x1DF PUSH2 0x9A6 JUMP JUMPDEST PUSH1 0x40 MLOAD PUSH2 0x1EC SWAP2 SWAP1 PUSH2 0x1667 JUMP JUMPDEST PUSH1 0x40 MLOAD DUP1 SWAP2 SUB SWAP1 RETURN JUMPDEST PUSH2 0x20F PUSH1 0x4 DUP1 CALLDATASIZE SUB DUP2 ADD SWAP1 PUSH2 0x20A SWAP2 SWAP1 PUSH2 0x1682 JUMP JUMPDEST PUSH2 0x9B9 JUMP JUMPDEST STOP JUMPDEST CALLVALUE DUP1 ISZERO PUSH2 0x21D JUMPI PUSH1 0x0 DUP1 REVERT JUMPDEST POP PUSH2 0x238 PUSH1 0x4 DUP1 CALLDATASIZE SUB DUP2 ADD SWAP1 PUSH2 0x233 SWAP2 SWAP1 PUSH2 0x1682 JUMP JUMPDEST PUSH2 0xA7F JUMP JUMPDEST PUSH1 0x40 MLOAD PUSH2 0x245 SWAP2 SWAP1 PUSH2 0x15B3 JUMP JUMPDEST PUSH1 0x40 MLOAD DUP1 SWAP2 SUB SWAP1 RETURN JUMPDEST CALLVALUE DUP1 ISZERO PUSH2 0x25A JUMPI PUSH1 0x0 DUP1 REVERT JUMPDEST POP PUSH2 0x275 PUSH1 0x4 DUP1 CALLDATASIZE SUB DUP2 ADD SWAP1 PUSH2 0x270 SWAP2 SWAP1 PUSH2 0x1682 JUMP JUMPDEST PUSH2 0xBE1 JUMP JUMPDEST PUSH1 0x40 MLOAD PUSH2 0x282 SWAP2 SWAP1 PUSH2 0x15B3 JUMP JUMPDEST PUSH1 0x40 MLOAD DUP1 SWAP2 SUB SWAP1 RETURN JUMPDEST CALLVALUE DUP1 ISZERO PUSH2 0x297 JUMPI PUSH1 0x0 DUP1 REVERT JUMPDEST POP PUSH2 0x2B2 PUSH1 0x4 DUP1 CALLDATASIZE SUB DUP2 ADD SWAP1 PUSH2 0x2AD SWAP2 SWAP1 PUSH2 0x16AF JUMP JUMPDEST PUSH2 0xDCF JUMP JUMPDEST PUSH1 0x40 MLOAD PUSH2 0x2BF SWAP2 SWAP1 PUSH2 0x15DD JUMP JUMPDEST PUSH1 0x40 MLOAD DUP1 SWAP2 SUB SWAP1 RETURN JUMPDEST CALLVALUE DUP1 ISZERO PUSH2 0x2D4 JUMPI PUSH1 0x0 DUP1 REVERT JUMPDEST POP PUSH2 0x2DD PUSH2 0xDE7 JUMP JUMPDEST STOP JUMPDEST CALLVALUE DUP1 ISZERO PUSH2 0x2EB JUMPI PUSH1 0x0 DUP1 REVERT JUMPDEST POP PUSH2 0x2F4 PUSH2 0xE0A JUMP JUMPDEST PUSH1 0x40 MLOAD PUSH2 0x301 SWAP2 SWAP1 PUSH2 0x16EB JUMP JUMPDEST PUSH1 0x40 MLOAD DUP1 SWAP2 SUB SWAP1 RETURN JUMPDEST CALLVALUE DUP1 ISZERO PUSH2 0x316 JUMPI PUSH1 0x0 DUP1 REVERT JUMPDEST POP PUSH2 0x31F PUSH2 0xE30 JUMP JUMPDEST PUSH1 0x40 MLOAD PUSH2 0x32C SWAP2 SWAP1 PUSH2 0x149D JUMP JUMPDEST PUSH1 0x40 MLOAD DUP1 SWAP2 SUB SWAP1 RETURN JUMPDEST CALLVALUE DUP1 ISZERO PUSH2 0x341 JUMPI PUSH1 0x0 DUP1 REVERT JUMPDEST POP PUSH2 0x35C PUSH1 0x4 DUP1 CALLDATASIZE SUB DUP2 ADD SWAP1 PUSH2 0x357 SWAP2 SWAP1 PUSH2 0x1558 JUMP JUMPDEST PUSH2 0xEBE JUMP JUMPDEST STOP JUMPDEST CALLVALUE DUP1 ISZERO PUSH2 0x36A JUMPI PUSH1 0x0 DUP1 REVERT JUMPDEST POP PUSH2 0x385 PUSH1 0x4 DUP1 CALLDATASIZE SUB DUP2 ADD SWAP1 PUSH2 0x380 SWAP2 SWAP1 PUSH2 0x16AF JUMP JUMPDEST PUSH2 0x118B JUMP JUMPDEST PUSH1 0x40 MLOAD PUSH2 0x392 SWAP2 SWAP1 PUSH2 0x15DD JUMP JUMPDEST PUSH1 0x40 MLOAD DUP1 SWAP2 SUB SWAP1 RETURN JUMPDEST CALLVALUE DUP1 ISZERO PUSH2 0x3A7 JUMPI PUSH1 0x0 DUP1 REVERT JUMPDEST POP PUSH2 0x3C2 PUSH1 0x4 DUP1 CALLDATASIZE SUB DUP2 ADD SWAP1 PUSH2 0x3BD SWAP2 SWAP1 PUSH2 0x1682 JUMP JUMPDEST PUSH2 0x11A3 JUMP JUMPDEST PUSH1 0x40 MLOAD PUSH2 0x3CF SWAP2 SWAP1 PUSH2 0x15B3 JUMP JUMPDEST PUSH1 0x40 MLOAD DUP1 SWAP2 SUB SWAP1 RETURN JUMPDEST CALLVALUE DUP1 ISZERO PUSH2 0x3E4 JUMPI PUSH1 0x0 DUP1 REVERT JUMPDEST POP PUSH2 0x3FF PUSH1 0x4 DUP1 CALLDATASIZE SUB DUP2 ADD SWAP1 PUSH2 0x3FA SWAP2 SWAP1 PUSH2 0x1706 JUMP JUMPDEST PUSH2 0x1391 JUMP JUMPDEST PUSH1 0x40 MLOAD PUSH2 0x40C SWAP2 SWAP1 PUSH2 0x15DD JUMP JUMPDEST PUSH1 0x40 MLOAD DUP1 SWAP2 SUB SWAP1 RETURN JUMPDEST PUSH1 0x0 DUP1 SLOAD PUSH2 0x422 SWAP1 PUSH2 0x1775 JUMP JUMPDEST DUP1 PUSH1 0x1F ADD PUSH1 0x20 DUP1 SWAP2 DIV MUL PUSH1 0x20 ADD PUSH1 0x40 MLOAD SWAP1 DUP2 ADD PUSH1 0x40 MSTORE DUP1 SWAP3 SWAP2 SWAP1 DUP2 DUP2 MSTORE PUSH1 0x20 ADD DUP3 DUP1 SLOAD PUSH2 0x44E SWAP1 PUSH2 0x1775 JUMP JUMPDEST DUP1 ISZERO PUSH2 0x49B JUMPI DUP1 PUSH1 0x1F LT PUSH2 0x470 JUMPI PUSH2 0x100 DUP1 DUP4 SLOAD DIV MUL DUP4 MSTORE SWAP2 PUSH1 0x20 ADD SWAP2 PUSH2 0x49B JUMP JUMPDEST DUP3 ADD SWAP2 SWAP1 PUSH1 0x0 MSTORE PUSH1 0x20 PUSH1 0x0 KECCAK256 SWAP1 JUMPDEST DUP2 SLOAD DUP2 MSTORE SWAP1 PUSH1 0x1 ADD SWAP1 PUSH1 0x20 ADD DUP1 DUP4 GT PUSH2 0x47E JUMPI DUP3 SWAP1 SUB PUSH1 0x1F AND DUP3 ADD SWAP2 JUMPDEST POP POP POP POP POP DUP2 JUMP JUMPDEST PUSH1 0x0 DUP1 DUP3 GT PUSH2 0x4B1 JUMPI PUSH1 0x0 DUP1 REVERT JUMPDEST DUP2 PUSH1 0x9 PUSH1 0x0 CALLER PUSH20 0xFFFFFFFFFFFFFFFFFFFFFFFFFFFFFFFFFFFFFFFF AND PUSH20 0xFFFFFFFFFFFFFFFFFFFFFFFFFFFFFFFFFFFFFFFF AND DUP2 MSTORE PUSH1 0x20 ADD SWAP1 DUP2 MSTORE PUSH1 0x20 ADD PUSH1 0x0 KECCAK256 PUSH1 0x0 DUP6 PUSH20 0xFFFFFFFFFFFFFFFFFFFFFFFFFFFFFFFFFFFFFFFF AND PUSH20 0xFFFFFFFFFFFFFFFFFFFFFFFFFFFFFFFFFFFFFFFF AND DUP2 MSTORE PUSH1 0x20 ADD SWAP1 DUP2 MSTORE PUSH1 0x20 ADD PUSH1 0x0 KECCAK256 DUP2 SWAP1 SSTORE POP PUSH1 0x1 SWAP1 POP SWAP3 SWAP2 POP POP JUMP JUMPDEST PUSH1 0x3 SLOAD DUP2 JUMP JUMPDEST PUSH1 0x0 DUP1 PUSH20 0xFFFFFFFFFFFFFFFFFFFFFFFFFFFFFFFFFFFFFFFF AND DUP4 PUSH20 0xFFFFFFFFFFFFFFFFFFFFFFFFFFFFFFFFFFFFFFFF AND SUB PUSH2 0x57C JUMPI PUSH1 0x0 DUP1 REVERT JUMPDEST PUSH1 0x0 DUP3 GT PUSH2 0x589 JUMPI PUSH1 0x0 DUP1 REVERT JUMPDEST DUP2 PUSH1 0x7 PUSH1 0x0 DUP7 PUSH20 0xFFFFFFFFFFFFFFFFFFFFFFFFFFFFFFFFFFFFFFFF AND PUSH20 0xFFFFFFFFFFFFFFFFFFFFFFFFFFFFFFFFFFFFFFFF AND DUP2 MSTORE PUSH1 0x20 ADD SWAP1 DUP2 MSTORE PUSH1 0x20 ADD PUSH1 0x0 KECCAK256 SLOAD LT ISZERO PUSH2 0x5D5 JUMPI PUSH1 0x0 DUP1 REVERT JUMPDEST PUSH1 0x7 PUSH1 0x0 DUP5 PUSH20 0xFFFFFFFFFFFFFFFFFFFFFFFFFFFFFFFFFFFFFFFF AND PUSH20 0xFFFFFFFFFFFFFFFFFFFFFFFFFFFFFFFFFFFFFFFF AND DUP2 MSTORE PUSH1 0x20 ADD SWAP1 DUP2 MSTORE PUSH1 0x20 ADD PUSH1 0x0 KECCAK256 SLOAD DUP3 PUSH1 0x7 PUSH1 0x0 DUP7 PUSH20 0xFFFFFFFFFFFFFFFFFFFFFFFFFFFFFFFFFFFFFFFF AND PUSH20 0xFFFFFFFFFFFFFFFFFFFFFFFFFFFFFFFFFFFFFFFF AND DUP2 MSTORE PUSH1 0x20 ADD SWAP1 DUP2 MSTORE PUSH1 0x20 ADD PUSH1 0x0 KECCAK256 SLOAD PUSH2 0x660 SWAP2 SWAP1 PUSH2 0x17D5 JUMP JUMPDEST LT ISZERO PUSH2 0x66B JUMPI PUSH1 0x0 DUP1 REVERT JUMPDEST PUSH1 0x9 PUSH1 0x0 DUP6 PUSH20 0xFFFFFFFFFFFFFFFFFFFFFFFFFFFFFFFFFFFFFFFF AND PUSH20 0xFFFFFFFFFFFFFFFFFFFFFFFFFFFFFFFFFFFFFFFF AND DUP2 MSTORE PUSH1 0x20 ADD SWAP1 DUP2 MSTORE PUSH1 0x20 ADD PUSH1 0x0 KECCAK256 PUSH1 0x0 CALLER PUSH20 0xFFFFFFFFFFFFFFFFFFFFFFFFFFFFFFFFFFFFFFFF AND PUSH20 0xFFFFFFFFFFFFFFFFFFFFFFFFFFFFFFFFFFFFFFFF AND DUP2 MSTORE PUSH1 0x20 ADD SWAP1 DUP2 MSTORE PUSH1 0x20 ADD PUSH1 0x0 KECCAK256 SLOAD DUP3 GT ISZERO PUSH2 0x6F4 JUMPI PUSH1 0x0 DUP1 REVERT JUMPDEST PUSH2 0x73D PUSH1 0x7 PUSH1 0x0 DUP7 PUSH20 0xFFFFFFFFFFFFFFFFFFFFFFFFFFFFFFFFFFFFFFFF AND PUSH20 0xFFFFFFFFFFFFFFFFFFFFFFFFFFFFFFFFFFFFFFFF AND DUP2 MSTORE PUSH1 0x20 ADD SWAP1 DUP2 MSTORE PUSH1 0x20 ADD PUSH1 0x0 KECCAK256 SLOAD DUP4 PUSH2 0x13B6 JUMP JUMPDEST PUSH1 0x7 PUSH1 0x0 DUP7 PUSH20 0xFFFFFFFFFFFFFFFFFFFFFFFFFFFFFFFFFFFFFFFF AND PUSH20 0xFFFFFFFFFFFFFFFFFFFFFFFFFFFFFFFFFFFFFFFF AND DUP2 MSTORE PUSH1 0x20 ADD SWAP1 DUP2 MSTORE PUSH1 0x20 ADD PUSH1 0x0 KECCAK256 DUP2 SWAP1 SSTORE POP PUSH2 0x78C PUSH1 0x5 SLOAD DUP4 PUSH2 0x13B6 JUMP JUMPDEST PUSH1 0x5 DUP2 SWAP1 SSTORE POP PUSH2 0x7DB PUSH1 0x7 PUSH1 0x0 DUP6 PUSH20 0xFFFFFFFFFFFFFFFFFFFFFFFFFFFFFFFFFFFFFFFF AND PUSH20 0xFFFFFFFFFFFFFFFFFFFFFFFFFFFFFFFFFFFFFFFF AND DUP2 MSTORE PUSH1 0x20 ADD SWAP1 DUP2 MSTORE PUSH1 0x20 ADD PUSH1 0x0 KECCAK256 SLOAD DUP4 PUSH2 0x13D9 JUMP JUMPDEST PUSH1 0x7 PUSH1 0x0 DUP6 PUSH20 0xFFFFFFFFFFFFFFFFFFFFFFFFFFFFFFFFFFFFFFFF AND PUSH20 0xFFFFFFFFFFFFFFFFFFFFFFFFFFFFFFFFFFFFFFFF AND DUP2 MSTORE PUSH1 0x20 ADD SWAP1 DUP2 MSTORE PUSH1 0x20 ADD PUSH1 0x0 KECCAK256 DUP2 SWAP1 SSTORE POP PUSH2 0x82A PUSH1 0x5 SLOAD DUP4 PUSH2 0x13D9 JUMP JUMPDEST PUSH1 0x5 DUP2 SWAP1 SSTORE POP PUSH2 0x8B6 PUSH1 0x9 PUSH1 0x0 DUP7 PUSH20 0xFFFFFFFFFFFFFFFFFFFFFFFFFFFFFFFFFFFFFFFF AND PUSH20 0xFFFFFFFFFFFFFFFFFFFFFFFFFFFFFFFFFFFFFFFF AND DUP2 MSTORE PUSH1 0x20 ADD SWAP1 DUP2 MSTORE PUSH1 0x20 ADD PUSH1 0x0 KECCAK256 PUSH1 0x0 CALLER PUSH20 0xFFFFFFFFFFFFFFFFFFFFFFFFFFFFFFFFFFFFFFFF AND PUSH20 0xFFFFFFFFFFFFFFFFFFFFFFFFFFFFFFFFFFFFFFFF AND DUP2 MSTORE PUSH1 0x20 ADD SWAP1 DUP2 MSTORE PUSH1 0x20 ADD PUSH1 0x0 KECCAK256 SLOAD DUP4 PUSH2 0x13B6 JUMP JUMPDEST PUSH1 0x9 PUSH1 0x0 DUP7 PUSH20 0xFFFFFFFFFFFFFFFFFFFFFFFFFFFFFFFFFFFFFFFF AND PUSH20 0xFFFFFFFFFFFFFFFFFFFFFFFFFFFFFFFFFFFFFFFF AND DUP2 MSTORE PUSH1 0x20 ADD SWAP1 DUP2 MSTORE PUSH1 0x20 ADD PUSH1 0x0 KECCAK256 PUSH1 0x0 CALLER PUSH20 0xFFFFFFFFFFFFFFFFFFFFFFFFFFFFFFFFFFFFFFFF AND PUSH20 0xFFFFFFFFFFFFFFFFFFFFFFFFFFFFFFFFFFFFFFFF AND DUP2 MSTORE PUSH1 0x20 ADD SWAP1 DUP2 MSTORE PUSH1 0x20 ADD PUSH1 0x0 KECCAK256 DUP2 SWAP1 SSTORE POP DUP3 PUSH20 0xFFFFFFFFFFFFFFFFFFFFFFFFFFFFFFFFFFFFFFFF AND DUP5 PUSH20 0xFFFFFFFFFFFFFFFFFFFFFFFFFFFFFFFFFFFFFFFF AND PUSH32 0xDDF252AD1BE2C89B69C2B068FC378DAA952BA7F163C4A11628F55A4DF523B3EF DUP5 PUSH1 0x40 MLOAD PUSH2 0x993 SWAP2 SWAP1 PUSH2 0x15DD JUMP JUMPDEST PUSH1 0x40 MLOAD DUP1 SWAP2 SUB SWAP1 LOG3 PUSH1 0x1 SWAP1 POP SWAP4 SWAP3 POP POP POP JUMP JUMPDEST PUSH1 0x2 PUSH1 0x0 SWAP1 SLOAD SWAP1 PUSH2 0x100 EXP SWAP1 DIV PUSH1 0xFF AND DUP2 JUMP JUMPDEST PUSH1 0x4 PUSH1 0x0 SWAP1 SLOAD SWAP1 PUSH2 0x100 EXP SWAP1 DIV PUSH20 0xFFFFFFFFFFFFFFFFFFFFFFFFFFFFFFFFFFFFFFFF AND PUSH20 0xFFFFFFFFFFFFFFFFFFFFFFFFFFFFFFFFFFFFFFFF AND CALLER PUSH20 0xFFFFFFFFFFFFFFFFFFFFFFFFFFFFFFFFFFFFFFFF AND EQ PUSH2 0xA13 JUMPI PUSH1 0x0 DUP1 REVERT JUMPDEST PUSH1 0x4 PUSH1 0x0 SWAP1 SLOAD SWAP1 PUSH2 0x100 EXP SWAP1 DIV PUSH20 0xFFFFFFFFFFFFFFFFFFFFFFFFFFFFFFFFFFFFFFFF AND PUSH20 0xFFFFFFFFFFFFFFFFFFFFFFFFFFFFFFFFFFFFFFFF AND PUSH2 0x8FC DUP3 SWAP1 DUP2 ISZERO MUL SWAP1 PUSH1 0x40 MLOAD PUSH1 0x0 PUSH1 0x40 MLOAD DUP1 DUP4 SUB DUP2 DUP6 DUP9 DUP9 CALL SWAP4 POP POP POP POP ISZERO DUP1 ISZERO PUSH2 0xA7B JUMPI RETURNDATASIZE PUSH1 0x0 DUP1 RETURNDATACOPY RETURNDATASIZE PUSH1 0x0 REVERT JUMPDEST POP POP JUMP JUMPDEST PUSH1 0x0 DUP2 PUSH1 0x7 PUSH1 0x0 CALLER PUSH20 0xFFFFFFFFFFFFFFFFFFFFFFFFFFFFFFFFFFFFFFFF AND PUSH20 0xFFFFFFFFFFFFFFFFFFFFFFFFFFFFFFFFFFFFFFFF AND DUP2 MSTORE PUSH1 0x20 ADD SWAP1 DUP2 MSTORE PUSH1 0x20 ADD PUSH1 0x0 KECCAK256 SLOAD LT ISZERO PUSH2 0xACD JUMPI PUSH1 0x0 DUP1 REVERT JUMPDEST PUSH1 0x0 DUP3 GT PUSH2 0xADA JUMPI PUSH1 0x0 DUP1 REVERT JUMPDEST PUSH2 0xB23 PUSH1 0x7 PUSH1 0x0 CALLER PUSH20 0xFFFFFFFFFFFFFFFFFFFFFFFFFFFFFFFFFFFFFFFF AND PUSH20 0xFFFFFFFFFFFFFFFFFFFFFFFFFFFFFFFFFFFFFFFF AND DUP2 MSTORE PUSH1 0x20 ADD SWAP1 DUP2 MSTORE PUSH1 0x20 ADD PUSH1 0x0 KECCAK256 SLOAD DUP4 PUSH2 0x13B6 JUMP JUMPDEST PUSH1 0x7 PUSH1 0x0 CALLER PUSH20 0xFFFFFFFFFFFFFFFFFFFFFFFFFFFFFFFFFFFFFFFF AND PUSH20 0xFFFFFFFFFFFFFFFFFFFFFFFFFFFFFFFFFFFFFFFF AND DUP2 MSTORE PUSH1 0x20 ADD SWAP1 DUP2 MSTORE PUSH1 0x20 ADD PUSH1 0x0 KECCAK256 DUP2 SWAP1 SSTORE POP PUSH2 0xB72 PUSH1 0x5 SLOAD DUP4 PUSH2 0x13B6 JUMP JUMPDEST PUSH1 0x5 DUP2 SWAP1 SSTORE POP PUSH2 0xB84 PUSH1 0x3 SLOAD DUP4 PUSH2 0x13B6 JUMP JUMPDEST PUSH1 0x3 DUP2 SWAP1 SSTORE POP CALLER PUSH20 0xFFFFFFFFFFFFFFFFFFFFFFFFFFFFFFFFFFFFFFFF AND PUSH32 0xCC16F5DBB4873280815C1EE09DBD06736CFFCC184412CF7A71A0FDB75D397CA5 DUP4 PUSH1 0x40 MLOAD PUSH2 0xBD0 SWAP2 SWAP1 PUSH2 0x15DD JUMP JUMPDEST PUSH1 0x40 MLOAD DUP1 SWAP2 SUB SWAP1 LOG2 PUSH1 0x1 SWAP1 POP SWAP2 SWAP1 POP JUMP JUMPDEST PUSH1 0x0 DUP2 PUSH1 0x8 PUSH1 0x0 CALLER PUSH20 0xFFFFFFFFFFFFFFFFFFFFFFFFFFFFFFFFFFFFFFFF AND PUSH20 0xFFFFFFFFFFFFFFFFFFFFFFFFFFFFFFFFFFFFFFFF AND DUP2 MSTORE PUSH1 0x20 ADD SWAP1 DUP2 MSTORE PUSH1 0x20 ADD PUSH1 0x0 KECCAK256 SLOAD LT ISZERO PUSH2 0xC2F JUMPI PUSH1 0x0 DUP1 REVERT JUMPDEST PUSH1 0x0 DUP3 GT PUSH2 0xC3C JUMPI PUSH1 0x0 DUP1 REVERT JUMPDEST PUSH2 0xC85 PUSH1 0x8 PUSH1 0x0 CALLER PUSH20 0xFFFFFFFFFFFFFFFFFFFFFFFFFFFFFFFFFFFFFFFF AND PUSH20 0xFFFFFFFFFFFFFFFFFFFFFFFFFFFFFFFFFFFFFFFF AND DUP2 MSTORE PUSH1 0x20 ADD SWAP1 DUP2 MSTORE PUSH1 0x20 ADD PUSH1 0x0 KECCAK256 SLOAD DUP4 PUSH2 0x13B6 JUMP JUMPDEST PUSH1 0x8 PUSH1 0x0 CALLER PUSH20 0xFFFFFFFFFFFFFFFFFFFFFFFFFFFFFFFFFFFFFFFF AND PUSH20 0xFFFFFFFFFFFFFFFFFFFFFFFFFFFFFFFFFFFFFFFF AND DUP2 MSTORE PUSH1 0x20 ADD SWAP1 DUP2 MSTORE PUSH1 0x20 ADD PUSH1 0x0 KECCAK256 DUP2 SWAP1 SSTORE POP PUSH2 0xCD4 PUSH1 0x6 SLOAD DUP4 PUSH2 0x13B6 JUMP JUMPDEST PUSH1 0x6 DUP2 SWAP1 SSTORE POP PUSH2 0xD23 PUSH1 0x7 PUSH1 0x0 CALLER PUSH20 0xFFFFFFFFFFFFFFFFFFFFFFFFFFFFFFFFFFFFFFFF AND PUSH20 0xFFFFFFFFFFFFFFFFFFFFFFFFFFFFFFFFFFFFFFFF AND DUP2 MSTORE PUSH1 0x20 ADD SWAP1 DUP2 MSTORE PUSH1 0x20 ADD PUSH1 0x0 KECCAK256 SLOAD DUP4 PUSH2 0x13D9 JUMP JUMPDEST PUSH1 0x7 PUSH1 0x0 CALLER PUSH20 0xFFFFFFFFFFFFFFFFFFFFFFFFFFFFFFFFFFFFFFFF AND PUSH20 0xFFFFFFFFFFFFFFFFFFFFFFFFFFFFFFFFFFFFFFFF AND DUP2 MSTORE PUSH1 0x20 ADD SWAP1 DUP2 MSTORE PUSH1 0x20 ADD PUSH1 0x0 KECCAK256 DUP2 SWAP1 SSTORE POP PUSH2 0xD72 PUSH1 0x5 SLOAD DUP4 PUSH2 0x13D9 JUMP JUMPDEST PUSH1 0x5 DUP2 SWAP1 SSTORE POP CALLER PUSH20 0xFFFFFFFFFFFFFFFFFFFFFFFFFFFFFFFFFFFFFFFF AND PUSH32 0x2CFCE4AF01BCB9D6CF6C84EE1B7C491100B8695368264146A94D71E10A63083F DUP4 PUSH1 0x40 MLOAD PUSH2 0xDBE SWAP2 SWAP1 PUSH2 0x15DD JUMP JUMPDEST PUSH1 0x40 MLOAD DUP1 SWAP2 SUB SWAP1 LOG2 PUSH1 0x1 SWAP1 POP SWAP2 SWAP1 POP JUMP JUMPDEST PUSH1 0x7 PUSH1 0x20 MSTORE DUP1 PUSH1 0x0 MSTORE PUSH1 0x40 PUSH1 0x0 KECCAK256 PUSH1 0x0 SWAP2 POP SWAP1 POP SLOAD DUP2 JUMP JUMPDEST PUSH1 0x3 SLOAD PUSH1 0x6 SLOAD PUSH1 0x5 SLOAD PUSH2 0xDFA SWAP2 SWAP1 PUSH2 0x17D5 JUMP JUMPDEST EQ PUSH2 0xE08 JUMPI PUSH2 0xE07 PUSH2 0x1809 JUMP JUMPDEST JUMPDEST JUMP JUMPDEST PUSH1 0x4 PUSH1 0x0 SWAP1 SLOAD SWAP1 PUSH2 0x100 EXP SWAP1 DIV PUSH20 0xFFFFFFFFFFFFFFFFFFFFFFFFFFFFFFFFFFFFFFFF AND DUP2 JUMP JUMPDEST PUSH1 0x1 DUP1 SLOAD PUSH2 0xE3D SWAP1 PUSH2 0x1775 JUMP JUMPDEST DUP1 PUSH1 0x1F ADD PUSH1 0x20 DUP1 SWAP2 DIV MUL PUSH1 0x20 ADD PUSH1 0x40 MLOAD SWAP1 DUP2 ADD PUSH1 0x40 MSTORE DUP1 SWAP3 SWAP2 SWAP1 DUP2 DUP2 MSTORE PUSH1 0x20 ADD DUP3 DUP1 SLOAD PUSH2 0xE69 SWAP1 PUSH2 0x1775 JUMP JUMPDEST DUP1 ISZERO PUSH2 0xEB6 JUMPI DUP1 PUSH1 0x1F LT PUSH2 0xE8B JUMPI PUSH2 0x100 DUP1 DUP4 SLOAD DIV MUL DUP4 MSTORE SWAP2 PUSH1 0x20 ADD SWAP2 PUSH2 0xEB6 JUMP JUMPDEST DUP3 ADD SWAP2 SWAP1 PUSH1 0x0 MSTORE PUSH1 0x20 PUSH1 0x0 KECCAK256 SWAP1 JUMPDEST DUP2 SLOAD DUP2 MSTORE SWAP1 PUSH1 0x1 ADD SWAP1 PUSH1 0x20 ADD DUP1 DUP4 GT PUSH2 0xE99 JUMPI DUP3 SWAP1 SUB PUSH1 0x1F AND DUP3 ADD SWAP2 JUMPDEST POP POP POP POP POP DUP2 JUMP JUMPDEST PUSH1 0x0 PUSH20 0xFFFFFFFFFFFFFFFFFFFFFFFFFFFFFFFFFFFFFFFF AND DUP3 PUSH20 0xFFFFFFFFFFFFFFFFFFFFFFFFFFFFFFFFFFFFFFFF AND SUB PUSH2 0xEF7 JUMPI PUSH1 0x0 DUP1 REVERT JUMPDEST PUSH1 0x0 DUP2 GT PUSH2 0xF04 JUMPI PUSH1 0x0 DUP1 REVERT JUMPDEST DUP1 PUSH1 0x7 PUSH1 0x0 CALLER PUSH20 0xFFFFFFFFFFFFFFFFFFFFFFFFFFFFFFFFFFFFFFFF AND PUSH20 0xFFFFFFFFFFFFFFFFFFFFFFFFFFFFFFFFFFFFFFFF AND DUP2 MSTORE PUSH1 0x20 ADD SWAP1 DUP2 MSTORE PUSH1 0x20 ADD PUSH1 0x0 KECCAK256 SLOAD LT ISZERO PUSH2 0xF50 JUMPI PUSH1 0x0 DUP1 REVERT JUMPDEST PUSH1 0x7 PUSH1 0x0 DUP4 PUSH20 0xFFFFFFFFFFFFFFFFFFFFFFFFFFFFFFFFFFFFFFFF AND PUSH20 0xFFFFFFFFFFFFFFFFFFFFFFFFFFFFFFFFFFFFFFFF AND DUP2 MSTORE PUSH1 0x20 ADD SWAP1 DUP2 MSTORE PUSH1 0x20 ADD PUSH1 0x0 KECCAK256 SLOAD DUP2 PUSH1 0x7 PUSH1 0x0 DUP6 PUSH20 0xFFFFFFFFFFFFFFFFFFFFFFFFFFFFFFFFFFFFFFFF AND PUSH20 0xFFFFFFFFFFFFFFFFFFFFFFFFFFFFFFFFFFFFFFFF AND DUP2 MSTORE PUSH1 0x20 ADD SWAP1 DUP2 MSTORE PUSH1 0x20 ADD PUSH1 0x0 KECCAK256 SLOAD PUSH2 0xFDB SWAP2 SWAP1 PUSH2 0x17D5 JUMP JUMPDEST LT ISZERO PUSH2 0xFE6 JUMPI PUSH1 0x0 DUP1 REVERT JUMPDEST PUSH2 0x102F PUSH1 0x7 PUSH1 0x0 CALLER PUSH20 0xFFFFFFFFFFFFFFFFFFFFFFFFFFFFFFFFFFFFFFFF AND PUSH20 0xFFFFFFFFFFFFFFFFFFFFFFFFFFFFFFFFFFFFFFFF AND DUP2 MSTORE PUSH1 0x20 ADD SWAP1 DUP2 MSTORE PUSH1 0x20 ADD PUSH1 0x0 KECCAK256 SLOAD DUP3 PUSH2 0x13B6 JUMP JUMPDEST PUSH1 0x7 PUSH1 0x0 CALLER PUSH20 0xFFFFFFFFFFFFFFFFFFFFFFFFFFFFFFFFFFFFFFFF AND PUSH20 0xFFFFFFFFFFFFFFFFFFFFFFFFFFFFFFFFFFFFFFFF AND DUP2 MSTORE PUSH1 0x20 ADD SWAP1 DUP2 MSTORE PUSH1 0x20 ADD PUSH1 0x0 KECCAK256 DUP2 SWAP1 SSTORE POP PUSH2 0x107E PUSH1 0x5 SLOAD DUP3 PUSH2 0x13B6 JUMP JUMPDEST PUSH1 0x5 DUP2 SWAP1 SSTORE POP PUSH2 0x10CD PUSH1 0x7 PUSH1 0x0 DUP5 PUSH20 0xFFFFFFFFFFFFFFFFFFFFFFFFFFFFFFFFFFFFFFFF AND PUSH20 0xFFFFFFFFFFFFFFFFFFFFFFFFFFFFFFFFFFFFFFFF AND DUP2 MSTORE PUSH1 0x20 ADD SWAP1 DUP2 MSTORE PUSH1 0x20 ADD PUSH1 0x0 KECCAK256 SLOAD DUP3 PUSH2 0x13D9 JUMP JUMPDEST PUSH1 0x7 PUSH1 0x0 DUP5 PUSH20 0xFFFFFFFFFFFFFFFFFFFFFFFFFFFFFFFFFFFFFFFF AND PUSH20 0xFFFFFFFFFFFFFFFFFFFFFFFFFFFFFFFFFFFFFFFF AND DUP2 MSTORE PUSH1 0x20 ADD SWAP1 DUP2 MSTORE PUSH1 0x20 ADD PUSH1 0x0 KECCAK256 DUP2 SWAP1 SSTORE POP PUSH2 0x111C PUSH1 0x5 SLOAD DUP3 PUSH2 0x13D9 JUMP JUMPDEST PUSH1 0x5 DUP2 SWAP1 SSTORE POP DUP2 PUSH20 0xFFFFFFFFFFFFFFFFFFFFFFFFFFFFFFFFFFFFFFFF AND CALLER PUSH20 0xFFFFFFFFFFFFFFFFFFFFFFFFFFFFFFFFFFFFFFFF AND PUSH32 0xDDF252AD1BE2C89B69C2B068FC378DAA952BA7F163C4A11628F55A4DF523B3EF DUP4 PUSH1 0x40 MLOAD PUSH2 0x117F SWAP2 SWAP1 PUSH2 0x15DD JUMP JUMPDEST PUSH1 0x40 MLOAD DUP1 SWAP2 SUB SWAP1 LOG3 POP POP JUMP JUMPDEST PUSH1 0x8 PUSH1 0x20 MSTORE DUP1 PUSH1 0x0 MSTORE PUSH1 0x40 PUSH1 0x0 KECCAK256 PUSH1 0x0 SWAP2 POP SWAP1 POP SLOAD DUP2 JUMP JUMPDEST PUSH1 0x0 DUP2 PUSH1 0x7 PUSH1 0x0 CALLER PUSH20 0xFFFFFFFFFFFFFFFFFFFFFFFFFFFFFFFFFFFFFFFF AND PUSH20 0xFFFFFFFFFFFFFFFFFFFFFFFFFFFFFFFFFFFFFFFF AND DUP2 MSTORE PUSH1 0x20 ADD SWAP1 DUP2 MSTORE PUSH1 0x20 ADD PUSH1 0x0 KECCAK256 SLOAD LT ISZERO PUSH2 0x11F1 JUMPI PUSH1 0x0 DUP1 REVERT JUMPDEST PUSH1 0x0 DUP3 GT PUSH2 0x11FE JUMPI PUSH1 0x0 DUP1 REVERT JUMPDEST PUSH2 0x1247 PUSH1 0x7 PUSH1 0x0 CALLER PUSH20 0xFFFFFFFFFFFFFFFFFFFFFFFFFFFFFFFFFFFFFFFF AND PUSH20 0xFFFFFFFFFFFFFFFFFFFFFFFFFFFFFFFFFFFFFFFF AND DUP2 MSTORE PUSH1 0x20 ADD SWAP1 DUP2 MSTORE PUSH1 0x20 ADD PUSH1 0x0 KECCAK256 SLOAD DUP4 PUSH2 0x13B6 JUMP JUMPDEST PUSH1 0x7 PUSH1 0x0 CALLER PUSH20 0xFFFFFFFFFFFFFFFFFFFFFFFFFFFFFFFFFFFFFFFF AND PUSH20 0xFFFFFFFFFFFFFFFFFFFFFFFFFFFFFFFFFFFFFFFF AND DUP2 MSTORE PUSH1 0x20 ADD SWAP1 DUP2 MSTORE PUSH1 0x20 ADD PUSH1 0x0 KECCAK256 DUP2 SWAP1 SSTORE POP PUSH2 0x1296 PUSH1 0x5 SLOAD DUP4 PUSH2 0x13B6 JUMP JUMPDEST PUSH1 0x5 DUP2 SWAP1 SSTORE POP PUSH2 0x12E5 PUSH1 0x8 PUSH1 0x0 CALLER PUSH20 0xFFFFFFFFFFFFFFFFFFFFFFFFFFFFFFFFFFFFFFFF AND PUSH20 0xFFFFFFFFFFFFFFFFFFFFFFFFFFFFFFFFFFFFFFFF AND DUP2 MSTORE PUSH1 0x20 ADD SWAP1 DUP2 MSTORE PUSH1 0x20 ADD PUSH1 0x0 KECCAK256 SLOAD DUP4 PUSH2 0x13D9 JUMP JUMPDEST PUSH1 0x8 PUSH1 0x0 CALLER PUSH20 0xFFFFFFFFFFFFFFFFFFFFFFFFFFFFFFFFFFFFFFFF AND PUSH20 0xFFFFFFFFFFFFFFFFFFFFFFFFFFFFFFFFFFFFFFFF AND DUP2 MSTORE PUSH1 0x20 ADD SWAP1 DUP2 MSTORE PUSH1 0x20 ADD PUSH1 0x0 KECCAK256 DUP2 SWAP1 SSTORE POP PUSH2 0x1334 PUSH1 0x6 SLOAD DUP4 PUSH2 0x13D9 JUMP JUMPDEST PUSH1 0x6 DUP2 SWAP1 SSTORE POP CALLER PUSH20 0xFFFFFFFFFFFFFFFFFFFFFFFFFFFFFFFFFFFFFFFF AND PUSH32 0xF97A274FACE0B5517365AD396B1FDBA6F68BD3135EF603E44272ADBA3AF5A1E0 DUP4 PUSH1 0x40 MLOAD PUSH2 0x1380 SWAP2 SWAP1 PUSH2 0x15DD JUMP JUMPDEST PUSH1 0x40 MLOAD DUP1 SWAP2 SUB SWAP1 LOG2 PUSH1 0x1 SWAP1 POP SWAP2 SWAP1 POP JUMP JUMPDEST PUSH1 0x9 PUSH1 0x20 MSTORE DUP2 PUSH1 0x0 MSTORE PUSH1 0x40 PUSH1 0x0 KECCAK256 PUSH1 0x20 MSTORE DUP1 PUSH1 0x0 MSTORE PUSH1 0x40 PUSH1 0x0 KECCAK256 PUSH1 0x0 SWAP2 POP SWAP2 POP POP SLOAD DUP2 JUMP JUMPDEST PUSH1 0x0 DUP3 DUP3 GT ISZERO PUSH2 0x13C5 JUMPI PUSH1 0x0 DUP1 REVERT JUMPDEST DUP2 DUP4 PUSH2 0x13D1 SWAP2 SWAP1 PUSH2 0x1838 JUMP JUMPDEST SWAP1 POP SWAP3 SWAP2 POP POP JUMP JUMPDEST PUSH1 0x0 DUP1 DUP3 DUP5 PUSH2 0x13E8 SWAP2 SWAP1 PUSH2 0x17D5 JUMP JUMPDEST SWAP1 POP DUP4 DUP2 LT ISZERO DUP1 ISZERO PUSH2 0x13FA JUMPI POP DUP3 DUP2 LT ISZERO JUMPDEST PUSH2 0x1403 JUMPI PUSH1 0x0 DUP1 REVERT JUMPDEST DUP1 SWAP2 POP POP SWAP3 SWAP2 POP POP JUMP JUMPDEST PUSH1 0x0 DUP2 MLOAD SWAP1 POP SWAP2 SWAP1 POP JUMP JUMPDEST PUSH1 0x0 DUP3 DUP3 MSTORE PUSH1 0x20 DUP3 ADD SWAP1 POP SWAP3 SWAP2 POP POP JUMP JUMPDEST PUSH1 0x0 JUMPDEST DUP4 DUP2 LT ISZERO PUSH2 0x1447 JUMPI DUP1 DUP3 ADD MLOAD DUP2 DUP5 ADD MSTORE PUSH1 0x20 DUP2 ADD SWAP1 POP PUSH2 0x142C JUMP JUMPDEST PUSH1 0x0 DUP5 DUP5 ADD MSTORE POP POP POP POP JUMP JUMPDEST PUSH1 0x0 PUSH1 0x1F NOT PUSH1 0x1F DUP4 ADD AND SWAP1 POP SWAP2 SWAP1 POP JUMP JUMPDEST PUSH1 0x0 PUSH2 0x146F DUP3 PUSH2 0x140D JUMP JUMPDEST PUSH2 0x1479 DUP2 DUP6 PUSH2 0x1418 JUMP JUMPDEST SWAP4 POP PUSH2 0x1489 DUP2 DUP6 PUSH1 0x20 DUP7 ADD PUSH2 0x1429 JUMP JUMPDEST PUSH2 0x1492 DUP2 PUSH2 0x1453 JUMP JUMPDEST DUP5 ADD SWAP2 POP POP SWAP3 SWAP2 POP POP JUMP JUMPDEST PUSH1 0x0 PUSH1 0x20 DUP3 ADD SWAP1 POP DUP2 DUP2 SUB PUSH1 0x0 DUP4 ADD MSTORE PUSH2 0x14B7 DUP2 DUP5 PUSH2 0x1464 JUMP JUMPDEST SWAP1 POP SWAP3 SWAP2 POP POP JUMP JUMPDEST PUSH1 0x0 DUP1 REVERT JUMPDEST PUSH1 0x0 PUSH20 0xFFFFFFFFFFFFFFFFFFFFFFFFFFFFFFFFFFFFFFFF DUP3 AND SWAP1 POP SWAP2 SWAP1 POP JUMP JUMPDEST PUSH1 0x0 PUSH2 0x14EF DUP3 PUSH2 0x14C4 JUMP JUMPDEST SWAP1 POP SWAP2 SWAP1 POP JUMP JUMPDEST PUSH2 0x14FF DUP2 PUSH2 0x14E4 JUMP JUMPDEST DUP2 EQ PUSH2 0x150A JUMPI PUSH1 0x0 DUP1 REVERT JUMPDEST POP JUMP JUMPDEST PUSH1 0x0 DUP2 CALLDATALOAD SWAP1 POP PUSH2 0x151C DUP2 PUSH2 0x14F6 JUMP JUMPDEST SWAP3 SWAP2 POP POP JUMP JUMPDEST PUSH1 0x0 DUP2 SWAP1 POP SWAP2 SWAP1 POP JUMP JUMPDEST PUSH2 0x1535 DUP2 PUSH2 0x1522 JUMP JUMPDEST DUP2 EQ PUSH2 0x1540 JUMPI PUSH1 0x0 DUP1 REVERT JUMPDEST POP JUMP JUMPDEST PUSH1 0x0 DUP2 CALLDATALOAD SWAP1 POP PUSH2 0x1552 DUP2 PUSH2 0x152C JUMP JUMPDEST SWAP3 SWAP2 POP POP JUMP JUMPDEST PUSH1 0x0 DUP1 PUSH1 0x40 DUP4 DUP6 SUB SLT ISZERO PUSH2 0x156F JUMPI PUSH2 0x156E PUSH2 0x14BF JUMP JUMPDEST JUMPDEST PUSH1 0x0 PUSH2 0x157D DUP6 DUP3 DUP7 ADD PUSH2 0x150D JUMP JUMPDEST SWAP3 POP POP PUSH1 0x20 PUSH2 0x158E DUP6 DUP3 DUP7 ADD PUSH2 0x1543 JUMP JUMPDEST SWAP2 POP POP SWAP3 POP SWAP3 SWAP1 POP JUMP JUMPDEST PUSH1 0x0 DUP2 ISZERO ISZERO SWAP1 POP SWAP2 SWAP1 POP JUMP JUMPDEST PUSH2 0x15AD DUP2 PUSH2 0x1598 JUMP JUMPDEST DUP3 MSTORE POP POP JUMP JUMPDEST PUSH1 0x0 PUSH1 0x20 DUP3 ADD SWAP1 POP PUSH2 0x15C8 PUSH1 0x0 DUP4 ADD DUP5 PUSH2 0x15A4 JUMP JUMPDEST SWAP3 SWAP2 POP POP JUMP JUMPDEST PUSH2 0x15D7 DUP2 PUSH2 0x1522 JUMP JUMPDEST DUP3 MSTORE POP POP JUMP JUMPDEST PUSH1 0x0 PUSH1 0x20 DUP3 ADD SWAP1 POP PUSH2 0x15F2 PUSH1 0x0 DUP4 ADD DUP5 PUSH2 0x15CE JUMP JUMPDEST SWAP3 SWAP2 POP POP JUMP JUMPDEST PUSH1 0x0 DUP1 PUSH1 0x0 PUSH1 0x60 DUP5 DUP7 SUB SLT ISZERO PUSH2 0x1611 JUMPI PUSH2 0x1610 PUSH2 0x14BF JUMP JUMPDEST JUMPDEST PUSH1 0x0 PUSH2 0x161F DUP7 DUP3 DUP8 ADD PUSH2 0x150D JUMP JUMPDEST SWAP4 POP POP PUSH1 0x20 PUSH2 0x1630 DUP7 DUP3 DUP8 ADD PUSH2 0x150D JUMP JUMPDEST SWAP3 POP POP PUSH1 0x40 PUSH2 0x1641 DUP7 DUP3 DUP8 ADD PUSH2 0x1543 JUMP JUMPDEST SWAP2 POP POP SWAP3 POP SWAP3 POP SWAP3 JUMP JUMPDEST PUSH1 0x0 PUSH1 0xFF DUP3 AND SWAP1 POP SWAP2 SWAP1 POP JUMP JUMPDEST PUSH2 0x1661 DUP2 PUSH2 0x164B JUMP JUMPDEST DUP3 MSTORE POP POP JUMP JUMPDEST PUSH1 0x0 PUSH1 0x20 DUP3 ADD SWAP1 POP PUSH2 0x167C PUSH1 0x0 DUP4 ADD DUP5 PUSH2 0x1658 JUMP JUMPDEST SWAP3 SWAP2 POP POP JUMP JUMPDEST PUSH1 0x0 PUSH1 0x20 DUP3 DUP5 SUB SLT ISZERO PUSH2 0x1698 JUMPI PUSH2 0x1697 PUSH2 0x14BF JUMP JUMPDEST JUMPDEST PUSH1 0x0 PUSH2 0x16A6 DUP5 DUP3 DUP6 ADD PUSH2 0x1543 JUMP JUMPDEST SWAP2 POP POP SWAP3 SWAP2 POP POP JUMP JUMPDEST PUSH1 0x0 PUSH1 0x20 DUP3 DUP5 SUB SLT ISZERO PUSH2 0x16C5 JUMPI PUSH2 0x16C4 PUSH2 0x14BF JUMP JUMPDEST JUMPDEST PUSH1 0x0 PUSH2 0x16D3 DUP5 DUP3 DUP6 ADD PUSH2 0x150D JUMP JUMPDEST SWAP2 POP POP SWAP3 SWAP2 POP POP JUMP JUMPDEST PUSH2 0x16E5 DUP2 PUSH2 0x14E4 JUMP JUMPDEST DUP3 MSTORE POP POP JUMP JUMPDEST PUSH1 0x0 PUSH1 0x20 DUP3 ADD SWAP1 POP PUSH2 0x1700 PUSH1 0x0 DUP4 ADD DUP5 PUSH2 0x16DC JUMP JUMPDEST SWAP3 SWAP2 POP POP JUMP JUMPDEST PUSH1 0x0 DUP1 PUSH1 0x40 DUP4 DUP6 SUB SLT ISZERO PUSH2 0x171D JUMPI PUSH2 0x171C PUSH2 0x14BF JUMP JUMPDEST JUMPDEST PUSH1 0x0 PUSH2 0x172B DUP6 DUP3 DUP7 ADD PUSH2 0x150D JUMP JUMPDEST SWAP3 POP POP PUSH1 0x20 PUSH2 0x173C DUP6 DUP3 DUP7 ADD PUSH2 0x150D JUMP JUMPDEST SWAP2 POP POP SWAP3 POP SWAP3 SWAP1 POP JUMP JUMPDEST PUSH32 0x4E487B7100000000000000000000000000000000000000000000000000000000 PUSH1 0x0 MSTORE PUSH1 0x22 PUSH1 0x4 MSTORE PUSH1 0x24 PUSH1 0x0 REVERT JUMPDEST PUSH1 0x0 PUSH1 0x2 DUP3 DIV SWAP1 POP PUSH1 0x1 DUP3 AND DUP1 PUSH2 0x178D JUMPI PUSH1 0x7F DUP3 AND SWAP2 POP JUMPDEST PUSH1 0x20 DUP3 LT DUP2 SUB PUSH2 0x17A0 JUMPI PUSH2 0x179F PUSH2 0x1746 JUMP JUMPDEST JUMPDEST POP SWAP2 SWAP1 POP JUMP JUMPDEST PUSH32 0x4E487B7100000000000000000000000000000000000000000000000000000000 PUSH1 0x0 MSTORE PUSH1 0x11 PUSH1 0x4 MSTORE PUSH1 0x24 PUSH1 0x0 REVERT JUMPDEST PUSH1 0x0 PUSH2 0x17E0 DUP3 PUSH2 0x1522 JUMP JUMPDEST SWAP2 POP PUSH2 0x17EB DUP4 PUSH2 0x1522 JUMP JUMPDEST SWAP3 POP DUP3 DUP3 ADD SWAP1 POP DUP1 DUP3 GT ISZERO PUSH2 0x1803 JUMPI PUSH2 0x1802 PUSH2 0x17A6 JUMP JUMPDEST JUMPDEST SWAP3 SWAP2 POP POP JUMP JUMPDEST PUSH32 0x4E487B7100000000000000000000000000000000000000000000000000000000 PUSH1 0x0 MSTORE PUSH1 0x1 PUSH1 0x4 MSTORE PUSH1 0x24 PUSH1 0x0 REVERT JUMPDEST PUSH1 0x0 PUSH2 0x1843 DUP3 PUSH2 0x1522 JUMP JUMPDEST SWAP2 POP PUSH2 0x184E DUP4 PUSH2 0x1522 JUMP JUMPDEST SWAP3 POP DUP3 DUP3 SUB SWAP1 POP DUP2 DUP2 GT ISZERO PUSH2 0x1866 JUMPI PUSH2 0x1865 PUSH2 0x17A6 JUMP JUMPDEST JUMPDEST SWAP3 SWAP2 POP POP JUMP INVALID LOG2 PUSH5 0x6970667358 0x22 SLT KECCAK256 SWAP14 0xE4 0xC1 CALLER 0xAB PUSH13 0xFEC8878D5D9CCFBB52DAD5EB2D PUSH7 0x4B3A7EE5CC9F81 0xA5 PUSH9 0x3FF67A64736F6C6343 STOP ADDMOD SLT STOP CALLER "
				},
				"gasEstimates": {
					"creation": {
						"codeDepositCost": "1261200",
						"executionCost": "infinite",
						"totalCost": "infinite"
					},
					"external": {
						"": "197",
						"allowance(address,address)": "infinite",
						"approve(address,uint256)": "23192",
						"balanceOf(address)": "2837",
						"burn(uint256)": "infinite",
						"decimals()": "2494",
						"equalBalance()": "infinite",
						"freeze(uint256)": "infinite",
						"freezeOf(address)": "2858",
						"name()": "infinite",
						"owner()": "2581",
						"symbol()": "infinite",
						"totalSupply()": "2497",
						"transfer(address,uint256)": "infinite",
						"transferFrom(address,address,uint256)": "infinite",
						"unfreeze(uint256)": "infinite",
						"withdrawEther(uint256)": "infinite"
					}
				},
				"methodIdentifiers": {
					"allowance(address,address)": "dd62ed3e",
					"approve(address,uint256)": "095ea7b3",
					"balanceOf(address)": "70a08231",
					"burn(uint256)": "42966c68",
					"decimals()": "313ce567",
					"equalBalance()": "7fb28a2b",
					"freeze(uint256)": "d7a78db8",
					"freezeOf(address)": "cd4217c1",
					"name()": "06fdde03",
					"owner()": "8da5cb5b",
					"symbol()": "95d89b41",
					"totalSupply()": "18160ddd",
					"transfer(address,uint256)": "a9059cbb",
					"transferFrom(address,address,uint256)": "23b872dd",
					"unfreeze(uint256)": "6623fc46",
					"withdrawEther(uint256)": "3bed33ce"
				}
			},
			"storageLayout": {
				"storage": [
					{
						"astId": 121,
						"contract": "contracts/bnb.sol:BNB",
						"label": "name",
						"offset": 0,
						"slot": "0",
						"type": "t_string_storage"
					},
					{
						"astId": 123,
						"contract": "contracts/bnb.sol:BNB",
						"label": "symbol",
						"offset": 0,
						"slot": "1",
						"type": "t_string_storage"
					},
					{
						"astId": 125,
						"contract": "contracts/bnb.sol:BNB",
						"label": "decimals",
						"offset": 0,
						"slot": "2",
						"type": "t_uint8"
					},
					{
						"astId": 127,
						"contract": "contracts/bnb.sol:BNB",
						"label": "totalSupply",
						"offset": 0,
						"slot": "3",
						"type": "t_uint256"
					},
					{
						"astId": 129,
						"contract": "contracts/bnb.sol:BNB",
						"label": "owner",
						"offset": 0,
						"slot": "4",
						"type": "t_address"
					},
					{
						"astId": 131,
						"contract": "contracts/bnb.sol:BNB",
						"label": "totalBalance",
						"offset": 0,
						"slot": "5",
						"type": "t_uint256"
					},
					{
						"astId": 133,
						"contract": "contracts/bnb.sol:BNB",
						"label": "freezeTotal",
						"offset": 0,
						"slot": "6",
						"type": "t_uint256"
					},
					{
						"astId": 137,
						"contract": "contracts/bnb.sol:BNB",
						"label": "balanceOf",
						"offset": 0,
						"slot": "7",
						"type": "t_mapping(t_address,t_uint256)"
					},
					{
						"astId": 141,
						"contract": "contracts/bnb.sol:BNB",
						"label": "freezeOf",
						"offset": 0,
						"slot": "8",
						"type": "t_mapping(t_address,t_uint256)"
					},
					{
						"astId": 147,
						"contract": "contracts/bnb.sol:BNB",
						"label": "allowance",
						"offset": 0,
						"slot": "9",
						"type": "t_mapping(t_address,t_mapping(t_address,t_uint256))"
					}
				],
				"types": {
					"t_address": {
						"encoding": "inplace",
						"label": "address",
						"numberOfBytes": "20"
					},
					"t_mapping(t_address,t_mapping(t_address,t_uint256))": {
						"encoding": "mapping",
						"key": "t_address",
						"label": "mapping(address => mapping(address => uint256))",
						"numberOfBytes": "32",
						"value": "t_mapping(t_address,t_uint256)"
					},
					"t_mapping(t_address,t_uint256)": {
						"encoding": "mapping",
						"key": "t_address",
						"label": "mapping(address => uint256)",
						"numberOfBytes": "32",
						"value": "t_uint256"
					},
					"t_string_storage": {
						"encoding": "bytes",
						"label": "string",
						"numberOfBytes": "32"
					},
					"t_uint256": {
						"encoding": "inplace",
						"label": "uint256",
						"numberOfBytes": "32"
					},
					"t_uint8": {
						"encoding": "inplace",
						"label": "uint8",
						"numberOfBytes": "1"
					}
				}
			},
			"userdoc": {
				"kind": "user",
				"methods": {},
				"version": 1
			}
		}
	}
}