{
  "contractName": "Matic",
  "abi": [
    {
      "inputs": [
        {
          "internalType": "uint256",
          "name": "n",
          "type": "uint256"
        }
      ],
      "stateMutability": "nonpayable",
      "type": "constructor"
    },
    {
      "anonymous": false,
      "inputs": [
        {
          "indexed": false,
          "internalType": "address",
          "name": "p",
          "type": "address"
        },
        {
          "indexed": false,
          "internalType": "uint256",
          "name": "amount",
          "type": "uint256"
        }
      ],
      "name": "Burn",
      "type": "event"
    },
    {
      "anonymous": false,
      "inputs": [
        {
          "indexed": false,
          "internalType": "address",
          "name": "p",
          "type": "address"
        },
        {
          "indexed": false,
          "internalType": "address",
          "name": "s",
          "type": "address"
        },
        {
          "indexed": false,
          "internalType": "uint256",
          "name": "n",
          "type": "uint256"
        }
      ],
      "name": "DecreaseAllowance",
      "type": "event"
    },
    {
      "anonymous": false,
      "inputs": [
        {
          "indexed": false,
          "internalType": "address",
          "name": "p",
          "type": "address"
        },
        {
          "indexed": false,
          "internalType": "address",
          "name": "s",
          "type": "address"
        },
        {
          "indexed": false,
          "internalType": "uint256",
          "name": "n",
          "type": "uint256"
        }
      ],
      "name": "IncreaseAllowance",
      "type": "event"
    },
    {
      "anonymous": false,
      "inputs": [
        {
          "indexed": false,
          "internalType": "address",
          "name": "p",
          "type": "address"
        },
        {
          "indexed": false,
          "internalType": "bool",
          "name": "b",
          "type": "bool"
        }
      ],
      "name": "IsPauser",
      "type": "event"
    },
    {
      "anonymous": false,
      "inputs": [
        {
          "indexed": false,
          "internalType": "address",
          "name": "p",
          "type": "address"
        },
        {
          "indexed": false,
          "internalType": "uint256",
          "name": "amount",
          "type": "uint256"
        }
      ],
      "name": "Mint",
      "type": "event"
    },
    {
      "anonymous": false,
      "inputs": [
        {
          "indexed": false,
          "internalType": "bool",
          "name": "b",
          "type": "bool"
        }
      ],
      "name": "Paused",
      "type": "event"
    },
    {
      "anonymous": false,
      "inputs": [
        {
          "indexed": false,
          "internalType": "address",
          "name": "from",
          "type": "address"
        },
        {
          "indexed": false,
          "internalType": "address",
          "name": "to",
          "type": "address"
        },
        {
          "indexed": false,
          "internalType": "uint256",
          "name": "amount",
          "type": "uint256"
        }
      ],
      "name": "Transfer",
      "type": "event"
    },
    {
      "anonymous": false,
      "inputs": [
        {
          "indexed": false,
          "internalType": "address",
          "name": "from",
          "type": "address"
        },
        {
          "indexed": false,
          "internalType": "address",
          "name": "to",
          "type": "address"
        },
        {
          "indexed": false,
          "internalType": "address",
          "name": "spender",
          "type": "address"
        },
        {
          "indexed": false,
          "internalType": "uint256",
          "name": "amount",
          "type": "uint256"
        }
      ],
      "name": "TransferFrom",
      "type": "event"
    },
    {
      "inputs": [
        {
          "internalType": "address",
          "name": "p",
          "type": "address"
        },
        {
          "internalType": "uint256",
          "name": "amount",
          "type": "uint256"
        }
      ],
      "name": "burn",
      "outputs": [],
      "stateMutability": "nonpayable",
      "type": "function"
    },
    {
      "inputs": [],
      "name": "unpause",
      "outputs": [],
      "stateMutability": "nonpayable",
      "type": "function"
    },
    {
      "inputs": [
        {
          "internalType": "address",
          "name": "p",
          "type": "address"
        },
        {
          "internalType": "uint256",
          "name": "n",
          "type": "uint256"
        }
      ],
      "name": "increaseApproval",
      "outputs": [],
      "stateMutability": "nonpayable",
      "type": "function"
    },
    {
      "inputs": [],
      "name": "getTotalSupply",
      "outputs": [
        {
          "internalType": "uint256",
          "name": "",
          "type": "uint256"
        }
      ],
      "stateMutability": "view",
      "type": "function"
    },
    {
      "inputs": [
        {
          "internalType": "address",
          "name": "p",
          "type": "address"
        }
      ],
      "name": "getBalanceOf",
      "outputs": [
        {
          "internalType": "uint256",
          "name": "",
          "type": "uint256"
        }
      ],
      "stateMutability": "view",
      "type": "function"
    },
    {
      "inputs": [
        {
          "internalType": "address",
          "name": "from",
          "type": "address"
        },
        {
          "internalType": "address",
          "name": "to",
          "type": "address"
        },
        {
          "internalType": "uint256",
          "name": "amount",
          "type": "uint256"
        }
      ],
      "name": "transferFrom",
      "outputs": [],
      "stateMutability": "nonpayable",
      "type": "function"
    },
    {
      "inputs": [
        {
          "internalType": "address",
          "name": "p",
          "type": "address"
        },
        {
          "internalType": "uint256",
          "name": "amount",
          "type": "uint256"
        }
      ],
      "name": "mint",
      "outputs": [],
      "stateMutability": "nonpayable",
      "type": "function"
    },
    {
      "inputs": [
        {
          "internalType": "address",
          "name": "s",
          "type": "address"
        },
        {
          "internalType": "uint256",
          "name": "n",
          "type": "uint256"
        }
      ],
      "name": "approve",
      "outputs": [],
      "stateMutability": "nonpayable",
      "type": "function"
    },
    {
      "inputs": [
        {
          "internalType": "address",
          "name": "p",
          "type": "address"
        }
      ],
      "name": "addPauser",
      "outputs": [],
      "stateMutability": "nonpayable",
      "type": "function"
    },
    {
      "inputs": [
        {
          "internalType": "address",
          "name": "p",
          "type": "address"
        },
        {
          "internalType": "uint256",
          "name": "n",
          "type": "uint256"
        }
      ],
      "name": "decreaseApproval",
      "outputs": [],
      "stateMutability": "nonpayable",
      "type": "function"
    },
    {
      "inputs": [],
      "name": "pause",
      "outputs": [],
      "stateMutability": "nonpayable",
      "type": "function"
    },
    {
      "inputs": [
        {
          "internalType": "address",
          "name": "p",
          "type": "address"
        },
        {
          "internalType": "address",
          "name": "s",
          "type": "address"
        }
      ],
      "name": "getAllowance",
      "outputs": [
        {
          "internalType": "uint256",
          "name": "",
          "type": "uint256"
        }
      ],
      "stateMutability": "view",
      "type": "function"
    },
    {
      "inputs": [
        {
          "internalType": "address",
          "name": "to",
          "type": "address"
        },
        {
          "internalType": "uint256",
          "name": "amount",
          "type": "uint256"
        }
      ],
      "name": "transfer",
      "outputs": [],
      "stateMutability": "nonpayable",
      "type": "function"
    },
    {
      "inputs": [],
      "name": "renouncePauser",
      "outputs": [],
      "stateMutability": "nonpayable",
      "type": "function"
    }
  ],
  "bytecode": "0x60806040523480156200001157600080fd5b506040516200243d3803806200243d833981810160405281019062000037919062000407565b6200004881620000c360201b60201c565b620000586200015060201b60201c565b6200006981620001ec60201b60201c565b62000079620001f560201b60201c565b6200008a816200029760201b60201c565b6200009a6200029a60201b60201c565b620000ab816200037b60201b60201c565b620000bc816200037e60201b60201c565b50620004e5565b6000339050604051806040016040528083815260200160011515815250600360008373ffffffffffffffffffffffffffffffffffffffff1673ffffffffffffffffffffffffffffffffffffffff1681526020019081526020016000206000820151816000015560208201518160010160006101000a81548160ff0219169083151502179055509050505050565b604051806040016040528060001515815260200160011515815250600660008201518160000160006101000a81548160ff02191690831515021790555060208201518160000160016101000a81548160ff0219169083151502179055509050507f0e2fb031ee032dc02d8011dc50b816eb450cf856abd8261680dac74f72165bd26000604051620001e2919062000456565b60405180910390a1565b60003390505050565b600033905060405180604001604052808273ffffffffffffffffffffffffffffffffffffffff16815260200160011515815250600460008201518160000160006101000a81548173ffffffffffffffffffffffffffffffffffffffff021916908373ffffffffffffffffffffffffffffffffffffffff16021790555060208201518160000160146101000a81548160ff02191690831515021790555090505050565b50565b6000339050604051806040016040528060011515815260200160011515815250600260008373ffffffffffffffffffffffffffffffffffffffff1673ffffffffffffffffffffffffffffffffffffffff16815260200190815260200160002060008201518160000160006101000a81548160ff02191690831515021790555060208201518160000160016101000a81548160ff0219169083151502179055509050507f8ac9153754152e5b728b2c6bdaca961a07c94cfbf57278f89a9865679d90fe7381600160405162000370929190620004b8565b60405180910390a150565b50565b604051806040016040528082815260200160011515815250600080820151816000015560208201518160010160006101000a81548160ff02191690831515021790555090505050565b600080fd5b6000819050919050565b620003e181620003cc565b8114620003ed57600080fd5b50565b6000815190506200040181620003d6565b92915050565b60006020828403121562000420576200041f620003c7565b5b60006200043084828501620003f0565b91505092915050565b60008115159050919050565b620004508162000439565b82525050565b60006020820190506200046d600083018462000445565b92915050565b600073ffffffffffffffffffffffffffffffffffffffff82169050919050565b6000620004a08262000473565b9050919050565b620004b28162000493565b82525050565b6000604082019050620004cf6000830185620004a7565b620004de602083018462000445565b9392505050565b611f4880620004f56000396000f3fe608060405234801561001057600080fd5b50600436106100ea5760003560e01c806382dc1ec41161008c5780639dc29fac116100665780639dc29fac146101f9578063a9059cbb14610215578063c4e41b2214610231578063d73dd6231461024f576100ea565b806382dc1ec4146101a35780638456cb59146101bf5780639b96eece146101c9576100ea565b80633f4ba83a116100c85780633f4ba83a1461015757806340c10f1914610161578063661884631461017d5780636ef8d66d14610199576100ea565b8063095ea7b3146100ef5780630af4187d1461010b57806323b872dd1461013b575b600080fd5b61010960048036038101906101049190611b0e565b61026b565b005b61012560048036038101906101209190611b4e565b6102c6565b6040516101329190611b9d565b60405180910390f35b61015560048036038101906101509190611bb8565b610355565b005b61015f6103b2565b005b61017b60048036038101906101769190611b0e565b610409565b005b61019760048036038101906101929190611b0e565b610464565b005b6101a16104bf565b005b6101bd60048036038101906101b89190611c0b565b610516565b005b6101c761056f565b005b6101e360048036038101906101de9190611c0b565b6105c6565b6040516101f09190611b9d565b60405180910390f35b610213600480360381019061020e9190611b0e565b610617565b005b61022f600480360381019061022a9190611b0e565b610672565b005b6102396106cd565b6040516102469190611b9d565b60405180910390f35b61026960048036038101906102649190611b0e565b6106de565b005b60006102778383610739565b90506000151581151514156102c1576040517f08c379a00000000000000000000000000000000000000000000000000000000081526004016102b890611c95565b60405180910390fd5b505050565b600080600560008573ffffffffffffffffffffffffffffffffffffffff1673ffffffffffffffffffffffffffffffffffffffff16815260200190815260200160002060008473ffffffffffffffffffffffffffffffffffffffff1673ffffffffffffffffffffffffffffffffffffffff1681526020019081526020016000206000015490508091505092915050565b6000610362848484610826565b90506000151581151514156103ac576040517f08c379a00000000000000000000000000000000000000000000000000000000081526004016103a390611c95565b60405180910390fd5b50505050565b60006103bc61099a565b9050600015158115151415610406576040517f08c379a00000000000000000000000000000000000000000000000000000000081526004016103fd90611c95565b60405180910390fd5b50565b60006104158383610aa4565b905060001515811515141561045f576040517f08c379a000000000000000000000000000000000000000000000000000000000815260040161045690611c95565b60405180910390fd5b505050565b60006104708383610bbb565b90506000151581151514156104ba576040517f08c379a00000000000000000000000000000000000000000000000000000000081526004016104b190611c95565b60405180910390fd5b505050565b60006104c9610caa565b9050600015158115151415610513576040517f08c379a000000000000000000000000000000000000000000000000000000000815260040161050a90611c95565b60405180910390fd5b50565b600061052182610df6565b905060001515811515141561056b576040517f08c379a000000000000000000000000000000000000000000000000000000000815260040161056290611c95565b60405180910390fd5b5050565b6000610579610f44565b90506000151581151514156105c3576040517f08c379a00000000000000000000000000000000000000000000000000000000081526004016105ba90611c95565b60405180910390fd5b50565b600080600360008473ffffffffffffffffffffffffffffffffffffffff1673ffffffffffffffffffffffffffffffffffffffff16815260200190815260200160002060000154905080915050919050565b6000610623838361104e565b905060001515811515141561066d576040517f08c379a000000000000000000000000000000000000000000000000000000000815260040161066490611c95565b60405180910390fd5b505050565b600061067e83836111bb565b90506000151581151514156106c8576040517f08c379a00000000000000000000000000000000000000000000000000000000081526004016106bf90611c95565b60405180910390fd5b505050565b600080600080015490508091505090565b60006106ea8383611297565b9050600015158115151415610734576040517f08c379a000000000000000000000000000000000000000000000000000000000815260040161072b90611c95565b60405180910390fd5b505050565b6000803390506000600560008373ffffffffffffffffffffffffffffffffffffffff1673ffffffffffffffffffffffffffffffffffffffff16815260200190815260200160002060008673ffffffffffffffffffffffffffffffffffffffff1673ffffffffffffffffffffffffffffffffffffffff168152602001908152602001600020600001549050600081856107d19190611ce4565b90506107de8387836112ee565b7f01722f0e92ffd761d4a842cffdd36fe3adb6091e41732a4e714250176b7d8d2283878360405161081193929190611d27565b60405180910390a16001935050505092915050565b600080339050600660000160009054906101000a900460ff16151560001515141561098d576000600360008773ffffffffffffffffffffffffffffffffffffffff1673ffffffffffffffffffffffffffffffffffffffff1681526020019081526020016000206000015490506000600560008873ffffffffffffffffffffffffffffffffffffffff1673ffffffffffffffffffffffffffffffffffffffff16815260200190815260200160002060008473ffffffffffffffffffffffffffffffffffffffff1673ffffffffffffffffffffffffffffffffffffffff1681526020019081526020016000206000015490508482101580156109265750848110155b1561098a57610936878487611304565b61094187878761131a565b7f5f7542858008eeb041631f30e6109ae94b83a58e9a58261dd2c42c508850f939878785886040516109769493929190611d5e565b60405180910390a160019350505050610993565b50505b60009150505b9392505050565b600080600460000160009054906101000a900473ffffffffffffffffffffffffffffffffffffffff1690503373ffffffffffffffffffffffffffffffffffffffff168173ffffffffffffffffffffffffffffffffffffffff161415610a9b57604051806040016040528060001515815260200160011515815250600660008201518160000160006101000a81548160ff02191690831515021790555060208201518160000160016101000a81548160ff0219169083151502179055509050507f0e2fb031ee032dc02d8011dc50b816eb450cf856abd8261680dac74f72165bd26000604051610a899190611dbe565b60405180910390a16001915050610aa1565b60009150505b90565b6000600660000160009054906101000a900460ff161515600015151415610bb0576000600460000160009054906101000a900473ffffffffffffffffffffffffffffffffffffffff1690503373ffffffffffffffffffffffffffffffffffffffff168173ffffffffffffffffffffffffffffffffffffffff161415610bae57600073ffffffffffffffffffffffffffffffffffffffff168473ffffffffffffffffffffffffffffffffffffffff1614610bad57610b608361136e565b610b6a8484611380565b7f0f6798a560793a54c3bcfe86a93cde1e73087d944c0ea20544137d41213968858484604051610b9b929190611dd9565b60405180910390a16001915050610bb5565b5b505b600090505b92915050565b6000803390506000600560008373ffffffffffffffffffffffffffffffffffffffff1673ffffffffffffffffffffffffffffffffffffffff16815260200190815260200160002060008673ffffffffffffffffffffffffffffffffffffffff1673ffffffffffffffffffffffffffffffffffffffff168152602001908152602001600020600001549050838110610c9d57610c57828686611394565b7f3fda289a93fbd447987ffc8940a1af71a1fad600cc184d06b56d4aa271393522828686604051610c8a93929190611d27565b60405180910390a1600192505050610ca4565b6000925050505b92915050565b600080339050600260008273ffffffffffffffffffffffffffffffffffffffff1673ffffffffffffffffffffffffffffffffffffffff16815260200190815260200160002060000160009054906101000a900460ff161515600115151415610ded57604051806040016040528060001515815260200160011515815250600260008373ffffffffffffffffffffffffffffffffffffffff1673ffffffffffffffffffffffffffffffffffffffff16815260200190815260200160002060008201518160000160006101000a81548160ff02191690831515021790555060208201518160000160016101000a81548160ff0219169083151502179055509050507f8ac9153754152e5b728b2c6bdaca961a07c94cfbf57278f89a9865679d90fe73816000604051610ddb929190611e02565b60405180910390a16001915050610df3565b60009150505b90565b600080339050600260008273ffffffffffffffffffffffffffffffffffffffff1673ffffffffffffffffffffffffffffffffffffffff16815260200190815260200160002060000160009054906101000a900460ff161515600115151415610f3957604051806040016040528060011515815260200160011515815250600260008573ffffffffffffffffffffffffffffffffffffffff1673ffffffffffffffffffffffffffffffffffffffff16815260200190815260200160002060008201518160000160006101000a81548160ff02191690831515021790555060208201518160000160016101000a81548160ff0219169083151502179055509050507f8ac9153754152e5b728b2c6bdaca961a07c94cfbf57278f89a9865679d90fe73836001604051610f27929190611e02565b60405180910390a16001915050610f3f565b60009150505b919050565b600080600460000160009054906101000a900473ffffffffffffffffffffffffffffffffffffffff1690503373ffffffffffffffffffffffffffffffffffffffff168173ffffffffffffffffffffffffffffffffffffffff16141561104557604051806040016040528060011515815260200160011515815250600660008201518160000160006101000a81548160ff02191690831515021790555060208201518160000160016101000a81548160ff0219169083151502179055509050507f0e2fb031ee032dc02d8011dc50b816eb450cf856abd8261680dac74f72165bd260016040516110339190611dbe565b60405180910390a1600191505061104b565b60009150505b90565b600080339050600660000160009054906101000a900460ff1615156000151514156111af57600460000160009054906101000a900473ffffffffffffffffffffffffffffffffffffffff1673ffffffffffffffffffffffffffffffffffffffff168173ffffffffffffffffffffffffffffffffffffffff1614156111ae576000600360008673ffffffffffffffffffffffffffffffffffffffff1673ffffffffffffffffffffffffffffffffffffffff168152602001908152602001600020600001549050600073ffffffffffffffffffffffffffffffffffffffff168573ffffffffffffffffffffffffffffffffffffffff16141580156111505750808411155b156111ac5761115f85856113aa565b611168846113be565b7fcc16f5dbb4873280815c1ee09dbd06736cffcc184412cf7a71a0fdb75d397ca58585604051611199929190611dd9565b60405180910390a16001925050506111b5565b505b5b60009150505b92915050565b6000600660000160009054906101000a900460ff16151560001515141561128c5760003390506000600360008373ffffffffffffffffffffffffffffffffffffffff1673ffffffffffffffffffffffffffffffffffffffff1681526020019081526020016000206000015490508084116112895761123982856113d0565b61124385856113e4565b7fddf252ad1be2c89b69c2b068fc378daa952ba7f163c4a11628f55a4df523b3ef82868660405161127693929190611d27565b60405180910390a1600192505050611291565b50505b600090505b92915050565b6000803390506112a88185856112ee565b7f01722f0e92ffd761d4a842cffdd36fe3adb6091e41732a4e714250176b7d8d228185856040516112db93929190611d27565b60405180910390a1600191505092915050565b60008190506112fe8484836113f8565b50505050565b6000819050611314848483611515565b50505050565b61132483826113d0565b61132e82826113e4565b7fddf252ad1be2c89b69c2b068fc378daa952ba7f163c4a11628f55a4df523b3ef83838360405161136193929190611d27565b60405180910390a1505050565b600081905061137c8161163b565b5050565b600081905061138f8382611660565b505050565b60008190506113a4848483611702565b50505050565b60008190506113b98382611828565b505050565b60008190506113cc816118d3565b5050565b60008190506113df8382611901565b505050565b60008190506113f383826119ac565b505050565b60008190506000611488600560008773ffffffffffffffffffffffffffffffffffffffff1673ffffffffffffffffffffffffffffffffffffffff16815260200190815260200160002060008673ffffffffffffffffffffffffffffffffffffffff1673ffffffffffffffffffffffffffffffffffffffff1681526020019081526020016000206000015483611a4e565b905080600560008773ffffffffffffffffffffffffffffffffffffffff1673ffffffffffffffffffffffffffffffffffffffff16815260200190815260200160002060008673ffffffffffffffffffffffffffffffffffffffff1673ffffffffffffffffffffffffffffffffffffffff168152602001908152602001600020600001819055505050505050565b60008161152190611e35565b905060006115ae600560008773ffffffffffffffffffffffffffffffffffffffff1673ffffffffffffffffffffffffffffffffffffffff16815260200190815260200160002060008673ffffffffffffffffffffffffffffffffffffffff1673ffffffffffffffffffffffffffffffffffffffff1681526020019081526020016000206000015483611a4e565b905080600560008773ffffffffffffffffffffffffffffffffffffffff1673ffffffffffffffffffffffffffffffffffffffff16815260200190815260200160002060008673ffffffffffffffffffffffffffffffffffffffff1673ffffffffffffffffffffffffffffffffffffffff168152602001908152602001600020600001819055505050505050565b60008190506000611650600080015483611a4e565b9050806000800181905550505050565b600081905060006116b3600360008673ffffffffffffffffffffffffffffffffffffffff1673ffffffffffffffffffffffffffffffffffffffff1681526020019081526020016000206000015483611a4e565b905080600360008673ffffffffffffffffffffffffffffffffffffffff1673ffffffffffffffffffffffffffffffffffffffff1681526020019081526020016000206000018190555050505050565b60008161170e90611e35565b9050600061179b600560008773ffffffffffffffffffffffffffffffffffffffff1673ffffffffffffffffffffffffffffffffffffffff16815260200190815260200160002060008673ffffffffffffffffffffffffffffffffffffffff1673ffffffffffffffffffffffffffffffffffffffff1681526020019081526020016000206000015483611a4e565b905080600560008773ffffffffffffffffffffffffffffffffffffffff1673ffffffffffffffffffffffffffffffffffffffff16815260200190815260200160002060008673ffffffffffffffffffffffffffffffffffffffff1673ffffffffffffffffffffffffffffffffffffffff168152602001908152602001600020600001819055505050505050565b60008161183490611e35565b90506000611884600360008673ffffffffffffffffffffffffffffffffffffffff1673ffffffffffffffffffffffffffffffffffffffff1681526020019081526020016000206000015483611a4e565b905080600360008673ffffffffffffffffffffffffffffffffffffffff1673ffffffffffffffffffffffffffffffffffffffff1681526020019081526020016000206000018190555050505050565b6000816118df90611e35565b905060006118f1600080015483611a4e565b9050806000800181905550505050565b60008161190d90611e35565b9050600061195d600360008673ffffffffffffffffffffffffffffffffffffffff1673ffffffffffffffffffffffffffffffffffffffff1681526020019081526020016000206000015483611a4e565b905080600360008673ffffffffffffffffffffffffffffffffffffffff1673ffffffffffffffffffffffffffffffffffffffff1681526020019081526020016000206000018190555050505050565b600081905060006119ff600360008673ffffffffffffffffffffffffffffffffffffffff1673ffffffffffffffffffffffffffffffffffffffff1681526020019081526020016000206000015483611a4e565b905080600360008673ffffffffffffffffffffffffffffffffffffffff1673ffffffffffffffffffffffffffffffffffffffff1681526020019081526020016000206000018190555050505050565b60008083905060008382611a629190611e7e565b9050600081905080935050505092915050565b600080fd5b600073ffffffffffffffffffffffffffffffffffffffff82169050919050565b6000611aa582611a7a565b9050919050565b611ab581611a9a565b8114611ac057600080fd5b50565b600081359050611ad281611aac565b92915050565b6000819050919050565b611aeb81611ad8565b8114611af657600080fd5b50565b600081359050611b0881611ae2565b92915050565b60008060408385031215611b2557611b24611a75565b5b6000611b3385828601611ac3565b9250506020611b4485828601611af9565b9150509250929050565b60008060408385031215611b6557611b64611a75565b5b6000611b7385828601611ac3565b9250506020611b8485828601611ac3565b9150509250929050565b611b9781611ad8565b82525050565b6000602082019050611bb26000830184611b8e565b92915050565b600080600060608486031215611bd157611bd0611a75565b5b6000611bdf86828701611ac3565b9350506020611bf086828701611ac3565b9250506040611c0186828701611af9565b9150509250925092565b600060208284031215611c2157611c20611a75565b5b6000611c2f84828501611ac3565b91505092915050565b600082825260208201905092915050565b7f52756c6520636f6e646974696f6e206661696c65640000000000000000000000600082015250565b6000611c7f601583611c38565b9150611c8a82611c49565b602082019050919050565b60006020820190508181036000830152611cae81611c72565b9050919050565b7f4e487b7100000000000000000000000000000000000000000000000000000000600052601160045260246000fd5b6000611cef82611ad8565b9150611cfa83611ad8565b925082821015611d0d57611d0c611cb5565b5b828203905092915050565b611d2181611a9a565b82525050565b6000606082019050611d3c6000830186611d18565b611d496020830185611d18565b611d566040830184611b8e565b949350505050565b6000608082019050611d736000830187611d18565b611d806020830186611d18565b611d8d6040830185611d18565b611d9a6060830184611b8e565b95945050505050565b60008115159050919050565b611db881611da3565b82525050565b6000602082019050611dd36000830184611daf565b92915050565b6000604082019050611dee6000830185611d18565b611dfb6020830184611b8e565b9392505050565b6000604082019050611e176000830185611d18565b611e246020830184611daf565b9392505050565b6000819050919050565b6000611e4082611e2b565b91507f8000000000000000000000000000000000000000000000000000000000000000821415611e7357611e72611cb5565b5b816000039050919050565b6000611e8982611e2b565b9150611e9483611e2b565b9250817f7fffffffffffffffffffffffffffffffffffffffffffffffffffffffffffffff03831360008312151615611ecf57611ece611cb5565b5b817f8000000000000000000000000000000000000000000000000000000000000000038312600083121615611f0757611f06611cb5565b5b82820190509291505056fea264697066735822122042cff358df4a562dbb24a1beb184e6caffa718d6ac62bab13d24a36492a5b7cd64736f6c634300080c0033",
  "immutableReferences": {},
  "source": "contract Matic {\n  struct OwnerTuple {\n    address p;\n    bool _valid;\n  }\n  struct TotalSupplyTuple {\n    uint n;\n    bool _valid;\n  }\n  struct IsPauserTuple {\n    bool b;\n    bool _valid;\n  }\n  struct BalanceOfTuple {\n    uint n;\n    bool _valid;\n  }\n  struct AllowanceTuple {\n    uint n;\n    bool _valid;\n  }\n  struct PausedTuple {\n    bool b;\n    bool _valid;\n  }\n  TotalSupplyTuple totalSupply;\n  mapping(address=>IsPauserTuple) isPauser;\n  mapping(address=>BalanceOfTuple) balanceOf;\n  OwnerTuple owner;\n  mapping(address=>mapping(address=>AllowanceTuple)) allowance;\n  PausedTuple paused;\n  event Burn(address p,uint amount);\n  event Mint(address p,uint amount);\n  event DecreaseAllowance(address p,address s,uint n);\n  event IncreaseAllowance(address p,address s,uint n);\n  event IsPauser(address p,bool b);\n  event Transfer(address from,address to,uint amount);\n  event Paused(bool b);\n  event TransferFrom(address from,address to,address spender,uint amount);\n  constructor(uint n) public {\n    updateBalanceOfOnInsertConstructor_r20(n);\n    updatePausedOnInsertConstructor_r25();\n    updateTotalMintOnInsertConstructor_r22(n);\n    updateOwnerOnInsertConstructor_r8();\n    updateTotalBalancesOnInsertConstructor_r32(n);\n    updateIsPauserOnInsertConstructor_r5();\n    updateAllMintOnInsertConstructor_r15(n);\n    updateTotalSupplyOnInsertConstructor_r28(n);\n  }\n  function burn(address p,uint amount) public    {\n      bool r11 = updateBurnOnInsertRecv_burn_r11(p,amount);\n      if(r11==false) {\n        revert(\"Rule condition failed\");\n      }\n  }\n  function unpause() public    {\n      bool r9 = updatePausedOnInsertRecv_unpause_r9();\n      if(r9==false) {\n        revert(\"Rule condition failed\");\n      }\n  }\n  function increaseApproval(address p,uint n) public    {\n      bool r13 = updateIncreaseAllowanceOnInsertRecv_increaseApproval_r13(p,n);\n      if(r13==false) {\n        revert(\"Rule condition failed\");\n      }\n  }\n  function getTotalSupply() public view  returns (uint) {\n      uint n = totalSupply.n;\n      return n;\n  }\n  function getBalanceOf(address p) public view  returns (uint) {\n      uint n = balanceOf[p].n;\n      return n;\n  }\n  function transferFrom(address from,address to,uint amount) public    {\n      bool r2 = updateTransferFromOnInsertRecv_transferFrom_r2(from,to,amount);\n      if(r2==false) {\n        revert(\"Rule condition failed\");\n      }\n  }\n  function mint(address p,uint amount) public    {\n      bool r4 = updateMintOnInsertRecv_mint_r4(p,amount);\n      if(r4==false) {\n        revert(\"Rule condition failed\");\n      }\n  }\n  function approve(address s,uint n) public    {\n      bool r31 = updateIncreaseAllowanceOnInsertRecv_approve_r31(s,n);\n      if(r31==false) {\n        revert(\"Rule condition failed\");\n      }\n  }\n  function addPauser(address p) public    {\n      bool r7 = updateIsPauserOnInsertRecv_addPauser_r7(p);\n      if(r7==false) {\n        revert(\"Rule condition failed\");\n      }\n  }\n  function decreaseApproval(address p,uint n) public    {\n      bool r19 = updateDecreaseAllowanceOnInsertRecv_decreaseApproval_r19(p,n);\n      if(r19==false) {\n        revert(\"Rule condition failed\");\n      }\n  }\n  function pause() public    {\n      bool r3 = updatePausedOnInsertRecv_pause_r3();\n      if(r3==false) {\n        revert(\"Rule condition failed\");\n      }\n  }\n  function getAllowance(address p,address s) public view  returns (uint) {\n      uint n = allowance[p][s].n;\n      return n;\n  }\n  function transfer(address to,uint amount) public    {\n      bool r14 = updateTransferOnInsertRecv_transfer_r14(to,amount);\n      if(r14==false) {\n        revert(\"Rule condition failed\");\n      }\n  }\n  function renouncePauser() public    {\n      bool r0 = updateIsPauserOnInsertRecv_renouncePauser_r0();\n      if(r0==false) {\n        revert(\"Rule condition failed\");\n      }\n  }\n  function updateTotalSupplyOnInsertConstructor_r28(uint n) private    {\n      totalSupply = TotalSupplyTuple(n,true);\n  }\n  function updateAllMintOnInsertConstructor_r15(uint n) private    {\n      // Empty()\n  }\n  function updatePausedOnInsertConstructor_r25() private    {\n      paused = PausedTuple(false,true);\n      emit Paused(false);\n  }\n  function updateBalanceOfOnIncrementTotalOut_r26(address p,int o) private    {\n      int _delta = int(-o);\n      uint newValue = updateuintByint(balanceOf[p].n,_delta);\n      balanceOf[p].n = newValue;\n  }\n  function updateTransferOnInsertTransferFrom_r1(address o,address r,uint n) private    {\n      updateTotalOutOnInsertTransfer_r23(o,n);\n      updateTotalInOnInsertTransfer_r10(r,n);\n      emit Transfer(o,r,n);\n  }\n  function updateIncreaseAllowanceOnInsertRecv_approve_r31(address s,uint n) private   returns (bool) {\n      address o = msg.sender;\n      uint m = allowance[o][s].n;\n      uint d = n-m;\n      updateAllowanceTotalOnInsertIncreaseAllowance_r33(o,s,d);\n      emit IncreaseAllowance(o,s,d);\n      return true;\n      return false;\n  }\n  function updateBalanceOfOnIncrementTotalIn_r26(address p,int i) private    {\n      int _delta = int(i);\n      uint newValue = updateuintByint(balanceOf[p].n,_delta);\n      balanceOf[p].n = newValue;\n  }\n  function updatePausedOnInsertRecv_unpause_r9() private   returns (bool) {\n      address s = owner.p;\n      if(s==msg.sender) {\n        paused = PausedTuple(false,true);\n        emit Paused(false);\n        return true;\n      }\n      return false;\n  }\n  function updateTotalBurnOnInsertBurn_r16(address p,uint n) private    {\n      int delta0 = int(n);\n      updateBalanceOfOnIncrementTotalBurn_r26(p,delta0);\n  }\n  function updateTotalSupplyOnIncrementAllBurn_r18(int b) private    {\n      int _delta = int(-b);\n      uint newValue = updateuintByint(totalSupply.n,_delta);\n      totalSupply.n = newValue;\n  }\n  function updateAllMintOnInsertMint_r12(uint n) private    {\n      int delta0 = int(n);\n      updateTotalSupplyOnIncrementAllMint_r18(delta0);\n  }\n  function updateBalanceOfOnIncrementTotalMint_r26(address p,int n) private    {\n      int _delta = int(n);\n      uint newValue = updateuintByint(balanceOf[p].n,_delta);\n      balanceOf[p].n = newValue;\n  }\n  function updateBurnOnInsertRecv_burn_r11(address p,uint n) private   returns (bool) {\n      address s = msg.sender;\n      if(false==paused.b) {\n        if(s==owner.p) {\n          uint m = balanceOf[p].n;\n          if(p!=address(0) && n<=m) {\n            updateTotalBurnOnInsertBurn_r16(p,n);\n            updateAllBurnOnInsertBurn_r30(n);\n            emit Burn(p,n);\n            return true;\n          }\n        }\n      }\n      return false;\n  }\n  function updateTotalBalancesOnInsertConstructor_r32(uint n) private    {\n      // Empty()\n  }\n  function updateDecreaseAllowanceOnInsertRecv_decreaseApproval_r19(address s,uint n) private   returns (bool) {\n      address o = msg.sender;\n      uint m = allowance[o][s].n;\n      if(m>=n) {\n        updateDecreaseAllowanceTotalOnInsertDecreaseAllowance_r6(o,s,n);\n        emit DecreaseAllowance(o,s,n);\n        return true;\n      }\n      return false;\n  }\n  function updateAllowanceTotalOnInsertIncreaseAllowance_r33(address o,address s,uint n) private    {\n      int delta0 = int(n);\n      updateAllowanceOnIncrementAllowanceTotal_r29(o,s,delta0);\n  }\n  function updateIsPauserOnInsertConstructor_r5() private    {\n      address s = msg.sender;\n      isPauser[s] = IsPauserTuple(true,true);\n      emit IsPauser(s,true);\n  }\n  function updateIsPauserOnInsertRecv_renouncePauser_r0() private   returns (bool) {\n      address s = msg.sender;\n      if(true==isPauser[s].b) {\n        isPauser[s] = IsPauserTuple(false,true);\n        emit IsPauser(s,false);\n        return true;\n      }\n      return false;\n  }\n  function updateTotalMintOnInsertConstructor_r22(uint n) private    {\n      address s = msg.sender;\n      // Empty()\n  }\n  function updateTotalInOnInsertTransfer_r10(address p,uint n) private    {\n      int delta0 = int(n);\n      updateBalanceOfOnIncrementTotalIn_r26(p,delta0);\n  }\n  function updateOwnerOnInsertConstructor_r8() private    {\n      address s = msg.sender;\n      owner = OwnerTuple(s,true);\n  }\n  function updateBalanceOfOnIncrementTotalBurn_r26(address p,int m) private    {\n      int _delta = int(-m);\n      uint newValue = updateuintByint(balanceOf[p].n,_delta);\n      balanceOf[p].n = newValue;\n  }\n  function updateIncreaseAllowanceOnInsertRecv_increaseApproval_r13(address s,uint n) private   returns (bool) {\n      address o = msg.sender;\n      updateAllowanceTotalOnInsertIncreaseAllowance_r33(o,s,n);\n      emit IncreaseAllowance(o,s,n);\n      return true;\n      return false;\n  }\n  function updatePausedOnInsertRecv_pause_r3() private   returns (bool) {\n      address s = owner.p;\n      if(s==msg.sender) {\n        paused = PausedTuple(true,true);\n        emit Paused(true);\n        return true;\n      }\n      return false;\n  }\n  function updateAllBurnOnInsertBurn_r30(uint n) private    {\n      int delta0 = int(n);\n      updateTotalSupplyOnIncrementAllBurn_r18(delta0);\n  }\n  function updateAllowanceOnIncrementAllowanceTotal_r29(address o,address s,int m) private    {\n      int _delta = int(m);\n      uint newValue = updateuintByint(allowance[o][s].n,_delta);\n      allowance[o][s].n = newValue;\n  }\n  function updateMintOnInsertRecv_mint_r4(address p,uint n) private   returns (bool) {\n      if(false==paused.b) {\n        address s = owner.p;\n        if(s==msg.sender) {\n          if(p!=address(0)) {\n            updateAllMintOnInsertMint_r12(n);\n            updateTotalMintOnInsertMint_r17(p,n);\n            emit Mint(p,n);\n            return true;\n          }\n        }\n      }\n      return false;\n  }\n  function updateuintByint(uint x,int delta) private   returns (uint) {\n      int convertedX = int(x);\n      int value = convertedX+delta;\n      uint convertedValue = uint(value);\n      return convertedValue;\n  }\n  function updateTotalSupplyOnIncrementAllMint_r18(int m) private    {\n      int _delta = int(m);\n      uint newValue = updateuintByint(totalSupply.n,_delta);\n      totalSupply.n = newValue;\n  }\n  function updateBalanceOfOnInsertConstructor_r20(uint n) private    {\n      address s = msg.sender;\n      balanceOf[s] = BalanceOfTuple(n,true);\n  }\n  function updateAllowanceOnIncrementDecreaseAllowanceTotal_r29(address o,address s,int d) private    {\n      int _delta = int(-d);\n      uint newValue = updateuintByint(allowance[o][s].n,_delta);\n      allowance[o][s].n = newValue;\n  }\n  function updateTotalOutOnInsertTransfer_r23(address p,uint n) private    {\n      int delta0 = int(n);\n      updateBalanceOfOnIncrementTotalOut_r26(p,delta0);\n  }\n  function updateTransferFromOnInsertRecv_transferFrom_r2(address o,address r,uint n) private   returns (bool) {\n      address s = msg.sender;\n      if(false==paused.b) {\n        uint m = balanceOf[o].n;\n        uint k = allowance[o][s].n;\n        if(m>=n && k>=n) {\n          updateSpentTotalOnInsertTransferFrom_r27(o,s,n);\n          updateTransferOnInsertTransferFrom_r1(o,r,n);\n          emit TransferFrom(o,r,s,n);\n          return true;\n        }\n      }\n      return false;\n  }\n  function updateTransferOnInsertRecv_transfer_r14(address r,uint n) private   returns (bool) {\n      if(false==paused.b) {\n        address s = msg.sender;\n        uint m = balanceOf[s].n;\n        if(n<=m) {\n          updateTotalOutOnInsertTransfer_r23(s,n);\n          updateTotalInOnInsertTransfer_r10(r,n);\n          emit Transfer(s,r,n);\n          return true;\n        }\n      }\n      return false;\n  }\n  function updateAllowanceOnIncrementSpentTotal_r29(address o,address s,int l) private    {\n      int _delta = int(-l);\n      uint newValue = updateuintByint(allowance[o][s].n,_delta);\n      allowance[o][s].n = newValue;\n  }\n  function updateDecreaseAllowanceTotalOnInsertDecreaseAllowance_r6(address o,address s,uint n) private    {\n      int delta0 = int(n);\n      updateAllowanceOnIncrementDecreaseAllowanceTotal_r29(o,s,delta0);\n  }\n  function updateIsPauserOnInsertRecv_addPauser_r7(address p) private   returns (bool) {\n      address s = msg.sender;\n      if(true==isPauser[s].b) {\n        isPauser[p] = IsPauserTuple(true,true);\n        emit IsPauser(p,true);\n        return true;\n      }\n      return false;\n  }\n  function updateSpentTotalOnInsertTransferFrom_r27(address o,address s,uint n) private    {\n      int delta0 = int(n);\n      updateAllowanceOnIncrementSpentTotal_r29(o,s,delta0);\n  }\n  function updateTotalMintOnInsertMint_r17(address p,uint n) private    {\n      int delta0 = int(n);\n      updateBalanceOfOnIncrementTotalMint_r26(p,delta0);\n  }\n}",
  "sourcePath": "/Users/ljy/Desktop/PENN/2023_summer/boon_dsc/smart-contracts/optimizations/ablation/consolidation/contracts/matic.sol",
  "compiler": {
    "name": "solc",
    "version": "0.8.12+commit.f00d7308.Emscripten.clang"
  },
  "schemaVersion": "3.4.13",
  "updatedAt": "2023-07-25T16:06:09.097Z",
  "devdoc": {
    "kind": "dev",
    "methods": {},
    "version": 1
  },
  "userdoc": {
    "kind": "user",
    "methods": {},
    "version": 1
  }
}