{
  "contractName": "Wbtc",
  "abi": [
    {
      "inputs": [],
      "stateMutability": "nonpayable",
      "type": "constructor"
    },
    {
      "anonymous": false,
      "inputs": [
        {
          "indexed": false,
          "internalType": "address",
          "name": "p",
          "type": "address"
        },
        {
          "indexed": false,
          "internalType": "uint256",
          "name": "amount",
          "type": "uint256"
        }
      ],
      "name": "Burn",
      "type": "event"
    },
    {
      "anonymous": false,
      "inputs": [
        {
          "indexed": false,
          "internalType": "address",
          "name": "p",
          "type": "address"
        }
      ],
      "name": "ClaimOwnership",
      "type": "event"
    },
    {
      "anonymous": false,
      "inputs": [
        {
          "indexed": false,
          "internalType": "address",
          "name": "p",
          "type": "address"
        },
        {
          "indexed": false,
          "internalType": "address",
          "name": "s",
          "type": "address"
        },
        {
          "indexed": false,
          "internalType": "uint256",
          "name": "n",
          "type": "uint256"
        }
      ],
      "name": "DecreaseAllowance",
      "type": "event"
    },
    {
      "anonymous": false,
      "inputs": [
        {
          "indexed": false,
          "internalType": "address",
          "name": "p",
          "type": "address"
        },
        {
          "indexed": false,
          "internalType": "address",
          "name": "s",
          "type": "address"
        },
        {
          "indexed": false,
          "internalType": "uint256",
          "name": "n",
          "type": "uint256"
        }
      ],
      "name": "IncreaseAllowance",
      "type": "event"
    },
    {
      "anonymous": false,
      "inputs": [
        {
          "indexed": false,
          "internalType": "address",
          "name": "p",
          "type": "address"
        },
        {
          "indexed": false,
          "internalType": "uint256",
          "name": "amount",
          "type": "uint256"
        }
      ],
      "name": "Mint",
      "type": "event"
    },
    {
      "anonymous": false,
      "inputs": [
        {
          "indexed": false,
          "internalType": "bool",
          "name": "b",
          "type": "bool"
        }
      ],
      "name": "Paused",
      "type": "event"
    },
    {
      "anonymous": false,
      "inputs": [
        {
          "indexed": false,
          "internalType": "address",
          "name": "p",
          "type": "address"
        }
      ],
      "name": "PendingOwner",
      "type": "event"
    },
    {
      "anonymous": false,
      "inputs": [
        {
          "indexed": false,
          "internalType": "address",
          "name": "t",
          "type": "address"
        },
        {
          "indexed": false,
          "internalType": "address",
          "name": "s",
          "type": "address"
        },
        {
          "indexed": false,
          "internalType": "uint256",
          "name": "n",
          "type": "uint256"
        }
      ],
      "name": "ReclaimToken",
      "type": "event"
    },
    {
      "anonymous": false,
      "inputs": [
        {
          "indexed": false,
          "internalType": "address",
          "name": "from",
          "type": "address"
        },
        {
          "indexed": false,
          "internalType": "address",
          "name": "to",
          "type": "address"
        },
        {
          "indexed": false,
          "internalType": "uint256",
          "name": "amount",
          "type": "uint256"
        }
      ],
      "name": "Transfer",
      "type": "event"
    },
    {
      "anonymous": false,
      "inputs": [
        {
          "indexed": false,
          "internalType": "address",
          "name": "from",
          "type": "address"
        },
        {
          "indexed": false,
          "internalType": "address",
          "name": "to",
          "type": "address"
        },
        {
          "indexed": false,
          "internalType": "address",
          "name": "spender",
          "type": "address"
        },
        {
          "indexed": false,
          "internalType": "uint256",
          "name": "amount",
          "type": "uint256"
        }
      ],
      "name": "TransferFrom",
      "type": "event"
    },
    {
      "inputs": [
        {
          "internalType": "address",
          "name": "from",
          "type": "address"
        },
        {
          "internalType": "address",
          "name": "to",
          "type": "address"
        },
        {
          "internalType": "uint256",
          "name": "amount",
          "type": "uint256"
        }
      ],
      "name": "transferFrom",
      "outputs": [],
      "stateMutability": "nonpayable",
      "type": "function"
    },
    {
      "inputs": [
        {
          "internalType": "address",
          "name": "p",
          "type": "address"
        },
        {
          "internalType": "uint256",
          "name": "amount",
          "type": "uint256"
        }
      ],
      "name": "mint",
      "outputs": [],
      "stateMutability": "nonpayable",
      "type": "function"
    },
    {
      "inputs": [],
      "name": "pause",
      "outputs": [],
      "stateMutability": "nonpayable",
      "type": "function"
    },
    {
      "inputs": [
        {
          "internalType": "address",
          "name": "to",
          "type": "address"
        },
        {
          "internalType": "uint256",
          "name": "amount",
          "type": "uint256"
        }
      ],
      "name": "transfer",
      "outputs": [],
      "stateMutability": "nonpayable",
      "type": "function"
    },
    {
      "inputs": [
        {
          "internalType": "address",
          "name": "p",
          "type": "address"
        }
      ],
      "name": "getBalanceOf",
      "outputs": [
        {
          "internalType": "uint256",
          "name": "",
          "type": "uint256"
        }
      ],
      "stateMutability": "view",
      "type": "function"
    },
    {
      "inputs": [
        {
          "internalType": "address",
          "name": "p",
          "type": "address"
        },
        {
          "internalType": "uint256",
          "name": "n",
          "type": "uint256"
        }
      ],
      "name": "increaseApproval",
      "outputs": [],
      "stateMutability": "nonpayable",
      "type": "function"
    },
    {
      "inputs": [],
      "name": "unpause",
      "outputs": [],
      "stateMutability": "nonpayable",
      "type": "function"
    },
    {
      "inputs": [
        {
          "internalType": "address",
          "name": "s",
          "type": "address"
        },
        {
          "internalType": "uint256",
          "name": "n",
          "type": "uint256"
        }
      ],
      "name": "approve",
      "outputs": [],
      "stateMutability": "nonpayable",
      "type": "function"
    },
    {
      "inputs": [],
      "name": "claimOwnership",
      "outputs": [],
      "stateMutability": "nonpayable",
      "type": "function"
    },
    {
      "inputs": [
        {
          "internalType": "uint256",
          "name": "amount",
          "type": "uint256"
        }
      ],
      "name": "burn",
      "outputs": [],
      "stateMutability": "nonpayable",
      "type": "function"
    },
    {
      "inputs": [
        {
          "internalType": "address",
          "name": "p",
          "type": "address"
        }
      ],
      "name": "transferOwnership",
      "outputs": [],
      "stateMutability": "nonpayable",
      "type": "function"
    },
    {
      "inputs": [
        {
          "internalType": "address",
          "name": "p",
          "type": "address"
        },
        {
          "internalType": "uint256",
          "name": "n",
          "type": "uint256"
        }
      ],
      "name": "decreaseApproval",
      "outputs": [],
      "stateMutability": "nonpayable",
      "type": "function"
    },
    {
      "inputs": [],
      "name": "getTotalSupply",
      "outputs": [
        {
          "internalType": "uint256",
          "name": "",
          "type": "uint256"
        }
      ],
      "stateMutability": "view",
      "type": "function"
    },
    {
      "inputs": [
        {
          "internalType": "address",
          "name": "p",
          "type": "address"
        },
        {
          "internalType": "address",
          "name": "s",
          "type": "address"
        }
      ],
      "name": "getAllowance",
      "outputs": [
        {
          "internalType": "uint256",
          "name": "",
          "type": "uint256"
        }
      ],
      "stateMutability": "view",
      "type": "function"
    },
    {
      "inputs": [],
      "name": "reclaimToken",
      "outputs": [],
      "stateMutability": "nonpayable",
      "type": "function"
    }
  ],
  "bytecode": "0x60806040523480156200001157600080fd5b50620000226200004860201b60201c565b62000032620000ea60201b60201c565b620000426200013460201b60201c565b62000136565b600033905060405180604001604052808273ffffffffffffffffffffffffffffffffffffffff16815260200160011515815250600460008201518160000160006101000a81548173ffffffffffffffffffffffffffffffffffffffff021916908373ffffffffffffffffffffffffffffffffffffffff16021790555060208201518160000160146101000a81548160ff02191690831515021790555090505050565b6040518060400160405280600081526020016001151581525060016000820151816000015560208201518160010160006101000a81548160ff021916908315150217905550905050565b565b61217180620001466000396000f3fe608060405234801561001057600080fd5b50600436106100f55760003560e01c80636618846311610097578063c4e41b2211610066578063c4e41b2214610220578063d73dd6231461023e578063f2fde38b1461025a578063fff2813714610276576100f5565b806366188463146101ae5780638456cb59146101ca5780639b96eece146101d4578063a9059cbb14610204576100f5565b80633f4ba83a116100d35780633f4ba83a1461016257806340c10f191461016c57806342966c68146101885780634e71e0c8146101a4576100f5565b8063095ea7b3146100fa5780630af4187d1461011657806323b872dd14610146575b600080fd5b610114600480360381019061010f9190611d18565b610280565b005b610130600480360381019061012b9190611d58565b6102db565b60405161013d9190611da7565b60405180910390f35b610160600480360381019061015b9190611dc2565b61036a565b005b61016a6103c7565b005b61018660048036038101906101819190611d18565b61041e565b005b6101a2600480360381019061019d9190611e15565b610479565b005b6101ac6104d2565b005b6101c860048036038101906101c39190611d18565b610529565b005b6101d2610584565b005b6101ee60048036038101906101e99190611e42565b6105db565b6040516101fb9190611da7565b60405180910390f35b61021e60048036038101906102199190611d18565b61062c565b005b610228610687565b6040516102359190611da7565b60405180910390f35b61025860048036038101906102539190611d18565b610699565b005b610274600480360381019061026f9190611e42565b6106f4565b005b61027e61074d565b005b600061028c83836107a4565b90506000151581151514156102d6576040517f08c379a00000000000000000000000000000000000000000000000000000000081526004016102cd90611ecc565b60405180910390fd5b505050565b600080600560008573ffffffffffffffffffffffffffffffffffffffff1673ffffffffffffffffffffffffffffffffffffffff16815260200190815260200160002060008473ffffffffffffffffffffffffffffffffffffffff1673ffffffffffffffffffffffffffffffffffffffff1681526020019081526020016000206000015490508091505092915050565b6000610377848484610891565b90506000151581151514156103c1576040517f08c379a00000000000000000000000000000000000000000000000000000000081526004016103b890611ecc565b60405180910390fd5b50505050565b60006103d1610a05565b905060001515811515141561041b576040517f08c379a000000000000000000000000000000000000000000000000000000000815260040161041290611ecc565b60405180910390fd5b50565b600061042a8383610b0f565b9050600015158115151415610474576040517f08c379a000000000000000000000000000000000000000000000000000000000815260040161046b90611ecc565b60405180910390fd5b505050565b600061048482610c05565b90506000151581151514156104ce576040517f08c379a00000000000000000000000000000000000000000000000000000000081526004016104c590611ecc565b60405180910390fd5b5050565b60006104dc610cbc565b9050600015158115151415610526576040517f08c379a000000000000000000000000000000000000000000000000000000000815260040161051d90611ecc565b60405180910390fd5b50565b60006105358383610d75565b905060001515811515141561057f576040517f08c379a000000000000000000000000000000000000000000000000000000000815260040161057690611ecc565b60405180910390fd5b505050565b600061058e610e64565b90506000151581151514156105d8576040517f08c379a00000000000000000000000000000000000000000000000000000000081526004016105cf90611ecc565b60405180910390fd5b50565b600080600360008473ffffffffffffffffffffffffffffffffffffffff1673ffffffffffffffffffffffffffffffffffffffff16815260200190815260200160002060000154905080915050919050565b60006106388383610f6e565b9050600015158115151415610682576040517f08c379a000000000000000000000000000000000000000000000000000000000815260040161067990611ecc565b60405180910390fd5b505050565b60008060016000015490508091505090565b60006106a5838361104a565b90506000151581151514156106ef576040517f08c379a00000000000000000000000000000000000000000000000000000000081526004016106e690611ecc565b60405180910390fd5b505050565b60006106ff826110a1565b9050600015158115151415610749576040517f08c379a000000000000000000000000000000000000000000000000000000000815260040161074090611ecc565b60405180910390fd5b5050565b60006107576111e5565b90506000151581151514156107a1576040517f08c379a000000000000000000000000000000000000000000000000000000000815260040161079890611ecc565b60405180910390fd5b50565b6000803390506000600560008373ffffffffffffffffffffffffffffffffffffffff1673ffffffffffffffffffffffffffffffffffffffff16815260200190815260200160002060008673ffffffffffffffffffffffffffffffffffffffff1673ffffffffffffffffffffffffffffffffffffffff1681526020019081526020016000206000015490506000818561083c9190611f1b565b90506108498387836112f5565b7f01722f0e92ffd761d4a842cffdd36fe3adb6091e41732a4e714250176b7d8d2283878360405161087c93929190611f5e565b60405180910390a16001935050505092915050565b600080339050600660000160009054906101000a900460ff1615156000151514156109f8576000600360008773ffffffffffffffffffffffffffffffffffffffff1673ffffffffffffffffffffffffffffffffffffffff1681526020019081526020016000206000015490506000600560008873ffffffffffffffffffffffffffffffffffffffff1673ffffffffffffffffffffffffffffffffffffffff16815260200190815260200160002060008473ffffffffffffffffffffffffffffffffffffffff1673ffffffffffffffffffffffffffffffffffffffff1681526020019081526020016000206000015490508482101580156109915750848110155b156109f5576109a187848761130b565b6109ac878787611321565b7f5f7542858008eeb041631f30e6109ae94b83a58e9a58261dd2c42c508850f939878785886040516109e19493929190611f95565b60405180910390a1600193505050506109fe565b50505b60009150505b9392505050565b600080600460000160009054906101000a900473ffffffffffffffffffffffffffffffffffffffff1690503373ffffffffffffffffffffffffffffffffffffffff168173ffffffffffffffffffffffffffffffffffffffff161415610b0657604051806040016040528060001515815260200160011515815250600660008201518160000160006101000a81548160ff02191690831515021790555060208201518160000160016101000a81548160ff0219169083151502179055509050507f0e2fb031ee032dc02d8011dc50b816eb450cf856abd8261680dac74f72165bd26000604051610af49190611ff5565b60405180910390a16001915050610b0c565b60009150505b90565b600080600460000160009054906101000a900473ffffffffffffffffffffffffffffffffffffffff1690503373ffffffffffffffffffffffffffffffffffffffff168173ffffffffffffffffffffffffffffffffffffffff161415610bf957600073ffffffffffffffffffffffffffffffffffffffff168473ffffffffffffffffffffffffffffffffffffffff1614610bf857610bab83611375565b610bb58484611387565b7f0f6798a560793a54c3bcfe86a93cde1e73087d944c0ea20544137d41213968858484604051610be6929190612010565b60405180910390a16001915050610bff565b5b60009150505b92915050565b6000803390506000600360008373ffffffffffffffffffffffffffffffffffffffff1673ffffffffffffffffffffffffffffffffffffffff168152602001908152602001600020600001549050808411610cb057610c63828561139b565b610c6c846113af565b7fcc16f5dbb4873280815c1ee09dbd06736cffcc184412cf7a71a0fdb75d397ca58285604051610c9d929190612010565b60405180910390a1600192505050610cb7565b6000925050505b919050565b6000806000800160009054906101000a900473ffffffffffffffffffffffffffffffffffffffff1690503373ffffffffffffffffffffffffffffffffffffffff168173ffffffffffffffffffffffffffffffffffffffff161415610d6c57610d23816113c1565b610d2b61145e565b7f85a8c8100c1d48466310240af79644f50cdae7d09cb4820d60dfc5b2462f0fd081604051610d5a9190612039565b60405180910390a16001915050610d72565b60009150505b90565b6000803390506000600560008373ffffffffffffffffffffffffffffffffffffffff1673ffffffffffffffffffffffffffffffffffffffff16815260200190815260200160002060008673ffffffffffffffffffffffffffffffffffffffff1673ffffffffffffffffffffffffffffffffffffffff168152602001908152602001600020600001549050838110610e5757610e11828686611532565b7f3fda289a93fbd447987ffc8940a1af71a1fad600cc184d06b56d4aa271393522828686604051610e4493929190611f5e565b60405180910390a1600192505050610e5e565b6000925050505b92915050565b600080600460000160009054906101000a900473ffffffffffffffffffffffffffffffffffffffff1690503373ffffffffffffffffffffffffffffffffffffffff168173ffffffffffffffffffffffffffffffffffffffff161415610f6557604051806040016040528060011515815260200160011515815250600660008201518160000160006101000a81548160ff02191690831515021790555060208201518160000160016101000a81548160ff0219169083151502179055509050507f0e2fb031ee032dc02d8011dc50b816eb450cf856abd8261680dac74f72165bd26001604051610f539190611ff5565b60405180910390a16001915050610f6b565b60009150505b90565b6000600660000160009054906101000a900460ff16151560001515141561103f5760003390506000600360008373ffffffffffffffffffffffffffffffffffffffff1673ffffffffffffffffffffffffffffffffffffffff16815260200190815260200160002060000154905080841161103c57610fec8285611548565b610ff6858561155c565b7fddf252ad1be2c89b69c2b068fc378daa952ba7f163c4a11628f55a4df523b3ef82868660405161102993929190611f5e565b60405180910390a1600192505050611044565b50505b600090505b92915050565b60008033905061105b8185856112f5565b7f01722f0e92ffd761d4a842cffdd36fe3adb6091e41732a4e714250176b7d8d2281858560405161108e93929190611f5e565b60405180910390a1600191505092915050565b600080600460000160009054906101000a900473ffffffffffffffffffffffffffffffffffffffff1690503373ffffffffffffffffffffffffffffffffffffffff168173ffffffffffffffffffffffffffffffffffffffff1614156111da5760405180604001604052808473ffffffffffffffffffffffffffffffffffffffff168152602001600115158152506000808201518160000160006101000a81548173ffffffffffffffffffffffffffffffffffffffff021916908373ffffffffffffffffffffffffffffffffffffffff16021790555060208201518160000160146101000a81548160ff0219169083151502179055509050507f4306745d208e8707535ce9418abeb2b0a7136ecb794c23956c829fff4fc18f89836040516111c89190612039565b60405180910390a160019150506111e0565b60009150505b919050565b600080339050600460000160009054906101000a900473ffffffffffffffffffffffffffffffffffffffff1673ffffffffffffffffffffffffffffffffffffffff168173ffffffffffffffffffffffffffffffffffffffff1614156112ec5760003090506000600360008373ffffffffffffffffffffffffffffffffffffffff1673ffffffffffffffffffffffffffffffffffffffff16815260200190815260200160002060000154905061129a8382611570565b6112a58284836115aa565b7fc016730911d66378b481a7db6a27b66ee03f202be57a4ba7f7a839b6f2f45f3b8284836040516112d893929190611f5e565b60405180910390a1600193505050506112f2565b60009150505b90565b60008190506113058484836115fe565b50505050565b600081905061131b84848361171b565b50505050565b61132b8382611548565b611335828261155c565b7fddf252ad1be2c89b69c2b068fc378daa952ba7f163c4a11628f55a4df523b3ef83838360405161136893929190611f5e565b60405180910390a1505050565b600081905061138381611841565b5050565b60008190506113968382611868565b505050565b60008190506113aa838261190a565b505050565b60008190506113bd816119b5565b5050565b60405180604001604052808273ffffffffffffffffffffffffffffffffffffffff16815260200160011515815250600460008201518160000160006101000a81548173ffffffffffffffffffffffffffffffffffffffff021916908373ffffffffffffffffffffffffffffffffffffffff16021790555060208201518160000160146101000a81548160ff02191690831515021790555090505050565b6040518060400160405280600073ffffffffffffffffffffffffffffffffffffffff168152602001600115158152506000808201518160000160006101000a81548173ffffffffffffffffffffffffffffffffffffffff021916908373ffffffffffffffffffffffffffffffffffffffff16021790555060208201518160000160146101000a81548160ff0219169083151502179055509050507f4306745d208e8707535ce9418abeb2b0a7136ecb794c23956c829fff4fc18f8960006040516115289190612039565b60405180910390a1565b60008190506115428484836119e5565b50505050565b60008190506115578382611b0b565b505050565b600081905061156b8382611bb6565b505050565b8173ffffffffffffffffffffffffffffffffffffffff166108fc829081150290604051600060405180830381858888f19350505050505050565b6115b4828261155c565b6115be8382611548565b7fddf252ad1be2c89b69c2b068fc378daa952ba7f163c4a11628f55a4df523b3ef8383836040516115f193929190611f5e565b60405180910390a1505050565b6000819050600061168e600560008773ffffffffffffffffffffffffffffffffffffffff1673ffffffffffffffffffffffffffffffffffffffff16815260200190815260200160002060008673ffffffffffffffffffffffffffffffffffffffff1673ffffffffffffffffffffffffffffffffffffffff1681526020019081526020016000206000015483611c58565b905080600560008773ffffffffffffffffffffffffffffffffffffffff1673ffffffffffffffffffffffffffffffffffffffff16815260200190815260200160002060008673ffffffffffffffffffffffffffffffffffffffff1673ffffffffffffffffffffffffffffffffffffffff168152602001908152602001600020600001819055505050505050565b6000816117279061205e565b905060006117b4600560008773ffffffffffffffffffffffffffffffffffffffff1673ffffffffffffffffffffffffffffffffffffffff16815260200190815260200160002060008673ffffffffffffffffffffffffffffffffffffffff1673ffffffffffffffffffffffffffffffffffffffff1681526020019081526020016000206000015483611c58565b905080600560008773ffffffffffffffffffffffffffffffffffffffff1673ffffffffffffffffffffffffffffffffffffffff16815260200190815260200160002060008673ffffffffffffffffffffffffffffffffffffffff1673ffffffffffffffffffffffffffffffffffffffff168152602001908152602001600020600001819055505050505050565b6000819050600061185760016000015483611c58565b905080600160000181905550505050565b600081905060006118bb600360008673ffffffffffffffffffffffffffffffffffffffff1673ffffffffffffffffffffffffffffffffffffffff1681526020019081526020016000206000015483611c58565b905080600360008673ffffffffffffffffffffffffffffffffffffffff1673ffffffffffffffffffffffffffffffffffffffff1681526020019081526020016000206000018190555050505050565b6000816119169061205e565b90506000611966600360008673ffffffffffffffffffffffffffffffffffffffff1673ffffffffffffffffffffffffffffffffffffffff1681526020019081526020016000206000015483611c58565b905080600360008673ffffffffffffffffffffffffffffffffffffffff1673ffffffffffffffffffffffffffffffffffffffff1681526020019081526020016000206000018190555050505050565b6000816119c19061205e565b905060006119d460016000015483611c58565b905080600160000181905550505050565b6000816119f19061205e565b90506000611a7e600560008773ffffffffffffffffffffffffffffffffffffffff1673ffffffffffffffffffffffffffffffffffffffff16815260200190815260200160002060008673ffffffffffffffffffffffffffffffffffffffff1673ffffffffffffffffffffffffffffffffffffffff1681526020019081526020016000206000015483611c58565b905080600560008773ffffffffffffffffffffffffffffffffffffffff1673ffffffffffffffffffffffffffffffffffffffff16815260200190815260200160002060008673ffffffffffffffffffffffffffffffffffffffff1673ffffffffffffffffffffffffffffffffffffffff168152602001908152602001600020600001819055505050505050565b600081611b179061205e565b90506000611b67600360008673ffffffffffffffffffffffffffffffffffffffff1673ffffffffffffffffffffffffffffffffffffffff1681526020019081526020016000206000015483611c58565b905080600360008673ffffffffffffffffffffffffffffffffffffffff1673ffffffffffffffffffffffffffffffffffffffff1681526020019081526020016000206000018190555050505050565b60008190506000611c09600360008673ffffffffffffffffffffffffffffffffffffffff1673ffffffffffffffffffffffffffffffffffffffff1681526020019081526020016000206000015483611c58565b905080600360008673ffffffffffffffffffffffffffffffffffffffff1673ffffffffffffffffffffffffffffffffffffffff1681526020019081526020016000206000018190555050505050565b60008083905060008382611c6c91906120a7565b9050600081905080935050505092915050565b600080fd5b600073ffffffffffffffffffffffffffffffffffffffff82169050919050565b6000611caf82611c84565b9050919050565b611cbf81611ca4565b8114611cca57600080fd5b50565b600081359050611cdc81611cb6565b92915050565b6000819050919050565b611cf581611ce2565b8114611d0057600080fd5b50565b600081359050611d1281611cec565b92915050565b60008060408385031215611d2f57611d2e611c7f565b5b6000611d3d85828601611ccd565b9250506020611d4e85828601611d03565b9150509250929050565b60008060408385031215611d6f57611d6e611c7f565b5b6000611d7d85828601611ccd565b9250506020611d8e85828601611ccd565b9150509250929050565b611da181611ce2565b82525050565b6000602082019050611dbc6000830184611d98565b92915050565b600080600060608486031215611ddb57611dda611c7f565b5b6000611de986828701611ccd565b9350506020611dfa86828701611ccd565b9250506040611e0b86828701611d03565b9150509250925092565b600060208284031215611e2b57611e2a611c7f565b5b6000611e3984828501611d03565b91505092915050565b600060208284031215611e5857611e57611c7f565b5b6000611e6684828501611ccd565b91505092915050565b600082825260208201905092915050565b7f52756c6520636f6e646974696f6e206661696c65640000000000000000000000600082015250565b6000611eb6601583611e6f565b9150611ec182611e80565b602082019050919050565b60006020820190508181036000830152611ee581611ea9565b9050919050565b7f4e487b7100000000000000000000000000000000000000000000000000000000600052601160045260246000fd5b6000611f2682611ce2565b9150611f3183611ce2565b925082821015611f4457611f43611eec565b5b828203905092915050565b611f5881611ca4565b82525050565b6000606082019050611f736000830186611f4f565b611f806020830185611f4f565b611f8d6040830184611d98565b949350505050565b6000608082019050611faa6000830187611f4f565b611fb76020830186611f4f565b611fc46040830185611f4f565b611fd16060830184611d98565b95945050505050565b60008115159050919050565b611fef81611fda565b82525050565b600060208201905061200a6000830184611fe6565b92915050565b60006040820190506120256000830185611f4f565b6120326020830184611d98565b9392505050565b600060208201905061204e6000830184611f4f565b92915050565b6000819050919050565b600061206982612054565b91507f800000000000000000000000000000000000000000000000000000000000000082141561209c5761209b611eec565b5b816000039050919050565b60006120b282612054565b91506120bd83612054565b9250817f7fffffffffffffffffffffffffffffffffffffffffffffffffffffffffffffff038313600083121516156120f8576120f7611eec565b5b817f80000000000000000000000000000000000000000000000000000000000000000383126000831216156121305761212f611eec565b5b82820190509291505056fea26469706673582212208de867466e65743233904e912dd8400936f06211059bfa406c002246549786b364736f6c634300080c0033",
  "immutableReferences": {},
  "source": "contract Wbtc {\n  struct OwnerTuple {\n    address p;\n    bool _valid;\n  }\n  struct PendingOwnerTuple {\n    address p;\n    bool _valid;\n  }\n  struct TotalSupplyTuple {\n    uint n;\n    bool _valid;\n  }\n  struct BalanceOfTuple {\n    uint n;\n    bool _valid;\n  }\n  struct AllowanceTuple {\n    uint n;\n    bool _valid;\n  }\n  struct PausedTuple {\n    bool b;\n    bool _valid;\n  }\n  PendingOwnerTuple pendingOwner;\n  TotalSupplyTuple totalSupply;\n  mapping(address=>BalanceOfTuple) balanceOf;\n  OwnerTuple owner;\n  mapping(address=>mapping(address=>AllowanceTuple)) allowance;\n  PausedTuple paused;\n  event Burn(address p,uint amount);\n  event ReclaimToken(address t,address s,uint n);\n  event Mint(address p,uint amount);\n  event PendingOwner(address p);\n  event ClaimOwnership(address p);\n  event DecreaseAllowance(address p,address s,uint n);\n  event IncreaseAllowance(address p,address s,uint n);\n  event Transfer(address from,address to,uint amount);\n  event Paused(bool b);\n  event TransferFrom(address from,address to,address spender,uint amount);\n  constructor() public {\n    updateOwnerOnInsertConstructor_r9();\n    updateTotalSupplyOnInsertConstructor_r14();\n    updateTotalBalancesOnInsertConstructor_r33();\n  }\n  function transferFrom(address from,address to,uint amount) public    {\n      bool r12 = updateTransferFromOnInsertRecv_transferFrom_r12(from,to,amount);\n      if(r12==false) {\n        revert(\"Rule condition failed\");\n      }\n  }\n  function mint(address p,uint amount) public    {\n      bool r28 = updateMintOnInsertRecv_mint_r28(p,amount);\n      if(r28==false) {\n        revert(\"Rule condition failed\");\n      }\n  }\n  function pause() public    {\n      bool r13 = updatePausedOnInsertRecv_pause_r13();\n      if(r13==false) {\n        revert(\"Rule condition failed\");\n      }\n  }\n  function transfer(address to,uint amount) public    {\n      bool r3 = updateTransferOnInsertRecv_transfer_r3(to,amount);\n      if(r3==false) {\n        revert(\"Rule condition failed\");\n      }\n  }\n  function getBalanceOf(address p) public view  returns (uint) {\n      uint n = balanceOf[p].n;\n      return n;\n  }\n  function increaseApproval(address p,uint n) public    {\n      bool r17 = updateIncreaseAllowanceOnInsertRecv_increaseApproval_r17(p,n);\n      if(r17==false) {\n        revert(\"Rule condition failed\");\n      }\n  }\n  function unpause() public    {\n      bool r27 = updatePausedOnInsertRecv_unpause_r27();\n      if(r27==false) {\n        revert(\"Rule condition failed\");\n      }\n  }\n  function approve(address s,uint n) public    {\n      bool r31 = updateIncreaseAllowanceOnInsertRecv_approve_r31(s,n);\n      if(r31==false) {\n        revert(\"Rule condition failed\");\n      }\n  }\n  function claimOwnership() public    {\n      bool r11 = updateClaimOwnershipOnInsertRecv_claimOwnership_r11();\n      if(r11==false) {\n        revert(\"Rule condition failed\");\n      }\n  }\n  function burn(uint amount) public    {\n      bool r15 = updateBurnOnInsertRecv_burn_r15(amount);\n      if(r15==false) {\n        revert(\"Rule condition failed\");\n      }\n  }\n  function transferOwnership(address p) public    {\n      bool r0 = updatePendingOwnerOnInsertRecv_transferOwnership_r0(p);\n      if(r0==false) {\n        revert(\"Rule condition failed\");\n      }\n  }\n  function decreaseApproval(address p,uint n) public    {\n      bool r21 = updateDecreaseAllowanceOnInsertRecv_decreaseApproval_r21(p,n);\n      if(r21==false) {\n        revert(\"Rule condition failed\");\n      }\n  }\n  function getTotalSupply() public view  returns (uint) {\n      uint n = totalSupply.n;\n      return n;\n  }\n  function getAllowance(address p,address s) public view  returns (uint) {\n      uint n = allowance[p][s].n;\n      return n;\n  }\n  function reclaimToken() public    {\n      bool r6 = updateReclaimTokenOnInsertRecv_reclaimToken_r6();\n      if(r6==false) {\n        revert(\"Rule condition failed\");\n      }\n  }\n  function updateBurnOnInsertRecv_burn_r15(uint n) private   returns (bool) {\n      address p = msg.sender;\n      uint m = balanceOf[p].n;\n      if(n<=m) {\n        updateTotalBurnOnInsertBurn_r18(p,n);\n        updateAllBurnOnInsertBurn_r29(n);\n        emit Burn(p,n);\n        return true;\n      }\n      return false;\n  }\n  function updateTransferOnInsertTransferFrom_r1(address o,address r,uint n) private    {\n      updateTotalOutOnInsertTransfer_r23(o,n);\n      updateTotalInOnInsertTransfer_r10(r,n);\n      emit Transfer(o,r,n);\n  }\n  function updateTotalOutOnInsertTransfer_r23(address p,uint n) private    {\n      int delta0 = int(n);\n      updateBalanceOfOnIncrementTotalOut_r7(p,delta0);\n  }\n  function updateTotalBalancesOnInsertConstructor_r33() private    {\n      // Empty()\n  }\n  function updateAllowanceOnIncrementSpentTotal_r26(address o,address s,int l) private    {\n      int _delta = int(-l);\n      uint newValue = updateuintByint(allowance[o][s].n,_delta);\n      allowance[o][s].n = newValue;\n  }\n  function updateuintByint(uint x,int delta) private   returns (uint) {\n      int convertedX = int(x);\n      int value = convertedX+delta;\n      uint convertedValue = uint(value);\n      return convertedValue;\n  }\n  function updateOwnerOnInsertConstructor_r9() private    {\n      address s = msg.sender;\n      owner = OwnerTuple(s,true);\n  }\n  function updatePendingOwnerOnInsertClaimOwnership_r2() private    {\n      pendingOwner = PendingOwnerTuple(address(0),true);\n      emit PendingOwner(address(0));\n  }\n  function updateTotalBurnOnInsertBurn_r18(address p,uint n) private    {\n      int delta0 = int(n);\n      updateBalanceOfOnIncrementTotalBurn_r7(p,delta0);\n  }\n  function updateBalanceOfOnIncrementTotalBurn_r7(address p,int m) private    {\n      int _delta = int(-m);\n      uint newValue = updateuintByint(balanceOf[p].n,_delta);\n      balanceOf[p].n = newValue;\n  }\n  function updateAllBurnOnInsertBurn_r29(uint n) private    {\n      int delta0 = int(n);\n      updateTotalSupplyOnIncrementAllBurn_r20(delta0);\n  }\n  function updateClaimOwnershipOnInsertRecv_claimOwnership_r11() private   returns (bool) {\n      address s = pendingOwner.p;\n      if(s==msg.sender) {\n        updateOwnerOnInsertClaimOwnership_r30(s);\n        updatePendingOwnerOnInsertClaimOwnership_r2();\n        emit ClaimOwnership(s);\n        return true;\n      }\n      return false;\n  }\n  function updateAllowanceTotalOnInsertIncreaseAllowance_r32(address o,address s,uint n) private    {\n      int delta0 = int(n);\n      updateAllowanceOnIncrementAllowanceTotal_r26(o,s,delta0);\n  }\n  function updateTotalSupplyOnIncrementAllBurn_r20(int b) private    {\n      int _delta = int(-b);\n      uint newValue = updateuintByint(totalSupply.n,_delta);\n      totalSupply.n = newValue;\n  }\n  function updateTotalMintOnInsertMint_r19(address p,uint n) private    {\n      int delta0 = int(n);\n      updateBalanceOfOnIncrementTotalMint_r7(p,delta0);\n  }\n  function updateOwnerOnInsertClaimOwnership_r30(address s) private    {\n      owner = OwnerTuple(s,true);\n  }\n  function updatePausedOnInsertRecv_unpause_r27() private   returns (bool) {\n      address s = owner.p;\n      if(s==msg.sender) {\n        paused = PausedTuple(false,true);\n        emit Paused(false);\n        return true;\n      }\n      return false;\n  }\n  function updateDecreaseAllowanceOnInsertRecv_decreaseApproval_r21(address s,uint n) private   returns (bool) {\n      address o = msg.sender;\n      uint m = allowance[o][s].n;\n      if(m>=n) {\n        updateDecreaseAllowanceTotalOnInsertDecreaseAllowance_r8(o,s,n);\n        emit DecreaseAllowance(o,s,n);\n        return true;\n      }\n      return false;\n  }\n  function updateAllowanceOnIncrementDecreaseAllowanceTotal_r26(address o,address s,int d) private    {\n      int _delta = int(-d);\n      uint newValue = updateuintByint(allowance[o][s].n,_delta);\n      allowance[o][s].n = newValue;\n  }\n  function updateIncreaseAllowanceOnInsertRecv_increaseApproval_r17(address s,uint n) private   returns (bool) {\n      address o = msg.sender;\n      updateAllowanceTotalOnInsertIncreaseAllowance_r32(o,s,n);\n      emit IncreaseAllowance(o,s,n);\n      return true;\n      return false;\n  }\n  function updateAllowanceOnIncrementAllowanceTotal_r26(address o,address s,int m) private    {\n      int _delta = int(m);\n      uint newValue = updateuintByint(allowance[o][s].n,_delta);\n      allowance[o][s].n = newValue;\n  }\n  function updateTransferOnInsertReclaimToken_r4(address t,address s,uint n) private    {\n      updateTotalInOnInsertTransfer_r10(s,n);\n      updateTotalOutOnInsertTransfer_r23(t,n);\n      emit Transfer(t,s,n);\n  }\n  function updateBalanceOfOnIncrementTotalOut_r7(address p,int o) private    {\n      int _delta = int(-o);\n      uint newValue = updateuintByint(balanceOf[p].n,_delta);\n      balanceOf[p].n = newValue;\n  }\n  function updateMintOnInsertRecv_mint_r28(address p,uint n) private   returns (bool) {\n      address s = owner.p;\n      if(s==msg.sender) {\n        if(p!=address(0)) {\n          updateAllMintOnInsertMint_r16(n);\n          updateTotalMintOnInsertMint_r19(p,n);\n          emit Mint(p,n);\n          return true;\n        }\n      }\n      return false;\n  }\n  function updatePendingOwnerOnInsertRecv_transferOwnership_r0(address p) private   returns (bool) {\n      address s = owner.p;\n      if(s==msg.sender) {\n        pendingOwner = PendingOwnerTuple(p,true);\n        emit PendingOwner(p);\n        return true;\n      }\n      return false;\n  }\n  function updateReclaimTokenOnInsertRecv_reclaimToken_r6() private   returns (bool) {\n      address s = msg.sender;\n      if(s==owner.p) {\n        address t = address(this);\n        uint n = balanceOf[t].n;\n        updateSendOnInsertReclaimToken_r22(s,n);\n        updateTransferOnInsertReclaimToken_r4(t,s,n);\n        emit ReclaimToken(t,s,n);\n        return true;\n      }\n      return false;\n  }\n  function updateSpentTotalOnInsertTransferFrom_r25(address o,address s,uint n) private    {\n      int delta0 = int(n);\n      updateAllowanceOnIncrementSpentTotal_r26(o,s,delta0);\n  }\n  function updateSendOnInsertReclaimToken_r22(address s,uint n) private    {\n      payable(s).send(n);\n  }\n  function updateTotalSupplyOnInsertConstructor_r14() private    {\n      totalSupply = TotalSupplyTuple(0,true);\n  }\n  function updateTotalInOnInsertTransfer_r10(address p,uint n) private    {\n      int delta0 = int(n);\n      updateBalanceOfOnIncrementTotalIn_r7(p,delta0);\n  }\n  function updateTotalSupplyOnIncrementAllMint_r20(int m) private    {\n      int _delta = int(m);\n      uint newValue = updateuintByint(totalSupply.n,_delta);\n      totalSupply.n = newValue;\n  }\n  function updateDecreaseAllowanceTotalOnInsertDecreaseAllowance_r8(address o,address s,uint n) private    {\n      int delta0 = int(n);\n      updateAllowanceOnIncrementDecreaseAllowanceTotal_r26(o,s,delta0);\n  }\n  function updateBalanceOfOnIncrementTotalIn_r7(address p,int i) private    {\n      int _delta = int(i);\n      uint newValue = updateuintByint(balanceOf[p].n,_delta);\n      balanceOf[p].n = newValue;\n  }\n  function updateAllMintOnInsertMint_r16(uint n) private    {\n      int delta0 = int(n);\n      updateTotalSupplyOnIncrementAllMint_r20(delta0);\n  }\n  function updateBalanceOfOnIncrementTotalMint_r7(address p,int n) private    {\n      int _delta = int(n);\n      uint newValue = updateuintByint(balanceOf[p].n,_delta);\n      balanceOf[p].n = newValue;\n  }\n  function updateTransferOnInsertRecv_transfer_r3(address r,uint n) private   returns (bool) {\n      if(false==paused.b) {\n        address s = msg.sender;\n        uint m = balanceOf[s].n;\n        if(n<=m) {\n          updateTotalOutOnInsertTransfer_r23(s,n);\n          updateTotalInOnInsertTransfer_r10(r,n);\n          emit Transfer(s,r,n);\n          return true;\n        }\n      }\n      return false;\n  }\n  function updateIncreaseAllowanceOnInsertRecv_approve_r31(address s,uint n) private   returns (bool) {\n      address o = msg.sender;\n      uint m = allowance[o][s].n;\n      uint d = n-m;\n      updateAllowanceTotalOnInsertIncreaseAllowance_r32(o,s,d);\n      emit IncreaseAllowance(o,s,d);\n      return true;\n      return false;\n  }\n  function updateTransferFromOnInsertRecv_transferFrom_r12(address o,address r,uint n) private   returns (bool) {\n      address s = msg.sender;\n      if(false==paused.b) {\n        uint m = balanceOf[o].n;\n        uint k = allowance[o][s].n;\n        if(m>=n && k>=n) {\n          updateSpentTotalOnInsertTransferFrom_r25(o,s,n);\n          updateTransferOnInsertTransferFrom_r1(o,r,n);\n          emit TransferFrom(o,r,s,n);\n          return true;\n        }\n      }\n      return false;\n  }\n  function updatePausedOnInsertRecv_pause_r13() private   returns (bool) {\n      address s = owner.p;\n      if(s==msg.sender) {\n        paused = PausedTuple(true,true);\n        emit Paused(true);\n        return true;\n      }\n      return false;\n  }\n}",
  "sourcePath": "/Users/ljy/Desktop/PENN/2023_summer/boon_dsc/smart-contracts/optimizations/ablation/consolidation/contracts/wbtc.sol",
  "compiler": {
    "name": "solc",
    "version": "0.8.12+commit.f00d7308.Emscripten.clang"
  },
  "schemaVersion": "3.4.13",
  "updatedAt": "2023-07-25T16:06:09.137Z",
  "devdoc": {
    "kind": "dev",
    "methods": {},
    "version": 1
  },
  "userdoc": {
    "kind": "user",
    "methods": {},
    "version": 1
  }
}