{
  "contractName": "Matic",
  "abi": [
    {
      "inputs": [
        {
          "internalType": "uint256",
          "name": "n",
          "type": "uint256"
        }
      ],
      "stateMutability": "nonpayable",
      "type": "constructor"
    },
    {
      "anonymous": false,
      "inputs": [
        {
          "indexed": false,
          "internalType": "address",
          "name": "p",
          "type": "address"
        },
        {
          "indexed": false,
          "internalType": "uint256",
          "name": "amount",
          "type": "uint256"
        }
      ],
      "name": "Burn",
      "type": "event"
    },
    {
      "anonymous": false,
      "inputs": [
        {
          "indexed": false,
          "internalType": "address",
          "name": "p",
          "type": "address"
        },
        {
          "indexed": false,
          "internalType": "address",
          "name": "s",
          "type": "address"
        },
        {
          "indexed": false,
          "internalType": "uint256",
          "name": "n",
          "type": "uint256"
        }
      ],
      "name": "IncreaseAllowance",
      "type": "event"
    },
    {
      "anonymous": false,
      "inputs": [
        {
          "indexed": false,
          "internalType": "address",
          "name": "p",
          "type": "address"
        },
        {
          "indexed": false,
          "internalType": "bool",
          "name": "b",
          "type": "bool"
        }
      ],
      "name": "IsPauser",
      "type": "event"
    },
    {
      "anonymous": false,
      "inputs": [
        {
          "indexed": false,
          "internalType": "address",
          "name": "p",
          "type": "address"
        },
        {
          "indexed": false,
          "internalType": "uint256",
          "name": "amount",
          "type": "uint256"
        }
      ],
      "name": "Mint",
      "type": "event"
    },
    {
      "anonymous": false,
      "inputs": [
        {
          "indexed": false,
          "internalType": "bool",
          "name": "b",
          "type": "bool"
        }
      ],
      "name": "Paused",
      "type": "event"
    },
    {
      "anonymous": false,
      "inputs": [
        {
          "indexed": false,
          "internalType": "address",
          "name": "from",
          "type": "address"
        },
        {
          "indexed": false,
          "internalType": "address",
          "name": "to",
          "type": "address"
        },
        {
          "indexed": false,
          "internalType": "uint256",
          "name": "amount",
          "type": "uint256"
        }
      ],
      "name": "Transfer",
      "type": "event"
    },
    {
      "anonymous": false,
      "inputs": [
        {
          "indexed": false,
          "internalType": "address",
          "name": "from",
          "type": "address"
        },
        {
          "indexed": false,
          "internalType": "address",
          "name": "to",
          "type": "address"
        },
        {
          "indexed": false,
          "internalType": "address",
          "name": "spender",
          "type": "address"
        },
        {
          "indexed": false,
          "internalType": "uint256",
          "name": "amount",
          "type": "uint256"
        }
      ],
      "name": "TransferFrom",
      "type": "event"
    },
    {
      "inputs": [
        {
          "internalType": "address",
          "name": "p",
          "type": "address"
        },
        {
          "internalType": "uint256",
          "name": "amount",
          "type": "uint256"
        }
      ],
      "name": "burn",
      "outputs": [],
      "stateMutability": "nonpayable",
      "type": "function"
    },
    {
      "inputs": [],
      "name": "getTotalSupply",
      "outputs": [
        {
          "internalType": "uint256",
          "name": "",
          "type": "uint256"
        }
      ],
      "stateMutability": "view",
      "type": "function"
    },
    {
      "inputs": [
        {
          "internalType": "address",
          "name": "s",
          "type": "address"
        },
        {
          "internalType": "uint256",
          "name": "n",
          "type": "uint256"
        }
      ],
      "name": "approve",
      "outputs": [],
      "stateMutability": "nonpayable",
      "type": "function"
    },
    {
      "inputs": [
        {
          "internalType": "address",
          "name": "p",
          "type": "address"
        }
      ],
      "name": "addPauser",
      "outputs": [],
      "stateMutability": "nonpayable",
      "type": "function"
    },
    {
      "inputs": [
        {
          "internalType": "address",
          "name": "p",
          "type": "address"
        },
        {
          "internalType": "uint256",
          "name": "amount",
          "type": "uint256"
        }
      ],
      "name": "mint",
      "outputs": [],
      "stateMutability": "nonpayable",
      "type": "function"
    },
    {
      "inputs": [
        {
          "internalType": "address",
          "name": "p",
          "type": "address"
        },
        {
          "internalType": "address",
          "name": "s",
          "type": "address"
        }
      ],
      "name": "getAllowance",
      "outputs": [
        {
          "internalType": "uint256",
          "name": "",
          "type": "uint256"
        }
      ],
      "stateMutability": "view",
      "type": "function"
    },
    {
      "inputs": [],
      "name": "unpause",
      "outputs": [],
      "stateMutability": "nonpayable",
      "type": "function"
    },
    {
      "inputs": [
        {
          "internalType": "address",
          "name": "to",
          "type": "address"
        },
        {
          "internalType": "uint256",
          "name": "amount",
          "type": "uint256"
        }
      ],
      "name": "transfer",
      "outputs": [],
      "stateMutability": "nonpayable",
      "type": "function"
    },
    {
      "inputs": [
        {
          "internalType": "address",
          "name": "p",
          "type": "address"
        }
      ],
      "name": "renouncePauser",
      "outputs": [],
      "stateMutability": "nonpayable",
      "type": "function"
    },
    {
      "inputs": [
        {
          "internalType": "address",
          "name": "from",
          "type": "address"
        },
        {
          "internalType": "address",
          "name": "to",
          "type": "address"
        },
        {
          "internalType": "uint256",
          "name": "amount",
          "type": "uint256"
        }
      ],
      "name": "transferFrom",
      "outputs": [],
      "stateMutability": "nonpayable",
      "type": "function"
    },
    {
      "inputs": [],
      "name": "pause",
      "outputs": [],
      "stateMutability": "nonpayable",
      "type": "function"
    },
    {
      "inputs": [
        {
          "internalType": "address",
          "name": "p",
          "type": "address"
        }
      ],
      "name": "getBalanceOf",
      "outputs": [
        {
          "internalType": "uint256",
          "name": "",
          "type": "uint256"
        }
      ],
      "stateMutability": "view",
      "type": "function"
    }
  ],
  "bytecode": "0x60806040523480156200001157600080fd5b5060405162001bb338038062001bb383398181016040528101906200003791906200033a565b6200004881620000c360201b60201c565b62000059816200012760201b60201c565b6200006a816200014760201b60201c565b6200007a6200015060201b60201c565b6200008a620001c960201b60201c565b6200009b816200023c60201b60201c565b620000ac816200023f60201b60201c565b620000bc6200024260201b60201c565b5062000418565b6000339050604051806020016040528083815250600260008373ffffffffffffffffffffffffffffffffffffffff1673ffffffffffffffffffffffffffffffffffffffff168152602001908152602001600020600082015181600001559050505050565b604051806020016040528082815250600080820151816000015590505050565b60003390505050565b600033905060405180602001604052808273ffffffffffffffffffffffffffffffffffffffff16815250600360008201518160000160006101000a81548173ffffffffffffffffffffffffffffffffffffffff021916908373ffffffffffffffffffffffffffffffffffffffff16021790555090505050565b604051806020016040528060001515815250600560008201518160000160006101000a81548160ff0219169083151502179055509050507f0e2fb031ee032dc02d8011dc50b816eb450cf856abd8261680dac74f72165bd2600060405162000232919062000389565b60405180910390a1565b50565b50565b6000339050604051806020016040528060011515815250600160008373ffffffffffffffffffffffffffffffffffffffff1673ffffffffffffffffffffffffffffffffffffffff16815260200190815260200160002060008201518160000160006101000a81548160ff0219169083151502179055509050507f8ac9153754152e5b728b2c6bdaca961a07c94cfbf57278f89a9865679d90fe73816001604051620002ef929190620003eb565b60405180910390a150565b600080fd5b6000819050919050565b6200031481620002ff565b81146200032057600080fd5b50565b600081519050620003348162000309565b92915050565b600060208284031215620003535762000352620002fa565b5b6000620003638482850162000323565b91505092915050565b60008115159050919050565b62000383816200036c565b82525050565b6000602082019050620003a0600083018462000378565b92915050565b600073ffffffffffffffffffffffffffffffffffffffff82169050919050565b6000620003d382620003a6565b9050919050565b620003e581620003c6565b82525050565b6000604082019050620004026000830185620003da565b62000411602083018462000378565b9392505050565b61178b80620004286000396000f3fe608060405234801561001057600080fd5b50600436106100b45760003560e01c806382dc1ec41161007157806382dc1ec4146101635780638456cb591461017f5780639b96eece146101895780639dc29fac146101b9578063a9059cbb146101d5578063c4e41b22146101f1576100b4565b8063095ea7b3146100b95780630af4187d146100d557806323b872dd146101055780633f4ba83a1461012157806340c10f191461012b57806341eb24bb14610147575b600080fd5b6100d360048036038101906100ce91906113e2565b61020f565b005b6100ef60048036038101906100ea9190611422565b61026a565b6040516100fc9190611471565b60405180910390f35b61011f600480360381019061011a919061148c565b610314565b005b610129610371565b005b610145600480360381019061014091906113e2565b6103c8565b005b610161600480360381019061015c91906114df565b610423565b005b61017d600480360381019061017891906114df565b61047c565b005b6101876104d5565b005b6101a3600480360381019061019e91906114df565b61052c565b6040516101b09190611471565b60405180910390f35b6101d360048036038101906101ce91906113e2565b610598565b005b6101ef60048036038101906101ea91906113e2565b6105f3565b005b6101f961064e565b6040516102069190611471565b60405180910390f35b600061021b838361065f565b9050600015158115151415610265576040517f08c379a000000000000000000000000000000000000000000000000000000000815260040161025c90611569565b60405180910390fd5b505050565b600080600460008573ffffffffffffffffffffffffffffffffffffffff1673ffffffffffffffffffffffffffffffffffffffff16815260200190815260200160002060008473ffffffffffffffffffffffffffffffffffffffff1673ffffffffffffffffffffffffffffffffffffffff1681526020019081526020016000206040518060200160405290816000820154815250509050600081600001519050809250505092915050565b60006103218484846107d7565b905060001515811515141561036b576040517f08c379a000000000000000000000000000000000000000000000000000000000815260040161036290611569565b60405180910390fd5b50505050565b600061037b610a7d565b90506000151581151514156103c5576040517f08c379a00000000000000000000000000000000000000000000000000000000081526004016103bc90611569565b60405180910390fd5b50565b60006103d48383610b5e565b905060001515811515141561041e576040517f08c379a000000000000000000000000000000000000000000000000000000000815260040161041590611569565b60405180910390fd5b505050565b600061042e82610cd6565b9050600015158115151415610478576040517f08c379a000000000000000000000000000000000000000000000000000000000815260040161046f90611569565b60405180910390fd5b5050565b600061048782610dfb565b90506000151581151514156104d1576040517f08c379a00000000000000000000000000000000000000000000000000000000081526004016104c890611569565b60405180910390fd5b5050565b60006104df610f20565b9050600015158115151415610529576040517f08c379a000000000000000000000000000000000000000000000000000000000815260040161052090611569565b60405180910390fd5b50565b600080600260008473ffffffffffffffffffffffffffffffffffffffff1673ffffffffffffffffffffffffffffffffffffffff16815260200190815260200160002060405180602001604052908160008201548152505090506000816000015190508092505050919050565b60006105a48383611001565b90506000151581151514156105ee576040517f08c379a00000000000000000000000000000000000000000000000000000000081526004016105e590611569565b60405180910390fd5b505050565b60006105ff83836111cf565b9050600015158115151415610649576040517f08c379a000000000000000000000000000000000000000000000000000000000815260040161064090611569565b60405180910390fd5b505050565b600080600080015490508091505090565b6000803390506000600460008373ffffffffffffffffffffffffffffffffffffffff1673ffffffffffffffffffffffffffffffffffffffff16815260200190815260200160002060008673ffffffffffffffffffffffffffffffffffffffff1673ffffffffffffffffffffffffffffffffffffffff168152602001908152602001600020600001549050600081856106f791906115b8565b90507f01722f0e92ffd761d4a842cffdd36fe3adb6091e41732a4e714250176b7d8d2283878360405161072c939291906115fb565b60405180910390a180600460008573ffffffffffffffffffffffffffffffffffffffff1673ffffffffffffffffffffffffffffffffffffffff16815260200190815260200160002060008873ffffffffffffffffffffffffffffffffffffffff1673ffffffffffffffffffffffffffffffffffffffff16815260200190815260200160002060000160008282546107c39190611632565b925050819055506001935050505092915050565b600080339050600560000160009054906101000a900460ff161515600015151415610a70576000600260008773ffffffffffffffffffffffffffffffffffffffff1673ffffffffffffffffffffffffffffffffffffffff1681526020019081526020016000206000015490506000600460008873ffffffffffffffffffffffffffffffffffffffff1673ffffffffffffffffffffffffffffffffffffffff16815260200190815260200160002060008473ffffffffffffffffffffffffffffffffffffffff1673ffffffffffffffffffffffffffffffffffffffff1681526020019081526020016000206000015490508482101580156108d75750848110155b15610a6d577f5f7542858008eeb041631f30e6109ae94b83a58e9a58261dd2c42c508850f939878785886040516109119493929190611688565b60405180910390a184600260008973ffffffffffffffffffffffffffffffffffffffff1673ffffffffffffffffffffffffffffffffffffffff168152602001908152602001600020600001600082825461096b91906115b8565b9250508190555084600260008873ffffffffffffffffffffffffffffffffffffffff1673ffffffffffffffffffffffffffffffffffffffff16815260200190815260200160002060000160008282546109c49190611632565b9250508190555084600460008973ffffffffffffffffffffffffffffffffffffffff1673ffffffffffffffffffffffffffffffffffffffff16815260200190815260200160002060008573ffffffffffffffffffffffffffffffffffffffff1673ffffffffffffffffffffffffffffffffffffffff1681526020019081526020016000206000016000828254610a5a91906115b8565b9250508190555060019350505050610a76565b50505b60009150505b9392505050565b600080600360000160009054906101000a900473ffffffffffffffffffffffffffffffffffffffff1690503373ffffffffffffffffffffffffffffffffffffffff168173ffffffffffffffffffffffffffffffffffffffff161415610b5557604051806020016040528060001515815250600560008201518160000160006101000a81548160ff0219169083151502179055509050507f0e2fb031ee032dc02d8011dc50b816eb450cf856abd8261680dac74f72165bd26000604051610b4391906116e8565b60405180910390a16001915050610b5b565b60009150505b90565b6000600560000160009054906101000a900460ff161515600015151415610ccb576000600360000160009054906101000a900473ffffffffffffffffffffffffffffffffffffffff1690503373ffffffffffffffffffffffffffffffffffffffff168173ffffffffffffffffffffffffffffffffffffffff161415610cc957600073ffffffffffffffffffffffffffffffffffffffff168473ffffffffffffffffffffffffffffffffffffffff1614610cc8577f0f6798a560793a54c3bcfe86a93cde1e73087d944c0ea20544137d41213968858484604051610c42929190611703565b60405180910390a182600080016000828254610c5e9190611632565b9250508190555082600260008673ffffffffffffffffffffffffffffffffffffffff1673ffffffffffffffffffffffffffffffffffffffff1681526020019081526020016000206000016000828254610cb79190611632565b925050819055506001915050610cd0565b5b505b600090505b92915050565b600080339050600160008273ffffffffffffffffffffffffffffffffffffffff1673ffffffffffffffffffffffffffffffffffffffff16815260200190815260200160002060000160009054906101000a900460ff161515600115151415610df057604051806020016040528060001515815250600160008573ffffffffffffffffffffffffffffffffffffffff1673ffffffffffffffffffffffffffffffffffffffff16815260200190815260200160002060008201518160000160006101000a81548160ff0219169083151502179055509050507f8ac9153754152e5b728b2c6bdaca961a07c94cfbf57278f89a9865679d90fe73836000604051610dde92919061172c565b60405180910390a16001915050610df6565b60009150505b919050565b600080339050600160008273ffffffffffffffffffffffffffffffffffffffff1673ffffffffffffffffffffffffffffffffffffffff16815260200190815260200160002060000160009054906101000a900460ff161515600115151415610f1557604051806020016040528060011515815250600160008573ffffffffffffffffffffffffffffffffffffffff1673ffffffffffffffffffffffffffffffffffffffff16815260200190815260200160002060008201518160000160006101000a81548160ff0219169083151502179055509050507f8ac9153754152e5b728b2c6bdaca961a07c94cfbf57278f89a9865679d90fe73836001604051610f0392919061172c565b60405180910390a16001915050610f1b565b60009150505b919050565b600080600360000160009054906101000a900473ffffffffffffffffffffffffffffffffffffffff1690503373ffffffffffffffffffffffffffffffffffffffff168173ffffffffffffffffffffffffffffffffffffffff161415610ff857604051806020016040528060011515815250600560008201518160000160006101000a81548160ff0219169083151502179055509050507f0e2fb031ee032dc02d8011dc50b816eb450cf856abd8261680dac74f72165bd26001604051610fe691906116e8565b60405180910390a16001915050610ffe565b60009150505b90565b600080339050600560000160009054906101000a900460ff1615156000151514156111c357600360000160009054906101000a900473ffffffffffffffffffffffffffffffffffffffff1673ffffffffffffffffffffffffffffffffffffffff168173ffffffffffffffffffffffffffffffffffffffff1614156111c2576000600260008673ffffffffffffffffffffffffffffffffffffffff1673ffffffffffffffffffffffffffffffffffffffff168152602001908152602001600020600001549050600073ffffffffffffffffffffffffffffffffffffffff168573ffffffffffffffffffffffffffffffffffffffff16141580156111035750808411155b156111c0577fcc16f5dbb4873280815c1ee09dbd06736cffcc184412cf7a71a0fdb75d397ca58585604051611139929190611703565b60405180910390a183600260008773ffffffffffffffffffffffffffffffffffffffff1673ffffffffffffffffffffffffffffffffffffffff168152602001908152602001600020600001600082825461119391906115b8565b92505081905550836000800160008282546111ae91906115b8565b925050819055506001925050506111c9565b505b5b60009150505b92915050565b6000600560000160009054906101000a900460ff16151560001515141561133e5760003390506000600260008373ffffffffffffffffffffffffffffffffffffffff1673ffffffffffffffffffffffffffffffffffffffff16815260200190815260200160002060000154905080841161133b577fddf252ad1be2c89b69c2b068fc378daa952ba7f163c4a11628f55a4df523b3ef828686604051611276939291906115fb565b60405180910390a183600260008473ffffffffffffffffffffffffffffffffffffffff1673ffffffffffffffffffffffffffffffffffffffff16815260200190815260200160002060000160008282546112d091906115b8565b9250508190555083600260008773ffffffffffffffffffffffffffffffffffffffff1673ffffffffffffffffffffffffffffffffffffffff16815260200190815260200160002060000160008282546113299190611632565b92505081905550600192505050611343565b50505b600090505b92915050565b600080fd5b600073ffffffffffffffffffffffffffffffffffffffff82169050919050565b60006113798261134e565b9050919050565b6113898161136e565b811461139457600080fd5b50565b6000813590506113a681611380565b92915050565b6000819050919050565b6113bf816113ac565b81146113ca57600080fd5b50565b6000813590506113dc816113b6565b92915050565b600080604083850312156113f9576113f8611349565b5b600061140785828601611397565b9250506020611418858286016113cd565b9150509250929050565b6000806040838503121561143957611438611349565b5b600061144785828601611397565b925050602061145885828601611397565b9150509250929050565b61146b816113ac565b82525050565b60006020820190506114866000830184611462565b92915050565b6000806000606084860312156114a5576114a4611349565b5b60006114b386828701611397565b93505060206114c486828701611397565b92505060406114d5868287016113cd565b9150509250925092565b6000602082840312156114f5576114f4611349565b5b600061150384828501611397565b91505092915050565b600082825260208201905092915050565b7f52756c6520636f6e646974696f6e206661696c65640000000000000000000000600082015250565b600061155360158361150c565b915061155e8261151d565b602082019050919050565b6000602082019050818103600083015261158281611546565b9050919050565b7f4e487b7100000000000000000000000000000000000000000000000000000000600052601160045260246000fd5b60006115c3826113ac565b91506115ce836113ac565b9250828210156115e1576115e0611589565b5b828203905092915050565b6115f58161136e565b82525050565b600060608201905061161060008301866115ec565b61161d60208301856115ec565b61162a6040830184611462565b949350505050565b600061163d826113ac565b9150611648836113ac565b9250827fffffffffffffffffffffffffffffffffffffffffffffffffffffffffffffffff0382111561167d5761167c611589565b5b828201905092915050565b600060808201905061169d60008301876115ec565b6116aa60208301866115ec565b6116b760408301856115ec565b6116c46060830184611462565b95945050505050565b60008115159050919050565b6116e2816116cd565b82525050565b60006020820190506116fd60008301846116d9565b92915050565b600060408201905061171860008301856115ec565b6117256020830184611462565b9392505050565b600060408201905061174160008301856115ec565b61174e60208301846116d9565b939250505056fea264697066735822122034fc00a416c17ab6eb4f62fbf3510a3c8a9dcb920bf06fc9d59f6bf42fdd1cc664736f6c634300080c0033",
  "immutableReferences": {},
  "source": "contract Matic {\n  struct OwnerTuple {\n    address p;\n  }\n  struct TotalSupplyTuple {\n    uint n;\n  }\n  struct IsPauserTuple {\n    bool b;\n  }\n  struct BalanceOfTuple {\n    uint n;\n  }\n  struct AllowanceTuple {\n    uint n;\n  }\n  struct PausedTuple {\n    bool b;\n  }\n  TotalSupplyTuple totalSupply;\n  mapping(address=>IsPauserTuple) isPauser;\n  mapping(address=>BalanceOfTuple) balanceOf;\n  OwnerTuple owner;\n  mapping(address=>mapping(address=>AllowanceTuple)) allowance;\n  PausedTuple paused;\n  event Burn(address p,uint amount);\n  event Mint(address p,uint amount);\n  event IncreaseAllowance(address p,address s,uint n);\n  event IsPauser(address p,bool b);\n  event Transfer(address from,address to,uint amount);\n  event Paused(bool b);\n  event TransferFrom(address from,address to,address spender,uint amount);\n  constructor(uint n) public {\n    updateBalanceOfOnInsertConstructor_r4(n);\n    updateTotalSupplyOnInsertConstructor_r24(n);\n    updateTotalMintOnInsertConstructor_r18(n);\n    updateOwnerOnInsertConstructor_r7();\n    updatePausedOnInsertConstructor_r21();\n    updateTotalBalancesOnInsertConstructor_r29(n);\n    updateAllMintOnInsertConstructor_r13(n);\n    updateIsPauserOnInsertConstructor_r5();\n  }\n  function burn(address p,uint amount) public    {\n      bool r9 = updateBurnOnInsertRecv_burn_r9(p,amount);\n      if(r9==false) {\n        revert(\"Rule condition failed\");\n      }\n  }\n  function getTotalSupply() public view  returns (uint) {\n      uint n = totalSupply.n;\n      return n;\n  }\n  function approve(address s,uint n) public    {\n      bool r28 = updateIncreaseAllowanceOnInsertRecv_approve_r28(s,n);\n      if(r28==false) {\n        revert(\"Rule condition failed\");\n      }\n  }\n  function addPauser(address p) public    {\n      bool r6 = updateIsPauserOnInsertRecv_addPauser_r6(p);\n      if(r6==false) {\n        revert(\"Rule condition failed\");\n      }\n  }\n  function mint(address p,uint amount) public    {\n      bool r10 = updateMintOnInsertRecv_mint_r10(p,amount);\n      if(r10==false) {\n        revert(\"Rule condition failed\");\n      }\n  }\n  function getAllowance(address p,address s) public view  returns (uint) {\n      AllowanceTuple memory allowanceTuple = allowance[p][s];\n      uint n = allowanceTuple.n;\n      return n;\n  }\n  function unpause() public    {\n      bool r26 = updatePausedOnInsertRecv_unpause_r26();\n      if(r26==false) {\n        revert(\"Rule condition failed\");\n      }\n  }\n  function transfer(address to,uint amount) public    {\n      bool r12 = updateTransferOnInsertRecv_transfer_r12(to,amount);\n      if(r12==false) {\n        revert(\"Rule condition failed\");\n      }\n  }\n  function renouncePauser(address p) public    {\n      bool r11 = updateIsPauserOnInsertRecv_renouncePauser_r11(p);\n      if(r11==false) {\n        revert(\"Rule condition failed\");\n      }\n  }\n  function transferFrom(address from,address to,uint amount) public    {\n      bool r1 = updateTransferFromOnInsertRecv_transferFrom_r1(from,to,amount);\n      if(r1==false) {\n        revert(\"Rule condition failed\");\n      }\n  }\n  function pause() public    {\n      bool r2 = updatePausedOnInsertRecv_pause_r2();\n      if(r2==false) {\n        revert(\"Rule condition failed\");\n      }\n  }\n  function getBalanceOf(address p) public view  returns (uint) {\n      BalanceOfTuple memory balanceOfTuple = balanceOf[p];\n      uint n = balanceOfTuple.n;\n      return n;\n  }\n  function updateTransferOnInsertRecv_transfer_r12(address r,uint n) private   returns (bool) {\n      if(false==paused.b) {\n        address s = msg.sender;\n        // BalanceOfTuple memory balanceOfTuple = balanceOf[s];\n        // uint m = balanceOfTuple.n;\n        uint m = balanceOf[s].n;\n        if(n<=m) {\n          emit Transfer(s,r,n);\n          balanceOf[s].n -= n;\n          balanceOf[r].n += n;\n          return true;\n        }\n      }\n      return false;\n  }\n  function updateIsPauserOnInsertRecv_addPauser_r6(address p) private   returns (bool) {\n      address s = msg.sender;\n      // IsPauserTuple memory isPauserTuple = isPauser[s];\n      // if(true==isPauserTuple.b) {\n      if(true==isPauser[s].b) {\n        isPauser[p] = IsPauserTuple(true);\n        emit IsPauser(p,true);\n        return true;\n      }\n      return false;\n  }\n  function updateTransferFromOnInsertRecv_transferFrom_r1(address o,address r,uint n) private   returns (bool) {\n      address s = msg.sender;\n      if(false==paused.b) {\n        // BalanceOfTuple memory balanceOfTuple = balanceOf[o];\n        // uint m = balanceOfTuple.n;\n        uint m = balanceOf[o].n;\n        // AllowanceTuple memory allowanceTuple = allowance[o][s];\n        // uint k = allowanceTuple.n;\n        uint k = allowance[o][s].n;\n        if(m>=n && k>=n) {\n          emit TransferFrom(o,r,s,n);\n          // emit Transfer(o,r,n);\n          balanceOf[o].n -= n;\n          balanceOf[r].n += n;\n          allowance[o][s].n -= n;\n          return true;\n        }\n      }\n      return false;\n  }\n  function updateuintByint(uint x,int delta) private   returns (uint) {\n      int convertedX = int(x);\n      int value = convertedX+delta;\n      uint convertedValue = uint(value);\n      return convertedValue;\n  }\n  function updateIncreaseAllowanceOnInsertRecv_approve_r28(address s,uint n) private   returns (bool) {\n      address o = msg.sender;\n      // AllowanceTuple memory allowanceTuple = allowance[o][s];\n      // uint m = allowanceTuple.n;\n      uint m = allowance[o][s].n;\n      uint d = n-m;\n      emit IncreaseAllowance(o,s,d);\n      allowance[o][s].n += d;\n      return true;\n      return false;\n  }\n  function updateTotalMintOnInsertConstructor_r18(uint n) private    {\n      address s = msg.sender;\n      // Empty()\n  }\n  function updatePausedOnInsertRecv_pause_r2() private   returns (bool) {\n      address s = owner.p;\n      if(s==msg.sender) {\n        paused = PausedTuple(true);\n        emit Paused(true);\n        return true;\n      }\n      return false;\n  }\n  function updateTotalSupplyOnInsertConstructor_r24(uint n) private    {\n      totalSupply = TotalSupplyTuple(n);\n  }\n  function updateAllMintOnInsertConstructor_r13(uint n) private    {\n      // Empty()\n  }\n  function updateOwnerOnInsertConstructor_r7() private    {\n      address s = msg.sender;\n      owner = OwnerTuple(s);\n  }\n  function updateBurnOnInsertRecv_burn_r9(address p,uint n) private   returns (bool) {\n      address s = msg.sender;\n      if(false==paused.b) {\n        if(s==owner.p) {\n          // BalanceOfTuple memory balanceOfTuple = balanceOf[p];\n          // uint m = balanceOfTuple.n;\n          uint m = balanceOf[p].n;\n          if(p!=address(0) && n<=m) {\n            emit Burn(p,n);\n            balanceOf[p].n -= n;\n            totalSupply.n -= n;\n            return true;\n          }\n        }\n      }\n      return false;\n  }\n  function updateMintOnInsertRecv_mint_r10(address p,uint n) private   returns (bool) {\n      if(false==paused.b) {\n        address s = owner.p;\n        if(s==msg.sender) {\n          if(p!=address(0)) {\n            emit Mint(p,n);\n            totalSupply.n += n;\n            balanceOf[p].n += n;\n            return true;\n          }\n        }\n      }\n      return false;\n  }\n  function updateTotalBalancesOnInsertConstructor_r29(uint n) private    {\n      // Empty()\n  }\n  function updateIsPauserOnInsertConstructor_r5() private    {\n      address s = msg.sender;\n      isPauser[s] = IsPauserTuple(true);\n      emit IsPauser(s,true);\n  }\n  function updateIsPauserOnInsertRecv_renouncePauser_r11(address p) private   returns (bool) {\n      address s = msg.sender;\n      // IsPauserTuple memory isPauserTuple = isPauser[s];\n      // if(true==isPauserTuple.b) {\n      if(true==isPauser[s].b) {\n        isPauser[p] = IsPauserTuple(false);\n        emit IsPauser(p,false);\n        return true;\n      }\n      return false;\n  }\n  function updateBalanceOfOnInsertConstructor_r4(uint n) private    {\n      address s = msg.sender;\n      balanceOf[s] = BalanceOfTuple(n);\n  }\n  function updatePausedOnInsertConstructor_r21() private    {\n      paused = PausedTuple(false);\n      emit Paused(false);\n  }\n  function updatePausedOnInsertRecv_unpause_r26() private   returns (bool) {\n      address s = owner.p;\n      if(s==msg.sender) {\n        paused = PausedTuple(false);\n        emit Paused(false);\n        return true;\n      }\n      return false;\n  }\n}\n",
  "sourcePath": "/Users/ljy/Desktop/PENN/2023_summer/boon_dsc/smart-contracts/optimizations/optimized/contracts/matic.sol",
  "compiler": {
    "name": "solc",
    "version": "0.8.12+commit.f00d7308.Emscripten.clang"
  },
  "schemaVersion": "3.4.13",
  "updatedAt": "2023-07-24T06:02:27.382Z",
  "devdoc": {
    "kind": "dev",
    "methods": {},
    "version": 1
  },
  "userdoc": {
    "kind": "user",
    "methods": {},
    "version": 1
  }
}