{
  "contractName": "Tether",
  "abi": [
    {
      "inputs": [
        {
          "internalType": "uint256",
          "name": "n",
          "type": "uint256"
        }
      ],
      "stateMutability": "nonpayable",
      "type": "constructor"
    },
    {
      "anonymous": false,
      "inputs": [
        {
          "indexed": false,
          "internalType": "address",
          "name": "p",
          "type": "address"
        }
      ],
      "name": "AddBlackList",
      "type": "event"
    },
    {
      "anonymous": false,
      "inputs": [
        {
          "indexed": false,
          "internalType": "address",
          "name": "p",
          "type": "address"
        },
        {
          "indexed": false,
          "internalType": "uint256",
          "name": "n",
          "type": "uint256"
        }
      ],
      "name": "DestroyBlackFund",
      "type": "event"
    },
    {
      "anonymous": false,
      "inputs": [
        {
          "indexed": false,
          "internalType": "address",
          "name": "p",
          "type": "address"
        },
        {
          "indexed": false,
          "internalType": "address",
          "name": "s",
          "type": "address"
        },
        {
          "indexed": false,
          "internalType": "uint256",
          "name": "n",
          "type": "uint256"
        }
      ],
      "name": "IncreaseAllowance",
      "type": "event"
    },
    {
      "anonymous": false,
      "inputs": [
        {
          "indexed": false,
          "internalType": "address",
          "name": "p",
          "type": "address"
        },
        {
          "indexed": false,
          "internalType": "uint256",
          "name": "amount",
          "type": "uint256"
        }
      ],
      "name": "Issue",
      "type": "event"
    },
    {
      "anonymous": false,
      "inputs": [
        {
          "indexed": false,
          "internalType": "address",
          "name": "p",
          "type": "address"
        },
        {
          "indexed": false,
          "internalType": "uint256",
          "name": "amount",
          "type": "uint256"
        }
      ],
      "name": "Redeem",
      "type": "event"
    },
    {
      "anonymous": false,
      "inputs": [
        {
          "indexed": false,
          "internalType": "address",
          "name": "from",
          "type": "address"
        },
        {
          "indexed": false,
          "internalType": "address",
          "name": "to",
          "type": "address"
        },
        {
          "indexed": false,
          "internalType": "address",
          "name": "spender",
          "type": "address"
        },
        {
          "indexed": false,
          "internalType": "uint256",
          "name": "fee",
          "type": "uint256"
        },
        {
          "indexed": false,
          "internalType": "uint256",
          "name": "amount",
          "type": "uint256"
        }
      ],
      "name": "TransferFromWithFee",
      "type": "event"
    },
    {
      "anonymous": false,
      "inputs": [
        {
          "indexed": false,
          "internalType": "address",
          "name": "from",
          "type": "address"
        },
        {
          "indexed": false,
          "internalType": "address",
          "name": "to",
          "type": "address"
        },
        {
          "indexed": false,
          "internalType": "uint256",
          "name": "fee",
          "type": "uint256"
        },
        {
          "indexed": false,
          "internalType": "uint256",
          "name": "amount",
          "type": "uint256"
        }
      ],
      "name": "TransferWithFee",
      "type": "event"
    },
    {
      "inputs": [
        {
          "internalType": "address",
          "name": "to",
          "type": "address"
        },
        {
          "internalType": "uint256",
          "name": "amount",
          "type": "uint256"
        }
      ],
      "name": "transfer",
      "outputs": [],
      "stateMutability": "nonpayable",
      "type": "function"
    },
    {
      "inputs": [
        {
          "internalType": "address",
          "name": "s",
          "type": "address"
        },
        {
          "internalType": "uint256",
          "name": "n",
          "type": "uint256"
        }
      ],
      "name": "approve",
      "outputs": [],
      "stateMutability": "nonpayable",
      "type": "function"
    },
    {
      "inputs": [
        {
          "internalType": "address",
          "name": "p",
          "type": "address"
        },
        {
          "internalType": "address",
          "name": "s",
          "type": "address"
        }
      ],
      "name": "getAllowance",
      "outputs": [
        {
          "internalType": "uint256",
          "name": "",
          "type": "uint256"
        }
      ],
      "stateMutability": "view",
      "type": "function"
    },
    {
      "inputs": [
        {
          "internalType": "address",
          "name": "p",
          "type": "address"
        },
        {
          "internalType": "uint256",
          "name": "amount",
          "type": "uint256"
        }
      ],
      "name": "issue",
      "outputs": [],
      "stateMutability": "nonpayable",
      "type": "function"
    },
    {
      "inputs": [],
      "name": "getTotalSupply",
      "outputs": [
        {
          "internalType": "uint256",
          "name": "",
          "type": "uint256"
        }
      ],
      "stateMutability": "view",
      "type": "function"
    },
    {
      "inputs": [
        {
          "internalType": "address",
          "name": "p",
          "type": "address"
        },
        {
          "internalType": "uint256",
          "name": "amount",
          "type": "uint256"
        }
      ],
      "name": "redeem",
      "outputs": [],
      "stateMutability": "nonpayable",
      "type": "function"
    },
    {
      "inputs": [
        {
          "internalType": "address",
          "name": "p",
          "type": "address"
        }
      ],
      "name": "getBalanceOf",
      "outputs": [
        {
          "internalType": "uint256",
          "name": "",
          "type": "uint256"
        }
      ],
      "stateMutability": "view",
      "type": "function"
    },
    {
      "inputs": [
        {
          "internalType": "address",
          "name": "from",
          "type": "address"
        },
        {
          "internalType": "address",
          "name": "to",
          "type": "address"
        },
        {
          "internalType": "uint256",
          "name": "amount",
          "type": "uint256"
        }
      ],
      "name": "transferFrom",
      "outputs": [],
      "stateMutability": "nonpayable",
      "type": "function"
    }
  ],
  "bytecode": "0x60806040523480156200001157600080fd5b50604051620017e0380380620017e08339818101604052810190620000379190620001c2565b620000476200008160201b60201c565b6200005881620000fa60201b60201c565b62000069816200015e60201b60201c565b6200007a816200017f60201b60201c565b50620001f4565b600033905060405180602001604052808273ffffffffffffffffffffffffffffffffffffffff16815250600660008201518160000160006101000a81548173ffffffffffffffffffffffffffffffffffffffff021916908373ffffffffffffffffffffffffffffffffffffffff16021790555090505050565b6000339050604051806020016040528083815250600460008373ffffffffffffffffffffffffffffffffffffffff1673ffffffffffffffffffffffffffffffffffffffff168152602001908152602001600020600082015181600001559050505050565b60405180602001604052808281525060016000820151816000015590505050565b50565b600080fd5b6000819050919050565b6200019c8162000187565b8114620001a857600080fd5b50565b600081519050620001bc8162000191565b92915050565b600060208284031215620001db57620001da62000182565b5b6000620001eb84828501620001ab565b91505092915050565b6115dc80620002046000396000f3fe608060405234801561001057600080fd5b50600436106100885760003560e01c8063867904b41161005b578063867904b4146101115780639b96eece1461012d578063a9059cbb1461015d578063c4e41b221461017957610088565b8063095ea7b31461008d5780630af4187d146100a95780631e9a6950146100d957806323b872dd146100f5575b600080fd5b6100a760048036038101906100a29190611185565b610197565b005b6100c360048036038101906100be91906111c5565b6101f2565b6040516100d09190611214565b60405180910390f35b6100f360048036038101906100ee9190611185565b61029c565b005b61010f600480360381019061010a919061122f565b6102f7565b005b61012b60048036038101906101269190611185565b610354565b005b61014760048036038101906101429190611282565b6103af565b6040516101549190611214565b60405180910390f35b61017760048036038101906101729190611185565b61041b565b005b610181610476565b60405161018e9190611214565b60405180910390f35b60006101a38383610488565b90506000151581151514156101ed576040517f08c379a00000000000000000000000000000000000000000000000000000000081526004016101e49061130c565b60405180910390fd5b505050565b600080600560008573ffffffffffffffffffffffffffffffffffffffff1673ffffffffffffffffffffffffffffffffffffffff16815260200190815260200160002060008473ffffffffffffffffffffffffffffffffffffffff1673ffffffffffffffffffffffffffffffffffffffff1681526020019081526020016000206040518060200160405290816000820154815250509050600081600001519050809250505092915050565b60006102a88383610600565b90506000151581151514156102f2576040517f08c379a00000000000000000000000000000000000000000000000000000000081526004016102e99061130c565b60405180910390fd5b505050565b60006103048484846107af565b905060001515811515141561034e576040517f08c379a00000000000000000000000000000000000000000000000000000000081526004016103459061130c565b60405180910390fd5b50505050565b60006103608383610c93565b90506000151581151514156103aa576040517f08c379a00000000000000000000000000000000000000000000000000000000081526004016103a19061130c565b60405180910390fd5b505050565b600080600460008473ffffffffffffffffffffffffffffffffffffffff1673ffffffffffffffffffffffffffffffffffffffff16815260200190815260200160002060405180602001604052908160008201548152505090506000816000015190508092505050919050565b60006104278383610deb565b9050600015158115151415610471576040517f08c379a00000000000000000000000000000000000000000000000000000000081526004016104689061130c565b60405180910390fd5b505050565b60008060016000015490508091505090565b6000803390506000600560008373ffffffffffffffffffffffffffffffffffffffff1673ffffffffffffffffffffffffffffffffffffffff16815260200190815260200160002060008673ffffffffffffffffffffffffffffffffffffffff1673ffffffffffffffffffffffffffffffffffffffff16815260200190815260200160002060000154905060008185610520919061135b565b90507f01722f0e92ffd761d4a842cffdd36fe3adb6091e41732a4e714250176b7d8d228387836040516105559392919061139e565b60405180910390a180600560008573ffffffffffffffffffffffffffffffffffffffff1673ffffffffffffffffffffffffffffffffffffffff16815260200190815260200160002060008873ffffffffffffffffffffffffffffffffffffffff1673ffffffffffffffffffffffffffffffffffffffff16815260200190815260200160002060000160008282546105ec91906113d5565b925050819055506001935050505092915050565b600080600660000160009054906101000a900473ffffffffffffffffffffffffffffffffffffffff1690503373ffffffffffffffffffffffffffffffffffffffff168173ffffffffffffffffffffffffffffffffffffffff1614156107a3576000600460008673ffffffffffffffffffffffffffffffffffffffff1673ffffffffffffffffffffffffffffffffffffffff168152602001908152602001600020600001549050600073ffffffffffffffffffffffffffffffffffffffff168573ffffffffffffffffffffffffffffffffffffffff16141580156106e35750808411155b156107a1577f222838db2794d11532d940e8dec38ae307ed0b63cd97c233322e221f998767a6858560405161071992919061142b565b60405180910390a18360016000016000828254610736919061135b565b9250508190555083600460008773ffffffffffffffffffffffffffffffffffffffff1673ffffffffffffffffffffffffffffffffffffffff168152602001908152602001600020600001600082825461078f919061135b565b925050819055506001925050506107a9565b505b60009150505b92915050565b600080600080015490506000600360000154905060003390506000600460008973ffffffffffffffffffffffffffffffffffffffff1673ffffffffffffffffffffffffffffffffffffffff1681526020019081526020016000206000015490506000600260008a73ffffffffffffffffffffffffffffffffffffffff1673ffffffffffffffffffffffffffffffffffffffff1681526020019081526020016000206040518060200160405290816000820160009054906101000a900460ff161515151581525050905080600001511515600015151415610c82576000600560008b73ffffffffffffffffffffffffffffffffffffffff1673ffffffffffffffffffffffffffffffffffffffff16815260200190815260200160002060008573ffffffffffffffffffffffffffffffffffffffff1673ffffffffffffffffffffffffffffffffffffffff16815260200190815260200160002060000154905087831015801561091d5750878110155b15610c80576000856127108a896109349190611454565b61093e91906114dd565b106109495785610963565b61271089886109589190611454565b61096291906114dd565b5b90507fbc142226ba12c181c61a3dfcb074262dd02d875cde19fd8731689283de37e5018b8b87848d60405161099c95949392919061150e565b60405180910390a16000600660000160009054906101000a900473ffffffffffffffffffffffffffffffffffffffff16905081600460008e73ffffffffffffffffffffffffffffffffffffffff1673ffffffffffffffffffffffffffffffffffffffff1681526020019081526020016000206000016000828254610a20919061135b565b9250508190555081600460008373ffffffffffffffffffffffffffffffffffffffff1673ffffffffffffffffffffffffffffffffffffffff1681526020019081526020016000206000016000828254610a7991906113d5565b9250508190555081600560008e73ffffffffffffffffffffffffffffffffffffffff1673ffffffffffffffffffffffffffffffffffffffff16815260200190815260200160002060008873ffffffffffffffffffffffffffffffffffffffff1673ffffffffffffffffffffffffffffffffffffffff1681526020019081526020016000206000016000828254610b0f919061135b565b925050819055506000828b610b24919061135b565b905080600460008f73ffffffffffffffffffffffffffffffffffffffff1673ffffffffffffffffffffffffffffffffffffffff1681526020019081526020016000206000016000828254610b78919061135b565b9250508190555080600460008e73ffffffffffffffffffffffffffffffffffffffff1673ffffffffffffffffffffffffffffffffffffffff1681526020019081526020016000206000016000828254610bd191906113d5565b9250508190555080600560008f73ffffffffffffffffffffffffffffffffffffffff1673ffffffffffffffffffffffffffffffffffffffff16815260200190815260200160002060008973ffffffffffffffffffffffffffffffffffffffff1673ffffffffffffffffffffffffffffffffffffffff1681526020019081526020016000206000016000828254610c67919061135b565b9250508190555060019950505050505050505050610c8c565b505b6000955050505050505b9392505050565b600080600660000160009054906101000a900473ffffffffffffffffffffffffffffffffffffffff1690503373ffffffffffffffffffffffffffffffffffffffff168173ffffffffffffffffffffffffffffffffffffffff161415610ddf57600073ffffffffffffffffffffffffffffffffffffffff168473ffffffffffffffffffffffffffffffffffffffff1614610dde577fc65a3f767206d2fdcede0b094a4840e01c0dd0be1888b5ba800346eaa0123c168484604051610d5792919061142b565b60405180910390a182600460008673ffffffffffffffffffffffffffffffffffffffff1673ffffffffffffffffffffffffffffffffffffffff1681526020019081526020016000206000016000828254610db191906113d5565b925050819055508260016000016000828254610dcd91906113d5565b925050819055506001915050610de5565b5b60009150505b92915050565b600080600080015490506000600360000154905060003390506000600460008373ffffffffffffffffffffffffffffffffffffffff1673ffffffffffffffffffffffffffffffffffffffff168152602001908152602001600020600001549050600260008373ffffffffffffffffffffffffffffffffffffffff1673ffffffffffffffffffffffffffffffffffffffff16815260200190815260200160002060000160009054906101000a900460ff1615156000151514156110dd578086116110dc576000836127108887610ec09190611454565b610eca91906114dd565b10610ed55783610eef565b6127108786610ee49190611454565b610eee91906114dd565b5b90507f98bc3fe7d138931a49691b623c256b8812f2a3d7f9b25ba7098c82538977a5d08389838a604051610f269493929190611561565b60405180910390a16000600660000160009054906101000a900473ffffffffffffffffffffffffffffffffffffffff16905081600460008673ffffffffffffffffffffffffffffffffffffffff1673ffffffffffffffffffffffffffffffffffffffff1681526020019081526020016000206000016000828254610faa919061135b565b9250508190555081600460008373ffffffffffffffffffffffffffffffffffffffff1673ffffffffffffffffffffffffffffffffffffffff168152602001908152602001600020600001600082825461100391906113d5565b9250508190555060008289611018919061135b565b905080600460008773ffffffffffffffffffffffffffffffffffffffff1673ffffffffffffffffffffffffffffffffffffffff168152602001908152602001600020600001600082825461106c919061135b565b9250508190555080600460008c73ffffffffffffffffffffffffffffffffffffffff1673ffffffffffffffffffffffffffffffffffffffff16815260200190815260200160002060000160008282546110c591906113d5565b9250508190555060019750505050505050506110e6565b5b60009450505050505b92915050565b600080fd5b600073ffffffffffffffffffffffffffffffffffffffff82169050919050565b600061111c826110f1565b9050919050565b61112c81611111565b811461113757600080fd5b50565b60008135905061114981611123565b92915050565b6000819050919050565b6111628161114f565b811461116d57600080fd5b50565b60008135905061117f81611159565b92915050565b6000806040838503121561119c5761119b6110ec565b5b60006111aa8582860161113a565b92505060206111bb85828601611170565b9150509250929050565b600080604083850312156111dc576111db6110ec565b5b60006111ea8582860161113a565b92505060206111fb8582860161113a565b9150509250929050565b61120e8161114f565b82525050565b60006020820190506112296000830184611205565b92915050565b600080600060608486031215611248576112476110ec565b5b60006112568682870161113a565b93505060206112678682870161113a565b925050604061127886828701611170565b9150509250925092565b600060208284031215611298576112976110ec565b5b60006112a68482850161113a565b91505092915050565b600082825260208201905092915050565b7f52756c6520636f6e646974696f6e206661696c65640000000000000000000000600082015250565b60006112f66015836112af565b9150611301826112c0565b602082019050919050565b60006020820190508181036000830152611325816112e9565b9050919050565b7f4e487b7100000000000000000000000000000000000000000000000000000000600052601160045260246000fd5b60006113668261114f565b91506113718361114f565b9250828210156113845761138361132c565b5b828203905092915050565b61139881611111565b82525050565b60006060820190506113b3600083018661138f565b6113c0602083018561138f565b6113cd6040830184611205565b949350505050565b60006113e08261114f565b91506113eb8361114f565b9250827fffffffffffffffffffffffffffffffffffffffffffffffffffffffffffffffff038211156114205761141f61132c565b5b828201905092915050565b6000604082019050611440600083018561138f565b61144d6020830184611205565b9392505050565b600061145f8261114f565b915061146a8361114f565b9250817fffffffffffffffffffffffffffffffffffffffffffffffffffffffffffffffff04831182151516156114a3576114a261132c565b5b828202905092915050565b7f4e487b7100000000000000000000000000000000000000000000000000000000600052601260045260246000fd5b60006114e88261114f565b91506114f38361114f565b925082611503576115026114ae565b5b828204905092915050565b600060a082019050611523600083018861138f565b611530602083018761138f565b61153d604083018661138f565b61154a6060830185611205565b6115576080830184611205565b9695505050505050565b6000608082019050611576600083018761138f565b611583602083018661138f565b6115906040830185611205565b61159d6060830184611205565b9594505050505056fea2646970667358221220d1abf9a3df93e82adfc98f759427cbdf2f141b8bb3dea4324a25951889a8dbad64736f6c634300080c0033",
  "immutableReferences": {},
  "source": "contract Tether {\n  struct OwnerTuple {\n    address p;\n  }\n  struct TotalSupplyTuple {\n    uint n;\n  }\n  struct IsBlackListedTuple {\n    bool b;\n  }\n  struct MaxFeeTuple {\n    uint m;\n  }\n  struct BalanceOfTuple {\n    uint n;\n  }\n  struct RateTuple {\n    uint r;\n  }\n  struct AllowanceTuple {\n    uint n;\n  }\n  RateTuple rate;\n  TotalSupplyTuple totalSupply;\n  mapping(address=>IsBlackListedTuple) isBlackListed;\n  MaxFeeTuple maxFee;\n  mapping(address=>BalanceOfTuple) balanceOf;\n  mapping(address=>mapping(address=>AllowanceTuple)) allowance;\n  OwnerTuple owner;\n  event Issue(address p,uint amount);\n  event AddBlackList(address p);\n  event TransferFromWithFee(address from,address to,address spender,uint fee,uint amount);\n  event Redeem(address p,uint amount);\n  event IncreaseAllowance(address p,address s,uint n);\n  event TransferWithFee(address from,address to,uint fee,uint amount);\n  event DestroyBlackFund(address p,uint n);\n  constructor(uint n) public {\n    updateOwnerOnInsertConstructor_r24();\n    updateBalanceOfOnInsertConstructor_r8(n);\n    updateTotalSupplyOnInsertConstructor_r22(n);\n    updateTotalBalancesOnInsertConstructor_r29(n);\n  }\n  function transfer(address to,uint amount) public    {\n      bool r7 = updateTransferWithFeeOnInsertRecv_transfer_r7(to,amount);\n      if(r7==false) {\n        revert(\"Rule condition failed\");\n      }\n  }\n  function approve(address s,uint n) public    {\n      bool r26 = updateIncreaseAllowanceOnInsertRecv_approve_r26(s,n);\n      if(r26==false) {\n        revert(\"Rule condition failed\");\n      }\n  }\n  function getAllowance(address p,address s) public view  returns (uint) {\n      AllowanceTuple memory allowanceTuple = allowance[p][s];\n      uint n = allowanceTuple.n;\n      return n;\n  }\n  function issue(address p,uint amount) public    {\n      bool r11 = updateIssueOnInsertRecv_issue_r11(p,amount);\n      if(r11==false) {\n        revert(\"Rule condition failed\");\n      }\n  }\n  function getTotalSupply() public view  returns (uint) {\n      uint n = totalSupply.n;\n      return n;\n  }\n  function redeem(address p,uint amount) public    {\n      bool r25 = updateRedeemOnInsertRecv_redeem_r25(p,amount);\n      if(r25==false) {\n        revert(\"Rule condition failed\");\n      }\n  }\n  function getBalanceOf(address p) public view  returns (uint) {\n      BalanceOfTuple memory balanceOfTuple = balanceOf[p];\n      uint n = balanceOfTuple.n;\n      return n;\n  }\n  function transferFrom(address from,address to,uint amount) public    {\n      bool r0 = updateTransferFromWithFeeOnInsertRecv_transferFrom_r0(from,to,amount);\n      if(r0==false) {\n        revert(\"Rule condition failed\");\n      }\n  }\n  function updateuintByint(uint x,int delta) private   returns (uint) {\n      int convertedX = int(x);\n      int value = convertedX+delta;\n      uint convertedValue = uint(value);\n      return convertedValue;\n  }\n  function updateRedeemOnInsertRecv_redeem_r25(address p,uint n) private   returns (bool) {\n      address s = owner.p;\n      if(s==msg.sender) {\n        // BalanceOfTuple memory balanceOfTuple = balanceOf[p];\n        // uint m = balanceOfTuple.n;\n        uint m = balanceOf[p].n;\n        if(p!=address(0) && n<=m) {\n          emit Redeem(p,n);\n          totalSupply.n -= n;\n          balanceOf[p].n -= n;\n          return true;\n        }\n      }\n      return false;\n  }\n  function updateTotalBalancesOnInsertConstructor_r29(uint n) private    {\n      // Empty()\n  }\n  function updateIssueOnInsertRecv_issue_r11(address p,uint n) private   returns (bool) {\n      address s = owner.p;\n      if(s==msg.sender) {\n        if(p!=address(0)) {\n          emit Issue(p,n);\n          balanceOf[p].n += n;\n          totalSupply.n += n;\n          return true;\n        }\n      }\n      return false;\n  }\n  function updateBalanceOfOnInsertConstructor_r8(uint n) private    {\n      address s = msg.sender;\n      balanceOf[s] = BalanceOfTuple(n);\n  }\n  function updateTotalSupplyOnInsertConstructor_r22(uint n) private    {\n      totalSupply = TotalSupplyTuple(n);\n  }\n  function updateTransferFromWithFeeOnInsertRecv_transferFrom_r0(address o,address r,uint n) private   returns (bool) {\n      uint rt = rate.r;\n      uint mf = maxFee.m;\n      address s = msg.sender;\n      // BalanceOfTuple memory balanceOfTuple = balanceOf[o];\n      // uint m = balanceOfTuple.n;\n      uint m = balanceOf[o].n;\n      IsBlackListedTuple memory isBlackListedTuple = isBlackListed[o];\n      if(false==isBlackListedTuple.b) {\n        // AllowanceTuple memory allowanceTuple = allowance[o][s];\n        // uint k = allowanceTuple.n;\n        uint k = allowance[o][s].n;\n        if(m>=n && k>=n) {\n          uint f = (rt*n)/10000 < mf ? (rt*n)/10000 : mf;\n          emit TransferFromWithFee(o,r,s,f,n);\n          address p = owner.p;\n          balanceOf[o].n -= f;\n          balanceOf[p].n += f;\n          allowance[o][s].n -= f;\n          uint m = n-f;\n          balanceOf[o].n -= m;\n          balanceOf[r].n += m;\n          allowance[o][s].n -= m;\n          \n          return true;\n        }\n      }\n      return false;\n  }\n  function updateIncreaseAllowanceOnInsertRecv_approve_r26(address s,uint n) private   returns (bool) {\n      address o = msg.sender;\n      // AllowanceTuple memory allowanceTuple = allowance[o][s];\n      // uint m = allowanceTuple.n;\n      uint m = allowance[o][s].n;\n      uint d = n-m;\n      emit IncreaseAllowance(o,s,d);\n      allowance[o][s].n += d;\n      return true;\n      return false;\n  }\n  function updateOwnerOnInsertConstructor_r24() private    {\n      address s = msg.sender;\n      owner = OwnerTuple(s);\n  }\n  function updateTransferWithFeeOnInsertRecv_transfer_r7(address r,uint n) private   returns (bool) {\n      uint rt = rate.r;\n      uint mf = maxFee.m;\n      address s = msg.sender;\n      // BalanceOfTuple memory balanceOfTuple = balanceOf[s];\n      // uint m = balanceOfTuple.n;\n      uint m = balanceOf[s].n;\n      // IsBlackListedTuple memory isBlackListedTuple = isBlackListed[s];\n      if(false==isBlackListed[s].b) {\n        if(n<=m) {\n          uint f = (rt*n)/10000 < mf ? (rt*n)/10000 : mf;\n          emit TransferWithFee(s,r,f,n);\n          address o = owner.p;\n          balanceOf[s].n -= f;\n          balanceOf[o].n += f;\n          uint m = n-f;\n          balanceOf[s].n -= m;\n          balanceOf[r].n += m;\n          return true;\n        }\n      }\n      return false;\n  }\n}\n",
  "sourcePath": "/Users/ljy/Desktop/PENN/2023_summer/boon_dsc/smart-contracts/optimizations/optimized/contracts/tether.sol",
  "compiler": {
    "name": "solc",
    "version": "0.8.12+commit.f00d7308.Emscripten.clang"
  },
  "schemaVersion": "3.4.13",
  "updatedAt": "2023-07-24T06:02:27.391Z",
  "devdoc": {
    "kind": "dev",
    "methods": {},
    "version": 1
  },
  "userdoc": {
    "kind": "user",
    "methods": {},
    "version": 1
  }
}