{
  "contractName": "Theta",
  "abi": [
    {
      "inputs": [
        {
          "internalType": "uint256",
          "name": "t",
          "type": "uint256"
        }
      ],
      "stateMutability": "nonpayable",
      "type": "constructor"
    },
    {
      "anonymous": false,
      "inputs": [
        {
          "indexed": false,
          "internalType": "address",
          "name": "p",
          "type": "address"
        },
        {
          "indexed": false,
          "internalType": "uint256",
          "name": "amount",
          "type": "uint256"
        }
      ],
      "name": "Burn",
      "type": "event"
    },
    {
      "anonymous": false,
      "inputs": [
        {
          "indexed": false,
          "internalType": "address",
          "name": "p",
          "type": "address"
        },
        {
          "indexed": false,
          "internalType": "address",
          "name": "s",
          "type": "address"
        },
        {
          "indexed": false,
          "internalType": "uint256",
          "name": "n",
          "type": "uint256"
        }
      ],
      "name": "IncreaseAllowance",
      "type": "event"
    },
    {
      "anonymous": false,
      "inputs": [
        {
          "indexed": false,
          "internalType": "address",
          "name": "p",
          "type": "address"
        },
        {
          "indexed": false,
          "internalType": "uint256",
          "name": "amount",
          "type": "uint256"
        }
      ],
      "name": "Mint",
      "type": "event"
    },
    {
      "anonymous": false,
      "inputs": [
        {
          "indexed": false,
          "internalType": "address",
          "name": "p",
          "type": "address"
        },
        {
          "indexed": false,
          "internalType": "bool",
          "name": "b",
          "type": "bool"
        }
      ],
      "name": "Precirculated",
      "type": "event"
    },
    {
      "anonymous": false,
      "inputs": [
        {
          "indexed": false,
          "internalType": "address",
          "name": "from",
          "type": "address"
        },
        {
          "indexed": false,
          "internalType": "address",
          "name": "to",
          "type": "address"
        },
        {
          "indexed": false,
          "internalType": "uint256",
          "name": "amount",
          "type": "uint256"
        }
      ],
      "name": "Transfer",
      "type": "event"
    },
    {
      "anonymous": false,
      "inputs": [
        {
          "indexed": false,
          "internalType": "address",
          "name": "from",
          "type": "address"
        },
        {
          "indexed": false,
          "internalType": "address",
          "name": "to",
          "type": "address"
        },
        {
          "indexed": false,
          "internalType": "address",
          "name": "spender",
          "type": "address"
        },
        {
          "indexed": false,
          "internalType": "uint256",
          "name": "amount",
          "type": "uint256"
        }
      ],
      "name": "TransferFrom",
      "type": "event"
    },
    {
      "inputs": [
        {
          "internalType": "address",
          "name": "to",
          "type": "address"
        },
        {
          "internalType": "uint256",
          "name": "amount",
          "type": "uint256"
        }
      ],
      "name": "transfer",
      "outputs": [],
      "stateMutability": "nonpayable",
      "type": "function"
    },
    {
      "inputs": [
        {
          "internalType": "address",
          "name": "p",
          "type": "address"
        }
      ],
      "name": "disallowPrecirculation",
      "outputs": [],
      "stateMutability": "nonpayable",
      "type": "function"
    },
    {
      "inputs": [
        {
          "internalType": "address",
          "name": "s",
          "type": "address"
        },
        {
          "internalType": "uint256",
          "name": "n",
          "type": "uint256"
        }
      ],
      "name": "approve",
      "outputs": [],
      "stateMutability": "nonpayable",
      "type": "function"
    },
    {
      "inputs": [
        {
          "internalType": "address",
          "name": "p",
          "type": "address"
        }
      ],
      "name": "allowPrecirculation",
      "outputs": [],
      "stateMutability": "nonpayable",
      "type": "function"
    },
    {
      "inputs": [],
      "name": "getTotalSupply",
      "outputs": [
        {
          "internalType": "uint256",
          "name": "",
          "type": "uint256"
        }
      ],
      "stateMutability": "view",
      "type": "function"
    },
    {
      "inputs": [
        {
          "internalType": "address",
          "name": "from",
          "type": "address"
        },
        {
          "internalType": "address",
          "name": "to",
          "type": "address"
        },
        {
          "internalType": "uint256",
          "name": "amount",
          "type": "uint256"
        }
      ],
      "name": "transferFrom",
      "outputs": [],
      "stateMutability": "nonpayable",
      "type": "function"
    },
    {
      "inputs": [
        {
          "internalType": "address",
          "name": "p",
          "type": "address"
        },
        {
          "internalType": "address",
          "name": "s",
          "type": "address"
        }
      ],
      "name": "getAllowance",
      "outputs": [
        {
          "internalType": "uint256",
          "name": "",
          "type": "uint256"
        }
      ],
      "stateMutability": "view",
      "type": "function"
    },
    {
      "inputs": [
        {
          "internalType": "address",
          "name": "p",
          "type": "address"
        }
      ],
      "name": "getBalanceOf",
      "outputs": [
        {
          "internalType": "uint256",
          "name": "",
          "type": "uint256"
        }
      ],
      "stateMutability": "view",
      "type": "function"
    },
    {
      "inputs": [
        {
          "internalType": "address",
          "name": "p",
          "type": "address"
        },
        {
          "internalType": "uint256",
          "name": "amount",
          "type": "uint256"
        }
      ],
      "name": "burn",
      "outputs": [],
      "stateMutability": "nonpayable",
      "type": "function"
    },
    {
      "inputs": [
        {
          "internalType": "address",
          "name": "p",
          "type": "address"
        },
        {
          "internalType": "uint256",
          "name": "amount",
          "type": "uint256"
        }
      ],
      "name": "mint",
      "outputs": [],
      "stateMutability": "nonpayable",
      "type": "function"
    }
  ],
  "bytecode": "0x60806040523480156200001157600080fd5b506040516200172b3803806200172b83398181016040528101906200003791906200017b565b620000476200007f60201b60201c565b6200005881620000a060201b60201c565b62000068620000c060201b60201c565b620000786200013960201b60201c565b50620001ad565b60405180602001604052806000815250600260008201518160000155905050565b604051806020016040528082815250600080820151816000015590505050565b600033905060405180602001604052808273ffffffffffffffffffffffffffffffffffffffff16815250600560008201518160000160006101000a81548173ffffffffffffffffffffffffffffffffffffffff021916908373ffffffffffffffffffffffffffffffffffffffff16021790555090505050565b565b600080fd5b6000819050919050565b620001558162000140565b81146200016157600080fd5b50565b60008151905062000175816200014a565b92915050565b6000602082840312156200019457620001936200013b565b5b6000620001a48482850162000164565b91505092915050565b61156e80620001bd6000396000f3fe608060405234801561001057600080fd5b506004361061009e5760003560e01c80639b96eece116100665780639b96eece146101435780639dc29fac14610173578063a9059cbb1461018f578063c4e41b22146101ab578063cc481912146101c95761009e565b8063095ea7b3146100a35780630af4187d146100bf57806323b872dd146100ef57806340c10f191461010b5780638ef16d0214610127575b600080fd5b6100bd60048036038101906100b891906111e0565b6101e5565b005b6100d960048036038101906100d49190611220565b610240565b6040516100e6919061126f565b60405180910390f35b6101096004803603810190610104919061128a565b6102cf565b005b610125600480360381019061012091906111e0565b61032c565b005b610141600480360381019061013c91906112dd565b610387565b005b61015d600480360381019061015891906112dd565b6103e0565b60405161016a919061126f565b60405180910390f35b61018d600480360381019061018891906111e0565b610431565b005b6101a960048036038101906101a491906111e0565b61048c565b005b6101b36104e7565b6040516101c0919061126f565b60405180910390f35b6101e360048036038101906101de91906112dd565b6104f9565b005b60006101f18383610552565b905060001515811515141561023b576040517f08c379a000000000000000000000000000000000000000000000000000000000815260040161023290611367565b60405180910390fd5b505050565b600080600460008573ffffffffffffffffffffffffffffffffffffffff1673ffffffffffffffffffffffffffffffffffffffff16815260200190815260200160002060008473ffffffffffffffffffffffffffffffffffffffff1673ffffffffffffffffffffffffffffffffffffffff1681526020019081526020016000206000015490508091505092915050565b60006102dc8484846106ca565b9050600015158115151415610326576040517f08c379a000000000000000000000000000000000000000000000000000000000815260040161031d90611367565b60405180910390fd5b50505050565b6000610338838361099d565b9050600015158115151415610382576040517f08c379a000000000000000000000000000000000000000000000000000000000815260040161037990611367565b60405180910390fd5b505050565b600061039282610af5565b90506000151581151514156103dc576040517f08c379a00000000000000000000000000000000000000000000000000000000081526004016103d390611367565b60405180910390fd5b5050565b600080600360008473ffffffffffffffffffffffffffffffffffffffff1673ffffffffffffffffffffffffffffffffffffffff16815260200190815260200160002060000154905080915050919050565b600061043d8383610c17565b9050600015158115151415610487576040517f08c379a000000000000000000000000000000000000000000000000000000000815260040161047e90611367565b60405180910390fd5b505050565b60006104988383610dc6565b90506000151581151514156104e2576040517f08c379a00000000000000000000000000000000000000000000000000000000081526004016104d990611367565b60405180910390fd5b505050565b60008060026000015490508091505090565b600061050482610f33565b905060001515811515141561054e576040517f08c379a000000000000000000000000000000000000000000000000000000000815260040161054590611367565b60405180910390fd5b5050565b6000803390506000600460008373ffffffffffffffffffffffffffffffffffffffff1673ffffffffffffffffffffffffffffffffffffffff16815260200190815260200160002060008673ffffffffffffffffffffffffffffffffffffffff1673ffffffffffffffffffffffffffffffffffffffff168152602001908152602001600020600001549050600081856105ea91906113b6565b90507f01722f0e92ffd761d4a842cffdd36fe3adb6091e41732a4e714250176b7d8d2283878360405161061f939291906113f9565b60405180910390a180600460008573ffffffffffffffffffffffffffffffffffffffff1673ffffffffffffffffffffffffffffffffffffffff16815260200190815260200160002060008873ffffffffffffffffffffffffffffffffffffffff1673ffffffffffffffffffffffffffffffffffffffff16815260200190815260200160002060000160008282546106b69190611430565b925050819055506001935050505092915050565b6000803390506000600360008773ffffffffffffffffffffffffffffffffffffffff1673ffffffffffffffffffffffffffffffffffffffff1681526020019081526020016000206000015490506000600460008873ffffffffffffffffffffffffffffffffffffffff1673ffffffffffffffffffffffffffffffffffffffff16815260200190815260200160002060008473ffffffffffffffffffffffffffffffffffffffff1673ffffffffffffffffffffffffffffffffffffffff1681526020019081526020016000206000015490508482101580156107ab5750848110155b80156107bd57506107bc8787611055565b5b1561098e577f5f7542858008eeb041631f30e6109ae94b83a58e9a58261dd2c42c508850f939878785886040516107f79493929190611486565b60405180910390a17fddf252ad1be2c89b69c2b068fc378daa952ba7f163c4a11628f55a4df523b3ef878787604051610832939291906113f9565b60405180910390a184600360008973ffffffffffffffffffffffffffffffffffffffff1673ffffffffffffffffffffffffffffffffffffffff168152602001908152602001600020600001600082825461088c91906113b6565b9250508190555084600360008873ffffffffffffffffffffffffffffffffffffffff1673ffffffffffffffffffffffffffffffffffffffff16815260200190815260200160002060000160008282546108e59190611430565b9250508190555084600460008973ffffffffffffffffffffffffffffffffffffffff1673ffffffffffffffffffffffffffffffffffffffff16815260200190815260200160002060008573ffffffffffffffffffffffffffffffffffffffff1673ffffffffffffffffffffffffffffffffffffffff168152602001908152602001600020600001600082825461097b91906113b6565b9250508190555060019350505050610996565b600093505050505b9392505050565b600080600560000160009054906101000a900473ffffffffffffffffffffffffffffffffffffffff1690503373ffffffffffffffffffffffffffffffffffffffff168173ffffffffffffffffffffffffffffffffffffffff161415610ae957600073ffffffffffffffffffffffffffffffffffffffff168473ffffffffffffffffffffffffffffffffffffffff1614610ae8577f0f6798a560793a54c3bcfe86a93cde1e73087d944c0ea20544137d41213968858484604051610a619291906114cb565b60405180910390a18260026000016000828254610a7e9190611430565b9250508190555082600360008673ffffffffffffffffffffffffffffffffffffffff1673ffffffffffffffffffffffffffffffffffffffff1681526020019081526020016000206000016000828254610ad79190611430565b925050819055506001915050610aef565b5b60009150505b92915050565b600080600560000160009054906101000a900473ffffffffffffffffffffffffffffffffffffffff1690503373ffffffffffffffffffffffffffffffffffffffff168173ffffffffffffffffffffffffffffffffffffffff161415610c0c57604051806020016040528060011515815250600160008573ffffffffffffffffffffffffffffffffffffffff1673ffffffffffffffffffffffffffffffffffffffff16815260200190815260200160002060008201518160000160006101000a81548160ff0219169083151502179055509050507f36e995283d4afed494698eef4affc534306de2b88866118541483a58a6d52360836001604051610bfa92919061150f565b60405180910390a16001915050610c12565b60009150505b919050565b600080600560000160009054906101000a900473ffffffffffffffffffffffffffffffffffffffff1690503373ffffffffffffffffffffffffffffffffffffffff168173ffffffffffffffffffffffffffffffffffffffff161415610dba576000600360008673ffffffffffffffffffffffffffffffffffffffff1673ffffffffffffffffffffffffffffffffffffffff168152602001908152602001600020600001549050600073ffffffffffffffffffffffffffffffffffffffff168573ffffffffffffffffffffffffffffffffffffffff1614158015610cfa5750808411155b15610db8577fcc16f5dbb4873280815c1ee09dbd06736cffcc184412cf7a71a0fdb75d397ca58585604051610d309291906114cb565b60405180910390a183600360008773ffffffffffffffffffffffffffffffffffffffff1673ffffffffffffffffffffffffffffffffffffffff1681526020019081526020016000206000016000828254610d8a91906113b6565b925050819055508360026000016000828254610da691906113b6565b92505081905550600192505050610dc0565b505b60009150505b92915050565b6000803390506000600360008373ffffffffffffffffffffffffffffffffffffffff1673ffffffffffffffffffffffffffffffffffffffff168152602001908152602001600020600001549050808411158015610e295750610e288286611055565b5b15610f26577fddf252ad1be2c89b69c2b068fc378daa952ba7f163c4a11628f55a4df523b3ef828686604051610e61939291906113f9565b60405180910390a183600360008473ffffffffffffffffffffffffffffffffffffffff1673ffffffffffffffffffffffffffffffffffffffff1681526020019081526020016000206000016000828254610ebb91906113b6565b9250508190555083600360008773ffffffffffffffffffffffffffffffffffffffff1673ffffffffffffffffffffffffffffffffffffffff1681526020019081526020016000206000016000828254610f149190611430565b92505081905550600192505050610f2d565b6000925050505b92915050565b600080600560000160009054906101000a900473ffffffffffffffffffffffffffffffffffffffff1690503373ffffffffffffffffffffffffffffffffffffffff168173ffffffffffffffffffffffffffffffffffffffff16141561104a57604051806020016040528060001515815250600160008573ffffffffffffffffffffffffffffffffffffffff1673ffffffffffffffffffffffffffffffffffffffff16815260200190815260200160002060008201518160000160006101000a81548160ff0219169083151502179055509050507f36e995283d4afed494698eef4affc534306de2b88866118541483a58a6d5236083600060405161103892919061150f565b60405180910390a16001915050611050565b60009150505b919050565b60008060008001549050600042905081811061107657600192505050611141565b600160008573ffffffffffffffffffffffffffffffffffffffff1673ffffffffffffffffffffffffffffffffffffffff16815260200190815260200160002060000160009054906101000a900460ff16151560011515141561113a57600160008673ffffffffffffffffffffffffffffffffffffffff1673ffffffffffffffffffffffffffffffffffffffff16815260200190815260200160002060000160009054906101000a900460ff16151560011515141561113957600192505050611141565b5b6000925050505b92915050565b600080fd5b600073ffffffffffffffffffffffffffffffffffffffff82169050919050565b60006111778261114c565b9050919050565b6111878161116c565b811461119257600080fd5b50565b6000813590506111a48161117e565b92915050565b6000819050919050565b6111bd816111aa565b81146111c857600080fd5b50565b6000813590506111da816111b4565b92915050565b600080604083850312156111f7576111f6611147565b5b600061120585828601611195565b9250506020611216858286016111cb565b9150509250929050565b6000806040838503121561123757611236611147565b5b600061124585828601611195565b925050602061125685828601611195565b9150509250929050565b611269816111aa565b82525050565b60006020820190506112846000830184611260565b92915050565b6000806000606084860312156112a3576112a2611147565b5b60006112b186828701611195565b93505060206112c286828701611195565b92505060406112d3868287016111cb565b9150509250925092565b6000602082840312156112f3576112f2611147565b5b600061130184828501611195565b91505092915050565b600082825260208201905092915050565b7f52756c6520636f6e646974696f6e206661696c65640000000000000000000000600082015250565b600061135160158361130a565b915061135c8261131b565b602082019050919050565b6000602082019050818103600083015261138081611344565b9050919050565b7f4e487b7100000000000000000000000000000000000000000000000000000000600052601160045260246000fd5b60006113c1826111aa565b91506113cc836111aa565b9250828210156113df576113de611387565b5b828203905092915050565b6113f38161116c565b82525050565b600060608201905061140e60008301866113ea565b61141b60208301856113ea565b6114286040830184611260565b949350505050565b600061143b826111aa565b9150611446836111aa565b9250827fffffffffffffffffffffffffffffffffffffffffffffffffffffffffffffffff0382111561147b5761147a611387565b5b828201905092915050565b600060808201905061149b60008301876113ea565b6114a860208301866113ea565b6114b560408301856113ea565b6114c26060830184611260565b95945050505050565b60006040820190506114e060008301856113ea565b6114ed6020830184611260565b9392505050565b60008115159050919050565b611509816114f4565b82525050565b600060408201905061152460008301856113ea565b6115316020830184611500565b939250505056fea264697066735822122033e24247953f20e46cf1901ac8f6cf46de683fea77432579661a799b73dea90964736f6c634300080c0033",
  "immutableReferences": {},
  "source": "contract Theta {\n  struct UnlockTimeTuple {\n    uint t;\n  }\n  struct OwnerTuple {\n    address p;\n  }\n  struct TotalSupplyTuple {\n    uint n;\n  }\n  struct AllowanceTuple {\n    uint n;\n  }\n  struct PrecirculatedTuple {\n    bool b;\n  }\n  struct BalanceOfTuple {\n    uint n;\n  }\n  UnlockTimeTuple unlockTime;\n  mapping(address=>PrecirculatedTuple) precirculated;\n  TotalSupplyTuple totalSupply;\n  mapping(address=>BalanceOfTuple) balanceOf;\n  mapping(address=>mapping(address=>AllowanceTuple)) allowance;\n  OwnerTuple owner;\n  event TransferFrom(address from,address to,address spender,uint amount);\n  event Burn(address p,uint amount);\n  event Mint(address p,uint amount);\n  event Precirculated(address p,bool b);\n  event IncreaseAllowance(address p,address s,uint n);\n  event Transfer(address from,address to,uint amount);\n  constructor(uint t) public {\n    updateTotalSupplyOnInsertConstructor_r3();\n    updateUnlockTimeOnInsertConstructor_r7(t);\n    updateOwnerOnInsertConstructor_r2();\n    updateTotalBalancesOnInsertConstructor_r20();\n  }\n  function transfer(address to,uint amount) public    {\n      bool r25 = updateTransferOnInsertRecv_transfer_r25(to,amount);\n      if(r25==false) {\n        revert(\"Rule condition failed\");\n      }\n  }\n  function disallowPrecirculation(address p) public    {\n      bool r26 = updatePrecirculatedOnInsertRecv_disallowPrecirculation_r26(p);\n      if(r26==false) {\n        revert(\"Rule condition failed\");\n      }\n  }\n  function approve(address s,uint n) public    {\n      bool r24 = updateIncreaseAllowanceOnInsertRecv_approve_r24(s,n);\n      if(r24==false) {\n        revert(\"Rule condition failed\");\n      }\n  }\n  function allowPrecirculation(address p) public    {\n      bool r19 = updatePrecirculatedOnInsertRecv_allowPrecirculation_r19(p);\n      if(r19==false) {\n        revert(\"Rule condition failed\");\n      }\n  }\n  function getTotalSupply() public view  returns (uint) {\n      uint n = totalSupply.n;\n      return n;\n  }\n  function transferFrom(address from,address to,uint amount) public    {\n      bool r10 = updateTransferFromOnInsertRecv_transferFrom_r10(from,to,amount);\n      if(r10==false) {\n        revert(\"Rule condition failed\");\n      }\n  }\n  function getAllowance(address p,address s) public view  returns (uint) {\n      uint n = allowance[p][s].n;\n      return n;\n  }\n  function getBalanceOf(address p) public view  returns (uint) {\n      uint n = balanceOf[p].n;\n      return n;\n  }\n  function burn(address p,uint amount) public    {\n      bool r8 = updateBurnOnInsertRecv_burn_r8(p,amount);\n      if(r8==false) {\n        revert(\"Rule condition failed\");\n      }\n  }\n  function mint(address p,uint amount) public    {\n      bool r22 = updateMintOnInsertRecv_mint_r22(p,amount);\n      if(r22==false) {\n        revert(\"Rule condition failed\");\n      }\n  }\n  function updateUnlockTimeOnInsertConstructor_r7(uint t) private    {\n      unlockTime = UnlockTimeTuple(t);\n  }\n  function updateuintByint(uint x,int delta) private   returns (uint) {\n      int convertedX = int(x);\n      int value = convertedX+delta;\n      uint convertedValue = uint(value);\n      return convertedValue;\n  }\n  function updateOwnerOnInsertConstructor_r2() private    {\n      address s = msg.sender;\n      owner = OwnerTuple(s);\n  }\n  function updateIncreaseAllowanceOnInsertRecv_approve_r24(address s,uint n) private   returns (bool) {\n      address o = msg.sender;\n      uint m = allowance[o][s].n;\n      uint d = n-m;\n      emit IncreaseAllowance(o,s,d);\n      allowance[o][s].n += d;\n      return true;\n      return false;\n  }\n  function updateMintOnInsertRecv_mint_r22(address p,uint n) private   returns (bool) {\n      address s = owner.p;\n      if(s==msg.sender) {\n        if(p!=address(0)) {\n          emit Mint(p,n);\n          totalSupply.n += n;\n          balanceOf[p].n += n;\n          return true;\n        }\n      }\n      return false;\n  }\n  function updateBurnOnInsertRecv_burn_r8(address p,uint n) private   returns (bool) {\n      address s = owner.p;\n      if(s==msg.sender) {\n        uint m = balanceOf[p].n;\n        if(p!=address(0) && n<=m) {\n          emit Burn(p,n);\n          balanceOf[p].n -= n;\n          totalSupply.n -= n;\n          return true;\n        }\n      }\n      return false;\n  }\n  function updatePrecirculatedOnInsertRecv_disallowPrecirculation_r26(address p) private   returns (bool) {\n      address s = owner.p;\n      if(s==msg.sender) {\n        precirculated[p] = PrecirculatedTuple(false);\n        emit Precirculated(p,false);\n        return true;\n      }\n      return false;\n  }\n  function updateTransferFromOnInsertRecv_transferFrom_r10(address o,address r,uint n) private   returns (bool) {\n      address s = msg.sender;\n      uint m = balanceOf[o].n;\n      uint k = allowance[o][s].n;\n      if(m>=n && k>=n && canTransfer(o,r)) {\n        emit TransferFrom(o,r,s,n);\n        emit Transfer(o,r,n);\n        balanceOf[o].n -= n;\n        balanceOf[r].n += n;\n        allowance[o][s].n -= n;\n        return true;\n      }\n      return false;\n  }\n  function updatePrecirculatedOnInsertRecv_allowPrecirculation_r19(address p) private   returns (bool) {\n      address s = owner.p;\n      if(s==msg.sender) {\n        precirculated[p] = PrecirculatedTuple(true);\n        emit Precirculated(p,true);\n        return true;\n      }\n      return false;\n  }\n  function updateTransferOnInsertRecv_transfer_r25(address r,uint n) private   returns (bool) {\n      address s = msg.sender;\n      uint m = balanceOf[s].n;\n      if(n<=m && canTransfer(s,r)) {\n        emit Transfer(s,r,n);\n        balanceOf[s].n -= n;\n        balanceOf[r].n += n;\n        return true;\n      }\n      return false;\n  }\n  function canTransfer(address p,address q) private view  returns (bool) {\n      uint ut = unlockTime.t;\n      uint t = block.timestamp;\n      if(t>=ut) {\n        return true;\n      }\n      if(true==precirculated[q].b) {\n        if(true==precirculated[p].b) {\n          return true;\n        }\n      }\n      return false;\n  }\n  function updateTotalBalancesOnInsertConstructor_r20() private    {\n      // Empty()\n  }\n  function updateTotalSupplyOnInsertConstructor_r3() private    {\n      totalSupply = TotalSupplyTuple(0);\n  }\n}",
  "sourcePath": "/Users/ljy/Desktop/PENN/2023_summer/boon_dsc/smart-contracts/optimizations/optimized/contracts/theta.sol",
  "compiler": {
    "name": "solc",
    "version": "0.8.12+commit.f00d7308.Emscripten.clang"
  },
  "schemaVersion": "3.4.13",
  "updatedAt": "2023-07-25T15:39:16.044Z",
  "devdoc": {
    "kind": "dev",
    "methods": {},
    "version": 1
  },
  "userdoc": {
    "kind": "user",
    "methods": {},
    "version": 1
  }
}