{
  "contractName": "Wbtc",
  "abi": [
    {
      "inputs": [],
      "stateMutability": "nonpayable",
      "type": "constructor"
    },
    {
      "anonymous": false,
      "inputs": [
        {
          "indexed": false,
          "internalType": "address",
          "name": "p",
          "type": "address"
        },
        {
          "indexed": false,
          "internalType": "uint256",
          "name": "amount",
          "type": "uint256"
        }
      ],
      "name": "Burn",
      "type": "event"
    },
    {
      "anonymous": false,
      "inputs": [
        {
          "indexed": false,
          "internalType": "address",
          "name": "p",
          "type": "address"
        }
      ],
      "name": "ClaimOwnership",
      "type": "event"
    },
    {
      "anonymous": false,
      "inputs": [
        {
          "indexed": false,
          "internalType": "address",
          "name": "p",
          "type": "address"
        },
        {
          "indexed": false,
          "internalType": "address",
          "name": "s",
          "type": "address"
        },
        {
          "indexed": false,
          "internalType": "uint256",
          "name": "n",
          "type": "uint256"
        }
      ],
      "name": "DecreaseAllowance",
      "type": "event"
    },
    {
      "anonymous": false,
      "inputs": [
        {
          "indexed": false,
          "internalType": "address",
          "name": "p",
          "type": "address"
        },
        {
          "indexed": false,
          "internalType": "address",
          "name": "s",
          "type": "address"
        },
        {
          "indexed": false,
          "internalType": "uint256",
          "name": "n",
          "type": "uint256"
        }
      ],
      "name": "IncreaseAllowance",
      "type": "event"
    },
    {
      "anonymous": false,
      "inputs": [
        {
          "indexed": false,
          "internalType": "address",
          "name": "p",
          "type": "address"
        },
        {
          "indexed": false,
          "internalType": "uint256",
          "name": "amount",
          "type": "uint256"
        }
      ],
      "name": "Mint",
      "type": "event"
    },
    {
      "anonymous": false,
      "inputs": [
        {
          "indexed": false,
          "internalType": "bool",
          "name": "b",
          "type": "bool"
        }
      ],
      "name": "Paused",
      "type": "event"
    },
    {
      "anonymous": false,
      "inputs": [
        {
          "indexed": false,
          "internalType": "address",
          "name": "p",
          "type": "address"
        }
      ],
      "name": "PendingOwner",
      "type": "event"
    },
    {
      "anonymous": false,
      "inputs": [
        {
          "indexed": false,
          "internalType": "address",
          "name": "t",
          "type": "address"
        },
        {
          "indexed": false,
          "internalType": "address",
          "name": "s",
          "type": "address"
        },
        {
          "indexed": false,
          "internalType": "uint256",
          "name": "n",
          "type": "uint256"
        }
      ],
      "name": "ReclaimToken",
      "type": "event"
    },
    {
      "anonymous": false,
      "inputs": [
        {
          "indexed": false,
          "internalType": "address",
          "name": "from",
          "type": "address"
        },
        {
          "indexed": false,
          "internalType": "address",
          "name": "to",
          "type": "address"
        },
        {
          "indexed": false,
          "internalType": "uint256",
          "name": "amount",
          "type": "uint256"
        }
      ],
      "name": "Transfer",
      "type": "event"
    },
    {
      "anonymous": false,
      "inputs": [
        {
          "indexed": false,
          "internalType": "address",
          "name": "from",
          "type": "address"
        },
        {
          "indexed": false,
          "internalType": "address",
          "name": "to",
          "type": "address"
        },
        {
          "indexed": false,
          "internalType": "address",
          "name": "spender",
          "type": "address"
        },
        {
          "indexed": false,
          "internalType": "uint256",
          "name": "amount",
          "type": "uint256"
        }
      ],
      "name": "TransferFrom",
      "type": "event"
    },
    {
      "inputs": [
        {
          "internalType": "address",
          "name": "from",
          "type": "address"
        },
        {
          "internalType": "address",
          "name": "to",
          "type": "address"
        },
        {
          "internalType": "uint256",
          "name": "amount",
          "type": "uint256"
        }
      ],
      "name": "transferFrom",
      "outputs": [],
      "stateMutability": "nonpayable",
      "type": "function"
    },
    {
      "inputs": [
        {
          "internalType": "address",
          "name": "p",
          "type": "address"
        },
        {
          "internalType": "uint256",
          "name": "amount",
          "type": "uint256"
        }
      ],
      "name": "mint",
      "outputs": [],
      "stateMutability": "nonpayable",
      "type": "function"
    },
    {
      "inputs": [
        {
          "internalType": "address",
          "name": "p",
          "type": "address"
        },
        {
          "internalType": "address",
          "name": "s",
          "type": "address"
        }
      ],
      "name": "getAllowance",
      "outputs": [
        {
          "internalType": "uint256",
          "name": "",
          "type": "uint256"
        }
      ],
      "stateMutability": "view",
      "type": "function"
    },
    {
      "inputs": [],
      "name": "pause",
      "outputs": [],
      "stateMutability": "nonpayable",
      "type": "function"
    },
    {
      "inputs": [],
      "name": "getTotalSupply",
      "outputs": [
        {
          "internalType": "uint256",
          "name": "",
          "type": "uint256"
        }
      ],
      "stateMutability": "view",
      "type": "function"
    },
    {
      "inputs": [
        {
          "internalType": "address",
          "name": "to",
          "type": "address"
        },
        {
          "internalType": "uint256",
          "name": "amount",
          "type": "uint256"
        }
      ],
      "name": "transfer",
      "outputs": [],
      "stateMutability": "nonpayable",
      "type": "function"
    },
    {
      "inputs": [],
      "name": "reclaimToken",
      "outputs": [],
      "stateMutability": "nonpayable",
      "type": "function"
    },
    {
      "inputs": [],
      "name": "unpause",
      "outputs": [],
      "stateMutability": "nonpayable",
      "type": "function"
    },
    {
      "inputs": [
        {
          "internalType": "address",
          "name": "s",
          "type": "address"
        },
        {
          "internalType": "uint256",
          "name": "n",
          "type": "uint256"
        }
      ],
      "name": "approve",
      "outputs": [],
      "stateMutability": "nonpayable",
      "type": "function"
    },
    {
      "inputs": [
        {
          "internalType": "address",
          "name": "p",
          "type": "address"
        }
      ],
      "name": "getBalanceOf",
      "outputs": [
        {
          "internalType": "uint256",
          "name": "",
          "type": "uint256"
        }
      ],
      "stateMutability": "view",
      "type": "function"
    },
    {
      "inputs": [],
      "name": "claimOwnership",
      "outputs": [],
      "stateMutability": "nonpayable",
      "type": "function"
    },
    {
      "inputs": [
        {
          "internalType": "uint256",
          "name": "amount",
          "type": "uint256"
        }
      ],
      "name": "burn",
      "outputs": [],
      "stateMutability": "nonpayable",
      "type": "function"
    },
    {
      "inputs": [
        {
          "internalType": "address",
          "name": "p",
          "type": "address"
        }
      ],
      "name": "transferOwnership",
      "outputs": [],
      "stateMutability": "nonpayable",
      "type": "function"
    }
  ],
  "bytecode": "0x608060405234801561001057600080fd5b5061001f61004060201b60201c565b61002d6100b960201b60201c565b61003b6100da60201b60201c565b6100dc565b600033905060405180602001604052808273ffffffffffffffffffffffffffffffffffffffff16815250600360008201518160000160006101000a81548173ffffffffffffffffffffffffffffffffffffffff021916908373ffffffffffffffffffffffffffffffffffffffff16021790555090505050565b60405180602001604052806000815250600160008201518160000155905050565b565b61197a806100eb6000396000f3fe608060405234801561001057600080fd5b50600436106100cf5760003560e01c80634e71e0c81161008c578063a9059cbb11610066578063a9059cbb146101c2578063c4e41b22146101de578063f2fde38b146101fc578063fff2813714610218576100cf565b80634e71e0c81461017e5780638456cb59146101885780639b96eece14610192576100cf565b8063095ea7b3146100d45780630af4187d146100f057806323b872dd146101205780633f4ba83a1461013c57806340c10f191461014657806342966c6814610162575b600080fd5b6100ee60048036038101906100e991906115b2565b610222565b005b61010a600480360381019061010591906115f2565b61027d565b6040516101179190611641565b60405180910390f35b61013a6004803603810190610135919061165c565b610327565b005b610144610384565b005b610160600480360381019061015b91906115b2565b6103db565b005b61017c600480360381019061017791906116af565b610436565b005b61018661048f565b005b6101906104e6565b005b6101ac60048036038101906101a791906116dc565b61053d565b6040516101b99190611641565b60405180910390f35b6101dc60048036038101906101d791906115b2565b6105a9565b005b6101e6610604565b6040516101f39190611641565b60405180910390f35b610216600480360381019061021191906116dc565b610616565b005b61022061066f565b005b600061022e83836106c6565b9050600015158115151415610278576040517f08c379a000000000000000000000000000000000000000000000000000000000815260040161026f90611766565b60405180910390fd5b505050565b600080600460008573ffffffffffffffffffffffffffffffffffffffff1673ffffffffffffffffffffffffffffffffffffffff16815260200190815260200160002060008473ffffffffffffffffffffffffffffffffffffffff1673ffffffffffffffffffffffffffffffffffffffff1681526020019081526020016000206040518060200160405290816000820154815250509050600081600001519050809250505092915050565b600061033484848461083e565b905060001515811515141561037e576040517f08c379a000000000000000000000000000000000000000000000000000000000815260040161037590611766565b60405180910390fd5b50505050565b600061038e610ae4565b90506000151581151514156103d8576040517f08c379a00000000000000000000000000000000000000000000000000000000081526004016103cf90611766565b60405180910390fd5b50565b60006103e78383610bc5565b9050600015158115151415610431576040517f08c379a000000000000000000000000000000000000000000000000000000000815260040161042890611766565b60405180910390fd5b505050565b600061044182610d1d565b905060001515811515141561048b576040517f08c379a000000000000000000000000000000000000000000000000000000000815260040161048290611766565b60405180910390fd5b5050565b6000610499610e36565b90506000151581151514156104e3576040517f08c379a00000000000000000000000000000000000000000000000000000000081526004016104da90611766565b60405180910390fd5b50565b60006104f0610fc0565b905060001515811515141561053a576040517f08c379a000000000000000000000000000000000000000000000000000000000815260040161053190611766565b60405180910390fd5b50565b600080600260008473ffffffffffffffffffffffffffffffffffffffff1673ffffffffffffffffffffffffffffffffffffffff16815260200190815260200160002060405180602001604052908160008201548152505090506000816000015190508092505050919050565b60006105b583836110a1565b90506000151581151514156105ff576040517f08c379a00000000000000000000000000000000000000000000000000000000081526004016105f690611766565b60405180910390fd5b505050565b60008060016000015490508091505090565b60006106218261121b565b905060001515811515141561066b576040517f08c379a000000000000000000000000000000000000000000000000000000000815260040161066290611766565b60405180910390fd5b5050565b6000610679611336565b90506000151581151514156106c3576040517f08c379a00000000000000000000000000000000000000000000000000000000081526004016106ba90611766565b60405180910390fd5b50565b6000803390506000600460008373ffffffffffffffffffffffffffffffffffffffff1673ffffffffffffffffffffffffffffffffffffffff16815260200190815260200160002060008673ffffffffffffffffffffffffffffffffffffffff1673ffffffffffffffffffffffffffffffffffffffff1681526020019081526020016000206000015490506000818561075e91906117b5565b90507f01722f0e92ffd761d4a842cffdd36fe3adb6091e41732a4e714250176b7d8d22838783604051610793939291906117f8565b60405180910390a180600460008573ffffffffffffffffffffffffffffffffffffffff1673ffffffffffffffffffffffffffffffffffffffff16815260200190815260200160002060008873ffffffffffffffffffffffffffffffffffffffff1673ffffffffffffffffffffffffffffffffffffffff168152602001908152602001600020600001600082825461082a919061182f565b925050819055506001935050505092915050565b600080339050600560000160009054906101000a900460ff161515600015151415610ad7576000600260008773ffffffffffffffffffffffffffffffffffffffff1673ffffffffffffffffffffffffffffffffffffffff1681526020019081526020016000206000015490506000600460008873ffffffffffffffffffffffffffffffffffffffff1673ffffffffffffffffffffffffffffffffffffffff16815260200190815260200160002060008473ffffffffffffffffffffffffffffffffffffffff1673ffffffffffffffffffffffffffffffffffffffff16815260200190815260200160002060000154905084821015801561093e5750848110155b15610ad4577f5f7542858008eeb041631f30e6109ae94b83a58e9a58261dd2c42c508850f939878785886040516109789493929190611885565b60405180910390a184600260008973ffffffffffffffffffffffffffffffffffffffff1673ffffffffffffffffffffffffffffffffffffffff16815260200190815260200160002060000160008282546109d291906117b5565b9250508190555084600260008873ffffffffffffffffffffffffffffffffffffffff1673ffffffffffffffffffffffffffffffffffffffff1681526020019081526020016000206000016000828254610a2b919061182f565b9250508190555084600460008973ffffffffffffffffffffffffffffffffffffffff1673ffffffffffffffffffffffffffffffffffffffff16815260200190815260200160002060008573ffffffffffffffffffffffffffffffffffffffff1673ffffffffffffffffffffffffffffffffffffffff1681526020019081526020016000206000016000828254610ac191906117b5565b9250508190555060019350505050610add565b50505b60009150505b9392505050565b600080600360000160009054906101000a900473ffffffffffffffffffffffffffffffffffffffff1690503373ffffffffffffffffffffffffffffffffffffffff168173ffffffffffffffffffffffffffffffffffffffff161415610bbc57604051806020016040528060001515815250600560008201518160000160006101000a81548160ff0219169083151502179055509050507f0e2fb031ee032dc02d8011dc50b816eb450cf856abd8261680dac74f72165bd26000604051610baa91906118e5565b60405180910390a16001915050610bc2565b60009150505b90565b600080600360000160009054906101000a900473ffffffffffffffffffffffffffffffffffffffff1690503373ffffffffffffffffffffffffffffffffffffffff168173ffffffffffffffffffffffffffffffffffffffff161415610d1157600073ffffffffffffffffffffffffffffffffffffffff168473ffffffffffffffffffffffffffffffffffffffff1614610d10577f0f6798a560793a54c3bcfe86a93cde1e73087d944c0ea20544137d41213968858484604051610c89929190611900565b60405180910390a18260016000016000828254610ca6919061182f565b9250508190555082600260008673ffffffffffffffffffffffffffffffffffffffff1673ffffffffffffffffffffffffffffffffffffffff1681526020019081526020016000206000016000828254610cff919061182f565b925050819055506001915050610d17565b5b60009150505b92915050565b6000803390506000600260008373ffffffffffffffffffffffffffffffffffffffff1673ffffffffffffffffffffffffffffffffffffffff168152602001908152602001600020600001549050808411610e2a577fcc16f5dbb4873280815c1ee09dbd06736cffcc184412cf7a71a0fdb75d397ca58285604051610da2929190611900565b60405180910390a183600260008473ffffffffffffffffffffffffffffffffffffffff1673ffffffffffffffffffffffffffffffffffffffff1681526020019081526020016000206000016000828254610dfc91906117b5565b925050819055508360016000016000828254610e1891906117b5565b92505081905550600192505050610e31565b6000925050505b919050565b6000806000800160009054906101000a900473ffffffffffffffffffffffffffffffffffffffff1690503373ffffffffffffffffffffffffffffffffffffffff168173ffffffffffffffffffffffffffffffffffffffff161415610fb7577f85a8c8100c1d48466310240af79644f50cdae7d09cb4820d60dfc5b2462f0fd081604051610ec39190611929565b60405180910390a16040518060200160405280600073ffffffffffffffffffffffffffffffffffffffff168152506000808201518160000160006101000a81548173ffffffffffffffffffffffffffffffffffffffff021916908373ffffffffffffffffffffffffffffffffffffffff16021790555090505060405180602001604052808273ffffffffffffffffffffffffffffffffffffffff16815250600360008201518160000160006101000a81548173ffffffffffffffffffffffffffffffffffffffff021916908373ffffffffffffffffffffffffffffffffffffffff1602179055509050506001915050610fbd565b60009150505b90565b600080600360000160009054906101000a900473ffffffffffffffffffffffffffffffffffffffff1690503373ffffffffffffffffffffffffffffffffffffffff168173ffffffffffffffffffffffffffffffffffffffff16141561109857604051806020016040528060011515815250600560008201518160000160006101000a81548160ff0219169083151502179055509050507f0e2fb031ee032dc02d8011dc50b816eb450cf856abd8261680dac74f72165bd2600160405161108691906118e5565b60405180910390a1600191505061109e565b60009150505b90565b6000600560000160009054906101000a900460ff1615156000151514156112105760003390506000600260008373ffffffffffffffffffffffffffffffffffffffff1673ffffffffffffffffffffffffffffffffffffffff16815260200190815260200160002060000154905080841161120d577fddf252ad1be2c89b69c2b068fc378daa952ba7f163c4a11628f55a4df523b3ef828686604051611148939291906117f8565b60405180910390a183600260008473ffffffffffffffffffffffffffffffffffffffff1673ffffffffffffffffffffffffffffffffffffffff16815260200190815260200160002060000160008282546111a291906117b5565b9250508190555083600260008773ffffffffffffffffffffffffffffffffffffffff1673ffffffffffffffffffffffffffffffffffffffff16815260200190815260200160002060000160008282546111fb919061182f565b92505081905550600192505050611215565b50505b600090505b92915050565b600080600360000160009054906101000a900473ffffffffffffffffffffffffffffffffffffffff1690503373ffffffffffffffffffffffffffffffffffffffff168173ffffffffffffffffffffffffffffffffffffffff16141561132b5760405180602001604052808473ffffffffffffffffffffffffffffffffffffffff168152506000808201518160000160006101000a81548173ffffffffffffffffffffffffffffffffffffffff021916908373ffffffffffffffffffffffffffffffffffffffff1602179055509050507f4306745d208e8707535ce9418abeb2b0a7136ecb794c23956c829fff4fc18f89836040516113199190611929565b60405180910390a16001915050611331565b60009150505b919050565b600080339050600360000160009054906101000a900473ffffffffffffffffffffffffffffffffffffffff1673ffffffffffffffffffffffffffffffffffffffff168173ffffffffffffffffffffffffffffffffffffffff1614156115105760003090506000600260008373ffffffffffffffffffffffffffffffffffffffff1673ffffffffffffffffffffffffffffffffffffffff1681526020019081526020016000206000015490507fc016730911d66378b481a7db6a27b66ee03f202be57a4ba7f7a839b6f2f45f3b828483604051611414939291906117f8565b60405180910390a180600260008473ffffffffffffffffffffffffffffffffffffffff1673ffffffffffffffffffffffffffffffffffffffff168152602001908152602001600020600001600082825461146e91906117b5565b9250508190555080600260008573ffffffffffffffffffffffffffffffffffffffff1673ffffffffffffffffffffffffffffffffffffffff16815260200190815260200160002060000160008282546114c7919061182f565b925050819055508273ffffffffffffffffffffffffffffffffffffffff166108fc829081150290604051600060405180830381858888f193505050505060019350505050611516565b60009150505b90565b600080fd5b600073ffffffffffffffffffffffffffffffffffffffff82169050919050565b60006115498261151e565b9050919050565b6115598161153e565b811461156457600080fd5b50565b60008135905061157681611550565b92915050565b6000819050919050565b61158f8161157c565b811461159a57600080fd5b50565b6000813590506115ac81611586565b92915050565b600080604083850312156115c9576115c8611519565b5b60006115d785828601611567565b92505060206115e88582860161159d565b9150509250929050565b6000806040838503121561160957611608611519565b5b600061161785828601611567565b925050602061162885828601611567565b9150509250929050565b61163b8161157c565b82525050565b60006020820190506116566000830184611632565b92915050565b60008060006060848603121561167557611674611519565b5b600061168386828701611567565b935050602061169486828701611567565b92505060406116a58682870161159d565b9150509250925092565b6000602082840312156116c5576116c4611519565b5b60006116d38482850161159d565b91505092915050565b6000602082840312156116f2576116f1611519565b5b600061170084828501611567565b91505092915050565b600082825260208201905092915050565b7f52756c6520636f6e646974696f6e206661696c65640000000000000000000000600082015250565b6000611750601583611709565b915061175b8261171a565b602082019050919050565b6000602082019050818103600083015261177f81611743565b9050919050565b7f4e487b7100000000000000000000000000000000000000000000000000000000600052601160045260246000fd5b60006117c08261157c565b91506117cb8361157c565b9250828210156117de576117dd611786565b5b828203905092915050565b6117f28161153e565b82525050565b600060608201905061180d60008301866117e9565b61181a60208301856117e9565b6118276040830184611632565b949350505050565b600061183a8261157c565b91506118458361157c565b9250827fffffffffffffffffffffffffffffffffffffffffffffffffffffffffffffffff0382111561187a57611879611786565b5b828201905092915050565b600060808201905061189a60008301876117e9565b6118a760208301866117e9565b6118b460408301856117e9565b6118c16060830184611632565b95945050505050565b60008115159050919050565b6118df816118ca565b82525050565b60006020820190506118fa60008301846118d6565b92915050565b600060408201905061191560008301856117e9565b6119226020830184611632565b9392505050565b600060208201905061193e60008301846117e9565b9291505056fea26469706673582212207dfe4f57869ab97c36d2ace77f6c93ea7f9bf6983f5bbfcca2935c4540989e2064736f6c634300080c0033",
  "immutableReferences": {},
  "source": "contract Wbtc {\n  struct OwnerTuple {\n    address p;\n  }\n  struct PendingOwnerTuple {\n    address p;\n  }\n  struct TotalSupplyTuple {\n    uint n;\n  }\n  struct BalanceOfTuple {\n    uint n;\n  }\n  struct AllowanceTuple {\n    uint n;\n  }\n  struct PausedTuple {\n    bool b;\n  }\n  PendingOwnerTuple pendingOwner;\n  TotalSupplyTuple totalSupply;\n  mapping(address=>BalanceOfTuple) balanceOf;\n  OwnerTuple owner;\n  mapping(address=>mapping(address=>AllowanceTuple)) allowance;\n  PausedTuple paused;\n  event Burn(address p,uint amount);\n  event ReclaimToken(address t,address s,uint n);\n  event Mint(address p,uint amount);\n  event PendingOwner(address p);\n  event ClaimOwnership(address p);\n  event DecreaseAllowance(address p,address s,uint n);\n  event IncreaseAllowance(address p,address s,uint n);\n  event Transfer(address from,address to,uint amount);\n  event Paused(bool b);\n  event TransferFrom(address from,address to,address spender,uint amount);\n  constructor() public {\n    updateOwnerOnInsertConstructor_r9();\n    updateTotalSupplyOnInsertConstructor_r14();\n    updateTotalBalancesOnInsertConstructor_r33();\n  }\n  function transferFrom(address from,address to,uint amount) public    {\n      bool r12 = updateTransferFromOnInsertRecv_transferFrom_r12(from,to,amount);\n      if(r12==false) {\n        revert(\"Rule condition failed\");\n      }\n  }\n  function mint(address p,uint amount) public    {\n      bool r28 = updateMintOnInsertRecv_mint_r28(p,amount);\n      if(r28==false) {\n        revert(\"Rule condition failed\");\n      }\n  }\n  function getAllowance(address p,address s) public view  returns (uint) {\n      AllowanceTuple memory allowanceTuple = allowance[p][s];\n      uint n = allowanceTuple.n;\n      return n;\n  }\n  function pause() public    {\n      bool r13 = updatePausedOnInsertRecv_pause_r13();\n      if(r13==false) {\n        revert(\"Rule condition failed\");\n      }\n  }\n  function getTotalSupply() public view  returns (uint) {\n      uint n = totalSupply.n;\n      return n;\n  }\n  function transfer(address to,uint amount) public    {\n      bool r3 = updateTransferOnInsertRecv_transfer_r3(to,amount);\n      if(r3==false) {\n        revert(\"Rule condition failed\");\n      }\n  }\n  function reclaimToken() public    {\n      bool r6 = updateReclaimTokenOnInsertRecv_reclaimToken_r6();\n      if(r6==false) {\n        revert(\"Rule condition failed\");\n      }\n  }\n  function unpause() public    {\n      bool r27 = updatePausedOnInsertRecv_unpause_r27();\n      if(r27==false) {\n        revert(\"Rule condition failed\");\n      }\n  }\n  function approve(address s,uint n) public    {\n      bool r31 = updateIncreaseAllowanceOnInsertRecv_approve_r31(s,n);\n      if(r31==false) {\n        revert(\"Rule condition failed\");\n      }\n  }\n  function getBalanceOf(address p) public view  returns (uint) {\n      BalanceOfTuple memory balanceOfTuple = balanceOf[p];\n      uint n = balanceOfTuple.n;\n      return n;\n  }\n  function claimOwnership() public    {\n      bool r11 = updateClaimOwnershipOnInsertRecv_claimOwnership_r11();\n      if(r11==false) {\n        revert(\"Rule condition failed\");\n      }\n  }\n  function burn(uint amount) public    {\n      bool r15 = updateBurnOnInsertRecv_burn_r15(amount);\n      if(r15==false) {\n        revert(\"Rule condition failed\");\n      }\n  }\n  function transferOwnership(address p) public    {\n      bool r0 = updatePendingOwnerOnInsertRecv_transferOwnership_r0(p);\n      if(r0==false) {\n        revert(\"Rule condition failed\");\n      }\n  }\n  function updateTransferFromOnInsertRecv_transferFrom_r12(address o,address r,uint n) private   returns (bool) {\n      address s = msg.sender;\n      if(false==paused.b) {\n        // BalanceOfTuple memory balanceOfTuple = balanceOf[o];\n        // uint m = balanceOfTuple.n;\n        uint m = balanceOf[o].n;\n        // AllowanceTuple memory allowanceTuple = allowance[o][s];\n        // uint k = allowanceTuple.n;\n        uint k = allowance[o][s].n;\n        if(m>=n && k>=n) {\n          emit TransferFrom(o,r,s,n);\n          // emit Transfer(o,r,n);\n          balanceOf[o].n -= n;\n          balanceOf[r].n += n;\n          allowance[o][s].n -= n;\n          return true;\n        }\n      }\n      return false;\n  }\n  function updateOwnerOnInsertConstructor_r9() private    {\n      address s = msg.sender;\n      owner = OwnerTuple(s);\n  }\n  function updateIncreaseAllowanceOnInsertRecv_approve_r31(address s,uint n) private   returns (bool) {\n      address o = msg.sender;\n      // AllowanceTuple memory allowanceTuple = allowance[o][s];\n      // uint m = allowanceTuple.n;\n      uint m = allowance[o][s].n;\n      uint d = n-m;\n      emit IncreaseAllowance(o,s,d);\n      allowance[o][s].n += d;\n      return true;\n      return false;\n  }\n  function updateReclaimTokenOnInsertRecv_reclaimToken_r6() private   returns (bool) {\n      address s = msg.sender;\n      if(s==owner.p) {\n        address t = address(this);\n        // BalanceOfTuple memory balanceOfTuple = balanceOf[t];\n        // uint n = balanceOfTuple.n;\n        uint n = balanceOf[t].n;\n        emit ReclaimToken(t,s,n);\n        // emit Transfer(t,s,n);\n        balanceOf[t].n -= n;\n        balanceOf[s].n += n;\n        payable(s).send(n);\n        return true;\n      }\n      return false;\n  }\n  function updateTotalBalancesOnInsertConstructor_r33() private    {\n      // Empty()\n  }\n  function updatePendingOwnerOnInsertRecv_transferOwnership_r0(address p) private   returns (bool) {\n      address s = owner.p;\n      if(s==msg.sender) {\n        pendingOwner = PendingOwnerTuple(p);\n        emit PendingOwner(p);\n        return true;\n      }\n      return false;\n  }\n  function updateBurnOnInsertRecv_burn_r15(uint n) private   returns (bool) {\n      address p = msg.sender;\n      // BalanceOfTuple memory balanceOfTuple = balanceOf[p];\n      // uint m = balanceOfTuple.n;\n      uint m = balanceOf[p].n;\n      if(n<=m) {\n        emit Burn(p,n);\n        balanceOf[p].n -= n;\n        totalSupply.n -= n;\n        return true;\n      }\n      return false;\n  }\n  function updateTotalSupplyOnInsertConstructor_r14() private    {\n      totalSupply = TotalSupplyTuple(0);\n  }\n  function updateClaimOwnershipOnInsertRecv_claimOwnership_r11() private   returns (bool) {\n      address s = pendingOwner.p;\n      if(s==msg.sender) {\n        emit ClaimOwnership(s);\n        pendingOwner = PendingOwnerTuple(address(0));\n        // emit PendingOwner(address(0));\n        owner = OwnerTuple(s);\n        return true;\n      }\n      return false;\n  }\n  function updatePausedOnInsertRecv_pause_r13() private   returns (bool) {\n      address s = owner.p;\n      if(s==msg.sender) {\n        paused = PausedTuple(true);\n        emit Paused(true);\n        return true;\n      }\n      return false;\n  }\n  function updatePausedOnInsertRecv_unpause_r27() private   returns (bool) {\n      address s = owner.p;\n      if(s==msg.sender) {\n        paused = PausedTuple(false);\n        emit Paused(false);\n        return true;\n      }\n      return false;\n  }\n  function updateTransferOnInsertRecv_transfer_r3(address r,uint n) private   returns (bool) {\n      if(false==paused.b) {\n        address s = msg.sender;\n        // BalanceOfTuple memory balanceOfTuple = balanceOf[s];\n        // uint m = balanceOfTuple.n;\n        uint m = balanceOf[s].n;\n        if(n<=m) {\n          emit Transfer(s,r,n);\n          balanceOf[s].n -= n;\n          balanceOf[r].n += n;\n          return true;\n        }\n      }\n      return false;\n  }\n  function updateuintByint(uint x,int delta) private   returns (uint) {\n      int convertedX = int(x);\n      int value = convertedX+delta;\n      uint convertedValue = uint(value);\n      return convertedValue;\n  }\n  function updateMintOnInsertRecv_mint_r28(address p,uint n) private   returns (bool) {\n      address s = owner.p;\n      if(s==msg.sender) {\n        if(p!=address(0)) {\n          emit Mint(p,n);\n          totalSupply.n += n;\n          balanceOf[p].n += n;\n          return true;\n        }\n      }\n      return false;\n  }\n}\n",
  "sourcePath": "/Users/ljy/Desktop/PENN/2023_summer/boon_dsc/smart-contracts/optimizations/optimized/contracts/wbtc.sol",
  "compiler": {
    "name": "solc",
    "version": "0.8.12+commit.f00d7308.Emscripten.clang"
  },
  "schemaVersion": "3.4.13",
  "updatedAt": "2023-07-24T06:02:27.412Z",
  "devdoc": {
    "kind": "dev",
    "methods": {},
    "version": 1
  },
  "userdoc": {
    "kind": "user",
    "methods": {},
    "version": 1
  }
}