{
  "contractName": "Auction",
  "abi": [
    {
      "inputs": [
        {
          "internalType": "address",
          "name": "beneficiary",
          "type": "address"
        },
        {
          "internalType": "uint256",
          "name": "biddingTime",
          "type": "uint256"
        }
      ],
      "stateMutability": "nonpayable",
      "type": "constructor"
    },
    {
      "anonymous": false,
      "inputs": [
        {
          "indexed": false,
          "internalType": "address",
          "name": "bidder",
          "type": "address"
        },
        {
          "indexed": false,
          "internalType": "uint256",
          "name": "amount",
          "type": "uint256"
        }
      ],
      "name": "Bid",
      "type": "event"
    },
    {
      "anonymous": false,
      "inputs": [
        {
          "indexed": false,
          "internalType": "bool",
          "name": "b",
          "type": "bool"
        }
      ],
      "name": "EndAuction",
      "type": "event"
    },
    {
      "anonymous": false,
      "inputs": [
        {
          "indexed": false,
          "internalType": "address",
          "name": "p",
          "type": "address"
        },
        {
          "indexed": false,
          "internalType": "uint256",
          "name": "amount",
          "type": "uint256"
        }
      ],
      "name": "Send",
      "type": "event"
    },
    {
      "anonymous": false,
      "inputs": [
        {
          "indexed": false,
          "internalType": "address",
          "name": "bidder",
          "type": "address"
        },
        {
          "indexed": false,
          "internalType": "uint256",
          "name": "amount",
          "type": "uint256"
        }
      ],
      "name": "Withdraw",
      "type": "event"
    },
    {
      "inputs": [],
      "name": "bid",
      "outputs": [],
      "stateMutability": "payable",
      "type": "function"
    },
    {
      "inputs": [],
      "name": "withdraw",
      "outputs": [],
      "stateMutability": "nonpayable",
      "type": "function"
    },
    {
      "inputs": [],
      "name": "endAuction",
      "outputs": [],
      "stateMutability": "nonpayable",
      "type": "function"
    },
    {
      "inputs": [
        {
          "internalType": "address",
          "name": "p",
          "type": "address"
        }
      ],
      "name": "getBalance",
      "outputs": [
        {
          "internalType": "uint256",
          "name": "",
          "type": "uint256"
        }
      ],
      "stateMutability": "view",
      "type": "function"
    }
  ],
  "bytecode": "0x60806040523480156200001157600080fd5b50604051620012e3380380620012e38339818101604052810190620000379190620002b8565b62000048816200007160201b60201c565b6200005982620000d460201b60201c565b620000696200017160201b60201c565b50506200038b565b6000429050600082826200008691906200032e565b905060405180604001604052808281526020016001151581525060076000820151816000015560208201518160010160006101000a81548160ff021916908315150217905550905050505050565b60405180604001604052808273ffffffffffffffffffffffffffffffffffffffff16815260200160011515815250600260008201518160000160006101000a81548173ffffffffffffffffffffffffffffffffffffffff021916908373ffffffffffffffffffffffffffffffffffffffff16021790555060208201518160000160146101000a81548160ff02191690831515021790555090505050565b600033905060405180604001604052808273ffffffffffffffffffffffffffffffffffffffff16815260200160011515815250600160008201518160000160006101000a81548173ffffffffffffffffffffffffffffffffffffffff021916908373ffffffffffffffffffffffffffffffffffffffff16021790555060208201518160000160146101000a81548160ff02191690831515021790555090505050565b600080fd5b600073ffffffffffffffffffffffffffffffffffffffff82169050919050565b6000620002458262000218565b9050919050565b620002578162000238565b81146200026357600080fd5b50565b60008151905062000277816200024c565b92915050565b6000819050919050565b62000292816200027d565b81146200029e57600080fd5b50565b600081519050620002b28162000287565b92915050565b60008060408385031215620002d257620002d162000213565b5b6000620002e28582860162000266565b9250506020620002f585828601620002a1565b9150509250929050565b7f4e487b7100000000000000000000000000000000000000000000000000000000600052601160045260246000fd5b60006200033b826200027d565b915062000348836200027d565b9250827fffffffffffffffffffffffffffffffffffffffffffffffffffffffffffffffff0382111562000380576200037f620002ff565b5b828201905092915050565b610f48806200039b6000396000f3fe60806040526004361061003f5760003560e01c80631998aeef146100445780633ccfd60b1461004e578063f8b2cb4f14610065578063fe67a54b146100a2575b600080fd5b61004c6100b9565b005b34801561005a57600080fd5b50610063610110565b005b34801561007157600080fd5b5061008c60048036038101906100879190610c26565b610184565b6040516100999190610c6c565b60405180910390f35b3480156100ae57600080fd5b506100b76101d4565b005b60006100c3610248565b905060001515811515141561010d576040517f08c379a000000000000000000000000000000000000000000000000000000000815260040161010490610ce4565b60405180910390fd5b50565b600061011a610307565b90506000610126610443565b905060001515821515148015610140575060001515811515145b15610180576040517f08c379a000000000000000000000000000000000000000000000000000000000815260040161017790610ce4565b60405180910390fd5b5050565b6000806000808473ffffffffffffffffffffffffffffffffffffffff1673ffffffffffffffffffffffffffffffffffffffff16815260200190815260200160002060000154905080915050919050565b60006101de610590565b905060006101ea6106e4565b905060001515821515148015610204575060001515811515145b15610244576040517f08c379a000000000000000000000000000000000000000000000000000000000815260040161023b90610ce4565b60405180910390fd5b5050565b6000804290506000600760000154905060006004600101549050600a60000160009054906101000a900460ff1615156000151514156102fc5760003490506000339050828211801561029957508385105b156102f9576102a881836107d3565b6102b28183610895565b7fe684a55f31b79eca403df938249029212a5925ec6be8012e099b45bc1019e5d281836040516102e3929190610d13565b60405180910390a1600195505050505050610304565b50505b600093505050505b90565b6000600a60000160009054906101000a900460ff16151560011515141561043b576000600460000160009054906101000a900473ffffffffffffffffffffffffffffffffffffffff169050600033905060008060008373ffffffffffffffffffffffffffffffffffffffff1673ffffffffffffffffffffffffffffffffffffffff1681526020019081526020016000206000015490508273ffffffffffffffffffffffffffffffffffffffff168273ffffffffffffffffffffffffffffffffffffffff16141580156103d95750600081115b15610437576103e88282610902565b6103f2828261096f565b7f884edad9ce6fa2440d8a54cc123490eb96d2768479d49ff9c7366125a94243648282604051610423929190610d13565b60405180910390a160019350505050610440565b5050505b600090505b90565b600080600460000160009054906101000a900473ffffffffffffffffffffffffffffffffffffffff16905060006004600101549050600a60000160009054906101000a900460ff161515600115151415610586573373ffffffffffffffffffffffffffffffffffffffff168273ffffffffffffffffffffffffffffffffffffffff1614156105855760008060008473ffffffffffffffffffffffffffffffffffffffff1673ffffffffffffffffffffffffffffffffffffffff1681526020019081526020016000206000015490508181111561058357600082826105279190610d6b565b90506105338482610902565b61053d848261096f565b7f884edad9ce6fa2440d8a54cc123490eb96d2768479d49ff9c7366125a9424364848260405161056e929190610d13565b60405180910390a1600194505050505061058d565b505b5b6000925050505b90565b60008042905060003390506000600260000160009054906101000a900473ffffffffffffffffffffffffffffffffffffffff1690506000600760000154905060006004600101549050600a60000160009054906101000a900460ff1615156000151514156106d757600160000160009054906101000a900473ffffffffffffffffffffffffffffffffffffffff1673ffffffffffffffffffffffffffffffffffffffff168473ffffffffffffffffffffffffffffffffffffffff1614156106d6578185106106d5578273ffffffffffffffffffffffffffffffffffffffff166108fc829081150290604051600060405180830381858888f19350505050507f30a3c50752f2552dcc2b93f5b96866280816a986c0c0408cb6778b9fa198288f83826040516106bf929190610d13565b60405180910390a16001955050505050506106e1565b5b5b6000955050505050505b90565b600080429050600033905060006007600001549050600a60000160009054906101000a900460ff1615156000151514156107c857600160000160009054906101000a900473ffffffffffffffffffffffffffffffffffffffff1673ffffffffffffffffffffffffffffffffffffffff168273ffffffffffffffffffffffffffffffffffffffff1614156107c7578083106107c65761078260016109e2565b7f9ed049ea4fd90bb0d5300a2a7051005e77d929db0e97278833f943c381d8555960016040516107b29190610dba565b60405180910390a1600193505050506107d0565b5b5b600093505050505b90565b60006004600101549050808211156108905760405180606001604052808473ffffffffffffffffffffffffffffffffffffffff16815260200183815260200160011515815250600460008201518160000160006101000a81548173ffffffffffffffffffffffffffffffffffffffff021916908373ffffffffffffffffffffffffffffffffffffffff1602179055506020820151816001015560408201518160020160006101000a81548160ff0219169083151502179055509050505b505050565b60008190506108a48382610a53565b81600960008573ffffffffffffffffffffffffffffffffffffffff1673ffffffffffffffffffffffffffffffffffffffff16815260200190815260200160002060000160008282546108f69190610dd5565b92505081905550505050565b60008190506109118382610af3565b81600360008573ffffffffffffffffffffffffffffffffffffffff1673ffffffffffffffffffffffffffffffffffffffff16815260200190815260200160002060000160008282546109639190610dd5565b92505081905550505050565b8173ffffffffffffffffffffffffffffffffffffffff166108fc829081150290604051600060405180830381858888f19350505050507f30a3c50752f2552dcc2b93f5b96866280816a986c0c0408cb6778b9fa198288f82826040516109d6929190610d13565b60405180910390a15050565b600115158115151415610a5057604051806040016040528060011515815260200160011515815250600a60008201518160000160006101000a81548160ff02191690831515021790555060208201518160000160016101000a81548160ff0219169083151502179055509050505b50565b60008190506000610aa56000808673ffffffffffffffffffffffffffffffffffffffff1673ffffffffffffffffffffffffffffffffffffffff1681526020019081526020016000206000015483610b9c565b9050806000808673ffffffffffffffffffffffffffffffffffffffff1673ffffffffffffffffffffffffffffffffffffffff1681526020019081526020016000206000018190555050505050565b600081610aff90610e35565b90506000610b4e6000808673ffffffffffffffffffffffffffffffffffffffff1673ffffffffffffffffffffffffffffffffffffffff1681526020019081526020016000206000015483610b9c565b9050806000808673ffffffffffffffffffffffffffffffffffffffff1673ffffffffffffffffffffffffffffffffffffffff1681526020019081526020016000206000018190555050505050565b60008083905060008382610bb09190610e7e565b9050600081905080935050505092915050565b600080fd5b600073ffffffffffffffffffffffffffffffffffffffff82169050919050565b6000610bf382610bc8565b9050919050565b610c0381610be8565b8114610c0e57600080fd5b50565b600081359050610c2081610bfa565b92915050565b600060208284031215610c3c57610c3b610bc3565b5b6000610c4a84828501610c11565b91505092915050565b6000819050919050565b610c6681610c53565b82525050565b6000602082019050610c816000830184610c5d565b92915050565b600082825260208201905092915050565b7f52756c6520636f6e646974696f6e206661696c65640000000000000000000000600082015250565b6000610cce601583610c87565b9150610cd982610c98565b602082019050919050565b60006020820190508181036000830152610cfd81610cc1565b9050919050565b610d0d81610be8565b82525050565b6000604082019050610d286000830185610d04565b610d356020830184610c5d565b9392505050565b7f4e487b7100000000000000000000000000000000000000000000000000000000600052601160045260246000fd5b6000610d7682610c53565b9150610d8183610c53565b925082821015610d9457610d93610d3c565b5b828203905092915050565b60008115159050919050565b610db481610d9f565b82525050565b6000602082019050610dcf6000830184610dab565b92915050565b6000610de082610c53565b9150610deb83610c53565b9250827fffffffffffffffffffffffffffffffffffffffffffffffffffffffffffffffff03821115610e2057610e1f610d3c565b5b828201905092915050565b6000819050919050565b6000610e4082610e2b565b91507f8000000000000000000000000000000000000000000000000000000000000000821415610e7357610e72610d3c565b5b816000039050919050565b6000610e8982610e2b565b9150610e9483610e2b565b9250817f7fffffffffffffffffffffffffffffffffffffffffffffffffffffffffffffff03831360008312151615610ecf57610ece610d3c565b5b817f8000000000000000000000000000000000000000000000000000000000000000038312600083121615610f0757610f06610d3c565b5b82820190509291505056fea26469706673582212203e6097982a4d33a05b86870d221b2f9062b56f2ad6ed678457fe71fc0881999b64736f6c634300080c0033",
  "immutableReferences": {},
  "source": "contract Auction {\n  struct BalanceTuple {\n    uint n;\n    bool _valid;\n  }\n  struct OwnerTuple {\n    address p;\n    bool _valid;\n  }\n  struct BeneficiaryTuple {\n    address p;\n    bool _valid;\n  }\n  struct WithdrawTotalTuple {\n    uint n;\n    bool _valid;\n  }\n  struct HighestBidTuple {\n    address bidder;\n    uint amount;\n    bool _valid;\n  }\n  struct EndTimeTuple {\n    uint t;\n    bool _valid;\n  }\n  struct EndTuple {\n    bool b;\n    bool _valid;\n  }\n  struct BidTotalTuple {\n    uint n;\n    bool _valid;\n  }\n  mapping(address=>BalanceTuple) balance;\n  OwnerTuple owner;\n  BeneficiaryTuple beneficiary;\n  mapping(address=>WithdrawTotalTuple) withdrawTotal;\n  HighestBidTuple highestBid;\n  EndTimeTuple endTime;\n  mapping(address=>BidTotalTuple) bidTotal;\n  EndTuple end;\n  event Withdraw(address bidder,uint amount);\n  event EndAuction(bool b);\n  event Send(address p,uint amount);\n  event Bid(address bidder,uint amount);\n  constructor(address beneficiary,uint biddingTime) public {\n    updateEndTimeOnInsertConstructor_r15(biddingTime);\n    updateBeneficiaryOnInsertConstructor_r11(beneficiary);\n    updateOwnerOnInsertConstructor_r9();\n  }\n  function bid() public  payable  {\n      bool r10 = updateBidOnInsertRecv_bid_r10();\n      if(r10==false) {\n        revert(\"Rule condition failed\");\n      }\n  }\n  function withdraw() public    {\n      bool r5 = updateWithdrawOnInsertRecv_withdraw_r5();\n      bool r2 = updateWithdrawOnInsertRecv_withdraw_r2();\n      if(r5==false && r2==false) {\n        revert(\"Rule condition failed\");\n      }\n  }\n  function endAuction() public    {\n      bool r3 = updateSendOnInsertRecv_endAuction_r3();\n      bool r13 = updateEndAuctionOnInsertRecv_endAuction_r13();\n      if(r3==false && r13==false) {\n        revert(\"Rule condition failed\");\n      }\n  }\n  function getBalance(address p) public view  returns (uint) {\n      uint n = balance[p].n;\n      return n;\n  }\n  function updateHighestBidOnInsertBid_r1(address p,uint m) private    {\n      uint _max = highestBid.amount;\n      if(m>_max) {\n        highestBid = HighestBidTuple(p,m,true);\n      }\n  }\n  function updateEndAuctionOnInsertRecv_endAuction_r13() private   returns (bool) {\n      uint t1 = block.timestamp;\n      address s = msg.sender;\n      uint t2 = endTime.t;\n      if(false==end.b) {\n        if(s==owner.p) {\n          if(t1>=t2) {\n            updateEndOnInsertEndAuction_r0(bool(true));\n            emit EndAuction(true);\n            return true;\n          }\n        }\n      }\n      return false;\n  }\n  function updateuintByint(uint x,int delta) private   returns (uint) {\n      int convertedX = int(x);\n      int value = convertedX+delta;\n      uint convertedValue = uint(value);\n      return convertedValue;\n  }\n  function updateOwnerOnInsertConstructor_r9() private    {\n      address s = msg.sender;\n      owner = OwnerTuple(s,true);\n  }\n  function updateBalanceOnIncrementBidTotal_r7(address p,int b) private    {\n      int _delta = int(b);\n      uint newValue = updateuintByint(balance[p].n,_delta);\n      balance[p].n = newValue;\n  }\n  function updateBidTotalOnInsertBid_r12(address p,uint m) private    {\n      int delta0 = int(m);\n      updateBalanceOnIncrementBidTotal_r7(p,delta0);\n      bidTotal[p].n += m;\n  }\n  function updateWithdrawTotalOnInsertWithdraw_r4(address p,uint m) private    {\n      int delta0 = int(m);\n      updateBalanceOnIncrementWithdrawTotal_r7(p,delta0);\n      withdrawTotal[p].n += m;\n  }\n  function updateBeneficiaryOnInsertConstructor_r11(address p) private    {\n      beneficiary = BeneficiaryTuple(p,true);\n  }\n  function updateEndTimeOnInsertConstructor_r15(uint d) private    {\n      uint t = block.timestamp;\n      uint t2 = t+d;\n      endTime = EndTimeTuple(t2,true);\n  }\n  function updateSendOnInsertWithdraw_r8(address p,uint n) private    {\n      payable(p).send(n);\n      emit Send(p,n);\n  }\n  function updateWithdrawOnInsertRecv_withdraw_r2() private   returns (bool) {\n      address p = highestBid.bidder;\n      uint m = highestBid.amount;\n      if(true==end.b) {\n        if(p==msg.sender) {\n          uint n = balance[p].n;\n          if(n>m) {\n            uint s = n-m;\n            updateWithdrawTotalOnInsertWithdraw_r4(p,s);\n            updateSendOnInsertWithdraw_r8(p,s);\n            emit Withdraw(p,s);\n            return true;\n          }\n        }\n      }\n      return false;\n  }\n  function updateBidOnInsertRecv_bid_r10() private   returns (bool) {\n      uint t1 = block.timestamp;\n      uint t2 = endTime.t;\n      uint m = highestBid.amount;\n      if(false==end.b) {\n        uint n = msg.value;\n        address p = msg.sender;\n        if(n>m && t1<t2) {\n          updateHighestBidOnInsertBid_r1(p,n);\n          updateBidTotalOnInsertBid_r12(p,n);\n          emit Bid(p,n);\n          return true;\n        }\n      }\n      return false;\n  }\n  function updateSendOnInsertRecv_endAuction_r3() private   returns (bool) {\n      uint t1 = block.timestamp;\n      address s = msg.sender;\n      address p = beneficiary.p;\n      uint t2 = endTime.t;\n      uint n = highestBid.amount;\n      if(false==end.b) {\n        if(s==owner.p) {\n          if(t1>=t2) {\n            payable(p).send(n);\n            emit Send(p,n);\n            return true;\n          }\n        }\n      }\n      return false;\n  }\n  function updateWithdrawOnInsertRecv_withdraw_r5() private   returns (bool) {\n      if(true==end.b) {\n        address h = highestBid.bidder;\n        address p = msg.sender;\n        uint n = balance[p].n;\n        if(p!=h && n>0) {\n          updateWithdrawTotalOnInsertWithdraw_r4(p,n);\n          updateSendOnInsertWithdraw_r8(p,n);\n          emit Withdraw(p,n);\n          return true;\n        }\n      }\n      return false;\n  }\n  function updateBalanceOnIncrementWithdrawTotal_r7(address p,int w) private    {\n      int _delta = int(-w);\n      uint newValue = updateuintByint(balance[p].n,_delta);\n      balance[p].n = newValue;\n  }\n  function updateEndOnInsertEndAuction_r0(bool p) private    {\n      if(p==true) {\n        end = EndTuple(true,true);\n      }\n  }\n}",
  "sourcePath": "/Users/ljy/Desktop/PENN/2023_summer/boon_dsc/smart-contracts/optimizations/full/contracts/auction.sol",
  "compiler": {
    "name": "solc",
    "version": "0.8.12+commit.f00d7308.Emscripten.clang"
  },
  "schemaVersion": "3.4.16",
  "updatedAt": "2023-12-29T01:56:51.858Z",
  "devdoc": {
    "kind": "dev",
    "methods": {},
    "version": 1
  },
  "userdoc": {
    "kind": "user",
    "methods": {},
    "version": 1
  }
}