{
  "contractName": "Bnb",
  "abi": [
    {
      "inputs": [
        {
          "internalType": "uint256",
          "name": "initialSupply",
          "type": "uint256"
        }
      ],
      "stateMutability": "nonpayable",
      "type": "constructor"
    },
    {
      "anonymous": false,
      "inputs": [
        {
          "indexed": false,
          "internalType": "address",
          "name": "p",
          "type": "address"
        },
        {
          "indexed": false,
          "internalType": "uint256",
          "name": "amount",
          "type": "uint256"
        }
      ],
      "name": "Burn",
      "type": "event"
    },
    {
      "anonymous": false,
      "inputs": [
        {
          "indexed": false,
          "internalType": "address",
          "name": "p",
          "type": "address"
        },
        {
          "indexed": false,
          "internalType": "uint256",
          "name": "n",
          "type": "uint256"
        }
      ],
      "name": "Freeze",
      "type": "event"
    },
    {
      "anonymous": false,
      "inputs": [
        {
          "indexed": false,
          "internalType": "address",
          "name": "p",
          "type": "address"
        },
        {
          "indexed": false,
          "internalType": "address",
          "name": "s",
          "type": "address"
        },
        {
          "indexed": false,
          "internalType": "uint256",
          "name": "n",
          "type": "uint256"
        }
      ],
      "name": "IncreaseAllowance",
      "type": "event"
    },
    {
      "anonymous": false,
      "inputs": [
        {
          "indexed": false,
          "internalType": "address",
          "name": "p",
          "type": "address"
        },
        {
          "indexed": false,
          "internalType": "uint256",
          "name": "amount",
          "type": "uint256"
        }
      ],
      "name": "Mint",
      "type": "event"
    },
    {
      "anonymous": false,
      "inputs": [
        {
          "indexed": false,
          "internalType": "address",
          "name": "from",
          "type": "address"
        },
        {
          "indexed": false,
          "internalType": "address",
          "name": "to",
          "type": "address"
        },
        {
          "indexed": false,
          "internalType": "uint256",
          "name": "amount",
          "type": "uint256"
        }
      ],
      "name": "Transfer",
      "type": "event"
    },
    {
      "anonymous": false,
      "inputs": [
        {
          "indexed": false,
          "internalType": "address",
          "name": "from",
          "type": "address"
        },
        {
          "indexed": false,
          "internalType": "address",
          "name": "to",
          "type": "address"
        },
        {
          "indexed": false,
          "internalType": "address",
          "name": "spender",
          "type": "address"
        },
        {
          "indexed": false,
          "internalType": "uint256",
          "name": "amount",
          "type": "uint256"
        }
      ],
      "name": "TransferFrom",
      "type": "event"
    },
    {
      "anonymous": false,
      "inputs": [
        {
          "indexed": false,
          "internalType": "address",
          "name": "p",
          "type": "address"
        },
        {
          "indexed": false,
          "internalType": "uint256",
          "name": "n",
          "type": "uint256"
        }
      ],
      "name": "Unfreeze",
      "type": "event"
    },
    {
      "anonymous": false,
      "inputs": [
        {
          "indexed": false,
          "internalType": "address",
          "name": "p",
          "type": "address"
        },
        {
          "indexed": false,
          "internalType": "uint256",
          "name": "amount",
          "type": "uint256"
        }
      ],
      "name": "WithdrawEther",
      "type": "event"
    },
    {
      "inputs": [
        {
          "internalType": "address",
          "name": "s",
          "type": "address"
        },
        {
          "internalType": "uint256",
          "name": "n",
          "type": "uint256"
        }
      ],
      "name": "approve",
      "outputs": [],
      "stateMutability": "nonpayable",
      "type": "function"
    },
    {
      "inputs": [
        {
          "internalType": "address",
          "name": "to",
          "type": "address"
        },
        {
          "internalType": "uint256",
          "name": "amount",
          "type": "uint256"
        }
      ],
      "name": "transfer",
      "outputs": [],
      "stateMutability": "nonpayable",
      "type": "function"
    },
    {
      "inputs": [
        {
          "internalType": "uint256",
          "name": "n",
          "type": "uint256"
        }
      ],
      "name": "freeze",
      "outputs": [],
      "stateMutability": "nonpayable",
      "type": "function"
    },
    {
      "inputs": [
        {
          "internalType": "address",
          "name": "p",
          "type": "address"
        },
        {
          "internalType": "address",
          "name": "s",
          "type": "address"
        }
      ],
      "name": "getAllowance",
      "outputs": [
        {
          "internalType": "uint256",
          "name": "",
          "type": "uint256"
        }
      ],
      "stateMutability": "view",
      "type": "function"
    },
    {
      "inputs": [],
      "name": "getTotalSupply",
      "outputs": [
        {
          "internalType": "uint256",
          "name": "",
          "type": "uint256"
        }
      ],
      "stateMutability": "view",
      "type": "function"
    },
    {
      "inputs": [
        {
          "internalType": "address",
          "name": "from",
          "type": "address"
        },
        {
          "internalType": "address",
          "name": "to",
          "type": "address"
        },
        {
          "internalType": "uint256",
          "name": "amount",
          "type": "uint256"
        }
      ],
      "name": "transferFrom",
      "outputs": [],
      "stateMutability": "nonpayable",
      "type": "function"
    },
    {
      "inputs": [
        {
          "internalType": "uint256",
          "name": "n",
          "type": "uint256"
        }
      ],
      "name": "unfreeze",
      "outputs": [],
      "stateMutability": "nonpayable",
      "type": "function"
    },
    {
      "inputs": [
        {
          "internalType": "address",
          "name": "p",
          "type": "address"
        }
      ],
      "name": "getBalanceOf",
      "outputs": [
        {
          "internalType": "uint256",
          "name": "",
          "type": "uint256"
        }
      ],
      "stateMutability": "view",
      "type": "function"
    },
    {
      "inputs": [
        {
          "internalType": "uint256",
          "name": "amount",
          "type": "uint256"
        }
      ],
      "name": "withdrawEther",
      "outputs": [],
      "stateMutability": "nonpayable",
      "type": "function"
    },
    {
      "inputs": [
        {
          "internalType": "uint256",
          "name": "amount",
          "type": "uint256"
        }
      ],
      "name": "burn",
      "outputs": [],
      "stateMutability": "nonpayable",
      "type": "function"
    }
  ],
  "bytecode": "0x60806040523480156200001157600080fd5b5060405162002018380380620020188339818101604052810190620000379190620003d3565b6200004881620000b460201b60201c565b6200005981620000fe60201b60201c565b6200006a816200014860201b60201c565b6200007b81620001d560201b60201c565b6200008c81620001d860201b60201c565b6200009c6200026560201b60201c565b620000ad816200030760201b60201c565b5062000405565b60405180604001604052808281526020016001151581525060086000820151816000015560208201518160010160006101000a81548160ff02191690831515021790555090505050565b60405180604001604052808281526020016001151581525060066000820151816000015560208201518160010160006101000a81548160ff02191690831515021790555090505050565b6000339050604051806040016040528083815260200160011515815250600f60008373ffffffffffffffffffffffffffffffffffffffff1673ffffffffffffffffffffffffffffffffffffffff1681526020019081526020016000206000820151816000015560208201518160010160006101000a81548160ff0219169083151502179055509050505050565b50565b6000339050604051806040016040528083815260200160011515815250600560008373ffffffffffffffffffffffffffffffffffffffff1673ffffffffffffffffffffffffffffffffffffffff1681526020019081526020016000206000820151816000015560208201518160010160006101000a81548160ff0219169083151502179055509050505050565b600033905060405180604001604052808273ffffffffffffffffffffffffffffffffffffffff16815260200160011515815250600360008201518160000160006101000a81548173ffffffffffffffffffffffffffffffffffffffff021916908373ffffffffffffffffffffffffffffffffffffffff16021790555060208201518160000160146101000a81548160ff02191690831515021790555090505050565b60003390506040518060400160405280838152602001600115158152506000808373ffffffffffffffffffffffffffffffffffffffff1673ffffffffffffffffffffffffffffffffffffffff1681526020019081526020016000206000820151816000015560208201518160010160006101000a81548160ff0219169083151502179055509050505050565b600080fd5b6000819050919050565b620003ad8162000398565b8114620003b957600080fd5b50565b600081519050620003cd81620003a2565b92915050565b600060208284031215620003ec57620003eb62000393565b5b6000620003fc84828501620003bc565b91505092915050565b611c0380620004156000396000f3fe608060405234801561001057600080fd5b506004361061009e5760003560e01c80636623fc46116100665780636623fc46146101435780639b96eece1461015f578063a9059cbb1461018f578063c4e41b22146101ab578063d7a78db8146101c95761009e565b8063095ea7b3146100a35780630af4187d146100bf57806323b872dd146100ef5780633bed33ce1461010b57806342966c6814610127575b600080fd5b6100bd60048036038101906100b891906117a5565b6101e5565b005b6100d960048036038101906100d491906117e5565b610240565b6040516100e69190611834565b60405180910390f35b6101096004803603810190610104919061184f565b6102cf565b005b610125600480360381019061012091906118a2565b61032c565b005b610141600480360381019061013c91906118a2565b610385565b005b61015d600480360381019061015891906118a2565b6103de565b005b610179600480360381019061017491906118cf565b610437565b6040516101869190611834565b60405180910390f35b6101a960048036038101906101a491906117a5565b610488565b005b6101b36104e3565b6040516101c09190611834565b60405180910390f35b6101e360048036038101906101de91906118a2565b6104f5565b005b60006101f1838361054e565b905060001515811515141561023b576040517f08c379a000000000000000000000000000000000000000000000000000000000815260040161023290611959565b60405180910390fd5b505050565b600080600c60008573ffffffffffffffffffffffffffffffffffffffff1673ffffffffffffffffffffffffffffffffffffffff16815260200190815260200160002060008473ffffffffffffffffffffffffffffffffffffffff1673ffffffffffffffffffffffffffffffffffffffff1681526020019081526020016000206000015490508091505092915050565b60006102dc84848461063b565b9050600015158115151415610326576040517f08c379a000000000000000000000000000000000000000000000000000000000815260040161031d90611959565b60405180910390fd5b50505050565b6000610337826107eb565b9050600015158115151415610381576040517f08c379a000000000000000000000000000000000000000000000000000000000815260040161037890611959565b60405180910390fd5b5050565b6000610390826108a2565b90506000151581151514156103da576040517f08c379a00000000000000000000000000000000000000000000000000000000081526004016103d190611959565b60405180910390fd5b5050565b60006103e982610994565b9050600015158115151415610433576040517f08c379a000000000000000000000000000000000000000000000000000000000815260040161042a90611959565b60405180910390fd5b5050565b600080600f60008473ffffffffffffffffffffffffffffffffffffffff1673ffffffffffffffffffffffffffffffffffffffff16815260200190815260200160002060000154905080915050919050565b60006104948383610a50565b90506000151581151514156104de576040517f08c379a00000000000000000000000000000000000000000000000000000000081526004016104d590611959565b60405180910390fd5b505050565b60008060066000015490508091505090565b600061050082610b69565b905060001515811515141561054a576040517f08c379a000000000000000000000000000000000000000000000000000000000815260040161054190611959565b60405180910390fd5b5050565b6000803390506000600c60008373ffffffffffffffffffffffffffffffffffffffff1673ffffffffffffffffffffffffffffffffffffffff16815260200190815260200160002060008673ffffffffffffffffffffffffffffffffffffffff1673ffffffffffffffffffffffffffffffffffffffff168152602001908152602001600020600001549050600081856105e691906119a8565b90506105f3838783610c25565b7f01722f0e92ffd761d4a842cffdd36fe3adb6091e41732a4e714250176b7d8d22838783604051610626939291906119eb565b60405180910390a16001935050505092915050565b6000803390506000600c60008773ffffffffffffffffffffffffffffffffffffffff1673ffffffffffffffffffffffffffffffffffffffff16815260200190815260200160002060008373ffffffffffffffffffffffffffffffffffffffff1673ffffffffffffffffffffffffffffffffffffffff1681526020019081526020016000206000015490506000600f60008873ffffffffffffffffffffffffffffffffffffffff1673ffffffffffffffffffffffffffffffffffffffff1681526020019081526020016000206000015490508481101580156107495750600073ffffffffffffffffffffffffffffffffffffffff168673ffffffffffffffffffffffffffffffffffffffff1614155b8015610760575080818661075d9190611a22565b10155b801561076c5750600085115b80156107785750848210155b156107dc57610788878487610cd1565b610793878787610d7d565b7f5f7542858008eeb041631f30e6109ae94b83a58e9a58261dd2c42c508850f939878785886040516107c89493929190611a78565b60405180910390a1600193505050506107e4565b600093505050505b9392505050565b600080600360000160009054906101000a900473ffffffffffffffffffffffffffffffffffffffff1690503373ffffffffffffffffffffffffffffffffffffffff168173ffffffffffffffffffffffffffffffffffffffff161415610897576108548184610dd1565b7fdb35132c111efe920cede025e819975671cfd1b8fcc1174762c8670c4e94c2118184604051610885929190611abd565b60405180910390a1600191505061089d565b60009150505b919050565b6000803390506000600f60008373ffffffffffffffffffffffffffffffffffffffff1673ffffffffffffffffffffffffffffffffffffffff168152602001908152602001600020600001549050600073ffffffffffffffffffffffffffffffffffffffff168273ffffffffffffffffffffffffffffffffffffffff161415801561092c5750808411155b156109885761093a84610e0b565b6109448285610e39565b7fcc16f5dbb4873280815c1ee09dbd06736cffcc184412cf7a71a0fdb75d397ca58285604051610975929190611abd565b60405180910390a160019250505061098f565b6000925050505b919050565b6000803390506000600460008373ffffffffffffffffffffffffffffffffffffffff1673ffffffffffffffffffffffffffffffffffffffff1681526020019081526020016000206000015490508084111580156109f15750600084115b15610a4457610a008285610ea6565b7f2cfce4af01bcb9d6cf6c84ee1b7c491100b8695368264146a94d71e10a63083f8285604051610a31929190611abd565b60405180910390a1600192505050610a4b565b6000925050505b919050565b6000803390506000600f60008373ffffffffffffffffffffffffffffffffffffffff1673ffffffffffffffffffffffffffffffffffffffff168152602001908152602001600020600001549050808411158015610aad5750600084115b8015610ae65750600073ffffffffffffffffffffffffffffffffffffffff168573ffffffffffffffffffffffffffffffffffffffff1614155b8015610afd5750808185610afa9190611a22565b10155b15610b5c57610b0c8285610f13565b610b168585610f80565b7fddf252ad1be2c89b69c2b068fc378daa952ba7f163c4a11628f55a4df523b3ef828686604051610b49939291906119eb565b60405180910390a1600192505050610b63565b6000925050505b92915050565b6000803390506000600f60008373ffffffffffffffffffffffffffffffffffffffff1673ffffffffffffffffffffffffffffffffffffffff168152602001908152602001600020600001549050808411158015610bc65750600084115b15610c1957610bd58285610fec565b7ff97a274face0b5517365ad396b1fdba6f68bd3135ef603e44272adba3af5a1e08285604051610c06929190611abd565b60405180910390a1600192505050610c20565b6000925050505b919050565b6000819050610c35848483611059565b81600a60008673ffffffffffffffffffffffffffffffffffffffff1673ffffffffffffffffffffffffffffffffffffffff16815260200190815260200160002060008573ffffffffffffffffffffffffffffffffffffffff1673ffffffffffffffffffffffffffffffffffffffff1681526020019081526020016000206000016000828254610cc49190611a22565b9250508190555050505050565b6000819050610ce1848483611176565b81600b60008673ffffffffffffffffffffffffffffffffffffffff1673ffffffffffffffffffffffffffffffffffffffff16815260200190815260200160002060008573ffffffffffffffffffffffffffffffffffffffff1673ffffffffffffffffffffffffffffffffffffffff1681526020019081526020016000206000016000828254610d709190611a22565b9250508190555050505050565b610d878282610f80565b610d918382610f13565b7fddf252ad1be2c89b69c2b068fc378daa952ba7f163c4a11628f55a4df523b3ef838383604051610dc4939291906119eb565b60405180910390a1505050565b8173ffffffffffffffffffffffffffffffffffffffff166108fc829081150290604051600060405180830381858888f19350505050505050565b6000819050610e198161129c565b8160106000016000828254610e2e9190611a22565b925050819055505050565b6000819050610e4883826112cc565b81600e60008573ffffffffffffffffffffffffffffffffffffffff1673ffffffffffffffffffffffffffffffffffffffff1681526020019081526020016000206000016000828254610e9a9190611a22565b92505081905550505050565b6000819050610eb58382611377565b81600d60008573ffffffffffffffffffffffffffffffffffffffff1673ffffffffffffffffffffffffffffffffffffffff1681526020019081526020016000206000016000828254610f079190611a22565b92505081905550505050565b6000819050610f22838261143b565b81600160008573ffffffffffffffffffffffffffffffffffffffff1673ffffffffffffffffffffffffffffffffffffffff1681526020019081526020016000206000016000828254610f749190611a22565b92505081905550505050565b6000819050610f8f83826114e6565b816000808573ffffffffffffffffffffffffffffffffffffffff1673ffffffffffffffffffffffffffffffffffffffff1681526020019081526020016000206000016000828254610fe09190611a22565b92505081905550505050565b6000819050610ffb8382611588565b81600260008573ffffffffffffffffffffffffffffffffffffffff1673ffffffffffffffffffffffffffffffffffffffff168152602001908152602001600020600001600082825461104d9190611a22565b92505081905550505050565b600081905060006110e9600c60008773ffffffffffffffffffffffffffffffffffffffff1673ffffffffffffffffffffffffffffffffffffffff16815260200190815260200160002060008673ffffffffffffffffffffffffffffffffffffffff1673ffffffffffffffffffffffffffffffffffffffff168152602001908152602001600020600001548361163a565b905080600c60008773ffffffffffffffffffffffffffffffffffffffff1673ffffffffffffffffffffffffffffffffffffffff16815260200190815260200160002060008673ffffffffffffffffffffffffffffffffffffffff1673ffffffffffffffffffffffffffffffffffffffff168152602001908152602001600020600001819055505050505050565b60008161118290611af0565b9050600061120f600c60008773ffffffffffffffffffffffffffffffffffffffff1673ffffffffffffffffffffffffffffffffffffffff16815260200190815260200160002060008673ffffffffffffffffffffffffffffffffffffffff1673ffffffffffffffffffffffffffffffffffffffff168152602001908152602001600020600001548361163a565b905080600c60008773ffffffffffffffffffffffffffffffffffffffff1673ffffffffffffffffffffffffffffffffffffffff16815260200190815260200160002060008673ffffffffffffffffffffffffffffffffffffffff1673ffffffffffffffffffffffffffffffffffffffff168152602001908152602001600020600001819055505050505050565b6000816112a890611af0565b905060006112bb6006600001548361163a565b905080600660000181905550505050565b6000816112d890611af0565b90506000611328600f60008673ffffffffffffffffffffffffffffffffffffffff1673ffffffffffffffffffffffffffffffffffffffff168152602001908152602001600020600001548361163a565b905080600f60008673ffffffffffffffffffffffffffffffffffffffff1673ffffffffffffffffffffffffffffffffffffffff1681526020019081526020016000206000018190555050505050565b60008161138390611af0565b905061138f8382611661565b60008261139b90611af0565b905060006113eb600460008773ffffffffffffffffffffffffffffffffffffffff1673ffffffffffffffffffffffffffffffffffffffff168152602001908152602001600020600001548361163a565b905080600460008773ffffffffffffffffffffffffffffffffffffffff1673ffffffffffffffffffffffffffffffffffffffff168152602001908152602001600020600001819055505050505050565b60008161144790611af0565b90506000611497600f60008673ffffffffffffffffffffffffffffffffffffffff1673ffffffffffffffffffffffffffffffffffffffff168152602001908152602001600020600001548361163a565b905080600f60008673ffffffffffffffffffffffffffffffffffffffff1673ffffffffffffffffffffffffffffffffffffffff1681526020019081526020016000206000018190555050505050565b60008190506000611539600f60008673ffffffffffffffffffffffffffffffffffffffff1673ffffffffffffffffffffffffffffffffffffffff168152602001908152602001600020600001548361163a565b905080600f60008673ffffffffffffffffffffffffffffffffffffffff1673ffffffffffffffffffffffffffffffffffffffff1681526020019081526020016000206000018190555050505050565b60008190506115978382611661565b600082905060006115ea600460008773ffffffffffffffffffffffffffffffffffffffff1673ffffffffffffffffffffffffffffffffffffffff168152602001908152602001600020600001548361163a565b905080600460008773ffffffffffffffffffffffffffffffffffffffff1673ffffffffffffffffffffffffffffffffffffffff168152602001908152602001600020600001819055505050505050565b6000808390506000838261164e9190611b39565b9050600081905080935050505092915050565b60008161166d90611af0565b905060006116bd600f60008673ffffffffffffffffffffffffffffffffffffffff1673ffffffffffffffffffffffffffffffffffffffff168152602001908152602001600020600001548361163a565b905080600f60008673ffffffffffffffffffffffffffffffffffffffff1673ffffffffffffffffffffffffffffffffffffffff1681526020019081526020016000206000018190555050505050565b600080fd5b600073ffffffffffffffffffffffffffffffffffffffff82169050919050565b600061173c82611711565b9050919050565b61174c81611731565b811461175757600080fd5b50565b60008135905061176981611743565b92915050565b6000819050919050565b6117828161176f565b811461178d57600080fd5b50565b60008135905061179f81611779565b92915050565b600080604083850312156117bc576117bb61170c565b5b60006117ca8582860161175a565b92505060206117db85828601611790565b9150509250929050565b600080604083850312156117fc576117fb61170c565b5b600061180a8582860161175a565b925050602061181b8582860161175a565b9150509250929050565b61182e8161176f565b82525050565b60006020820190506118496000830184611825565b92915050565b6000806000606084860312156118685761186761170c565b5b60006118768682870161175a565b93505060206118878682870161175a565b925050604061189886828701611790565b9150509250925092565b6000602082840312156118b8576118b761170c565b5b60006118c684828501611790565b91505092915050565b6000602082840312156118e5576118e461170c565b5b60006118f38482850161175a565b91505092915050565b600082825260208201905092915050565b7f52756c6520636f6e646974696f6e206661696c65640000000000000000000000600082015250565b60006119436015836118fc565b915061194e8261190d565b602082019050919050565b6000602082019050818103600083015261197281611936565b9050919050565b7f4e487b7100000000000000000000000000000000000000000000000000000000600052601160045260246000fd5b60006119b38261176f565b91506119be8361176f565b9250828210156119d1576119d0611979565b5b828203905092915050565b6119e581611731565b82525050565b6000606082019050611a0060008301866119dc565b611a0d60208301856119dc565b611a1a6040830184611825565b949350505050565b6000611a2d8261176f565b9150611a388361176f565b9250827fffffffffffffffffffffffffffffffffffffffffffffffffffffffffffffffff03821115611a6d57611a6c611979565b5b828201905092915050565b6000608082019050611a8d60008301876119dc565b611a9a60208301866119dc565b611aa760408301856119dc565b611ab46060830184611825565b95945050505050565b6000604082019050611ad260008301856119dc565b611adf6020830184611825565b9392505050565b6000819050919050565b6000611afb82611ae6565b91507f8000000000000000000000000000000000000000000000000000000000000000821415611b2e57611b2d611979565b5b816000039050919050565b6000611b4482611ae6565b9150611b4f83611ae6565b9250817f7fffffffffffffffffffffffffffffffffffffffffffffffffffffffffffffff03831360008312151615611b8a57611b89611979565b5b817f8000000000000000000000000000000000000000000000000000000000000000038312600083121615611bc257611bc1611979565b5b82820190509291505056fea2646970667358221220e38324d8d2320cc1c50aac7c09a6b5cf0292254e619f975f6e7b00cb6bc06e4464736f6c634300080c0033",
  "immutableReferences": {},
  "source": "contract Bnb {\n  struct TotalOutTuple {\n    uint n;\n    bool _valid;\n  }\n  struct TotalFreezeTuple {\n    uint n;\n    bool _valid;\n  }\n  struct TotalMintTuple {\n    uint n;\n    bool _valid;\n  }\n  struct TotalSupplyTuple {\n    uint n;\n    bool _valid;\n  }\n  struct AllMintTuple {\n    uint n;\n    bool _valid;\n  }\n  struct SpentTotalTuple {\n    uint m;\n    bool _valid;\n  }\n  struct AllowanceTuple {\n    uint n;\n    bool _valid;\n  }\n  struct TotalInTuple {\n    uint n;\n    bool _valid;\n  }\n  struct TotalUnfreezeTuple {\n    uint n;\n    bool _valid;\n  }\n  struct TotalBurnTuple {\n    uint n;\n    bool _valid;\n  }\n  struct OwnerTuple {\n    address p;\n    bool _valid;\n  }\n  struct FreezeOfTuple {\n    uint n;\n    bool _valid;\n  }\n  struct AllowanceTotalTuple {\n    uint m;\n    bool _valid;\n  }\n  struct BalanceOfTuple {\n    uint n;\n    bool _valid;\n  }\n  struct AllBurnTuple {\n    uint n;\n    bool _valid;\n  }\n  mapping(address=>TotalInTuple) totalIn;\n  mapping(address=>TotalOutTuple) totalOut;\n  mapping(address=>TotalFreezeTuple) totalFreeze;\n  OwnerTuple owner;\n  mapping(address=>FreezeOfTuple) freezeOf;\n  mapping(address=>TotalMintTuple) totalMint;\n  TotalSupplyTuple totalSupply;\n  AllMintTuple allMint;\n  mapping(address=>mapping(address=>AllowanceTotalTuple)) allowanceTotal;\n  mapping(address=>mapping(address=>SpentTotalTuple)) spentTotal;\n  mapping(address=>mapping(address=>AllowanceTuple)) allowance;\n  mapping(address=>TotalUnfreezeTuple) totalUnfreeze;\n  mapping(address=>TotalBurnTuple) totalBurn;\n  mapping(address=>BalanceOfTuple) balanceOf;\n  AllBurnTuple allBurn;\n  event TransferFrom(address from,address to,address spender,uint amount);\n  event Burn(address p,uint amount);\n  event Mint(address p,uint amount);\n  event WithdrawEther(address p,uint amount);\n  event IncreaseAllowance(address p,address s,uint n);\n  event Unfreeze(address p,uint n);\n  event Freeze(address p,uint n);\n  event Transfer(address from,address to,uint amount);\n  constructor(uint initialSupply) public {\n    updateAllMintOnInsertConstructor_r9(initialSupply);\n    updateTotalSupplyOnInsertConstructor_r5(initialSupply);\n    updateBalanceOfOnInsertConstructor_r4(initialSupply);\n    updateTotalBalancesOnInsertConstructor_r25(initialSupply);\n    updateTotalMintOnInsertConstructor_r32(initialSupply);\n    updateOwnerOnInsertConstructor_r7();\n    updateTotalInOnInsertConstructor_r30(initialSupply);\n  }\n  function approve(address s,uint n) public    {\n      bool r29 = updateIncreaseAllowanceOnInsertRecv_approve_r29(s,n);\n      if(r29==false) {\n        revert(\"Rule condition failed\");\n      }\n  }\n  function transfer(address to,uint amount) public    {\n      bool r8 = updateTransferOnInsertRecv_transfer_r8(to,amount);\n      if(r8==false) {\n        revert(\"Rule condition failed\");\n      }\n  }\n  function freeze(uint n) public    {\n      bool r24 = updateFreezeOnInsertRecv_freeze_r24(n);\n      if(r24==false) {\n        revert(\"Rule condition failed\");\n      }\n  }\n  function getAllowance(address p,address s) public view  returns (uint) {\n      uint n = allowance[p][s].n;\n      return n;\n  }\n  function getTotalSupply() public view  returns (uint) {\n      uint n = totalSupply.n;\n      return n;\n  }\n  function transferFrom(address from,address to,uint amount) public    {\n      bool r14 = updateTransferFromOnInsertRecv_transferFrom_r14(from,to,amount);\n      if(r14==false) {\n        revert(\"Rule condition failed\");\n      }\n  }\n  function unfreeze(uint n) public    {\n      bool r6 = updateUnfreezeOnInsertRecv_unfreeze_r6(n);\n      if(r6==false) {\n        revert(\"Rule condition failed\");\n      }\n  }\n  function getBalanceOf(address p) public view  returns (uint) {\n      uint n = balanceOf[p].n;\n      return n;\n  }\n  function withdrawEther(uint amount) public    {\n      bool r23 = updateWithdrawEtherOnInsertRecv_withdrawEther_r23(amount);\n      if(r23==false) {\n        revert(\"Rule condition failed\");\n      }\n  }\n  function burn(uint amount) public    {\n      bool r16 = updateBurnOnInsertRecv_burn_r16(amount);\n      if(r16==false) {\n        revert(\"Rule condition failed\");\n      }\n  }\n  function updateTransferFromOnInsertRecv_transferFrom_r14(address o,address r,uint n) private   returns (bool) {\n      address s = msg.sender;\n      uint k = allowance[o][s].n;\n      uint m = balanceOf[o].n;\n      if(m>=n && r!=address(0) && n+m>=m && n>0 && k>=n) {\n        updateSpentTotalOnInsertTransferFrom_r22(o,s,n);\n        updateTransferOnInsertTransferFrom_r1(o,r,n);\n        emit TransferFrom(o,r,s,n);\n        return true;\n      }\n      return false;\n  }\n  function updateBalanceOfOnIncrementTotalIn_r15(address p,int i) private    {\n      int _delta = int(i);\n      uint newValue = updateuintByint(balanceOf[p].n,_delta);\n      balanceOf[p].n = newValue;\n  }\n  function updateFreezeOfOnIncrementTotalUnfreeze_r12(address p,int u) private    {\n      int delta0 = int(-u);\n      updateBalanceOfOnIncrementFreezeOf_r15(p,delta0);\n      int _delta = int(-u);\n      uint newValue = updateuintByint(freezeOf[p].n,_delta);\n      freezeOf[p].n = newValue;\n  }\n  function updateTotalBurnOnInsertBurn_r17(address p,uint n) private    {\n      int delta0 = int(n);\n      updateBalanceOfOnIncrementTotalBurn_r15(p,delta0);\n      totalBurn[p].n += n;\n  }\n  function updateOwnerOnInsertConstructor_r7() private    {\n      address s = msg.sender;\n      owner = OwnerTuple(s,true);\n  }\n  function updateTotalInOnInsertTransfer_r31(address p,uint n) private    {\n      int delta0 = int(n);\n      updateBalanceOfOnIncrementTotalIn_r15(p,delta0);\n      totalIn[p].n += n;\n  }\n  function updateTransferOnInsertRecv_transfer_r8(address r,uint n) private   returns (bool) {\n      address s = msg.sender;\n      uint m = balanceOf[s].n;\n      if(n<=m && n>0 && r!=address(0) && n+m>=m) {\n        updateTotalOutOnInsertTransfer_r20(s,n);\n        updateTotalInOnInsertTransfer_r31(r,n);\n        emit Transfer(s,r,n);\n        return true;\n      }\n      return false;\n  }\n  function updateTotalOutOnInsertTransfer_r20(address p,uint n) private    {\n      int delta0 = int(n);\n      updateBalanceOfOnIncrementTotalOut_r15(p,delta0);\n      totalOut[p].n += n;\n  }\n  function updateAllMintOnInsertConstructor_r9(uint n) private    {\n      allMint = AllMintTuple(n,true);\n  }\n  function updateFreezeOfOnIncrementTotalFreeze_r12(address p,int f) private    {\n      int delta0 = int(f);\n      updateBalanceOfOnIncrementFreezeOf_r15(p,delta0);\n      int _delta = int(f);\n      uint newValue = updateuintByint(freezeOf[p].n,_delta);\n      freezeOf[p].n = newValue;\n  }\n  function updateBalanceOfOnIncrementFreezeOf_r15(address p,int f) private    {\n      int _delta = int(-f);\n      uint newValue = updateuintByint(balanceOf[p].n,_delta);\n      balanceOf[p].n = newValue;\n  }\n  function updateBalanceOfOnInsertConstructor_r4(uint n) private    {\n      address s = msg.sender;\n      balanceOf[s] = BalanceOfTuple(n,true);\n  }\n  function updateAllowanceOnIncrementAllowanceTotal_r26(address o,address s,int m) private    {\n      int _delta = int(m);\n      uint newValue = updateuintByint(allowance[o][s].n,_delta);\n      allowance[o][s].n = newValue;\n  }\n  function updateBalanceOfOnIncrementTotalBurn_r15(address p,int m) private    {\n      int _delta = int(-m);\n      uint newValue = updateuintByint(balanceOf[p].n,_delta);\n      balanceOf[p].n = newValue;\n  }\n  function updateTotalInOnInsertConstructor_r30(uint n) private    {\n      address s = msg.sender;\n      totalIn[s] = TotalInTuple(n,true);\n  }\n  function updateTotalBalancesOnInsertConstructor_r25(uint n) private    {\n      // Empty()\n  }\n  function updateTransferOnInsertTransferFrom_r1(address o,address r,uint n) private    {\n      updateTotalInOnInsertTransfer_r31(r,n);\n      updateTotalOutOnInsertTransfer_r20(o,n);\n      emit Transfer(o,r,n);\n  }\n  function updateFreezeOnInsertRecv_freeze_r24(uint n) private   returns (bool) {\n      address p = msg.sender;\n      uint m = balanceOf[p].n;\n      if(n<=m && n>0) {\n        updateTotalFreezeOnInsertFreeze_r0(p,n);\n        emit Freeze(p,n);\n        return true;\n      }\n      return false;\n  }\n  function updateAllBurnOnInsertBurn_r28(uint n) private    {\n      int delta0 = int(n);\n      updateTotalSupplyOnIncrementAllBurn_r19(delta0);\n      allBurn.n += n;\n  }\n  function updateUnfreezeOnInsertRecv_unfreeze_r6(uint n) private   returns (bool) {\n      address p = msg.sender;\n      uint m = freezeOf[p].n;\n      if(n<=m && n>0) {\n        updateTotalUnfreezeOnInsertUnfreeze_r13(p,n);\n        emit Unfreeze(p,n);\n        return true;\n      }\n      return false;\n  }\n  function updateBalanceOfOnIncrementTotalOut_r15(address p,int o) private    {\n      int _delta = int(-o);\n      uint newValue = updateuintByint(balanceOf[p].n,_delta);\n      balanceOf[p].n = newValue;\n  }\n  function updateAllowanceOnIncrementSpentTotal_r26(address o,address s,int l) private    {\n      int _delta = int(-l);\n      uint newValue = updateuintByint(allowance[o][s].n,_delta);\n      allowance[o][s].n = newValue;\n  }\n  function updateIncreaseAllowanceOnInsertRecv_approve_r29(address s,uint n) private   returns (bool) {\n      address o = msg.sender;\n      uint m = allowance[o][s].n;\n      uint d = n-m;\n      updateAllowanceTotalOnInsertIncreaseAllowance_r33(o,s,d);\n      emit IncreaseAllowance(o,s,d);\n      return true;\n      return false;\n  }\n  function updateuintByint(uint x,int delta) private   returns (uint) {\n      int convertedX = int(x);\n      int value = convertedX+delta;\n      uint convertedValue = uint(value);\n      return convertedValue;\n  }\n  function updateTotalFreezeOnInsertFreeze_r0(address p,uint n) private    {\n      int delta0 = int(n);\n      updateFreezeOfOnIncrementTotalFreeze_r12(p,delta0);\n      totalFreeze[p].n += n;\n  }\n  function updateTotalUnfreezeOnInsertUnfreeze_r13(address p,uint n) private    {\n      int delta0 = int(n);\n      updateFreezeOfOnIncrementTotalUnfreeze_r12(p,delta0);\n      totalUnfreeze[p].n += n;\n  }\n  function updateBurnOnInsertRecv_burn_r16(uint n) private   returns (bool) {\n      address p = msg.sender;\n      uint m = balanceOf[p].n;\n      if(p!=address(0) && n<=m) {\n        updateAllBurnOnInsertBurn_r28(n);\n        updateTotalBurnOnInsertBurn_r17(p,n);\n        emit Burn(p,n);\n        return true;\n      }\n      return false;\n  }\n  function updateSendOnInsertWithdrawEther_r3(address p,uint n) private    {\n      payable(p).send(n);\n  }\n  function updateTotalSupplyOnInsertConstructor_r5(uint n) private    {\n      totalSupply = TotalSupplyTuple(n,true);\n  }\n  function updateTotalSupplyOnIncrementAllBurn_r19(int b) private    {\n      int _delta = int(-b);\n      uint newValue = updateuintByint(totalSupply.n,_delta);\n      totalSupply.n = newValue;\n  }\n  function updateAllowanceTotalOnInsertIncreaseAllowance_r33(address o,address s,uint n) private    {\n      int delta0 = int(n);\n      updateAllowanceOnIncrementAllowanceTotal_r26(o,s,delta0);\n      allowanceTotal[o][s].m += n;\n  }\n  function updateSpentTotalOnInsertTransferFrom_r22(address o,address s,uint n) private    {\n      int delta0 = int(n);\n      updateAllowanceOnIncrementSpentTotal_r26(o,s,delta0);\n      spentTotal[o][s].m += n;\n  }\n  function updateWithdrawEtherOnInsertRecv_withdrawEther_r23(uint n) private   returns (bool) {\n      address p = owner.p;\n      if(p==msg.sender) {\n        updateSendOnInsertWithdrawEther_r3(p,n);\n        emit WithdrawEther(p,n);\n        return true;\n      }\n      return false;\n  }\n  function updateTotalMintOnInsertConstructor_r32(uint n) private    {\n      address s = msg.sender;\n      totalMint[s] = TotalMintTuple(n,true);\n  }\n}",
  "sourcePath": "/Users/ljy/Desktop/PENN/2023_summer/boon_dsc/smart-contracts/optimizations/full/contracts/bnb.sol",
  "compiler": {
    "name": "solc",
    "version": "0.8.12+commit.f00d7308.Emscripten.clang"
  },
  "schemaVersion": "3.4.16",
  "updatedAt": "2023-12-28T07:17:25.644Z",
  "devdoc": {
    "kind": "dev",
    "methods": {},
    "version": 1
  },
  "userdoc": {
    "kind": "user",
    "methods": {},
    "version": 1
  }
}