{
  "contractName": "Bnb",
  "abi": [
    {
      "inputs": [
        {
          "internalType": "uint256",
          "name": "initialSupply",
          "type": "uint256"
        }
      ],
      "stateMutability": "nonpayable",
      "type": "constructor"
    },
    {
      "anonymous": false,
      "inputs": [
        {
          "indexed": false,
          "internalType": "address",
          "name": "p",
          "type": "address"
        },
        {
          "indexed": false,
          "internalType": "uint256",
          "name": "amount",
          "type": "uint256"
        }
      ],
      "name": "Burn",
      "type": "event"
    },
    {
      "anonymous": false,
      "inputs": [
        {
          "indexed": false,
          "internalType": "address",
          "name": "p",
          "type": "address"
        },
        {
          "indexed": false,
          "internalType": "uint256",
          "name": "n",
          "type": "uint256"
        }
      ],
      "name": "Freeze",
      "type": "event"
    },
    {
      "anonymous": false,
      "inputs": [
        {
          "indexed": false,
          "internalType": "address",
          "name": "p",
          "type": "address"
        },
        {
          "indexed": false,
          "internalType": "address",
          "name": "s",
          "type": "address"
        },
        {
          "indexed": false,
          "internalType": "uint256",
          "name": "n",
          "type": "uint256"
        }
      ],
      "name": "IncreaseAllowance",
      "type": "event"
    },
    {
      "anonymous": false,
      "inputs": [
        {
          "indexed": false,
          "internalType": "address",
          "name": "p",
          "type": "address"
        },
        {
          "indexed": false,
          "internalType": "uint256",
          "name": "amount",
          "type": "uint256"
        }
      ],
      "name": "Mint",
      "type": "event"
    },
    {
      "anonymous": false,
      "inputs": [
        {
          "indexed": false,
          "internalType": "address",
          "name": "from",
          "type": "address"
        },
        {
          "indexed": false,
          "internalType": "address",
          "name": "to",
          "type": "address"
        },
        {
          "indexed": false,
          "internalType": "uint256",
          "name": "amount",
          "type": "uint256"
        }
      ],
      "name": "Transfer",
      "type": "event"
    },
    {
      "anonymous": false,
      "inputs": [
        {
          "indexed": false,
          "internalType": "address",
          "name": "from",
          "type": "address"
        },
        {
          "indexed": false,
          "internalType": "address",
          "name": "to",
          "type": "address"
        },
        {
          "indexed": false,
          "internalType": "address",
          "name": "spender",
          "type": "address"
        },
        {
          "indexed": false,
          "internalType": "uint256",
          "name": "amount",
          "type": "uint256"
        }
      ],
      "name": "TransferFrom",
      "type": "event"
    },
    {
      "anonymous": false,
      "inputs": [
        {
          "indexed": false,
          "internalType": "address",
          "name": "p",
          "type": "address"
        },
        {
          "indexed": false,
          "internalType": "uint256",
          "name": "n",
          "type": "uint256"
        }
      ],
      "name": "Unfreeze",
      "type": "event"
    },
    {
      "anonymous": false,
      "inputs": [
        {
          "indexed": false,
          "internalType": "address",
          "name": "p",
          "type": "address"
        },
        {
          "indexed": false,
          "internalType": "uint256",
          "name": "amount",
          "type": "uint256"
        }
      ],
      "name": "WithdrawEther",
      "type": "event"
    },
    {
      "inputs": [
        {
          "internalType": "address",
          "name": "p",
          "type": "address"
        },
        {
          "internalType": "address",
          "name": "s",
          "type": "address"
        }
      ],
      "name": "getAllowance",
      "outputs": [
        {
          "internalType": "uint256",
          "name": "",
          "type": "uint256"
        }
      ],
      "stateMutability": "view",
      "type": "function"
    },
    {
      "inputs": [
        {
          "internalType": "address",
          "name": "p",
          "type": "address"
        },
        {
          "internalType": "uint256",
          "name": "amount",
          "type": "uint256"
        }
      ],
      "name": "mint",
      "outputs": [],
      "stateMutability": "nonpayable",
      "type": "function"
    },
    {
      "inputs": [
        {
          "internalType": "address",
          "name": "to",
          "type": "address"
        },
        {
          "internalType": "uint256",
          "name": "amount",
          "type": "uint256"
        }
      ],
      "name": "transfer",
      "outputs": [],
      "stateMutability": "nonpayable",
      "type": "function"
    },
    {
      "inputs": [],
      "name": "getTotalSupply",
      "outputs": [
        {
          "internalType": "uint256",
          "name": "",
          "type": "uint256"
        }
      ],
      "stateMutability": "view",
      "type": "function"
    },
    {
      "inputs": [
        {
          "internalType": "uint256",
          "name": "n",
          "type": "uint256"
        }
      ],
      "name": "freeze",
      "outputs": [],
      "stateMutability": "nonpayable",
      "type": "function"
    },
    {
      "inputs": [
        {
          "internalType": "address",
          "name": "p",
          "type": "address"
        },
        {
          "internalType": "uint256",
          "name": "amount",
          "type": "uint256"
        }
      ],
      "name": "burn",
      "outputs": [],
      "stateMutability": "nonpayable",
      "type": "function"
    },
    {
      "inputs": [
        {
          "internalType": "uint256",
          "name": "amount",
          "type": "uint256"
        }
      ],
      "name": "withdrawEther",
      "outputs": [],
      "stateMutability": "nonpayable",
      "type": "function"
    },
    {
      "inputs": [
        {
          "internalType": "address",
          "name": "s",
          "type": "address"
        },
        {
          "internalType": "uint256",
          "name": "n",
          "type": "uint256"
        }
      ],
      "name": "approve",
      "outputs": [],
      "stateMutability": "nonpayable",
      "type": "function"
    },
    {
      "inputs": [
        {
          "internalType": "uint256",
          "name": "n",
          "type": "uint256"
        }
      ],
      "name": "unfreeze",
      "outputs": [],
      "stateMutability": "nonpayable",
      "type": "function"
    },
    {
      "inputs": [
        {
          "internalType": "address",
          "name": "p",
          "type": "address"
        }
      ],
      "name": "getBalanceOf",
      "outputs": [
        {
          "internalType": "uint256",
          "name": "",
          "type": "uint256"
        }
      ],
      "stateMutability": "view",
      "type": "function"
    },
    {
      "inputs": [
        {
          "internalType": "address",
          "name": "from",
          "type": "address"
        },
        {
          "internalType": "address",
          "name": "to",
          "type": "address"
        },
        {
          "internalType": "uint256",
          "name": "amount",
          "type": "uint256"
        }
      ],
      "name": "transferFrom",
      "outputs": [],
      "stateMutability": "nonpayable",
      "type": "function"
    }
  ],
  "bytecode": "0x60806040523480156200001157600080fd5b50604051620022ed380380620022ed83398181016040528101906200003791906200023d565b62000048816200008160201b60201c565b6200005981620000cb60201b60201c565b6200006a81620000ce60201b60201c565b6200007a6200015b60201b60201c565b506200026f565b60405180604001604052808281526020016001151581525060066000820151816000015560208201518160010160006101000a81548160ff02191690831515021790555090505050565b50565b6000339050604051806040016040528083815260200160011515815250600f60008373ffffffffffffffffffffffffffffffffffffffff1673ffffffffffffffffffffffffffffffffffffffff1681526020019081526020016000206000820151816000015560208201518160010160006101000a81548160ff0219169083151502179055509050505050565b600033905060405180604001604052808273ffffffffffffffffffffffffffffffffffffffff16815260200160011515815250600360008201518160000160006101000a81548173ffffffffffffffffffffffffffffffffffffffff021916908373ffffffffffffffffffffffffffffffffffffffff16021790555060208201518160000160146101000a81548160ff02191690831515021790555090505050565b600080fd5b6000819050919050565b620002178162000202565b81146200022357600080fd5b50565b60008151905062000237816200020c565b92915050565b600060208284031215620002565762000255620001fd565b5b6000620002668482850162000226565b91505092915050565b61206e806200027f6000396000f3fe608060405234801561001057600080fd5b50600436106100a95760003560e01c80636623fc46116100715780636623fc461461014e5780639b96eece1461016a5780639dc29fac1461019a578063a9059cbb146101b6578063c4e41b22146101d2578063d7a78db8146101f0576100a9565b8063095ea7b3146100ae5780630af4187d146100ca57806323b872dd146100fa5780633bed33ce1461011657806340c10f1914610132575b600080fd5b6100c860048036038101906100c39190611c10565b61020c565b005b6100e460048036038101906100df9190611c50565b610267565b6040516100f19190611c9f565b60405180910390f35b610114600480360381019061010f9190611cba565b61032c565b005b610130600480360381019061012b9190611d0d565b610389565b005b61014c60048036038101906101479190611c10565b6103e2565b005b61016860048036038101906101639190611d0d565b61043d565b005b610184600480360381019061017f9190611d3a565b610496565b6040516101919190611c9f565b60405180910390f35b6101b460048036038101906101af9190611c10565b61051d565b005b6101d060048036038101906101cb9190611c10565b610578565b005b6101da6105d3565b6040516101e79190611c9f565b60405180910390f35b61020a60048036038101906102059190611d0d565b6105e5565b005b6000610218838361063e565b9050600015158115151415610262576040517f08c379a000000000000000000000000000000000000000000000000000000000815260040161025990611dc4565b60405180910390fd5b505050565b600080600c60008573ffffffffffffffffffffffffffffffffffffffff1673ffffffffffffffffffffffffffffffffffffffff16815260200190815260200160002060008473ffffffffffffffffffffffffffffffffffffffff1673ffffffffffffffffffffffffffffffffffffffff168152602001908152602001600020604051806040016040529081600082015481526020016001820160009054906101000a900460ff1615151515815250509050600081600001519050809250505092915050565b6000610339848484610761565b9050600015158115151415610383576040517f08c379a000000000000000000000000000000000000000000000000000000000815260040161037a90611dc4565b60405180910390fd5b50505050565b600061039482610923565b90506000151581151514156103de576040517f08c379a00000000000000000000000000000000000000000000000000000000081526004016103d590611dc4565b60405180910390fd5b5050565b60006103ee83836109da565b9050600015158115151415610438576040517f08c379a000000000000000000000000000000000000000000000000000000000815260040161042f90611dc4565b60405180910390fd5b505050565b600061044882610ad0565b9050600015158115151415610492576040517f08c379a000000000000000000000000000000000000000000000000000000000815260040161048990611dc4565b60405180910390fd5b5050565b600080600f60008473ffffffffffffffffffffffffffffffffffffffff1673ffffffffffffffffffffffffffffffffffffffff168152602001908152602001600020604051806040016040529081600082015481526020016001820160009054906101000a900460ff16151515158152505090506000816000015190508092505050919050565b60006105298383610bc3565b9050600015158115151415610573576040517f08c379a000000000000000000000000000000000000000000000000000000000815260040161056a90611dc4565b60405180910390fd5b505050565b60006105848383610d47565b90506000151581151514156105ce576040517f08c379a00000000000000000000000000000000000000000000000000000000081526004016105c590611dc4565b60405180910390fd5b505050565b60008060066000015490508091505090565b60006105f082610e39565b905060001515811515141561063a576040517f08c379a000000000000000000000000000000000000000000000000000000000815260040161063190611dc4565b60405180910390fd5b5050565b6000803390506000600c60008373ffffffffffffffffffffffffffffffffffffffff1673ffffffffffffffffffffffffffffffffffffffff16815260200190815260200160002060008673ffffffffffffffffffffffffffffffffffffffff1673ffffffffffffffffffffffffffffffffffffffff168152602001908152602001600020604051806040016040529081600082015481526020016001820160009054906101000a900460ff16151515158152505090506000816000015190506000818661070b9190611e13565b9050610718848883610f2c565b7f01722f0e92ffd761d4a842cffdd36fe3adb6091e41732a4e714250176b7d8d2284888360405161074b93929190611e56565b60405180910390a1600194505050505092915050565b6000803390506000600c60008773ffffffffffffffffffffffffffffffffffffffff1673ffffffffffffffffffffffffffffffffffffffff16815260200190815260200160002060008373ffffffffffffffffffffffffffffffffffffffff1673ffffffffffffffffffffffffffffffffffffffff168152602001908152602001600020604051806040016040529081600082015481526020016001820160009054906101000a900460ff16151515158152505090506000816000015190506000600f60008973ffffffffffffffffffffffffffffffffffffffff1673ffffffffffffffffffffffffffffffffffffffff168152602001908152602001600020604051806040016040529081600082015481526020016001820160009054906101000a900460ff16151515158152505090506000816000015190508681101580156108ac5750868310155b15610912576108bc898689610fd8565b6108c7898989611084565b7f5f7542858008eeb041631f30e6109ae94b83a58e9a58261dd2c42c508850f9398989878a6040516108fc9493929190611e8d565b60405180910390a160019550505050505061091c565b6000955050505050505b9392505050565b600080600360000160009054906101000a900473ffffffffffffffffffffffffffffffffffffffff1690503373ffffffffffffffffffffffffffffffffffffffff168173ffffffffffffffffffffffffffffffffffffffff1614156109cf5761098c81846110d8565b7fdb35132c111efe920cede025e819975671cfd1b8fcc1174762c8670c4e94c21181846040516109bd929190611ed2565b60405180910390a160019150506109d5565b60009150505b919050565b600080600360000160009054906101000a900473ffffffffffffffffffffffffffffffffffffffff1690503373ffffffffffffffffffffffffffffffffffffffff168173ffffffffffffffffffffffffffffffffffffffff161415610ac457600073ffffffffffffffffffffffffffffffffffffffff168473ffffffffffffffffffffffffffffffffffffffff1614610ac357610a778484611112565b610a808361117f565b7f0f6798a560793a54c3bcfe86a93cde1e73087d944c0ea20544137d41213968858484604051610ab1929190611ed2565b60405180910390a16001915050610aca565b5b60009150505b92915050565b6000803390506000600460008373ffffffffffffffffffffffffffffffffffffffff1673ffffffffffffffffffffffffffffffffffffffff168152602001908152602001600020604051806040016040529081600082015481526020016001820160009054906101000a900460ff1615151515815250509050600081600001519050808511158015610b625750600085115b15610bb657610b7183866111ad565b7f2cfce4af01bcb9d6cf6c84ee1b7c491100b8695368264146a94d71e10a63083f8386604051610ba2929190611ed2565b60405180910390a160019350505050610bbe565b600093505050505b919050565b600080600360000160009054906101000a900473ffffffffffffffffffffffffffffffffffffffff1690503373ffffffffffffffffffffffffffffffffffffffff168173ffffffffffffffffffffffffffffffffffffffff161415610d3b576000600f60008673ffffffffffffffffffffffffffffffffffffffff1673ffffffffffffffffffffffffffffffffffffffff168152602001908152602001600020604051806040016040529081600082015481526020016001820160009054906101000a900460ff1615151515815250509050600081600001519050600073ffffffffffffffffffffffffffffffffffffffff168673ffffffffffffffffffffffffffffffffffffffff1614158015610cdb5750808511155b15610d3857610cea868661121a565b610cf385611287565b7fcc16f5dbb4873280815c1ee09dbd06736cffcc184412cf7a71a0fdb75d397ca58686604051610d24929190611ed2565b60405180910390a160019350505050610d41565b50505b60009150505b92915050565b6000803390506000600f60008373ffffffffffffffffffffffffffffffffffffffff1673ffffffffffffffffffffffffffffffffffffffff168152602001908152602001600020604051806040016040529081600082015481526020016001820160009054906101000a900460ff1615151515815250509050600081600001519050808511610e2b57610dda83866112b5565b610de48686611322565b7fddf252ad1be2c89b69c2b068fc378daa952ba7f163c4a11628f55a4df523b3ef838787604051610e1793929190611e56565b60405180910390a160019350505050610e33565b600093505050505b92915050565b6000803390506000600f60008373ffffffffffffffffffffffffffffffffffffffff1673ffffffffffffffffffffffffffffffffffffffff168152602001908152602001600020604051806040016040529081600082015481526020016001820160009054906101000a900460ff1615151515815250509050600081600001519050808511158015610ecb5750600085115b15610f1f57610eda838661138e565b7ff97a274face0b5517365ad396b1fdba6f68bd3135ef603e44272adba3af5a1e08386604051610f0b929190611ed2565b60405180910390a160019350505050610f27565b600093505050505b919050565b6000819050610f3c8484836113fb565b81600a60008673ffffffffffffffffffffffffffffffffffffffff1673ffffffffffffffffffffffffffffffffffffffff16815260200190815260200160002060008573ffffffffffffffffffffffffffffffffffffffff1673ffffffffffffffffffffffffffffffffffffffff1681526020019081526020016000206000016000828254610fcb9190611efb565b9250508190555050505050565b6000819050610fe8848483611518565b81600b60008673ffffffffffffffffffffffffffffffffffffffff1673ffffffffffffffffffffffffffffffffffffffff16815260200190815260200160002060008573ffffffffffffffffffffffffffffffffffffffff1673ffffffffffffffffffffffffffffffffffffffff16815260200190815260200160002060000160008282546110779190611efb565b9250508190555050505050565b61108e8282611322565b61109883826112b5565b7fddf252ad1be2c89b69c2b068fc378daa952ba7f163c4a11628f55a4df523b3ef8383836040516110cb93929190611e56565b60405180910390a1505050565b8173ffffffffffffffffffffffffffffffffffffffff166108fc829081150290604051600060405180830381858888f19350505050505050565b6000819050611121838261163e565b81600560008573ffffffffffffffffffffffffffffffffffffffff1673ffffffffffffffffffffffffffffffffffffffff16815260200190815260200160002060000160008282546111739190611efb565b92505081905550505050565b600081905061118d816116e0565b81600860000160008282546111a29190611efb565b925050819055505050565b60008190506111bc8382611707565b81600d60008573ffffffffffffffffffffffffffffffffffffffff1673ffffffffffffffffffffffffffffffffffffffff168152602001908152602001600020600001600082825461120e9190611efb565b92505081905550505050565b600081905061122983826117cb565b81600e60008573ffffffffffffffffffffffffffffffffffffffff1673ffffffffffffffffffffffffffffffffffffffff168152602001908152602001600020600001600082825461127b9190611efb565b92505081905550505050565b600081905061129581611876565b81601060000160008282546112aa9190611efb565b925050819055505050565b60008190506112c483826118a6565b81600160008573ffffffffffffffffffffffffffffffffffffffff1673ffffffffffffffffffffffffffffffffffffffff16815260200190815260200160002060000160008282546113169190611efb565b92505081905550505050565b60008190506113318382611951565b816000808573ffffffffffffffffffffffffffffffffffffffff1673ffffffffffffffffffffffffffffffffffffffff16815260200190815260200160002060000160008282546113829190611efb565b92505081905550505050565b600081905061139d83826119f3565b81600260008573ffffffffffffffffffffffffffffffffffffffff1673ffffffffffffffffffffffffffffffffffffffff16815260200190815260200160002060000160008282546113ef9190611efb565b92505081905550505050565b6000819050600061148b600c60008773ffffffffffffffffffffffffffffffffffffffff1673ffffffffffffffffffffffffffffffffffffffff16815260200190815260200160002060008673ffffffffffffffffffffffffffffffffffffffff1673ffffffffffffffffffffffffffffffffffffffff1681526020019081526020016000206000015483611aa5565b905080600c60008773ffffffffffffffffffffffffffffffffffffffff1673ffffffffffffffffffffffffffffffffffffffff16815260200190815260200160002060008673ffffffffffffffffffffffffffffffffffffffff1673ffffffffffffffffffffffffffffffffffffffff168152602001908152602001600020600001819055505050505050565b60008161152490611f5b565b905060006115b1600c60008773ffffffffffffffffffffffffffffffffffffffff1673ffffffffffffffffffffffffffffffffffffffff16815260200190815260200160002060008673ffffffffffffffffffffffffffffffffffffffff1673ffffffffffffffffffffffffffffffffffffffff1681526020019081526020016000206000015483611aa5565b905080600c60008773ffffffffffffffffffffffffffffffffffffffff1673ffffffffffffffffffffffffffffffffffffffff16815260200190815260200160002060008673ffffffffffffffffffffffffffffffffffffffff1673ffffffffffffffffffffffffffffffffffffffff168152602001908152602001600020600001819055505050505050565b60008190506000611691600f60008673ffffffffffffffffffffffffffffffffffffffff1673ffffffffffffffffffffffffffffffffffffffff1681526020019081526020016000206000015483611aa5565b905080600f60008673ffffffffffffffffffffffffffffffffffffffff1673ffffffffffffffffffffffffffffffffffffffff1681526020019081526020016000206000018190555050505050565b600081905060006116f660066000015483611aa5565b905080600660000181905550505050565b60008161171390611f5b565b905061171f8382611acc565b60008261172b90611f5b565b9050600061177b600460008773ffffffffffffffffffffffffffffffffffffffff1673ffffffffffffffffffffffffffffffffffffffff1681526020019081526020016000206000015483611aa5565b905080600460008773ffffffffffffffffffffffffffffffffffffffff1673ffffffffffffffffffffffffffffffffffffffff168152602001908152602001600020600001819055505050505050565b6000816117d790611f5b565b90506000611827600f60008673ffffffffffffffffffffffffffffffffffffffff1673ffffffffffffffffffffffffffffffffffffffff1681526020019081526020016000206000015483611aa5565b905080600f60008673ffffffffffffffffffffffffffffffffffffffff1673ffffffffffffffffffffffffffffffffffffffff1681526020019081526020016000206000018190555050505050565b60008161188290611f5b565b9050600061189560066000015483611aa5565b905080600660000181905550505050565b6000816118b290611f5b565b90506000611902600f60008673ffffffffffffffffffffffffffffffffffffffff1673ffffffffffffffffffffffffffffffffffffffff1681526020019081526020016000206000015483611aa5565b905080600f60008673ffffffffffffffffffffffffffffffffffffffff1673ffffffffffffffffffffffffffffffffffffffff1681526020019081526020016000206000018190555050505050565b600081905060006119a4600f60008673ffffffffffffffffffffffffffffffffffffffff1673ffffffffffffffffffffffffffffffffffffffff1681526020019081526020016000206000015483611aa5565b905080600f60008673ffffffffffffffffffffffffffffffffffffffff1673ffffffffffffffffffffffffffffffffffffffff1681526020019081526020016000206000018190555050505050565b6000819050611a028382611acc565b60008290506000611a55600460008773ffffffffffffffffffffffffffffffffffffffff1673ffffffffffffffffffffffffffffffffffffffff1681526020019081526020016000206000015483611aa5565b905080600460008773ffffffffffffffffffffffffffffffffffffffff1673ffffffffffffffffffffffffffffffffffffffff168152602001908152602001600020600001819055505050505050565b60008083905060008382611ab99190611fa4565b9050600081905080935050505092915050565b600081611ad890611f5b565b90506000611b28600f60008673ffffffffffffffffffffffffffffffffffffffff1673ffffffffffffffffffffffffffffffffffffffff1681526020019081526020016000206000015483611aa5565b905080600f60008673ffffffffffffffffffffffffffffffffffffffff1673ffffffffffffffffffffffffffffffffffffffff1681526020019081526020016000206000018190555050505050565b600080fd5b600073ffffffffffffffffffffffffffffffffffffffff82169050919050565b6000611ba782611b7c565b9050919050565b611bb781611b9c565b8114611bc257600080fd5b50565b600081359050611bd481611bae565b92915050565b6000819050919050565b611bed81611bda565b8114611bf857600080fd5b50565b600081359050611c0a81611be4565b92915050565b60008060408385031215611c2757611c26611b77565b5b6000611c3585828601611bc5565b9250506020611c4685828601611bfb565b9150509250929050565b60008060408385031215611c6757611c66611b77565b5b6000611c7585828601611bc5565b9250506020611c8685828601611bc5565b9150509250929050565b611c9981611bda565b82525050565b6000602082019050611cb46000830184611c90565b92915050565b600080600060608486031215611cd357611cd2611b77565b5b6000611ce186828701611bc5565b9350506020611cf286828701611bc5565b9250506040611d0386828701611bfb565b9150509250925092565b600060208284031215611d2357611d22611b77565b5b6000611d3184828501611bfb565b91505092915050565b600060208284031215611d5057611d4f611b77565b5b6000611d5e84828501611bc5565b91505092915050565b600082825260208201905092915050565b7f52756c6520636f6e646974696f6e206661696c65640000000000000000000000600082015250565b6000611dae601583611d67565b9150611db982611d78565b602082019050919050565b60006020820190508181036000830152611ddd81611da1565b9050919050565b7f4e487b7100000000000000000000000000000000000000000000000000000000600052601160045260246000fd5b6000611e1e82611bda565b9150611e2983611bda565b925082821015611e3c57611e3b611de4565b5b828203905092915050565b611e5081611b9c565b82525050565b6000606082019050611e6b6000830186611e47565b611e786020830185611e47565b611e856040830184611c90565b949350505050565b6000608082019050611ea26000830187611e47565b611eaf6020830186611e47565b611ebc6040830185611e47565b611ec96060830184611c90565b95945050505050565b6000604082019050611ee76000830185611e47565b611ef46020830184611c90565b9392505050565b6000611f0682611bda565b9150611f1183611bda565b9250827fffffffffffffffffffffffffffffffffffffffffffffffffffffffffffffffff03821115611f4657611f45611de4565b5b828201905092915050565b6000819050919050565b6000611f6682611f51565b91507f8000000000000000000000000000000000000000000000000000000000000000821415611f9957611f98611de4565b5b816000039050919050565b6000611faf82611f51565b9150611fba83611f51565b9250817f7fffffffffffffffffffffffffffffffffffffffffffffffffffffffffffffff03831360008312151615611ff557611ff4611de4565b5b817f800000000000000000000000000000000000000000000000000000000000000003831260008312161561202d5761202c611de4565b5b82820190509291505056fea26469706673582212202d5d68530eb7e3fa7c462b10a1b7188e630afdc56cda219b0875362bad57ed8964736f6c634300080c0033",
  "immutableReferences": {},
  "source": "contract Bnb {\n  struct TotalOutTuple {\n    uint n;\n    bool _valid;\n  }\n  struct TotalFreezeTuple {\n    uint n;\n    bool _valid;\n  }\n  struct TotalMintTuple {\n    uint n;\n    bool _valid;\n  }\n  struct TotalSupplyTuple {\n    uint n;\n    bool _valid;\n  }\n  struct AllMintTuple {\n    uint n;\n    bool _valid;\n  }\n  struct SpentTotalTuple {\n    uint m;\n    bool _valid;\n  }\n  struct AllowanceTuple {\n    uint n;\n    bool _valid;\n  }\n  struct TotalInTuple {\n    uint n;\n    bool _valid;\n  }\n  struct TotalUnfreezeTuple {\n    uint n;\n    bool _valid;\n  }\n  struct TotalBurnTuple {\n    uint n;\n    bool _valid;\n  }\n  struct OwnerTuple {\n    address p;\n    bool _valid;\n  }\n  struct FreezeOfTuple {\n    uint n;\n    bool _valid;\n  }\n  struct AllowanceTotalTuple {\n    uint m;\n    bool _valid;\n  }\n  struct BalanceOfTuple {\n    uint n;\n    bool _valid;\n  }\n  struct AllBurnTuple {\n    uint n;\n    bool _valid;\n  }\n  mapping(address=>TotalInTuple) totalIn;\n  mapping(address=>TotalOutTuple) totalOut;\n  mapping(address=>TotalFreezeTuple) totalFreeze;\n  OwnerTuple owner;\n  mapping(address=>FreezeOfTuple) freezeOf;\n  mapping(address=>TotalMintTuple) totalMint;\n  TotalSupplyTuple totalSupply;\n  AllMintTuple allMint;\n  mapping(address=>mapping(address=>AllowanceTotalTuple)) allowanceTotal;\n  mapping(address=>mapping(address=>SpentTotalTuple)) spentTotal;\n  mapping(address=>mapping(address=>AllowanceTuple)) allowance;\n  mapping(address=>TotalUnfreezeTuple) totalUnfreeze;\n  mapping(address=>TotalBurnTuple) totalBurn;\n  mapping(address=>BalanceOfTuple) balanceOf;\n  AllBurnTuple allBurn;\n  event TransferFrom(address from,address to,address spender,uint amount);\n  event Burn(address p,uint amount);\n  event Mint(address p,uint amount);\n  event WithdrawEther(address p,uint amount);\n  event IncreaseAllowance(address p,address s,uint n);\n  event Unfreeze(address p,uint n);\n  event Freeze(address p,uint n);\n  event Transfer(address from,address to,uint amount);\n  constructor(uint initialSupply) public {\n    updateTotalSupplyOnInsertConstructor_r5(initialSupply);\n    updateTotalBalancesOnInsertConstructor_r25(initialSupply);\n    updateBalanceOfOnInsertConstructor_r18(initialSupply);\n    updateOwnerOnInsertConstructor_r9();\n  }\n  function getAllowance(address p,address s) public view  returns (uint) {\n      AllowanceTuple memory allowanceTuple = allowance[p][s];\n      uint n = allowanceTuple.n;\n      return n;\n  }\n  function mint(address p,uint amount) public    {\n      bool r27 = updateMintOnInsertRecv_mint_r27(p,amount);\n      if(r27==false) {\n        revert(\"Rule condition failed\");\n      }\n  }\n  function transfer(address to,uint amount) public    {\n      bool r19 = updateTransferOnInsertRecv_transfer_r19(to,amount);\n      if(r19==false) {\n        revert(\"Rule condition failed\");\n      }\n  }\n  function getTotalSupply() public view  returns (uint) {\n      uint n = totalSupply.n;\n      return n;\n  }\n  function freeze(uint n) public    {\n      bool r24 = updateFreezeOnInsertRecv_freeze_r24(n);\n      if(r24==false) {\n        revert(\"Rule condition failed\");\n      }\n  }\n  function burn(address p,uint amount) public    {\n      bool r17 = updateBurnOnInsertRecv_burn_r17(p,amount);\n      if(r17==false) {\n        revert(\"Rule condition failed\");\n      }\n  }\n  function withdrawEther(uint amount) public    {\n      bool r23 = updateWithdrawEtherOnInsertRecv_withdrawEther_r23(amount);\n      if(r23==false) {\n        revert(\"Rule condition failed\");\n      }\n  }\n  function approve(address s,uint n) public    {\n      bool r28 = updateIncreaseAllowanceOnInsertRecv_approve_r28(s,n);\n      if(r28==false) {\n        revert(\"Rule condition failed\");\n      }\n  }\n  function unfreeze(uint n) public    {\n      bool r6 = updateUnfreezeOnInsertRecv_unfreeze_r6(n);\n      if(r6==false) {\n        revert(\"Rule condition failed\");\n      }\n  }\n  function getBalanceOf(address p) public view  returns (uint) {\n      BalanceOfTuple memory balanceOfTuple = balanceOf[p];\n      uint n = balanceOfTuple.n;\n      return n;\n  }\n  function transferFrom(address from,address to,uint amount) public    {\n      bool r29 = updateTransferFromOnInsertRecv_transferFrom_r29(from,to,amount);\n      if(r29==false) {\n        revert(\"Rule condition failed\");\n      }\n  }\n  function updateOwnerOnInsertConstructor_r9() private    {\n      address s = msg.sender;\n      owner = OwnerTuple(s,true);\n  }\n  function updateTotalBurnOnInsertBurn_r14(address p,uint n) private    {\n      int delta0 = int(n);\n      updateBalanceOfOnIncrementTotalBurn_r2(p,delta0);\n      totalBurn[p].n += n;\n  }\n  function updateAllMintOnInsertMint_r10(uint n) private    {\n      int delta0 = int(n);\n      updateTotalSupplyOnIncrementAllMint_r16(delta0);\n      allMint.n += n;\n  }\n  function updateSendOnInsertWithdrawEther_r4(address p,uint n) private    {\n      payable(p).send(n);\n  }\n  function updateUnfreezeOnInsertRecv_unfreeze_r6(uint n) private   returns (bool) {\n      address p = msg.sender;\n      FreezeOfTuple memory freezeOfTuple = freezeOf[p];\n      uint m = freezeOfTuple.n;\n      if(n<=m && n>0) {\n        updateTotalUnfreezeOnInsertUnfreeze_r13(p,n);\n        emit Unfreeze(p,n);\n        return true;\n      }\n      return false;\n  }\n  function updateTransferOnInsertTransferFrom_r1(address o,address r,uint n) private    {\n      updateTotalInOnInsertTransfer_r7(r,n);\n      updateTotalOutOnInsertTransfer_r20(o,n);\n      emit Transfer(o,r,n);\n  }\n  function updateIncreaseAllowanceOnInsertRecv_approve_r28(address s,uint n) private   returns (bool) {\n      address o = msg.sender;\n      AllowanceTuple memory allowanceTuple = allowance[o][s];\n      uint m = allowanceTuple.n;\n      uint d = n-m;\n      updateAllowanceTotalOnInsertIncreaseAllowance_r8(o,s,d);\n      emit IncreaseAllowance(o,s,d);\n      return true;\n      return false;\n  }\n  function updateTotalSupplyOnInsertConstructor_r5(uint n) private    {\n      totalSupply = TotalSupplyTuple(n,true);\n  }\n  function updateBurnOnInsertRecv_burn_r17(address p,uint n) private   returns (bool) {\n      address s = owner.p;\n      if(s==msg.sender) {\n        BalanceOfTuple memory balanceOfTuple = balanceOf[p];\n        uint m = balanceOfTuple.n;\n        if(p!=address(0) && n<=m) {\n          updateTotalBurnOnInsertBurn_r14(p,n);\n          updateAllBurnOnInsertBurn_r30(n);\n          emit Burn(p,n);\n          return true;\n        }\n      }\n      return false;\n  }\n  function updateTotalInOnInsertTransfer_r7(address p,uint n) private    {\n      int delta0 = int(n);\n      updateBalanceOfOnIncrementTotalIn_r2(p,delta0);\n      totalIn[p].n += n;\n  }\n  function updateWithdrawEtherOnInsertRecv_withdrawEther_r23(uint n) private   returns (bool) {\n      address p = owner.p;\n      if(p==msg.sender) {\n        updateSendOnInsertWithdrawEther_r4(p,n);\n        emit WithdrawEther(p,n);\n        return true;\n      }\n      return false;\n  }\n  function updateAllowanceOnIncrementAllowanceTotal_r26(address o,address s,int m) private    {\n      int _delta = int(m);\n      uint newValue = updateuintByint(allowance[o][s].n,_delta);\n      allowance[o][s].n = newValue;\n  }\n  function updateTotalMintOnInsertMint_r15(address p,uint n) private    {\n      int delta0 = int(n);\n      updateBalanceOfOnIncrementTotalMint_r2(p,delta0);\n      totalMint[p].n += n;\n  }\n  function updateTotalSupplyOnIncrementAllBurn_r16(int b) private    {\n      int _delta = int(-b);\n      uint newValue = updateuintByint(totalSupply.n,_delta);\n      totalSupply.n = newValue;\n  }\n  function updateBalanceOfOnIncrementTotalIn_r2(address p,int i) private    {\n      int _delta = int(i);\n      uint newValue = updateuintByint(balanceOf[p].n,_delta);\n      balanceOf[p].n = newValue;\n  }\n  function updateBalanceOfOnIncrementTotalMint_r2(address p,int n) private    {\n      int _delta = int(n);\n      uint newValue = updateuintByint(balanceOf[p].n,_delta);\n      balanceOf[p].n = newValue;\n  }\n  function updateTransferOnInsertRecv_transfer_r19(address r,uint n) private   returns (bool) {\n      address s = msg.sender;\n      BalanceOfTuple memory balanceOfTuple = balanceOf[s];\n      uint m = balanceOfTuple.n;\n      if(n<=m) {\n        updateTotalOutOnInsertTransfer_r20(s,n);\n        updateTotalInOnInsertTransfer_r7(r,n);\n        emit Transfer(s,r,n);\n        return true;\n      }\n      return false;\n  }\n  function updateTotalBalancesOnInsertConstructor_r25(uint n) private    {\n      // Empty()\n  }\n  function updateTransferFromOnInsertRecv_transferFrom_r29(address o,address r,uint n) private   returns (bool) {\n      address s = msg.sender;\n      AllowanceTuple memory allowanceTuple = allowance[o][s];\n      uint k = allowanceTuple.n;\n      BalanceOfTuple memory balanceOfTuple = balanceOf[o];\n      uint m = balanceOfTuple.n;\n      if(m>=n && k>=n) {\n        updateSpentTotalOnInsertTransferFrom_r22(o,s,n);\n        updateTransferOnInsertTransferFrom_r1(o,r,n);\n        emit TransferFrom(o,r,s,n);\n        return true;\n      }\n      return false;\n  }\n  function updateAllowanceOnIncrementSpentTotal_r26(address o,address s,int l) private    {\n      int _delta = int(-l);\n      uint newValue = updateuintByint(allowance[o][s].n,_delta);\n      allowance[o][s].n = newValue;\n  }\n  function updateuintByint(uint x,int delta) private   returns (uint) {\n      int convertedX = int(x);\n      int value = convertedX+delta;\n      uint convertedValue = uint(value);\n      return convertedValue;\n  }\n  function updateTotalFreezeOnInsertFreeze_r0(address p,uint n) private    {\n      int delta0 = int(n);\n      updateFreezeOfOnIncrementTotalFreeze_r12(p,delta0);\n      totalFreeze[p].n += n;\n  }\n  function updateTotalSupplyOnIncrementAllMint_r16(int m) private    {\n      int _delta = int(m);\n      uint newValue = updateuintByint(totalSupply.n,_delta);\n      totalSupply.n = newValue;\n  }\n  function updateFreezeOfOnIncrementTotalUnfreeze_r12(address p,int u) private    {\n      int delta0 = int(-u);\n      updateBalanceOfOnIncrementFreezeOf_r2(p,delta0);\n      int _delta = int(-u);\n      uint newValue = updateuintByint(freezeOf[p].n,_delta);\n      freezeOf[p].n = newValue;\n  }\n  function updateTotalUnfreezeOnInsertUnfreeze_r13(address p,uint n) private    {\n      int delta0 = int(n);\n      updateFreezeOfOnIncrementTotalUnfreeze_r12(p,delta0);\n      totalUnfreeze[p].n += n;\n  }\n  function updateBalanceOfOnIncrementFreezeOf_r2(address p,int f) private    {\n      int _delta = int(-f);\n      uint newValue = updateuintByint(balanceOf[p].n,_delta);\n      balanceOf[p].n = newValue;\n  }\n  function updateBalanceOfOnIncrementTotalOut_r2(address p,int o) private    {\n      int _delta = int(-o);\n      uint newValue = updateuintByint(balanceOf[p].n,_delta);\n      balanceOf[p].n = newValue;\n  }\n  function updateMintOnInsertRecv_mint_r27(address p,uint n) private   returns (bool) {\n      address s = owner.p;\n      if(s==msg.sender) {\n        if(p!=address(0)) {\n          updateTotalMintOnInsertMint_r15(p,n);\n          updateAllMintOnInsertMint_r10(n);\n          emit Mint(p,n);\n          return true;\n        }\n      }\n      return false;\n  }\n  function updateAllowanceTotalOnInsertIncreaseAllowance_r8(address o,address s,uint n) private    {\n      int delta0 = int(n);\n      updateAllowanceOnIncrementAllowanceTotal_r26(o,s,delta0);\n      allowanceTotal[o][s].m += n;\n  }\n  function updateTotalOutOnInsertTransfer_r20(address p,uint n) private    {\n      int delta0 = int(n);\n      updateBalanceOfOnIncrementTotalOut_r2(p,delta0);\n      totalOut[p].n += n;\n  }\n  function updateFreezeOnInsertRecv_freeze_r24(uint n) private   returns (bool) {\n      address p = msg.sender;\n      BalanceOfTuple memory balanceOfTuple = balanceOf[p];\n      uint m = balanceOfTuple.n;\n      if(n<=m && n>0) {\n        updateTotalFreezeOnInsertFreeze_r0(p,n);\n        emit Freeze(p,n);\n        return true;\n      }\n      return false;\n  }\n  function updateFreezeOfOnIncrementTotalFreeze_r12(address p,int f) private    {\n      int delta0 = int(f);\n      updateBalanceOfOnIncrementFreezeOf_r2(p,delta0);\n      int _delta = int(f);\n      uint newValue = updateuintByint(freezeOf[p].n,_delta);\n      freezeOf[p].n = newValue;\n  }\n  function updateBalanceOfOnIncrementTotalBurn_r2(address p,int m) private    {\n      int _delta = int(-m);\n      uint newValue = updateuintByint(balanceOf[p].n,_delta);\n      balanceOf[p].n = newValue;\n  }\n  function updateBalanceOfOnInsertConstructor_r18(uint n) private    {\n      address s = msg.sender;\n      balanceOf[s] = BalanceOfTuple(n,true);\n  }\n  function updateSpentTotalOnInsertTransferFrom_r22(address o,address s,uint n) private    {\n      int delta0 = int(n);\n      updateAllowanceOnIncrementSpentTotal_r26(o,s,delta0);\n      spentTotal[o][s].m += n;\n  }\n  function updateAllBurnOnInsertBurn_r30(uint n) private    {\n      int delta0 = int(n);\n      updateTotalSupplyOnIncrementAllBurn_r16(delta0);\n      allBurn.n += n;\n  }\n}",
  "sourcePath": "/Users/ljy/Desktop/PENN/2023_summer/boon_dsc/smart-contracts/optimizations/full/contracts/bnb.sol",
  "compiler": {
    "name": "solc",
    "version": "0.8.12+commit.f00d7308.Emscripten.clang"
  },
  "schemaVersion": "3.4.13",
  "updatedAt": "2023-07-06T19:12:01.902Z",
  "devdoc": {
    "kind": "dev",
    "methods": {},
    "version": 1
  },
  "userdoc": {
    "kind": "user",
    "methods": {},
    "version": 1
  }
}