{
  "contractName": "Bnb",
  "abi": [
    {
      "inputs": [
        {
          "internalType": "uint256",
          "name": "initialSupply",
          "type": "uint256"
        }
      ],
      "stateMutability": "nonpayable",
      "type": "constructor"
    },
    {
      "anonymous": false,
      "inputs": [
        {
          "indexed": false,
          "internalType": "address",
          "name": "p",
          "type": "address"
        },
        {
          "indexed": false,
          "internalType": "uint256",
          "name": "amount",
          "type": "uint256"
        }
      ],
      "name": "Burn",
      "type": "event"
    },
    {
      "anonymous": false,
      "inputs": [
        {
          "indexed": false,
          "internalType": "address",
          "name": "p",
          "type": "address"
        },
        {
          "indexed": false,
          "internalType": "uint256",
          "name": "n",
          "type": "uint256"
        }
      ],
      "name": "Freeze",
      "type": "event"
    },
    {
      "anonymous": false,
      "inputs": [
        {
          "indexed": false,
          "internalType": "address",
          "name": "p",
          "type": "address"
        },
        {
          "indexed": false,
          "internalType": "address",
          "name": "s",
          "type": "address"
        },
        {
          "indexed": false,
          "internalType": "uint256",
          "name": "n",
          "type": "uint256"
        }
      ],
      "name": "IncreaseAllowance",
      "type": "event"
    },
    {
      "anonymous": false,
      "inputs": [
        {
          "indexed": false,
          "internalType": "address",
          "name": "p",
          "type": "address"
        },
        {
          "indexed": false,
          "internalType": "uint256",
          "name": "amount",
          "type": "uint256"
        }
      ],
      "name": "Mint",
      "type": "event"
    },
    {
      "anonymous": false,
      "inputs": [
        {
          "indexed": false,
          "internalType": "address",
          "name": "from",
          "type": "address"
        },
        {
          "indexed": false,
          "internalType": "address",
          "name": "to",
          "type": "address"
        },
        {
          "indexed": false,
          "internalType": "uint256",
          "name": "amount",
          "type": "uint256"
        }
      ],
      "name": "Transfer",
      "type": "event"
    },
    {
      "anonymous": false,
      "inputs": [
        {
          "indexed": false,
          "internalType": "address",
          "name": "from",
          "type": "address"
        },
        {
          "indexed": false,
          "internalType": "address",
          "name": "to",
          "type": "address"
        },
        {
          "indexed": false,
          "internalType": "address",
          "name": "spender",
          "type": "address"
        },
        {
          "indexed": false,
          "internalType": "uint256",
          "name": "amount",
          "type": "uint256"
        }
      ],
      "name": "TransferFrom",
      "type": "event"
    },
    {
      "anonymous": false,
      "inputs": [
        {
          "indexed": false,
          "internalType": "address",
          "name": "p",
          "type": "address"
        },
        {
          "indexed": false,
          "internalType": "uint256",
          "name": "n",
          "type": "uint256"
        }
      ],
      "name": "Unfreeze",
      "type": "event"
    },
    {
      "anonymous": false,
      "inputs": [
        {
          "indexed": false,
          "internalType": "address",
          "name": "p",
          "type": "address"
        },
        {
          "indexed": false,
          "internalType": "uint256",
          "name": "amount",
          "type": "uint256"
        }
      ],
      "name": "WithdrawEther",
      "type": "event"
    },
    {
      "inputs": [
        {
          "internalType": "uint256",
          "name": "amount",
          "type": "uint256"
        }
      ],
      "name": "burn",
      "outputs": [],
      "stateMutability": "nonpayable",
      "type": "function"
    },
    {
      "inputs": [
        {
          "internalType": "address",
          "name": "p",
          "type": "address"
        },
        {
          "internalType": "address",
          "name": "s",
          "type": "address"
        }
      ],
      "name": "getAllowance",
      "outputs": [
        {
          "internalType": "uint256",
          "name": "",
          "type": "uint256"
        }
      ],
      "stateMutability": "view",
      "type": "function"
    },
    {
      "inputs": [
        {
          "internalType": "address",
          "name": "to",
          "type": "address"
        },
        {
          "internalType": "uint256",
          "name": "amount",
          "type": "uint256"
        }
      ],
      "name": "transfer",
      "outputs": [],
      "stateMutability": "nonpayable",
      "type": "function"
    },
    {
      "inputs": [],
      "name": "getTotalSupply",
      "outputs": [
        {
          "internalType": "uint256",
          "name": "",
          "type": "uint256"
        }
      ],
      "stateMutability": "view",
      "type": "function"
    },
    {
      "inputs": [
        {
          "internalType": "uint256",
          "name": "n",
          "type": "uint256"
        }
      ],
      "name": "freeze",
      "outputs": [],
      "stateMutability": "nonpayable",
      "type": "function"
    },
    {
      "inputs": [
        {
          "internalType": "uint256",
          "name": "amount",
          "type": "uint256"
        }
      ],
      "name": "withdrawEther",
      "outputs": [],
      "stateMutability": "payable",
      "type": "function"
    },
    {
      "inputs": [
        {
          "internalType": "address",
          "name": "s",
          "type": "address"
        },
        {
          "internalType": "uint256",
          "name": "n",
          "type": "uint256"
        }
      ],
      "name": "approve",
      "outputs": [],
      "stateMutability": "nonpayable",
      "type": "function"
    },
    {
      "inputs": [
        {
          "internalType": "uint256",
          "name": "n",
          "type": "uint256"
        }
      ],
      "name": "unfreeze",
      "outputs": [],
      "stateMutability": "nonpayable",
      "type": "function"
    },
    {
      "inputs": [
        {
          "internalType": "address",
          "name": "p",
          "type": "address"
        }
      ],
      "name": "getBalanceOf",
      "outputs": [
        {
          "internalType": "uint256",
          "name": "",
          "type": "uint256"
        }
      ],
      "stateMutability": "view",
      "type": "function"
    },
    {
      "inputs": [
        {
          "internalType": "address",
          "name": "from",
          "type": "address"
        },
        {
          "internalType": "address",
          "name": "to",
          "type": "address"
        },
        {
          "internalType": "uint256",
          "name": "amount",
          "type": "uint256"
        }
      ],
      "name": "transferFrom",
      "outputs": [],
      "stateMutability": "nonpayable",
      "type": "function"
    }
  ],
  "bytecode": "0x60806040523480156200001157600080fd5b506040516200201c3803806200201c83398181016040528101906200003791906200023d565b62000048816200008160201b60201c565b6200005981620000cb60201b60201c565b6200006a81620000ce60201b60201c565b6200007a6200015b60201b60201c565b506200026f565b60405180604001604052808281526020016001151581525060066000820151816000015560208201518160010160006101000a81548160ff02191690831515021790555090505050565b50565b6000339050604051806040016040528083815260200160011515815250600f60008373ffffffffffffffffffffffffffffffffffffffff1673ffffffffffffffffffffffffffffffffffffffff1681526020019081526020016000206000820151816000015560208201518160010160006101000a81548160ff0219169083151502179055509050505050565b600033905060405180604001604052808273ffffffffffffffffffffffffffffffffffffffff16815260200160011515815250600360008201518160000160006101000a81548173ffffffffffffffffffffffffffffffffffffffff021916908373ffffffffffffffffffffffffffffffffffffffff16021790555060208201518160000160146101000a81548160ff02191690831515021790555090505050565b600080fd5b6000819050919050565b620002178162000202565b81146200022357600080fd5b50565b60008151905062000237816200020c565b92915050565b600060208284031215620002565762000255620001fd565b5b6000620002668482850162000226565b91505092915050565b611d9d806200027f6000396000f3fe6080604052600436106100915760003560e01c80636623fc46116100595780636623fc461461016a5780639b96eece14610193578063a9059cbb146101d0578063c4e41b22146101f9578063d7a78db81461022457610091565b8063095ea7b3146100965780630af4187d146100bf57806323b872dd146100fc5780633bed33ce1461012557806342966c6814610141575b600080fd5b3480156100a257600080fd5b506100bd60048036038101906100b8919061193f565b61024d565b005b3480156100cb57600080fd5b506100e660048036038101906100e1919061197f565b6102a8565b6040516100f391906119ce565b60405180910390f35b34801561010857600080fd5b50610123600480360381019061011e91906119e9565b61036d565b005b61013f600480360381019061013a9190611a3c565b6103ca565b005b34801561014d57600080fd5b5061016860048036038101906101639190611a3c565b610423565b005b34801561017657600080fd5b50610191600480360381019061018c9190611a3c565b61047c565b005b34801561019f57600080fd5b506101ba60048036038101906101b59190611a69565b6104d5565b6040516101c791906119ce565b60405180910390f35b3480156101dc57600080fd5b506101f760048036038101906101f2919061193f565b61055c565b005b34801561020557600080fd5b5061020e6105b7565b60405161021b91906119ce565b60405180910390f35b34801561023057600080fd5b5061024b60048036038101906102469190611a3c565b6105c9565b005b60006102598383610622565b90506000151581151514156102a3576040517f08c379a000000000000000000000000000000000000000000000000000000000815260040161029a90611af3565b60405180910390fd5b505050565b600080600c60008573ffffffffffffffffffffffffffffffffffffffff1673ffffffffffffffffffffffffffffffffffffffff16815260200190815260200160002060008473ffffffffffffffffffffffffffffffffffffffff1673ffffffffffffffffffffffffffffffffffffffff168152602001908152602001600020604051806040016040529081600082015481526020016001820160009054906101000a900460ff1615151515815250509050600081600001519050809250505092915050565b600061037a848484610745565b90506000151581151514156103c4576040517f08c379a00000000000000000000000000000000000000000000000000000000081526004016103bb90611af3565b60405180910390fd5b50505050565b60006103d582610907565b905060001515811515141561041f576040517f08c379a000000000000000000000000000000000000000000000000000000000815260040161041690611af3565b60405180910390fd5b5050565b600061042e826109be565b9050600015158115151415610478576040517f08c379a000000000000000000000000000000000000000000000000000000000815260040161046f90611af3565b60405180910390fd5b5050565b600061048782610ae7565b90506000151581151514156104d1576040517f08c379a00000000000000000000000000000000000000000000000000000000081526004016104c890611af3565b60405180910390fd5b5050565b600080600f60008473ffffffffffffffffffffffffffffffffffffffff1673ffffffffffffffffffffffffffffffffffffffff168152602001908152602001600020604051806040016040529081600082015481526020016001820160009054906101000a900460ff16151515158152505090506000816000015190508092505050919050565b60006105688383610bda565b90506000151581151514156105b2576040517f08c379a00000000000000000000000000000000000000000000000000000000081526004016105a990611af3565b60405180910390fd5b505050565b60008060066000015490508091505090565b60006105d482610ccc565b905060001515811515141561061e576040517f08c379a000000000000000000000000000000000000000000000000000000000815260040161061590611af3565b60405180910390fd5b5050565b6000803390506000600c60008373ffffffffffffffffffffffffffffffffffffffff1673ffffffffffffffffffffffffffffffffffffffff16815260200190815260200160002060008673ffffffffffffffffffffffffffffffffffffffff1673ffffffffffffffffffffffffffffffffffffffff168152602001908152602001600020604051806040016040529081600082015481526020016001820160009054906101000a900460ff1615151515815250509050600081600001519050600081866106ef9190611b42565b90506106fc848883610dbf565b7f01722f0e92ffd761d4a842cffdd36fe3adb6091e41732a4e714250176b7d8d2284888360405161072f93929190611b85565b60405180910390a1600194505050505092915050565b6000803390506000600c60008773ffffffffffffffffffffffffffffffffffffffff1673ffffffffffffffffffffffffffffffffffffffff16815260200190815260200160002060008373ffffffffffffffffffffffffffffffffffffffff1673ffffffffffffffffffffffffffffffffffffffff168152602001908152602001600020604051806040016040529081600082015481526020016001820160009054906101000a900460ff16151515158152505090506000816000015190506000600f60008973ffffffffffffffffffffffffffffffffffffffff1673ffffffffffffffffffffffffffffffffffffffff168152602001908152602001600020604051806040016040529081600082015481526020016001820160009054906101000a900460ff16151515158152505090506000816000015190508681101580156108905750868310155b156108f6576108a0898689610e6b565b6108ab898989610f17565b7f5f7542858008eeb041631f30e6109ae94b83a58e9a58261dd2c42c508850f9398989878a6040516108e09493929190611bbc565b60405180910390a1600195505050505050610900565b6000955050505050505b9392505050565b600080600360000160009054906101000a900473ffffffffffffffffffffffffffffffffffffffff1690503373ffffffffffffffffffffffffffffffffffffffff168173ffffffffffffffffffffffffffffffffffffffff1614156109b3576109708184610f6b565b7fdb35132c111efe920cede025e819975671cfd1b8fcc1174762c8670c4e94c21181846040516109a1929190611c01565b60405180910390a160019150506109b9565b60009150505b919050565b6000803390506000600f60008373ffffffffffffffffffffffffffffffffffffffff1673ffffffffffffffffffffffffffffffffffffffff168152602001908152602001600020604051806040016040529081600082015481526020016001820160009054906101000a900460ff1615151515815250509050600081600001519050600073ffffffffffffffffffffffffffffffffffffffff168373ffffffffffffffffffffffffffffffffffffffff1614158015610a7d5750808511155b15610ada57610a8c8386610fa5565b610a9585611012565b7fcc16f5dbb4873280815c1ee09dbd06736cffcc184412cf7a71a0fdb75d397ca58386604051610ac6929190611c01565b60405180910390a160019350505050610ae2565b600093505050505b919050565b6000803390506000600460008373ffffffffffffffffffffffffffffffffffffffff1673ffffffffffffffffffffffffffffffffffffffff168152602001908152602001600020604051806040016040529081600082015481526020016001820160009054906101000a900460ff1615151515815250509050600081600001519050808511158015610b795750600085115b15610bcd57610b888386611040565b7f2cfce4af01bcb9d6cf6c84ee1b7c491100b8695368264146a94d71e10a63083f8386604051610bb9929190611c01565b60405180910390a160019350505050610bd5565b600093505050505b919050565b6000803390506000600f60008373ffffffffffffffffffffffffffffffffffffffff1673ffffffffffffffffffffffffffffffffffffffff168152602001908152602001600020604051806040016040529081600082015481526020016001820160009054906101000a900460ff1615151515815250509050600081600001519050808511610cbe57610c6d83866110ad565b610c77868661111a565b7fddf252ad1be2c89b69c2b068fc378daa952ba7f163c4a11628f55a4df523b3ef838787604051610caa93929190611b85565b60405180910390a160019350505050610cc6565b600093505050505b92915050565b6000803390506000600f60008373ffffffffffffffffffffffffffffffffffffffff1673ffffffffffffffffffffffffffffffffffffffff168152602001908152602001600020604051806040016040529081600082015481526020016001820160009054906101000a900460ff1615151515815250509050600081600001519050808511158015610d5e5750600085115b15610db257610d6d8386611186565b7ff97a274face0b5517365ad396b1fdba6f68bd3135ef603e44272adba3af5a1e08386604051610d9e929190611c01565b60405180910390a160019350505050610dba565b600093505050505b919050565b6000819050610dcf8484836111f3565b81600a60008673ffffffffffffffffffffffffffffffffffffffff1673ffffffffffffffffffffffffffffffffffffffff16815260200190815260200160002060008573ffffffffffffffffffffffffffffffffffffffff1673ffffffffffffffffffffffffffffffffffffffff1681526020019081526020016000206000016000828254610e5e9190611c2a565b9250508190555050505050565b6000819050610e7b848483611310565b81600b60008673ffffffffffffffffffffffffffffffffffffffff1673ffffffffffffffffffffffffffffffffffffffff16815260200190815260200160002060008573ffffffffffffffffffffffffffffffffffffffff1673ffffffffffffffffffffffffffffffffffffffff1681526020019081526020016000206000016000828254610f0a9190611c2a565b9250508190555050505050565b610f21828261111a565b610f2b83826110ad565b7fddf252ad1be2c89b69c2b068fc378daa952ba7f163c4a11628f55a4df523b3ef838383604051610f5e93929190611b85565b60405180910390a1505050565b8173ffffffffffffffffffffffffffffffffffffffff166108fc829081150290604051600060405180830381858888f19350505050505050565b6000819050610fb48382611436565b81600e60008573ffffffffffffffffffffffffffffffffffffffff1673ffffffffffffffffffffffffffffffffffffffff16815260200190815260200160002060000160008282546110069190611c2a565b92505081905550505050565b6000819050611020816114e1565b81601060000160008282546110359190611c2a565b925050819055505050565b600081905061104f8382611511565b81600d60008573ffffffffffffffffffffffffffffffffffffffff1673ffffffffffffffffffffffffffffffffffffffff16815260200190815260200160002060000160008282546110a19190611c2a565b92505081905550505050565b60008190506110bc83826115d5565b81600160008573ffffffffffffffffffffffffffffffffffffffff1673ffffffffffffffffffffffffffffffffffffffff168152602001908152602001600020600001600082825461110e9190611c2a565b92505081905550505050565b60008190506111298382611680565b816000808573ffffffffffffffffffffffffffffffffffffffff1673ffffffffffffffffffffffffffffffffffffffff168152602001908152602001600020600001600082825461117a9190611c2a565b92505081905550505050565b60008190506111958382611722565b81600260008573ffffffffffffffffffffffffffffffffffffffff1673ffffffffffffffffffffffffffffffffffffffff16815260200190815260200160002060000160008282546111e79190611c2a565b92505081905550505050565b60008190506000611283600c60008773ffffffffffffffffffffffffffffffffffffffff1673ffffffffffffffffffffffffffffffffffffffff16815260200190815260200160002060008673ffffffffffffffffffffffffffffffffffffffff1673ffffffffffffffffffffffffffffffffffffffff16815260200190815260200160002060000154836117d4565b905080600c60008773ffffffffffffffffffffffffffffffffffffffff1673ffffffffffffffffffffffffffffffffffffffff16815260200190815260200160002060008673ffffffffffffffffffffffffffffffffffffffff1673ffffffffffffffffffffffffffffffffffffffff168152602001908152602001600020600001819055505050505050565b60008161131c90611c8a565b905060006113a9600c60008773ffffffffffffffffffffffffffffffffffffffff1673ffffffffffffffffffffffffffffffffffffffff16815260200190815260200160002060008673ffffffffffffffffffffffffffffffffffffffff1673ffffffffffffffffffffffffffffffffffffffff16815260200190815260200160002060000154836117d4565b905080600c60008773ffffffffffffffffffffffffffffffffffffffff1673ffffffffffffffffffffffffffffffffffffffff16815260200190815260200160002060008673ffffffffffffffffffffffffffffffffffffffff1673ffffffffffffffffffffffffffffffffffffffff168152602001908152602001600020600001819055505050505050565b60008161144290611c8a565b90506000611492600f60008673ffffffffffffffffffffffffffffffffffffffff1673ffffffffffffffffffffffffffffffffffffffff16815260200190815260200160002060000154836117d4565b905080600f60008673ffffffffffffffffffffffffffffffffffffffff1673ffffffffffffffffffffffffffffffffffffffff1681526020019081526020016000206000018190555050505050565b6000816114ed90611c8a565b90506000611500600660000154836117d4565b905080600660000181905550505050565b60008161151d90611c8a565b905061152983826117fb565b60008261153590611c8a565b90506000611585600460008773ffffffffffffffffffffffffffffffffffffffff1673ffffffffffffffffffffffffffffffffffffffff16815260200190815260200160002060000154836117d4565b905080600460008773ffffffffffffffffffffffffffffffffffffffff1673ffffffffffffffffffffffffffffffffffffffff168152602001908152602001600020600001819055505050505050565b6000816115e190611c8a565b90506000611631600f60008673ffffffffffffffffffffffffffffffffffffffff1673ffffffffffffffffffffffffffffffffffffffff16815260200190815260200160002060000154836117d4565b905080600f60008673ffffffffffffffffffffffffffffffffffffffff1673ffffffffffffffffffffffffffffffffffffffff1681526020019081526020016000206000018190555050505050565b600081905060006116d3600f60008673ffffffffffffffffffffffffffffffffffffffff1673ffffffffffffffffffffffffffffffffffffffff16815260200190815260200160002060000154836117d4565b905080600f60008673ffffffffffffffffffffffffffffffffffffffff1673ffffffffffffffffffffffffffffffffffffffff1681526020019081526020016000206000018190555050505050565b600081905061173183826117fb565b60008290506000611784600460008773ffffffffffffffffffffffffffffffffffffffff1673ffffffffffffffffffffffffffffffffffffffff16815260200190815260200160002060000154836117d4565b905080600460008773ffffffffffffffffffffffffffffffffffffffff1673ffffffffffffffffffffffffffffffffffffffff168152602001908152602001600020600001819055505050505050565b600080839050600083826117e89190611cd3565b9050600081905080935050505092915050565b60008161180790611c8a565b90506000611857600f60008673ffffffffffffffffffffffffffffffffffffffff1673ffffffffffffffffffffffffffffffffffffffff16815260200190815260200160002060000154836117d4565b905080600f60008673ffffffffffffffffffffffffffffffffffffffff1673ffffffffffffffffffffffffffffffffffffffff1681526020019081526020016000206000018190555050505050565b600080fd5b600073ffffffffffffffffffffffffffffffffffffffff82169050919050565b60006118d6826118ab565b9050919050565b6118e6816118cb565b81146118f157600080fd5b50565b600081359050611903816118dd565b92915050565b6000819050919050565b61191c81611909565b811461192757600080fd5b50565b60008135905061193981611913565b92915050565b60008060408385031215611956576119556118a6565b5b6000611964858286016118f4565b92505060206119758582860161192a565b9150509250929050565b60008060408385031215611996576119956118a6565b5b60006119a4858286016118f4565b92505060206119b5858286016118f4565b9150509250929050565b6119c881611909565b82525050565b60006020820190506119e360008301846119bf565b92915050565b600080600060608486031215611a0257611a016118a6565b5b6000611a10868287016118f4565b9350506020611a21868287016118f4565b9250506040611a328682870161192a565b9150509250925092565b600060208284031215611a5257611a516118a6565b5b6000611a608482850161192a565b91505092915050565b600060208284031215611a7f57611a7e6118a6565b5b6000611a8d848285016118f4565b91505092915050565b600082825260208201905092915050565b7f52756c6520636f6e646974696f6e206661696c65640000000000000000000000600082015250565b6000611add601583611a96565b9150611ae882611aa7565b602082019050919050565b60006020820190508181036000830152611b0c81611ad0565b9050919050565b7f4e487b7100000000000000000000000000000000000000000000000000000000600052601160045260246000fd5b6000611b4d82611909565b9150611b5883611909565b925082821015611b6b57611b6a611b13565b5b828203905092915050565b611b7f816118cb565b82525050565b6000606082019050611b9a6000830186611b76565b611ba76020830185611b76565b611bb460408301846119bf565b949350505050565b6000608082019050611bd16000830187611b76565b611bde6020830186611b76565b611beb6040830185611b76565b611bf860608301846119bf565b95945050505050565b6000604082019050611c166000830185611b76565b611c2360208301846119bf565b9392505050565b6000611c3582611909565b9150611c4083611909565b9250827fffffffffffffffffffffffffffffffffffffffffffffffffffffffffffffffff03821115611c7557611c74611b13565b5b828201905092915050565b6000819050919050565b6000611c9582611c80565b91507f8000000000000000000000000000000000000000000000000000000000000000821415611cc857611cc7611b13565b5b816000039050919050565b6000611cde82611c80565b9150611ce983611c80565b9250817f7fffffffffffffffffffffffffffffffffffffffffffffffffffffffffffffff03831360008312151615611d2457611d23611b13565b5b817f8000000000000000000000000000000000000000000000000000000000000000038312600083121615611d5c57611d5b611b13565b5b82820190509291505056fea2646970667358221220b950de0bbfbad9ad598ec46c0090408f3632664d40245078070290255975b90d64736f6c634300080c0033",
  "immutableReferences": {},
  "source": "contract Bnb {\n  struct TotalOutTuple {\n    uint n;\n    bool _valid;\n  }\n  struct TotalFreezeTuple {\n    uint n;\n    bool _valid;\n  }\n  struct TotalMintTuple {\n    uint n;\n    bool _valid;\n  }\n  struct TotalSupplyTuple {\n    uint n;\n    bool _valid;\n  }\n  struct AllMintTuple {\n    uint n;\n    bool _valid;\n  }\n  struct SpentTotalTuple {\n    uint m;\n    bool _valid;\n  }\n  struct AllowanceTuple {\n    uint n;\n    bool _valid;\n  }\n  struct TotalInTuple {\n    uint n;\n    bool _valid;\n  }\n  struct TotalUnfreezeTuple {\n    uint n;\n    bool _valid;\n  }\n  struct TotalBurnTuple {\n    uint n;\n    bool _valid;\n  }\n  struct OwnerTuple {\n    address p;\n    bool _valid;\n  }\n  struct FreezeOfTuple {\n    uint n;\n    bool _valid;\n  }\n  struct AllowanceTotalTuple {\n    uint m;\n    bool _valid;\n  }\n  struct BalanceOfTuple {\n    uint n;\n    bool _valid;\n  }\n  struct AllBurnTuple {\n    uint n;\n    bool _valid;\n  }\n  mapping(address=>TotalInTuple) totalIn;\n  mapping(address=>TotalOutTuple) totalOut;\n  mapping(address=>TotalFreezeTuple) totalFreeze;\n  OwnerTuple owner;\n  mapping(address=>FreezeOfTuple) freezeOf;\n  mapping(address=>TotalMintTuple) totalMint;\n  TotalSupplyTuple totalSupply;\n  AllMintTuple allMint;\n  mapping(address=>mapping(address=>AllowanceTotalTuple)) allowanceTotal;\n  mapping(address=>mapping(address=>SpentTotalTuple)) spentTotal;\n  mapping(address=>mapping(address=>AllowanceTuple)) allowance;\n  mapping(address=>TotalUnfreezeTuple) totalUnfreeze;\n  mapping(address=>TotalBurnTuple) totalBurn;\n  mapping(address=>BalanceOfTuple) balanceOf;\n  AllBurnTuple allBurn;\n  event TransferFrom(address from,address to,address spender,uint amount);\n  event Burn(address p,uint amount);\n  event Mint(address p,uint amount);\n  event WithdrawEther(address p,uint amount);\n  event IncreaseAllowance(address p,address s,uint n);\n  event Unfreeze(address p,uint n);\n  event Freeze(address p,uint n);\n  event Transfer(address from,address to,uint amount);\n  constructor(uint initialSupply) public {\n    updateTotalSupplyOnInsertConstructor_r5(initialSupply);\n    updateTotalBalancesOnInsertConstructor_r25(initialSupply);\n    updateBalanceOfOnInsertConstructor_r4(initialSupply);\n    updateOwnerOnInsertConstructor_r9();\n  }\n  function burn(uint amount) public    {\n      bool r15 = updateBurnOnInsertRecv_burn_r15(amount);\n      if(r15==false) {\n        revert(\"Rule condition failed\");\n      }\n  }\n  function getAllowance(address p,address s) public view  returns (uint) {\n      AllowanceTuple memory allowanceTuple = allowance[p][s];\n      uint n = allowanceTuple.n;\n      return n;\n  }\n  function transfer(address to,uint amount) public    {\n      bool r19 = updateTransferOnInsertRecv_transfer_r19(to,amount);\n      if(r19==false) {\n        revert(\"Rule condition failed\");\n      }\n  }\n  function getTotalSupply() public view  returns (uint) {\n      uint n = totalSupply.n;\n      return n;\n  }\n  function freeze(uint n) public    {\n      bool r24 = updateFreezeOnInsertRecv_freeze_r24(n);\n      if(r24==false) {\n        revert(\"Rule condition failed\");\n      }\n  }\n  function withdrawEther(uint amount) public  payable  {\n      bool r23 = updateWithdrawEtherOnInsertRecv_withdrawEther_r23(amount);\n      if(r23==false) {\n        revert(\"Rule condition failed\");\n      }\n  }\n  function approve(address s,uint n) public    {\n      bool r28 = updateIncreaseAllowanceOnInsertRecv_approve_r28(s,n);\n      if(r28==false) {\n        revert(\"Rule condition failed\");\n      }\n  }\n  function unfreeze(uint n) public    {\n      bool r6 = updateUnfreezeOnInsertRecv_unfreeze_r6(n);\n      if(r6==false) {\n        revert(\"Rule condition failed\");\n      }\n  }\n  function getBalanceOf(address p) public view  returns (uint) {\n      BalanceOfTuple memory balanceOfTuple = balanceOf[p];\n      uint n = balanceOfTuple.n;\n      return n;\n  }\n  function transferFrom(address from,address to,uint amount) public    {\n      bool r29 = updateTransferFromOnInsertRecv_transferFrom_r29(from,to,amount);\n      if(r29==false) {\n        revert(\"Rule condition failed\");\n      }\n  }\n  function updateOwnerOnInsertConstructor_r9() private    {\n      address s = msg.sender;\n      owner = OwnerTuple(s,true);\n  }\n  function updateAllowanceOnIncrementAllowanceTotal_r26(address o,address s,int m) private    {\n      int _delta = int(m);\n      uint newValue = updateuintByint(allowance[o][s].n,_delta);\n      allowance[o][s].n = newValue;\n  }\n  function updateTotalBurnOnInsertBurn_r16(address p,uint n) private    {\n      int delta0 = int(n);\n      updateBalanceOfOnIncrementTotalBurn_r14(p,delta0);\n      totalBurn[p].n += n;\n  }\n  function updateWithdrawEtherOnInsertRecv_withdrawEther_r23(uint n) private   returns (bool) {\n      address p = owner.p;\n      if(p==msg.sender) {\n        updateSendOnInsertWithdrawEther_r3(p,n);\n        emit WithdrawEther(p,n);\n        return true;\n      }\n      return false;\n  }\n  function updateFreezeOfOnIncrementTotalUnfreeze_r12(address p,int u) private    {\n      int delta0 = int(-u);\n      updateBalanceOfOnIncrementFreezeOf_r14(p,delta0);\n      int _delta = int(-u);\n      uint newValue = updateuintByint(freezeOf[p].n,_delta);\n      freezeOf[p].n = newValue;\n  }\n  function updateTransferOnInsertTransferFrom_r1(address o,address r,uint n) private    {\n      updateTotalInOnInsertTransfer_r7(r,n);\n      updateTotalOutOnInsertTransfer_r20(o,n);\n      emit Transfer(o,r,n);\n  }\n  function updateFreezeOfOnIncrementTotalFreeze_r12(address p,int f) private    {\n      int delta0 = int(f);\n      updateBalanceOfOnIncrementFreezeOf_r14(p,delta0);\n      int _delta = int(f);\n      uint newValue = updateuintByint(freezeOf[p].n,_delta);\n      freezeOf[p].n = newValue;\n  }\n  function updateBalanceOfOnInsertConstructor_r4(uint n) private    {\n      address s = msg.sender;\n      balanceOf[s] = BalanceOfTuple(n,true);\n  }\n  function updateTotalUnfreezeOnInsertUnfreeze_r13(address p,uint n) private    {\n      int delta0 = int(n);\n      updateFreezeOfOnIncrementTotalUnfreeze_r12(p,delta0);\n      totalUnfreeze[p].n += n;\n  }\n  function updateAllowanceTotalOnInsertIncreaseAllowance_r8(address o,address s,uint n) private    {\n      int delta0 = int(n);\n      updateAllowanceOnIncrementAllowanceTotal_r26(o,s,delta0);\n      allowanceTotal[o][s].m += n;\n  }\n  function updateBalanceOfOnIncrementFreezeOf_r14(address p,int f) private    {\n      int _delta = int(-f);\n      uint newValue = updateuintByint(balanceOf[p].n,_delta);\n      balanceOf[p].n = newValue;\n  }\n  function updateAllBurnOnInsertBurn_r30(uint n) private    {\n      int delta0 = int(n);\n      updateTotalSupplyOnIncrementAllBurn_r18(delta0);\n      allBurn.n += n;\n  }\n  function updateUnfreezeOnInsertRecv_unfreeze_r6(uint n) private   returns (bool) {\n      address p = msg.sender;\n      FreezeOfTuple memory freezeOfTuple = freezeOf[p];\n      uint m = freezeOfTuple.n;\n      if(n<=m && n>0) {\n        updateTotalUnfreezeOnInsertUnfreeze_r13(p,n);\n        emit Unfreeze(p,n);\n        return true;\n      }\n      return false;\n  }\n  function updateTransferOnInsertRecv_transfer_r19(address r,uint n) private   returns (bool) {\n      address s = msg.sender;\n      BalanceOfTuple memory balanceOfTuple = balanceOf[s];\n      uint m = balanceOfTuple.n;\n      if(n<=m) {\n        updateTotalOutOnInsertTransfer_r20(s,n);\n        updateTotalInOnInsertTransfer_r7(r,n);\n        emit Transfer(s,r,n);\n        return true;\n      }\n      return false;\n  }\n  function updateTotalBalancesOnInsertConstructor_r25(uint n) private    {\n      // Empty()\n  }\n  function updateTransferFromOnInsertRecv_transferFrom_r29(address o,address r,uint n) private   returns (bool) {\n      address s = msg.sender;\n      AllowanceTuple memory allowanceTuple = allowance[o][s];\n      uint k = allowanceTuple.n;\n      BalanceOfTuple memory balanceOfTuple = balanceOf[o];\n      uint m = balanceOfTuple.n;\n      if(m>=n && k>=n) {\n        updateSpentTotalOnInsertTransferFrom_r22(o,s,n);\n        updateTransferOnInsertTransferFrom_r1(o,r,n);\n        emit TransferFrom(o,r,s,n);\n        return true;\n      }\n      return false;\n  }\n  function updateAllowanceOnIncrementSpentTotal_r26(address o,address s,int l) private    {\n      int _delta = int(-l);\n      uint newValue = updateuintByint(allowance[o][s].n,_delta);\n      allowance[o][s].n = newValue;\n  }\n  function updateuintByint(uint x,int delta) private   returns (uint) {\n      int convertedX = int(x);\n      int value = convertedX+delta;\n      uint convertedValue = uint(value);\n      return convertedValue;\n  }\n  function updateTotalFreezeOnInsertFreeze_r0(address p,uint n) private    {\n      int delta0 = int(n);\n      updateFreezeOfOnIncrementTotalFreeze_r12(p,delta0);\n      totalFreeze[p].n += n;\n  }\n  function updateTotalInOnInsertTransfer_r7(address p,uint n) private    {\n      int delta0 = int(n);\n      updateBalanceOfOnIncrementTotalIn_r14(p,delta0);\n      totalIn[p].n += n;\n  }\n  function updateTotalSupplyOnIncrementAllBurn_r18(int b) private    {\n      int _delta = int(-b);\n      uint newValue = updateuintByint(totalSupply.n,_delta);\n      totalSupply.n = newValue;\n  }\n  function updateBalanceOfOnIncrementTotalBurn_r14(address p,int m) private    {\n      int _delta = int(-m);\n      uint newValue = updateuintByint(balanceOf[p].n,_delta);\n      balanceOf[p].n = newValue;\n  }\n  function updateIncreaseAllowanceOnInsertRecv_approve_r28(address s,uint n) private   returns (bool) {\n      address o = msg.sender;\n      AllowanceTuple memory allowanceTuple = allowance[o][s];\n      uint m = allowanceTuple.n;\n      uint d = n-m;\n      updateAllowanceTotalOnInsertIncreaseAllowance_r8(o,s,d);\n      emit IncreaseAllowance(o,s,d);\n      return true;\n      return false;\n  }\n  function updateBalanceOfOnIncrementTotalIn_r14(address p,int i) private    {\n      int _delta = int(i);\n      uint newValue = updateuintByint(balanceOf[p].n,_delta);\n      balanceOf[p].n = newValue;\n  }\n  function updateFreezeOnInsertRecv_freeze_r24(uint n) private   returns (bool) {\n      address p = msg.sender;\n      BalanceOfTuple memory balanceOfTuple = balanceOf[p];\n      uint m = balanceOfTuple.n;\n      if(n<=m && n>0) {\n        updateTotalFreezeOnInsertFreeze_r0(p,n);\n        emit Freeze(p,n);\n        return true;\n      }\n      return false;\n  }\n  function updateBalanceOfOnIncrementTotalOut_r14(address p,int o) private    {\n      int _delta = int(-o);\n      uint newValue = updateuintByint(balanceOf[p].n,_delta);\n      balanceOf[p].n = newValue;\n  }\n  function updateBurnOnInsertRecv_burn_r15(uint n) private   returns (bool) {\n      address p = msg.sender;\n      BalanceOfTuple memory balanceOfTuple = balanceOf[p];\n      uint m = balanceOfTuple.n;\n      if(p!=address(0) && n<=m) {\n        updateTotalBurnOnInsertBurn_r16(p,n);\n        updateAllBurnOnInsertBurn_r30(n);\n        emit Burn(p,n);\n        return true;\n      }\n      return false;\n  }\n  function updateSendOnInsertWithdrawEther_r3(address p,uint n) private    {\n      payable(p).send(n);\n  }\n  function updateTotalSupplyOnInsertConstructor_r5(uint n) private    {\n      totalSupply = TotalSupplyTuple(n,true);\n  }\n  function updateTotalOutOnInsertTransfer_r20(address p,uint n) private    {\n      int delta0 = int(n);\n      updateBalanceOfOnIncrementTotalOut_r14(p,delta0);\n      totalOut[p].n += n;\n  }\n  function updateSpentTotalOnInsertTransferFrom_r22(address o,address s,uint n) private    {\n      int delta0 = int(n);\n      updateAllowanceOnIncrementSpentTotal_r26(o,s,delta0);\n      spentTotal[o][s].m += n;\n  }\n}\n",
  "sourcePath": "/Users/ljy/Desktop/PENN/2023_summer/boon_dsc/smart-contracts/optimizations/full/contracts/bnb.sol",
  "compiler": {
    "name": "solc",
    "version": "0.8.12+commit.f00d7308.Emscripten.clang"
  },
  "schemaVersion": "3.4.13",
  "updatedAt": "2023-07-17T04:20:35.618Z",
  "devdoc": {
    "kind": "dev",
    "methods": {},
    "version": 1
  },
  "userdoc": {
    "kind": "user",
    "methods": {},
    "version": 1
  }
}