{
  "contractName": "Controllable",
  "abi": [
    {
      "inputs": [
        {
          "internalType": "address",
          "name": "p",
          "type": "address"
        }
      ],
      "stateMutability": "nonpayable",
      "type": "constructor"
    },
    {
      "anonymous": false,
      "inputs": [
        {
          "indexed": false,
          "internalType": "address",
          "name": "p",
          "type": "address"
        },
        {
          "indexed": false,
          "internalType": "uint256",
          "name": "amount",
          "type": "uint256"
        }
      ],
      "name": "Burn",
      "type": "event"
    },
    {
      "anonymous": false,
      "inputs": [
        {
          "indexed": false,
          "internalType": "address",
          "name": "p",
          "type": "address"
        },
        {
          "indexed": false,
          "internalType": "uint256",
          "name": "amount",
          "type": "uint256"
        }
      ],
      "name": "ControllerRedeem",
      "type": "event"
    },
    {
      "anonymous": false,
      "inputs": [
        {
          "indexed": false,
          "internalType": "address",
          "name": "from",
          "type": "address"
        },
        {
          "indexed": false,
          "internalType": "address",
          "name": "to",
          "type": "address"
        },
        {
          "indexed": false,
          "internalType": "uint256",
          "name": "amount",
          "type": "uint256"
        }
      ],
      "name": "ControllerTransfer",
      "type": "event"
    },
    {
      "anonymous": false,
      "inputs": [
        {
          "indexed": false,
          "internalType": "address",
          "name": "owner",
          "type": "address"
        },
        {
          "indexed": false,
          "internalType": "address",
          "name": "spender",
          "type": "address"
        },
        {
          "indexed": false,
          "internalType": "uint256",
          "name": "n",
          "type": "uint256"
        }
      ],
      "name": "DecreaseAllowance",
      "type": "event"
    },
    {
      "anonymous": false,
      "inputs": [
        {
          "indexed": false,
          "internalType": "address",
          "name": "owner",
          "type": "address"
        },
        {
          "indexed": false,
          "internalType": "address",
          "name": "spender",
          "type": "address"
        },
        {
          "indexed": false,
          "internalType": "uint256",
          "name": "n",
          "type": "uint256"
        }
      ],
      "name": "IncreaseAllowance",
      "type": "event"
    },
    {
      "anonymous": false,
      "inputs": [
        {
          "indexed": false,
          "internalType": "address",
          "name": "p",
          "type": "address"
        },
        {
          "indexed": false,
          "internalType": "uint256",
          "name": "amount",
          "type": "uint256"
        }
      ],
      "name": "Mint",
      "type": "event"
    },
    {
      "anonymous": false,
      "inputs": [
        {
          "indexed": false,
          "internalType": "address",
          "name": "from",
          "type": "address"
        },
        {
          "indexed": false,
          "internalType": "address",
          "name": "to",
          "type": "address"
        },
        {
          "indexed": false,
          "internalType": "uint256",
          "name": "amount",
          "type": "uint256"
        }
      ],
      "name": "Transfer",
      "type": "event"
    },
    {
      "anonymous": false,
      "inputs": [
        {
          "indexed": false,
          "internalType": "address",
          "name": "from",
          "type": "address"
        },
        {
          "indexed": false,
          "internalType": "address",
          "name": "to",
          "type": "address"
        },
        {
          "indexed": false,
          "internalType": "address",
          "name": "spender",
          "type": "address"
        },
        {
          "indexed": false,
          "internalType": "uint256",
          "name": "amount",
          "type": "uint256"
        }
      ],
      "name": "TransferFrom",
      "type": "event"
    },
    {
      "inputs": [],
      "name": "getSymbol",
      "outputs": [
        {
          "internalType": "uint256",
          "name": "",
          "type": "uint256"
        }
      ],
      "stateMutability": "view",
      "type": "function"
    },
    {
      "inputs": [
        {
          "internalType": "address",
          "name": "p",
          "type": "address"
        },
        {
          "internalType": "uint256",
          "name": "amount",
          "type": "uint256"
        }
      ],
      "name": "controllerRedeem",
      "outputs": [],
      "stateMutability": "nonpayable",
      "type": "function"
    },
    {
      "inputs": [
        {
          "internalType": "address",
          "name": "from",
          "type": "address"
        },
        {
          "internalType": "address",
          "name": "to",
          "type": "address"
        },
        {
          "internalType": "uint256",
          "name": "amount",
          "type": "uint256"
        }
      ],
      "name": "controllerTransfer",
      "outputs": [],
      "stateMutability": "nonpayable",
      "type": "function"
    },
    {
      "inputs": [
        {
          "internalType": "address",
          "name": "p",
          "type": "address"
        },
        {
          "internalType": "address",
          "name": "s",
          "type": "address"
        }
      ],
      "name": "getAllowance",
      "outputs": [
        {
          "internalType": "uint256",
          "name": "",
          "type": "uint256"
        }
      ],
      "stateMutability": "view",
      "type": "function"
    },
    {
      "inputs": [
        {
          "internalType": "address",
          "name": "p",
          "type": "address"
        }
      ],
      "name": "getBalanceOf",
      "outputs": [
        {
          "internalType": "uint256",
          "name": "",
          "type": "uint256"
        }
      ],
      "stateMutability": "view",
      "type": "function"
    },
    {
      "inputs": [],
      "name": "getDecimals",
      "outputs": [
        {
          "internalType": "uint256",
          "name": "",
          "type": "uint256"
        }
      ],
      "stateMutability": "view",
      "type": "function"
    },
    {
      "inputs": [],
      "name": "getName",
      "outputs": [
        {
          "internalType": "uint256",
          "name": "",
          "type": "uint256"
        }
      ],
      "stateMutability": "view",
      "type": "function"
    },
    {
      "inputs": [
        {
          "internalType": "address",
          "name": "p",
          "type": "address"
        },
        {
          "internalType": "uint256",
          "name": "amount",
          "type": "uint256"
        }
      ],
      "name": "mint",
      "outputs": [],
      "stateMutability": "nonpayable",
      "type": "function"
    },
    {
      "inputs": [
        {
          "internalType": "address",
          "name": "spender",
          "type": "address"
        },
        {
          "internalType": "uint256",
          "name": "n",
          "type": "uint256"
        }
      ],
      "name": "increaseAllowance",
      "outputs": [],
      "stateMutability": "nonpayable",
      "type": "function"
    },
    {
      "inputs": [],
      "name": "getTotalSupply",
      "outputs": [
        {
          "internalType": "uint256",
          "name": "",
          "type": "uint256"
        }
      ],
      "stateMutability": "view",
      "type": "function"
    },
    {
      "inputs": [
        {
          "internalType": "address",
          "name": "s",
          "type": "address"
        },
        {
          "internalType": "uint256",
          "name": "n",
          "type": "uint256"
        }
      ],
      "name": "approve",
      "outputs": [],
      "stateMutability": "nonpayable",
      "type": "function"
    },
    {
      "inputs": [
        {
          "internalType": "address",
          "name": "p",
          "type": "address"
        },
        {
          "internalType": "uint256",
          "name": "amount",
          "type": "uint256"
        }
      ],
      "name": "burn",
      "outputs": [],
      "stateMutability": "nonpayable",
      "type": "function"
    },
    {
      "inputs": [
        {
          "internalType": "address",
          "name": "to",
          "type": "address"
        },
        {
          "internalType": "uint256",
          "name": "amount",
          "type": "uint256"
        }
      ],
      "name": "transfer",
      "outputs": [],
      "stateMutability": "nonpayable",
      "type": "function"
    },
    {
      "inputs": [
        {
          "internalType": "address",
          "name": "spender",
          "type": "address"
        },
        {
          "internalType": "uint256",
          "name": "n",
          "type": "uint256"
        }
      ],
      "name": "decreaseAllowance",
      "outputs": [],
      "stateMutability": "nonpayable",
      "type": "function"
    },
    {
      "inputs": [
        {
          "internalType": "address",
          "name": "from",
          "type": "address"
        },
        {
          "internalType": "address",
          "name": "to",
          "type": "address"
        },
        {
          "internalType": "uint256",
          "name": "amount",
          "type": "uint256"
        }
      ],
      "name": "transferFrom",
      "outputs": [],
      "stateMutability": "nonpayable",
      "type": "function"
    }
  ],
  "bytecode": "0x60806040523480156200001157600080fd5b506040516200236a3803806200236a8339818101604052810190620000379190620002e8565b62000047620000af60201b60201c565b62000057620000f960201b60201c565b620000676200010160201b60201c565b620000776200010360201b60201c565b620000876200014d60201b60201c565b62000098816200019760201b60201c565b620000a86200023460201b60201c565b506200031a565b60405180604001604052806000815260200160011515815250600c6000820151816000015560208201518160010160006101000a81548160ff021916908315150217905550905050565b600033905050565b565b6040518060400160405280600081526020016001151581525060066000820151816000015560208201518160010160006101000a81548160ff021916908315150217905550905050565b60405180604001604052806000815260200160011515815250600e6000820151816000015560208201518160010160006101000a81548160ff021916908315150217905550905050565b60405180604001604052808273ffffffffffffffffffffffffffffffffffffffff16815260200160011515815250600a60008201518160000160006101000a81548173ffffffffffffffffffffffffffffffffffffffff021916908373ffffffffffffffffffffffffffffffffffffffff16021790555060208201518160000160146101000a81548160ff02191690831515021790555090505050565b6040518060400160405280601281526020016001151581525060106000820151816000015560208201518160010160006101000a81548160ff021916908315150217905550905050565b600080fd5b600073ffffffffffffffffffffffffffffffffffffffff82169050919050565b6000620002b08262000283565b9050919050565b620002c281620002a3565b8114620002ce57600080fd5b50565b600081519050620002e281620002b7565b92915050565b6000602082840312156200030157620003006200027e565b5b60006200031184828501620002d1565b91505092915050565b612040806200032a6000396000f3fe608060405234801561001057600080fd5b50600436106100f55760003560e01c80639b50438711610097578063a9059cbb11610066578063a9059cbb1461025a578063c4e41b2214610276578063f0141d8414610294578063f76fac0e146102b2576100f5565b80639b504387146101d65780639b96eece146101f25780639dc29fac14610222578063a457c2d71461023e576100f5565b806317d7de7c116100d357806317d7de7c1461016457806323b872dd14610182578063395093511461019e57806340c10f19146101ba576100f5565b8063095ea7b3146100fa5780630af4187d146101165780631507040114610146575b600080fd5b610114600480360381019061010f9190611c0f565b6102ce565b005b610130600480360381019061012b9190611c4f565b610348565b60405161013d9190611c9e565b60405180910390f35b61014e6103d7565b60405161015b9190611c9e565b60405180910390f35b61016c6103e9565b6040516101799190611c9e565b60405180910390f35b61019c60048036038101906101979190611cb9565b6103fb565b005b6101b860048036038101906101b39190611c0f565b610458565b005b6101d460048036038101906101cf9190611c0f565b6104b3565b005b6101f060048036038101906101eb9190611cb9565b61050e565b005b61020c60048036038101906102079190611d0c565b61056b565b6040516102199190611c9e565b60405180910390f35b61023c60048036038101906102379190611c0f565b6105bc565b005b61025860048036038101906102539190611c0f565b610617565b005b610274600480360381019061026f9190611c0f565b610672565b005b61027e6106cd565b60405161028b9190611c9e565b60405180910390f35b61029c6106df565b6040516102a99190611c9e565b60405180910390f35b6102cc60048036038101906102c79190611c0f565b6106f1565b005b60006102da838361074c565b905060006102e8848461084d565b905060001515821515148015610302575060001515811515145b15610342576040517f08c379a000000000000000000000000000000000000000000000000000000000815260040161033990611d96565b60405180910390fd5b50505050565b600080600960008573ffffffffffffffffffffffffffffffffffffffff1673ffffffffffffffffffffffffffffffffffffffff16815260200190815260200160002060008473ffffffffffffffffffffffffffffffffffffffff1673ffffffffffffffffffffffffffffffffffffffff1681526020019081526020016000206000015490508091505092915050565b60008060066000015490508091505090565b600080600c6000015490508091505090565b600061040884848461094d565b9050600015158115151415610452576040517f08c379a000000000000000000000000000000000000000000000000000000000815260040161044990611d96565b60405180910390fd5b50505050565b60006104648383610aa1565b90506000151581151514156104ae576040517f08c379a00000000000000000000000000000000000000000000000000000000081526004016104a590611d96565b60405180910390fd5b505050565b60006104bf8383610af8565b9050600015158115151415610509576040517f08c379a000000000000000000000000000000000000000000000000000000000815260040161050090611d96565b60405180910390fd5b505050565b600061051b848484610b94565b9050600015158115151415610565576040517f08c379a000000000000000000000000000000000000000000000000000000000815260040161055c90611d96565b60405180910390fd5b50505050565b600080601260008473ffffffffffffffffffffffffffffffffffffffff1673ffffffffffffffffffffffffffffffffffffffff16815260200190815260200160002060000154905080915050919050565b60006105c88383610ca1565b9050600015158115151415610612576040517f08c379a000000000000000000000000000000000000000000000000000000000815260040161060990611d96565b60405180910390fd5b505050565b60006106238383610d94565b905060001515811515141561066d576040517f08c379a000000000000000000000000000000000000000000000000000000000815260040161066490611d96565b60405180910390fd5b505050565b600061067e8383610deb565b90506000151581151514156106c8576040517f08c379a00000000000000000000000000000000000000000000000000000000081526004016106bf90611d96565b60405180910390fd5b505050565b600080600e6000015490508091505090565b60008060106000015490508091505090565b60006106fd8383610ea6565b9050600015158115151415610747576040517f08c379a000000000000000000000000000000000000000000000000000000000815260040161073e90611d96565b60405180910390fd5b505050565b6000803390506000600960008373ffffffffffffffffffffffffffffffffffffffff1673ffffffffffffffffffffffffffffffffffffffff16815260200190815260200160002060008673ffffffffffffffffffffffffffffffffffffffff1673ffffffffffffffffffffffffffffffffffffffff1681526020019081526020016000206000015490508084101561084057600084826107ec9190611de5565b90506107f9838783610fea565b7f3fda289a93fbd447987ffc8940a1af71a1fad600cc184d06b56d4aa27139352283878360405161082c93929190611e28565b60405180910390a160019350505050610847565b6000925050505b92915050565b6000803390506000600960008373ffffffffffffffffffffffffffffffffffffffff1673ffffffffffffffffffffffffffffffffffffffff16815260200190815260200160002060008673ffffffffffffffffffffffffffffffffffffffff1673ffffffffffffffffffffffffffffffffffffffff16815260200190815260200160002060000154905080841061094057600081856108ec9190611de5565b90506108f9838783611096565b7f01722f0e92ffd761d4a842cffdd36fe3adb6091e41732a4e714250176b7d8d2283878360405161092c93929190611e28565b60405180910390a160019350505050610947565b6000925050505b92915050565b6000803390506000600960008773ffffffffffffffffffffffffffffffffffffffff1673ffffffffffffffffffffffffffffffffffffffff16815260200190815260200160002060008373ffffffffffffffffffffffffffffffffffffffff1673ffffffffffffffffffffffffffffffffffffffff1681526020019081526020016000206000015490506000601260008873ffffffffffffffffffffffffffffffffffffffff1673ffffffffffffffffffffffffffffffffffffffff168152602001908152602001600020600001549050848110158015610a2e5750848210155b15610a9257610a3e878487611142565b610a498787876111ee565b7f5f7542858008eeb041631f30e6109ae94b83a58e9a58261dd2c42c508850f93987878588604051610a7e9493929190611e5f565b60405180910390a160019350505050610a9a565b600093505050505b9392505050565b600080339050610ab2818585611096565b7f01722f0e92ffd761d4a842cffdd36fe3adb6091e41732a4e714250176b7d8d22818585604051610ae593929190611e28565b60405180910390a1600191505092915050565b600080339050600073ffffffffffffffffffffffffffffffffffffffff168473ffffffffffffffffffffffffffffffffffffffff1614610b8857610b3c8484611242565b610b45836112af565b7f0f6798a560793a54c3bcfe86a93cde1e73087d944c0ea20544137d41213968858484604051610b76929190611ea4565b60405180910390a16001915050610b8e565b60009150505b92915050565b600080600a60000160009054906101000a900473ffffffffffffffffffffffffffffffffffffffff1690503373ffffffffffffffffffffffffffffffffffffffff168173ffffffffffffffffffffffffffffffffffffffff161415610c94576000601260008773ffffffffffffffffffffffffffffffffffffffff1673ffffffffffffffffffffffffffffffffffffffff168152602001908152602001600020600001549050808411610c9257610c4c8686866112dd565b7fcb1c2f84d7cf66194c6a275e8b45e32f53586c160a45b41a85ebbebf253fba35868686604051610c7f93929190611e28565b60405180910390a1600192505050610c9a565b505b60009150505b9392505050565b6000803390506000601260008673ffffffffffffffffffffffffffffffffffffffff1673ffffffffffffffffffffffffffffffffffffffff168152602001908152602001600020600001549050600073ffffffffffffffffffffffffffffffffffffffff168573ffffffffffffffffffffffffffffffffffffffff1614158015610d2b5750808411155b15610d8757610d3984611331565b610d43858561135f565b7fcc16f5dbb4873280815c1ee09dbd06736cffcc184412cf7a71a0fdb75d397ca58585604051610d74929190611ea4565b60405180910390a1600192505050610d8e565b6000925050505b92915050565b600080339050610da5818585610fea565b7f3fda289a93fbd447987ffc8940a1af71a1fad600cc184d06b56d4aa271393522818585604051610dd893929190611e28565b60405180910390a1600191505092915050565b6000803390506000601260008373ffffffffffffffffffffffffffffffffffffffff1673ffffffffffffffffffffffffffffffffffffffff168152602001908152602001600020600001549050808411610e9957610e4985856113cc565b610e538285611438565b7fddf252ad1be2c89b69c2b068fc378daa952ba7f163c4a11628f55a4df523b3ef828686604051610e8693929190611e28565b60405180910390a1600192505050610ea0565b6000925050505b92915050565b600080600a60000160009054906101000a900473ffffffffffffffffffffffffffffffffffffffff1690503373ffffffffffffffffffffffffffffffffffffffff168173ffffffffffffffffffffffffffffffffffffffff161415610fde576000601260008673ffffffffffffffffffffffffffffffffffffffff1673ffffffffffffffffffffffffffffffffffffffff168152602001908152602001600020600001549050600073ffffffffffffffffffffffffffffffffffffffff168573ffffffffffffffffffffffffffffffffffffffff1614158015610f895750808411155b15610fdc57610f9885856114a5565b7fed4b457a520c16e75679d7d00205ed390288be3b5a5b0368662516bbbc54eb078585604051610fc9929190611ea4565b60405180910390a1600192505050610fe4565b505b60009150505b92915050565b6000819050610ffa8484836114f5565b81600b60008673ffffffffffffffffffffffffffffffffffffffff1673ffffffffffffffffffffffffffffffffffffffff16815260200190815260200160002060008573ffffffffffffffffffffffffffffffffffffffff1673ffffffffffffffffffffffffffffffffffffffff16815260200190815260200160002060000160008282546110899190611ecd565b9250508190555050505050565b60008190506110a684848361161b565b81601560008673ffffffffffffffffffffffffffffffffffffffff1673ffffffffffffffffffffffffffffffffffffffff16815260200190815260200160002060008573ffffffffffffffffffffffffffffffffffffffff1673ffffffffffffffffffffffffffffffffffffffff16815260200190815260200160002060000160008282546111359190611ecd565b9250508190555050505050565b6000819050611152848483611738565b81600860008673ffffffffffffffffffffffffffffffffffffffff1673ffffffffffffffffffffffffffffffffffffffff16815260200190815260200160002060008573ffffffffffffffffffffffffffffffffffffffff1673ffffffffffffffffffffffffffffffffffffffff16815260200190815260200160002060000160008282546111e19190611ecd565b9250508190555050505050565b6111f882826113cc565b6112028382611438565b7fddf252ad1be2c89b69c2b068fc378daa952ba7f163c4a11628f55a4df523b3ef83838360405161123593929190611e28565b60405180910390a1505050565b6000819050611251838261185e565b81600360008573ffffffffffffffffffffffffffffffffffffffff1673ffffffffffffffffffffffffffffffffffffffff16815260200190815260200160002060000160008282546112a39190611ecd565b92505081905550505050565b60008190506112bd81611900565b81600460000160008282546112d29190611ecd565b925050819055505050565b6112e782826113cc565b6112f18382611438565b7fddf252ad1be2c89b69c2b068fc378daa952ba7f163c4a11628f55a4df523b3ef83838360405161132493929190611e28565b60405180910390a1505050565b600081905061133f81611927565b81601360000160008282546113549190611ecd565b925050819055505050565b600081905061136e8382611957565b81600260008573ffffffffffffffffffffffffffffffffffffffff1673ffffffffffffffffffffffffffffffffffffffff16815260200190815260200160002060000160008282546113c09190611ecd565b92505081905550505050565b60008190506113db8382611a02565b816000808573ffffffffffffffffffffffffffffffffffffffff1673ffffffffffffffffffffffffffffffffffffffff168152602001908152602001600020600001600082825461142c9190611ecd565b92505081905550505050565b60008190506114478382611aa4565b81600160008573ffffffffffffffffffffffffffffffffffffffff1673ffffffffffffffffffffffffffffffffffffffff16815260200190815260200160002060000160008282546114999190611ecd565b92505081905550505050565b6114ae81611331565b6114b8828261135f565b7fcc16f5dbb4873280815c1ee09dbd06736cffcc184412cf7a71a0fdb75d397ca582826040516114e9929190611ea4565b60405180910390a15050565b60008161150190611f2d565b9050600061158e600960008773ffffffffffffffffffffffffffffffffffffffff1673ffffffffffffffffffffffffffffffffffffffff16815260200190815260200160002060008673ffffffffffffffffffffffffffffffffffffffff1673ffffffffffffffffffffffffffffffffffffffff1681526020019081526020016000206000015483611b4f565b905080600960008773ffffffffffffffffffffffffffffffffffffffff1673ffffffffffffffffffffffffffffffffffffffff16815260200190815260200160002060008673ffffffffffffffffffffffffffffffffffffffff1673ffffffffffffffffffffffffffffffffffffffff168152602001908152602001600020600001819055505050505050565b600081905060006116ab600960008773ffffffffffffffffffffffffffffffffffffffff1673ffffffffffffffffffffffffffffffffffffffff16815260200190815260200160002060008673ffffffffffffffffffffffffffffffffffffffff1673ffffffffffffffffffffffffffffffffffffffff1681526020019081526020016000206000015483611b4f565b905080600960008773ffffffffffffffffffffffffffffffffffffffff1673ffffffffffffffffffffffffffffffffffffffff16815260200190815260200160002060008673ffffffffffffffffffffffffffffffffffffffff1673ffffffffffffffffffffffffffffffffffffffff168152602001908152602001600020600001819055505050505050565b60008161174490611f2d565b905060006117d1600960008773ffffffffffffffffffffffffffffffffffffffff1673ffffffffffffffffffffffffffffffffffffffff16815260200190815260200160002060008673ffffffffffffffffffffffffffffffffffffffff1673ffffffffffffffffffffffffffffffffffffffff1681526020019081526020016000206000015483611b4f565b905080600960008773ffffffffffffffffffffffffffffffffffffffff1673ffffffffffffffffffffffffffffffffffffffff16815260200190815260200160002060008673ffffffffffffffffffffffffffffffffffffffff1673ffffffffffffffffffffffffffffffffffffffff168152602001908152602001600020600001819055505050505050565b600081905060006118b1601260008673ffffffffffffffffffffffffffffffffffffffff1673ffffffffffffffffffffffffffffffffffffffff1681526020019081526020016000206000015483611b4f565b905080601260008673ffffffffffffffffffffffffffffffffffffffff1673ffffffffffffffffffffffffffffffffffffffff1681526020019081526020016000206000018190555050505050565b60008190506000611916600e6000015483611b4f565b905080600e60000181905550505050565b60008161193390611f2d565b90506000611946600e6000015483611b4f565b905080600e60000181905550505050565b60008161196390611f2d565b905060006119b3601260008673ffffffffffffffffffffffffffffffffffffffff1673ffffffffffffffffffffffffffffffffffffffff1681526020019081526020016000206000015483611b4f565b905080601260008673ffffffffffffffffffffffffffffffffffffffff1673ffffffffffffffffffffffffffffffffffffffff1681526020019081526020016000206000018190555050505050565b60008190506000611a55601260008673ffffffffffffffffffffffffffffffffffffffff1673ffffffffffffffffffffffffffffffffffffffff1681526020019081526020016000206000015483611b4f565b905080601260008673ffffffffffffffffffffffffffffffffffffffff1673ffffffffffffffffffffffffffffffffffffffff1681526020019081526020016000206000018190555050505050565b600081611ab090611f2d565b90506000611b00601260008673ffffffffffffffffffffffffffffffffffffffff1673ffffffffffffffffffffffffffffffffffffffff1681526020019081526020016000206000015483611b4f565b905080601260008673ffffffffffffffffffffffffffffffffffffffff1673ffffffffffffffffffffffffffffffffffffffff1681526020019081526020016000206000018190555050505050565b60008083905060008382611b639190611f76565b9050600081905080935050505092915050565b600080fd5b600073ffffffffffffffffffffffffffffffffffffffff82169050919050565b6000611ba682611b7b565b9050919050565b611bb681611b9b565b8114611bc157600080fd5b50565b600081359050611bd381611bad565b92915050565b6000819050919050565b611bec81611bd9565b8114611bf757600080fd5b50565b600081359050611c0981611be3565b92915050565b60008060408385031215611c2657611c25611b76565b5b6000611c3485828601611bc4565b9250506020611c4585828601611bfa565b9150509250929050565b60008060408385031215611c6657611c65611b76565b5b6000611c7485828601611bc4565b9250506020611c8585828601611bc4565b9150509250929050565b611c9881611bd9565b82525050565b6000602082019050611cb36000830184611c8f565b92915050565b600080600060608486031215611cd257611cd1611b76565b5b6000611ce086828701611bc4565b9350506020611cf186828701611bc4565b9250506040611d0286828701611bfa565b9150509250925092565b600060208284031215611d2257611d21611b76565b5b6000611d3084828501611bc4565b91505092915050565b600082825260208201905092915050565b7f52756c6520636f6e646974696f6e206661696c65640000000000000000000000600082015250565b6000611d80601583611d39565b9150611d8b82611d4a565b602082019050919050565b60006020820190508181036000830152611daf81611d73565b9050919050565b7f4e487b7100000000000000000000000000000000000000000000000000000000600052601160045260246000fd5b6000611df082611bd9565b9150611dfb83611bd9565b925082821015611e0e57611e0d611db6565b5b828203905092915050565b611e2281611b9b565b82525050565b6000606082019050611e3d6000830186611e19565b611e4a6020830185611e19565b611e576040830184611c8f565b949350505050565b6000608082019050611e746000830187611e19565b611e816020830186611e19565b611e8e6040830185611e19565b611e9b6060830184611c8f565b95945050505050565b6000604082019050611eb96000830185611e19565b611ec66020830184611c8f565b9392505050565b6000611ed882611bd9565b9150611ee383611bd9565b9250827fffffffffffffffffffffffffffffffffffffffffffffffffffffffffffffffff03821115611f1857611f17611db6565b5b828201905092915050565b6000819050919050565b6000611f3882611f23565b91507f8000000000000000000000000000000000000000000000000000000000000000821415611f6b57611f6a611db6565b5b816000039050919050565b6000611f8182611f23565b9150611f8c83611f23565b9250817f7fffffffffffffffffffffffffffffffffffffffffffffffffffffffffffffff03831360008312151615611fc757611fc6611db6565b5b817f8000000000000000000000000000000000000000000000000000000000000000038312600083121615611fff57611ffe611db6565b5b82820190509291505056fea2646970667358221220893a0eb1bdcc5eee5a01bf05c7036dc7c2a2bac9544fb9112d517f9a496d117b64736f6c634300080c0033",
  "immutableReferences": {},
  "source": "contract Controllable {\n  struct TotalInTuple {\n    uint n;\n    bool _valid;\n  }\n  struct TotalOutTuple {\n    uint n;\n    bool _valid;\n  }\n  struct AllMintTuple {\n    uint n;\n    bool _valid;\n  }\n  struct SymbolTuple {\n    uint n;\n    bool _valid;\n  }\n  struct SpentTotalTuple {\n    uint m;\n    bool _valid;\n  }\n  struct AllowanceTuple {\n    uint n;\n    bool _valid;\n  }\n  struct TotalBurnTuple {\n    uint n;\n    bool _valid;\n  }\n  struct ControllerTuple {\n    address p;\n    bool _valid;\n  }\n  struct DecreaseAllowanceTotalTuple {\n    uint m;\n    bool _valid;\n  }\n  struct TotalMintTuple {\n    uint n;\n    bool _valid;\n  }\n  struct NameTuple {\n    uint n;\n    bool _valid;\n  }\n  struct TotalSupplyTuple {\n    uint n;\n    bool _valid;\n  }\n  struct DecimalsTuple {\n    uint n;\n    bool _valid;\n  }\n  struct BalanceOfTuple {\n    uint n;\n    bool _valid;\n  }\n  struct AllBurnTuple {\n    uint n;\n    bool _valid;\n  }\n  struct IncreaseAllowanceTotalTuple {\n    uint m;\n    bool _valid;\n  }\n  mapping(address=>TotalInTuple) totalIn;\n  mapping(address=>TotalOutTuple) totalOut;\n  mapping(address=>TotalBurnTuple) totalBurn;\n  mapping(address=>TotalMintTuple) totalMint;\n  AllMintTuple allMint;\n  SymbolTuple symbol;\n  mapping(address=>mapping(address=>SpentTotalTuple)) spentTotal;\n  mapping(address=>mapping(address=>AllowanceTuple)) allowance;\n  ControllerTuple controller;\n  mapping(address=>mapping(address=>DecreaseAllowanceTotalTuple)) decreaseAllowanceTotal;\n  NameTuple name;\n  TotalSupplyTuple totalSupply;\n  DecimalsTuple decimals;\n  mapping(address=>BalanceOfTuple) balanceOf;\n  AllBurnTuple allBurn;\n  mapping(address=>mapping(address=>IncreaseAllowanceTotalTuple)) increaseAllowanceTotal;\n  event TransferFrom(address from,address to,address spender,uint amount);\n  event Burn(address p,uint amount);\n  event IncreaseAllowance(address owner,address spender,uint n);\n  event Mint(address p,uint amount);\n  event ControllerRedeem(address p,uint amount);\n  event DecreaseAllowance(address owner,address spender,uint n);\n  event ControllerTransfer(address from,address to,uint amount);\n  event Transfer(address from,address to,uint amount);\n  constructor(address p) public {\n    updateNameOnInsertConstructor_r10();\n    updateOwnerOnInsertConstructor_r30();\n    updateTotalBalancesOnInsertConstructor_r7();\n    updateSymbolOnInsertConstructor_r31();\n    updateTotalSupplyOnInsertConstructor_r13();\n    updateControllerOnInsertConstructor_r3(p);\n    updateDecimalsOnInsertConstructor_r9();\n  }\n  function getSymbol() public view  returns (uint) {\n      uint n = symbol.n;\n      return n;\n  }\n  function controllerRedeem(address p,uint amount) public    {\n      bool r6 = updateControllerRedeemOnInsertRecv_controllerRedeem_r6(p,amount);\n      if(r6==false) {\n        revert(\"Rule condition failed\");\n      }\n  }\n  function controllerTransfer(address from,address to,uint amount) public    {\n      bool r15 = updateControllerTransferOnInsertRecv_controllerTransfer_r15(from,to,amount);\n      if(r15==false) {\n        revert(\"Rule condition failed\");\n      }\n  }\n  function getAllowance(address p,address s) public view  returns (uint) {\n      uint n = allowance[p][s].n;\n      return n;\n  }\n  function getBalanceOf(address p) public view  returns (uint) {\n      uint n = balanceOf[p].n;\n      return n;\n  }\n  function getDecimals() public view  returns (uint) {\n      uint n = decimals.n;\n      return n;\n  }\n  function getName() public view  returns (uint) {\n      uint n = name.n;\n      return n;\n  }\n  function mint(address p,uint amount) public    {\n      bool r16 = updateMintOnInsertRecv_mint_r16(p,amount);\n      if(r16==false) {\n        revert(\"Rule condition failed\");\n      }\n  }\n  function increaseAllowance(address spender,uint n) public    {\n      bool r22 = updateIncreaseAllowanceOnInsertRecv_increaseAllowance_r22(spender,n);\n      if(r22==false) {\n        revert(\"Rule condition failed\");\n      }\n  }\n  function getTotalSupply() public view  returns (uint) {\n      uint n = totalSupply.n;\n      return n;\n  }\n  function approve(address s,uint n) public    {\n      bool r2 = updateDecreaseAllowanceOnInsertRecv_approve_r2(s,n);\n      bool r20 = updateIncreaseAllowanceOnInsertRecv_approve_r20(s,n);\n      if(r2==false && r20==false) {\n        revert(\"Rule condition failed\");\n      }\n  }\n  function burn(address p,uint amount) public    {\n      bool r29 = updateBurnOnInsertRecv_burn_r29(p,amount);\n      if(r29==false) {\n        revert(\"Rule condition failed\");\n      }\n  }\n  function transfer(address to,uint amount) public    {\n      bool r24 = updateTransferOnInsertRecv_transfer_r24(to,amount);\n      if(r24==false) {\n        revert(\"Rule condition failed\");\n      }\n  }\n  function decreaseAllowance(address spender,uint n) public    {\n      bool r17 = updateDecreaseAllowanceOnInsertRecv_decreaseAllowance_r17(spender,n);\n      if(r17==false) {\n        revert(\"Rule condition failed\");\n      }\n  }\n  function transferFrom(address from,address to,uint amount) public    {\n      bool r32 = updateTransferFromOnInsertRecv_transferFrom_r32(from,to,amount);\n      if(r32==false) {\n        revert(\"Rule condition failed\");\n      }\n  }\n  function updateTotalBurnOnInsertBurn_r19(address p,uint n) private    {\n      int delta0 = int(n);\n      updateBalanceOfOnIncrementTotalBurn_r28(p,delta0);\n      totalBurn[p].n += n;\n  }\n  function updateDecreaseAllowanceTotalOnInsertDecreaseAllowance_r1(address o,address s,uint n) private    {\n      int delta0 = int(n);\n      updateAllowanceOnIncrementDecreaseAllowanceTotal_r12(o,s,delta0);\n      decreaseAllowanceTotal[o][s].m += n;\n  }\n  function updateIncreaseAllowanceOnInsertRecv_increaseAllowance_r22(address s,uint n) private   returns (bool) {\n      address o = msg.sender;\n      updateIncreaseAllowanceTotalOnInsertIncreaseAllowance_r5(o,s,n);\n      emit IncreaseAllowance(o,s,n);\n      return true;\n      return false;\n  }\n  function updateBalanceOfOnIncrementTotalMint_r28(address p,int n) private    {\n      int _delta = int(n);\n      uint newValue = updateuintByint(balanceOf[p].n,_delta);\n      balanceOf[p].n = newValue;\n  }\n  function updateMintOnInsertRecv_mint_r16(address p,uint n) private   returns (bool) {\n      address s = msg.sender;\n      if(p!=address(0)) {\n        updateTotalMintOnInsertMint_r21(p,n);\n        updateAllMintOnInsertMint_r14(n);\n        emit Mint(p,n);\n        return true;\n      }\n      return false;\n  }\n  function updateTotalSupplyOnIncrementAllBurn_r23(int b) private    {\n      int _delta = int(-b);\n      uint newValue = updateuintByint(totalSupply.n,_delta);\n      totalSupply.n = newValue;\n  }\n  function updateControllerRedeemOnInsertRecv_controllerRedeem_r6(address p,uint n) private   returns (bool) {\n      address c = controller.p;\n      if(c==msg.sender) {\n        uint m = balanceOf[p].n;\n        if(p!=address(0) && n<=m) {\n          updateBurnOnInsertControllerRedeem_r27(p,n);\n          emit ControllerRedeem(p,n);\n          return true;\n        }\n      }\n      return false;\n  }\n  function updateTotalSupplyOnIncrementAllMint_r23(int m) private    {\n      int _delta = int(m);\n      uint newValue = updateuintByint(totalSupply.n,_delta);\n      totalSupply.n = newValue;\n  }\n  function updateAllowanceOnIncrementIncreaseAllowanceTotal_r12(address o,address s,int m) private    {\n      int _delta = int(m);\n      uint newValue = updateuintByint(allowance[o][s].n,_delta);\n      allowance[o][s].n = newValue;\n  }\n  function updateAllowanceOnIncrementSpentTotal_r12(address o,address s,int l) private    {\n      int _delta = int(-l);\n      uint newValue = updateuintByint(allowance[o][s].n,_delta);\n      allowance[o][s].n = newValue;\n  }\n  function updateDecimalsOnInsertConstructor_r9() private    {\n      decimals = DecimalsTuple(18,true);\n  }\n  function updateDecreaseAllowanceOnInsertRecv_decreaseAllowance_r17(address s,uint n) private   returns (bool) {\n      address o = msg.sender;\n      updateDecreaseAllowanceTotalOnInsertDecreaseAllowance_r1(o,s,n);\n      emit DecreaseAllowance(o,s,n);\n      return true;\n      return false;\n  }\n  function updateBurnOnInsertControllerRedeem_r27(address p,uint n) private    {\n      updateAllBurnOnInsertBurn_r33(n);\n      updateTotalBurnOnInsertBurn_r19(p,n);\n      emit Burn(p,n);\n  }\n  function updateTransferOnInsertControllerTransfer_r18(address s,address r,uint n) private    {\n      updateTotalInOnInsertTransfer_r11(r,n);\n      updateTotalOutOnInsertTransfer_r25(s,n);\n      emit Transfer(s,r,n);\n  }\n  function updateIncreaseAllowanceTotalOnInsertIncreaseAllowance_r5(address o,address s,uint n) private    {\n      int delta0 = int(n);\n      updateAllowanceOnIncrementIncreaseAllowanceTotal_r12(o,s,delta0);\n      increaseAllowanceTotal[o][s].m += n;\n  }\n  function updateBalanceOfOnIncrementTotalOut_r28(address p,int o) private    {\n      int _delta = int(-o);\n      uint newValue = updateuintByint(balanceOf[p].n,_delta);\n      balanceOf[p].n = newValue;\n  }\n  function updateSymbolOnInsertConstructor_r31() private    {\n      symbol = SymbolTuple(0,true);\n  }\n  function updateControllerTransferOnInsertRecv_controllerTransfer_r15(address s,address r,uint n) private   returns (bool) {\n      address c = controller.p;\n      if(c==msg.sender) {\n        uint m = balanceOf[s].n;\n        if(n<=m) {\n          updateTransferOnInsertControllerTransfer_r18(s,r,n);\n          emit ControllerTransfer(s,r,n);\n          return true;\n        }\n      }\n      return false;\n  }\n  function updateTransferOnInsertTransferFrom_r0(address o,address r,uint n) private    {\n      updateTotalInOnInsertTransfer_r11(r,n);\n      updateTotalOutOnInsertTransfer_r25(o,n);\n      emit Transfer(o,r,n);\n  }\n  function updateDecreaseAllowanceOnInsertRecv_approve_r2(address s,uint n) private   returns (bool) {\n      address o = msg.sender;\n      uint m = allowance[o][s].n;\n      if(n<m) {\n        uint d = m-n;\n        updateDecreaseAllowanceTotalOnInsertDecreaseAllowance_r1(o,s,d);\n        emit DecreaseAllowance(o,s,d);\n        return true;\n      }\n      return false;\n  }\n  function updateuintByint(uint x,int delta) private   returns (uint) {\n      int convertedX = int(x);\n      int value = convertedX+delta;\n      uint convertedValue = uint(value);\n      return convertedValue;\n  }\n  function updateBurnOnInsertRecv_burn_r29(address p,uint n) private   returns (bool) {\n      address s = msg.sender;\n      uint m = balanceOf[p].n;\n      if(p!=address(0) && n<=m) {\n        updateAllBurnOnInsertBurn_r33(n);\n        updateTotalBurnOnInsertBurn_r19(p,n);\n        emit Burn(p,n);\n        return true;\n      }\n      return false;\n  }\n  function updateAllBurnOnInsertBurn_r33(uint n) private    {\n      int delta0 = int(n);\n      updateTotalSupplyOnIncrementAllBurn_r23(delta0);\n      allBurn.n += n;\n  }\n  function updateTotalBalancesOnInsertConstructor_r7() private    {\n      // Empty()\n  }\n  function updateTransferFromOnInsertRecv_transferFrom_r32(address o,address r,uint n) private   returns (bool) {\n      address s = msg.sender;\n      uint k = allowance[o][s].n;\n      uint m = balanceOf[o].n;\n      if(m>=n && k>=n) {\n        updateSpentTotalOnInsertTransferFrom_r8(o,s,n);\n        updateTransferOnInsertTransferFrom_r0(o,r,n);\n        emit TransferFrom(o,r,s,n);\n        return true;\n      }\n      return false;\n  }\n  function updateIncreaseAllowanceOnInsertRecv_approve_r20(address s,uint n) private   returns (bool) {\n      address o = msg.sender;\n      uint m = allowance[o][s].n;\n      if(n>=m) {\n        uint d = n-m;\n        updateIncreaseAllowanceTotalOnInsertIncreaseAllowance_r5(o,s,d);\n        emit IncreaseAllowance(o,s,d);\n        return true;\n      }\n      return false;\n  }\n  function updateTotalOutOnInsertTransfer_r25(address p,uint n) private    {\n      int delta0 = int(n);\n      updateBalanceOfOnIncrementTotalOut_r28(p,delta0);\n      totalOut[p].n += n;\n  }\n  function updateTotalSupplyOnInsertConstructor_r13() private    {\n      totalSupply = TotalSupplyTuple(0,true);\n  }\n  function updateAllowanceOnIncrementDecreaseAllowanceTotal_r12(address o,address s,int d) private    {\n      int _delta = int(-d);\n      uint newValue = updateuintByint(allowance[o][s].n,_delta);\n      allowance[o][s].n = newValue;\n  }\n  function updateBalanceOfOnIncrementTotalBurn_r28(address p,int m) private    {\n      int _delta = int(-m);\n      uint newValue = updateuintByint(balanceOf[p].n,_delta);\n      balanceOf[p].n = newValue;\n  }\n  function updateSpentTotalOnInsertTransferFrom_r8(address o,address s,uint n) private    {\n      int delta0 = int(n);\n      updateAllowanceOnIncrementSpentTotal_r12(o,s,delta0);\n      spentTotal[o][s].m += n;\n  }\n  function updateNameOnInsertConstructor_r10() private    {\n      name = NameTuple(0,true);\n  }\n  function updateTransferOnInsertRecv_transfer_r24(address r,uint n) private   returns (bool) {\n      address s = msg.sender;\n      uint m = balanceOf[s].n;\n      if(n<=m) {\n        updateTotalInOnInsertTransfer_r11(r,n);\n        updateTotalOutOnInsertTransfer_r25(s,n);\n        emit Transfer(s,r,n);\n        return true;\n      }\n      return false;\n  }\n  function updateControllerOnInsertConstructor_r3(address p) private    {\n      controller = ControllerTuple(p,true);\n  }\n  function updateAllMintOnInsertMint_r14(uint n) private    {\n      int delta0 = int(n);\n      updateTotalSupplyOnIncrementAllMint_r23(delta0);\n      allMint.n += n;\n  }\n  function updateTotalMintOnInsertMint_r21(address p,uint n) private    {\n      int delta0 = int(n);\n      updateBalanceOfOnIncrementTotalMint_r28(p,delta0);\n      totalMint[p].n += n;\n  }\n  function updateTotalInOnInsertTransfer_r11(address p,uint n) private    {\n      int delta0 = int(n);\n      updateBalanceOfOnIncrementTotalIn_r28(p,delta0);\n      totalIn[p].n += n;\n  }\n  function updateBalanceOfOnIncrementTotalIn_r28(address p,int i) private    {\n      int _delta = int(i);\n      uint newValue = updateuintByint(balanceOf[p].n,_delta);\n      balanceOf[p].n = newValue;\n  }\n  function updateOwnerOnInsertConstructor_r30() private    {\n      address s = msg.sender;\n      // Empty()\n  }\n}",
  "sourcePath": "/Users/ljy/Desktop/PENN/2023_summer/boon_dsc/smart-contracts/optimizations/full/contracts/controllable.sol",
  "compiler": {
    "name": "solc",
    "version": "0.8.12+commit.f00d7308.Emscripten.clang"
  },
  "schemaVersion": "3.4.16",
  "updatedAt": "2023-12-28T07:38:25.067Z",
  "devdoc": {
    "kind": "dev",
    "methods": {},
    "version": 1
  },
  "userdoc": {
    "kind": "user",
    "methods": {},
    "version": 1
  }
}