{
  "contractName": "CrowFunding",
  "abi": [
    {
      "inputs": [
        {
          "internalType": "uint256",
          "name": "t",
          "type": "uint256"
        },
        {
          "internalType": "address",
          "name": "b",
          "type": "address"
        }
      ],
      "stateMutability": "nonpayable",
      "type": "constructor"
    },
    {
      "anonymous": false,
      "inputs": [
        {
          "indexed": false,
          "internalType": "bool",
          "name": "b",
          "type": "bool"
        }
      ],
      "name": "Closed",
      "type": "event"
    },
    {
      "anonymous": false,
      "inputs": [
        {
          "indexed": false,
          "internalType": "address",
          "name": "p",
          "type": "address"
        },
        {
          "indexed": false,
          "internalType": "uint256",
          "name": "n",
          "type": "uint256"
        }
      ],
      "name": "Invest",
      "type": "event"
    },
    {
      "anonymous": false,
      "inputs": [
        {
          "indexed": false,
          "internalType": "address",
          "name": "p",
          "type": "address"
        },
        {
          "indexed": false,
          "internalType": "uint256",
          "name": "n",
          "type": "uint256"
        }
      ],
      "name": "Refund",
      "type": "event"
    },
    {
      "anonymous": false,
      "inputs": [
        {
          "indexed": false,
          "internalType": "address",
          "name": "p",
          "type": "address"
        },
        {
          "indexed": false,
          "internalType": "uint256",
          "name": "n",
          "type": "uint256"
        }
      ],
      "name": "Withdraw",
      "type": "event"
    },
    {
      "inputs": [],
      "name": "getClosed",
      "outputs": [
        {
          "internalType": "bool",
          "name": "",
          "type": "bool"
        }
      ],
      "stateMutability": "view",
      "type": "function"
    },
    {
      "inputs": [],
      "name": "close",
      "outputs": [],
      "stateMutability": "nonpayable",
      "type": "function"
    },
    {
      "inputs": [],
      "name": "invest",
      "outputs": [],
      "stateMutability": "payable",
      "type": "function"
    },
    {
      "inputs": [],
      "name": "withdraw",
      "outputs": [],
      "stateMutability": "nonpayable",
      "type": "function"
    },
    {
      "inputs": [],
      "name": "refund",
      "outputs": [],
      "stateMutability": "nonpayable",
      "type": "function"
    },
    {
      "inputs": [],
      "name": "getRaised",
      "outputs": [
        {
          "internalType": "uint256",
          "name": "",
          "type": "uint256"
        }
      ],
      "stateMutability": "view",
      "type": "function"
    }
  ],
  "bytecode": "0x60806040523480156200001157600080fd5b5060405162000f4638038062000f4683398181016040528101906200003791906200030a565b620000476200009160201b60201c565b6200005881620000db60201b60201c565b620000686200017860201b60201c565b620000786200017a60201b60201c565b62000089826200021c60201b60201c565b505062000351565b6040518060400160405280600081526020016001151581525060036000820151816000015560208201518160010160006101000a81548160ff021916908315150217905550905050565b60405180604001604052808273ffffffffffffffffffffffffffffffffffffffff16815260200160011515815250600660008201518160000160006101000a81548173ffffffffffffffffffffffffffffffffffffffff021916908373ffffffffffffffffffffffffffffffffffffffff16021790555060208201518160000160146101000a81548160ff02191690831515021790555090505050565b565b600033905060405180604001604052808273ffffffffffffffffffffffffffffffffffffffff16815260200160011515815250600260008201518160000160006101000a81548173ffffffffffffffffffffffffffffffffffffffff021916908373ffffffffffffffffffffffffffffffffffffffff16021790555060208201518160000160146101000a81548160ff02191690831515021790555090505050565b604051806040016040528082815260200160011515815250600080820151816000015560208201518160010160006101000a81548160ff02191690831515021790555090505050565b600080fd5b6000819050919050565b6200027f816200026a565b81146200028b57600080fd5b50565b6000815190506200029f8162000274565b92915050565b600073ffffffffffffffffffffffffffffffffffffffff82169050919050565b6000620002d282620002a5565b9050919050565b620002e481620002c5565b8114620002f057600080fd5b50565b6000815190506200030481620002d9565b92915050565b6000806040838503121562000324576200032362000265565b5b600062000334858286016200028e565b92505060206200034785828601620002f3565b9150509250929050565b610be580620003616000396000f3fe6080604052600436106100555760003560e01c80633ccfd60b1461005a57806343d726d614610071578063590e1ae3146100885780637394d7531461009f578063b692c89d146100ca578063e8b5e51f146100f5575b600080fd5b34801561006657600080fd5b5061006f6100ff565b005b34801561007d57600080fd5b50610086610156565b005b34801561009457600080fd5b5061009d6101ad565b005b3480156100ab57600080fd5b506100b4610204565b6040516100c1919061090d565b60405180910390f35b3480156100d657600080fd5b506100df610223565b6040516100ec9190610941565b60405180910390f35b6100fd610235565b005b600061010961028c565b9050600015158115151415610153576040517f08c379a000000000000000000000000000000000000000000000000000000000815260040161014a906109b9565b60405180910390fd5b50565b6000610160610360565b90506000151581151514156101aa576040517f08c379a00000000000000000000000000000000000000000000000000000000081526004016101a1906109b9565b60405180910390fd5b50565b60006101b761046a565b9050600015158115151415610201576040517f08c379a00000000000000000000000000000000000000000000000000000000081526004016101f8906109b9565b60405180910390fd5b50565b600080600560000160009054906101000a900460ff1690508091505090565b60008060036000015490508091505090565b600061023f610565565b9050600015158115151415610289576040517f08c379a0000000000000000000000000000000000000000000000000000000008152600401610280906109b9565b60405180910390fd5b50565b600080600660000160009054906101000a900473ffffffffffffffffffffffffffffffffffffffff169050600080600001549050600060036000015490503373ffffffffffffffffffffffffffffffffffffffff168373ffffffffffffffffffffffffffffffffffffffff161415610355578181106103545761030f8382610611565b7f884edad9ce6fa2440d8a54cc123490eb96d2768479d49ff9c7366125a94243648382604051610340929190610a1a565b60405180910390a16001935050505061035d565b5b600093505050505b90565b600080600260000160009054906101000a900473ffffffffffffffffffffffffffffffffffffffff1690503373ffffffffffffffffffffffffffffffffffffffff168173ffffffffffffffffffffffffffffffffffffffff16141561046157604051806040016040528060011515815260200160011515815250600560008201518160000160006101000a81548160ff02191690831515021790555060208201518160000160016101000a81548160ff0219169083151502179055509050507fd35245c3f5482d59356cc078c83382a617e13c583853d5f8005ae1b2f1f29324600160405161044f919061090d565b60405180910390a16001915050610467565b60009150505b90565b6000600560000160009054906101000a900460ff16151560011515141561055d576000339050600080600001549050600060036000015490506000600960008573ffffffffffffffffffffffffffffffffffffffff1673ffffffffffffffffffffffffffffffffffffffff16815260200190815260200160002060000154905082821080156104f95750600081115b1561055857610508848261064b565b61051284826106b8565b7fbb28353e4598c3b9199101a66e0989549b659a59a54d2c27fbb183f1932c8e6d8482604051610543929190610a1a565b60405180910390a16001945050505050610562565b505050505b600090505b90565b6000600560000160009054906101000a900460ff16151560001515141561060957600060036000015490506000806000015490506000349050600033905082841015610604576105b581836106f2565b6105be8261075f565b7fd90d253a9de34d2fdd5a75ae49ea17fcb43af32fc8ea08cc6d2341991dd3872e81836040516105ef929190610a1a565b60405180910390a1600194505050505061060e565b505050505b600090505b90565b8173ffffffffffffffffffffffffffffffffffffffff166108fc829081150290604051600060405180830381858888f19350505050505050565b600081905061065a838261077e565b81600860008573ffffffffffffffffffffffffffffffffffffffff1673ffffffffffffffffffffffffffffffffffffffff16815260200190815260200160002060000160008282546106ac9190610a72565b92505081905550505050565b8173ffffffffffffffffffffffffffffffffffffffff166108fc829081150290604051600060405180830381858888f19350505050505050565b60008190506107018382610829565b81600760008573ffffffffffffffffffffffffffffffffffffffff1673ffffffffffffffffffffffffffffffffffffffff16815260200190815260200160002060000160008282546107539190610a72565b92505081905550505050565b80600360000160008282546107749190610a72565b9250508190555050565b60008161078a90610ad2565b905060006107da600960008673ffffffffffffffffffffffffffffffffffffffff1673ffffffffffffffffffffffffffffffffffffffff16815260200190815260200160002060000154836108cb565b905080600960008673ffffffffffffffffffffffffffffffffffffffff1673ffffffffffffffffffffffffffffffffffffffff1681526020019081526020016000206000018190555050505050565b6000819050600061087c600960008673ffffffffffffffffffffffffffffffffffffffff1673ffffffffffffffffffffffffffffffffffffffff16815260200190815260200160002060000154836108cb565b905080600960008673ffffffffffffffffffffffffffffffffffffffff1673ffffffffffffffffffffffffffffffffffffffff1681526020019081526020016000206000018190555050505050565b600080839050600083826108df9190610b1b565b9050600081905080935050505092915050565b60008115159050919050565b610907816108f2565b82525050565b600060208201905061092260008301846108fe565b92915050565b6000819050919050565b61093b81610928565b82525050565b60006020820190506109566000830184610932565b92915050565b600082825260208201905092915050565b7f52756c6520636f6e646974696f6e206661696c65640000000000000000000000600082015250565b60006109a360158361095c565b91506109ae8261096d565b602082019050919050565b600060208201905081810360008301526109d281610996565b9050919050565b600073ffffffffffffffffffffffffffffffffffffffff82169050919050565b6000610a04826109d9565b9050919050565b610a14816109f9565b82525050565b6000604082019050610a2f6000830185610a0b565b610a3c6020830184610932565b9392505050565b7f4e487b7100000000000000000000000000000000000000000000000000000000600052601160045260246000fd5b6000610a7d82610928565b9150610a8883610928565b9250827fffffffffffffffffffffffffffffffffffffffffffffffffffffffffffffffff03821115610abd57610abc610a43565b5b828201905092915050565b6000819050919050565b6000610add82610ac8565b91507f8000000000000000000000000000000000000000000000000000000000000000821415610b1057610b0f610a43565b5b816000039050919050565b6000610b2682610ac8565b9150610b3183610ac8565b9250817f7fffffffffffffffffffffffffffffffffffffffffffffffffffffffffffffff03831360008312151615610b6c57610b6b610a43565b5b817f8000000000000000000000000000000000000000000000000000000000000000038312600083121615610ba457610ba3610a43565b5b82820190509291505056fea26469706673582212204ae204e0dc07afe2e9a461d3c7809c63c74032121f69635946593c998526b09a64736f6c634300080c0033",
  "immutableReferences": {},
  "source": "contract CrowFunding {\n  struct TargetTuple {\n    uint t;\n    bool _valid;\n  }\n  struct OwnerTuple {\n    address p;\n    bool _valid;\n  }\n  struct RaisedTuple {\n    uint n;\n    bool _valid;\n  }\n  struct ClosedTuple {\n    bool b;\n    bool _valid;\n  }\n  struct InvestTotalTuple {\n    uint n;\n    bool _valid;\n  }\n  struct RefundTotalTuple {\n    uint n;\n    bool _valid;\n  }\n  struct BeneficiaryTuple {\n    address p;\n    bool _valid;\n  }\n  struct BalanceOfTuple {\n    uint n;\n    bool _valid;\n  }\n  TargetTuple target;\n  OwnerTuple owner;\n  RaisedTuple raised;\n  ClosedTuple closed;\n  BeneficiaryTuple beneficiary;\n  mapping(address=>InvestTotalTuple) investTotal;\n  mapping(address=>RefundTotalTuple) refundTotal;\n  mapping(address=>BalanceOfTuple) balanceOf;\n  event Refund(address p,uint n);\n  event Invest(address p,uint n);\n  event Closed(bool b);\n  event Withdraw(address p,uint n);\n  constructor(uint t,address b) public {\n    updateRaisedOnInsertConstructor_r6();\n    updateBeneficiaryOnInsertConstructor_r16(b);\n    updateTotalBalanceOnInsertConstructor_r12();\n    updateOwnerOnInsertConstructor_r7();\n    updateTargetOnInsertConstructor_r11(t);\n  }\n  function getClosed() public view  returns (bool) {\n      bool b = closed.b;\n      return b;\n  }\n  function close() public    {\n      bool r9 = updateClosedOnInsertRecv_close_r9();\n      if(r9==false) {\n        revert(\"Rule condition failed\");\n      }\n  }\n  function invest() public  payable  {\n      bool r4 = updateInvestOnInsertRecv_invest_r4();\n      if(r4==false) {\n        revert(\"Rule condition failed\");\n      }\n  }\n  function withdraw() public    {\n      bool r8 = updateWithdrawOnInsertRecv_withdraw_r8();\n      if(r8==false) {\n        revert(\"Rule condition failed\");\n      }\n  }\n  function refund() public    {\n      bool r3 = updateRefundOnInsertRecv_refund_r3();\n      if(r3==false) {\n        revert(\"Rule condition failed\");\n      }\n  }\n  function getRaised() public view  returns (uint) {\n      uint n = raised.n;\n      return n;\n  }\n  function updateBeneficiaryOnInsertConstructor_r16(address p) private    {\n      beneficiary = BeneficiaryTuple(p,true);\n  }\n  function updateRefundOnInsertRecv_refund_r3() private   returns (bool) {\n      if(true==closed.b) {\n        address p = msg.sender;\n        uint t = target.t;\n        uint r = raised.n;\n        uint n = balanceOf[p].n;\n        if(r<t && n>0) {\n          updateRefundTotalOnInsertRefund_r14(p,n);\n          updateSendOnInsertRefund_r1(p,n);\n          emit Refund(p,n);\n          return true;\n        }\n      }\n      return false;\n  }\n  function updateSendOnInsertRefund_r1(address p,uint n) private    {\n      payable(p).send(n);\n  }\n  function updateInvestTotalOnInsertInvest_r5(address p,uint m) private    {\n      int delta0 = int(m);\n      updateBalanceOfOnIncrementInvestTotal_r2(p,delta0);\n      investTotal[p].n += m;\n  }\n  function updateTotalBalanceOnInsertConstructor_r12() private    {\n      // Empty()\n  }\n  function updateuintByint(uint x,int delta) private   returns (uint) {\n      int convertedX = int(x);\n      int value = convertedX+delta;\n      uint convertedValue = uint(value);\n      return convertedValue;\n  }\n  function updateRaisedOnInsertConstructor_r6() private    {\n      raised = RaisedTuple(0,true);\n  }\n  function updateWithdrawOnInsertRecv_withdraw_r8() private   returns (bool) {\n      address p = beneficiary.p;\n      uint t = target.t;\n      uint r = raised.n;\n      if(p==msg.sender) {\n        if(r>=t) {\n          updateSendOnInsertWithdraw_r0(p,r);\n          emit Withdraw(p,r);\n          return true;\n        }\n      }\n      return false;\n  }\n  function updateRaisedOnInsertInvest_r13(uint m) private    {\n      raised.n += m;\n  }\n  function updateTargetOnInsertConstructor_r11(uint t) private    {\n      target = TargetTuple(t,true);\n  }\n  function updateBalanceOfOnIncrementRefundTotal_r2(address p,int r) private    {\n      int _delta = int(-r);\n      uint newValue = updateuintByint(balanceOf[p].n,_delta);\n      balanceOf[p].n = newValue;\n  }\n  function updateRefundTotalOnInsertRefund_r14(address p,uint m) private    {\n      int delta0 = int(m);\n      updateBalanceOfOnIncrementRefundTotal_r2(p,delta0);\n      refundTotal[p].n += m;\n  }\n  function updateInvestOnInsertRecv_invest_r4() private   returns (bool) {\n      if(false==closed.b) {\n        uint s = raised.n;\n        uint t = target.t;\n        uint n = msg.value;\n        address p = msg.sender;\n        if(s<t) {\n          updateInvestTotalOnInsertInvest_r5(p,n);\n          updateRaisedOnInsertInvest_r13(n);\n          emit Invest(p,n);\n          return true;\n        }\n      }\n      return false;\n  }\n  function updateClosedOnInsertRecv_close_r9() private   returns (bool) {\n      address s = owner.p;\n      if(s==msg.sender) {\n        closed = ClosedTuple(true,true);\n        emit Closed(true);\n        return true;\n      }\n      return false;\n  }\n  function updateSendOnInsertWithdraw_r0(address p,uint r) private    {\n      payable(p).send(r);\n  }\n  function updateOwnerOnInsertConstructor_r7() private    {\n      address p = msg.sender;\n      owner = OwnerTuple(p,true);\n  }\n  function updateBalanceOfOnIncrementInvestTotal_r2(address p,int i) private    {\n      int _delta = int(i);\n      uint newValue = updateuintByint(balanceOf[p].n,_delta);\n      balanceOf[p].n = newValue;\n  }\n}",
  "sourcePath": "/Users/ljy/Desktop/PENN/2023_summer/boon_dsc/smart-contracts/optimizations/full/contracts/crowFunding.sol",
  "compiler": {
    "name": "solc",
    "version": "0.8.12+commit.f00d7308.Emscripten.clang"
  },
  "schemaVersion": "3.4.16",
  "updatedAt": "2023-12-29T02:04:44.885Z",
  "devdoc": {
    "kind": "dev",
    "methods": {},
    "version": 1
  },
  "userdoc": {
    "kind": "user",
    "methods": {},
    "version": 1
  }
}