{
  "contractName": "Erc1155",
  "abi": [
    {
      "inputs": [],
      "stateMutability": "nonpayable",
      "type": "constructor"
    },
    {
      "anonymous": false,
      "inputs": [
        {
          "indexed": false,
          "internalType": "uint256",
          "name": "tokenId",
          "type": "uint256"
        },
        {
          "indexed": false,
          "internalType": "address",
          "name": "p",
          "type": "address"
        },
        {
          "indexed": false,
          "internalType": "uint256",
          "name": "amount",
          "type": "uint256"
        }
      ],
      "name": "Burn",
      "type": "event"
    },
    {
      "anonymous": false,
      "inputs": [
        {
          "indexed": false,
          "internalType": "uint256",
          "name": "tokenId",
          "type": "uint256"
        },
        {
          "indexed": false,
          "internalType": "address",
          "name": "p",
          "type": "address"
        },
        {
          "indexed": false,
          "internalType": "address",
          "name": "s",
          "type": "address"
        },
        {
          "indexed": false,
          "internalType": "uint256",
          "name": "n",
          "type": "uint256"
        }
      ],
      "name": "IncreaseAllowance",
      "type": "event"
    },
    {
      "anonymous": false,
      "inputs": [
        {
          "indexed": false,
          "internalType": "uint256",
          "name": "tokenId",
          "type": "uint256"
        },
        {
          "indexed": false,
          "internalType": "address",
          "name": "p",
          "type": "address"
        },
        {
          "indexed": false,
          "internalType": "uint256",
          "name": "amount",
          "type": "uint256"
        }
      ],
      "name": "Mint",
      "type": "event"
    },
    {
      "anonymous": false,
      "inputs": [
        {
          "indexed": false,
          "internalType": "address",
          "name": "sender",
          "type": "address"
        },
        {
          "indexed": false,
          "internalType": "address",
          "name": "operator",
          "type": "address"
        },
        {
          "indexed": false,
          "internalType": "bool",
          "name": "approved",
          "type": "bool"
        }
      ],
      "name": "SetApprovalForAll",
      "type": "event"
    },
    {
      "anonymous": false,
      "inputs": [
        {
          "indexed": false,
          "internalType": "uint256",
          "name": "tokenId",
          "type": "uint256"
        },
        {
          "indexed": false,
          "internalType": "address",
          "name": "from",
          "type": "address"
        },
        {
          "indexed": false,
          "internalType": "address",
          "name": "to",
          "type": "address"
        },
        {
          "indexed": false,
          "internalType": "uint256",
          "name": "amount",
          "type": "uint256"
        }
      ],
      "name": "Transfer",
      "type": "event"
    },
    {
      "anonymous": false,
      "inputs": [
        {
          "indexed": false,
          "internalType": "uint256",
          "name": "tokenId",
          "type": "uint256"
        },
        {
          "indexed": false,
          "internalType": "address",
          "name": "from",
          "type": "address"
        },
        {
          "indexed": false,
          "internalType": "address",
          "name": "to",
          "type": "address"
        },
        {
          "indexed": false,
          "internalType": "address",
          "name": "spender",
          "type": "address"
        },
        {
          "indexed": false,
          "internalType": "uint256",
          "name": "amount",
          "type": "uint256"
        }
      ],
      "name": "TransferFrom",
      "type": "event"
    },
    {
      "inputs": [
        {
          "internalType": "uint256",
          "name": "tokenId",
          "type": "uint256"
        },
        {
          "internalType": "address",
          "name": "s",
          "type": "address"
        },
        {
          "internalType": "uint256",
          "name": "n",
          "type": "uint256"
        }
      ],
      "name": "approve",
      "outputs": [],
      "stateMutability": "nonpayable",
      "type": "function"
    },
    {
      "inputs": [
        {
          "internalType": "uint256",
          "name": "tokenId",
          "type": "uint256"
        },
        {
          "internalType": "address",
          "name": "from",
          "type": "address"
        },
        {
          "internalType": "address",
          "name": "to",
          "type": "address"
        },
        {
          "internalType": "uint256",
          "name": "amount",
          "type": "uint256"
        }
      ],
      "name": "transferFrom",
      "outputs": [],
      "stateMutability": "nonpayable",
      "type": "function"
    },
    {
      "inputs": [
        {
          "internalType": "uint256",
          "name": "tokenId",
          "type": "uint256"
        },
        {
          "internalType": "address",
          "name": "p",
          "type": "address"
        },
        {
          "internalType": "address",
          "name": "s",
          "type": "address"
        }
      ],
      "name": "getAllowance",
      "outputs": [
        {
          "internalType": "uint256",
          "name": "",
          "type": "uint256"
        }
      ],
      "stateMutability": "view",
      "type": "function"
    },
    {
      "inputs": [
        {
          "internalType": "address",
          "name": "owner",
          "type": "address"
        },
        {
          "internalType": "address",
          "name": "operator",
          "type": "address"
        }
      ],
      "name": "getIsApprovedForAll",
      "outputs": [
        {
          "internalType": "bool",
          "name": "",
          "type": "bool"
        }
      ],
      "stateMutability": "view",
      "type": "function"
    },
    {
      "inputs": [
        {
          "internalType": "uint256",
          "name": "tokenId",
          "type": "uint256"
        },
        {
          "internalType": "address",
          "name": "p",
          "type": "address"
        },
        {
          "internalType": "uint256",
          "name": "amount",
          "type": "uint256"
        }
      ],
      "name": "burn",
      "outputs": [],
      "stateMutability": "nonpayable",
      "type": "function"
    },
    {
      "inputs": [
        {
          "internalType": "address",
          "name": "f",
          "type": "address"
        },
        {
          "internalType": "address",
          "name": "t",
          "type": "address"
        },
        {
          "internalType": "uint256",
          "name": "id",
          "type": "uint256"
        },
        {
          "internalType": "uint256",
          "name": "amount",
          "type": "uint256"
        },
        {
          "internalType": "uint256",
          "name": "data",
          "type": "uint256"
        }
      ],
      "name": "safeTransferFrom",
      "outputs": [],
      "stateMutability": "nonpayable",
      "type": "function"
    },
    {
      "inputs": [
        {
          "internalType": "uint256",
          "name": "tokenId",
          "type": "uint256"
        },
        {
          "internalType": "address",
          "name": "p",
          "type": "address"
        },
        {
          "internalType": "uint256",
          "name": "amount",
          "type": "uint256"
        }
      ],
      "name": "mint",
      "outputs": [],
      "stateMutability": "nonpayable",
      "type": "function"
    },
    {
      "inputs": [
        {
          "internalType": "uint256",
          "name": "tokenId",
          "type": "uint256"
        },
        {
          "internalType": "address",
          "name": "to",
          "type": "address"
        },
        {
          "internalType": "uint256",
          "name": "amount",
          "type": "uint256"
        }
      ],
      "name": "transfer",
      "outputs": [],
      "stateMutability": "nonpayable",
      "type": "function"
    },
    {
      "inputs": [
        {
          "internalType": "uint256",
          "name": "tokenId",
          "type": "uint256"
        }
      ],
      "name": "getTotalSupply",
      "outputs": [
        {
          "internalType": "uint256",
          "name": "",
          "type": "uint256"
        }
      ],
      "stateMutability": "view",
      "type": "function"
    },
    {
      "inputs": [
        {
          "internalType": "uint256",
          "name": "tokenId",
          "type": "uint256"
        },
        {
          "internalType": "address",
          "name": "p",
          "type": "address"
        }
      ],
      "name": "getBalanceOf",
      "outputs": [
        {
          "internalType": "uint256",
          "name": "",
          "type": "uint256"
        }
      ],
      "stateMutability": "view",
      "type": "function"
    }
  ],
  "bytecode": "0x608060405234801561001057600080fd5b5061001f61002460201b60201c565b6100c6565b600033905060405180604001604052808273ffffffffffffffffffffffffffffffffffffffff16815260200160011515815250600760008201518160000160006101000a81548173ffffffffffffffffffffffffffffffffffffffff021916908373ffffffffffffffffffffffffffffffffffffffff16021790555060208201518160000160146101000a81548160ff02191690831515021790555090505050565b611cb4806100d56000396000f3fe608060405234801561001057600080fd5b506004361061009e5760003560e01c806392ab723e1161006657806392ab723e146101435780639eea5f6614610173578063bfa0af6d1461018f578063d2638bb9146101bf578063f8548e36146101ef5761009e565b806301b5e494146100a35780631c0f12b6146100bf57806339ac0f39146100db578063836a10401461010b5780638cb0a51114610127575b600080fd5b6100bd60048036038101906100b891906116ee565b61020b565b005b6100d960048036038101906100d49190611769565b610246565b005b6100f560048036038101906100f091906117d0565b6102a5565b6040516101029190611832565b60405180910390f35b6101256004803603810190610120919061184d565b610346565b005b610141600480360381019061013c919061184d565b6103a3565b005b61015d600480360381019061015891906118a0565b610400565b60405161016a9190611832565b60405180910390f35b61018d6004803603810190610188919061184d565b610425565b005b6101a960048036038101906101a491906118cd565b610482565b6040516101b69190611832565b60405180910390f35b6101d960048036038101906101d4919061190d565b6104e5565b6040516101e69190611968565b60405180910390f35b6102096004803603810190610204919061184d565b610581565b005b6040517f08c379a000000000000000000000000000000000000000000000000000000000815260040161023d906119e0565b60405180910390fd5b6000610254858585856105de565b905060001515811515141561029e576040517f08c379a0000000000000000000000000000000000000000000000000000000008152600401610295906119e0565b60405180910390fd5b5050505050565b6000806009600086815260200190815260200160002060008573ffffffffffffffffffffffffffffffffffffffff1673ffffffffffffffffffffffffffffffffffffffff16815260200190815260200160002060008473ffffffffffffffffffffffffffffffffffffffff1673ffffffffffffffffffffffffffffffffffffffff168152602001908152602001600020600001549050809150509392505050565b6000610353848484610759565b905060001515811515141561039d576040517f08c379a0000000000000000000000000000000000000000000000000000000008152600401610394906119e0565b60405180910390fd5b50505050565b60006103b0848484610854565b90506000151581151514156103fa576040517f08c379a00000000000000000000000000000000000000000000000000000000081526004016103f1906119e0565b60405180910390fd5b50505050565b600080600c600084815260200190815260200160002060000154905080915050919050565b6000610432848484610956565b905060001515811515141561047c576040517f08c379a0000000000000000000000000000000000000000000000000000000008152600401610473906119e0565b60405180910390fd5b50505050565b6000806005600085815260200190815260200160002060008473ffffffffffffffffffffffffffffffffffffffff1673ffffffffffffffffffffffffffffffffffffffff1681526020019081526020016000206000015490508091505092915050565b600080600b60008573ffffffffffffffffffffffffffffffffffffffff1673ffffffffffffffffffffffffffffffffffffffff16815260200190815260200160002060008473ffffffffffffffffffffffffffffffffffffffff1673ffffffffffffffffffffffffffffffffffffffff16815260200190815260200160002060000160009054906101000a900460ff1690508091505092915050565b600061058e848484610ab9565b90506000151581151514156105d8576040517f08c379a00000000000000000000000000000000000000000000000000000000081526004016105cf906119e0565b60405180910390fd5b50505050565b60008033905060006009600088815260200190815260200160002060008773ffffffffffffffffffffffffffffffffffffffff1673ffffffffffffffffffffffffffffffffffffffff16815260200190815260200160002060008373ffffffffffffffffffffffffffffffffffffffff1673ffffffffffffffffffffffffffffffffffffffff16815260200190815260200160002060000154905060006005600089815260200190815260200160002060008873ffffffffffffffffffffffffffffffffffffffff1673ffffffffffffffffffffffffffffffffffffffff1681526020019081526020016000206000015490508481101580156106e15750848210155b15610749576106f288888588610b8a565b6106fe88888888610c49565b7f763de518ecef274fe627cbe64f185fa22661b0241e86a85d217674609bc327238888888689604051610735959493929190611a0f565b60405180910390a160019350505050610751565b600093505050505b949350505050565b600080600760000160009054906101000a900473ffffffffffffffffffffffffffffffffffffffff1690503373ffffffffffffffffffffffffffffffffffffffff168173ffffffffffffffffffffffffffffffffffffffff16141561084757600073ffffffffffffffffffffffffffffffffffffffff168473ffffffffffffffffffffffffffffffffffffffff1614610846576107f68584610ca2565b610801858585610ce3565b7f4e3883c75cc9c752bb1db2e406a822e4a75067ae77ad9a0a4d179f2709b9e1f685858560405161083493929190611a62565b60405180910390a1600191505061084d565b5b60009150505b9392505050565b60008033905060006009600087815260200190815260200160002060008373ffffffffffffffffffffffffffffffffffffffff1673ffffffffffffffffffffffffffffffffffffffff16815260200190815260200160002060008673ffffffffffffffffffffffffffffffffffffffff1673ffffffffffffffffffffffffffffffffffffffff168152602001908152602001600020600001549050600081856108fd9190611ac8565b905061090b87848884610d63565b7f97bd9d30be87c022a2c1978ca76dc2d9e339668effc4cbf1ca325496ac86f1a0878488846040516109409493929190611afc565b60405180910390a1600193505050509392505050565b600080600760000160009054906101000a900473ffffffffffffffffffffffffffffffffffffffff1690503373ffffffffffffffffffffffffffffffffffffffff168173ffffffffffffffffffffffffffffffffffffffff161415610aac5760006005600087815260200190815260200160002060008673ffffffffffffffffffffffffffffffffffffffff1673ffffffffffffffffffffffffffffffffffffffff168152602001908152602001600020600001549050600073ffffffffffffffffffffffffffffffffffffffff168573ffffffffffffffffffffffffffffffffffffffff1614158015610a4a5750808411155b15610aaa57610a5a868686610e22565b610a648685610ea2565b7fe1b6e34006e9871307436c226f232f9c5e7690c1d2c4f4adda4f607a75a9beca868686604051610a9793929190611a62565b60405180910390a1600192505050610ab2565b505b60009150505b9392505050565b60008033905060006005600087815260200190815260200160002060008373ffffffffffffffffffffffffffffffffffffffff1673ffffffffffffffffffffffffffffffffffffffff168152602001908152602001600020600001549050808411610b7c57610b29868686610ee3565b610b34868386610f63565b7ff2dbd98d79f00f7aff338b824931d607bfcc63d47307162470f25a055102d3b086838787604051610b699493929190611afc565b60405180910390a1600192505050610b83565b6000925050505b9392505050565b6000819050610b9b85858584610fe2565b816001600087815260200190815260200160002060008673ffffffffffffffffffffffffffffffffffffffff1673ffffffffffffffffffffffffffffffffffffffff16815260200190815260200160002060008573ffffffffffffffffffffffffffffffffffffffff1673ffffffffffffffffffffffffffffffffffffffff1681526020019081526020016000206000016000828254610c3b9190611b41565b925050819055505050505050565b610c54848383610ee3565b610c5f848483610f63565b7ff2dbd98d79f00f7aff338b824931d607bfcc63d47307162470f25a055102d3b084848484604051610c949493929190611afc565b60405180910390a150505050565b6000819050610cb1838261112b565b81600660008581526020019081526020016000206000016000828254610cd79190611b41565b92505081905550505050565b6000819050610cf3848483611175565b81600a600086815260200190815260200160002060008573ffffffffffffffffffffffffffffffffffffffff1673ffffffffffffffffffffffffffffffffffffffff1681526020019081526020016000206000016000828254610d569190611b41565b9250508190555050505050565b6000819050610d748585858461123a565b816003600087815260200190815260200160002060008673ffffffffffffffffffffffffffffffffffffffff1673ffffffffffffffffffffffffffffffffffffffff16815260200190815260200160002060008573ffffffffffffffffffffffffffffffffffffffff1673ffffffffffffffffffffffffffffffffffffffff1681526020019081526020016000206000016000828254610e149190611b41565b925050819055505050505050565b6000819050610e3284848361137a565b816004600086815260200190815260200160002060008573ffffffffffffffffffffffffffffffffffffffff1673ffffffffffffffffffffffffffffffffffffffff1681526020019081526020016000206000016000828254610e959190611b41565b9250508190555050505050565b6000819050610eb18382611448565b81600860008581526020019081526020016000206000016000828254610ed79190611b41565b92505081905550505050565b6000819050610ef384848361149b565b816002600086815260200190815260200160002060008573ffffffffffffffffffffffffffffffffffffffff1673ffffffffffffffffffffffffffffffffffffffff1681526020019081526020016000206000016000828254610f569190611b41565b9250508190555050505050565b6000819050610f73848483611560565b8160008086815260200190815260200160002060008573ffffffffffffffffffffffffffffffffffffffff1673ffffffffffffffffffffffffffffffffffffffff1681526020019081526020016000206000016000828254610fd59190611b41565b9250508190555050505050565b600081610fee90611ba1565b9050600061108c6009600088815260200190815260200160002060008773ffffffffffffffffffffffffffffffffffffffff1673ffffffffffffffffffffffffffffffffffffffff16815260200190815260200160002060008673ffffffffffffffffffffffffffffffffffffffff1673ffffffffffffffffffffffffffffffffffffffff168152602001908152602001600020600001548361162e565b9050806009600088815260200190815260200160002060008773ffffffffffffffffffffffffffffffffffffffff1673ffffffffffffffffffffffffffffffffffffffff16815260200190815260200160002060008673ffffffffffffffffffffffffffffffffffffffff1673ffffffffffffffffffffffffffffffffffffffff16815260200190815260200160002060000181905550505050505050565b60008190506000611152600c6000868152602001908152602001600020600001548361162e565b905080600c60008681526020019081526020016000206000018190555050505050565b600081905060006111d96005600087815260200190815260200160002060008673ffffffffffffffffffffffffffffffffffffffff1673ffffffffffffffffffffffffffffffffffffffff168152602001908152602001600020600001548361162e565b9050806005600087815260200190815260200160002060008673ffffffffffffffffffffffffffffffffffffffff1673ffffffffffffffffffffffffffffffffffffffff168152602001908152602001600020600001819055505050505050565b600081905060006112db6009600088815260200190815260200160002060008773ffffffffffffffffffffffffffffffffffffffff1673ffffffffffffffffffffffffffffffffffffffff16815260200190815260200160002060008673ffffffffffffffffffffffffffffffffffffffff1673ffffffffffffffffffffffffffffffffffffffff168152602001908152602001600020600001548361162e565b9050806009600088815260200190815260200160002060008773ffffffffffffffffffffffffffffffffffffffff1673ffffffffffffffffffffffffffffffffffffffff16815260200190815260200160002060008673ffffffffffffffffffffffffffffffffffffffff1673ffffffffffffffffffffffffffffffffffffffff16815260200190815260200160002060000181905550505050505050565b60008161138690611ba1565b905060006113e76005600087815260200190815260200160002060008673ffffffffffffffffffffffffffffffffffffffff1673ffffffffffffffffffffffffffffffffffffffff168152602001908152602001600020600001548361162e565b9050806005600087815260200190815260200160002060008673ffffffffffffffffffffffffffffffffffffffff1673ffffffffffffffffffffffffffffffffffffffff168152602001908152602001600020600001819055505050505050565b60008161145490611ba1565b90506000611478600c6000868152602001908152602001600020600001548361162e565b905080600c60008681526020019081526020016000206000018190555050505050565b600081905060006114ff6005600087815260200190815260200160002060008673ffffffffffffffffffffffffffffffffffffffff1673ffffffffffffffffffffffffffffffffffffffff168152602001908152602001600020600001548361162e565b9050806005600087815260200190815260200160002060008673ffffffffffffffffffffffffffffffffffffffff1673ffffffffffffffffffffffffffffffffffffffff168152602001908152602001600020600001819055505050505050565b60008161156c90611ba1565b905060006115cd6005600087815260200190815260200160002060008673ffffffffffffffffffffffffffffffffffffffff1673ffffffffffffffffffffffffffffffffffffffff168152602001908152602001600020600001548361162e565b9050806005600087815260200190815260200160002060008673ffffffffffffffffffffffffffffffffffffffff1673ffffffffffffffffffffffffffffffffffffffff168152602001908152602001600020600001819055505050505050565b600080839050600083826116429190611bea565b9050600081905080935050505092915050565b600080fd5b600073ffffffffffffffffffffffffffffffffffffffff82169050919050565b60006116858261165a565b9050919050565b6116958161167a565b81146116a057600080fd5b50565b6000813590506116b28161168c565b92915050565b6000819050919050565b6116cb816116b8565b81146116d657600080fd5b50565b6000813590506116e8816116c2565b92915050565b600080600080600060a0868803121561170a57611709611655565b5b6000611718888289016116a3565b9550506020611729888289016116a3565b945050604061173a888289016116d9565b935050606061174b888289016116d9565b925050608061175c888289016116d9565b9150509295509295909350565b6000806000806080858703121561178357611782611655565b5b6000611791878288016116d9565b94505060206117a2878288016116a3565b93505060406117b3878288016116a3565b92505060606117c4878288016116d9565b91505092959194509250565b6000806000606084860312156117e9576117e8611655565b5b60006117f7868287016116d9565b9350506020611808868287016116a3565b9250506040611819868287016116a3565b9150509250925092565b61182c816116b8565b82525050565b60006020820190506118476000830184611823565b92915050565b60008060006060848603121561186657611865611655565b5b6000611874868287016116d9565b9350506020611885868287016116a3565b9250506040611896868287016116d9565b9150509250925092565b6000602082840312156118b6576118b5611655565b5b60006118c4848285016116d9565b91505092915050565b600080604083850312156118e4576118e3611655565b5b60006118f2858286016116d9565b9250506020611903858286016116a3565b9150509250929050565b6000806040838503121561192457611923611655565b5b6000611932858286016116a3565b9250506020611943858286016116a3565b9150509250929050565b60008115159050919050565b6119628161194d565b82525050565b600060208201905061197d6000830184611959565b92915050565b600082825260208201905092915050565b7f52756c6520636f6e646974696f6e206661696c65640000000000000000000000600082015250565b60006119ca601583611983565b91506119d582611994565b602082019050919050565b600060208201905081810360008301526119f9816119bd565b9050919050565b611a098161167a565b82525050565b600060a082019050611a246000830188611823565b611a316020830187611a00565b611a3e6040830186611a00565b611a4b6060830185611a00565b611a586080830184611823565b9695505050505050565b6000606082019050611a776000830186611823565b611a846020830185611a00565b611a916040830184611823565b949350505050565b7f4e487b7100000000000000000000000000000000000000000000000000000000600052601160045260246000fd5b6000611ad3826116b8565b9150611ade836116b8565b925082821015611af157611af0611a99565b5b828203905092915050565b6000608082019050611b116000830187611823565b611b1e6020830186611a00565b611b2b6040830185611a00565b611b386060830184611823565b95945050505050565b6000611b4c826116b8565b9150611b57836116b8565b9250827fffffffffffffffffffffffffffffffffffffffffffffffffffffffffffffffff03821115611b8c57611b8b611a99565b5b828201905092915050565b6000819050919050565b6000611bac82611b97565b91507f8000000000000000000000000000000000000000000000000000000000000000821415611bdf57611bde611a99565b5b816000039050919050565b6000611bf582611b97565b9150611c0083611b97565b9250817f7fffffffffffffffffffffffffffffffffffffffffffffffffffffffffffffff03831360008312151615611c3b57611c3a611a99565b5b817f8000000000000000000000000000000000000000000000000000000000000000038312600083121615611c7357611c72611a99565b5b82820190509291505056fea26469706673582212209e7ff37178a2befadd5f3594c42ab60a72820cab0c40083c2c31a18b14b8cd3f64736f6c634300080c0033",
  "immutableReferences": {},
  "source": "contract Erc1155 {\n  struct SpentTotalTuple {\n    uint m;\n    bool _valid;\n  }\n  struct TotalBurnTuple {\n    uint n;\n    bool _valid;\n  }\n  struct BalanceOfTuple {\n    uint n;\n    bool _valid;\n  }\n  struct AllMintTuple {\n    uint n;\n    bool _valid;\n  }\n  struct TotalOutTuple {\n    uint n;\n    bool _valid;\n  }\n  struct OwnerTuple {\n    address p;\n    bool _valid;\n  }\n  struct AllBurnTuple {\n    uint n;\n    bool _valid;\n  }\n  struct TotalInTuple {\n    uint n;\n    bool _valid;\n  }\n  struct AllowanceTotalTuple {\n    uint m;\n    bool _valid;\n  }\n  struct AllowanceTuple {\n    uint n;\n    bool _valid;\n  }\n  struct TotalMintTuple {\n    uint n;\n    bool _valid;\n  }\n  struct IsApprovedForAllTuple {\n    bool approval;\n    bool _valid;\n  }\n  struct TotalSupplyTuple {\n    uint n;\n    bool _valid;\n  }\n  mapping(uint=>mapping(address=>TotalOutTuple)) totalOut;\n  mapping(uint=>mapping(address=>mapping(address=>SpentTotalTuple))) spentTotal;\n  mapping(uint=>mapping(address=>TotalInTuple)) totalIn;\n  mapping(uint=>mapping(address=>mapping(address=>AllowanceTotalTuple))) allowanceTotal;\n  mapping(uint=>mapping(address=>TotalBurnTuple)) totalBurn;\n  mapping(uint=>mapping(address=>BalanceOfTuple)) balanceOf;\n  mapping(uint=>AllMintTuple) allMint;\n  OwnerTuple owner;\n  mapping(uint=>AllBurnTuple) allBurn;\n  mapping(uint=>mapping(address=>mapping(address=>AllowanceTuple))) allowance;\n  mapping(uint=>mapping(address=>TotalMintTuple)) totalMint;\n  mapping(address=>mapping(address=>IsApprovedForAllTuple)) isApprovedForAll;\n  mapping(uint=>TotalSupplyTuple) totalSupply;\n  event Burn(uint tokenId,address p,uint amount);\n  event SetApprovalForAll(address sender,address operator,bool approved);\n  event Transfer(uint tokenId,address from,address to,uint amount);\n  event TransferFrom(uint tokenId,address from,address to,address spender,uint amount);\n  event Mint(uint tokenId,address p,uint amount);\n  event IncreaseAllowance(uint tokenId,address p,address s,uint n);\n  constructor() public {\n    updateOwnerOnInsertConstructor_r8();\n  }\n  function approve(uint tokenId,address s,uint n) public    {\n      bool r1 = updateIncreaseAllowanceOnInsertRecv_approve_r1(tokenId,s,n);\n      if(r1==false) {\n        revert(\"Rule condition failed\");\n      }\n  }\n  function transferFrom(uint tokenId,address from,address to,uint amount) public    {\n      bool r20 = updateTransferFromOnInsertRecv_transferFrom_r20(tokenId,from,to,amount);\n      if(r20==false) {\n        revert(\"Rule condition failed\");\n      }\n  }\n  function getAllowance(uint tokenId,address p,address s) public view  returns (uint) {\n      uint n = allowance[tokenId][p][s].n;\n      return n;\n  }\n  function getIsApprovedForAll(address owner,address operator) public view  returns (bool) {\n      bool approval = isApprovedForAll[owner][operator].approval;\n      return approval;\n  }\n  function burn(uint tokenId,address p,uint amount) public    {\n      bool r6 = updateBurnOnInsertRecv_burn_r6(tokenId,p,amount);\n      if(r6==false) {\n        revert(\"Rule condition failed\");\n      }\n  }\n  function safeTransferFrom(address f,address t,uint id,uint amount,uint data) public    {\n      revert(\"Rule condition failed\");\n  }\n  function mint(uint tokenId,address p,uint amount) public    {\n      bool r9 = updateMintOnInsertRecv_mint_r9(tokenId,p,amount);\n      if(r9==false) {\n        revert(\"Rule condition failed\");\n      }\n  }\n  function transfer(uint tokenId,address to,uint amount) public    {\n      bool r11 = updateTransferOnInsertRecv_transfer_r11(tokenId,to,amount);\n      if(r11==false) {\n        revert(\"Rule condition failed\");\n      }\n  }\n  function getTotalSupply(uint tokenId) public view  returns (uint) {\n      uint n = totalSupply[tokenId].n;\n      return n;\n  }\n  function getBalanceOf(uint tokenId,address p) public view  returns (uint) {\n      uint n = balanceOf[tokenId][p].n;\n      return n;\n  }\n  function updateBalanceOfOnIncrementTotalBurn_r3(uint t,address p,int m) private    {\n      int _delta = int(-m);\n      uint newValue = updateuintByint(balanceOf[t][p].n,_delta);\n      balanceOf[t][p].n = newValue;\n  }\n  function updateBalanceOfOnIncrementTotalMint_r3(uint t,address p,int n) private    {\n      int _delta = int(n);\n      uint newValue = updateuintByint(balanceOf[t][p].n,_delta);\n      balanceOf[t][p].n = newValue;\n  }\n  function updateAllMintOnInsertMint_r16(uint t,uint n) private    {\n      int delta0 = int(n);\n      updateTotalSupplyOnIncrementAllMint_r12(t,delta0);\n      allMint[t].n += n;\n  }\n  function updateTotalOutOnInsertTransfer_r14(uint t,address p,uint n) private    {\n      int delta0 = int(n);\n      updateBalanceOfOnIncrementTotalOut_r3(t,p,delta0);\n      totalOut[t][p].n += n;\n  }\n  function updateTransferFromOnInsertRecv_transferFrom_r20(uint t,address o,address r,uint n) private   returns (bool) {\n      address s = msg.sender;\n      uint k = allowance[t][o][s].n;\n      uint m = balanceOf[t][o].n;\n      if(m>=n && k>=n) {\n        updateSpentTotalOnInsertTransferFrom_r19(t,o,s,n);\n        updateTransferOnInsertTransferFrom_r10(t,o,r,n);\n        emit TransferFrom(t,o,r,s,n);\n        return true;\n      }\n      return false;\n  }\n  function updateBalanceOfOnIncrementTotalIn_r3(uint t,address p,int i) private    {\n      int _delta = int(i);\n      uint newValue = updateuintByint(balanceOf[t][p].n,_delta);\n      balanceOf[t][p].n = newValue;\n  }\n  function updateBalanceOfOnIncrementTotalOut_r3(uint t,address p,int o) private    {\n      int _delta = int(-o);\n      uint newValue = updateuintByint(balanceOf[t][p].n,_delta);\n      balanceOf[t][p].n = newValue;\n  }\n  function updateMintOnInsertRecv_mint_r9(uint t,address p,uint n) private   returns (bool) {\n      address s = owner.p;\n      if(s==msg.sender) {\n        if(p!=address(0)) {\n          updateAllMintOnInsertMint_r16(t,n);\n          updateTotalMintOnInsertMint_r15(t,p,n);\n          emit Mint(t,p,n);\n          return true;\n        }\n      }\n      return false;\n  }\n  function updateTransferOnInsertTransferFrom_r10(uint t,address o,address r,uint n) private    {\n      updateTotalInOnInsertTransfer_r17(t,r,n);\n      updateTotalOutOnInsertTransfer_r14(t,o,n);\n      emit Transfer(t,o,r,n);\n  }\n  function updateTotalSupplyOnIncrementAllBurn_r12(uint t,int b) private    {\n      int _delta = int(-b);\n      uint newValue = updateuintByint(totalSupply[t].n,_delta);\n      totalSupply[t].n = newValue;\n  }\n  function updateOwnerOnInsertConstructor_r8() private    {\n      address s = msg.sender;\n      owner = OwnerTuple(s,true);\n  }\n  function updateAllowanceTotalOnInsertIncreaseAllowance_r18(uint t,address o,address s,uint n) private    {\n      int delta0 = int(n);\n      updateAllowanceOnIncrementAllowanceTotal_r0(t,o,s,delta0);\n      allowanceTotal[t][o][s].m += n;\n  }\n  function updateSpentTotalOnInsertTransferFrom_r19(uint t,address o,address s,uint n) private    {\n      int delta0 = int(n);\n      updateAllowanceOnIncrementSpentTotal_r0(t,o,s,delta0);\n      spentTotal[t][o][s].m += n;\n  }\n  function updateTotalMintOnInsertMint_r15(uint t,address p,uint n) private    {\n      int delta0 = int(n);\n      updateBalanceOfOnIncrementTotalMint_r3(t,p,delta0);\n      totalMint[t][p].n += n;\n  }\n  function updateTransferOnInsertRecv_transfer_r11(uint t,address r,uint n) private   returns (bool) {\n      address s = msg.sender;\n      uint m = balanceOf[t][s].n;\n      if(n<=m) {\n        updateTotalInOnInsertTransfer_r17(t,r,n);\n        updateTotalOutOnInsertTransfer_r14(t,s,n);\n        emit Transfer(t,s,r,n);\n        return true;\n      }\n      return false;\n  }\n  function updateAllowanceOnIncrementAllowanceTotal_r0(uint t,address o,address s,int m) private    {\n      int _delta = int(m);\n      uint newValue = updateuintByint(allowance[t][o][s].n,_delta);\n      allowance[t][o][s].n = newValue;\n  }\n  function updateTotalSupplyOnIncrementAllMint_r12(uint t,int m) private    {\n      int _delta = int(m);\n      uint newValue = updateuintByint(totalSupply[t].n,_delta);\n      totalSupply[t].n = newValue;\n  }\n  function updateAllowanceOnIncrementSpentTotal_r0(uint t,address o,address s,int l) private    {\n      int _delta = int(-l);\n      uint newValue = updateuintByint(allowance[t][o][s].n,_delta);\n      allowance[t][o][s].n = newValue;\n  }\n  function updateAllBurnOnInsertBurn_r5(uint t,uint n) private    {\n      int delta0 = int(n);\n      updateTotalSupplyOnIncrementAllBurn_r12(t,delta0);\n      allBurn[t].n += n;\n  }\n  function updateBurnOnInsertRecv_burn_r6(uint t,address p,uint n) private   returns (bool) {\n      address s = owner.p;\n      if(s==msg.sender) {\n        uint m = balanceOf[t][p].n;\n        if(p!=address(0) && n<=m) {\n          updateTotalBurnOnInsertBurn_r7(t,p,n);\n          updateAllBurnOnInsertBurn_r5(t,n);\n          emit Burn(t,p,n);\n          return true;\n        }\n      }\n      return false;\n  }\n  function updateTotalInOnInsertTransfer_r17(uint t,address p,uint n) private    {\n      int delta0 = int(n);\n      updateBalanceOfOnIncrementTotalIn_r3(t,p,delta0);\n      totalIn[t][p].n += n;\n  }\n  function updateTotalBurnOnInsertBurn_r7(uint t,address p,uint n) private    {\n      int delta0 = int(n);\n      updateBalanceOfOnIncrementTotalBurn_r3(t,p,delta0);\n      totalBurn[t][p].n += n;\n  }\n  function updateIncreaseAllowanceOnInsertRecv_approve_r1(uint t,address s,uint n) private   returns (bool) {\n      address o = msg.sender;\n      uint m = allowance[t][o][s].n;\n      uint d = n-m;\n      updateAllowanceTotalOnInsertIncreaseAllowance_r18(t,o,s,d);\n      emit IncreaseAllowance(t,o,s,d);\n      return true;\n      return false;\n  }\n  function updateuintByint(uint x,int delta) private   returns (uint) {\n      int convertedX = int(x);\n      int value = convertedX+delta;\n      uint convertedValue = uint(value);\n      return convertedValue;\n  }\n}",
  "sourcePath": "/Users/ljy/Desktop/PENN/2023_summer/boon_dsc/smart-contracts/optimizations/full/contracts/erc1155.sol",
  "compiler": {
    "name": "solc",
    "version": "0.8.12+commit.f00d7308.Emscripten.clang"
  },
  "schemaVersion": "3.4.16",
  "updatedAt": "2023-12-28T06:55:46.068Z",
  "devdoc": {
    "kind": "dev",
    "methods": {},
    "version": 1
  },
  "userdoc": {
    "kind": "user",
    "methods": {},
    "version": 1
  }
}