{
  "contractName": "Erc777",
  "abi": [
    {
      "inputs": [
        {
          "internalType": "uint256",
          "name": "name",
          "type": "uint256"
        },
        {
          "internalType": "uint256",
          "name": "symbol",
          "type": "uint256"
        }
      ],
      "stateMutability": "nonpayable",
      "type": "constructor"
    },
    {
      "anonymous": false,
      "inputs": [
        {
          "indexed": false,
          "internalType": "address",
          "name": "p",
          "type": "address"
        },
        {
          "indexed": false,
          "internalType": "uint256",
          "name": "amount",
          "type": "uint256"
        },
        {
          "indexed": false,
          "internalType": "uint256",
          "name": "data",
          "type": "uint256"
        },
        {
          "indexed": false,
          "internalType": "uint256",
          "name": "odata",
          "type": "uint256"
        }
      ],
      "name": "Burn",
      "type": "event"
    },
    {
      "anonymous": false,
      "inputs": [
        {
          "indexed": false,
          "internalType": "address",
          "name": "p",
          "type": "address"
        },
        {
          "indexed": false,
          "internalType": "address",
          "name": "s",
          "type": "address"
        },
        {
          "indexed": false,
          "internalType": "uint256",
          "name": "n",
          "type": "uint256"
        }
      ],
      "name": "IncreaseAllowance",
      "type": "event"
    },
    {
      "anonymous": false,
      "inputs": [
        {
          "indexed": false,
          "internalType": "address",
          "name": "p",
          "type": "address"
        },
        {
          "indexed": false,
          "internalType": "uint256",
          "name": "amount",
          "type": "uint256"
        },
        {
          "indexed": false,
          "internalType": "uint256",
          "name": "data",
          "type": "uint256"
        },
        {
          "indexed": false,
          "internalType": "uint256",
          "name": "odata",
          "type": "uint256"
        }
      ],
      "name": "Mint",
      "type": "event"
    },
    {
      "anonymous": false,
      "inputs": [
        {
          "indexed": false,
          "internalType": "address",
          "name": "p",
          "type": "address"
        },
        {
          "indexed": false,
          "internalType": "address",
          "name": "s",
          "type": "address"
        },
        {
          "indexed": false,
          "internalType": "uint256",
          "name": "n",
          "type": "uint256"
        },
        {
          "indexed": false,
          "internalType": "uint256",
          "name": "data",
          "type": "uint256"
        },
        {
          "indexed": false,
          "internalType": "uint256",
          "name": "operatorData",
          "type": "uint256"
        }
      ],
      "name": "OperatorBurn",
      "type": "event"
    },
    {
      "anonymous": false,
      "inputs": [
        {
          "indexed": false,
          "internalType": "address",
          "name": "o",
          "type": "address"
        },
        {
          "indexed": false,
          "internalType": "address",
          "name": "r",
          "type": "address"
        },
        {
          "indexed": false,
          "internalType": "address",
          "name": "s",
          "type": "address"
        },
        {
          "indexed": false,
          "internalType": "uint256",
          "name": "n",
          "type": "uint256"
        },
        {
          "indexed": false,
          "internalType": "uint256",
          "name": "data",
          "type": "uint256"
        },
        {
          "indexed": false,
          "internalType": "uint256",
          "name": "operatorData",
          "type": "uint256"
        }
      ],
      "name": "OperatorSend",
      "type": "event"
    },
    {
      "anonymous": false,
      "inputs": [
        {
          "indexed": false,
          "internalType": "address",
          "name": "p",
          "type": "address"
        },
        {
          "indexed": false,
          "internalType": "address",
          "name": "o",
          "type": "address"
        },
        {
          "indexed": false,
          "internalType": "bool",
          "name": "b",
          "type": "bool"
        }
      ],
      "name": "Operators",
      "type": "event"
    },
    {
      "anonymous": false,
      "inputs": [
        {
          "indexed": false,
          "internalType": "address",
          "name": "p",
          "type": "address"
        },
        {
          "indexed": false,
          "internalType": "address",
          "name": "o",
          "type": "address"
        },
        {
          "indexed": false,
          "internalType": "bool",
          "name": "b",
          "type": "bool"
        }
      ],
      "name": "RevokedDefaultOperator",
      "type": "event"
    },
    {
      "anonymous": false,
      "inputs": [
        {
          "indexed": false,
          "internalType": "address",
          "name": "o",
          "type": "address"
        },
        {
          "indexed": false,
          "internalType": "address",
          "name": "r",
          "type": "address"
        },
        {
          "indexed": false,
          "internalType": "uint256",
          "name": "n",
          "type": "uint256"
        },
        {
          "indexed": false,
          "internalType": "uint256",
          "name": "data",
          "type": "uint256"
        },
        {
          "indexed": false,
          "internalType": "uint256",
          "name": "rdata",
          "type": "uint256"
        },
        {
          "indexed": false,
          "internalType": "bool",
          "name": "b",
          "type": "bool"
        }
      ],
      "name": "Transfer",
      "type": "event"
    },
    {
      "anonymous": false,
      "inputs": [
        {
          "indexed": false,
          "internalType": "address",
          "name": "from",
          "type": "address"
        },
        {
          "indexed": false,
          "internalType": "address",
          "name": "to",
          "type": "address"
        },
        {
          "indexed": false,
          "internalType": "address",
          "name": "spender",
          "type": "address"
        },
        {
          "indexed": false,
          "internalType": "uint256",
          "name": "amount",
          "type": "uint256"
        }
      ],
      "name": "TransferFrom",
      "type": "event"
    },
    {
      "inputs": [
        {
          "internalType": "uint256",
          "name": "amount",
          "type": "uint256"
        },
        {
          "internalType": "uint256",
          "name": "data",
          "type": "uint256"
        }
      ],
      "name": "burn",
      "outputs": [],
      "stateMutability": "nonpayable",
      "type": "function"
    },
    {
      "inputs": [
        {
          "internalType": "address",
          "name": "o",
          "type": "address"
        }
      ],
      "name": "authorizeOperator",
      "outputs": [],
      "stateMutability": "nonpayable",
      "type": "function"
    },
    {
      "inputs": [
        {
          "internalType": "address",
          "name": "o",
          "type": "address"
        }
      ],
      "name": "revokeOperator",
      "outputs": [],
      "stateMutability": "nonpayable",
      "type": "function"
    },
    {
      "inputs": [],
      "name": "getTotalSupply",
      "outputs": [
        {
          "internalType": "uint256",
          "name": "",
          "type": "uint256"
        }
      ],
      "stateMutability": "view",
      "type": "function"
    },
    {
      "inputs": [
        {
          "internalType": "address",
          "name": "p",
          "type": "address"
        },
        {
          "internalType": "uint256",
          "name": "n",
          "type": "uint256"
        },
        {
          "internalType": "uint256",
          "name": "data",
          "type": "uint256"
        },
        {
          "internalType": "uint256",
          "name": "operatorData",
          "type": "uint256"
        }
      ],
      "name": "operatorBurn",
      "outputs": [
        {
          "internalType": "uint256",
          "name": "",
          "type": "uint256"
        }
      ],
      "stateMutability": "nonpayable",
      "type": "function"
    },
    {
      "inputs": [
        {
          "internalType": "address",
          "name": "p",
          "type": "address"
        },
        {
          "internalType": "address",
          "name": "s",
          "type": "address"
        }
      ],
      "name": "getAllowance",
      "outputs": [
        {
          "internalType": "uint256",
          "name": "",
          "type": "uint256"
        }
      ],
      "stateMutability": "view",
      "type": "function"
    },
    {
      "inputs": [
        {
          "internalType": "address",
          "name": "s",
          "type": "address"
        },
        {
          "internalType": "uint256",
          "name": "n",
          "type": "uint256"
        }
      ],
      "name": "approve",
      "outputs": [],
      "stateMutability": "nonpayable",
      "type": "function"
    },
    {
      "inputs": [
        {
          "internalType": "address",
          "name": "p",
          "type": "address"
        }
      ],
      "name": "getDefaultOperator",
      "outputs": [
        {
          "internalType": "bool",
          "name": "",
          "type": "bool"
        }
      ],
      "stateMutability": "view",
      "type": "function"
    },
    {
      "inputs": [
        {
          "internalType": "address",
          "name": "r",
          "type": "address"
        },
        {
          "internalType": "uint256",
          "name": "amount",
          "type": "uint256"
        }
      ],
      "name": "transfer",
      "outputs": [],
      "stateMutability": "nonpayable",
      "type": "function"
    },
    {
      "inputs": [
        {
          "internalType": "address",
          "name": "p",
          "type": "address"
        },
        {
          "internalType": "address",
          "name": "o",
          "type": "address"
        }
      ],
      "name": "getOperators",
      "outputs": [
        {
          "internalType": "bool",
          "name": "",
          "type": "bool"
        }
      ],
      "stateMutability": "view",
      "type": "function"
    },
    {
      "inputs": [
        {
          "internalType": "address",
          "name": "from",
          "type": "address"
        },
        {
          "internalType": "address",
          "name": "to",
          "type": "address"
        },
        {
          "internalType": "uint256",
          "name": "amount",
          "type": "uint256"
        }
      ],
      "name": "transferFrom",
      "outputs": [],
      "stateMutability": "nonpayable",
      "type": "function"
    },
    {
      "inputs": [
        {
          "internalType": "uint256",
          "name": "amount",
          "type": "uint256"
        },
        {
          "internalType": "uint256",
          "name": "data",
          "type": "uint256"
        }
      ],
      "name": "mint",
      "outputs": [],
      "stateMutability": "nonpayable",
      "type": "function"
    },
    {
      "inputs": [
        {
          "internalType": "address",
          "name": "p",
          "type": "address"
        },
        {
          "internalType": "address",
          "name": "o",
          "type": "address"
        }
      ],
      "name": "getRevokedDefaultOperator",
      "outputs": [
        {
          "internalType": "bool",
          "name": "",
          "type": "bool"
        }
      ],
      "stateMutability": "view",
      "type": "function"
    },
    {
      "inputs": [
        {
          "internalType": "address",
          "name": "o",
          "type": "address"
        },
        {
          "internalType": "address",
          "name": "r",
          "type": "address"
        },
        {
          "internalType": "uint256",
          "name": "n",
          "type": "uint256"
        },
        {
          "internalType": "uint256",
          "name": "data",
          "type": "uint256"
        },
        {
          "internalType": "uint256",
          "name": "operatorData",
          "type": "uint256"
        }
      ],
      "name": "operatorSend",
      "outputs": [
        {
          "internalType": "uint256",
          "name": "",
          "type": "uint256"
        }
      ],
      "stateMutability": "nonpayable",
      "type": "function"
    },
    {
      "inputs": [
        {
          "internalType": "address",
          "name": "p",
          "type": "address"
        }
      ],
      "name": "getBalanceOf",
      "outputs": [
        {
          "internalType": "uint256",
          "name": "",
          "type": "uint256"
        }
      ],
      "stateMutability": "view",
      "type": "function"
    }
  ],
  "bytecode": "0x60806040523480156200001157600080fd5b50604051620030da380380620030da83398181016040528101906200003791906200018b565b620000476200005f60201b60201c565b62000057620000a960201b60201c565b5050620001d2565b60405180604001604052806000815260200160011515815250600d6000820151816000015560208201518160010160006101000a81548160ff021916908315150217905550905050565b600033905060405180604001604052808273ffffffffffffffffffffffffffffffffffffffff16815260200160011515815250600b60008201518160000160006101000a81548173ffffffffffffffffffffffffffffffffffffffff021916908373ffffffffffffffffffffffffffffffffffffffff16021790555060208201518160000160146101000a81548160ff02191690831515021790555090505050565b600080fd5b6000819050919050565b620001658162000150565b81146200017157600080fd5b50565b60008151905062000185816200015a565b92915050565b60008060408385031215620001a557620001a46200014b565b5b6000620001b58582860162000174565b9250506020620001c88582860162000174565b9150509250929050565b612ef880620001e26000396000f3fe608060405234801561001057600080fd5b50600436106100f55760003560e01c80636c070aa811610097578063a9059cbb11610066578063a9059cbb146102ba578063b390c0ab146102d6578063c4e41b22146102f2578063fad8b32a14610310576100f5565b80636c070aa81461020e57806387e8fc6a1461023e578063959b8c3f1461026e5780639b96eece1461028a576100f5565b80631b2ef1ca116100d35780631b2ef1ca1461017657806323b872dd1461019257806343c494e7146101ae578063448e2c9c146101de576100f5565b8063095ea7b3146100fa5780630af4187d1461011657806317d92cff14610146575b600080fd5b610114600480360381019061010f919061277d565b61032c565b005b610130600480360381019061012b91906127bd565b610387565b60405161013d919061280c565b60405180910390f35b610160600480360381019061015b91906127bd565b610416565b60405161016d9190612842565b60405180910390f35b610190600480360381019061018b919061285d565b6104b2565b005b6101ac60048036038101906101a7919061289d565b61050d565b005b6101c860048036038101906101c391906128f0565b61056a565b6040516101d5919061280c565b60405180910390f35b6101f860048036038101906101f3919061296b565b610612565b6040516102059190612842565b60405180910390f35b61022860048036038101906102239190612998565b610670565b604051610235919061280c565b60405180910390f35b610258600480360381019061025391906127bd565b6106f3565b6040516102659190612842565b60405180910390f35b6102886004803603810190610283919061296b565b61078f565b005b6102a4600480360381019061029f919061296b565b610806565b6040516102b1919061280c565b60405180910390f35b6102d460048036038101906102cf919061277d565b610857565b005b6102f060048036038101906102eb919061285d565b6108b2565b005b6102fa61090d565b604051610307919061280c565b60405180910390f35b61032a6004803603810190610325919061296b565b61091f565b005b60006103388383610996565b9050600015158115151415610382576040517f08c379a000000000000000000000000000000000000000000000000000000000815260040161037990612a5c565b60405180910390fd5b505050565b600080600960008573ffffffffffffffffffffffffffffffffffffffff1673ffffffffffffffffffffffffffffffffffffffff16815260200190815260200160002060008473ffffffffffffffffffffffffffffffffffffffff1673ffffffffffffffffffffffffffffffffffffffff1681526020019081526020016000206000015490508091505092915050565b600080600860008573ffffffffffffffffffffffffffffffffffffffff1673ffffffffffffffffffffffffffffffffffffffff16815260200190815260200160002060008473ffffffffffffffffffffffffffffffffffffffff1673ffffffffffffffffffffffffffffffffffffffff16815260200190815260200160002060000160009054906101000a900460ff1690508091505092915050565b60006104be8383610a83565b9050600015158115151415610508576040517f08c379a00000000000000000000000000000000000000000000000000000000081526004016104ff90612a5c565b60405180910390fd5b505050565b600061051a848484610ae5565b9050600015158115151415610564576040517f08c379a000000000000000000000000000000000000000000000000000000000815260040161055b90612a5c565b60405180910390fd5b50505050565b60008061057a8787878787610c39565b9050600061058b8888888888610e32565b9050600061059c8989898989610f63565b9050600015158315151480156105b6575060001515821515145b80156105c6575060001515811515145b15610606576040517f08c379a00000000000000000000000000000000000000000000000000000000081526004016105fd90612a5c565b60405180910390fd5b50505095945050505050565b600080600a60008473ffffffffffffffffffffffffffffffffffffffff1673ffffffffffffffffffffffffffffffffffffffff16815260200190815260200160002060000160009054906101000a900460ff16905080915050919050565b60008061067f868686866110ff565b9050600061068f878787876112f6565b9050600015158215151480156106a9575060001515811515145b156106e9576040517f08c379a00000000000000000000000000000000000000000000000000000000081526004016106e090612a5c565b60405180910390fd5b5050949350505050565b600080600c60008573ffffffffffffffffffffffffffffffffffffffff1673ffffffffffffffffffffffffffffffffffffffff16815260200190815260200160002060008473ffffffffffffffffffffffffffffffffffffffff1673ffffffffffffffffffffffffffffffffffffffff16815260200190815260200160002060000160009054906101000a900460ff1690508091505092915050565b600061079a82611490565b905060006107a783611651565b9050600015158215151480156107c1575060001515811515145b15610801576040517f08c379a00000000000000000000000000000000000000000000000000000000081526004016107f890612a5c565b60405180910390fd5b505050565b600080600f60008473ffffffffffffffffffffffffffffffffffffffff1673ffffffffffffffffffffffffffffffffffffffff16815260200190815260200160002060000154905080915050919050565b60006108638383611812565b90506000151581151514156108ad576040517f08c379a00000000000000000000000000000000000000000000000000000000081526004016108a490612a5c565b60405180910390fd5b505050565b60006108be83836118d5565b9050600015158115151415610908576040517f08c379a00000000000000000000000000000000000000000000000000000000081526004016108ff90612a5c565b60405180910390fd5b505050565b600080600d6000015490508091505090565b600061092a82611992565b9050600061093783611b53565b905060001515821515148015610951575060001515811515145b15610991576040517f08c379a000000000000000000000000000000000000000000000000000000000815260040161098890612a5c565b60405180910390fd5b505050565b6000803390506000600960008373ffffffffffffffffffffffffffffffffffffffff1673ffffffffffffffffffffffffffffffffffffffff16815260200190815260200160002060008673ffffffffffffffffffffffffffffffffffffffff1673ffffffffffffffffffffffffffffffffffffffff16815260200190815260200160002060000154905060008185610a2e9190612aab565b9050610a3b838783611d14565b7f01722f0e92ffd761d4a842cffdd36fe3adb6091e41732a4e714250176b7d8d22838783604051610a6e93929190612aee565b60405180910390a16001935050505092915050565b600080339050610a938185611dc0565b610a9c84611e2d565b7fb4c03061fb5b7fed76389d5af8f2e0ddb09f8c70d1333abbb62582835e10accb8185856000604051610ad29493929190612b6a565b60405180910390a1600191505092915050565b6000803390506000600960008773ffffffffffffffffffffffffffffffffffffffff1673ffffffffffffffffffffffffffffffffffffffff16815260200190815260200160002060008373ffffffffffffffffffffffffffffffffffffffff1673ffffffffffffffffffffffffffffffffffffffff1681526020019081526020016000206000015490506000600f60008873ffffffffffffffffffffffffffffffffffffffff1673ffffffffffffffffffffffffffffffffffffffff168152602001908152602001600020600001549050848110158015610bc65750848210155b15610c2a57610bd6878787611e5b565b610be1878487611eb7565b7f5f7542858008eeb041631f30e6109ae94b83a58e9a58261dd2c42c508850f93987878588604051610c169493929190612baf565b60405180910390a160019350505050610c32565b600093505050505b9392505050565b6000803390506000600f60008973ffffffffffffffffffffffffffffffffffffffff1673ffffffffffffffffffffffffffffffffffffffff168152602001908152602001600020600001549050600860008973ffffffffffffffffffffffffffffffffffffffff1673ffffffffffffffffffffffffffffffffffffffff16815260200190815260200160002060008373ffffffffffffffffffffffffffffffffffffffff1673ffffffffffffffffffffffffffffffffffffffff16815260200190815260200160002060000160009054906101000a900460ff161515600015151415610e2257600a60008373ffffffffffffffffffffffffffffffffffffffff1673ffffffffffffffffffffffffffffffffffffffff16815260200190815260200160002060000160009054906101000a900460ff161515600115151415610e2157858110158015610db85750600073ffffffffffffffffffffffffffffffffffffffff168773ffffffffffffffffffffffffffffffffffffffff1614155b8015610dc45750600086115b15610e2057610dd4888888611f63565b7f29201c375a50a1787e78de24fb74f692471dddef5031bac82dacb23b57075f81888884898989604051610e0d96959493929190612bf4565b60405180910390a1600192505050610e29565b5b5b6000925050505b95945050505050565b60003373ffffffffffffffffffffffffffffffffffffffff168673ffffffffffffffffffffffffffffffffffffffff161415610f55576000600f60008873ffffffffffffffffffffffffffffffffffffffff1673ffffffffffffffffffffffffffffffffffffffff168152602001908152602001600020600001549050848110158015610eec5750600073ffffffffffffffffffffffffffffffffffffffff168673ffffffffffffffffffffffffffffffffffffffff1614155b8015610ef85750600085115b15610f5357610f08878787611f63565b7f29201c375a50a1787e78de24fb74f692471dddef5031bac82dacb23b57075f81878789888888604051610f4196959493929190612bf4565b60405180910390a16001915050610f5a565b505b600090505b95945050505050565b6000803390506000600f60008973ffffffffffffffffffffffffffffffffffffffff1673ffffffffffffffffffffffffffffffffffffffff168152602001908152602001600020600001549050600c60008973ffffffffffffffffffffffffffffffffffffffff1673ffffffffffffffffffffffffffffffffffffffff16815260200190815260200160002060008373ffffffffffffffffffffffffffffffffffffffff1673ffffffffffffffffffffffffffffffffffffffff16815260200190815260200160002060000160009054906101000a900460ff1615156001151514156110ef578581101580156110865750600073ffffffffffffffffffffffffffffffffffffffff168773ffffffffffffffffffffffffffffffffffffffff1614155b80156110925750600086115b156110ee576110a2888888611f63565b7f29201c375a50a1787e78de24fb74f692471dddef5031bac82dacb23b57075f818888848989896040516110db96959493929190612bf4565b60405180910390a16001925050506110f6565b5b6000925050505b95945050505050565b600080339050600860008773ffffffffffffffffffffffffffffffffffffffff1673ffffffffffffffffffffffffffffffffffffffff16815260200190815260200160002060008273ffffffffffffffffffffffffffffffffffffffff1673ffffffffffffffffffffffffffffffffffffffff16815260200190815260200160002060000160009054906101000a900460ff1615156000151514156112e8576000600f60008873ffffffffffffffffffffffffffffffffffffffff1673ffffffffffffffffffffffffffffffffffffffff168152602001908152602001600020600001549050600a60008373ffffffffffffffffffffffffffffffffffffffff1673ffffffffffffffffffffffffffffffffffffffff16815260200190815260200160002060000160009054906101000a900460ff1615156001151514156112e65785811015801561127e5750600073ffffffffffffffffffffffffffffffffffffffff168773ffffffffffffffffffffffffffffffffffffffff1614155b801561128a5750600086115b156112e55761129b87878787611fbf565b7f661b592c15cc184c8bffad3f1fc1f294b124b503ce79e2e905923ab89ec55a0487838888886040516112d2959493929190612c55565b60405180910390a16001925050506112ee565b5b505b60009150505b949350505050565b6000803390506000600f60008873ffffffffffffffffffffffffffffffffffffffff1673ffffffffffffffffffffffffffffffffffffffff168152602001908152602001600020600001549050600c60008873ffffffffffffffffffffffffffffffffffffffff1673ffffffffffffffffffffffffffffffffffffffff16815260200190815260200160002060008373ffffffffffffffffffffffffffffffffffffffff1673ffffffffffffffffffffffffffffffffffffffff16815260200190815260200160002060000160009054906101000a900460ff161515600115151415611481578581101580156114195750600073ffffffffffffffffffffffffffffffffffffffff168773ffffffffffffffffffffffffffffffffffffffff1614155b80156114255750600086115b156114805761143687878787611fbf565b7f661b592c15cc184c8bffad3f1fc1f294b124b503ce79e2e905923ab89ec55a04878388888860405161146d959493929190612c55565b60405180910390a1600192505050611488565b5b6000925050505b949350505050565b600080339050600a60008473ffffffffffffffffffffffffffffffffffffffff1673ffffffffffffffffffffffffffffffffffffffff16815260200190815260200160002060000160009054906101000a900460ff161515600115151415611646578273ffffffffffffffffffffffffffffffffffffffff168173ffffffffffffffffffffffffffffffffffffffff161461164557604051806040016040528060001515815260200160011515815250600860008573ffffffffffffffffffffffffffffffffffffffff1673ffffffffffffffffffffffffffffffffffffffff16815260200190815260200160002060008373ffffffffffffffffffffffffffffffffffffffff1673ffffffffffffffffffffffffffffffffffffffff16815260200190815260200160002060008201518160000160006101000a81548160ff02191690831515021790555060208201518160000160016101000a81548160ff0219169083151502179055509050507fd85ebb1e330b590f50fd30c048a0ba5753d6a30db94527512c0a05d3ca090a808382600060405161163393929190612ca8565b60405180910390a1600191505061164c565b5b60009150505b919050565b600080339050600a60008473ffffffffffffffffffffffffffffffffffffffff1673ffffffffffffffffffffffffffffffffffffffff16815260200190815260200160002060000160009054906101000a900460ff161515600015151415611807578273ffffffffffffffffffffffffffffffffffffffff168173ffffffffffffffffffffffffffffffffffffffff161461180657604051806040016040528060011515815260200160011515815250600c60008373ffffffffffffffffffffffffffffffffffffffff1673ffffffffffffffffffffffffffffffffffffffff16815260200190815260200160002060008573ffffffffffffffffffffffffffffffffffffffff1673ffffffffffffffffffffffffffffffffffffffff16815260200190815260200160002060008201518160000160006101000a81548160ff02191690831515021790555060208201518160000160016101000a81548160ff0219169083151502179055509050507f5e980782d2447d80fcce00db806dd0b2b22fa21fca194769d0a751ecdb972b8d818460016040516117f493929190612ca8565b60405180910390a1600191505061180d565b5b60009150505b919050565b6000803390506000600f60008373ffffffffffffffffffffffffffffffffffffffff1673ffffffffffffffffffffffffffffffffffffffff1681526020019081526020016000206000015490508084116118c8576118708285612015565b61187a8585612082565b7fd15345fd274726faa9a362e713fddd54c2302df785660da4271dae1fc8eeef4582868660008060006040516118b596959493929190612cdf565b60405180910390a16001925050506118cf565b6000925050505b92915050565b6000803390506000600f60008373ffffffffffffffffffffffffffffffffffffffff1673ffffffffffffffffffffffffffffffffffffffff1681526020019081526020016000206000015490508085116119855761193382866120ee565b61193c8561215b565b7f743033787f4738ff4d6a7225ce2bd0977ee5f86b91a902a58f5e4d0b297b464482868660006040516119729493929190612b6a565b60405180910390a160019250505061198c565b6000925050505b92915050565b600080339050600a60008473ffffffffffffffffffffffffffffffffffffffff1673ffffffffffffffffffffffffffffffffffffffff16815260200190815260200160002060000160009054906101000a900460ff161515600115151415611b48578273ffffffffffffffffffffffffffffffffffffffff168173ffffffffffffffffffffffffffffffffffffffff1614611b4757604051806040016040528060011515815260200160011515815250600860008373ffffffffffffffffffffffffffffffffffffffff1673ffffffffffffffffffffffffffffffffffffffff16815260200190815260200160002060008573ffffffffffffffffffffffffffffffffffffffff1673ffffffffffffffffffffffffffffffffffffffff16815260200190815260200160002060008201518160000160006101000a81548160ff02191690831515021790555060208201518160000160016101000a81548160ff0219169083151502179055509050507fd85ebb1e330b590f50fd30c048a0ba5753d6a30db94527512c0a05d3ca090a8081846001604051611b3593929190612ca8565b60405180910390a16001915050611b4e565b5b60009150505b919050565b600080339050600a60008473ffffffffffffffffffffffffffffffffffffffff1673ffffffffffffffffffffffffffffffffffffffff16815260200190815260200160002060000160009054906101000a900460ff161515600015151415611d09578273ffffffffffffffffffffffffffffffffffffffff168173ffffffffffffffffffffffffffffffffffffffff1614611d0857604051806040016040528060001515815260200160011515815250600c60008373ffffffffffffffffffffffffffffffffffffffff1673ffffffffffffffffffffffffffffffffffffffff16815260200190815260200160002060008573ffffffffffffffffffffffffffffffffffffffff1673ffffffffffffffffffffffffffffffffffffffff16815260200190815260200160002060008201518160000160006101000a81548160ff02191690831515021790555060208201518160000160016101000a81548160ff0219169083151502179055509050507f5e980782d2447d80fcce00db806dd0b2b22fa21fca194769d0a751ecdb972b8d81846000604051611cf693929190612ca8565b60405180910390a16001915050611d0f565b5b60009150505b919050565b6000819050611d24848483612189565b81600660008673ffffffffffffffffffffffffffffffffffffffff1673ffffffffffffffffffffffffffffffffffffffff16815260200190815260200160002060008573ffffffffffffffffffffffffffffffffffffffff1673ffffffffffffffffffffffffffffffffffffffff1681526020019081526020016000206000016000828254611db39190612d40565b9250508190555050505050565b6000819050611dcf83826122a6565b81600360008573ffffffffffffffffffffffffffffffffffffffff1673ffffffffffffffffffffffffffffffffffffffff1681526020019081526020016000206000016000828254611e219190612d40565b92505081905550505050565b6000819050611e3b81612348565b8160046000016000828254611e509190612d40565b925050819055505050565b611e658282612082565b611e6f8382612015565b7fd15345fd274726faa9a362e713fddd54c2302df785660da4271dae1fc8eeef458383836000806000604051611eaa96959493929190612cdf565b60405180910390a1505050565b6000819050611ec784848361236f565b81600760008673ffffffffffffffffffffffffffffffffffffffff1673ffffffffffffffffffffffffffffffffffffffff16815260200190815260200160002060008573ffffffffffffffffffffffffffffffffffffffff1673ffffffffffffffffffffffffffffffffffffffff1681526020019081526020016000206000016000828254611f569190612d40565b9250508190555050505050565b611f6d8282612082565b611f778382612015565b7fd15345fd274726faa9a362e713fddd54c2302df785660da4271dae1fc8eeef458383836000806000604051611fb296959493929190612cdf565b60405180910390a1505050565b611fc88361215b565b611fd284846120ee565b7f743033787f4738ff4d6a7225ce2bd0977ee5f86b91a902a58f5e4d0b297b4644848484846040516120079493929190612d96565b60405180910390a150505050565b60008190506120248382612495565b81600160008573ffffffffffffffffffffffffffffffffffffffff1673ffffffffffffffffffffffffffffffffffffffff16815260200190815260200160002060000160008282546120769190612d40565b92505081905550505050565b60008190506120918382612540565b816000808573ffffffffffffffffffffffffffffffffffffffff1673ffffffffffffffffffffffffffffffffffffffff16815260200190815260200160002060000160008282546120e29190612d40565b92505081905550505050565b60008190506120fd83826125e2565b81600260008573ffffffffffffffffffffffffffffffffffffffff1673ffffffffffffffffffffffffffffffffffffffff168152602001908152602001600020600001600082825461214f9190612d40565b92505081905550505050565b60008190506121698161268d565b816010600001600082825461217e9190612d40565b925050819055505050565b60008190506000612219600960008773ffffffffffffffffffffffffffffffffffffffff1673ffffffffffffffffffffffffffffffffffffffff16815260200190815260200160002060008673ffffffffffffffffffffffffffffffffffffffff1673ffffffffffffffffffffffffffffffffffffffff16815260200190815260200160002060000154836126bd565b905080600960008773ffffffffffffffffffffffffffffffffffffffff1673ffffffffffffffffffffffffffffffffffffffff16815260200190815260200160002060008673ffffffffffffffffffffffffffffffffffffffff1673ffffffffffffffffffffffffffffffffffffffff168152602001908152602001600020600001819055505050505050565b600081905060006122f9600f60008673ffffffffffffffffffffffffffffffffffffffff1673ffffffffffffffffffffffffffffffffffffffff16815260200190815260200160002060000154836126bd565b905080600f60008673ffffffffffffffffffffffffffffffffffffffff1673ffffffffffffffffffffffffffffffffffffffff1681526020019081526020016000206000018190555050505050565b6000819050600061235e600d60000154836126bd565b905080600d60000181905550505050565b60008161237b90612de5565b90506000612408600960008773ffffffffffffffffffffffffffffffffffffffff1673ffffffffffffffffffffffffffffffffffffffff16815260200190815260200160002060008673ffffffffffffffffffffffffffffffffffffffff1673ffffffffffffffffffffffffffffffffffffffff16815260200190815260200160002060000154836126bd565b905080600960008773ffffffffffffffffffffffffffffffffffffffff1673ffffffffffffffffffffffffffffffffffffffff16815260200190815260200160002060008673ffffffffffffffffffffffffffffffffffffffff1673ffffffffffffffffffffffffffffffffffffffff168152602001908152602001600020600001819055505050505050565b6000816124a190612de5565b905060006124f1600f60008673ffffffffffffffffffffffffffffffffffffffff1673ffffffffffffffffffffffffffffffffffffffff16815260200190815260200160002060000154836126bd565b905080600f60008673ffffffffffffffffffffffffffffffffffffffff1673ffffffffffffffffffffffffffffffffffffffff1681526020019081526020016000206000018190555050505050565b60008190506000612593600f60008673ffffffffffffffffffffffffffffffffffffffff1673ffffffffffffffffffffffffffffffffffffffff16815260200190815260200160002060000154836126bd565b905080600f60008673ffffffffffffffffffffffffffffffffffffffff1673ffffffffffffffffffffffffffffffffffffffff1681526020019081526020016000206000018190555050505050565b6000816125ee90612de5565b9050600061263e600f60008673ffffffffffffffffffffffffffffffffffffffff1673ffffffffffffffffffffffffffffffffffffffff16815260200190815260200160002060000154836126bd565b905080600f60008673ffffffffffffffffffffffffffffffffffffffff1673ffffffffffffffffffffffffffffffffffffffff1681526020019081526020016000206000018190555050505050565b60008161269990612de5565b905060006126ac600d60000154836126bd565b905080600d60000181905550505050565b600080839050600083826126d19190612e2e565b9050600081905080935050505092915050565b600080fd5b600073ffffffffffffffffffffffffffffffffffffffff82169050919050565b6000612714826126e9565b9050919050565b61272481612709565b811461272f57600080fd5b50565b6000813590506127418161271b565b92915050565b6000819050919050565b61275a81612747565b811461276557600080fd5b50565b60008135905061277781612751565b92915050565b60008060408385031215612794576127936126e4565b5b60006127a285828601612732565b92505060206127b385828601612768565b9150509250929050565b600080604083850312156127d4576127d36126e4565b5b60006127e285828601612732565b92505060206127f385828601612732565b9150509250929050565b61280681612747565b82525050565b600060208201905061282160008301846127fd565b92915050565b60008115159050919050565b61283c81612827565b82525050565b60006020820190506128576000830184612833565b92915050565b60008060408385031215612874576128736126e4565b5b600061288285828601612768565b925050602061289385828601612768565b9150509250929050565b6000806000606084860312156128b6576128b56126e4565b5b60006128c486828701612732565b93505060206128d586828701612732565b92505060406128e686828701612768565b9150509250925092565b600080600080600060a0868803121561290c5761290b6126e4565b5b600061291a88828901612732565b955050602061292b88828901612732565b945050604061293c88828901612768565b935050606061294d88828901612768565b925050608061295e88828901612768565b9150509295509295909350565b600060208284031215612981576129806126e4565b5b600061298f84828501612732565b91505092915050565b600080600080608085870312156129b2576129b16126e4565b5b60006129c087828801612732565b94505060206129d187828801612768565b93505060406129e287828801612768565b92505060606129f387828801612768565b91505092959194509250565b600082825260208201905092915050565b7f52756c6520636f6e646974696f6e206661696c65640000000000000000000000600082015250565b6000612a466015836129ff565b9150612a5182612a10565b602082019050919050565b60006020820190508181036000830152612a7581612a39565b9050919050565b7f4e487b7100000000000000000000000000000000000000000000000000000000600052601160045260246000fd5b6000612ab682612747565b9150612ac183612747565b925082821015612ad457612ad3612a7c565b5b828203905092915050565b612ae881612709565b82525050565b6000606082019050612b036000830186612adf565b612b106020830185612adf565b612b1d60408301846127fd565b949350505050565b6000819050919050565b6000819050919050565b6000612b54612b4f612b4a84612b25565b612b2f565b612747565b9050919050565b612b6481612b39565b82525050565b6000608082019050612b7f6000830187612adf565b612b8c60208301866127fd565b612b9960408301856127fd565b612ba66060830184612b5b565b95945050505050565b6000608082019050612bc46000830187612adf565b612bd16020830186612adf565b612bde6040830185612adf565b612beb60608301846127fd565b95945050505050565b600060c082019050612c096000830189612adf565b612c166020830188612adf565b612c236040830187612adf565b612c3060608301866127fd565b612c3d60808301856127fd565b612c4a60a08301846127fd565b979650505050505050565b600060a082019050612c6a6000830188612adf565b612c776020830187612adf565b612c8460408301866127fd565b612c9160608301856127fd565b612c9e60808301846127fd565b9695505050505050565b6000606082019050612cbd6000830186612adf565b612cca6020830185612adf565b612cd76040830184612833565b949350505050565b600060c082019050612cf46000830189612adf565b612d016020830188612adf565b612d0e60408301876127fd565b612d1b6060830186612b5b565b612d286080830185612b5b565b612d3560a0830184612833565b979650505050505050565b6000612d4b82612747565b9150612d5683612747565b9250827fffffffffffffffffffffffffffffffffffffffffffffffffffffffffffffffff03821115612d8b57612d8a612a7c565b5b828201905092915050565b6000608082019050612dab6000830187612adf565b612db860208301866127fd565b612dc560408301856127fd565b612dd260608301846127fd565b95945050505050565b6000819050919050565b6000612df082612ddb565b91507f8000000000000000000000000000000000000000000000000000000000000000821415612e2357612e22612a7c565b5b816000039050919050565b6000612e3982612ddb565b9150612e4483612ddb565b9250817f7fffffffffffffffffffffffffffffffffffffffffffffffffffffffffffffff03831360008312151615612e7f57612e7e612a7c565b5b817f8000000000000000000000000000000000000000000000000000000000000000038312600083121615612eb757612eb6612a7c565b5b82820190509291505056fea26469706673582212203dab861fab31bdeafb032bbb7087f6004cf2a600729a68a3a308fe89103d8b5264736f6c634300080c0033",
  "immutableReferences": {},
  "source": "contract Erc777 {\n  struct TotalOutTuple {\n    uint n;\n    bool _valid;\n  }\n  struct TotalMintTuple {\n    uint n;\n    bool _valid;\n  }\n  struct AllowanceTotalTuple {\n    uint m;\n    bool _valid;\n  }\n  struct RevokedDefaultOperatorTuple {\n    bool b;\n    bool _valid;\n  }\n  struct TotalInTuple {\n    uint n;\n    bool _valid;\n  }\n  struct TotalBurnTuple {\n    uint n;\n    bool _valid;\n  }\n  struct DefaultOperatorTuple {\n    bool b;\n    bool _valid;\n  }\n  struct OwnerTuple {\n    address p;\n    bool _valid;\n  }\n  struct OperatorsTuple {\n    bool b;\n    bool _valid;\n  }\n  struct TotalSupplyTuple {\n    uint n;\n    bool _valid;\n  }\n  struct AllMintTuple {\n    uint n;\n    bool _valid;\n  }\n  struct SpentTotalTuple {\n    uint m;\n    bool _valid;\n  }\n  struct BalanceOfTuple {\n    uint n;\n    bool _valid;\n  }\n  struct AllBurnTuple {\n    uint n;\n    bool _valid;\n  }\n  struct AllowanceTuple {\n    uint n;\n    bool _valid;\n  }\n  mapping(address=>TotalInTuple) totalIn;\n  mapping(address=>TotalOutTuple) totalOut;\n  mapping(address=>TotalBurnTuple) totalBurn;\n  mapping(address=>TotalMintTuple) totalMint;\n  AllMintTuple allMint;\n  mapping(address=>mapping(address=>AllowanceTotalTuple)) allowanceTotal;\n  mapping(address=>mapping(address=>SpentTotalTuple)) spentTotal;\n  mapping(address=>mapping(address=>RevokedDefaultOperatorTuple)) revokedDefaultOperator;\n  mapping(address=>mapping(address=>AllowanceTuple)) allowance;\n  mapping(address=>DefaultOperatorTuple) defaultOperator;\n  OwnerTuple owner;\n  mapping(address=>mapping(address=>OperatorsTuple)) operators;\n  TotalSupplyTuple totalSupply;\n  mapping(address=>BalanceOfTuple) balanceOf;\n  AllBurnTuple allBurn;\n  event OperatorBurn(address p,address s,uint n,uint data,uint operatorData);\n  event TransferFrom(address from,address to,address spender,uint amount);\n  event Mint(address p,uint amount,uint data,uint odata);\n  event Transfer(address o,address r,uint n,uint data,uint rdata,bool b);\n  event IncreaseAllowance(address p,address s,uint n);\n  event OperatorSend(address o,address r,address s,uint n,uint data,uint operatorData);\n  event Burn(address p,uint amount,uint data,uint odata);\n  event RevokedDefaultOperator(address p,address o,bool b);\n  event Operators(address p,address o,bool b);\n  constructor(uint name,uint symbol) public {\n    updateTotalSupplyOnInsertConstructor_r6();\n    updateOwnerOnInsertConstructor_r20();\n  }\n  function burn(uint amount,uint data) public    {\n      bool r12 = updateBurnOnInsertRecv_burn_r12(amount,data);\n      if(r12==false) {\n        revert(\"Rule condition failed\");\n      }\n  }\n  function authorizeOperator(address o) public    {\n      bool r14 = updateRevokedDefaultOperatorOnInsertRecv_authorizeOperator_r14(o);\n      bool r23 = updateOperatorsOnInsertRecv_authorizeOperator_r23(o);\n      if(r14==false && r23==false) {\n        revert(\"Rule condition failed\");\n      }\n  }\n  function revokeOperator(address o) public    {\n      bool r29 = updateRevokedDefaultOperatorOnInsertRecv_revokeOperator_r29(o);\n      bool r28 = updateOperatorsOnInsertRecv_revokeOperator_r28(o);\n      if(r29==false && r28==false) {\n        revert(\"Rule condition failed\");\n      }\n  }\n  function getTotalSupply() public view  returns (uint) {\n      uint n = totalSupply.n;\n      return n;\n  }\n  function operatorBurn(address p,uint n,uint data,uint operatorData) public   returns (uint) {\n      bool r17 = updateOperatorBurnOnInsertRecv_operatorBurn_r17(p,n,data,operatorData);\n      bool r7 = updateOperatorBurnOnInsertRecv_operatorBurn_r7(p,n,data,operatorData);\n      if(r17==false && r7==false) {\n        revert(\"Rule condition failed\");\n      }\n  }\n  function getAllowance(address p,address s) public view  returns (uint) {\n      uint n = allowance[p][s].n;\n      return n;\n  }\n  function approve(address s,uint n) public    {\n      bool r27 = updateIncreaseAllowanceOnInsertRecv_approve_r27(s,n);\n      if(r27==false) {\n        revert(\"Rule condition failed\");\n      }\n  }\n  function getDefaultOperator(address p) public view  returns (bool) {\n      bool b = defaultOperator[p].b;\n      return b;\n  }\n  function transfer(address r,uint amount) public    {\n      bool r2 = updateTransferOnInsertRecv_transfer_r2(r,amount);\n      if(r2==false) {\n        revert(\"Rule condition failed\");\n      }\n  }\n  function getOperators(address p,address o) public view  returns (bool) {\n      bool b = operators[p][o].b;\n      return b;\n  }\n  function transferFrom(address from,address to,uint amount) public    {\n      bool r25 = updateTransferFromOnInsertRecv_transferFrom_r25(from,to,amount);\n      if(r25==false) {\n        revert(\"Rule condition failed\");\n      }\n  }\n  function mint(uint amount,uint data) public    {\n      bool r9 = updateMintOnInsertRecv_mint_r9(amount,data);\n      if(r9==false) {\n        revert(\"Rule condition failed\");\n      }\n  }\n  function getRevokedDefaultOperator(address p,address o) public view  returns (bool) {\n      bool b = revokedDefaultOperator[p][o].b;\n      return b;\n  }\n  function operatorSend(address o,address r,uint n,uint data,uint operatorData) public   returns (uint) {\n      bool r26 = updateOperatorSendOnInsertRecv_operatorSend_r26(o,r,n,data,operatorData);\n      bool r5 = updateOperatorSendOnInsertRecv_operatorSend_r5(o,r,n,data,operatorData);\n      bool r24 = updateOperatorSendOnInsertRecv_operatorSend_r24(o,r,n,data,operatorData);\n      if(r26==false && r5==false && r24==false) {\n        revert(\"Rule condition failed\");\n      }\n  }\n  function getBalanceOf(address p) public view  returns (uint) {\n      uint n = balanceOf[p].n;\n      return n;\n  }\n  function updateBalanceOfOnIncrementTotalMint_r13(address p,int n) private    {\n      int _delta = int(n);\n      uint newValue = updateuintByint(balanceOf[p].n,_delta);\n      balanceOf[p].n = newValue;\n  }\n  function updateOperatorsOnInsertRecv_revokeOperator_r28(address o) private   returns (bool) {\n      address p = msg.sender;\n      if(false==defaultOperator[o].b) {\n        if(p!=o) {\n          operators[p][o] = OperatorsTuple(false,true);\n          emit Operators(p,o,false);\n          return true;\n        }\n      }\n      return false;\n  }\n  function updateTotalBurnOnInsertBurn_r4(address p,uint a) private    {\n      int delta0 = int(a);\n      updateBalanceOfOnIncrementTotalBurn_r13(p,delta0);\n      totalBurn[p].n += a;\n  }\n  function updateBurnOnInsertOperatorBurn_r21(address p,uint n,uint d,uint o) private    {\n      updateAllBurnOnInsertBurn_r1(n);\n      updateTotalBurnOnInsertBurn_r4(p,n);\n      emit Burn(p,n,d,o);\n  }\n  function updateTotalSupplyOnIncrementAllBurn_r8(int b) private    {\n      int _delta = int(-b);\n      uint newValue = updateuintByint(totalSupply.n,_delta);\n      totalSupply.n = newValue;\n  }\n  function updateTotalSupplyOnIncrementAllMint_r8(int m) private    {\n      int _delta = int(m);\n      uint newValue = updateuintByint(totalSupply.n,_delta);\n      totalSupply.n = newValue;\n  }\n  function updateuintByint(uint x,int delta) private   returns (uint) {\n      int convertedX = int(x);\n      int value = convertedX+delta;\n      uint convertedValue = uint(value);\n      return convertedValue;\n  }\n  function updateIncreaseAllowanceOnInsertRecv_approve_r27(address s,uint n) private   returns (bool) {\n      address o = msg.sender;\n      uint m = allowance[o][s].n;\n      uint d = n-m;\n      updateAllowanceTotalOnInsertIncreaseAllowance_r30(o,s,d);\n      emit IncreaseAllowance(o,s,d);\n      return true;\n      return false;\n  }\n  function updateBalanceOfOnIncrementTotalIn_r13(address p,int i) private    {\n      int _delta = int(i);\n      uint newValue = updateuintByint(balanceOf[p].n,_delta);\n      balanceOf[p].n = newValue;\n  }\n  function updateTotalSupplyOnInsertConstructor_r6() private    {\n      totalSupply = TotalSupplyTuple(0,true);\n  }\n  function updateBalanceOfOnIncrementTotalBurn_r13(address p,int m) private    {\n      int _delta = int(-m);\n      uint newValue = updateuintByint(balanceOf[p].n,_delta);\n      balanceOf[p].n = newValue;\n  }\n  function updateAllMintOnInsertMint_r16(uint a) private    {\n      int delta0 = int(a);\n      updateTotalSupplyOnIncrementAllMint_r8(delta0);\n      allMint.n += a;\n  }\n  function updateTransferFromOnInsertRecv_transferFrom_r25(address o,address r,uint n) private   returns (bool) {\n      address s = msg.sender;\n      uint k = allowance[o][s].n;\n      uint m = balanceOf[o].n;\n      if(m>=n && k>=n) {\n        updateTransferOnInsertTransferFrom_r18(o,r,n);\n        updateSpentTotalOnInsertTransferFrom_r22(o,s,n);\n        emit TransferFrom(o,r,s,n);\n        return true;\n      }\n      return false;\n  }\n  function updateTotalOutOnInsertTransfer_r3(address p,uint n) private    {\n      int delta0 = int(n);\n      updateBalanceOfOnIncrementTotalOut_r13(p,delta0);\n      totalOut[p].n += n;\n  }\n  function updateOperatorSendOnInsertRecv_operatorSend_r24(address o,address r,uint n,uint data,uint operatorData) private   returns (bool) {\n      address s = msg.sender;\n      uint m = balanceOf[o].n;\n      if(true==operators[o][s].b) {\n        if(m>=n && r!=address(0) && n>0) {\n          updateTransferOnInsertOperatorSend_r11(o,r,n);\n          emit OperatorSend(o,r,s,n,data,operatorData);\n          return true;\n        }\n      }\n      return false;\n  }\n  function updateTransferOnInsertRecv_transfer_r2(address r,uint n) private   returns (bool) {\n      address s = msg.sender;\n      uint m = balanceOf[s].n;\n      if(n<=m) {\n        updateTotalOutOnInsertTransfer_r3(s,n);\n        updateTotalInOnInsertTransfer_r0(r,n);\n        emit Transfer(s,r,n,0,0,false);\n        return true;\n      }\n      return false;\n  }\n  function updateOperatorBurnOnInsertRecv_operatorBurn_r17(address p,uint n,uint data,uint operatorData) private   returns (bool) {\n      address s = msg.sender;\n      if(false==revokedDefaultOperator[p][s].b) {\n        uint m = balanceOf[p].n;\n        if(true==defaultOperator[s].b) {\n          if(m>=n && p!=address(0) && n>0) {\n            updateBurnOnInsertOperatorBurn_r21(p,n,data,operatorData);\n            emit OperatorBurn(p,s,n,data,operatorData);\n            return true;\n          }\n        }\n      }\n      return false;\n  }\n  function updateOperatorSendOnInsertRecv_operatorSend_r26(address o,address r,uint n,uint data,uint operatorData) private   returns (bool) {\n      address s = msg.sender;\n      uint m = balanceOf[o].n;\n      if(false==revokedDefaultOperator[o][s].b) {\n        if(true==defaultOperator[s].b) {\n          if(m>=n && r!=address(0) && n>0) {\n            updateTransferOnInsertOperatorSend_r11(o,r,n);\n            emit OperatorSend(o,r,s,n,data,operatorData);\n            return true;\n          }\n        }\n      }\n      return false;\n  }\n  function updateAllowanceOnIncrementSpentTotal_r15(address o,address s,int l) private    {\n      int _delta = int(-l);\n      uint newValue = updateuintByint(allowance[o][s].n,_delta);\n      allowance[o][s].n = newValue;\n  }\n  function updateRevokedDefaultOperatorOnInsertRecv_authorizeOperator_r14(address o) private   returns (bool) {\n      address p = msg.sender;\n      if(true==defaultOperator[o].b) {\n        if(p!=o) {\n          revokedDefaultOperator[o][p] = RevokedDefaultOperatorTuple(false,true);\n          emit RevokedDefaultOperator(o,p,false);\n          return true;\n        }\n      }\n      return false;\n  }\n  function updateOperatorsOnInsertRecv_authorizeOperator_r23(address o) private   returns (bool) {\n      address p = msg.sender;\n      if(false==defaultOperator[o].b) {\n        if(p!=o) {\n          operators[p][o] = OperatorsTuple(true,true);\n          emit Operators(p,o,true);\n          return true;\n        }\n      }\n      return false;\n  }\n  function updateOperatorBurnOnInsertRecv_operatorBurn_r7(address p,uint n,uint data,uint operatorData) private   returns (bool) {\n      address s = msg.sender;\n      uint m = balanceOf[p].n;\n      if(true==operators[p][s].b) {\n        if(m>=n && p!=address(0) && n>0) {\n          updateBurnOnInsertOperatorBurn_r21(p,n,data,operatorData);\n          emit OperatorBurn(p,s,n,data,operatorData);\n          return true;\n        }\n      }\n      return false;\n  }\n  function updateTotalInOnInsertTransfer_r0(address p,uint n) private    {\n      int delta0 = int(n);\n      updateBalanceOfOnIncrementTotalIn_r13(p,delta0);\n      totalIn[p].n += n;\n  }\n  function updateMintOnInsertRecv_mint_r9(uint a,uint d) private   returns (bool) {\n      address s = msg.sender;\n      updateTotalMintOnInsertMint_r19(s,a);\n      updateAllMintOnInsertMint_r16(a);\n      emit Mint(s,a,d,0);\n      return true;\n      return false;\n  }\n  function updateAllowanceOnIncrementAllowanceTotal_r15(address o,address s,int m) private    {\n      int _delta = int(m);\n      uint newValue = updateuintByint(allowance[o][s].n,_delta);\n      allowance[o][s].n = newValue;\n  }\n  function updateBurnOnInsertRecv_burn_r12(uint a,uint d) private   returns (bool) {\n      address s = msg.sender;\n      uint m = balanceOf[s].n;\n      if(a<=m) {\n        updateTotalBurnOnInsertBurn_r4(s,a);\n        updateAllBurnOnInsertBurn_r1(a);\n        emit Burn(s,a,d,0);\n        return true;\n      }\n      return false;\n  }\n  function updateRevokedDefaultOperatorOnInsertRecv_revokeOperator_r29(address o) private   returns (bool) {\n      address p = msg.sender;\n      if(true==defaultOperator[o].b) {\n        if(p!=o) {\n          revokedDefaultOperator[p][o] = RevokedDefaultOperatorTuple(true,true);\n          emit RevokedDefaultOperator(p,o,true);\n          return true;\n        }\n      }\n      return false;\n  }\n  function updateTransferOnInsertTransferFrom_r18(address o,address r,uint n) private    {\n      updateTotalInOnInsertTransfer_r0(r,n);\n      updateTotalOutOnInsertTransfer_r3(o,n);\n      emit Transfer(o,r,n,0,0,false);\n  }\n  function updateTransferOnInsertOperatorSend_r11(address o,address r,uint n) private    {\n      updateTotalInOnInsertTransfer_r0(r,n);\n      updateTotalOutOnInsertTransfer_r3(o,n);\n      emit Transfer(o,r,n,0,0,false);\n  }\n  function updateOwnerOnInsertConstructor_r20() private    {\n      address s = msg.sender;\n      owner = OwnerTuple(s,true);\n  }\n  function updateBalanceOfOnIncrementTotalOut_r13(address p,int o) private    {\n      int _delta = int(-o);\n      uint newValue = updateuintByint(balanceOf[p].n,_delta);\n      balanceOf[p].n = newValue;\n  }\n  function updateAllowanceTotalOnInsertIncreaseAllowance_r30(address o,address s,uint n) private    {\n      int delta0 = int(n);\n      updateAllowanceOnIncrementAllowanceTotal_r15(o,s,delta0);\n      allowanceTotal[o][s].m += n;\n  }\n  function updateOperatorSendOnInsertRecv_operatorSend_r5(address o,address r,uint n,uint data,uint operatorData) private   returns (bool) {\n      if(o==msg.sender) {\n        uint m = balanceOf[o].n;\n        if(m>=n && r!=address(0) && n>0) {\n          updateTransferOnInsertOperatorSend_r11(o,r,n);\n          emit OperatorSend(o,r,o,n,data,operatorData);\n          return true;\n        }\n      }\n      return false;\n  }\n  function updateAllBurnOnInsertBurn_r1(uint a) private    {\n      int delta0 = int(a);\n      updateTotalSupplyOnIncrementAllBurn_r8(delta0);\n      allBurn.n += a;\n  }\n  function updateSpentTotalOnInsertTransferFrom_r22(address o,address s,uint n) private    {\n      int delta0 = int(n);\n      updateAllowanceOnIncrementSpentTotal_r15(o,s,delta0);\n      spentTotal[o][s].m += n;\n  }\n  function updateTotalMintOnInsertMint_r19(address p,uint a) private    {\n      int delta0 = int(a);\n      updateBalanceOfOnIncrementTotalMint_r13(p,delta0);\n      totalMint[p].n += a;\n  }\n}",
  "sourcePath": "/Users/ljy/Desktop/PENN/2023_summer/boon_dsc/smart-contracts/optimizations/full/contracts/erc777.sol",
  "compiler": {
    "name": "solc",
    "version": "0.8.12+commit.f00d7308.Emscripten.clang"
  },
  "schemaVersion": "3.4.16",
  "updatedAt": "2024-01-04T07:16:18.632Z",
  "devdoc": {
    "kind": "dev",
    "methods": {},
    "version": 1
  },
  "userdoc": {
    "kind": "user",
    "methods": {},
    "version": 1
  }
}