{
  "contractName": "Linktoken",
  "abi": [
    {
      "inputs": [
        {
          "internalType": "uint256",
          "name": "n",
          "type": "uint256"
        }
      ],
      "stateMutability": "nonpayable",
      "type": "constructor"
    },
    {
      "anonymous": false,
      "inputs": [
        {
          "indexed": false,
          "internalType": "address",
          "name": "p",
          "type": "address"
        },
        {
          "indexed": false,
          "internalType": "uint256",
          "name": "amount",
          "type": "uint256"
        }
      ],
      "name": "Burn",
      "type": "event"
    },
    {
      "anonymous": false,
      "inputs": [
        {
          "indexed": false,
          "internalType": "address",
          "name": "p",
          "type": "address"
        },
        {
          "indexed": false,
          "internalType": "address",
          "name": "s",
          "type": "address"
        },
        {
          "indexed": false,
          "internalType": "uint256",
          "name": "n",
          "type": "uint256"
        }
      ],
      "name": "IncreaseAllowance",
      "type": "event"
    },
    {
      "anonymous": false,
      "inputs": [
        {
          "indexed": false,
          "internalType": "address",
          "name": "p",
          "type": "address"
        },
        {
          "indexed": false,
          "internalType": "uint256",
          "name": "amount",
          "type": "uint256"
        }
      ],
      "name": "Mint",
      "type": "event"
    },
    {
      "anonymous": false,
      "inputs": [
        {
          "indexed": false,
          "internalType": "address",
          "name": "from",
          "type": "address"
        },
        {
          "indexed": false,
          "internalType": "address",
          "name": "to",
          "type": "address"
        },
        {
          "indexed": false,
          "internalType": "uint256",
          "name": "amount",
          "type": "uint256"
        }
      ],
      "name": "Transfer",
      "type": "event"
    },
    {
      "anonymous": false,
      "inputs": [
        {
          "indexed": false,
          "internalType": "address",
          "name": "from",
          "type": "address"
        },
        {
          "indexed": false,
          "internalType": "address",
          "name": "to",
          "type": "address"
        },
        {
          "indexed": false,
          "internalType": "address",
          "name": "spender",
          "type": "address"
        },
        {
          "indexed": false,
          "internalType": "uint256",
          "name": "amount",
          "type": "uint256"
        }
      ],
      "name": "TransferFrom",
      "type": "event"
    },
    {
      "inputs": [
        {
          "internalType": "address",
          "name": "s",
          "type": "address"
        },
        {
          "internalType": "uint256",
          "name": "n",
          "type": "uint256"
        }
      ],
      "name": "approve",
      "outputs": [],
      "stateMutability": "nonpayable",
      "type": "function"
    },
    {
      "inputs": [
        {
          "internalType": "address",
          "name": "p",
          "type": "address"
        },
        {
          "internalType": "address",
          "name": "s",
          "type": "address"
        }
      ],
      "name": "getAllowance",
      "outputs": [
        {
          "internalType": "uint256",
          "name": "",
          "type": "uint256"
        }
      ],
      "stateMutability": "view",
      "type": "function"
    },
    {
      "inputs": [],
      "name": "getTotalSupply",
      "outputs": [
        {
          "internalType": "uint256",
          "name": "",
          "type": "uint256"
        }
      ],
      "stateMutability": "view",
      "type": "function"
    },
    {
      "inputs": [
        {
          "internalType": "address",
          "name": "p",
          "type": "address"
        },
        {
          "internalType": "uint256",
          "name": "amount",
          "type": "uint256"
        }
      ],
      "name": "mint",
      "outputs": [],
      "stateMutability": "nonpayable",
      "type": "function"
    },
    {
      "inputs": [
        {
          "internalType": "address",
          "name": "from",
          "type": "address"
        },
        {
          "internalType": "address",
          "name": "to",
          "type": "address"
        },
        {
          "internalType": "uint256",
          "name": "amount",
          "type": "uint256"
        }
      ],
      "name": "transferFrom",
      "outputs": [],
      "stateMutability": "nonpayable",
      "type": "function"
    },
    {
      "inputs": [
        {
          "internalType": "address",
          "name": "to",
          "type": "address"
        },
        {
          "internalType": "uint256",
          "name": "amount",
          "type": "uint256"
        }
      ],
      "name": "transfer",
      "outputs": [],
      "stateMutability": "nonpayable",
      "type": "function"
    },
    {
      "inputs": [
        {
          "internalType": "address",
          "name": "p",
          "type": "address"
        }
      ],
      "name": "getBalanceOf",
      "outputs": [
        {
          "internalType": "uint256",
          "name": "",
          "type": "uint256"
        }
      ],
      "stateMutability": "view",
      "type": "function"
    },
    {
      "inputs": [
        {
          "internalType": "address",
          "name": "p",
          "type": "address"
        },
        {
          "internalType": "uint256",
          "name": "amount",
          "type": "uint256"
        }
      ],
      "name": "burn",
      "outputs": [],
      "stateMutability": "nonpayable",
      "type": "function"
    }
  ],
  "bytecode": "0x60806040523480156200001157600080fd5b5060405162001c3638038062001c3683398181016040528101906200003791906200023d565b620000476200008160201b60201c565b62000058816200012360201b60201c565b62000069816200016d60201b60201c565b6200007a816200017060201b60201c565b506200026f565b600033905060405180604001604052808273ffffffffffffffffffffffffffffffffffffffff16815260200160011515815250600360008201518160000160006101000a81548173ffffffffffffffffffffffffffffffffffffffff021916908373ffffffffffffffffffffffffffffffffffffffff16021790555060208201518160000160146101000a81548160ff02191690831515021790555090505050565b60405180604001604052808281526020016001151581525060056000820151816000015560208201518160010160006101000a81548160ff02191690831515021790555090505050565b50565b6000339050604051806040016040528083815260200160011515815250600c60008373ffffffffffffffffffffffffffffffffffffffff1673ffffffffffffffffffffffffffffffffffffffff1681526020019081526020016000206000820151816000015560208201518160010160006101000a81548160ff0219169083151502179055509050505050565b600080fd5b6000819050919050565b620002178162000202565b81146200022357600080fd5b50565b60008151905062000237816200020c565b92915050565b600060208284031215620002565762000255620001fd565b5b6000620002668482850162000226565b91505092915050565b6119b7806200027f6000396000f3fe608060405234801561001057600080fd5b50600436106100885760003560e01c80639b96eece1161005b5780639b96eece146101115780639dc29fac14610141578063a9059cbb1461015d578063c4e41b221461017957610088565b8063095ea7b31461008d5780630af4187d146100a957806323b872dd146100d957806340c10f19146100f5575b600080fd5b6100a760048036038101906100a29190611586565b610197565b005b6100c360048036038101906100be91906115c6565b6101f2565b6040516100d09190611615565b60405180910390f35b6100f360048036038101906100ee9190611630565b6102b7565b005b61010f600480360381019061010a9190611586565b610314565b005b61012b60048036038101906101269190611683565b61036f565b6040516101389190611615565b60405180910390f35b61015b60048036038101906101569190611586565b6103f6565b005b61017760048036038101906101729190611586565b610451565b005b6101816104ac565b60405161018e9190611615565b60405180910390f35b60006101a383836104be565b90506000151581151514156101ed576040517f08c379a00000000000000000000000000000000000000000000000000000000081526004016101e49061170d565b60405180910390fd5b505050565b600080600b60008573ffffffffffffffffffffffffffffffffffffffff1673ffffffffffffffffffffffffffffffffffffffff16815260200190815260200160002060008473ffffffffffffffffffffffffffffffffffffffff1673ffffffffffffffffffffffffffffffffffffffff168152602001908152602001600020604051806040016040529081600082015481526020016001820160009054906101000a900460ff1615151515815250509050600081600001519050809250505092915050565b60006102c48484846105fc565b905060001515811515141561030e576040517f08c379a00000000000000000000000000000000000000000000000000000000081526004016103059061170d565b60405180910390fd5b50505050565b600061032083836107cf565b905060001515811515141561036a576040517f08c379a00000000000000000000000000000000000000000000000000000000081526004016103619061170d565b60405180910390fd5b505050565b600080600c60008473ffffffffffffffffffffffffffffffffffffffff1673ffffffffffffffffffffffffffffffffffffffff168152602001908152602001600020604051806040016040529081600082015481526020016001820160009054906101000a900460ff16151515158152505090506000816000015190508092505050919050565b600061040283836108c5565b905060001515811515141561044c576040517f08c379a00000000000000000000000000000000000000000000000000000000081526004016104439061170d565b60405180910390fd5b505050565b600061045d8383610a49565b90506000151581151514156104a7576040517f08c379a000000000000000000000000000000000000000000000000000000000815260040161049e9061170d565b60405180910390fd5b505050565b60008060056000015490508091505090565b6000803390506000600b60008373ffffffffffffffffffffffffffffffffffffffff1673ffffffffffffffffffffffffffffffffffffffff16815260200190815260200160002060008673ffffffffffffffffffffffffffffffffffffffff1673ffffffffffffffffffffffffffffffffffffffff168152602001908152602001600020604051806040016040529081600082015481526020016001820160009054906101000a900460ff161515151581525050905060008160000151905061058686610b4e565b156105ee5760008186610599919061175c565b90506105a6848883610bd7565b7f01722f0e92ffd761d4a842cffdd36fe3adb6091e41732a4e714250176b7d8d228488836040516105d99392919061179f565b60405180910390a160019450505050506105f6565b600093505050505b92915050565b6000803390506000600c60008773ffffffffffffffffffffffffffffffffffffffff1673ffffffffffffffffffffffffffffffffffffffff168152602001908152602001600020604051806040016040529081600082015481526020016001820160009054906101000a900460ff16151515158152505090506000816000015190506000600b60008973ffffffffffffffffffffffffffffffffffffffff1673ffffffffffffffffffffffffffffffffffffffff16815260200190815260200160002060008573ffffffffffffffffffffffffffffffffffffffff1673ffffffffffffffffffffffffffffffffffffffff168152602001908152602001600020604051806040016040529081600082015481526020016001820160009054906101000a900460ff16151515158152505090506000816000015190508683101580156107475750868110155b8015610758575061075788610b4e565b5b156107be57610768898689610c83565b610773898989610d2f565b7f5f7542858008eeb041631f30e6109ae94b83a58e9a58261dd2c42c508850f9398989878a6040516107a894939291906117d6565b60405180910390a16001955050505050506107c8565b6000955050505050505b9392505050565b600080600360000160009054906101000a900473ffffffffffffffffffffffffffffffffffffffff1690503373ffffffffffffffffffffffffffffffffffffffff168173ffffffffffffffffffffffffffffffffffffffff1614156108b957600073ffffffffffffffffffffffffffffffffffffffff168473ffffffffffffffffffffffffffffffffffffffff16146108b85761086b83610d83565b6108758484610db1565b7f0f6798a560793a54c3bcfe86a93cde1e73087d944c0ea20544137d412139688584846040516108a692919061181b565b60405180910390a160019150506108bf565b5b60009150505b92915050565b600080600360000160009054906101000a900473ffffffffffffffffffffffffffffffffffffffff1690503373ffffffffffffffffffffffffffffffffffffffff168173ffffffffffffffffffffffffffffffffffffffff161415610a3d576000600c60008673ffffffffffffffffffffffffffffffffffffffff1673ffffffffffffffffffffffffffffffffffffffff168152602001908152602001600020604051806040016040529081600082015481526020016001820160009054906101000a900460ff1615151515815250509050600081600001519050600073ffffffffffffffffffffffffffffffffffffffff168673ffffffffffffffffffffffffffffffffffffffff16141580156109dd5750808511155b15610a3a576109eb85610e1e565b6109f58686610e4c565b7fcc16f5dbb4873280815c1ee09dbd06736cffcc184412cf7a71a0fdb75d397ca58686604051610a2692919061181b565b60405180910390a160019350505050610a43565b50505b60009150505b92915050565b6000803390506000600c60008373ffffffffffffffffffffffffffffffffffffffff1673ffffffffffffffffffffffffffffffffffffffff168152602001908152602001600020604051806040016040529081600082015481526020016001820160009054906101000a900460ff1615151515815250509050600081600001519050808511158015610ae05750610adf86610b4e565b5b15610b4057610aef8386610eb9565b610af98686610f26565b7fddf252ad1be2c89b69c2b068fc378daa952ba7f163c4a11628f55a4df523b3ef838787604051610b2c9392919061179f565b60405180910390a160019350505050610b48565b600093505050505b92915050565b6000803090508073ffffffffffffffffffffffffffffffffffffffff168373ffffffffffffffffffffffffffffffffffffffff1614158015610bbd5750600073ffffffffffffffffffffffffffffffffffffffff168373ffffffffffffffffffffffffffffffffffffffff1614155b15610bcc576001915050610bd2565b60009150505b919050565b6000819050610be7848483610f92565b81600960008673ffffffffffffffffffffffffffffffffffffffff1673ffffffffffffffffffffffffffffffffffffffff16815260200190815260200160002060008573ffffffffffffffffffffffffffffffffffffffff1673ffffffffffffffffffffffffffffffffffffffff1681526020019081526020016000206000016000828254610c769190611844565b9250508190555050505050565b6000819050610c938484836110af565b81600a60008673ffffffffffffffffffffffffffffffffffffffff1673ffffffffffffffffffffffffffffffffffffffff16815260200190815260200160002060008573ffffffffffffffffffffffffffffffffffffffff1673ffffffffffffffffffffffffffffffffffffffff1681526020019081526020016000206000016000828254610d229190611844565b9250508190555050505050565b610d398382610eb9565b610d438282610f26565b7fddf252ad1be2c89b69c2b068fc378daa952ba7f163c4a11628f55a4df523b3ef838383604051610d769392919061179f565b60405180910390a1505050565b6000819050610d91816111d5565b8160076000016000828254610da69190611844565b925050819055505050565b6000819050610dc083826111fc565b81600460008573ffffffffffffffffffffffffffffffffffffffff1673ffffffffffffffffffffffffffffffffffffffff1681526020019081526020016000206000016000828254610e129190611844565b92505081905550505050565b6000819050610e2c8161129e565b81600d6000016000828254610e419190611844565b925050819055505050565b6000819050610e5b83826112ce565b81600260008573ffffffffffffffffffffffffffffffffffffffff1673ffffffffffffffffffffffffffffffffffffffff1681526020019081526020016000206000016000828254610ead9190611844565b92505081905550505050565b6000819050610ec88382611379565b81600160008573ffffffffffffffffffffffffffffffffffffffff1673ffffffffffffffffffffffffffffffffffffffff1681526020019081526020016000206000016000828254610f1a9190611844565b92505081905550505050565b6000819050610f358382611424565b816000808573ffffffffffffffffffffffffffffffffffffffff1673ffffffffffffffffffffffffffffffffffffffff1681526020019081526020016000206000016000828254610f869190611844565b92505081905550505050565b60008190506000611022600b60008773ffffffffffffffffffffffffffffffffffffffff1673ffffffffffffffffffffffffffffffffffffffff16815260200190815260200160002060008673ffffffffffffffffffffffffffffffffffffffff1673ffffffffffffffffffffffffffffffffffffffff16815260200190815260200160002060000154836114c6565b905080600b60008773ffffffffffffffffffffffffffffffffffffffff1673ffffffffffffffffffffffffffffffffffffffff16815260200190815260200160002060008673ffffffffffffffffffffffffffffffffffffffff1673ffffffffffffffffffffffffffffffffffffffff168152602001908152602001600020600001819055505050505050565b6000816110bb906118a4565b90506000611148600b60008773ffffffffffffffffffffffffffffffffffffffff1673ffffffffffffffffffffffffffffffffffffffff16815260200190815260200160002060008673ffffffffffffffffffffffffffffffffffffffff1673ffffffffffffffffffffffffffffffffffffffff16815260200190815260200160002060000154836114c6565b905080600b60008773ffffffffffffffffffffffffffffffffffffffff1673ffffffffffffffffffffffffffffffffffffffff16815260200190815260200160002060008673ffffffffffffffffffffffffffffffffffffffff1673ffffffffffffffffffffffffffffffffffffffff168152602001908152602001600020600001819055505050505050565b600081905060006111eb600560000154836114c6565b905080600560000181905550505050565b6000819050600061124f600c60008673ffffffffffffffffffffffffffffffffffffffff1673ffffffffffffffffffffffffffffffffffffffff16815260200190815260200160002060000154836114c6565b905080600c60008673ffffffffffffffffffffffffffffffffffffffff1673ffffffffffffffffffffffffffffffffffffffff1681526020019081526020016000206000018190555050505050565b6000816112aa906118a4565b905060006112bd600560000154836114c6565b905080600560000181905550505050565b6000816112da906118a4565b9050600061132a600c60008673ffffffffffffffffffffffffffffffffffffffff1673ffffffffffffffffffffffffffffffffffffffff16815260200190815260200160002060000154836114c6565b905080600c60008673ffffffffffffffffffffffffffffffffffffffff1673ffffffffffffffffffffffffffffffffffffffff1681526020019081526020016000206000018190555050505050565b600081611385906118a4565b905060006113d5600c60008673ffffffffffffffffffffffffffffffffffffffff1673ffffffffffffffffffffffffffffffffffffffff16815260200190815260200160002060000154836114c6565b905080600c60008673ffffffffffffffffffffffffffffffffffffffff1673ffffffffffffffffffffffffffffffffffffffff1681526020019081526020016000206000018190555050505050565b60008190506000611477600c60008673ffffffffffffffffffffffffffffffffffffffff1673ffffffffffffffffffffffffffffffffffffffff16815260200190815260200160002060000154836114c6565b905080600c60008673ffffffffffffffffffffffffffffffffffffffff1673ffffffffffffffffffffffffffffffffffffffff1681526020019081526020016000206000018190555050505050565b600080839050600083826114da91906118ed565b9050600081905080935050505092915050565b600080fd5b600073ffffffffffffffffffffffffffffffffffffffff82169050919050565b600061151d826114f2565b9050919050565b61152d81611512565b811461153857600080fd5b50565b60008135905061154a81611524565b92915050565b6000819050919050565b61156381611550565b811461156e57600080fd5b50565b6000813590506115808161155a565b92915050565b6000806040838503121561159d5761159c6114ed565b5b60006115ab8582860161153b565b92505060206115bc85828601611571565b9150509250929050565b600080604083850312156115dd576115dc6114ed565b5b60006115eb8582860161153b565b92505060206115fc8582860161153b565b9150509250929050565b61160f81611550565b82525050565b600060208201905061162a6000830184611606565b92915050565b600080600060608486031215611649576116486114ed565b5b60006116578682870161153b565b93505060206116688682870161153b565b925050604061167986828701611571565b9150509250925092565b600060208284031215611699576116986114ed565b5b60006116a78482850161153b565b91505092915050565b600082825260208201905092915050565b7f52756c6520636f6e646974696f6e206661696c65640000000000000000000000600082015250565b60006116f76015836116b0565b9150611702826116c1565b602082019050919050565b60006020820190508181036000830152611726816116ea565b9050919050565b7f4e487b7100000000000000000000000000000000000000000000000000000000600052601160045260246000fd5b600061176782611550565b915061177283611550565b9250828210156117855761178461172d565b5b828203905092915050565b61179981611512565b82525050565b60006060820190506117b46000830186611790565b6117c16020830185611790565b6117ce6040830184611606565b949350505050565b60006080820190506117eb6000830187611790565b6117f86020830186611790565b6118056040830185611790565b6118126060830184611606565b95945050505050565b60006040820190506118306000830185611790565b61183d6020830184611606565b9392505050565b600061184f82611550565b915061185a83611550565b9250827fffffffffffffffffffffffffffffffffffffffffffffffffffffffffffffffff0382111561188f5761188e61172d565b5b828201905092915050565b6000819050919050565b60006118af8261189a565b91507f80000000000000000000000000000000000000000000000000000000000000008214156118e2576118e161172d565b5b816000039050919050565b60006118f88261189a565b91506119038361189a565b9250817f7fffffffffffffffffffffffffffffffffffffffffffffffffffffffffffffff0383136000831215161561193e5761193d61172d565b5b817f80000000000000000000000000000000000000000000000000000000000000000383126000831216156119765761197561172d565b5b82820190509291505056fea2646970667358221220caa05d9b90c73342ccdd1edb30894b3ce320c29b5de78271c81081b79ea786d364736f6c634300080c0033",
  "immutableReferences": {},
  "source": "contract Linktoken {\n  struct TotalInTuple {\n    uint n;\n    bool _valid;\n  }\n  struct TotalOutTuple {\n    uint n;\n    bool _valid;\n  }\n  struct OwnerTuple {\n    address p;\n    bool _valid;\n  }\n  struct TotalMintTuple {\n    uint n;\n    bool _valid;\n  }\n  struct TotalSupplyTuple {\n    uint n;\n    bool _valid;\n  }\n  struct AllMintTuple {\n    uint n;\n    bool _valid;\n  }\n  struct AllowanceTotalTuple {\n    uint m;\n    bool _valid;\n  }\n  struct SpentTotalTuple {\n    uint m;\n    bool _valid;\n  }\n  struct TotalBurnTuple {\n    uint n;\n    bool _valid;\n  }\n  struct BalanceOfTuple {\n    uint n;\n    bool _valid;\n  }\n  struct AllBurnTuple {\n    uint n;\n    bool _valid;\n  }\n  struct AllowanceTuple {\n    uint n;\n    bool _valid;\n  }\n  mapping(address=>TotalInTuple) totalIn;\n  mapping(address=>TotalOutTuple) totalOut;\n  mapping(address=>TotalBurnTuple) totalBurn;\n  OwnerTuple owner;\n  mapping(address=>TotalMintTuple) totalMint;\n  TotalSupplyTuple totalSupply;\n  AllMintTuple allMint;\n  mapping(address=>mapping(address=>AllowanceTotalTuple)) allowanceTotal;\n  mapping(address=>mapping(address=>SpentTotalTuple)) spentTotal;\n  mapping(address=>mapping(address=>AllowanceTuple)) allowance;\n  mapping(address=>BalanceOfTuple) balanceOf;\n  AllBurnTuple allBurn;\n  event TransferFrom(address from,address to,address spender,uint amount);\n  event Burn(address p,uint amount);\n  event Mint(address p,uint amount);\n  event IncreaseAllowance(address p,address s,uint n);\n  event Transfer(address from,address to,uint amount);\n  constructor(uint n) public {\n    updateOwnerOnInsertConstructor_r9();\n    updateTotalSupplyOnInsertConstructor_r17(n);\n    updateTotalBalancesOnInsertConstructor_r22(n);\n    updateBalanceOfOnInsertConstructor_r8(n);\n  }\n  function approve(address s,uint n) public    {\n      bool r21 = updateIncreaseAllowanceOnInsertRecv_approve_r21(s,n);\n      if(r21==false) {\n        revert(\"Rule condition failed\");\n      }\n  }\n  function getAllowance(address p,address s) public view  returns (uint) {\n      AllowanceTuple memory allowanceTuple = allowance[p][s];\n      uint n = allowanceTuple.n;\n      return n;\n  }\n  function getTotalSupply() public view  returns (uint) {\n      uint n = totalSupply.n;\n      return n;\n  }\n  function mint(address p,uint amount) public    {\n      bool r19 = updateMintOnInsertRecv_mint_r19(p,amount);\n      if(r19==false) {\n        revert(\"Rule condition failed\");\n      }\n  }\n  function transferFrom(address from,address to,uint amount) public    {\n      bool r0 = updateTransferFromOnInsertRecv_transferFrom_r0(from,to,amount);\n      if(r0==false) {\n        revert(\"Rule condition failed\");\n      }\n  }\n  function transfer(address to,uint amount) public    {\n      bool r5 = updateTransferOnInsertRecv_transfer_r5(to,amount);\n      if(r5==false) {\n        revert(\"Rule condition failed\");\n      }\n  }\n  function getBalanceOf(address p) public view  returns (uint) {\n      BalanceOfTuple memory balanceOfTuple = balanceOf[p];\n      uint n = balanceOfTuple.n;\n      return n;\n  }\n  function burn(address p,uint amount) public    {\n      bool r6 = updateBurnOnInsertRecv_burn_r6(p,amount);\n      if(r6==false) {\n        revert(\"Rule condition failed\");\n      }\n  }\n  function updateAllBurnOnInsertBurn_r20(uint n) private    {\n      int delta0 = int(n);\n      updateTotalSupplyOnIncrementAllBurn_r13(delta0);\n      allBurn.n += n;\n  }\n  function updateOwnerOnInsertConstructor_r9() private    {\n      address s = msg.sender;\n      owner = OwnerTuple(s,true);\n  }\n  function updateSpentTotalOnInsertTransferFrom_r16(address o,address s,uint n) private    {\n      int delta0 = int(n);\n      updateAllowanceOnIncrementSpentTotal_r18(o,s,delta0);\n      spentTotal[o][s].m += n;\n  }\n  function updateBalanceOfOnIncrementTotalOut_r7(address p,int o) private    {\n      int _delta = int(-o);\n      uint newValue = updateuintByint(balanceOf[p].n,_delta);\n      balanceOf[p].n = newValue;\n  }\n  function updateAllMintOnInsertMint_r2(uint n) private    {\n      int delta0 = int(n);\n      updateTotalSupplyOnIncrementAllMint_r13(delta0);\n      allMint.n += n;\n  }\n  function updateTotalBalancesOnInsertConstructor_r22(uint n) private    {\n      // Empty()\n  }\n  function updateTotalSupplyOnInsertConstructor_r17(uint n) private    {\n      totalSupply = TotalSupplyTuple(n,true);\n  }\n  function updateTotalSupplyOnIncrementAllBurn_r13(int b) private    {\n      int _delta = int(-b);\n      uint newValue = updateuintByint(totalSupply.n,_delta);\n      totalSupply.n = newValue;\n  }\n  function updateBalanceOfOnIncrementTotalBurn_r7(address p,int m) private    {\n      int _delta = int(-m);\n      uint newValue = updateuintByint(balanceOf[p].n,_delta);\n      balanceOf[p].n = newValue;\n  }\n  function updateBurnOnInsertRecv_burn_r6(address p,uint n) private   returns (bool) {\n      address s = owner.p;\n      if(s==msg.sender) {\n        BalanceOfTuple memory balanceOfTuple = balanceOf[p];\n        uint m = balanceOfTuple.n;\n        if(p!=address(0) && n<=m) {\n          updateAllBurnOnInsertBurn_r20(n);\n          updateTotalBurnOnInsertBurn_r11(p,n);\n          emit Burn(p,n);\n          return true;\n        }\n      }\n      return false;\n  }\n  function updateAllowanceOnIncrementAllowanceTotal_r18(address o,address s,int m) private    {\n      int _delta = int(m);\n      uint newValue = updateuintByint(allowance[o][s].n,_delta);\n      allowance[o][s].n = newValue;\n  }\n  function updateMintOnInsertRecv_mint_r19(address p,uint n) private   returns (bool) {\n      address s = owner.p;\n      if(s==msg.sender) {\n        if(p!=address(0)) {\n          updateAllMintOnInsertMint_r2(n);\n          updateTotalMintOnInsertMint_r12(p,n);\n          emit Mint(p,n);\n          return true;\n        }\n      }\n      return false;\n  }\n  function updateTotalOutOnInsertTransfer_r14(address p,uint n) private    {\n      int delta0 = int(n);\n      updateBalanceOfOnIncrementTotalOut_r7(p,delta0);\n      totalOut[p].n += n;\n  }\n  function updateTotalMintOnInsertMint_r12(address p,uint n) private    {\n      int delta0 = int(n);\n      updateBalanceOfOnIncrementTotalMint_r7(p,delta0);\n      totalMint[p].n += n;\n  }\n  function updateBalanceOfOnInsertConstructor_r8(uint n) private    {\n      address p = msg.sender;\n      balanceOf[p] = BalanceOfTuple(n,true);\n  }\n  function updateIncreaseAllowanceOnInsertRecv_approve_r21(address s,uint n) private   returns (bool) {\n      address o = msg.sender;\n      AllowanceTuple memory allowanceTuple = allowance[o][s];\n      uint m = allowanceTuple.n;\n      if(validRecipient(s)) {\n        uint d = n-m;\n        updateAllowanceTotalOnInsertIncreaseAllowance_r23(o,s,d);\n        emit IncreaseAllowance(o,s,d);\n        return true;\n      }\n      return false;\n  }\n  function updateTotalBurnOnInsertBurn_r11(address p,uint n) private    {\n      int delta0 = int(n);\n      updateBalanceOfOnIncrementTotalBurn_r7(p,delta0);\n      totalBurn[p].n += n;\n  }\n  function updateTransferFromOnInsertRecv_transferFrom_r0(address o,address r,uint n) private   returns (bool) {\n      address s = msg.sender;\n      BalanceOfTuple memory balanceOfTuple = balanceOf[o];\n      uint m = balanceOfTuple.n;\n      AllowanceTuple memory allowanceTuple = allowance[o][s];\n      uint k = allowanceTuple.n;\n      if(m>=n && k>=n && validRecipient(r)) {\n        updateSpentTotalOnInsertTransferFrom_r16(o,s,n);\n        updateTransferOnInsertTransferFrom_r1(o,r,n);\n        emit TransferFrom(o,r,s,n);\n        return true;\n      }\n      return false;\n  }\n  function validRecipient(address p) private view  returns (bool) {\n      address t = address(this);\n      if(p!=t && p!=address(0)) {\n        return true;\n      }\n      return false;\n  }\n  function updateAllowanceTotalOnInsertIncreaseAllowance_r23(address o,address s,uint n) private    {\n      int delta0 = int(n);\n      updateAllowanceOnIncrementAllowanceTotal_r18(o,s,delta0);\n      allowanceTotal[o][s].m += n;\n  }\n  function updateTransferOnInsertTransferFrom_r1(address o,address r,uint n) private    {\n      updateTotalOutOnInsertTransfer_r14(o,n);\n      updateTotalInOnInsertTransfer_r10(r,n);\n      emit Transfer(o,r,n);\n  }\n  function updateuintByint(uint x,int delta) private   returns (uint) {\n      int convertedX = int(x);\n      int value = convertedX+delta;\n      uint convertedValue = uint(value);\n      return convertedValue;\n  }\n  function updateTotalInOnInsertTransfer_r10(address p,uint n) private    {\n      int delta0 = int(n);\n      updateBalanceOfOnIncrementTotalIn_r7(p,delta0);\n      totalIn[p].n += n;\n  }\n  function updateTotalSupplyOnIncrementAllMint_r13(int m) private    {\n      int _delta = int(m);\n      uint newValue = updateuintByint(totalSupply.n,_delta);\n      totalSupply.n = newValue;\n  }\n  function updateAllowanceOnIncrementSpentTotal_r18(address o,address s,int l) private    {\n      int _delta = int(-l);\n      uint newValue = updateuintByint(allowance[o][s].n,_delta);\n      allowance[o][s].n = newValue;\n  }\n  function updateTransferOnInsertRecv_transfer_r5(address r,uint n) private   returns (bool) {\n      address s = msg.sender;\n      BalanceOfTuple memory balanceOfTuple = balanceOf[s];\n      uint m = balanceOfTuple.n;\n      if(n<=m && validRecipient(r)) {\n        updateTotalOutOnInsertTransfer_r14(s,n);\n        updateTotalInOnInsertTransfer_r10(r,n);\n        emit Transfer(s,r,n);\n        return true;\n      }\n      return false;\n  }\n  function updateBalanceOfOnIncrementTotalIn_r7(address p,int i) private    {\n      int _delta = int(i);\n      uint newValue = updateuintByint(balanceOf[p].n,_delta);\n      balanceOf[p].n = newValue;\n  }\n  function updateBalanceOfOnIncrementTotalMint_r7(address p,int n) private    {\n      int _delta = int(n);\n      uint newValue = updateuintByint(balanceOf[p].n,_delta);\n      balanceOf[p].n = newValue;\n  }\n}",
  "sourcePath": "/Users/ljy/Desktop/PENN/2023_summer/boon_dsc/smart-contracts/optimizations/full/contracts/linktoken.sol",
  "compiler": {
    "name": "solc",
    "version": "0.8.12+commit.f00d7308.Emscripten.clang"
  },
  "schemaVersion": "3.4.13",
  "updatedAt": "2023-07-06T19:12:01.915Z",
  "devdoc": {
    "kind": "dev",
    "methods": {},
    "version": 1
  },
  "userdoc": {
    "kind": "user",
    "methods": {},
    "version": 1
  }
}