{
  "contractName": "Linktoken",
  "abi": [
    {
      "inputs": [
        {
          "internalType": "uint256",
          "name": "n",
          "type": "uint256"
        }
      ],
      "stateMutability": "nonpayable",
      "type": "constructor"
    },
    {
      "anonymous": false,
      "inputs": [
        {
          "indexed": false,
          "internalType": "address",
          "name": "p",
          "type": "address"
        },
        {
          "indexed": false,
          "internalType": "uint256",
          "name": "amount",
          "type": "uint256"
        }
      ],
      "name": "Burn",
      "type": "event"
    },
    {
      "anonymous": false,
      "inputs": [
        {
          "indexed": false,
          "internalType": "address",
          "name": "p",
          "type": "address"
        },
        {
          "indexed": false,
          "internalType": "address",
          "name": "s",
          "type": "address"
        },
        {
          "indexed": false,
          "internalType": "uint256",
          "name": "n",
          "type": "uint256"
        }
      ],
      "name": "DecreaseAllowance",
      "type": "event"
    },
    {
      "anonymous": false,
      "inputs": [
        {
          "indexed": false,
          "internalType": "address",
          "name": "p",
          "type": "address"
        },
        {
          "indexed": false,
          "internalType": "address",
          "name": "s",
          "type": "address"
        },
        {
          "indexed": false,
          "internalType": "uint256",
          "name": "n",
          "type": "uint256"
        }
      ],
      "name": "IncreaseAllowance",
      "type": "event"
    },
    {
      "anonymous": false,
      "inputs": [
        {
          "indexed": false,
          "internalType": "address",
          "name": "p",
          "type": "address"
        },
        {
          "indexed": false,
          "internalType": "uint256",
          "name": "amount",
          "type": "uint256"
        }
      ],
      "name": "Mint",
      "type": "event"
    },
    {
      "anonymous": false,
      "inputs": [
        {
          "indexed": false,
          "internalType": "address",
          "name": "from",
          "type": "address"
        },
        {
          "indexed": false,
          "internalType": "address",
          "name": "to",
          "type": "address"
        },
        {
          "indexed": false,
          "internalType": "uint256",
          "name": "amount",
          "type": "uint256"
        }
      ],
      "name": "Transfer",
      "type": "event"
    },
    {
      "anonymous": false,
      "inputs": [
        {
          "indexed": false,
          "internalType": "address",
          "name": "from",
          "type": "address"
        },
        {
          "indexed": false,
          "internalType": "address",
          "name": "to",
          "type": "address"
        },
        {
          "indexed": false,
          "internalType": "address",
          "name": "spender",
          "type": "address"
        },
        {
          "indexed": false,
          "internalType": "uint256",
          "name": "amount",
          "type": "uint256"
        }
      ],
      "name": "TransferFrom",
      "type": "event"
    },
    {
      "inputs": [
        {
          "internalType": "address",
          "name": "p",
          "type": "address"
        },
        {
          "internalType": "uint256",
          "name": "amount",
          "type": "uint256"
        }
      ],
      "name": "burn",
      "outputs": [],
      "stateMutability": "nonpayable",
      "type": "function"
    },
    {
      "inputs": [
        {
          "internalType": "address",
          "name": "s",
          "type": "address"
        },
        {
          "internalType": "uint256",
          "name": "n",
          "type": "uint256"
        }
      ],
      "name": "approve",
      "outputs": [],
      "stateMutability": "nonpayable",
      "type": "function"
    },
    {
      "inputs": [
        {
          "internalType": "address",
          "name": "p",
          "type": "address"
        },
        {
          "internalType": "uint256",
          "name": "amount",
          "type": "uint256"
        }
      ],
      "name": "mint",
      "outputs": [],
      "stateMutability": "nonpayable",
      "type": "function"
    },
    {
      "inputs": [],
      "name": "getTotalSupply",
      "outputs": [
        {
          "internalType": "uint256",
          "name": "",
          "type": "uint256"
        }
      ],
      "stateMutability": "view",
      "type": "function"
    },
    {
      "inputs": [
        {
          "internalType": "address",
          "name": "p",
          "type": "address"
        },
        {
          "internalType": "uint256",
          "name": "n",
          "type": "uint256"
        }
      ],
      "name": "increaseApproval",
      "outputs": [],
      "stateMutability": "nonpayable",
      "type": "function"
    },
    {
      "inputs": [
        {
          "internalType": "address",
          "name": "from",
          "type": "address"
        },
        {
          "internalType": "address",
          "name": "to",
          "type": "address"
        },
        {
          "internalType": "uint256",
          "name": "amount",
          "type": "uint256"
        }
      ],
      "name": "transferFrom",
      "outputs": [],
      "stateMutability": "nonpayable",
      "type": "function"
    },
    {
      "inputs": [
        {
          "internalType": "address",
          "name": "p",
          "type": "address"
        }
      ],
      "name": "getBalanceOf",
      "outputs": [
        {
          "internalType": "uint256",
          "name": "",
          "type": "uint256"
        }
      ],
      "stateMutability": "view",
      "type": "function"
    },
    {
      "inputs": [
        {
          "internalType": "address",
          "name": "to",
          "type": "address"
        },
        {
          "internalType": "uint256",
          "name": "amount",
          "type": "uint256"
        }
      ],
      "name": "transfer",
      "outputs": [],
      "stateMutability": "nonpayable",
      "type": "function"
    },
    {
      "inputs": [
        {
          "internalType": "address",
          "name": "p",
          "type": "address"
        },
        {
          "internalType": "uint256",
          "name": "n",
          "type": "uint256"
        }
      ],
      "name": "decreaseApproval",
      "outputs": [],
      "stateMutability": "nonpayable",
      "type": "function"
    },
    {
      "inputs": [
        {
          "internalType": "address",
          "name": "p",
          "type": "address"
        },
        {
          "internalType": "address",
          "name": "s",
          "type": "address"
        }
      ],
      "name": "getAllowance",
      "outputs": [
        {
          "internalType": "uint256",
          "name": "",
          "type": "uint256"
        }
      ],
      "stateMutability": "view",
      "type": "function"
    }
  ],
  "bytecode": "0x60806040523480156200001157600080fd5b506040516200542438038062005424833981810160405281019062000037919062000e95565b6200004881620000a360201b60201c565b62000059816200013060201b60201c565b620000696200017a60201b60201c565b6200007a816200021c60201b60201c565b6200008b816200021f60201b60201c565b6200009c81620002bd60201b60201c565b5062000f8e565b6000339050604051806040016040528083815260200160011515815250600d60008373ffffffffffffffffffffffffffffffffffffffff1673ffffffffffffffffffffffffffffffffffffffff1681526020019081526020016000206000820151816000015560208201518160010160006101000a81548160ff0219169083151502179055509050505050565b60405180604001604052808281526020016001151581525060066000820151816000015560208201518160010160006101000a81548160ff02191690831515021790555090505050565b600033905060405180604001604052808273ffffffffffffffffffffffffffffffffffffffff16815260200160011515815250600360008201518160000160006101000a81548173ffffffffffffffffffffffffffffffffffffffff021916908373ffffffffffffffffffffffffffffffffffffffff16021790555060208201518160000160146101000a81548160ff02191690831515021790555090505050565b50565b60003390506200023681836200035c60201b60201c565b6040518060400160405280838152602001600115158152506000808373ffffffffffffffffffffffffffffffffffffffff1673ffffffffffffffffffffffffffffffffffffffff1681526020019081526020016000206000820151816000015560208201518160010160006101000a81548160ff0219169083151502179055509050505050565b6000339050620002d481836200062760201b60201c565b604051806040016040528083815260200160011515815250600560008373ffffffffffffffffffffffffffffffffffffffff1673ffffffffffffffffffffffffffffffffffffffff1681526020019081526020016000206000820151816000015560208201518160010160006101000a81548160ff0219169083151502179055509050505050565b60008060008473ffffffffffffffffffffffffffffffffffffffff1673ffffffffffffffffffffffffffffffffffffffff168152602001908152602001600020604051806040016040529081600082015481526020016001820160009054906101000a900460ff161515151581525050905060011515816020015115151415620003f757620003f6838260000151620008f260201b60201c565b5b6000600160008573ffffffffffffffffffffffffffffffffffffffff1673ffffffffffffffffffffffffffffffffffffffff168152602001908152602001600020604051806040016040529081600082015481526020016001820160009054906101000a900460ff16151515158152505090506000816000015190506000600260008773ffffffffffffffffffffffffffffffffffffffff1673ffffffffffffffffffffffffffffffffffffffff168152602001908152602001600020604051806040016040529081600082015481526020016001820160009054906101000a900460ff16151515158152505090506000816000015190506000600560008973ffffffffffffffffffffffffffffffffffffffff1673ffffffffffffffffffffffffffffffffffffffff168152602001908152602001600020604051806040016040529081600082015481526020016001820160009054906101000a900460ff1615151515815250509050600081600001519050600085848a846200057d919062000ef6565b62000589919062000f53565b62000595919062000f53565b9050604051806040016040528082815260200160011515815250600d60008c73ffffffffffffffffffffffffffffffffffffffff1673ffffffffffffffffffffffffffffffffffffffff1681526020019081526020016000206000820151816000015560208201518160010160006101000a81548160ff02191690831515021790555090505050505050505050505050565b6000600560008473ffffffffffffffffffffffffffffffffffffffff1673ffffffffffffffffffffffffffffffffffffffff168152602001908152602001600020604051806040016040529081600082015481526020016001820160009054906101000a900460ff161515151581525050905060011515816020015115151415620006c357620006c283826000015162000ba460201b60201c565b5b60008060008573ffffffffffffffffffffffffffffffffffffffff1673ffffffffffffffffffffffffffffffffffffffff168152602001908152602001600020604051806040016040529081600082015481526020016001820160009054906101000a900460ff16151515158152505090506000816000015190506000600160008773ffffffffffffffffffffffffffffffffffffffff1673ffffffffffffffffffffffffffffffffffffffff168152602001908152602001600020604051806040016040529081600082015481526020016001820160009054906101000a900460ff16151515158152505090506000816000015190506000600260008973ffffffffffffffffffffffffffffffffffffffff1673ffffffffffffffffffffffffffffffffffffffff168152602001908152602001600020604051806040016040529081600082015481526020016001820160009054906101000a900460ff161515151581525050905060008160000151905060008382878b62000848919062000ef6565b62000854919062000f53565b62000860919062000f53565b9050604051806040016040528082815260200160011515815250600d60008c73ffffffffffffffffffffffffffffffffffffffff1673ffffffffffffffffffffffffffffffffffffffff1681526020019081526020016000206000820151816000015560208201518160010160006101000a81548160ff02191690831515021790555090505050505050505050505050565b6000600160008473ffffffffffffffffffffffffffffffffffffffff1673ffffffffffffffffffffffffffffffffffffffff168152602001908152602001600020604051806040016040529081600082015481526020016001820160009054906101000a900460ff16151515158152505090506000816000015190506000600260008673ffffffffffffffffffffffffffffffffffffffff1673ffffffffffffffffffffffffffffffffffffffff168152602001908152602001600020604051806040016040529081600082015481526020016001820160009054906101000a900460ff16151515158152505090506000816000015190506000600560008873ffffffffffffffffffffffffffffffffffffffff1673ffffffffffffffffffffffffffffffffffffffff168152602001908152602001600020604051806040016040529081600082015481526020016001820160009054906101000a900460ff161515151581525050905060008160000151905060008584898462000a78919062000ef6565b62000a84919062000f53565b62000a90919062000f53565b90506000600d60008b73ffffffffffffffffffffffffffffffffffffffff1673ffffffffffffffffffffffffffffffffffffffff168152602001908152602001600020604051806040016040529081600082015481526020016001820160009054906101000a900460ff1615151515815250509050806000015182141562000b985760405180604001604052806000815260200160001515815250600d60008c73ffffffffffffffffffffffffffffffffffffffff1673ffffffffffffffffffffffffffffffffffffffff1681526020019081526020016000206000820151816000015560208201518160010160006101000a81548160ff0219169083151502179055509050505b50505050505050505050565b60008060008473ffffffffffffffffffffffffffffffffffffffff1673ffffffffffffffffffffffffffffffffffffffff168152602001908152602001600020604051806040016040529081600082015481526020016001820160009054906101000a900460ff16151515158152505090506000816000015190506000600160008673ffffffffffffffffffffffffffffffffffffffff1673ffffffffffffffffffffffffffffffffffffffff168152602001908152602001600020604051806040016040529081600082015481526020016001820160009054906101000a900460ff16151515158152505090506000816000015190506000600260008873ffffffffffffffffffffffffffffffffffffffff1673ffffffffffffffffffffffffffffffffffffffff168152602001908152602001600020604051806040016040529081600082015481526020016001820160009054906101000a900460ff161515151581525050905060008160000151905060008382878a62000d29919062000ef6565b62000d35919062000f53565b62000d41919062000f53565b90506000600d60008b73ffffffffffffffffffffffffffffffffffffffff1673ffffffffffffffffffffffffffffffffffffffff168152602001908152602001600020604051806040016040529081600082015481526020016001820160009054906101000a900460ff1615151515815250509050806000015182141562000e495760405180604001604052806000815260200160001515815250600d60008c73ffffffffffffffffffffffffffffffffffffffff1673ffffffffffffffffffffffffffffffffffffffff1681526020019081526020016000206000820151816000015560208201518160010160006101000a81548160ff0219169083151502179055509050505b50505050505050505050565b600080fd5b6000819050919050565b62000e6f8162000e5a565b811462000e7b57600080fd5b50565b60008151905062000e8f8162000e64565b92915050565b60006020828403121562000eae5762000ead62000e55565b5b600062000ebe8482850162000e7e565b91505092915050565b7f4e487b7100000000000000000000000000000000000000000000000000000000600052601160045260246000fd5b600062000f038262000e5a565b915062000f108362000e5a565b9250827fffffffffffffffffffffffffffffffffffffffffffffffffffffffffffffffff0382111562000f485762000f4762000ec7565b5b828201905092915050565b600062000f608262000e5a565b915062000f6d8362000e5a565b92508282101562000f835762000f8262000ec7565b5b828203905092915050565b6144868062000f9e6000396000f3fe608060405234801561001057600080fd5b506004361061009e5760003560e01c80639b96eece116100665780639b96eece146101435780639dc29fac14610173578063a9059cbb1461018f578063c4e41b22146101ab578063d73dd623146101c95761009e565b8063095ea7b3146100a35780630af4187d146100bf57806323b872dd146100ef57806340c10f191461010b5780636618846314610127575b600080fd5b6100bd60048036038101906100b8919061409e565b6101e5565b005b6100d960048036038101906100d491906140de565b610240565b6040516100e6919061412d565b60405180910390f35b61010960048036038101906101049190614148565b610305565b005b6101256004803603810190610120919061409e565b610362565b005b610141600480360381019061013c919061409e565b6103bd565b005b61015d6004803603810190610158919061419b565b610418565b60405161016a919061412d565b60405180910390f35b61018d6004803603810190610188919061409e565b61049f565b005b6101a960048036038101906101a4919061409e565b6104fa565b005b6101b3610555565b6040516101c0919061412d565b60405180910390f35b6101e360048036038101906101de919061409e565b610567565b005b60006101f183836105c2565b905060001515811515141561023b576040517f08c379a000000000000000000000000000000000000000000000000000000000815260040161023290614225565b60405180910390fd5b505050565b600080600c60008573ffffffffffffffffffffffffffffffffffffffff1673ffffffffffffffffffffffffffffffffffffffff16815260200190815260200160002060008473ffffffffffffffffffffffffffffffffffffffff1673ffffffffffffffffffffffffffffffffffffffff168152602001908152602001600020604051806040016040529081600082015481526020016001820160009054906101000a900460ff1615151515815250509050600081600001519050809250505092915050565b6000610312848484610700565b905060001515811515141561035c576040517f08c379a000000000000000000000000000000000000000000000000000000000815260040161035390614225565b60405180910390fd5b50505050565b600061036e83836108d3565b90506000151581151514156103b8576040517f08c379a00000000000000000000000000000000000000000000000000000000081526004016103af90614225565b60405180910390fd5b505050565b60006103c983836109c9565b9050600015158115151415610413576040517f08c379a000000000000000000000000000000000000000000000000000000000815260040161040a90614225565b60405180910390fd5b505050565b600080600d60008473ffffffffffffffffffffffffffffffffffffffff1673ffffffffffffffffffffffffffffffffffffffff168152602001908152602001600020604051806040016040529081600082015481526020016001820160009054906101000a900460ff16151515158152505090506000816000015190508092505050919050565b60006104ab8383610b02565b90506000151581151514156104f5576040517f08c379a00000000000000000000000000000000000000000000000000000000081526004016104ec90614225565b60405180910390fd5b505050565b60006105068383610c86565b9050600015158115151415610550576040517f08c379a000000000000000000000000000000000000000000000000000000000815260040161054790614225565b60405180910390fd5b505050565b60008060066000015490508091505090565b60006105738383610d8b565b90506000151581151514156105bd576040517f08c379a00000000000000000000000000000000000000000000000000000000081526004016105b490614225565b60405180910390fd5b505050565b6000803390506000600c60008373ffffffffffffffffffffffffffffffffffffffff1673ffffffffffffffffffffffffffffffffffffffff16815260200190815260200160002060008673ffffffffffffffffffffffffffffffffffffffff1673ffffffffffffffffffffffffffffffffffffffff168152602001908152602001600020604051806040016040529081600082015481526020016001820160009054906101000a900460ff161515151581525050905060008160000151905061068a86610dfb565b156106f2576000818661069d9190614274565b90506106aa848883610e84565b7f01722f0e92ffd761d4a842cffdd36fe3adb6091e41732a4e714250176b7d8d228488836040516106dd939291906142b7565b60405180910390a160019450505050506106fa565b600093505050505b92915050565b6000803390506000600d60008773ffffffffffffffffffffffffffffffffffffffff1673ffffffffffffffffffffffffffffffffffffffff168152602001908152602001600020604051806040016040529081600082015481526020016001820160009054906101000a900460ff16151515158152505090506000816000015190506000600c60008973ffffffffffffffffffffffffffffffffffffffff1673ffffffffffffffffffffffffffffffffffffffff16815260200190815260200160002060008573ffffffffffffffffffffffffffffffffffffffff1673ffffffffffffffffffffffffffffffffffffffff168152602001908152602001600020604051806040016040529081600082015481526020016001820160009054906101000a900460ff161515151581525050905060008160000151905086831015801561084b5750868110155b801561085c575061085b88610dfb565b5b156108c25761086c898989610f30565b610877898689610f84565b7f5f7542858008eeb041631f30e6109ae94b83a58e9a58261dd2c42c508850f9398989878a6040516108ac94939291906142ee565b60405180910390a16001955050505050506108cc565b6000955050505050505b9392505050565b600080600360000160009054906101000a900473ffffffffffffffffffffffffffffffffffffffff1690503373ffffffffffffffffffffffffffffffffffffffff168173ffffffffffffffffffffffffffffffffffffffff1614156109bd57600073ffffffffffffffffffffffffffffffffffffffff168473ffffffffffffffffffffffffffffffffffffffff16146109bc5761096f83611030565b610979848461105e565b7f0f6798a560793a54c3bcfe86a93cde1e73087d944c0ea20544137d412139688584846040516109aa929190614333565b60405180910390a160019150506109c3565b5b60009150505b92915050565b6000803390506000600c60008373ffffffffffffffffffffffffffffffffffffffff1673ffffffffffffffffffffffffffffffffffffffff16815260200190815260200160002060008673ffffffffffffffffffffffffffffffffffffffff1673ffffffffffffffffffffffffffffffffffffffff168152602001908152602001600020604051806040016040529081600082015481526020016001820160009054906101000a900460ff1615151515815250509050600081600001519050848110158015610a9d5750610a9c86610dfb565b5b15610af457610aad8387876110cb565b7f3fda289a93fbd447987ffc8940a1af71a1fad600cc184d06b56d4aa271393522838787604051610ae0939291906142b7565b60405180910390a160019350505050610afc565b600093505050505b92915050565b600080600360000160009054906101000a900473ffffffffffffffffffffffffffffffffffffffff1690503373ffffffffffffffffffffffffffffffffffffffff168173ffffffffffffffffffffffffffffffffffffffff161415610c7a576000600d60008673ffffffffffffffffffffffffffffffffffffffff1673ffffffffffffffffffffffffffffffffffffffff168152602001908152602001600020604051806040016040529081600082015481526020016001820160009054906101000a900460ff1615151515815250509050600081600001519050600073ffffffffffffffffffffffffffffffffffffffff168673ffffffffffffffffffffffffffffffffffffffff1614158015610c1a5750808511155b15610c7757610c298686611177565b610c32856111e4565b7fcc16f5dbb4873280815c1ee09dbd06736cffcc184412cf7a71a0fdb75d397ca58686604051610c63929190614333565b60405180910390a160019350505050610c80565b50505b60009150505b92915050565b6000803390506000600d60008373ffffffffffffffffffffffffffffffffffffffff1673ffffffffffffffffffffffffffffffffffffffff168152602001908152602001600020604051806040016040529081600082015481526020016001820160009054906101000a900460ff1615151515815250509050600081600001519050808511158015610d1d5750610d1c86610dfb565b5b15610d7d57610d2c8386611212565b610d36868661127f565b7fddf252ad1be2c89b69c2b068fc378daa952ba7f163c4a11628f55a4df523b3ef838787604051610d69939291906142b7565b60405180910390a160019350505050610d85565b600093505050505b92915050565b600080339050610d9a84610dfb565b15610def57610daa818585610e84565b7f01722f0e92ffd761d4a842cffdd36fe3adb6091e41732a4e714250176b7d8d22818585604051610ddd939291906142b7565b60405180910390a16001915050610df5565b60009150505b92915050565b6000803090508073ffffffffffffffffffffffffffffffffffffffff168373ffffffffffffffffffffffffffffffffffffffff1614158015610e6a5750600073ffffffffffffffffffffffffffffffffffffffff168373ffffffffffffffffffffffffffffffffffffffff1614155b15610e79576001915050610e7f565b60009150505b919050565b6000819050610e948484836112eb565b81600a60008673ffffffffffffffffffffffffffffffffffffffff1673ffffffffffffffffffffffffffffffffffffffff16815260200190815260200160002060008573ffffffffffffffffffffffffffffffffffffffff1673ffffffffffffffffffffffffffffffffffffffff1681526020019081526020016000206000016000828254610f23919061435c565b9250508190555050505050565b610f3a8382611212565b610f44828261127f565b7fddf252ad1be2c89b69c2b068fc378daa952ba7f163c4a11628f55a4df523b3ef838383604051610f77939291906142b7565b60405180910390a1505050565b6000819050610f9484848361138f565b81600b60008673ffffffffffffffffffffffffffffffffffffffff1673ffffffffffffffffffffffffffffffffffffffff16815260200190815260200160002060008573ffffffffffffffffffffffffffffffffffffffff1673ffffffffffffffffffffffffffffffffffffffff1681526020019081526020016000206000016000828254611023919061435c565b9250508190555050505050565b600081905061103e81611433565b8160086000016000828254611053919061435c565b925050819055505050565b600081905061106d8382611459565b81600560008573ffffffffffffffffffffffffffffffffffffffff1673ffffffffffffffffffffffffffffffffffffffff16815260200190815260200160002060000160008282546110bf919061435c565b92505081905550505050565b60008190506110db8484836114be565b81600460008673ffffffffffffffffffffffffffffffffffffffff1673ffffffffffffffffffffffffffffffffffffffff16815260200190815260200160002060008573ffffffffffffffffffffffffffffffffffffffff1673ffffffffffffffffffffffffffffffffffffffff168152602001908152602001600020600001600082825461116a919061435c565b9250508190555050505050565b60008190506111868382611562565b81600260008573ffffffffffffffffffffffffffffffffffffffff1673ffffffffffffffffffffffffffffffffffffffff16815260200190815260200160002060000160008282546111d8919061435c565b92505081905550505050565b60008190506111f2816115c7565b81600e6000016000828254611207919061435c565b925050819055505050565b600081905061122183826115ed565b81600160008573ffffffffffffffffffffffffffffffffffffffff1673ffffffffffffffffffffffffffffffffffffffff1681526020019081526020016000206000016000828254611273919061435c565b92505081905550505050565b600081905061128e8382611652565b816000808573ffffffffffffffffffffffffffffffffffffffff1673ffffffffffffffffffffffffffffffffffffffff16815260200190815260200160002060000160008282546112df919061435c565b92505081905550505050565b6000819050600061137b600a60008773ffffffffffffffffffffffffffffffffffffffff1673ffffffffffffffffffffffffffffffffffffffff16815260200190815260200160002060008673ffffffffffffffffffffffffffffffffffffffff1673ffffffffffffffffffffffffffffffffffffffff16815260200190815260200160002060000154836116b6565b90506113888585836116dd565b5050505050565b6000819050600061141f600b60008773ffffffffffffffffffffffffffffffffffffffff1673ffffffffffffffffffffffffffffffffffffffff16815260200190815260200160002060008673ffffffffffffffffffffffffffffffffffffffff1673ffffffffffffffffffffffffffffffffffffffff16815260200190815260200160002060000154836116b6565b905061142c858583611a07565b5050505050565b60008190506000611449600860000154836116b6565b905061145481611d31565b505050565b600081905060006114ac600560008673ffffffffffffffffffffffffffffffffffffffff1673ffffffffffffffffffffffffffffffffffffffff16815260200190815260200160002060000154836116b6565b90506114b88482611d97565b50505050565b6000819050600061154e600460008773ffffffffffffffffffffffffffffffffffffffff1673ffffffffffffffffffffffffffffffffffffffff16815260200190815260200160002060008673ffffffffffffffffffffffffffffffffffffffff1673ffffffffffffffffffffffffffffffffffffffff16815260200190815260200160002060000154836116b6565b905061155b858583612053565b5050505050565b600081905060006115b5600260008673ffffffffffffffffffffffffffffffffffffffff1673ffffffffffffffffffffffffffffffffffffffff16815260200190815260200160002060000154836116b6565b90506115c1848261237d565b50505050565b600081905060006115dd600e60000154836116b6565b90506115e881612639565b505050565b60008190506000611640600160008673ffffffffffffffffffffffffffffffffffffffff1673ffffffffffffffffffffffffffffffffffffffff16815260200190815260200160002060000154836116b6565b905061164c848261269f565b50505050565b600081905060006116a46000808673ffffffffffffffffffffffffffffffffffffffff1673ffffffffffffffffffffffffffffffffffffffff16815260200190815260200160002060000154836116b6565b90506116b0848261295b565b50505050565b600080839050600083826116ca91906143bc565b9050600081905080935050505092915050565b6000600a60008573ffffffffffffffffffffffffffffffffffffffff1673ffffffffffffffffffffffffffffffffffffffff16815260200190815260200160002060008473ffffffffffffffffffffffffffffffffffffffff1673ffffffffffffffffffffffffffffffffffffffff168152602001908152602001600020604051806040016040529081600082015481526020016001820160009054906101000a900460ff1615151515815250509050600115158160200151151514156117ae576117ad84848360000151612c17565b5b6000600460008673ffffffffffffffffffffffffffffffffffffffff1673ffffffffffffffffffffffffffffffffffffffff16815260200190815260200160002060008573ffffffffffffffffffffffffffffffffffffffff1673ffffffffffffffffffffffffffffffffffffffff168152602001908152602001600020604051806040016040529081600082015481526020016001820160009054906101000a900460ff16151515158152505090506000816000015190506000600b60008873ffffffffffffffffffffffffffffffffffffffff1673ffffffffffffffffffffffffffffffffffffffff16815260200190815260200160002060008773ffffffffffffffffffffffffffffffffffffffff1673ffffffffffffffffffffffffffffffffffffffff168152602001908152602001600020604051806040016040529081600082015481526020016001820160009054906101000a900460ff1615151515815250509050600081600001519050600083828861192f9190614274565b6119399190614274565b9050604051806040016040528082815260200160011515815250600c60008b73ffffffffffffffffffffffffffffffffffffffff1673ffffffffffffffffffffffffffffffffffffffff16815260200190815260200160002060008a73ffffffffffffffffffffffffffffffffffffffff1673ffffffffffffffffffffffffffffffffffffffff1681526020019081526020016000206000820151816000015560208201518160010160006101000a81548160ff021916908315150217905550905050505050505050505050565b6000600b60008573ffffffffffffffffffffffffffffffffffffffff1673ffffffffffffffffffffffffffffffffffffffff16815260200190815260200160002060008473ffffffffffffffffffffffffffffffffffffffff1673ffffffffffffffffffffffffffffffffffffffff168152602001908152602001600020604051806040016040529081600082015481526020016001820160009054906101000a900460ff161515151581525050905060011515816020015115151415611ad857611ad784848360000151612f2e565b5b6000600460008673ffffffffffffffffffffffffffffffffffffffff1673ffffffffffffffffffffffffffffffffffffffff16815260200190815260200160002060008573ffffffffffffffffffffffffffffffffffffffff1673ffffffffffffffffffffffffffffffffffffffff168152602001908152602001600020604051806040016040529081600082015481526020016001820160009054906101000a900460ff16151515158152505090506000816000015190506000600a60008873ffffffffffffffffffffffffffffffffffffffff1673ffffffffffffffffffffffffffffffffffffffff16815260200190815260200160002060008773ffffffffffffffffffffffffffffffffffffffff1673ffffffffffffffffffffffffffffffffffffffff168152602001908152602001600020604051806040016040529081600082015481526020016001820160009054906101000a900460ff16151515158152505090506000816000015190506000838783611c599190614274565b611c639190614274565b9050604051806040016040528082815260200160011515815250600c60008b73ffffffffffffffffffffffffffffffffffffffff1673ffffffffffffffffffffffffffffffffffffffff16815260200190815260200160002060008a73ffffffffffffffffffffffffffffffffffffffff1673ffffffffffffffffffffffffffffffffffffffff1681526020019081526020016000206000820151816000015560208201518160010160006101000a81548160ff021916908315150217905550905050505050505050505050565b6000600e60000154905060008183611d499190614274565b905060405180604001604052808281526020016001151581525060066000820151816000015560208201518160010160006101000a81548160ff021916908315150217905550905050505050565b6000600560008473ffffffffffffffffffffffffffffffffffffffff1673ffffffffffffffffffffffffffffffffffffffff168152602001908152602001600020604051806040016040529081600082015481526020016001820160009054906101000a900460ff161515151581525050905060011515816020015115151415611e2a57611e29838260000151613245565b5b60008060008573ffffffffffffffffffffffffffffffffffffffff1673ffffffffffffffffffffffffffffffffffffffff168152602001908152602001600020604051806040016040529081600082015481526020016001820160009054906101000a900460ff16151515158152505090506000816000015190506000600160008773ffffffffffffffffffffffffffffffffffffffff1673ffffffffffffffffffffffffffffffffffffffff168152602001908152602001600020604051806040016040529081600082015481526020016001820160009054906101000a900460ff16151515158152505090506000816000015190506000600260008973ffffffffffffffffffffffffffffffffffffffff1673ffffffffffffffffffffffffffffffffffffffff168152602001908152602001600020604051806040016040529081600082015481526020016001820160009054906101000a900460ff161515151581525050905060008160000151905060008382878b611fad919061435c565b611fb79190614274565b611fc19190614274565b9050604051806040016040528082815260200160011515815250600d60008c73ffffffffffffffffffffffffffffffffffffffff1673ffffffffffffffffffffffffffffffffffffffff1681526020019081526020016000206000820151816000015560208201518160010160006101000a81548160ff02191690831515021790555090505050505050505050505050565b6000600460008573ffffffffffffffffffffffffffffffffffffffff1673ffffffffffffffffffffffffffffffffffffffff16815260200190815260200160002060008473ffffffffffffffffffffffffffffffffffffffff1673ffffffffffffffffffffffffffffffffffffffff168152602001908152602001600020604051806040016040529081600082015481526020016001820160009054906101000a900460ff16151515158152505090506001151581602001511515141561212457612123848483600001516134ef565b5b6000600b60008673ffffffffffffffffffffffffffffffffffffffff1673ffffffffffffffffffffffffffffffffffffffff16815260200190815260200160002060008573ffffffffffffffffffffffffffffffffffffffff1673ffffffffffffffffffffffffffffffffffffffff168152602001908152602001600020604051806040016040529081600082015481526020016001820160009054906101000a900460ff16151515158152505090506000816000015190506000600a60008873ffffffffffffffffffffffffffffffffffffffff1673ffffffffffffffffffffffffffffffffffffffff16815260200190815260200160002060008773ffffffffffffffffffffffffffffffffffffffff1673ffffffffffffffffffffffffffffffffffffffff168152602001908152602001600020604051806040016040529081600082015481526020016001820160009054906101000a900460ff161515151581525050905060008160000151905060008684836122a59190614274565b6122af9190614274565b9050604051806040016040528082815260200160011515815250600c60008b73ffffffffffffffffffffffffffffffffffffffff1673ffffffffffffffffffffffffffffffffffffffff16815260200190815260200160002060008a73ffffffffffffffffffffffffffffffffffffffff1673ffffffffffffffffffffffffffffffffffffffff1681526020019081526020016000206000820151816000015560208201518160010160006101000a81548160ff021916908315150217905550905050505050505050505050565b6000600260008473ffffffffffffffffffffffffffffffffffffffff1673ffffffffffffffffffffffffffffffffffffffff168152602001908152602001600020604051806040016040529081600082015481526020016001820160009054906101000a900460ff1615151515815250509050600115158160200151151514156124105761240f838260000151613806565b5b60008060008573ffffffffffffffffffffffffffffffffffffffff1673ffffffffffffffffffffffffffffffffffffffff168152602001908152602001600020604051806040016040529081600082015481526020016001820160009054906101000a900460ff16151515158152505090506000816000015190506000600160008773ffffffffffffffffffffffffffffffffffffffff1673ffffffffffffffffffffffffffffffffffffffff168152602001908152602001600020604051806040016040529081600082015481526020016001820160009054906101000a900460ff16151515158152505090506000816000015190506000600560008973ffffffffffffffffffffffffffffffffffffffff1673ffffffffffffffffffffffffffffffffffffffff168152602001908152602001600020604051806040016040529081600082015481526020016001820160009054906101000a900460ff1615151515815250509050600081600001519050600083898784612593919061435c565b61259d9190614274565b6125a79190614274565b9050604051806040016040528082815260200160011515815250600d60008c73ffffffffffffffffffffffffffffffffffffffff1673ffffffffffffffffffffffffffffffffffffffff1681526020019081526020016000206000820151816000015560208201518160010160006101000a81548160ff02191690831515021790555090505050505050505050505050565b60006008600001549050600082826126519190614274565b905060405180604001604052808281526020016001151581525060066000820151816000015560208201518160010160006101000a81548160ff021916908315150217905550905050505050565b6000600160008473ffffffffffffffffffffffffffffffffffffffff1673ffffffffffffffffffffffffffffffffffffffff168152602001908152602001600020604051806040016040529081600082015481526020016001820160009054906101000a900460ff16151515158152505090506001151581602001511515141561273257612731838260000151613ab0565b5b60008060008573ffffffffffffffffffffffffffffffffffffffff1673ffffffffffffffffffffffffffffffffffffffff168152602001908152602001600020604051806040016040529081600082015481526020016001820160009054906101000a900460ff16151515158152505090506000816000015190506000600260008773ffffffffffffffffffffffffffffffffffffffff1673ffffffffffffffffffffffffffffffffffffffff168152602001908152602001600020604051806040016040529081600082015481526020016001820160009054906101000a900460ff16151515158152505090506000816000015190506000600560008973ffffffffffffffffffffffffffffffffffffffff1673ffffffffffffffffffffffffffffffffffffffff168152602001908152602001600020604051806040016040529081600082015481526020016001820160009054906101000a900460ff16151515158152505090506000816000015190506000888487846128b5919061435c565b6128bf9190614274565b6128c99190614274565b9050604051806040016040528082815260200160011515815250600d60008c73ffffffffffffffffffffffffffffffffffffffff1673ffffffffffffffffffffffffffffffffffffffff1681526020019081526020016000206000820151816000015560208201518160010160006101000a81548160ff02191690831515021790555090505050505050505050505050565b60008060008473ffffffffffffffffffffffffffffffffffffffff1673ffffffffffffffffffffffffffffffffffffffff168152602001908152602001600020604051806040016040529081600082015481526020016001820160009054906101000a900460ff1615151515815250509050600115158160200151151514156129ed576129ec838260000151613d5a565b5b6000600160008573ffffffffffffffffffffffffffffffffffffffff1673ffffffffffffffffffffffffffffffffffffffff168152602001908152602001600020604051806040016040529081600082015481526020016001820160009054906101000a900460ff16151515158152505090506000816000015190506000600260008773ffffffffffffffffffffffffffffffffffffffff1673ffffffffffffffffffffffffffffffffffffffff168152602001908152602001600020604051806040016040529081600082015481526020016001820160009054906101000a900460ff16151515158152505090506000816000015190506000600560008973ffffffffffffffffffffffffffffffffffffffff1673ffffffffffffffffffffffffffffffffffffffff168152602001908152602001600020604051806040016040529081600082015481526020016001820160009054906101000a900460ff1615151515815250509050600081600001519050600085848a84612b71919061435c565b612b7b9190614274565b612b859190614274565b9050604051806040016040528082815260200160011515815250600d60008c73ffffffffffffffffffffffffffffffffffffffff1673ffffffffffffffffffffffffffffffffffffffff1681526020019081526020016000206000820151816000015560208201518160010160006101000a81548160ff02191690831515021790555090505050505050505050505050565b6000600460008573ffffffffffffffffffffffffffffffffffffffff1673ffffffffffffffffffffffffffffffffffffffff16815260200190815260200160002060008473ffffffffffffffffffffffffffffffffffffffff1673ffffffffffffffffffffffffffffffffffffffff168152602001908152602001600020604051806040016040529081600082015481526020016001820160009054906101000a900460ff16151515158152505090506000816000015190506000600b60008773ffffffffffffffffffffffffffffffffffffffff1673ffffffffffffffffffffffffffffffffffffffff16815260200190815260200160002060008673ffffffffffffffffffffffffffffffffffffffff1673ffffffffffffffffffffffffffffffffffffffff168152602001908152602001600020604051806040016040529081600082015481526020016001820160009054906101000a900460ff16151515158152505090506000816000015190506000838287612d989190614274565b612da29190614274565b90506000600c60008a73ffffffffffffffffffffffffffffffffffffffff1673ffffffffffffffffffffffffffffffffffffffff16815260200190815260200160002060008973ffffffffffffffffffffffffffffffffffffffff1673ffffffffffffffffffffffffffffffffffffffff168152602001908152602001600020604051806040016040529081600082015481526020016001820160009054906101000a900460ff16151515158152505090508060000151821415612f235760405180604001604052806000815260200160001515815250600c60008b73ffffffffffffffffffffffffffffffffffffffff1673ffffffffffffffffffffffffffffffffffffffff16815260200190815260200160002060008a73ffffffffffffffffffffffffffffffffffffffff1673ffffffffffffffffffffffffffffffffffffffff1681526020019081526020016000206000820151816000015560208201518160010160006101000a81548160ff0219169083151502179055509050505b505050505050505050565b6000600460008573ffffffffffffffffffffffffffffffffffffffff1673ffffffffffffffffffffffffffffffffffffffff16815260200190815260200160002060008473ffffffffffffffffffffffffffffffffffffffff1673ffffffffffffffffffffffffffffffffffffffff168152602001908152602001600020604051806040016040529081600082015481526020016001820160009054906101000a900460ff16151515158152505090506000816000015190506000600a60008773ffffffffffffffffffffffffffffffffffffffff1673ffffffffffffffffffffffffffffffffffffffff16815260200190815260200160002060008673ffffffffffffffffffffffffffffffffffffffff1673ffffffffffffffffffffffffffffffffffffffff168152602001908152602001600020604051806040016040529081600082015481526020016001820160009054906101000a900460ff161515151581525050905060008160000151905060008386836130af9190614274565b6130b99190614274565b90506000600c60008a73ffffffffffffffffffffffffffffffffffffffff1673ffffffffffffffffffffffffffffffffffffffff16815260200190815260200160002060008973ffffffffffffffffffffffffffffffffffffffff1673ffffffffffffffffffffffffffffffffffffffff168152602001908152602001600020604051806040016040529081600082015481526020016001820160009054906101000a900460ff1615151515815250509050806000015182141561323a5760405180604001604052806000815260200160001515815250600c60008b73ffffffffffffffffffffffffffffffffffffffff1673ffffffffffffffffffffffffffffffffffffffff16815260200190815260200160002060008a73ffffffffffffffffffffffffffffffffffffffff1673ffffffffffffffffffffffffffffffffffffffff1681526020019081526020016000206000820151816000015560208201518160010160006101000a81548160ff0219169083151502179055509050505b505050505050505050565b60008060008473ffffffffffffffffffffffffffffffffffffffff1673ffffffffffffffffffffffffffffffffffffffff168152602001908152602001600020604051806040016040529081600082015481526020016001820160009054906101000a900460ff16151515158152505090506000816000015190506000600160008673ffffffffffffffffffffffffffffffffffffffff1673ffffffffffffffffffffffffffffffffffffffff168152602001908152602001600020604051806040016040529081600082015481526020016001820160009054906101000a900460ff16151515158152505090506000816000015190506000600260008873ffffffffffffffffffffffffffffffffffffffff1673ffffffffffffffffffffffffffffffffffffffff168152602001908152602001600020604051806040016040529081600082015481526020016001820160009054906101000a900460ff161515151581525050905060008160000151905060008382878a6133c8919061435c565b6133d29190614274565b6133dc9190614274565b90506000600d60008b73ffffffffffffffffffffffffffffffffffffffff1673ffffffffffffffffffffffffffffffffffffffff168152602001908152602001600020604051806040016040529081600082015481526020016001820160009054906101000a900460ff161515151581525050905080600001518214156134e35760405180604001604052806000815260200160001515815250600d60008c73ffffffffffffffffffffffffffffffffffffffff1673ffffffffffffffffffffffffffffffffffffffff1681526020019081526020016000206000820151816000015560208201518160010160006101000a81548160ff0219169083151502179055509050505b50505050505050505050565b6000600b60008573ffffffffffffffffffffffffffffffffffffffff1673ffffffffffffffffffffffffffffffffffffffff16815260200190815260200160002060008473ffffffffffffffffffffffffffffffffffffffff1673ffffffffffffffffffffffffffffffffffffffff168152602001908152602001600020604051806040016040529081600082015481526020016001820160009054906101000a900460ff16151515158152505090506000816000015190506000600a60008773ffffffffffffffffffffffffffffffffffffffff1673ffffffffffffffffffffffffffffffffffffffff16815260200190815260200160002060008673ffffffffffffffffffffffffffffffffffffffff1673ffffffffffffffffffffffffffffffffffffffff168152602001908152602001600020604051806040016040529081600082015481526020016001820160009054906101000a900460ff161515151581525050905060008160000151905060008584836136709190614274565b61367a9190614274565b90506000600c60008a73ffffffffffffffffffffffffffffffffffffffff1673ffffffffffffffffffffffffffffffffffffffff16815260200190815260200160002060008973ffffffffffffffffffffffffffffffffffffffff1673ffffffffffffffffffffffffffffffffffffffff168152602001908152602001600020604051806040016040529081600082015481526020016001820160009054906101000a900460ff161515151581525050905080600001518214156137fb5760405180604001604052806000815260200160001515815250600c60008b73ffffffffffffffffffffffffffffffffffffffff1673ffffffffffffffffffffffffffffffffffffffff16815260200190815260200160002060008a73ffffffffffffffffffffffffffffffffffffffff1673ffffffffffffffffffffffffffffffffffffffff1681526020019081526020016000206000820151816000015560208201518160010160006101000a81548160ff0219169083151502179055509050505b505050505050505050565b60008060008473ffffffffffffffffffffffffffffffffffffffff1673ffffffffffffffffffffffffffffffffffffffff168152602001908152602001600020604051806040016040529081600082015481526020016001820160009054906101000a900460ff16151515158152505090506000816000015190506000600160008673ffffffffffffffffffffffffffffffffffffffff1673ffffffffffffffffffffffffffffffffffffffff168152602001908152602001600020604051806040016040529081600082015481526020016001820160009054906101000a900460ff16151515158152505090506000816000015190506000600560008873ffffffffffffffffffffffffffffffffffffffff1673ffffffffffffffffffffffffffffffffffffffff168152602001908152602001600020604051806040016040529081600082015481526020016001820160009054906101000a900460ff1615151515815250509050600081600001519050600083888784613989919061435c565b6139939190614274565b61399d9190614274565b90506000600d60008b73ffffffffffffffffffffffffffffffffffffffff1673ffffffffffffffffffffffffffffffffffffffff168152602001908152602001600020604051806040016040529081600082015481526020016001820160009054906101000a900460ff16151515158152505090508060000151821415613aa45760405180604001604052806000815260200160001515815250600d60008c73ffffffffffffffffffffffffffffffffffffffff1673ffffffffffffffffffffffffffffffffffffffff1681526020019081526020016000206000820151816000015560208201518160010160006101000a81548160ff0219169083151502179055509050505b50505050505050505050565b60008060008473ffffffffffffffffffffffffffffffffffffffff1673ffffffffffffffffffffffffffffffffffffffff168152602001908152602001600020604051806040016040529081600082015481526020016001820160009054906101000a900460ff16151515158152505090506000816000015190506000600260008673ffffffffffffffffffffffffffffffffffffffff1673ffffffffffffffffffffffffffffffffffffffff168152602001908152602001600020604051806040016040529081600082015481526020016001820160009054906101000a900460ff16151515158152505090506000816000015190506000600560008873ffffffffffffffffffffffffffffffffffffffff1673ffffffffffffffffffffffffffffffffffffffff168152602001908152602001600020604051806040016040529081600082015481526020016001820160009054906101000a900460ff1615151515815250509050600081600001519050600087848784613c33919061435c565b613c3d9190614274565b613c479190614274565b90506000600d60008b73ffffffffffffffffffffffffffffffffffffffff1673ffffffffffffffffffffffffffffffffffffffff168152602001908152602001600020604051806040016040529081600082015481526020016001820160009054906101000a900460ff16151515158152505090508060000151821415613d4e5760405180604001604052806000815260200160001515815250600d60008c73ffffffffffffffffffffffffffffffffffffffff1673ffffffffffffffffffffffffffffffffffffffff1681526020019081526020016000206000820151816000015560208201518160010160006101000a81548160ff0219169083151502179055509050505b50505050505050505050565b6000600160008473ffffffffffffffffffffffffffffffffffffffff1673ffffffffffffffffffffffffffffffffffffffff168152602001908152602001600020604051806040016040529081600082015481526020016001820160009054906101000a900460ff16151515158152505090506000816000015190506000600260008673ffffffffffffffffffffffffffffffffffffffff1673ffffffffffffffffffffffffffffffffffffffff168152602001908152602001600020604051806040016040529081600082015481526020016001820160009054906101000a900460ff16151515158152505090506000816000015190506000600560008873ffffffffffffffffffffffffffffffffffffffff1673ffffffffffffffffffffffffffffffffffffffff168152602001908152602001600020604051806040016040529081600082015481526020016001820160009054906101000a900460ff1615151515815250509050600081600001519050600085848984613ede919061435c565b613ee89190614274565b613ef29190614274565b90506000600d60008b73ffffffffffffffffffffffffffffffffffffffff1673ffffffffffffffffffffffffffffffffffffffff168152602001908152602001600020604051806040016040529081600082015481526020016001820160009054906101000a900460ff16151515158152505090508060000151821415613ff95760405180604001604052806000815260200160001515815250600d60008c73ffffffffffffffffffffffffffffffffffffffff1673ffffffffffffffffffffffffffffffffffffffff1681526020019081526020016000206000820151816000015560208201518160010160006101000a81548160ff0219169083151502179055509050505b50505050505050505050565b600080fd5b600073ffffffffffffffffffffffffffffffffffffffff82169050919050565b60006140358261400a565b9050919050565b6140458161402a565b811461405057600080fd5b50565b6000813590506140628161403c565b92915050565b6000819050919050565b61407b81614068565b811461408657600080fd5b50565b60008135905061409881614072565b92915050565b600080604083850312156140b5576140b4614005565b5b60006140c385828601614053565b92505060206140d485828601614089565b9150509250929050565b600080604083850312156140f5576140f4614005565b5b600061410385828601614053565b925050602061411485828601614053565b9150509250929050565b61412781614068565b82525050565b6000602082019050614142600083018461411e565b92915050565b60008060006060848603121561416157614160614005565b5b600061416f86828701614053565b935050602061418086828701614053565b925050604061419186828701614089565b9150509250925092565b6000602082840312156141b1576141b0614005565b5b60006141bf84828501614053565b91505092915050565b600082825260208201905092915050565b7f52756c6520636f6e646974696f6e206661696c65640000000000000000000000600082015250565b600061420f6015836141c8565b915061421a826141d9565b602082019050919050565b6000602082019050818103600083015261423e81614202565b9050919050565b7f4e487b7100000000000000000000000000000000000000000000000000000000600052601160045260246000fd5b600061427f82614068565b915061428a83614068565b92508282101561429d5761429c614245565b5b828203905092915050565b6142b18161402a565b82525050565b60006060820190506142cc60008301866142a8565b6142d960208301856142a8565b6142e6604083018461411e565b949350505050565b600060808201905061430360008301876142a8565b61431060208301866142a8565b61431d60408301856142a8565b61432a606083018461411e565b95945050505050565b600060408201905061434860008301856142a8565b614355602083018461411e565b9392505050565b600061436782614068565b915061437283614068565b9250827fffffffffffffffffffffffffffffffffffffffffffffffffffffffffffffffff038211156143a7576143a6614245565b5b828201905092915050565b6000819050919050565b60006143c7826143b2565b91506143d2836143b2565b9250817f7fffffffffffffffffffffffffffffffffffffffffffffffffffffffffffffff0383136000831215161561440d5761440c614245565b5b817f800000000000000000000000000000000000000000000000000000000000000003831260008312161561444557614444614245565b5b82820190509291505056fea26469706673582212207c597c82bc53a238264d4528c5f11d031cdbbe89b4c656381711a46f62c213ae64736f6c634300080c0033",
  "immutableReferences": {},
  "source": "contract Linktoken {\n  struct TotalInTuple {\n    uint n;\n    bool _valid;\n  }\n  struct TotalOutTuple {\n    uint n;\n    bool _valid;\n  }\n  struct OwnerTuple {\n    address p;\n    bool _valid;\n  }\n  struct DecreaseAllowanceTotalTuple {\n    uint m;\n    bool _valid;\n  }\n  struct TotalMintTuple {\n    uint n;\n    bool _valid;\n  }\n  struct TotalSupplyTuple {\n    uint n;\n    bool _valid;\n  }\n  struct AllMintTuple {\n    uint n;\n    bool _valid;\n  }\n  struct AllowanceTotalTuple {\n    uint m;\n    bool _valid;\n  }\n  struct SpentTotalTuple {\n    uint m;\n    bool _valid;\n  }\n  struct TotalBurnTuple {\n    uint n;\n    bool _valid;\n  }\n  struct BalanceOfTuple {\n    uint n;\n    bool _valid;\n  }\n  struct AllBurnTuple {\n    uint n;\n    bool _valid;\n  }\n  struct AllowanceTuple {\n    uint n;\n    bool _valid;\n  }\n  mapping(address=>TotalInTuple) totalIn;\n  mapping(address=>TotalOutTuple) totalOut;\n  mapping(address=>TotalBurnTuple) totalBurn;\n  OwnerTuple owner;\n  mapping(address=>mapping(address=>DecreaseAllowanceTotalTuple)) decreaseAllowanceTotal;\n  mapping(address=>TotalMintTuple) totalMint;\n  TotalSupplyTuple totalSupply;\n  AllMintTuple allMint;\n  mapping(address=>mapping(address=>AllowanceTotalTuple)) allowanceTotal;\n  mapping(address=>mapping(address=>SpentTotalTuple)) spentTotal;\n  mapping(address=>mapping(address=>AllowanceTuple)) allowance;\n  mapping(address=>BalanceOfTuple) balanceOf;\n  AllBurnTuple allBurn;\n  event TransferFrom(address from,address to,address spender,uint amount);\n  event Burn(address p,uint amount);\n  event Mint(address p,uint amount);\n  event DecreaseAllowance(address p,address s,uint n);\n  event IncreaseAllowance(address p,address s,uint n);\n  event Transfer(address from,address to,uint amount);\n  constructor(uint n) public {\n    updateBalanceOfOnInsertConstructor_r5(n);\n    updateTotalSupplyOnInsertConstructor_r23(n);\n    updateOwnerOnInsertConstructor_r8();\n    updateTotalBalancesOnInsertConstructor_r27(n);\n    updateTotalInOnInsertConstructor_r13(n);\n    updateTotalMintOnInsertConstructor_r19(n);\n  }\n  function burn(address p,uint amount) public    {\n      bool r3 = updateBurnOnInsertRecv_burn_r3(p,amount);\n      if(r3==false) {\n        revert(\"Rule condition failed\");\n      }\n  }\n  function approve(address s,uint n) public    {\n      bool r26 = updateIncreaseAllowanceOnInsertRecv_approve_r26(s,n);\n      if(r26==false) {\n        revert(\"Rule condition failed\");\n      }\n  }\n  function mint(address p,uint amount) public    {\n      bool r9 = updateMintOnInsertRecv_mint_r9(p,amount);\n      if(r9==false) {\n        revert(\"Rule condition failed\");\n      }\n  }\n  function getTotalSupply() public view  returns (uint) {\n      uint n = totalSupply.n;\n      return n;\n  }\n  function increaseApproval(address p,uint n) public    {\n      bool r12 = updateIncreaseAllowanceOnInsertRecv_increaseApproval_r12(p,n);\n      if(r12==false) {\n        revert(\"Rule condition failed\");\n      }\n  }\n  function transferFrom(address from,address to,uint amount) public    {\n      bool r11 = updateTransferFromOnInsertRecv_transferFrom_r11(from,to,amount);\n      if(r11==false) {\n        revert(\"Rule condition failed\");\n      }\n  }\n  function getBalanceOf(address p) public view  returns (uint) {\n      BalanceOfTuple memory balanceOfTuple = balanceOf[p];\n      uint n = balanceOfTuple.n;\n      return n;\n  }\n  function transfer(address to,uint amount) public    {\n      bool r2 = updateTransferOnInsertRecv_transfer_r2(to,amount);\n      if(r2==false) {\n        revert(\"Rule condition failed\");\n      }\n  }\n  function decreaseApproval(address p,uint n) public    {\n      bool r7 = updateDecreaseAllowanceOnInsertRecv_decreaseApproval_r7(p,n);\n      if(r7==false) {\n        revert(\"Rule condition failed\");\n      }\n  }\n  function getAllowance(address p,address s) public view  returns (uint) {\n      AllowanceTuple memory allowanceTuple = allowance[p][s];\n      uint n = allowanceTuple.n;\n      return n;\n  }\n  function updateBalanceOfOnInsertTotalOut_r4(address p,uint o) private    {\n      TotalOutTuple memory toDelete = totalOut[p];\n      if(toDelete._valid==true) {\n        updateBalanceOfOnDeleteTotalOut_r4(p,toDelete.n);\n      }\n      TotalInTuple memory totalInTuple = totalIn[p];\n      uint i = totalInTuple.n;\n      TotalBurnTuple memory totalBurnTuple = totalBurn[p];\n      uint m = totalBurnTuple.n;\n      TotalMintTuple memory totalMintTuple = totalMint[p];\n      uint n = totalMintTuple.n;\n      uint s = ((n+i)-m)-o;\n      balanceOf[p] = BalanceOfTuple(s,true);\n  }\n  function updateBalanceOfOnInsertTotalMint_r4(address p,uint n) private    {\n      TotalMintTuple memory toDelete = totalMint[p];\n      if(toDelete._valid==true) {\n        updateBalanceOfOnDeleteTotalMint_r4(p,toDelete.n);\n      }\n      TotalInTuple memory totalInTuple = totalIn[p];\n      uint i = totalInTuple.n;\n      TotalOutTuple memory totalOutTuple = totalOut[p];\n      uint o = totalOutTuple.n;\n      TotalBurnTuple memory totalBurnTuple = totalBurn[p];\n      uint m = totalBurnTuple.n;\n      uint s = ((n+i)-m)-o;\n      balanceOf[p] = BalanceOfTuple(s,true);\n  }\n  function updateIncreaseAllowanceOnInsertRecv_approve_r26(address s,uint n) private   returns (bool) {\n      address o = msg.sender;\n      AllowanceTuple memory allowanceTuple = allowance[o][s];\n      uint m = allowanceTuple.n;\n      if(validRecipient(s)) {\n        uint d = n-m;\n        updateAllowanceTotalOnInsertIncreaseAllowance_r28(o,s,d);\n        emit IncreaseAllowance(o,s,d);\n        return true;\n      }\n      return false;\n  }\n  function updateTransferFromOnInsertRecv_transferFrom_r11(address o,address r,uint n) private   returns (bool) {\n      address s = msg.sender;\n      BalanceOfTuple memory balanceOfTuple = balanceOf[o];\n      uint m = balanceOfTuple.n;\n      AllowanceTuple memory allowanceTuple = allowance[o][s];\n      uint k = allowanceTuple.n;\n      if(m>=n && k>=n && validRecipient(r)) {\n        updateTransferOnInsertTransferFrom_r14(o,r,n);\n        updateSpentTotalOnInsertTransferFrom_r22(o,s,n);\n        emit TransferFrom(o,r,s,n);\n        return true;\n      }\n      return false;\n  }\n  function updateAllowanceOnInsertAllowanceTotal_r24(address o,address s,uint m) private    {\n      AllowanceTotalTuple memory toDelete = allowanceTotal[o][s];\n      if(toDelete._valid==true) {\n        updateAllowanceOnDeleteAllowanceTotal_r24(o,s,toDelete.m);\n      }\n      DecreaseAllowanceTotalTuple memory decreaseAllowanceTotalTuple = decreaseAllowanceTotal[o][s];\n      uint d = decreaseAllowanceTotalTuple.m;\n      SpentTotalTuple memory spentTotalTuple = spentTotal[o][s];\n      uint l = spentTotalTuple.m;\n      uint n = (m-l)-d;\n      allowance[o][s] = AllowanceTuple(n,true);\n  }\n  function updateDecreaseAllowanceOnInsertRecv_decreaseApproval_r7(address s,uint n) private   returns (bool) {\n      address o = msg.sender;\n      AllowanceTuple memory allowanceTuple = allowance[o][s];\n      uint m = allowanceTuple.n;\n      if(m>=n && validRecipient(s)) {\n        updateDecreaseAllowanceTotalOnInsertDecreaseAllowance_r6(o,s,n);\n        emit DecreaseAllowance(o,s,n);\n        return true;\n      }\n      return false;\n  }\n  function validRecipient(address p) private view  returns (bool) {\n      address t = address(this);\n      if(p!=t && p!=address(0)) {\n        return true;\n      }\n      return false;\n  }\n  function updateuintByint(uint x,int delta) private   returns (uint) {\n      int convertedX = int(x);\n      int value = convertedX+delta;\n      uint convertedValue = uint(value);\n      return convertedValue;\n  }\n  function updateDecreaseAllowanceTotalOnInsertDecreaseAllowance_r6(address o,address s,uint n) private    {\n      int delta0 = int(n);\n      updateAllowanceOnIncrementDecreaseAllowanceTotal_r24(o,s,delta0);\n      decreaseAllowanceTotal[o][s].m += n;\n  }\n  function updateBalanceOfOnDeleteTotalOut_r4(address p,uint o) private    {\n      TotalInTuple memory totalInTuple = totalIn[p];\n      uint i = totalInTuple.n;\n      TotalBurnTuple memory totalBurnTuple = totalBurn[p];\n      uint m = totalBurnTuple.n;\n      TotalMintTuple memory totalMintTuple = totalMint[p];\n      uint n = totalMintTuple.n;\n      uint s = ((n+i)-m)-o;\n      BalanceOfTuple memory balanceOfTuple = balanceOf[p];\n      if(s==balanceOfTuple.n) {\n        balanceOf[p] = BalanceOfTuple(0,false);\n      }\n  }\n  function updateTotalMintOnInsertMint_r16(address p,uint n) private    {\n      int delta2 = int(n);\n      updateBalanceOfOnIncrementTotalMint_r4(p,delta2);\n      totalMint[p].n += n;\n  }\n  function updateBalanceOfOnDeleteTotalMint_r4(address p,uint n) private    {\n      TotalInTuple memory totalInTuple = totalIn[p];\n      uint i = totalInTuple.n;\n      TotalOutTuple memory totalOutTuple = totalOut[p];\n      uint o = totalOutTuple.n;\n      TotalBurnTuple memory totalBurnTuple = totalBurn[p];\n      uint m = totalBurnTuple.n;\n      uint s = ((n+i)-m)-o;\n      BalanceOfTuple memory balanceOfTuple = balanceOf[p];\n      if(s==balanceOfTuple.n) {\n        balanceOf[p] = BalanceOfTuple(0,false);\n      }\n  }\n  function updateTransferOnInsertRecv_transfer_r2(address r,uint n) private   returns (bool) {\n      address s = msg.sender;\n      BalanceOfTuple memory balanceOfTuple = balanceOf[s];\n      uint m = balanceOfTuple.n;\n      if(n<=m && validRecipient(r)) {\n        updateTotalOutOnInsertTransfer_r20(s,n);\n        updateTotalInOnInsertTransfer_r10(r,n);\n        emit Transfer(s,r,n);\n        return true;\n      }\n      return false;\n  }\n  function updateTotalInOnInsertConstructor_r13(uint n) private    {\n      address s = msg.sender;\n      updateBalanceOfOnInsertTotalIn_r4(s,n);\n      totalIn[s] = TotalInTuple(n,true);\n  }\n  function updateTotalSupplyOnInsertAllMint_r17(uint m) private    {\n      uint b = allBurn.n;\n      uint n = m-b;\n      totalSupply = TotalSupplyTuple(n,true);\n  }\n  function updateSpentTotalOnInsertTransferFrom_r22(address o,address s,uint n) private    {\n      int delta2 = int(n);\n      updateAllowanceOnIncrementSpentTotal_r24(o,s,delta2);\n      spentTotal[o][s].m += n;\n  }\n  function updateBalanceOfOnDeleteTotalIn_r4(address p,uint i) private    {\n      TotalOutTuple memory totalOutTuple = totalOut[p];\n      uint o = totalOutTuple.n;\n      TotalBurnTuple memory totalBurnTuple = totalBurn[p];\n      uint m = totalBurnTuple.n;\n      TotalMintTuple memory totalMintTuple = totalMint[p];\n      uint n = totalMintTuple.n;\n      uint s = ((n+i)-m)-o;\n      BalanceOfTuple memory balanceOfTuple = balanceOf[p];\n      if(s==balanceOfTuple.n) {\n        balanceOf[p] = BalanceOfTuple(0,false);\n      }\n  }\n  function updateAllowanceOnIncrementDecreaseAllowanceTotal_r24(address o,address s,int d) private    {\n      int _delta = int(d);\n      uint newValue = updateuintByint(decreaseAllowanceTotal[o][s].m,_delta);\n      updateAllowanceOnInsertDecreaseAllowanceTotal_r24(o,s,newValue);\n  }\n  function updateTotalSupplyOnIncrementAllBurn_r17(int b) private    {\n      int _delta = int(b);\n      uint newValue = updateuintByint(allBurn.n,_delta);\n      updateTotalSupplyOnInsertAllBurn_r17(newValue);\n  }\n  function updateBalanceOfOnIncrementTotalMint_r4(address p,int n) private    {\n      int _delta = int(n);\n      uint newValue = updateuintByint(totalMint[p].n,_delta);\n      updateBalanceOfOnInsertTotalMint_r4(p,newValue);\n  }\n  function updateTotalMintOnInsertConstructor_r19(uint n) private    {\n      address s = msg.sender;\n      updateBalanceOfOnInsertTotalMint_r4(s,n);\n      totalMint[s] = TotalMintTuple(n,true);\n  }\n  function updateTotalSupplyOnInsertAllBurn_r17(uint b) private    {\n      uint m = allMint.n;\n      uint n = m-b;\n      totalSupply = TotalSupplyTuple(n,true);\n  }\n  function updateBalanceOfOnIncrementTotalOut_r4(address p,int o) private    {\n      int _delta = int(o);\n      uint newValue = updateuintByint(totalOut[p].n,_delta);\n      updateBalanceOfOnInsertTotalOut_r4(p,newValue);\n  }\n  function updateAllowanceOnInsertDecreaseAllowanceTotal_r24(address o,address s,uint d) private    {\n      DecreaseAllowanceTotalTuple memory toDelete = decreaseAllowanceTotal[o][s];\n      if(toDelete._valid==true) {\n        updateAllowanceOnDeleteDecreaseAllowanceTotal_r24(o,s,toDelete.m);\n      }\n      SpentTotalTuple memory spentTotalTuple = spentTotal[o][s];\n      uint l = spentTotalTuple.m;\n      AllowanceTotalTuple memory allowanceTotalTuple = allowanceTotal[o][s];\n      uint m = allowanceTotalTuple.m;\n      uint n = (m-l)-d;\n      allowance[o][s] = AllowanceTuple(n,true);\n  }\n  function updateAllowanceOnIncrementSpentTotal_r24(address o,address s,int l) private    {\n      int _delta = int(l);\n      uint newValue = updateuintByint(spentTotal[o][s].m,_delta);\n      updateAllowanceOnInsertSpentTotal_r24(o,s,newValue);\n  }\n  function updateAllowanceOnInsertSpentTotal_r24(address o,address s,uint l) private    {\n      SpentTotalTuple memory toDelete = spentTotal[o][s];\n      if(toDelete._valid==true) {\n        updateAllowanceOnDeleteSpentTotal_r24(o,s,toDelete.m);\n      }\n      DecreaseAllowanceTotalTuple memory decreaseAllowanceTotalTuple = decreaseAllowanceTotal[o][s];\n      uint d = decreaseAllowanceTotalTuple.m;\n      AllowanceTotalTuple memory allowanceTotalTuple = allowanceTotal[o][s];\n      uint m = allowanceTotalTuple.m;\n      uint n = (m-l)-d;\n      allowance[o][s] = AllowanceTuple(n,true);\n  }\n  function updateAllowanceTotalOnInsertIncreaseAllowance_r28(address o,address s,uint n) private    {\n      int delta2 = int(n);\n      updateAllowanceOnIncrementAllowanceTotal_r24(o,s,delta2);\n      allowanceTotal[o][s].m += n;\n  }\n  function updateAllBurnOnInsertBurn_r25(uint n) private    {\n      int delta1 = int(n);\n      updateTotalSupplyOnIncrementAllBurn_r17(delta1);\n      allBurn.n += n;\n  }\n  function updateOwnerOnInsertConstructor_r8() private    {\n      address s = msg.sender;\n      owner = OwnerTuple(s,true);\n  }\n  function updateTotalSupplyOnInsertConstructor_r23(uint n) private    {\n      totalSupply = TotalSupplyTuple(n,true);\n  }\n  function updateAllowanceOnDeleteAllowanceTotal_r24(address o,address s,uint m) private    {\n      DecreaseAllowanceTotalTuple memory decreaseAllowanceTotalTuple = decreaseAllowanceTotal[o][s];\n      uint d = decreaseAllowanceTotalTuple.m;\n      SpentTotalTuple memory spentTotalTuple = spentTotal[o][s];\n      uint l = spentTotalTuple.m;\n      uint n = (m-l)-d;\n      AllowanceTuple memory allowanceTuple = allowance[o][s];\n      if(n==allowanceTuple.n) {\n        allowance[o][s] = AllowanceTuple(0,false);\n      }\n  }\n  function updateMintOnInsertRecv_mint_r9(address p,uint n) private   returns (bool) {\n      address s = owner.p;\n      if(s==msg.sender) {\n        if(p!=address(0)) {\n          updateAllMintOnInsertMint_r0(n);\n          updateTotalMintOnInsertMint_r16(p,n);\n          emit Mint(p,n);\n          return true;\n        }\n      }\n      return false;\n  }\n  function updateBalanceOfOnDeleteTotalBurn_r4(address p,uint m) private    {\n      TotalInTuple memory totalInTuple = totalIn[p];\n      uint i = totalInTuple.n;\n      TotalOutTuple memory totalOutTuple = totalOut[p];\n      uint o = totalOutTuple.n;\n      TotalMintTuple memory totalMintTuple = totalMint[p];\n      uint n = totalMintTuple.n;\n      uint s = ((n+i)-m)-o;\n      BalanceOfTuple memory balanceOfTuple = balanceOf[p];\n      if(s==balanceOfTuple.n) {\n        balanceOf[p] = BalanceOfTuple(0,false);\n      }\n  }\n  function updateBalanceOfOnInsertConstructor_r5(uint n) private    {\n      address p = msg.sender;\n      balanceOf[p] = BalanceOfTuple(n,true);\n  }\n  function updateBalanceOfOnInsertTotalBurn_r4(address p,uint m) private    {\n      TotalBurnTuple memory toDelete = totalBurn[p];\n      if(toDelete._valid==true) {\n        updateBalanceOfOnDeleteTotalBurn_r4(p,toDelete.n);\n      }\n      TotalInTuple memory totalInTuple = totalIn[p];\n      uint i = totalInTuple.n;\n      TotalOutTuple memory totalOutTuple = totalOut[p];\n      uint o = totalOutTuple.n;\n      TotalMintTuple memory totalMintTuple = totalMint[p];\n      uint n = totalMintTuple.n;\n      uint s = ((n+i)-m)-o;\n      balanceOf[p] = BalanceOfTuple(s,true);\n  }\n  function updateTotalBurnOnInsertBurn_r15(address p,uint n) private    {\n      int delta1 = int(n);\n      updateBalanceOfOnIncrementTotalBurn_r4(p,delta1);\n      totalBurn[p].n += n;\n  }\n  function updateTotalBalancesOnInsertConstructor_r27(uint n) private    {\n      // Empty()\n  }\n  function updateBalanceOfOnIncrementTotalIn_r4(address p,int i) private    {\n      int _delta = int(i);\n      uint newValue = updateuintByint(totalIn[p].n,_delta);\n      updateBalanceOfOnInsertTotalIn_r4(p,newValue);\n  }\n  function updateAllowanceOnIncrementAllowanceTotal_r24(address o,address s,int m) private    {\n      int _delta = int(m);\n      uint newValue = updateuintByint(allowanceTotal[o][s].m,_delta);\n      updateAllowanceOnInsertAllowanceTotal_r24(o,s,newValue);\n  }\n  function updateBalanceOfOnInsertTotalIn_r4(address p,uint i) private    {\n      TotalInTuple memory toDelete = totalIn[p];\n      if(toDelete._valid==true) {\n        updateBalanceOfOnDeleteTotalIn_r4(p,toDelete.n);\n      }\n      TotalOutTuple memory totalOutTuple = totalOut[p];\n      uint o = totalOutTuple.n;\n      TotalBurnTuple memory totalBurnTuple = totalBurn[p];\n      uint m = totalBurnTuple.n;\n      TotalMintTuple memory totalMintTuple = totalMint[p];\n      uint n = totalMintTuple.n;\n      uint s = ((n+i)-m)-o;\n      balanceOf[p] = BalanceOfTuple(s,true);\n  }\n  function updateTotalSupplyOnIncrementAllMint_r17(int m) private    {\n      int _delta = int(m);\n      uint newValue = updateuintByint(allMint.n,_delta);\n      updateTotalSupplyOnInsertAllMint_r17(newValue);\n  }\n  function updateTransferOnInsertTransferFrom_r14(address o,address r,uint n) private    {\n      updateTotalOutOnInsertTransfer_r20(o,n);\n      updateTotalInOnInsertTransfer_r10(r,n);\n      emit Transfer(o,r,n);\n  }\n  function updateTotalInOnInsertTransfer_r10(address p,uint n) private    {\n      int delta0 = int(n);\n      updateBalanceOfOnIncrementTotalIn_r4(p,delta0);\n      totalIn[p].n += n;\n  }\n  function updateBalanceOfOnIncrementTotalBurn_r4(address p,int m) private    {\n      int _delta = int(m);\n      uint newValue = updateuintByint(totalBurn[p].n,_delta);\n      updateBalanceOfOnInsertTotalBurn_r4(p,newValue);\n  }\n  function updateTotalOutOnInsertTransfer_r20(address p,uint n) private    {\n      int delta2 = int(n);\n      updateBalanceOfOnIncrementTotalOut_r4(p,delta2);\n      totalOut[p].n += n;\n  }\n  function updateIncreaseAllowanceOnInsertRecv_increaseApproval_r12(address s,uint n) private   returns (bool) {\n      address o = msg.sender;\n      if(validRecipient(s)) {\n        updateAllowanceTotalOnInsertIncreaseAllowance_r28(o,s,n);\n        emit IncreaseAllowance(o,s,n);\n        return true;\n      }\n      return false;\n  }\n  function updateAllowanceOnDeleteSpentTotal_r24(address o,address s,uint l) private    {\n      DecreaseAllowanceTotalTuple memory decreaseAllowanceTotalTuple = decreaseAllowanceTotal[o][s];\n      uint d = decreaseAllowanceTotalTuple.m;\n      AllowanceTotalTuple memory allowanceTotalTuple = allowanceTotal[o][s];\n      uint m = allowanceTotalTuple.m;\n      uint n = (m-l)-d;\n      AllowanceTuple memory allowanceTuple = allowance[o][s];\n      if(n==allowanceTuple.n) {\n        allowance[o][s] = AllowanceTuple(0,false);\n      }\n  }\n  function updateAllMintOnInsertMint_r0(uint n) private    {\n      int delta1 = int(n);\n      updateTotalSupplyOnIncrementAllMint_r17(delta1);\n      allMint.n += n;\n  }\n  function updateAllowanceOnDeleteDecreaseAllowanceTotal_r24(address o,address s,uint d) private    {\n      SpentTotalTuple memory spentTotalTuple = spentTotal[o][s];\n      uint l = spentTotalTuple.m;\n      AllowanceTotalTuple memory allowanceTotalTuple = allowanceTotal[o][s];\n      uint m = allowanceTotalTuple.m;\n      uint n = (m-l)-d;\n      AllowanceTuple memory allowanceTuple = allowance[o][s];\n      if(n==allowanceTuple.n) {\n        allowance[o][s] = AllowanceTuple(0,false);\n      }\n  }\n  function updateBurnOnInsertRecv_burn_r3(address p,uint n) private   returns (bool) {\n      address s = owner.p;\n      if(s==msg.sender) {\n        BalanceOfTuple memory balanceOfTuple = balanceOf[p];\n        uint m = balanceOfTuple.n;\n        if(p!=address(0) && n<=m) {\n          updateTotalBurnOnInsertBurn_r15(p,n);\n          updateAllBurnOnInsertBurn_r25(n);\n          emit Burn(p,n);\n          return true;\n        }\n      }\n      return false;\n  }\n}",
  "sourcePath": "/Users/ljy/Desktop/PENN/2023_summer/boon_dsc/smart-contracts/optimizations/full/contracts/linktoken.sol",
  "compiler": {
    "name": "solc",
    "version": "0.8.12+commit.f00d7308.Emscripten.clang"
  },
  "schemaVersion": "3.4.13",
  "updatedAt": "2023-07-18T20:03:23.558Z",
  "devdoc": {
    "kind": "dev",
    "methods": {},
    "version": 1
  },
  "userdoc": {
    "kind": "user",
    "methods": {},
    "version": 1
  }
}