{
  "contractName": "Matic",
  "abi": [
    {
      "inputs": [
        {
          "internalType": "uint256",
          "name": "n",
          "type": "uint256"
        }
      ],
      "stateMutability": "nonpayable",
      "type": "constructor"
    },
    {
      "anonymous": false,
      "inputs": [
        {
          "indexed": false,
          "internalType": "address",
          "name": "p",
          "type": "address"
        },
        {
          "indexed": false,
          "internalType": "uint256",
          "name": "amount",
          "type": "uint256"
        }
      ],
      "name": "Burn",
      "type": "event"
    },
    {
      "anonymous": false,
      "inputs": [
        {
          "indexed": false,
          "internalType": "address",
          "name": "p",
          "type": "address"
        },
        {
          "indexed": false,
          "internalType": "address",
          "name": "s",
          "type": "address"
        },
        {
          "indexed": false,
          "internalType": "uint256",
          "name": "n",
          "type": "uint256"
        }
      ],
      "name": "DecreaseAllowance",
      "type": "event"
    },
    {
      "anonymous": false,
      "inputs": [
        {
          "indexed": false,
          "internalType": "address",
          "name": "p",
          "type": "address"
        },
        {
          "indexed": false,
          "internalType": "address",
          "name": "s",
          "type": "address"
        },
        {
          "indexed": false,
          "internalType": "uint256",
          "name": "n",
          "type": "uint256"
        }
      ],
      "name": "IncreaseAllowance",
      "type": "event"
    },
    {
      "anonymous": false,
      "inputs": [
        {
          "indexed": false,
          "internalType": "address",
          "name": "p",
          "type": "address"
        },
        {
          "indexed": false,
          "internalType": "bool",
          "name": "b",
          "type": "bool"
        }
      ],
      "name": "IsPauser",
      "type": "event"
    },
    {
      "anonymous": false,
      "inputs": [
        {
          "indexed": false,
          "internalType": "address",
          "name": "p",
          "type": "address"
        },
        {
          "indexed": false,
          "internalType": "uint256",
          "name": "amount",
          "type": "uint256"
        }
      ],
      "name": "Mint",
      "type": "event"
    },
    {
      "anonymous": false,
      "inputs": [
        {
          "indexed": false,
          "internalType": "bool",
          "name": "b",
          "type": "bool"
        }
      ],
      "name": "Paused",
      "type": "event"
    },
    {
      "anonymous": false,
      "inputs": [
        {
          "indexed": false,
          "internalType": "address",
          "name": "from",
          "type": "address"
        },
        {
          "indexed": false,
          "internalType": "address",
          "name": "to",
          "type": "address"
        },
        {
          "indexed": false,
          "internalType": "uint256",
          "name": "amount",
          "type": "uint256"
        }
      ],
      "name": "Transfer",
      "type": "event"
    },
    {
      "anonymous": false,
      "inputs": [
        {
          "indexed": false,
          "internalType": "address",
          "name": "from",
          "type": "address"
        },
        {
          "indexed": false,
          "internalType": "address",
          "name": "to",
          "type": "address"
        },
        {
          "indexed": false,
          "internalType": "address",
          "name": "spender",
          "type": "address"
        },
        {
          "indexed": false,
          "internalType": "uint256",
          "name": "amount",
          "type": "uint256"
        }
      ],
      "name": "TransferFrom",
      "type": "event"
    },
    {
      "inputs": [
        {
          "internalType": "address",
          "name": "p",
          "type": "address"
        }
      ],
      "name": "addPauser",
      "outputs": [],
      "stateMutability": "nonpayable",
      "type": "function"
    },
    {
      "inputs": [],
      "name": "renouncePauser",
      "outputs": [],
      "stateMutability": "nonpayable",
      "type": "function"
    },
    {
      "inputs": [],
      "name": "getTotalSupply",
      "outputs": [
        {
          "internalType": "uint256",
          "name": "",
          "type": "uint256"
        }
      ],
      "stateMutability": "view",
      "type": "function"
    },
    {
      "inputs": [
        {
          "internalType": "address",
          "name": "from",
          "type": "address"
        },
        {
          "internalType": "address",
          "name": "to",
          "type": "address"
        },
        {
          "internalType": "uint256",
          "name": "amount",
          "type": "uint256"
        }
      ],
      "name": "transferFrom",
      "outputs": [],
      "stateMutability": "nonpayable",
      "type": "function"
    },
    {
      "inputs": [
        {
          "internalType": "address",
          "name": "to",
          "type": "address"
        },
        {
          "internalType": "uint256",
          "name": "amount",
          "type": "uint256"
        }
      ],
      "name": "transfer",
      "outputs": [],
      "stateMutability": "nonpayable",
      "type": "function"
    },
    {
      "inputs": [
        {
          "internalType": "address",
          "name": "s",
          "type": "address"
        },
        {
          "internalType": "uint256",
          "name": "n",
          "type": "uint256"
        }
      ],
      "name": "approve",
      "outputs": [],
      "stateMutability": "nonpayable",
      "type": "function"
    },
    {
      "inputs": [
        {
          "internalType": "address",
          "name": "p",
          "type": "address"
        },
        {
          "internalType": "uint256",
          "name": "amount",
          "type": "uint256"
        }
      ],
      "name": "mint",
      "outputs": [],
      "stateMutability": "nonpayable",
      "type": "function"
    },
    {
      "inputs": [],
      "name": "unpause",
      "outputs": [],
      "stateMutability": "nonpayable",
      "type": "function"
    },
    {
      "inputs": [
        {
          "internalType": "address",
          "name": "p",
          "type": "address"
        },
        {
          "internalType": "uint256",
          "name": "n",
          "type": "uint256"
        }
      ],
      "name": "increaseApproval",
      "outputs": [],
      "stateMutability": "nonpayable",
      "type": "function"
    },
    {
      "inputs": [
        {
          "internalType": "address",
          "name": "p",
          "type": "address"
        },
        {
          "internalType": "uint256",
          "name": "n",
          "type": "uint256"
        }
      ],
      "name": "decreaseApproval",
      "outputs": [],
      "stateMutability": "nonpayable",
      "type": "function"
    },
    {
      "inputs": [
        {
          "internalType": "address",
          "name": "p",
          "type": "address"
        }
      ],
      "name": "getBalanceOf",
      "outputs": [
        {
          "internalType": "uint256",
          "name": "",
          "type": "uint256"
        }
      ],
      "stateMutability": "view",
      "type": "function"
    },
    {
      "inputs": [
        {
          "internalType": "address",
          "name": "p",
          "type": "address"
        },
        {
          "internalType": "uint256",
          "name": "amount",
          "type": "uint256"
        }
      ],
      "name": "burn",
      "outputs": [],
      "stateMutability": "nonpayable",
      "type": "function"
    },
    {
      "inputs": [
        {
          "internalType": "address",
          "name": "p",
          "type": "address"
        },
        {
          "internalType": "address",
          "name": "s",
          "type": "address"
        }
      ],
      "name": "getAllowance",
      "outputs": [
        {
          "internalType": "uint256",
          "name": "",
          "type": "uint256"
        }
      ],
      "stateMutability": "view",
      "type": "function"
    },
    {
      "inputs": [],
      "name": "pause",
      "outputs": [],
      "stateMutability": "nonpayable",
      "type": "function"
    }
  ],
  "bytecode": "0x60806040523480156200001157600080fd5b50604051620058c8380380620058c8833981810160405281019062000037919062000ada565b62000047620000c360201b60201c565b62000058816200015f60201b60201c565b62000068620001ec60201b60201c565b6200007981620002cd60201b60201c565b6200008a81620002d060201b60201c565b6200009b816200036f60201b60201c565b620000ac81620003ca60201b60201c565b620000bc6200041460201b60201c565b5062000c7f565b604051806040016040528060001515815260200160011515815250601160008201518160000160006101000a81548160ff02191690831515021790555060208201518160000160016101000a81548160ff0219169083151502179055509050507f0e2fb031ee032dc02d8011dc50b816eb450cf856abd8261680dac74f72165bd2600060405162000155919062000b29565b60405180910390a1565b6000339050604051806040016040528083815260200160011515815250600d60008373ffffffffffffffffffffffffffffffffffffffff1673ffffffffffffffffffffffffffffffffffffffff1681526020019081526020016000206000820151816000015560208201518160010160006101000a81548160ff0219169083151502179055509050505050565b6000339050604051806040016040528060011515815260200160011515815250600a60008373ffffffffffffffffffffffffffffffffffffffff1673ffffffffffffffffffffffffffffffffffffffff16815260200190815260200160002060008201518160000160006101000a81548160ff02191690831515021790555060208201518160000160016101000a81548160ff0219169083151502179055509050507f8ac9153754152e5b728b2c6bdaca961a07c94cfbf57278f89a9865679d90fe73816001604051620002c292919062000b8b565b60405180910390a150565b50565b6000339050620002e78183620004b660201b60201c565b604051806040016040528083815260200160011515815250600560008373ffffffffffffffffffffffffffffffffffffffff1673ffffffffffffffffffffffffffffffffffffffff1681526020019081526020016000206000820151816000015560208201518160010160006101000a81548160ff0219169083151502179055509050505050565b62000380816200078160201b60201c565b60405180604001604052808281526020016001151581525060086000820151816000015560208201518160010160006101000a81548160ff02191690831515021790555090505050565b60405180604001604052808281526020016001151581525060066000820151816000015560208201518160010160006101000a81548160ff02191690831515021790555090505050565b600033905060405180604001604052808273ffffffffffffffffffffffffffffffffffffffff16815260200160011515815250600360008201518160000160006101000a81548173ffffffffffffffffffffffffffffffffffffffff021916908373ffffffffffffffffffffffffffffffffffffffff16021790555060208201518160000160146101000a81548160ff02191690831515021790555090505050565b6000600560008473ffffffffffffffffffffffffffffffffffffffff1673ffffffffffffffffffffffffffffffffffffffff168152602001908152602001600020604051806040016040529081600082015481526020016001820160009054906101000a900460ff161515151581525050905060011515816020015115151415620005525762000551838260000151620007e960201b60201c565b5b60008060008573ffffffffffffffffffffffffffffffffffffffff1673ffffffffffffffffffffffffffffffffffffffff168152602001908152602001600020604051806040016040529081600082015481526020016001820160009054906101000a900460ff16151515158152505090506000816000015190506000600160008773ffffffffffffffffffffffffffffffffffffffff1673ffffffffffffffffffffffffffffffffffffffff168152602001908152602001600020604051806040016040529081600082015481526020016001820160009054906101000a900460ff16151515158152505090506000816000015190506000600260008973ffffffffffffffffffffffffffffffffffffffff1673ffffffffffffffffffffffffffffffffffffffff168152602001908152602001600020604051806040016040529081600082015481526020016001820160009054906101000a900460ff161515151581525050905060008160000151905060008382878b620006d7919062000be7565b620006e3919062000c44565b620006ef919062000c44565b9050604051806040016040528082815260200160011515815250600d60008c73ffffffffffffffffffffffffffffffffffffffff1673ffffffffffffffffffffffffffffffffffffffff1681526020019081526020016000206000820151816000015560208201518160010160006101000a81548160ff02191690831515021790555090505050505050505050505050565b6000600e600001549050600081836200079b919062000c44565b905060405180604001604052808281526020016001151581525060066000820151816000015560208201518160010160006101000a81548160ff021916908315150217905550905050505050565b60008060008473ffffffffffffffffffffffffffffffffffffffff1673ffffffffffffffffffffffffffffffffffffffff168152602001908152602001600020604051806040016040529081600082015481526020016001820160009054906101000a900460ff16151515158152505090506000816000015190506000600160008673ffffffffffffffffffffffffffffffffffffffff1673ffffffffffffffffffffffffffffffffffffffff168152602001908152602001600020604051806040016040529081600082015481526020016001820160009054906101000a900460ff16151515158152505090506000816000015190506000600260008873ffffffffffffffffffffffffffffffffffffffff1673ffffffffffffffffffffffffffffffffffffffff168152602001908152602001600020604051806040016040529081600082015481526020016001820160009054906101000a900460ff161515151581525050905060008160000151905060008382878a6200096e919062000be7565b6200097a919062000c44565b62000986919062000c44565b90506000600d60008b73ffffffffffffffffffffffffffffffffffffffff1673ffffffffffffffffffffffffffffffffffffffff168152602001908152602001600020604051806040016040529081600082015481526020016001820160009054906101000a900460ff1615151515815250509050806000015182141562000a8e5760405180604001604052806000815260200160001515815250600d60008c73ffffffffffffffffffffffffffffffffffffffff1673ffffffffffffffffffffffffffffffffffffffff1681526020019081526020016000206000820151816000015560208201518160010160006101000a81548160ff0219169083151502179055509050505b50505050505050505050565b600080fd5b6000819050919050565b62000ab48162000a9f565b811462000ac057600080fd5b50565b60008151905062000ad48162000aa9565b92915050565b60006020828403121562000af35762000af262000a9a565b5b600062000b038482850162000ac3565b91505092915050565b60008115159050919050565b62000b238162000b0c565b82525050565b600060208201905062000b40600083018462000b18565b92915050565b600073ffffffffffffffffffffffffffffffffffffffff82169050919050565b600062000b738262000b46565b9050919050565b62000b858162000b66565b82525050565b600060408201905062000ba2600083018562000b7a565b62000bb1602083018462000b18565b9392505050565b7f4e487b7100000000000000000000000000000000000000000000000000000000600052601160045260246000fd5b600062000bf48262000a9f565b915062000c018362000a9f565b9250827fffffffffffffffffffffffffffffffffffffffffffffffffffffffffffffffff0382111562000c395762000c3862000bb8565b5b828201905092915050565b600062000c518262000a9f565b915062000c5e8362000a9f565b92508282101562000c745762000c7362000bb8565b5b828203905092915050565b614c398062000c8f6000396000f3fe608060405234801561001057600080fd5b50600436106100ea5760003560e01c806382dc1ec41161008c5780639dc29fac116100665780639dc29fac146101f9578063a9059cbb14610215578063c4e41b2214610231578063d73dd6231461024f576100ea565b806382dc1ec4146101a35780638456cb59146101bf5780639b96eece146101c9576100ea565b80633f4ba83a116100c85780633f4ba83a1461015757806340c10f1914610161578063661884631461017d5780636ef8d66d14610199576100ea565b8063095ea7b3146100ef5780630af4187d1461010b57806323b872dd1461013b575b600080fd5b610109600480360381019061010491906147f2565b61026b565b005b61012560048036038101906101209190614832565b6102c6565b6040516101329190614881565b60405180910390f35b6101556004803603810190610150919061489c565b61038b565b005b61015f6103e8565b005b61017b600480360381019061017691906147f2565b61043f565b005b610197600480360381019061019291906147f2565b61049a565b005b6101a16104f5565b005b6101bd60048036038101906101b891906148ef565b61054c565b005b6101c76105a5565b005b6101e360048036038101906101de91906148ef565b6105fc565b6040516101f09190614881565b60405180910390f35b610213600480360381019061020e91906147f2565b610683565b005b61022f600480360381019061022a91906147f2565b6106de565b005b610239610739565b6040516102469190614881565b60405180910390f35b610269600480360381019061026491906147f2565b61074b565b005b600061027783836107a6565b90506000151581151514156102c1576040517f08c379a00000000000000000000000000000000000000000000000000000000081526004016102b890614979565b60405180910390fd5b505050565b600080601060008573ffffffffffffffffffffffffffffffffffffffff1673ffffffffffffffffffffffffffffffffffffffff16815260200190815260200160002060008473ffffffffffffffffffffffffffffffffffffffff1673ffffffffffffffffffffffffffffffffffffffff168152602001908152602001600020604051806040016040529081600082015481526020016001820160009054906101000a900460ff1615151515815250509050600081600001519050809250505092915050565b60006103988484846108c9565b90506000151581151514156103e2576040517f08c379a00000000000000000000000000000000000000000000000000000000081526004016103d990614979565b60405180910390fd5b50505050565b60006103f2610aab565b905060001515811515141561043c576040517f08c379a000000000000000000000000000000000000000000000000000000000815260040161043390614979565b60405180910390fd5b50565b600061044b8383610c14565b9050600015158115151415610495576040517f08c379a000000000000000000000000000000000000000000000000000000000815260040161048c90614979565b60405180910390fd5b505050565b60006104a68383610d2b565b90506000151581151514156104f0576040517f08c379a00000000000000000000000000000000000000000000000000000000081526004016104e790614979565b60405180910390fd5b505050565b60006104ff610e51565b9050600015158115151415610549576040517f08c379a000000000000000000000000000000000000000000000000000000000815260040161054090614979565b60405180910390fd5b50565b600061055782610fd8565b90506000151581151514156105a1576040517f08c379a000000000000000000000000000000000000000000000000000000000815260040161059890614979565b60405180910390fd5b5050565b60006105af611161565b90506000151581151514156105f9576040517f08c379a00000000000000000000000000000000000000000000000000000000081526004016105f090614979565b60405180910390fd5b50565b600080600d60008473ffffffffffffffffffffffffffffffffffffffff1673ffffffffffffffffffffffffffffffffffffffff168152602001908152602001600020604051806040016040529081600082015481526020016001820160009054906101000a900460ff16151515158152505090506000816000015190508092505050919050565b600061068f83836112ca565b90506000151581151514156106d9576040517f08c379a00000000000000000000000000000000000000000000000000000000081526004016106d090614979565b60405180910390fd5b505050565b60006106ea838361146e565b9050600015158115151415610734576040517f08c379a000000000000000000000000000000000000000000000000000000000815260040161072b90614979565b60405180910390fd5b505050565b60008060066000015490508091505090565b60006107578383611581565b90506000151581151514156107a1576040517f08c379a000000000000000000000000000000000000000000000000000000000815260040161079890614979565b60405180910390fd5b505050565b6000803390506000601060008373ffffffffffffffffffffffffffffffffffffffff1673ffffffffffffffffffffffffffffffffffffffff16815260200190815260200160002060008673ffffffffffffffffffffffffffffffffffffffff1673ffffffffffffffffffffffffffffffffffffffff168152602001908152602001600020604051806040016040529081600082015481526020016001820160009054906101000a900460ff16151515158152505090506000816000015190506000818661087391906149c8565b90506108808488836115d8565b7f01722f0e92ffd761d4a842cffdd36fe3adb6091e41732a4e714250176b7d8d228488836040516108b393929190614a0b565b60405180910390a1600194505050505092915050565b600080339050601160000160009054906101000a900460ff161515600015151415610a9e576000600d60008773ffffffffffffffffffffffffffffffffffffffff1673ffffffffffffffffffffffffffffffffffffffff168152602001908152602001600020604051806040016040529081600082015481526020016001820160009054906101000a900460ff16151515158152505090506000816000015190506000601060008973ffffffffffffffffffffffffffffffffffffffff1673ffffffffffffffffffffffffffffffffffffffff16815260200190815260200160002060008573ffffffffffffffffffffffffffffffffffffffff1673ffffffffffffffffffffffffffffffffffffffff168152602001908152602001600020604051806040016040529081600082015481526020016001820160009054906101000a900460ff1615151515815250509050600081600001519050868310158015610a335750868110155b15610a9957610a43898689611684565b610a4e898989611730565b7f5f7542858008eeb041631f30e6109ae94b83a58e9a58261dd2c42c508850f9398989878a604051610a839493929190614a42565b60405180910390a1600195505050505050610aa4565b505050505b60009150505b9392505050565b6000601160000160009054906101000a900460ff161515600115151415610c0c5760003390506000600a60008373ffffffffffffffffffffffffffffffffffffffff1673ffffffffffffffffffffffffffffffffffffffff1681526020019081526020016000206040518060400160405290816000820160009054906101000a900460ff161515151581526020016000820160019054906101000a900460ff161515151581525050905080600001511515600115151415610c0957604051806040016040528060001515815260200160011515815250601160008201518160000160006101000a81548160ff02191690831515021790555060208201518160000160016101000a81548160ff0219169083151502179055509050507f0e2fb031ee032dc02d8011dc50b816eb450cf856abd8261680dac74f72165bd26000604051610bf69190614aa2565b60405180910390a1600192505050610c11565b50505b600090505b90565b6000601160000160009054906101000a900460ff161515600015151415610d20576000600360000160009054906101000a900473ffffffffffffffffffffffffffffffffffffffff1690503373ffffffffffffffffffffffffffffffffffffffff168173ffffffffffffffffffffffffffffffffffffffff161415610d1e57600073ffffffffffffffffffffffffffffffffffffffff168473ffffffffffffffffffffffffffffffffffffffff1614610d1d57610cd18484611784565b610cda836117f1565b7f0f6798a560793a54c3bcfe86a93cde1e73087d944c0ea20544137d41213968858484604051610d0b929190614abd565b60405180910390a16001915050610d25565b5b505b600090505b92915050565b6000803390506000601060008373ffffffffffffffffffffffffffffffffffffffff1673ffffffffffffffffffffffffffffffffffffffff16815260200190815260200160002060008673ffffffffffffffffffffffffffffffffffffffff1673ffffffffffffffffffffffffffffffffffffffff168152602001908152602001600020604051806040016040529081600082015481526020016001820160009054906101000a900460ff1615151515815250509050600081600001519050848110610e4357610dfc83878761181f565b7f3fda289a93fbd447987ffc8940a1af71a1fad600cc184d06b56d4aa271393522838787604051610e2f93929190614a0b565b60405180910390a160019350505050610e4b565b600093505050505b92915050565b6000803390506000600a60008373ffffffffffffffffffffffffffffffffffffffff1673ffffffffffffffffffffffffffffffffffffffff1681526020019081526020016000206040518060400160405290816000820160009054906101000a900460ff161515151581526020016000820160019054906101000a900460ff161515151581525050905080600001511515600115151415610fce57604051806040016040528060001515815260200160011515815250600a60008473ffffffffffffffffffffffffffffffffffffffff1673ffffffffffffffffffffffffffffffffffffffff16815260200190815260200160002060008201518160000160006101000a81548160ff02191690831515021790555060208201518160000160016101000a81548160ff0219169083151502179055509050507f8ac9153754152e5b728b2c6bdaca961a07c94cfbf57278f89a9865679d90fe73826000604051610fbb929190614ae6565b60405180910390a1600192505050610fd5565b6000925050505b90565b6000803390506000600a60008373ffffffffffffffffffffffffffffffffffffffff1673ffffffffffffffffffffffffffffffffffffffff1681526020019081526020016000206040518060400160405290816000820160009054906101000a900460ff161515151581526020016000820160019054906101000a900460ff16151515158152505090508060000151151560011515141561115557604051806040016040528060011515815260200160011515815250600a60008673ffffffffffffffffffffffffffffffffffffffff1673ffffffffffffffffffffffffffffffffffffffff16815260200190815260200160002060008201518160000160006101000a81548160ff02191690831515021790555060208201518160000160016101000a81548160ff0219169083151502179055509050507f8ac9153754152e5b728b2c6bdaca961a07c94cfbf57278f89a9865679d90fe73846001604051611142929190614ae6565b60405180910390a160019250505061115c565b6000925050505b919050565b6000601160000160009054906101000a900460ff1615156000151514156112c25760003390506000600a60008373ffffffffffffffffffffffffffffffffffffffff1673ffffffffffffffffffffffffffffffffffffffff1681526020019081526020016000206040518060400160405290816000820160009054906101000a900460ff161515151581526020016000820160019054906101000a900460ff1615151515815250509050806000015115156001151514156112bf57604051806040016040528060011515815260200160011515815250601160008201518160000160006101000a81548160ff02191690831515021790555060208201518160000160016101000a81548160ff0219169083151502179055509050507f0e2fb031ee032dc02d8011dc50b816eb450cf856abd8261680dac74f72165bd260016040516112ac9190614aa2565b60405180910390a16001925050506112c7565b50505b600090505b90565b600080339050601160000160009054906101000a900460ff16151560001515141561146257600360000160009054906101000a900473ffffffffffffffffffffffffffffffffffffffff1673ffffffffffffffffffffffffffffffffffffffff168173ffffffffffffffffffffffffffffffffffffffff161415611461576000600d60008673ffffffffffffffffffffffffffffffffffffffff1673ffffffffffffffffffffffffffffffffffffffff168152602001908152602001600020604051806040016040529081600082015481526020016001820160009054906101000a900460ff1615151515815250509050600081600001519050600073ffffffffffffffffffffffffffffffffffffffff168673ffffffffffffffffffffffffffffffffffffffff16141580156114015750808511155b1561145e5761141086866118cb565b61141985611938565b7fcc16f5dbb4873280815c1ee09dbd06736cffcc184412cf7a71a0fdb75d397ca5868660405161144a929190614abd565b60405180910390a160019350505050611468565b50505b5b60009150505b92915050565b6000601160000160009054906101000a900460ff1615156000151514156115765760003390506000600d60008373ffffffffffffffffffffffffffffffffffffffff1673ffffffffffffffffffffffffffffffffffffffff168152602001908152602001600020604051806040016040529081600082015481526020016001820160009054906101000a900460ff1615151515815250509050600081600001519050808511611572576115218386611966565b61152b86866119d3565b7fddf252ad1be2c89b69c2b068fc378daa952ba7f163c4a11628f55a4df523b3ef83878760405161155e93929190614a0b565b60405180910390a16001935050505061157b565b5050505b600090505b92915050565b6000803390506115928185856115d8565b7f01722f0e92ffd761d4a842cffdd36fe3adb6091e41732a4e714250176b7d8d228185856040516115c593929190614a0b565b60405180910390a1600191505092915050565b60008190506115e8848483611a3f565b81600b60008673ffffffffffffffffffffffffffffffffffffffff1673ffffffffffffffffffffffffffffffffffffffff16815260200190815260200160002060008573ffffffffffffffffffffffffffffffffffffffff1673ffffffffffffffffffffffffffffffffffffffff16815260200190815260200160002060000160008282546116779190614b0f565b9250508190555050505050565b6000819050611694848483611ae3565b81600c60008673ffffffffffffffffffffffffffffffffffffffff1673ffffffffffffffffffffffffffffffffffffffff16815260200190815260200160002060008573ffffffffffffffffffffffffffffffffffffffff1673ffffffffffffffffffffffffffffffffffffffff16815260200190815260200160002060000160008282546117239190614b0f565b9250508190555050505050565b61173a82826119d3565b6117448382611966565b7fddf252ad1be2c89b69c2b068fc378daa952ba7f163c4a11628f55a4df523b3ef83838360405161177793929190614a0b565b60405180910390a1505050565b60008190506117938382611b87565b81600560008573ffffffffffffffffffffffffffffffffffffffff1673ffffffffffffffffffffffffffffffffffffffff16815260200190815260200160002060000160008282546117e59190614b0f565b92505081905550505050565b60008190506117ff81611bec565b81600860000160008282546118149190614b0f565b925050819055505050565b600081905061182f848483611c12565b81600460008673ffffffffffffffffffffffffffffffffffffffff1673ffffffffffffffffffffffffffffffffffffffff16815260200190815260200160002060008573ffffffffffffffffffffffffffffffffffffffff1673ffffffffffffffffffffffffffffffffffffffff16815260200190815260200160002060000160008282546118be9190614b0f565b9250508190555050505050565b60008190506118da8382611cb6565b81600260008573ffffffffffffffffffffffffffffffffffffffff1673ffffffffffffffffffffffffffffffffffffffff168152602001908152602001600020600001600082825461192c9190614b0f565b92505081905550505050565b600081905061194681611d1b565b81600e600001600082825461195b9190614b0f565b925050819055505050565b60008190506119758382611d41565b81600160008573ffffffffffffffffffffffffffffffffffffffff1673ffffffffffffffffffffffffffffffffffffffff16815260200190815260200160002060000160008282546119c79190614b0f565b92505081905550505050565b60008190506119e28382611da6565b816000808573ffffffffffffffffffffffffffffffffffffffff1673ffffffffffffffffffffffffffffffffffffffff1681526020019081526020016000206000016000828254611a339190614b0f565b92505081905550505050565b60008190506000611acf600b60008773ffffffffffffffffffffffffffffffffffffffff1673ffffffffffffffffffffffffffffffffffffffff16815260200190815260200160002060008673ffffffffffffffffffffffffffffffffffffffff1673ffffffffffffffffffffffffffffffffffffffff1681526020019081526020016000206000015483611e0a565b9050611adc858583611e31565b5050505050565b60008190506000611b73600c60008773ffffffffffffffffffffffffffffffffffffffff1673ffffffffffffffffffffffffffffffffffffffff16815260200190815260200160002060008673ffffffffffffffffffffffffffffffffffffffff1673ffffffffffffffffffffffffffffffffffffffff1681526020019081526020016000206000015483611e0a565b9050611b8085858361215b565b5050505050565b60008190506000611bda600560008673ffffffffffffffffffffffffffffffffffffffff1673ffffffffffffffffffffffffffffffffffffffff1681526020019081526020016000206000015483611e0a565b9050611be68482612485565b50505050565b60008190506000611c0260086000015483611e0a565b9050611c0d81612741565b505050565b60008190506000611ca2600460008773ffffffffffffffffffffffffffffffffffffffff1673ffffffffffffffffffffffffffffffffffffffff16815260200190815260200160002060008673ffffffffffffffffffffffffffffffffffffffff1673ffffffffffffffffffffffffffffffffffffffff1681526020019081526020016000206000015483611e0a565b9050611caf8585836127a7565b5050505050565b60008190506000611d09600260008673ffffffffffffffffffffffffffffffffffffffff1673ffffffffffffffffffffffffffffffffffffffff1681526020019081526020016000206000015483611e0a565b9050611d158482612ad1565b50505050565b60008190506000611d31600e6000015483611e0a565b9050611d3c81612d8d565b505050565b60008190506000611d94600160008673ffffffffffffffffffffffffffffffffffffffff1673ffffffffffffffffffffffffffffffffffffffff1681526020019081526020016000206000015483611e0a565b9050611da08482612df3565b50505050565b60008190506000611df86000808673ffffffffffffffffffffffffffffffffffffffff1673ffffffffffffffffffffffffffffffffffffffff1681526020019081526020016000206000015483611e0a565b9050611e0484826130af565b50505050565b60008083905060008382611e1e9190614b6f565b9050600081905080935050505092915050565b6000600b60008573ffffffffffffffffffffffffffffffffffffffff1673ffffffffffffffffffffffffffffffffffffffff16815260200190815260200160002060008473ffffffffffffffffffffffffffffffffffffffff1673ffffffffffffffffffffffffffffffffffffffff168152602001908152602001600020604051806040016040529081600082015481526020016001820160009054906101000a900460ff161515151581525050905060011515816020015115151415611f0257611f018484836000015161336b565b5b6000600460008673ffffffffffffffffffffffffffffffffffffffff1673ffffffffffffffffffffffffffffffffffffffff16815260200190815260200160002060008573ffffffffffffffffffffffffffffffffffffffff1673ffffffffffffffffffffffffffffffffffffffff168152602001908152602001600020604051806040016040529081600082015481526020016001820160009054906101000a900460ff16151515158152505090506000816000015190506000600c60008873ffffffffffffffffffffffffffffffffffffffff1673ffffffffffffffffffffffffffffffffffffffff16815260200190815260200160002060008773ffffffffffffffffffffffffffffffffffffffff1673ffffffffffffffffffffffffffffffffffffffff168152602001908152602001600020604051806040016040529081600082015481526020016001820160009054906101000a900460ff1615151515815250509050600081600001519050600083828861208391906149c8565b61208d91906149c8565b9050604051806040016040528082815260200160011515815250601060008b73ffffffffffffffffffffffffffffffffffffffff1673ffffffffffffffffffffffffffffffffffffffff16815260200190815260200160002060008a73ffffffffffffffffffffffffffffffffffffffff1673ffffffffffffffffffffffffffffffffffffffff1681526020019081526020016000206000820151816000015560208201518160010160006101000a81548160ff021916908315150217905550905050505050505050505050565b6000600c60008573ffffffffffffffffffffffffffffffffffffffff1673ffffffffffffffffffffffffffffffffffffffff16815260200190815260200160002060008473ffffffffffffffffffffffffffffffffffffffff1673ffffffffffffffffffffffffffffffffffffffff168152602001908152602001600020604051806040016040529081600082015481526020016001820160009054906101000a900460ff16151515158152505090506001151581602001511515141561222c5761222b84848360000151613682565b5b6000600460008673ffffffffffffffffffffffffffffffffffffffff1673ffffffffffffffffffffffffffffffffffffffff16815260200190815260200160002060008573ffffffffffffffffffffffffffffffffffffffff1673ffffffffffffffffffffffffffffffffffffffff168152602001908152602001600020604051806040016040529081600082015481526020016001820160009054906101000a900460ff16151515158152505090506000816000015190506000600b60008873ffffffffffffffffffffffffffffffffffffffff1673ffffffffffffffffffffffffffffffffffffffff16815260200190815260200160002060008773ffffffffffffffffffffffffffffffffffffffff1673ffffffffffffffffffffffffffffffffffffffff168152602001908152602001600020604051806040016040529081600082015481526020016001820160009054906101000a900460ff161515151581525050905060008160000151905060008387836123ad91906149c8565b6123b791906149c8565b9050604051806040016040528082815260200160011515815250601060008b73ffffffffffffffffffffffffffffffffffffffff1673ffffffffffffffffffffffffffffffffffffffff16815260200190815260200160002060008a73ffffffffffffffffffffffffffffffffffffffff1673ffffffffffffffffffffffffffffffffffffffff1681526020019081526020016000206000820151816000015560208201518160010160006101000a81548160ff021916908315150217905550905050505050505050505050565b6000600560008473ffffffffffffffffffffffffffffffffffffffff1673ffffffffffffffffffffffffffffffffffffffff168152602001908152602001600020604051806040016040529081600082015481526020016001820160009054906101000a900460ff16151515158152505090506001151581602001511515141561251857612517838260000151613999565b5b60008060008573ffffffffffffffffffffffffffffffffffffffff1673ffffffffffffffffffffffffffffffffffffffff168152602001908152602001600020604051806040016040529081600082015481526020016001820160009054906101000a900460ff16151515158152505090506000816000015190506000600160008773ffffffffffffffffffffffffffffffffffffffff1673ffffffffffffffffffffffffffffffffffffffff168152602001908152602001600020604051806040016040529081600082015481526020016001820160009054906101000a900460ff16151515158152505090506000816000015190506000600260008973ffffffffffffffffffffffffffffffffffffffff1673ffffffffffffffffffffffffffffffffffffffff168152602001908152602001600020604051806040016040529081600082015481526020016001820160009054906101000a900460ff161515151581525050905060008160000151905060008382878b61269b9190614b0f565b6126a591906149c8565b6126af91906149c8565b9050604051806040016040528082815260200160011515815250600d60008c73ffffffffffffffffffffffffffffffffffffffff1673ffffffffffffffffffffffffffffffffffffffff1681526020019081526020016000206000820151816000015560208201518160010160006101000a81548160ff02191690831515021790555090505050505050505050505050565b6000600e6000015490506000818361275991906149c8565b905060405180604001604052808281526020016001151581525060066000820151816000015560208201518160010160006101000a81548160ff021916908315150217905550905050505050565b6000600460008573ffffffffffffffffffffffffffffffffffffffff1673ffffffffffffffffffffffffffffffffffffffff16815260200190815260200160002060008473ffffffffffffffffffffffffffffffffffffffff1673ffffffffffffffffffffffffffffffffffffffff168152602001908152602001600020604051806040016040529081600082015481526020016001820160009054906101000a900460ff1615151515815250509050600115158160200151151514156128785761287784848360000151613c43565b5b6000600c60008673ffffffffffffffffffffffffffffffffffffffff1673ffffffffffffffffffffffffffffffffffffffff16815260200190815260200160002060008573ffffffffffffffffffffffffffffffffffffffff1673ffffffffffffffffffffffffffffffffffffffff168152602001908152602001600020604051806040016040529081600082015481526020016001820160009054906101000a900460ff16151515158152505090506000816000015190506000600b60008873ffffffffffffffffffffffffffffffffffffffff1673ffffffffffffffffffffffffffffffffffffffff16815260200190815260200160002060008773ffffffffffffffffffffffffffffffffffffffff1673ffffffffffffffffffffffffffffffffffffffff168152602001908152602001600020604051806040016040529081600082015481526020016001820160009054906101000a900460ff161515151581525050905060008160000151905060008684836129f991906149c8565b612a0391906149c8565b9050604051806040016040528082815260200160011515815250601060008b73ffffffffffffffffffffffffffffffffffffffff1673ffffffffffffffffffffffffffffffffffffffff16815260200190815260200160002060008a73ffffffffffffffffffffffffffffffffffffffff1673ffffffffffffffffffffffffffffffffffffffff1681526020019081526020016000206000820151816000015560208201518160010160006101000a81548160ff021916908315150217905550905050505050505050505050565b6000600260008473ffffffffffffffffffffffffffffffffffffffff1673ffffffffffffffffffffffffffffffffffffffff168152602001908152602001600020604051806040016040529081600082015481526020016001820160009054906101000a900460ff161515151581525050905060011515816020015115151415612b6457612b63838260000151613f5a565b5b60008060008573ffffffffffffffffffffffffffffffffffffffff1673ffffffffffffffffffffffffffffffffffffffff168152602001908152602001600020604051806040016040529081600082015481526020016001820160009054906101000a900460ff16151515158152505090506000816000015190506000600160008773ffffffffffffffffffffffffffffffffffffffff1673ffffffffffffffffffffffffffffffffffffffff168152602001908152602001600020604051806040016040529081600082015481526020016001820160009054906101000a900460ff16151515158152505090506000816000015190506000600560008973ffffffffffffffffffffffffffffffffffffffff1673ffffffffffffffffffffffffffffffffffffffff168152602001908152602001600020604051806040016040529081600082015481526020016001820160009054906101000a900460ff1615151515815250509050600081600001519050600083898784612ce79190614b0f565b612cf191906149c8565b612cfb91906149c8565b9050604051806040016040528082815260200160011515815250600d60008c73ffffffffffffffffffffffffffffffffffffffff1673ffffffffffffffffffffffffffffffffffffffff1681526020019081526020016000206000820151816000015560208201518160010160006101000a81548160ff02191690831515021790555090505050505050505050505050565b6000600860000154905060008282612da591906149c8565b905060405180604001604052808281526020016001151581525060066000820151816000015560208201518160010160006101000a81548160ff021916908315150217905550905050505050565b6000600160008473ffffffffffffffffffffffffffffffffffffffff1673ffffffffffffffffffffffffffffffffffffffff168152602001908152602001600020604051806040016040529081600082015481526020016001820160009054906101000a900460ff161515151581525050905060011515816020015115151415612e8657612e85838260000151614204565b5b60008060008573ffffffffffffffffffffffffffffffffffffffff1673ffffffffffffffffffffffffffffffffffffffff168152602001908152602001600020604051806040016040529081600082015481526020016001820160009054906101000a900460ff16151515158152505090506000816000015190506000600260008773ffffffffffffffffffffffffffffffffffffffff1673ffffffffffffffffffffffffffffffffffffffff168152602001908152602001600020604051806040016040529081600082015481526020016001820160009054906101000a900460ff16151515158152505090506000816000015190506000600560008973ffffffffffffffffffffffffffffffffffffffff1673ffffffffffffffffffffffffffffffffffffffff168152602001908152602001600020604051806040016040529081600082015481526020016001820160009054906101000a900460ff16151515158152505090506000816000015190506000888487846130099190614b0f565b61301391906149c8565b61301d91906149c8565b9050604051806040016040528082815260200160011515815250600d60008c73ffffffffffffffffffffffffffffffffffffffff1673ffffffffffffffffffffffffffffffffffffffff1681526020019081526020016000206000820151816000015560208201518160010160006101000a81548160ff02191690831515021790555090505050505050505050505050565b60008060008473ffffffffffffffffffffffffffffffffffffffff1673ffffffffffffffffffffffffffffffffffffffff168152602001908152602001600020604051806040016040529081600082015481526020016001820160009054906101000a900460ff161515151581525050905060011515816020015115151415613141576131408382600001516144ae565b5b6000600160008573ffffffffffffffffffffffffffffffffffffffff1673ffffffffffffffffffffffffffffffffffffffff168152602001908152602001600020604051806040016040529081600082015481526020016001820160009054906101000a900460ff16151515158152505090506000816000015190506000600260008773ffffffffffffffffffffffffffffffffffffffff1673ffffffffffffffffffffffffffffffffffffffff168152602001908152602001600020604051806040016040529081600082015481526020016001820160009054906101000a900460ff16151515158152505090506000816000015190506000600560008973ffffffffffffffffffffffffffffffffffffffff1673ffffffffffffffffffffffffffffffffffffffff168152602001908152602001600020604051806040016040529081600082015481526020016001820160009054906101000a900460ff1615151515815250509050600081600001519050600085848a846132c59190614b0f565b6132cf91906149c8565b6132d991906149c8565b9050604051806040016040528082815260200160011515815250600d60008c73ffffffffffffffffffffffffffffffffffffffff1673ffffffffffffffffffffffffffffffffffffffff1681526020019081526020016000206000820151816000015560208201518160010160006101000a81548160ff02191690831515021790555090505050505050505050505050565b6000600460008573ffffffffffffffffffffffffffffffffffffffff1673ffffffffffffffffffffffffffffffffffffffff16815260200190815260200160002060008473ffffffffffffffffffffffffffffffffffffffff1673ffffffffffffffffffffffffffffffffffffffff168152602001908152602001600020604051806040016040529081600082015481526020016001820160009054906101000a900460ff16151515158152505090506000816000015190506000600c60008773ffffffffffffffffffffffffffffffffffffffff1673ffffffffffffffffffffffffffffffffffffffff16815260200190815260200160002060008673ffffffffffffffffffffffffffffffffffffffff1673ffffffffffffffffffffffffffffffffffffffff168152602001908152602001600020604051806040016040529081600082015481526020016001820160009054906101000a900460ff161515151581525050905060008160000151905060008382876134ec91906149c8565b6134f691906149c8565b90506000601060008a73ffffffffffffffffffffffffffffffffffffffff1673ffffffffffffffffffffffffffffffffffffffff16815260200190815260200160002060008973ffffffffffffffffffffffffffffffffffffffff1673ffffffffffffffffffffffffffffffffffffffff168152602001908152602001600020604051806040016040529081600082015481526020016001820160009054906101000a900460ff161515151581525050905080600001518214156136775760405180604001604052806000815260200160001515815250601060008b73ffffffffffffffffffffffffffffffffffffffff1673ffffffffffffffffffffffffffffffffffffffff16815260200190815260200160002060008a73ffffffffffffffffffffffffffffffffffffffff1673ffffffffffffffffffffffffffffffffffffffff1681526020019081526020016000206000820151816000015560208201518160010160006101000a81548160ff0219169083151502179055509050505b505050505050505050565b6000600460008573ffffffffffffffffffffffffffffffffffffffff1673ffffffffffffffffffffffffffffffffffffffff16815260200190815260200160002060008473ffffffffffffffffffffffffffffffffffffffff1673ffffffffffffffffffffffffffffffffffffffff168152602001908152602001600020604051806040016040529081600082015481526020016001820160009054906101000a900460ff16151515158152505090506000816000015190506000600b60008773ffffffffffffffffffffffffffffffffffffffff1673ffffffffffffffffffffffffffffffffffffffff16815260200190815260200160002060008673ffffffffffffffffffffffffffffffffffffffff1673ffffffffffffffffffffffffffffffffffffffff168152602001908152602001600020604051806040016040529081600082015481526020016001820160009054906101000a900460ff1615151515815250509050600081600001519050600083868361380391906149c8565b61380d91906149c8565b90506000601060008a73ffffffffffffffffffffffffffffffffffffffff1673ffffffffffffffffffffffffffffffffffffffff16815260200190815260200160002060008973ffffffffffffffffffffffffffffffffffffffff1673ffffffffffffffffffffffffffffffffffffffff168152602001908152602001600020604051806040016040529081600082015481526020016001820160009054906101000a900460ff1615151515815250509050806000015182141561398e5760405180604001604052806000815260200160001515815250601060008b73ffffffffffffffffffffffffffffffffffffffff1673ffffffffffffffffffffffffffffffffffffffff16815260200190815260200160002060008a73ffffffffffffffffffffffffffffffffffffffff1673ffffffffffffffffffffffffffffffffffffffff1681526020019081526020016000206000820151816000015560208201518160010160006101000a81548160ff0219169083151502179055509050505b505050505050505050565b60008060008473ffffffffffffffffffffffffffffffffffffffff1673ffffffffffffffffffffffffffffffffffffffff168152602001908152602001600020604051806040016040529081600082015481526020016001820160009054906101000a900460ff16151515158152505090506000816000015190506000600160008673ffffffffffffffffffffffffffffffffffffffff1673ffffffffffffffffffffffffffffffffffffffff168152602001908152602001600020604051806040016040529081600082015481526020016001820160009054906101000a900460ff16151515158152505090506000816000015190506000600260008873ffffffffffffffffffffffffffffffffffffffff1673ffffffffffffffffffffffffffffffffffffffff168152602001908152602001600020604051806040016040529081600082015481526020016001820160009054906101000a900460ff161515151581525050905060008160000151905060008382878a613b1c9190614b0f565b613b2691906149c8565b613b3091906149c8565b90506000600d60008b73ffffffffffffffffffffffffffffffffffffffff1673ffffffffffffffffffffffffffffffffffffffff168152602001908152602001600020604051806040016040529081600082015481526020016001820160009054906101000a900460ff16151515158152505090508060000151821415613c375760405180604001604052806000815260200160001515815250600d60008c73ffffffffffffffffffffffffffffffffffffffff1673ffffffffffffffffffffffffffffffffffffffff1681526020019081526020016000206000820151816000015560208201518160010160006101000a81548160ff0219169083151502179055509050505b50505050505050505050565b6000600c60008573ffffffffffffffffffffffffffffffffffffffff1673ffffffffffffffffffffffffffffffffffffffff16815260200190815260200160002060008473ffffffffffffffffffffffffffffffffffffffff1673ffffffffffffffffffffffffffffffffffffffff168152602001908152602001600020604051806040016040529081600082015481526020016001820160009054906101000a900460ff16151515158152505090506000816000015190506000600b60008773ffffffffffffffffffffffffffffffffffffffff1673ffffffffffffffffffffffffffffffffffffffff16815260200190815260200160002060008673ffffffffffffffffffffffffffffffffffffffff1673ffffffffffffffffffffffffffffffffffffffff168152602001908152602001600020604051806040016040529081600082015481526020016001820160009054906101000a900460ff16151515158152505090506000816000015190506000858483613dc491906149c8565b613dce91906149c8565b90506000601060008a73ffffffffffffffffffffffffffffffffffffffff1673ffffffffffffffffffffffffffffffffffffffff16815260200190815260200160002060008973ffffffffffffffffffffffffffffffffffffffff1673ffffffffffffffffffffffffffffffffffffffff168152602001908152602001600020604051806040016040529081600082015481526020016001820160009054906101000a900460ff16151515158152505090508060000151821415613f4f5760405180604001604052806000815260200160001515815250601060008b73ffffffffffffffffffffffffffffffffffffffff1673ffffffffffffffffffffffffffffffffffffffff16815260200190815260200160002060008a73ffffffffffffffffffffffffffffffffffffffff1673ffffffffffffffffffffffffffffffffffffffff1681526020019081526020016000206000820151816000015560208201518160010160006101000a81548160ff0219169083151502179055509050505b505050505050505050565b60008060008473ffffffffffffffffffffffffffffffffffffffff1673ffffffffffffffffffffffffffffffffffffffff168152602001908152602001600020604051806040016040529081600082015481526020016001820160009054906101000a900460ff16151515158152505090506000816000015190506000600160008673ffffffffffffffffffffffffffffffffffffffff1673ffffffffffffffffffffffffffffffffffffffff168152602001908152602001600020604051806040016040529081600082015481526020016001820160009054906101000a900460ff16151515158152505090506000816000015190506000600560008873ffffffffffffffffffffffffffffffffffffffff1673ffffffffffffffffffffffffffffffffffffffff168152602001908152602001600020604051806040016040529081600082015481526020016001820160009054906101000a900460ff16151515158152505090506000816000015190506000838887846140dd9190614b0f565b6140e791906149c8565b6140f191906149c8565b90506000600d60008b73ffffffffffffffffffffffffffffffffffffffff1673ffffffffffffffffffffffffffffffffffffffff168152602001908152602001600020604051806040016040529081600082015481526020016001820160009054906101000a900460ff161515151581525050905080600001518214156141f85760405180604001604052806000815260200160001515815250600d60008c73ffffffffffffffffffffffffffffffffffffffff1673ffffffffffffffffffffffffffffffffffffffff1681526020019081526020016000206000820151816000015560208201518160010160006101000a81548160ff0219169083151502179055509050505b50505050505050505050565b60008060008473ffffffffffffffffffffffffffffffffffffffff1673ffffffffffffffffffffffffffffffffffffffff168152602001908152602001600020604051806040016040529081600082015481526020016001820160009054906101000a900460ff16151515158152505090506000816000015190506000600260008673ffffffffffffffffffffffffffffffffffffffff1673ffffffffffffffffffffffffffffffffffffffff168152602001908152602001600020604051806040016040529081600082015481526020016001820160009054906101000a900460ff16151515158152505090506000816000015190506000600560008873ffffffffffffffffffffffffffffffffffffffff1673ffffffffffffffffffffffffffffffffffffffff168152602001908152602001600020604051806040016040529081600082015481526020016001820160009054906101000a900460ff16151515158152505090506000816000015190506000878487846143879190614b0f565b61439191906149c8565b61439b91906149c8565b90506000600d60008b73ffffffffffffffffffffffffffffffffffffffff1673ffffffffffffffffffffffffffffffffffffffff168152602001908152602001600020604051806040016040529081600082015481526020016001820160009054906101000a900460ff161515151581525050905080600001518214156144a25760405180604001604052806000815260200160001515815250600d60008c73ffffffffffffffffffffffffffffffffffffffff1673ffffffffffffffffffffffffffffffffffffffff1681526020019081526020016000206000820151816000015560208201518160010160006101000a81548160ff0219169083151502179055509050505b50505050505050505050565b6000600160008473ffffffffffffffffffffffffffffffffffffffff1673ffffffffffffffffffffffffffffffffffffffff168152602001908152602001600020604051806040016040529081600082015481526020016001820160009054906101000a900460ff16151515158152505090506000816000015190506000600260008673ffffffffffffffffffffffffffffffffffffffff1673ffffffffffffffffffffffffffffffffffffffff168152602001908152602001600020604051806040016040529081600082015481526020016001820160009054906101000a900460ff16151515158152505090506000816000015190506000600560008873ffffffffffffffffffffffffffffffffffffffff1673ffffffffffffffffffffffffffffffffffffffff168152602001908152602001600020604051806040016040529081600082015481526020016001820160009054906101000a900460ff16151515158152505090506000816000015190506000858489846146329190614b0f565b61463c91906149c8565b61464691906149c8565b90506000600d60008b73ffffffffffffffffffffffffffffffffffffffff1673ffffffffffffffffffffffffffffffffffffffff168152602001908152602001600020604051806040016040529081600082015481526020016001820160009054906101000a900460ff1615151515815250509050806000015182141561474d5760405180604001604052806000815260200160001515815250600d60008c73ffffffffffffffffffffffffffffffffffffffff1673ffffffffffffffffffffffffffffffffffffffff1681526020019081526020016000206000820151816000015560208201518160010160006101000a81548160ff0219169083151502179055509050505b50505050505050505050565b600080fd5b600073ffffffffffffffffffffffffffffffffffffffff82169050919050565b60006147898261475e565b9050919050565b6147998161477e565b81146147a457600080fd5b50565b6000813590506147b681614790565b92915050565b6000819050919050565b6147cf816147bc565b81146147da57600080fd5b50565b6000813590506147ec816147c6565b92915050565b6000806040838503121561480957614808614759565b5b6000614817858286016147a7565b9250506020614828858286016147dd565b9150509250929050565b6000806040838503121561484957614848614759565b5b6000614857858286016147a7565b9250506020614868858286016147a7565b9150509250929050565b61487b816147bc565b82525050565b60006020820190506148966000830184614872565b92915050565b6000806000606084860312156148b5576148b4614759565b5b60006148c3868287016147a7565b93505060206148d4868287016147a7565b92505060406148e5868287016147dd565b9150509250925092565b60006020828403121561490557614904614759565b5b6000614913848285016147a7565b91505092915050565b600082825260208201905092915050565b7f52756c6520636f6e646974696f6e206661696c65640000000000000000000000600082015250565b600061496360158361491c565b915061496e8261492d565b602082019050919050565b6000602082019050818103600083015261499281614956565b9050919050565b7f4e487b7100000000000000000000000000000000000000000000000000000000600052601160045260246000fd5b60006149d3826147bc565b91506149de836147bc565b9250828210156149f1576149f0614999565b5b828203905092915050565b614a058161477e565b82525050565b6000606082019050614a2060008301866149fc565b614a2d60208301856149fc565b614a3a6040830184614872565b949350505050565b6000608082019050614a5760008301876149fc565b614a6460208301866149fc565b614a7160408301856149fc565b614a7e6060830184614872565b95945050505050565b60008115159050919050565b614a9c81614a87565b82525050565b6000602082019050614ab76000830184614a93565b92915050565b6000604082019050614ad260008301856149fc565b614adf6020830184614872565b9392505050565b6000604082019050614afb60008301856149fc565b614b086020830184614a93565b9392505050565b6000614b1a826147bc565b9150614b25836147bc565b9250827fffffffffffffffffffffffffffffffffffffffffffffffffffffffffffffffff03821115614b5a57614b59614999565b5b828201905092915050565b6000819050919050565b6000614b7a82614b65565b9150614b8583614b65565b9250817f7fffffffffffffffffffffffffffffffffffffffffffffffffffffffffffffff03831360008312151615614bc057614bbf614999565b5b817f8000000000000000000000000000000000000000000000000000000000000000038312600083121615614bf857614bf7614999565b5b82820190509291505056fea26469706673582212208f852b97f0e93d7888054538583157d8c890761dbdc117fe7ceeb266830c1ded64736f6c634300080c0033",
  "immutableReferences": {},
  "source": "contract Matic {\n  struct TotalInTuple {\n    uint n;\n    bool _valid;\n  }\n  struct TotalOutTuple {\n    uint n;\n    bool _valid;\n  }\n  struct OwnerTuple {\n    address p;\n    bool _valid;\n  }\n  struct DecreaseAllowanceTotalTuple {\n    uint m;\n    bool _valid;\n  }\n  struct TotalMintTuple {\n    uint n;\n    bool _valid;\n  }\n  struct TotalSupplyTuple {\n    uint n;\n    bool _valid;\n  }\n  struct AllMintTuple {\n    uint n;\n    bool _valid;\n  }\n  struct IsPauserTuple {\n    bool b;\n    bool _valid;\n  }\n  struct AllowanceTotalTuple {\n    uint m;\n    bool _valid;\n  }\n  struct SpentTotalTuple {\n    uint m;\n    bool _valid;\n  }\n  struct TotalBurnTuple {\n    uint n;\n    bool _valid;\n  }\n  struct BalanceOfTuple {\n    uint n;\n    bool _valid;\n  }\n  struct AllBurnTuple {\n    uint n;\n    bool _valid;\n  }\n  struct AllowanceTuple {\n    uint n;\n    bool _valid;\n  }\n  struct PausedTuple {\n    bool b;\n    bool _valid;\n  }\n  mapping(address=>TotalInTuple) totalIn;\n  mapping(address=>TotalOutTuple) totalOut;\n  mapping(address=>TotalBurnTuple) totalBurn;\n  OwnerTuple owner;\n  mapping(address=>mapping(address=>DecreaseAllowanceTotalTuple)) decreaseAllowanceTotal;\n  mapping(address=>TotalMintTuple) totalMint;\n  TotalSupplyTuple totalSupply;\n  AllMintTuple allMint;\n  mapping(address=>IsPauserTuple) isPauser;\n  mapping(address=>mapping(address=>AllowanceTotalTuple)) allowanceTotal;\n  mapping(address=>mapping(address=>SpentTotalTuple)) spentTotal;\n  mapping(address=>BalanceOfTuple) balanceOf;\n  AllBurnTuple allBurn;\n  mapping(address=>mapping(address=>AllowanceTuple)) allowance;\n  PausedTuple paused;\n  event Burn(address p,uint amount);\n  event Mint(address p,uint amount);\n  event DecreaseAllowance(address p,address s,uint n);\n  event IncreaseAllowance(address p,address s,uint n);\n  event IsPauser(address p,bool b);\n  event Transfer(address from,address to,uint amount);\n  event Paused(bool b);\n  event TransferFrom(address from,address to,address spender,uint amount);\n  constructor(uint n) public {\n    updatePausedOnInsertConstructor_r25();\n    updateBalanceOfOnInsertConstructor_r18(n);\n    updateIsPauserOnInsertConstructor_r22();\n    updateTotalBalancesOnInsertConstructor_r32(n);\n    updateTotalMintOnInsertConstructor_r20(n);\n    updateAllMintOnInsertConstructor_r12(n);\n    updateTotalSupplyOnInsertConstructor_r28(n);\n    updateOwnerOnInsertConstructor_r6();\n  }\n  function addPauser(address p) public    {\n      bool r5 = updateIsPauserOnInsertRecv_addPauser_r5(p);\n      if(r5==false) {\n        revert(\"Rule condition failed\");\n      }\n  }\n  function renouncePauser() public    {\n      bool r0 = updateIsPauserOnInsertRecv_renouncePauser_r0();\n      if(r0==false) {\n        revert(\"Rule condition failed\");\n      }\n  }\n  function getTotalSupply() public view  returns (uint) {\n      uint n = totalSupply.n;\n      return n;\n  }\n  function transferFrom(address from,address to,uint amount) public    {\n      bool r2 = updateTransferFromOnInsertRecv_transferFrom_r2(from,to,amount);\n      if(r2==false) {\n        revert(\"Rule condition failed\");\n      }\n  }\n  function transfer(address to,uint amount) public    {\n      bool r11 = updateTransferOnInsertRecv_transfer_r11(to,amount);\n      if(r11==false) {\n        revert(\"Rule condition failed\");\n      }\n  }\n  function approve(address s,uint n) public    {\n      bool r31 = updateIncreaseAllowanceOnInsertRecv_approve_r31(s,n);\n      if(r31==false) {\n        revert(\"Rule condition failed\");\n      }\n  }\n  function mint(address p,uint amount) public    {\n      bool r3 = updateMintOnInsertRecv_mint_r3(p,amount);\n      if(r3==false) {\n        revert(\"Rule condition failed\");\n      }\n  }\n  function unpause() public    {\n      bool r13 = updatePausedOnInsertRecv_unpause_r13();\n      if(r13==false) {\n        revert(\"Rule condition failed\");\n      }\n  }\n  function increaseApproval(address p,uint n) public    {\n      bool r10 = updateIncreaseAllowanceOnInsertRecv_increaseApproval_r10(p,n);\n      if(r10==false) {\n        revert(\"Rule condition failed\");\n      }\n  }\n  function decreaseApproval(address p,uint n) public    {\n      bool r17 = updateDecreaseAllowanceOnInsertRecv_decreaseApproval_r17(p,n);\n      if(r17==false) {\n        revert(\"Rule condition failed\");\n      }\n  }\n  function getBalanceOf(address p) public view  returns (uint) {\n      BalanceOfTuple memory balanceOfTuple = balanceOf[p];\n      uint n = balanceOfTuple.n;\n      return n;\n  }\n  function burn(address p,uint amount) public    {\n      bool r8 = updateBurnOnInsertRecv_burn_r8(p,amount);\n      if(r8==false) {\n        revert(\"Rule condition failed\");\n      }\n  }\n  function getAllowance(address p,address s) public view  returns (uint) {\n      AllowanceTuple memory allowanceTuple = allowance[p][s];\n      uint n = allowanceTuple.n;\n      return n;\n  }\n  function pause() public    {\n      bool r21 = updatePausedOnInsertRecv_pause_r21();\n      if(r21==false) {\n        revert(\"Rule condition failed\");\n      }\n  }\n  function updateAllMintOnInsertMint_r9(uint n) private    {\n      int delta1 = int(n);\n      updateTotalSupplyOnIncrementAllMint_r16(delta1);\n      allMint.n += n;\n  }\n  function updateTotalInOnInsertTransfer_r7(address p,uint n) private    {\n      int delta1 = int(n);\n      updateBalanceOfOnIncrementTotalIn_r26(p,delta1);\n      totalIn[p].n += n;\n  }\n  function updateTransferOnInsertTransferFrom_r1(address o,address r,uint n) private    {\n      updateTotalInOnInsertTransfer_r7(r,n);\n      updateTotalOutOnInsertTransfer_r23(o,n);\n      emit Transfer(o,r,n);\n  }\n  function updatePausedOnInsertConstructor_r25() private    {\n      paused = PausedTuple(false,true);\n      emit Paused(false);\n  }\n  function updateIncreaseAllowanceOnInsertRecv_increaseApproval_r10(address s,uint n) private   returns (bool) {\n      address o = msg.sender;\n      updateAllowanceTotalOnInsertIncreaseAllowance_r33(o,s,n);\n      emit IncreaseAllowance(o,s,n);\n      return true;\n      return false;\n  }\n  function updateIsPauserOnInsertConstructor_r22() private    {\n      address s = msg.sender;\n      isPauser[s] = IsPauserTuple(true,true);\n      emit IsPauser(s,true);\n  }\n  function updateTransferOnInsertRecv_transfer_r11(address r,uint n) private   returns (bool) {\n      if(false==paused.b) {\n        address s = msg.sender;\n        BalanceOfTuple memory balanceOfTuple = balanceOf[s];\n        uint m = balanceOfTuple.n;\n        if(n<=m) {\n          updateTotalOutOnInsertTransfer_r23(s,n);\n          updateTotalInOnInsertTransfer_r7(r,n);\n          emit Transfer(s,r,n);\n          return true;\n        }\n      }\n      return false;\n  }\n  function updateTotalBalancesOnInsertConstructor_r32(uint n) private    {\n      // Empty()\n  }\n  function updateBalanceOfOnInsertTotalMint_r26(address p,uint n) private    {\n      TotalMintTuple memory toDelete = totalMint[p];\n      if(toDelete._valid==true) {\n        updateBalanceOfOnDeleteTotalMint_r26(p,toDelete.n);\n      }\n      TotalInTuple memory totalInTuple = totalIn[p];\n      uint i = totalInTuple.n;\n      TotalOutTuple memory totalOutTuple = totalOut[p];\n      uint o = totalOutTuple.n;\n      TotalBurnTuple memory totalBurnTuple = totalBurn[p];\n      uint m = totalBurnTuple.n;\n      uint s = ((n+i)-m)-o;\n      balanceOf[p] = BalanceOfTuple(s,true);\n  }\n  function updateBalanceOfOnIncrementTotalBurn_r26(address p,int m) private    {\n      int _delta = int(m);\n      uint newValue = updateuintByint(totalBurn[p].n,_delta);\n      updateBalanceOfOnInsertTotalBurn_r26(p,newValue);\n  }\n  function updateTotalSupplyOnIncrementAllMint_r16(int m) private    {\n      int _delta = int(m);\n      uint newValue = updateuintByint(allMint.n,_delta);\n      updateTotalSupplyOnInsertAllMint_r16(newValue);\n  }\n  function updateTotalSupplyOnInsertConstructor_r28(uint n) private    {\n      totalSupply = TotalSupplyTuple(n,true);\n  }\n  function updateDecreaseAllowanceTotalOnInsertDecreaseAllowance_r4(address o,address s,uint n) private    {\n      int delta2 = int(n);\n      updateAllowanceOnIncrementDecreaseAllowanceTotal_r29(o,s,delta2);\n      decreaseAllowanceTotal[o][s].m += n;\n  }\n  function updateTotalBurnOnInsertBurn_r14(address p,uint n) private    {\n      int delta2 = int(n);\n      updateBalanceOfOnIncrementTotalBurn_r26(p,delta2);\n      totalBurn[p].n += n;\n  }\n  function updateAllowanceOnDeleteSpentTotal_r29(address o,address s,uint l) private    {\n      DecreaseAllowanceTotalTuple memory decreaseAllowanceTotalTuple = decreaseAllowanceTotal[o][s];\n      uint d = decreaseAllowanceTotalTuple.m;\n      AllowanceTotalTuple memory allowanceTotalTuple = allowanceTotal[o][s];\n      uint m = allowanceTotalTuple.m;\n      uint n = (m-l)-d;\n      AllowanceTuple memory allowanceTuple = allowance[o][s];\n      if(n==allowanceTuple.n) {\n        allowance[o][s] = AllowanceTuple(0,false);\n      }\n  }\n  function updateOwnerOnInsertConstructor_r6() private    {\n      address s = msg.sender;\n      owner = OwnerTuple(s,true);\n  }\n  function updatePausedOnInsertRecv_unpause_r13() private   returns (bool) {\n      if(true==paused.b) {\n        address s = msg.sender;\n        IsPauserTuple memory isPauserTuple = isPauser[s];\n        if(true==isPauserTuple.b) {\n          paused = PausedTuple(false,true);\n          emit Paused(false);\n          return true;\n        }\n      }\n      return false;\n  }\n  function updateBalanceOfOnDeleteTotalBurn_r26(address p,uint m) private    {\n      TotalInTuple memory totalInTuple = totalIn[p];\n      uint i = totalInTuple.n;\n      TotalOutTuple memory totalOutTuple = totalOut[p];\n      uint o = totalOutTuple.n;\n      TotalMintTuple memory totalMintTuple = totalMint[p];\n      uint n = totalMintTuple.n;\n      uint s = ((n+i)-m)-o;\n      BalanceOfTuple memory balanceOfTuple = balanceOf[p];\n      if(s==balanceOfTuple.n) {\n        balanceOf[p] = BalanceOfTuple(0,false);\n      }\n  }\n  function updateTotalSupplyOnInsertAllMint_r16(uint m) private    {\n      uint b = allBurn.n;\n      uint n = m-b;\n      totalSupply = TotalSupplyTuple(n,true);\n  }\n  function updateBalanceOfOnDeleteTotalIn_r26(address p,uint i) private    {\n      TotalOutTuple memory totalOutTuple = totalOut[p];\n      uint o = totalOutTuple.n;\n      TotalBurnTuple memory totalBurnTuple = totalBurn[p];\n      uint m = totalBurnTuple.n;\n      TotalMintTuple memory totalMintTuple = totalMint[p];\n      uint n = totalMintTuple.n;\n      uint s = ((n+i)-m)-o;\n      BalanceOfTuple memory balanceOfTuple = balanceOf[p];\n      if(s==balanceOfTuple.n) {\n        balanceOf[p] = BalanceOfTuple(0,false);\n      }\n  }\n  function updateBalanceOfOnInsertTotalBurn_r26(address p,uint m) private    {\n      TotalBurnTuple memory toDelete = totalBurn[p];\n      if(toDelete._valid==true) {\n        updateBalanceOfOnDeleteTotalBurn_r26(p,toDelete.n);\n      }\n      TotalInTuple memory totalInTuple = totalIn[p];\n      uint i = totalInTuple.n;\n      TotalOutTuple memory totalOutTuple = totalOut[p];\n      uint o = totalOutTuple.n;\n      TotalMintTuple memory totalMintTuple = totalMint[p];\n      uint n = totalMintTuple.n;\n      uint s = ((n+i)-m)-o;\n      balanceOf[p] = BalanceOfTuple(s,true);\n  }\n  function updateBalanceOfOnInsertConstructor_r18(uint n) private    {\n      address s = msg.sender;\n      balanceOf[s] = BalanceOfTuple(n,true);\n  }\n  function updateAllowanceOnInsertAllowanceTotal_r29(address o,address s,uint m) private    {\n      AllowanceTotalTuple memory toDelete = allowanceTotal[o][s];\n      if(toDelete._valid==true) {\n        updateAllowanceOnDeleteAllowanceTotal_r29(o,s,toDelete.m);\n      }\n      DecreaseAllowanceTotalTuple memory decreaseAllowanceTotalTuple = decreaseAllowanceTotal[o][s];\n      uint d = decreaseAllowanceTotalTuple.m;\n      SpentTotalTuple memory spentTotalTuple = spentTotal[o][s];\n      uint l = spentTotalTuple.m;\n      uint n = (m-l)-d;\n      allowance[o][s] = AllowanceTuple(n,true);\n  }\n  function updateBalanceOfOnIncrementTotalOut_r26(address p,int o) private    {\n      int _delta = int(o);\n      uint newValue = updateuintByint(totalOut[p].n,_delta);\n      updateBalanceOfOnInsertTotalOut_r26(p,newValue);\n  }\n  function updateIncreaseAllowanceOnInsertRecv_approve_r31(address s,uint n) private   returns (bool) {\n      address o = msg.sender;\n      AllowanceTuple memory allowanceTuple = allowance[o][s];\n      uint m = allowanceTuple.n;\n      uint d = n-m;\n      updateAllowanceTotalOnInsertIncreaseAllowance_r33(o,s,d);\n      emit IncreaseAllowance(o,s,d);\n      return true;\n      return false;\n  }\n  function updateAllowanceOnIncrementSpentTotal_r29(address o,address s,int l) private    {\n      int _delta = int(l);\n      uint newValue = updateuintByint(spentTotal[o][s].m,_delta);\n      updateAllowanceOnInsertSpentTotal_r29(o,s,newValue);\n  }\n  function updateuintByint(uint x,int delta) private   returns (uint) {\n      int convertedX = int(x);\n      int value = convertedX+delta;\n      uint convertedValue = uint(value);\n      return convertedValue;\n  }\n  function updateTotalOutOnInsertTransfer_r23(address p,uint n) private    {\n      int delta1 = int(n);\n      updateBalanceOfOnIncrementTotalOut_r26(p,delta1);\n      totalOut[p].n += n;\n  }\n  function updateTotalMintOnInsertConstructor_r20(uint n) private    {\n      address s = msg.sender;\n      updateBalanceOfOnInsertTotalMint_r26(s,n);\n      totalMint[s] = TotalMintTuple(n,true);\n  }\n  function updateSpentTotalOnInsertTransferFrom_r27(address o,address s,uint n) private    {\n      int delta1 = int(n);\n      updateAllowanceOnIncrementSpentTotal_r29(o,s,delta1);\n      spentTotal[o][s].m += n;\n  }\n  function updateDecreaseAllowanceOnInsertRecv_decreaseApproval_r17(address s,uint n) private   returns (bool) {\n      address o = msg.sender;\n      AllowanceTuple memory allowanceTuple = allowance[o][s];\n      uint m = allowanceTuple.n;\n      if(m>=n) {\n        updateDecreaseAllowanceTotalOnInsertDecreaseAllowance_r4(o,s,n);\n        emit DecreaseAllowance(o,s,n);\n        return true;\n      }\n      return false;\n  }\n  function updateTotalSupplyOnInsertAllBurn_r16(uint b) private    {\n      uint m = allMint.n;\n      uint n = m-b;\n      totalSupply = TotalSupplyTuple(n,true);\n  }\n  function updateBalanceOfOnIncrementTotalIn_r26(address p,int i) private    {\n      int _delta = int(i);\n      uint newValue = updateuintByint(totalIn[p].n,_delta);\n      updateBalanceOfOnInsertTotalIn_r26(p,newValue);\n  }\n  function updateBalanceOfOnDeleteTotalOut_r26(address p,uint o) private    {\n      TotalInTuple memory totalInTuple = totalIn[p];\n      uint i = totalInTuple.n;\n      TotalBurnTuple memory totalBurnTuple = totalBurn[p];\n      uint m = totalBurnTuple.n;\n      TotalMintTuple memory totalMintTuple = totalMint[p];\n      uint n = totalMintTuple.n;\n      uint s = ((n+i)-m)-o;\n      BalanceOfTuple memory balanceOfTuple = balanceOf[p];\n      if(s==balanceOfTuple.n) {\n        balanceOf[p] = BalanceOfTuple(0,false);\n      }\n  }\n  function updateBalanceOfOnIncrementTotalMint_r26(address p,int n) private    {\n      int _delta = int(n);\n      uint newValue = updateuintByint(totalMint[p].n,_delta);\n      updateBalanceOfOnInsertTotalMint_r26(p,newValue);\n  }\n  function updateIsPauserOnInsertRecv_addPauser_r5(address p) private   returns (bool) {\n      address s = msg.sender;\n      IsPauserTuple memory isPauserTuple = isPauser[s];\n      if(true==isPauserTuple.b) {\n        isPauser[p] = IsPauserTuple(true,true);\n        emit IsPauser(p,true);\n        return true;\n      }\n      return false;\n  }\n  function updateAllMintOnInsertConstructor_r12(uint n) private    {\n      updateTotalSupplyOnInsertAllMint_r16(n);\n      allMint = AllMintTuple(n,true);\n  }\n  function updateAllowanceOnInsertSpentTotal_r29(address o,address s,uint l) private    {\n      SpentTotalTuple memory toDelete = spentTotal[o][s];\n      if(toDelete._valid==true) {\n        updateAllowanceOnDeleteSpentTotal_r29(o,s,toDelete.m);\n      }\n      DecreaseAllowanceTotalTuple memory decreaseAllowanceTotalTuple = decreaseAllowanceTotal[o][s];\n      uint d = decreaseAllowanceTotalTuple.m;\n      AllowanceTotalTuple memory allowanceTotalTuple = allowanceTotal[o][s];\n      uint m = allowanceTotalTuple.m;\n      uint n = (m-l)-d;\n      allowance[o][s] = AllowanceTuple(n,true);\n  }\n  function updateAllowanceOnDeleteAllowanceTotal_r29(address o,address s,uint m) private    {\n      DecreaseAllowanceTotalTuple memory decreaseAllowanceTotalTuple = decreaseAllowanceTotal[o][s];\n      uint d = decreaseAllowanceTotalTuple.m;\n      SpentTotalTuple memory spentTotalTuple = spentTotal[o][s];\n      uint l = spentTotalTuple.m;\n      uint n = (m-l)-d;\n      AllowanceTuple memory allowanceTuple = allowance[o][s];\n      if(n==allowanceTuple.n) {\n        allowance[o][s] = AllowanceTuple(0,false);\n      }\n  }\n  function updateAllowanceTotalOnInsertIncreaseAllowance_r33(address o,address s,uint n) private    {\n      int delta2 = int(n);\n      updateAllowanceOnIncrementAllowanceTotal_r29(o,s,delta2);\n      allowanceTotal[o][s].m += n;\n  }\n  function updateIsPauserOnInsertRecv_renouncePauser_r0() private   returns (bool) {\n      address s = msg.sender;\n      IsPauserTuple memory isPauserTuple = isPauser[s];\n      if(true==isPauserTuple.b) {\n        isPauser[s] = IsPauserTuple(false,true);\n        emit IsPauser(s,false);\n        return true;\n      }\n      return false;\n  }\n  function updateTransferFromOnInsertRecv_transferFrom_r2(address o,address r,uint n) private   returns (bool) {\n      address s = msg.sender;\n      if(false==paused.b) {\n        BalanceOfTuple memory balanceOfTuple = balanceOf[o];\n        uint m = balanceOfTuple.n;\n        AllowanceTuple memory allowanceTuple = allowance[o][s];\n        uint k = allowanceTuple.n;\n        if(m>=n && k>=n) {\n          updateSpentTotalOnInsertTransferFrom_r27(o,s,n);\n          updateTransferOnInsertTransferFrom_r1(o,r,n);\n          emit TransferFrom(o,r,s,n);\n          return true;\n        }\n      }\n      return false;\n  }\n  function updateTotalMintOnInsertMint_r15(address p,uint n) private    {\n      int delta0 = int(n);\n      updateBalanceOfOnIncrementTotalMint_r26(p,delta0);\n      totalMint[p].n += n;\n  }\n  function updateAllowanceOnIncrementAllowanceTotal_r29(address o,address s,int m) private    {\n      int _delta = int(m);\n      uint newValue = updateuintByint(allowanceTotal[o][s].m,_delta);\n      updateAllowanceOnInsertAllowanceTotal_r29(o,s,newValue);\n  }\n  function updateBurnOnInsertRecv_burn_r8(address p,uint n) private   returns (bool) {\n      address s = msg.sender;\n      if(false==paused.b) {\n        if(s==owner.p) {\n          BalanceOfTuple memory balanceOfTuple = balanceOf[p];\n          uint m = balanceOfTuple.n;\n          if(p!=address(0) && n<=m) {\n            updateTotalBurnOnInsertBurn_r14(p,n);\n            updateAllBurnOnInsertBurn_r30(n);\n            emit Burn(p,n);\n            return true;\n          }\n        }\n      }\n      return false;\n  }\n  function updateBalanceOfOnDeleteTotalMint_r26(address p,uint n) private    {\n      TotalInTuple memory totalInTuple = totalIn[p];\n      uint i = totalInTuple.n;\n      TotalOutTuple memory totalOutTuple = totalOut[p];\n      uint o = totalOutTuple.n;\n      TotalBurnTuple memory totalBurnTuple = totalBurn[p];\n      uint m = totalBurnTuple.n;\n      uint s = ((n+i)-m)-o;\n      BalanceOfTuple memory balanceOfTuple = balanceOf[p];\n      if(s==balanceOfTuple.n) {\n        balanceOf[p] = BalanceOfTuple(0,false);\n      }\n  }\n  function updatePausedOnInsertRecv_pause_r21() private   returns (bool) {\n      if(false==paused.b) {\n        address s = msg.sender;\n        IsPauserTuple memory isPauserTuple = isPauser[s];\n        if(true==isPauserTuple.b) {\n          paused = PausedTuple(true,true);\n          emit Paused(true);\n          return true;\n        }\n      }\n      return false;\n  }\n  function updateBalanceOfOnInsertTotalIn_r26(address p,uint i) private    {\n      TotalInTuple memory toDelete = totalIn[p];\n      if(toDelete._valid==true) {\n        updateBalanceOfOnDeleteTotalIn_r26(p,toDelete.n);\n      }\n      TotalOutTuple memory totalOutTuple = totalOut[p];\n      uint o = totalOutTuple.n;\n      TotalBurnTuple memory totalBurnTuple = totalBurn[p];\n      uint m = totalBurnTuple.n;\n      TotalMintTuple memory totalMintTuple = totalMint[p];\n      uint n = totalMintTuple.n;\n      uint s = ((n+i)-m)-o;\n      balanceOf[p] = BalanceOfTuple(s,true);\n  }\n  function updateAllowanceOnDeleteDecreaseAllowanceTotal_r29(address o,address s,uint d) private    {\n      SpentTotalTuple memory spentTotalTuple = spentTotal[o][s];\n      uint l = spentTotalTuple.m;\n      AllowanceTotalTuple memory allowanceTotalTuple = allowanceTotal[o][s];\n      uint m = allowanceTotalTuple.m;\n      uint n = (m-l)-d;\n      AllowanceTuple memory allowanceTuple = allowance[o][s];\n      if(n==allowanceTuple.n) {\n        allowance[o][s] = AllowanceTuple(0,false);\n      }\n  }\n  function updateMintOnInsertRecv_mint_r3(address p,uint n) private   returns (bool) {\n      if(false==paused.b) {\n        address s = owner.p;\n        if(s==msg.sender) {\n          if(p!=address(0)) {\n            updateTotalMintOnInsertMint_r15(p,n);\n            updateAllMintOnInsertMint_r9(n);\n            emit Mint(p,n);\n            return true;\n          }\n        }\n      }\n      return false;\n  }\n  function updateAllowanceOnInsertDecreaseAllowanceTotal_r29(address o,address s,uint d) private    {\n      DecreaseAllowanceTotalTuple memory toDelete = decreaseAllowanceTotal[o][s];\n      if(toDelete._valid==true) {\n        updateAllowanceOnDeleteDecreaseAllowanceTotal_r29(o,s,toDelete.m);\n      }\n      SpentTotalTuple memory spentTotalTuple = spentTotal[o][s];\n      uint l = spentTotalTuple.m;\n      AllowanceTotalTuple memory allowanceTotalTuple = allowanceTotal[o][s];\n      uint m = allowanceTotalTuple.m;\n      uint n = (m-l)-d;\n      allowance[o][s] = AllowanceTuple(n,true);\n  }\n  function updateAllBurnOnInsertBurn_r30(uint n) private    {\n      int delta0 = int(n);\n      updateTotalSupplyOnIncrementAllBurn_r16(delta0);\n      allBurn.n += n;\n  }\n  function updateAllowanceOnIncrementDecreaseAllowanceTotal_r29(address o,address s,int d) private    {\n      int _delta = int(d);\n      uint newValue = updateuintByint(decreaseAllowanceTotal[o][s].m,_delta);\n      updateAllowanceOnInsertDecreaseAllowanceTotal_r29(o,s,newValue);\n  }\n  function updateTotalSupplyOnIncrementAllBurn_r16(int b) private    {\n      int _delta = int(b);\n      uint newValue = updateuintByint(allBurn.n,_delta);\n      updateTotalSupplyOnInsertAllBurn_r16(newValue);\n  }\n  function updateBalanceOfOnInsertTotalOut_r26(address p,uint o) private    {\n      TotalOutTuple memory toDelete = totalOut[p];\n      if(toDelete._valid==true) {\n        updateBalanceOfOnDeleteTotalOut_r26(p,toDelete.n);\n      }\n      TotalInTuple memory totalInTuple = totalIn[p];\n      uint i = totalInTuple.n;\n      TotalBurnTuple memory totalBurnTuple = totalBurn[p];\n      uint m = totalBurnTuple.n;\n      TotalMintTuple memory totalMintTuple = totalMint[p];\n      uint n = totalMintTuple.n;\n      uint s = ((n+i)-m)-o;\n      balanceOf[p] = BalanceOfTuple(s,true);\n  }\n}",
  "sourcePath": "/Users/ljy/Desktop/PENN/2023_summer/boon_dsc/smart-contracts/optimizations/full/contracts/matic.sol",
  "compiler": {
    "name": "solc",
    "version": "0.8.12+commit.f00d7308.Emscripten.clang"
  },
  "schemaVersion": "3.4.13",
  "updatedAt": "2023-07-26T04:37:45.813Z",
  "devdoc": {
    "kind": "dev",
    "methods": {},
    "version": 1
  },
  "userdoc": {
    "kind": "user",
    "methods": {},
    "version": 1
  }
}