{
  "contractName": "Matic",
  "abi": [
    {
      "inputs": [
        {
          "internalType": "uint256",
          "name": "n",
          "type": "uint256"
        }
      ],
      "stateMutability": "nonpayable",
      "type": "constructor"
    },
    {
      "anonymous": false,
      "inputs": [
        {
          "indexed": false,
          "internalType": "address",
          "name": "p",
          "type": "address"
        },
        {
          "indexed": false,
          "internalType": "uint256",
          "name": "amount",
          "type": "uint256"
        }
      ],
      "name": "Burn",
      "type": "event"
    },
    {
      "anonymous": false,
      "inputs": [
        {
          "indexed": false,
          "internalType": "address",
          "name": "p",
          "type": "address"
        },
        {
          "indexed": false,
          "internalType": "address",
          "name": "s",
          "type": "address"
        },
        {
          "indexed": false,
          "internalType": "uint256",
          "name": "n",
          "type": "uint256"
        }
      ],
      "name": "IncreaseAllowance",
      "type": "event"
    },
    {
      "anonymous": false,
      "inputs": [
        {
          "indexed": false,
          "internalType": "address",
          "name": "p",
          "type": "address"
        },
        {
          "indexed": false,
          "internalType": "bool",
          "name": "b",
          "type": "bool"
        }
      ],
      "name": "IsPauser",
      "type": "event"
    },
    {
      "anonymous": false,
      "inputs": [
        {
          "indexed": false,
          "internalType": "address",
          "name": "p",
          "type": "address"
        },
        {
          "indexed": false,
          "internalType": "uint256",
          "name": "amount",
          "type": "uint256"
        }
      ],
      "name": "Mint",
      "type": "event"
    },
    {
      "anonymous": false,
      "inputs": [
        {
          "indexed": false,
          "internalType": "bool",
          "name": "b",
          "type": "bool"
        }
      ],
      "name": "Paused",
      "type": "event"
    },
    {
      "anonymous": false,
      "inputs": [
        {
          "indexed": false,
          "internalType": "address",
          "name": "from",
          "type": "address"
        },
        {
          "indexed": false,
          "internalType": "address",
          "name": "to",
          "type": "address"
        },
        {
          "indexed": false,
          "internalType": "uint256",
          "name": "amount",
          "type": "uint256"
        }
      ],
      "name": "Transfer",
      "type": "event"
    },
    {
      "anonymous": false,
      "inputs": [
        {
          "indexed": false,
          "internalType": "address",
          "name": "from",
          "type": "address"
        },
        {
          "indexed": false,
          "internalType": "address",
          "name": "to",
          "type": "address"
        },
        {
          "indexed": false,
          "internalType": "address",
          "name": "spender",
          "type": "address"
        },
        {
          "indexed": false,
          "internalType": "uint256",
          "name": "amount",
          "type": "uint256"
        }
      ],
      "name": "TransferFrom",
      "type": "event"
    },
    {
      "inputs": [
        {
          "internalType": "address",
          "name": "p",
          "type": "address"
        },
        {
          "internalType": "uint256",
          "name": "amount",
          "type": "uint256"
        }
      ],
      "name": "burn",
      "outputs": [],
      "stateMutability": "nonpayable",
      "type": "function"
    },
    {
      "inputs": [],
      "name": "getTotalSupply",
      "outputs": [
        {
          "internalType": "uint256",
          "name": "",
          "type": "uint256"
        }
      ],
      "stateMutability": "view",
      "type": "function"
    },
    {
      "inputs": [
        {
          "internalType": "address",
          "name": "s",
          "type": "address"
        },
        {
          "internalType": "uint256",
          "name": "n",
          "type": "uint256"
        }
      ],
      "name": "approve",
      "outputs": [],
      "stateMutability": "nonpayable",
      "type": "function"
    },
    {
      "inputs": [
        {
          "internalType": "address",
          "name": "p",
          "type": "address"
        }
      ],
      "name": "addPauser",
      "outputs": [],
      "stateMutability": "nonpayable",
      "type": "function"
    },
    {
      "inputs": [
        {
          "internalType": "address",
          "name": "p",
          "type": "address"
        },
        {
          "internalType": "uint256",
          "name": "amount",
          "type": "uint256"
        }
      ],
      "name": "mint",
      "outputs": [],
      "stateMutability": "nonpayable",
      "type": "function"
    },
    {
      "inputs": [
        {
          "internalType": "address",
          "name": "p",
          "type": "address"
        },
        {
          "internalType": "address",
          "name": "s",
          "type": "address"
        }
      ],
      "name": "getAllowance",
      "outputs": [
        {
          "internalType": "uint256",
          "name": "",
          "type": "uint256"
        }
      ],
      "stateMutability": "view",
      "type": "function"
    },
    {
      "inputs": [],
      "name": "unpause",
      "outputs": [],
      "stateMutability": "nonpayable",
      "type": "function"
    },
    {
      "inputs": [
        {
          "internalType": "address",
          "name": "to",
          "type": "address"
        },
        {
          "internalType": "uint256",
          "name": "amount",
          "type": "uint256"
        }
      ],
      "name": "transfer",
      "outputs": [],
      "stateMutability": "nonpayable",
      "type": "function"
    },
    {
      "inputs": [
        {
          "internalType": "address",
          "name": "p",
          "type": "address"
        }
      ],
      "name": "renouncePauser",
      "outputs": [],
      "stateMutability": "nonpayable",
      "type": "function"
    },
    {
      "inputs": [
        {
          "internalType": "address",
          "name": "from",
          "type": "address"
        },
        {
          "internalType": "address",
          "name": "to",
          "type": "address"
        },
        {
          "internalType": "uint256",
          "name": "amount",
          "type": "uint256"
        }
      ],
      "name": "transferFrom",
      "outputs": [],
      "stateMutability": "nonpayable",
      "type": "function"
    },
    {
      "inputs": [],
      "name": "pause",
      "outputs": [],
      "stateMutability": "nonpayable",
      "type": "function"
    },
    {
      "inputs": [
        {
          "internalType": "address",
          "name": "p",
          "type": "address"
        }
      ],
      "name": "getBalanceOf",
      "outputs": [
        {
          "internalType": "uint256",
          "name": "",
          "type": "uint256"
        }
      ],
      "stateMutability": "view",
      "type": "function"
    }
  ],
  "bytecode": "0x60806040523480156200001157600080fd5b5060405162004ad638038062004ad6833981810160405281019062000037919062000ada565b6200004881620000c360201b60201c565b62000059816200015060201b60201c565b6200006a816200019a60201b60201c565b6200007a6200023960201b60201c565b6200008a620002db60201b60201c565b6200009b816200037760201b60201c565b620000ac816200037a60201b60201c565b620000bc620003d560201b60201c565b5062000c7f565b6000339050604051806040016040528083815260200160011515815250600c60008373ffffffffffffffffffffffffffffffffffffffff1673ffffffffffffffffffffffffffffffffffffffff1681526020019081526020016000206000820151816000015560208201518160010160006101000a81548160ff0219169083151502179055509050505050565b60405180604001604052808281526020016001151581525060056000820151816000015560208201518160010160006101000a81548160ff02191690831515021790555090505050565b6000339050620001b18183620004b660201b60201c565b604051806040016040528083815260200160011515815250600460008373ffffffffffffffffffffffffffffffffffffffff1673ffffffffffffffffffffffffffffffffffffffff1681526020019081526020016000206000820151816000015560208201518160010160006101000a81548160ff0219169083151502179055509050505050565b600033905060405180604001604052808273ffffffffffffffffffffffffffffffffffffffff16815260200160011515815250600360008201518160000160006101000a81548173ffffffffffffffffffffffffffffffffffffffff021916908373ffffffffffffffffffffffffffffffffffffffff16021790555060208201518160000160146101000a81548160ff02191690831515021790555090505050565b604051806040016040528060001515815260200160011515815250601060008201518160000160006101000a81548160ff02191690831515021790555060208201518160000160016101000a81548160ff0219169083151502179055509050507f0e2fb031ee032dc02d8011dc50b816eb450cf856abd8261680dac74f72165bd260006040516200036d919062000b29565b60405180910390a1565b50565b6200038b816200078160201b60201c565b60405180604001604052808281526020016001151581525060076000820151816000015560208201518160010160006101000a81548160ff02191690831515021790555090505050565b6000339050604051806040016040528060011515815260200160011515815250600960008373ffffffffffffffffffffffffffffffffffffffff1673ffffffffffffffffffffffffffffffffffffffff16815260200190815260200160002060008201518160000160006101000a81548160ff02191690831515021790555060208201518160000160016101000a81548160ff0219169083151502179055509050507f8ac9153754152e5b728b2c6bdaca961a07c94cfbf57278f89a9865679d90fe73816001604051620004ab92919062000b8b565b60405180910390a150565b6000600460008473ffffffffffffffffffffffffffffffffffffffff1673ffffffffffffffffffffffffffffffffffffffff168152602001908152602001600020604051806040016040529081600082015481526020016001820160009054906101000a900460ff161515151581525050905060011515816020015115151415620005525762000551838260000151620007e960201b60201c565b5b60008060008573ffffffffffffffffffffffffffffffffffffffff1673ffffffffffffffffffffffffffffffffffffffff168152602001908152602001600020604051806040016040529081600082015481526020016001820160009054906101000a900460ff16151515158152505090506000816000015190506000600160008773ffffffffffffffffffffffffffffffffffffffff1673ffffffffffffffffffffffffffffffffffffffff168152602001908152602001600020604051806040016040529081600082015481526020016001820160009054906101000a900460ff16151515158152505090506000816000015190506000600260008973ffffffffffffffffffffffffffffffffffffffff1673ffffffffffffffffffffffffffffffffffffffff168152602001908152602001600020604051806040016040529081600082015481526020016001820160009054906101000a900460ff161515151581525050905060008160000151905060008382878b620006d7919062000be7565b620006e3919062000c44565b620006ef919062000c44565b9050604051806040016040528082815260200160011515815250600c60008c73ffffffffffffffffffffffffffffffffffffffff1673ffffffffffffffffffffffffffffffffffffffff1681526020019081526020016000206000820151816000015560208201518160010160006101000a81548160ff02191690831515021790555090505050505050505050505050565b6000600d600001549050600081836200079b919062000c44565b905060405180604001604052808281526020016001151581525060056000820151816000015560208201518160010160006101000a81548160ff021916908315150217905550905050505050565b60008060008473ffffffffffffffffffffffffffffffffffffffff1673ffffffffffffffffffffffffffffffffffffffff168152602001908152602001600020604051806040016040529081600082015481526020016001820160009054906101000a900460ff16151515158152505090506000816000015190506000600160008673ffffffffffffffffffffffffffffffffffffffff1673ffffffffffffffffffffffffffffffffffffffff168152602001908152602001600020604051806040016040529081600082015481526020016001820160009054906101000a900460ff16151515158152505090506000816000015190506000600260008873ffffffffffffffffffffffffffffffffffffffff1673ffffffffffffffffffffffffffffffffffffffff168152602001908152602001600020604051806040016040529081600082015481526020016001820160009054906101000a900460ff161515151581525050905060008160000151905060008382878a6200096e919062000be7565b6200097a919062000c44565b62000986919062000c44565b90506000600c60008b73ffffffffffffffffffffffffffffffffffffffff1673ffffffffffffffffffffffffffffffffffffffff168152602001908152602001600020604051806040016040529081600082015481526020016001820160009054906101000a900460ff1615151515815250509050806000015182141562000a8e5760405180604001604052806000815260200160001515815250600c60008c73ffffffffffffffffffffffffffffffffffffffff1673ffffffffffffffffffffffffffffffffffffffff1681526020019081526020016000206000820151816000015560208201518160010160006101000a81548160ff0219169083151502179055509050505b50505050505050505050565b600080fd5b6000819050919050565b62000ab48162000a9f565b811462000ac057600080fd5b50565b60008151905062000ad48162000aa9565b92915050565b60006020828403121562000af35762000af262000a9a565b5b600062000b038482850162000ac3565b91505092915050565b60008115159050919050565b62000b238162000b0c565b82525050565b600060208201905062000b40600083018462000b18565b92915050565b600073ffffffffffffffffffffffffffffffffffffffff82169050919050565b600062000b738262000b46565b9050919050565b62000b858162000b66565b82525050565b600060408201905062000ba2600083018562000b7a565b62000bb1602083018462000b18565b9392505050565b7f4e487b7100000000000000000000000000000000000000000000000000000000600052601160045260246000fd5b600062000bf48262000a9f565b915062000c018362000a9f565b9250827fffffffffffffffffffffffffffffffffffffffffffffffffffffffffffffffff0382111562000c395762000c3862000bb8565b5b828201905092915050565b600062000c518262000a9f565b915062000c5e8362000a9f565b92508282101562000c745762000c7362000bb8565b5b828203905092915050565b613e478062000c8f6000396000f3fe608060405234801561001057600080fd5b50600436106100b45760003560e01c806382dc1ec41161007157806382dc1ec4146101635780638456cb591461017f5780639b96eece146101895780639dc29fac146101b9578063a9059cbb146101d5578063c4e41b22146101f1576100b4565b8063095ea7b3146100b95780630af4187d146100d557806323b872dd146101055780633f4ba83a1461012157806340c10f191461012b57806341eb24bb14610147575b600080fd5b6100d360048036038101906100ce9190613a00565b61020f565b005b6100ef60048036038101906100ea9190613a40565b61026a565b6040516100fc9190613a8f565b60405180910390f35b61011f600480360381019061011a9190613aaa565b61032f565b005b61012961038c565b005b61014560048036038101906101409190613a00565b6103e3565b005b610161600480360381019061015c9190613afd565b61043e565b005b61017d60048036038101906101789190613afd565b610497565b005b6101876104f0565b005b6101a3600480360381019061019e9190613afd565b610547565b6040516101b09190613a8f565b60405180910390f35b6101d360048036038101906101ce9190613a00565b6105ce565b005b6101ef60048036038101906101ea9190613a00565b610629565b005b6101f9610684565b6040516102069190613a8f565b60405180910390f35b600061021b8383610696565b9050600015158115151415610265576040517f08c379a000000000000000000000000000000000000000000000000000000000815260040161025c90613b87565b60405180910390fd5b505050565b600080600f60008573ffffffffffffffffffffffffffffffffffffffff1673ffffffffffffffffffffffffffffffffffffffff16815260200190815260200160002060008473ffffffffffffffffffffffffffffffffffffffff1673ffffffffffffffffffffffffffffffffffffffff168152602001908152602001600020604051806040016040529081600082015481526020016001820160009054906101000a900460ff1615151515815250509050600081600001519050809250505092915050565b600061033c8484846107b9565b9050600015158115151415610386576040517f08c379a000000000000000000000000000000000000000000000000000000000815260040161037d90613b87565b60405180910390fd5b50505050565b600061039661099b565b90506000151581151514156103e0576040517f08c379a00000000000000000000000000000000000000000000000000000000081526004016103d790613b87565b60405180910390fd5b50565b60006103ef8383610aa5565b9050600015158115151415610439576040517f08c379a000000000000000000000000000000000000000000000000000000000815260040161043090613b87565b60405180910390fd5b505050565b600061044982610bbc565b9050600015158115151415610493576040517f08c379a000000000000000000000000000000000000000000000000000000000815260040161048a90613b87565b60405180910390fd5b5050565b60006104a282610d45565b90506000151581151514156104ec576040517f08c379a00000000000000000000000000000000000000000000000000000000081526004016104e390613b87565b60405180910390fd5b5050565b60006104fa610ece565b9050600015158115151415610544576040517f08c379a000000000000000000000000000000000000000000000000000000000815260040161053b90613b87565b60405180910390fd5b50565b600080600c60008473ffffffffffffffffffffffffffffffffffffffff1673ffffffffffffffffffffffffffffffffffffffff168152602001908152602001600020604051806040016040529081600082015481526020016001820160009054906101000a900460ff16151515158152505090506000816000015190508092505050919050565b60006105da8383610fd8565b9050600015158115151415610624576040517f08c379a000000000000000000000000000000000000000000000000000000000815260040161061b90613b87565b60405180910390fd5b505050565b6000610635838361117c565b905060001515811515141561067f576040517f08c379a000000000000000000000000000000000000000000000000000000000815260040161067690613b87565b60405180910390fd5b505050565b60008060056000015490508091505090565b6000803390506000600f60008373ffffffffffffffffffffffffffffffffffffffff1673ffffffffffffffffffffffffffffffffffffffff16815260200190815260200160002060008673ffffffffffffffffffffffffffffffffffffffff1673ffffffffffffffffffffffffffffffffffffffff168152602001908152602001600020604051806040016040529081600082015481526020016001820160009054906101000a900460ff1615151515815250509050600081600001519050600081866107639190613bd6565b905061077084888361128f565b7f01722f0e92ffd761d4a842cffdd36fe3adb6091e41732a4e714250176b7d8d228488836040516107a393929190613c19565b60405180910390a1600194505050505092915050565b600080339050601060000160009054906101000a900460ff16151560001515141561098e576000600c60008773ffffffffffffffffffffffffffffffffffffffff1673ffffffffffffffffffffffffffffffffffffffff168152602001908152602001600020604051806040016040529081600082015481526020016001820160009054906101000a900460ff16151515158152505090506000816000015190506000600f60008973ffffffffffffffffffffffffffffffffffffffff1673ffffffffffffffffffffffffffffffffffffffff16815260200190815260200160002060008573ffffffffffffffffffffffffffffffffffffffff1673ffffffffffffffffffffffffffffffffffffffff168152602001908152602001600020604051806040016040529081600082015481526020016001820160009054906101000a900460ff16151515158152505090506000816000015190508683101580156109235750868110155b156109895761093389898961133b565b61093e89868961138f565b7f5f7542858008eeb041631f30e6109ae94b83a58e9a58261dd2c42c508850f9398989878a6040516109739493929190613c50565b60405180910390a1600195505050505050610994565b505050505b60009150505b9392505050565b600080600360000160009054906101000a900473ffffffffffffffffffffffffffffffffffffffff1690503373ffffffffffffffffffffffffffffffffffffffff168173ffffffffffffffffffffffffffffffffffffffff161415610a9c57604051806040016040528060001515815260200160011515815250601060008201518160000160006101000a81548160ff02191690831515021790555060208201518160000160016101000a81548160ff0219169083151502179055509050507f0e2fb031ee032dc02d8011dc50b816eb450cf856abd8261680dac74f72165bd26000604051610a8a9190613cb0565b60405180910390a16001915050610aa2565b60009150505b90565b6000601060000160009054906101000a900460ff161515600015151415610bb1576000600360000160009054906101000a900473ffffffffffffffffffffffffffffffffffffffff1690503373ffffffffffffffffffffffffffffffffffffffff168173ffffffffffffffffffffffffffffffffffffffff161415610baf57600073ffffffffffffffffffffffffffffffffffffffff168473ffffffffffffffffffffffffffffffffffffffff1614610bae57610b618361143b565b610b6b8484611469565b7f0f6798a560793a54c3bcfe86a93cde1e73087d944c0ea20544137d41213968858484604051610b9c929190613ccb565b60405180910390a16001915050610bb6565b5b505b600090505b92915050565b6000803390506000600960008373ffffffffffffffffffffffffffffffffffffffff1673ffffffffffffffffffffffffffffffffffffffff1681526020019081526020016000206040518060400160405290816000820160009054906101000a900460ff161515151581526020016000820160019054906101000a900460ff161515151581525050905080600001511515600115151415610d3957604051806040016040528060001515815260200160011515815250600960008673ffffffffffffffffffffffffffffffffffffffff1673ffffffffffffffffffffffffffffffffffffffff16815260200190815260200160002060008201518160000160006101000a81548160ff02191690831515021790555060208201518160000160016101000a81548160ff0219169083151502179055509050507f8ac9153754152e5b728b2c6bdaca961a07c94cfbf57278f89a9865679d90fe73846000604051610d26929190613cf4565b60405180910390a1600192505050610d40565b6000925050505b919050565b6000803390506000600960008373ffffffffffffffffffffffffffffffffffffffff1673ffffffffffffffffffffffffffffffffffffffff1681526020019081526020016000206040518060400160405290816000820160009054906101000a900460ff161515151581526020016000820160019054906101000a900460ff161515151581525050905080600001511515600115151415610ec257604051806040016040528060011515815260200160011515815250600960008673ffffffffffffffffffffffffffffffffffffffff1673ffffffffffffffffffffffffffffffffffffffff16815260200190815260200160002060008201518160000160006101000a81548160ff02191690831515021790555060208201518160000160016101000a81548160ff0219169083151502179055509050507f8ac9153754152e5b728b2c6bdaca961a07c94cfbf57278f89a9865679d90fe73846001604051610eaf929190613cf4565b60405180910390a1600192505050610ec9565b6000925050505b919050565b600080600360000160009054906101000a900473ffffffffffffffffffffffffffffffffffffffff1690503373ffffffffffffffffffffffffffffffffffffffff168173ffffffffffffffffffffffffffffffffffffffff161415610fcf57604051806040016040528060011515815260200160011515815250601060008201518160000160006101000a81548160ff02191690831515021790555060208201518160000160016101000a81548160ff0219169083151502179055509050507f0e2fb031ee032dc02d8011dc50b816eb450cf856abd8261680dac74f72165bd26001604051610fbd9190613cb0565b60405180910390a16001915050610fd5565b60009150505b90565b600080339050601060000160009054906101000a900460ff16151560001515141561117057600360000160009054906101000a900473ffffffffffffffffffffffffffffffffffffffff1673ffffffffffffffffffffffffffffffffffffffff168173ffffffffffffffffffffffffffffffffffffffff16141561116f576000600c60008673ffffffffffffffffffffffffffffffffffffffff1673ffffffffffffffffffffffffffffffffffffffff168152602001908152602001600020604051806040016040529081600082015481526020016001820160009054906101000a900460ff1615151515815250509050600081600001519050600073ffffffffffffffffffffffffffffffffffffffff168673ffffffffffffffffffffffffffffffffffffffff161415801561110f5750808511155b1561116c5761111e86866114d6565b61112785611543565b7fcc16f5dbb4873280815c1ee09dbd06736cffcc184412cf7a71a0fdb75d397ca58686604051611158929190613ccb565b60405180910390a160019350505050611176565b50505b5b60009150505b92915050565b6000601060000160009054906101000a900460ff1615156000151514156112845760003390506000600c60008373ffffffffffffffffffffffffffffffffffffffff1673ffffffffffffffffffffffffffffffffffffffff168152602001908152602001600020604051806040016040529081600082015481526020016001820160009054906101000a900460ff16151515158152505090506000816000015190508085116112805761122f8686611571565b61123983866115dd565b7fddf252ad1be2c89b69c2b068fc378daa952ba7f163c4a11628f55a4df523b3ef83878760405161126c93929190613c19565b60405180910390a160019350505050611289565b5050505b600090505b92915050565b600081905061129f84848361164a565b81600a60008673ffffffffffffffffffffffffffffffffffffffff1673ffffffffffffffffffffffffffffffffffffffff16815260200190815260200160002060008573ffffffffffffffffffffffffffffffffffffffff1673ffffffffffffffffffffffffffffffffffffffff168152602001908152602001600020600001600082825461132e9190613d1d565b9250508190555050505050565b6113458282611571565b61134f83826115dd565b7fddf252ad1be2c89b69c2b068fc378daa952ba7f163c4a11628f55a4df523b3ef83838360405161138293929190613c19565b60405180910390a1505050565b600081905061139f8484836116ee565b81600b60008673ffffffffffffffffffffffffffffffffffffffff1673ffffffffffffffffffffffffffffffffffffffff16815260200190815260200160002060008573ffffffffffffffffffffffffffffffffffffffff1673ffffffffffffffffffffffffffffffffffffffff168152602001908152602001600020600001600082825461142e9190613d1d565b9250508190555050505050565b600081905061144981611792565b816007600001600082825461145e9190613d1d565b925050819055505050565b600081905061147883826117b8565b81600460008573ffffffffffffffffffffffffffffffffffffffff1673ffffffffffffffffffffffffffffffffffffffff16815260200190815260200160002060000160008282546114ca9190613d1d565b92505081905550505050565b60008190506114e5838261181d565b81600260008573ffffffffffffffffffffffffffffffffffffffff1673ffffffffffffffffffffffffffffffffffffffff16815260200190815260200160002060000160008282546115379190613d1d565b92505081905550505050565b600081905061155181611882565b81600d60000160008282546115669190613d1d565b925050819055505050565b600081905061158083826118a8565b816000808573ffffffffffffffffffffffffffffffffffffffff1673ffffffffffffffffffffffffffffffffffffffff16815260200190815260200160002060000160008282546115d19190613d1d565b92505081905550505050565b60008190506115ec838261190c565b81600160008573ffffffffffffffffffffffffffffffffffffffff1673ffffffffffffffffffffffffffffffffffffffff168152602001908152602001600020600001600082825461163e9190613d1d565b92505081905550505050565b600081905060006116da600a60008773ffffffffffffffffffffffffffffffffffffffff1673ffffffffffffffffffffffffffffffffffffffff16815260200190815260200160002060008673ffffffffffffffffffffffffffffffffffffffff1673ffffffffffffffffffffffffffffffffffffffff1681526020019081526020016000206000015483611971565b90506116e7858583611998565b5050505050565b6000819050600061177e600b60008773ffffffffffffffffffffffffffffffffffffffff1673ffffffffffffffffffffffffffffffffffffffff16815260200190815260200160002060008673ffffffffffffffffffffffffffffffffffffffff1673ffffffffffffffffffffffffffffffffffffffff1681526020019081526020016000206000015483611971565b905061178b858583611bfc565b5050505050565b600081905060006117a860076000015483611971565b90506117b381611e60565b505050565b6000819050600061180b600460008673ffffffffffffffffffffffffffffffffffffffff1673ffffffffffffffffffffffffffffffffffffffff1681526020019081526020016000206000015483611971565b90506118178482611ec6565b50505050565b60008190506000611870600260008673ffffffffffffffffffffffffffffffffffffffff1673ffffffffffffffffffffffffffffffffffffffff1681526020019081526020016000206000015483611971565b905061187c8482612182565b50505050565b60008190506000611898600d6000015483611971565b90506118a38161243e565b505050565b600081905060006118fa6000808673ffffffffffffffffffffffffffffffffffffffff1673ffffffffffffffffffffffffffffffffffffffff1681526020019081526020016000206000015483611971565b905061190684826124a4565b50505050565b6000819050600061195f600160008673ffffffffffffffffffffffffffffffffffffffff1673ffffffffffffffffffffffffffffffffffffffff1681526020019081526020016000206000015483611971565b905061196b8482612760565b50505050565b600080839050600083826119859190613d7d565b9050600081905080935050505092915050565b6000600a60008573ffffffffffffffffffffffffffffffffffffffff1673ffffffffffffffffffffffffffffffffffffffff16815260200190815260200160002060008473ffffffffffffffffffffffffffffffffffffffff1673ffffffffffffffffffffffffffffffffffffffff168152602001908152602001600020604051806040016040529081600082015481526020016001820160009054906101000a900460ff161515151581525050905060011515816020015115151415611a6957611a6884848360000151612a1c565b5b6000600b60008673ffffffffffffffffffffffffffffffffffffffff1673ffffffffffffffffffffffffffffffffffffffff16815260200190815260200160002060008573ffffffffffffffffffffffffffffffffffffffff1673ffffffffffffffffffffffffffffffffffffffff168152602001908152602001600020604051806040016040529081600082015481526020016001820160009054906101000a900460ff161515151581525050905060008160000151905060008185611b309190613bd6565b9050604051806040016040528082815260200160011515815250600f60008973ffffffffffffffffffffffffffffffffffffffff1673ffffffffffffffffffffffffffffffffffffffff16815260200190815260200160002060008873ffffffffffffffffffffffffffffffffffffffff1673ffffffffffffffffffffffffffffffffffffffff1681526020019081526020016000206000820151816000015560208201518160010160006101000a81548160ff02191690831515021790555090505050505050505050565b6000600b60008573ffffffffffffffffffffffffffffffffffffffff1673ffffffffffffffffffffffffffffffffffffffff16815260200190815260200160002060008473ffffffffffffffffffffffffffffffffffffffff1673ffffffffffffffffffffffffffffffffffffffff168152602001908152602001600020604051806040016040529081600082015481526020016001820160009054906101000a900460ff161515151581525050905060011515816020015115151415611ccd57611ccc84848360000151612c6d565b5b6000600a60008673ffffffffffffffffffffffffffffffffffffffff1673ffffffffffffffffffffffffffffffffffffffff16815260200190815260200160002060008573ffffffffffffffffffffffffffffffffffffffff1673ffffffffffffffffffffffffffffffffffffffff168152602001908152602001600020604051806040016040529081600082015481526020016001820160009054906101000a900460ff161515151581525050905060008160000151905060008482611d949190613bd6565b9050604051806040016040528082815260200160011515815250600f60008973ffffffffffffffffffffffffffffffffffffffff1673ffffffffffffffffffffffffffffffffffffffff16815260200190815260200160002060008873ffffffffffffffffffffffffffffffffffffffff1673ffffffffffffffffffffffffffffffffffffffff1681526020019081526020016000206000820151816000015560208201518160010160006101000a81548160ff02191690831515021790555090505050505050505050565b6000600d60000154905060008183611e789190613bd6565b905060405180604001604052808281526020016001151581525060056000820151816000015560208201518160010160006101000a81548160ff021916908315150217905550905050505050565b6000600460008473ffffffffffffffffffffffffffffffffffffffff1673ffffffffffffffffffffffffffffffffffffffff168152602001908152602001600020604051806040016040529081600082015481526020016001820160009054906101000a900460ff161515151581525050905060011515816020015115151415611f5957611f58838260000151612ebe565b5b60008060008573ffffffffffffffffffffffffffffffffffffffff1673ffffffffffffffffffffffffffffffffffffffff168152602001908152602001600020604051806040016040529081600082015481526020016001820160009054906101000a900460ff16151515158152505090506000816000015190506000600160008773ffffffffffffffffffffffffffffffffffffffff1673ffffffffffffffffffffffffffffffffffffffff168152602001908152602001600020604051806040016040529081600082015481526020016001820160009054906101000a900460ff16151515158152505090506000816000015190506000600260008973ffffffffffffffffffffffffffffffffffffffff1673ffffffffffffffffffffffffffffffffffffffff168152602001908152602001600020604051806040016040529081600082015481526020016001820160009054906101000a900460ff161515151581525050905060008160000151905060008382878b6120dc9190613d1d565b6120e69190613bd6565b6120f09190613bd6565b9050604051806040016040528082815260200160011515815250600c60008c73ffffffffffffffffffffffffffffffffffffffff1673ffffffffffffffffffffffffffffffffffffffff1681526020019081526020016000206000820151816000015560208201518160010160006101000a81548160ff02191690831515021790555090505050505050505050505050565b6000600260008473ffffffffffffffffffffffffffffffffffffffff1673ffffffffffffffffffffffffffffffffffffffff168152602001908152602001600020604051806040016040529081600082015481526020016001820160009054906101000a900460ff16151515158152505090506001151581602001511515141561221557612214838260000151613168565b5b60008060008573ffffffffffffffffffffffffffffffffffffffff1673ffffffffffffffffffffffffffffffffffffffff168152602001908152602001600020604051806040016040529081600082015481526020016001820160009054906101000a900460ff16151515158152505090506000816000015190506000600160008773ffffffffffffffffffffffffffffffffffffffff1673ffffffffffffffffffffffffffffffffffffffff168152602001908152602001600020604051806040016040529081600082015481526020016001820160009054906101000a900460ff16151515158152505090506000816000015190506000600460008973ffffffffffffffffffffffffffffffffffffffff1673ffffffffffffffffffffffffffffffffffffffff168152602001908152602001600020604051806040016040529081600082015481526020016001820160009054906101000a900460ff16151515158152505090506000816000015190506000838987846123989190613d1d565b6123a29190613bd6565b6123ac9190613bd6565b9050604051806040016040528082815260200160011515815250600c60008c73ffffffffffffffffffffffffffffffffffffffff1673ffffffffffffffffffffffffffffffffffffffff1681526020019081526020016000206000820151816000015560208201518160010160006101000a81548160ff02191690831515021790555090505050505050505050505050565b60006007600001549050600082826124569190613bd6565b905060405180604001604052808281526020016001151581525060056000820151816000015560208201518160010160006101000a81548160ff021916908315150217905550905050505050565b60008060008473ffffffffffffffffffffffffffffffffffffffff1673ffffffffffffffffffffffffffffffffffffffff168152602001908152602001600020604051806040016040529081600082015481526020016001820160009054906101000a900460ff16151515158152505090506001151581602001511515141561253657612535838260000151613412565b5b6000600160008573ffffffffffffffffffffffffffffffffffffffff1673ffffffffffffffffffffffffffffffffffffffff168152602001908152602001600020604051806040016040529081600082015481526020016001820160009054906101000a900460ff16151515158152505090506000816000015190506000600260008773ffffffffffffffffffffffffffffffffffffffff1673ffffffffffffffffffffffffffffffffffffffff168152602001908152602001600020604051806040016040529081600082015481526020016001820160009054906101000a900460ff16151515158152505090506000816000015190506000600460008973ffffffffffffffffffffffffffffffffffffffff1673ffffffffffffffffffffffffffffffffffffffff168152602001908152602001600020604051806040016040529081600082015481526020016001820160009054906101000a900460ff1615151515815250509050600081600001519050600085848a846126ba9190613d1d565b6126c49190613bd6565b6126ce9190613bd6565b9050604051806040016040528082815260200160011515815250600c60008c73ffffffffffffffffffffffffffffffffffffffff1673ffffffffffffffffffffffffffffffffffffffff1681526020019081526020016000206000820151816000015560208201518160010160006101000a81548160ff02191690831515021790555090505050505050505050505050565b6000600160008473ffffffffffffffffffffffffffffffffffffffff1673ffffffffffffffffffffffffffffffffffffffff168152602001908152602001600020604051806040016040529081600082015481526020016001820160009054906101000a900460ff1615151515815250509050600115158160200151151514156127f3576127f28382600001516136bd565b5b60008060008573ffffffffffffffffffffffffffffffffffffffff1673ffffffffffffffffffffffffffffffffffffffff168152602001908152602001600020604051806040016040529081600082015481526020016001820160009054906101000a900460ff16151515158152505090506000816000015190506000600260008773ffffffffffffffffffffffffffffffffffffffff1673ffffffffffffffffffffffffffffffffffffffff168152602001908152602001600020604051806040016040529081600082015481526020016001820160009054906101000a900460ff16151515158152505090506000816000015190506000600460008973ffffffffffffffffffffffffffffffffffffffff1673ffffffffffffffffffffffffffffffffffffffff168152602001908152602001600020604051806040016040529081600082015481526020016001820160009054906101000a900460ff16151515158152505090506000816000015190506000888487846129769190613d1d565b6129809190613bd6565b61298a9190613bd6565b9050604051806040016040528082815260200160011515815250600c60008c73ffffffffffffffffffffffffffffffffffffffff1673ffffffffffffffffffffffffffffffffffffffff1681526020019081526020016000206000820151816000015560208201518160010160006101000a81548160ff02191690831515021790555090505050505050505050505050565b6000600b60008573ffffffffffffffffffffffffffffffffffffffff1673ffffffffffffffffffffffffffffffffffffffff16815260200190815260200160002060008473ffffffffffffffffffffffffffffffffffffffff1673ffffffffffffffffffffffffffffffffffffffff168152602001908152602001600020604051806040016040529081600082015481526020016001820160009054906101000a900460ff161515151581525050905060008160000151905060008184612ae39190613bd6565b90506000600f60008873ffffffffffffffffffffffffffffffffffffffff1673ffffffffffffffffffffffffffffffffffffffff16815260200190815260200160002060008773ffffffffffffffffffffffffffffffffffffffff1673ffffffffffffffffffffffffffffffffffffffff168152602001908152602001600020604051806040016040529081600082015481526020016001820160009054906101000a900460ff16151515158152505090508060000151821415612c645760405180604001604052806000815260200160001515815250600f60008973ffffffffffffffffffffffffffffffffffffffff1673ffffffffffffffffffffffffffffffffffffffff16815260200190815260200160002060008873ffffffffffffffffffffffffffffffffffffffff1673ffffffffffffffffffffffffffffffffffffffff1681526020019081526020016000206000820151816000015560208201518160010160006101000a81548160ff0219169083151502179055509050505b50505050505050565b6000600a60008573ffffffffffffffffffffffffffffffffffffffff1673ffffffffffffffffffffffffffffffffffffffff16815260200190815260200160002060008473ffffffffffffffffffffffffffffffffffffffff1673ffffffffffffffffffffffffffffffffffffffff168152602001908152602001600020604051806040016040529081600082015481526020016001820160009054906101000a900460ff161515151581525050905060008160000151905060008382612d349190613bd6565b90506000600f60008873ffffffffffffffffffffffffffffffffffffffff1673ffffffffffffffffffffffffffffffffffffffff16815260200190815260200160002060008773ffffffffffffffffffffffffffffffffffffffff1673ffffffffffffffffffffffffffffffffffffffff168152602001908152602001600020604051806040016040529081600082015481526020016001820160009054906101000a900460ff16151515158152505090508060000151821415612eb55760405180604001604052806000815260200160001515815250600f60008973ffffffffffffffffffffffffffffffffffffffff1673ffffffffffffffffffffffffffffffffffffffff16815260200190815260200160002060008873ffffffffffffffffffffffffffffffffffffffff1673ffffffffffffffffffffffffffffffffffffffff1681526020019081526020016000206000820151816000015560208201518160010160006101000a81548160ff0219169083151502179055509050505b50505050505050565b60008060008473ffffffffffffffffffffffffffffffffffffffff1673ffffffffffffffffffffffffffffffffffffffff168152602001908152602001600020604051806040016040529081600082015481526020016001820160009054906101000a900460ff16151515158152505090506000816000015190506000600160008673ffffffffffffffffffffffffffffffffffffffff1673ffffffffffffffffffffffffffffffffffffffff168152602001908152602001600020604051806040016040529081600082015481526020016001820160009054906101000a900460ff16151515158152505090506000816000015190506000600260008873ffffffffffffffffffffffffffffffffffffffff1673ffffffffffffffffffffffffffffffffffffffff168152602001908152602001600020604051806040016040529081600082015481526020016001820160009054906101000a900460ff161515151581525050905060008160000151905060008382878a6130419190613d1d565b61304b9190613bd6565b6130559190613bd6565b90506000600c60008b73ffffffffffffffffffffffffffffffffffffffff1673ffffffffffffffffffffffffffffffffffffffff168152602001908152602001600020604051806040016040529081600082015481526020016001820160009054906101000a900460ff1615151515815250509050806000015182141561315c5760405180604001604052806000815260200160001515815250600c60008c73ffffffffffffffffffffffffffffffffffffffff1673ffffffffffffffffffffffffffffffffffffffff1681526020019081526020016000206000820151816000015560208201518160010160006101000a81548160ff0219169083151502179055509050505b50505050505050505050565b60008060008473ffffffffffffffffffffffffffffffffffffffff1673ffffffffffffffffffffffffffffffffffffffff168152602001908152602001600020604051806040016040529081600082015481526020016001820160009054906101000a900460ff16151515158152505090506000816000015190506000600160008673ffffffffffffffffffffffffffffffffffffffff1673ffffffffffffffffffffffffffffffffffffffff168152602001908152602001600020604051806040016040529081600082015481526020016001820160009054906101000a900460ff16151515158152505090506000816000015190506000600460008873ffffffffffffffffffffffffffffffffffffffff1673ffffffffffffffffffffffffffffffffffffffff168152602001908152602001600020604051806040016040529081600082015481526020016001820160009054906101000a900460ff16151515158152505090506000816000015190506000838887846132eb9190613d1d565b6132f59190613bd6565b6132ff9190613bd6565b90506000600c60008b73ffffffffffffffffffffffffffffffffffffffff1673ffffffffffffffffffffffffffffffffffffffff168152602001908152602001600020604051806040016040529081600082015481526020016001820160009054906101000a900460ff161515151581525050905080600001518214156134065760405180604001604052806000815260200160001515815250600c60008c73ffffffffffffffffffffffffffffffffffffffff1673ffffffffffffffffffffffffffffffffffffffff1681526020019081526020016000206000820151816000015560208201518160010160006101000a81548160ff0219169083151502179055509050505b50505050505050505050565b6000600160008473ffffffffffffffffffffffffffffffffffffffff1673ffffffffffffffffffffffffffffffffffffffff168152602001908152602001600020604051806040016040529081600082015481526020016001820160009054906101000a900460ff16151515158152505090506000816000015190506000600260008673ffffffffffffffffffffffffffffffffffffffff1673ffffffffffffffffffffffffffffffffffffffff168152602001908152602001600020604051806040016040529081600082015481526020016001820160009054906101000a900460ff16151515158152505090506000816000015190506000600460008873ffffffffffffffffffffffffffffffffffffffff1673ffffffffffffffffffffffffffffffffffffffff168152602001908152602001600020604051806040016040529081600082015481526020016001820160009054906101000a900460ff16151515158152505090506000816000015190506000858489846135969190613d1d565b6135a09190613bd6565b6135aa9190613bd6565b90506000600c60008b73ffffffffffffffffffffffffffffffffffffffff1673ffffffffffffffffffffffffffffffffffffffff168152602001908152602001600020604051806040016040529081600082015481526020016001820160009054906101000a900460ff161515151581525050905080600001518214156136b15760405180604001604052806000815260200160001515815250600c60008c73ffffffffffffffffffffffffffffffffffffffff1673ffffffffffffffffffffffffffffffffffffffff1681526020019081526020016000206000820151816000015560208201518160010160006101000a81548160ff0219169083151502179055509050505b50505050505050505050565b60008060008473ffffffffffffffffffffffffffffffffffffffff1673ffffffffffffffffffffffffffffffffffffffff168152602001908152602001600020604051806040016040529081600082015481526020016001820160009054906101000a900460ff16151515158152505090506000816000015190506000600260008673ffffffffffffffffffffffffffffffffffffffff1673ffffffffffffffffffffffffffffffffffffffff168152602001908152602001600020604051806040016040529081600082015481526020016001820160009054906101000a900460ff16151515158152505090506000816000015190506000600460008873ffffffffffffffffffffffffffffffffffffffff1673ffffffffffffffffffffffffffffffffffffffff168152602001908152602001600020604051806040016040529081600082015481526020016001820160009054906101000a900460ff16151515158152505090506000816000015190506000878487846138409190613d1d565b61384a9190613bd6565b6138549190613bd6565b90506000600c60008b73ffffffffffffffffffffffffffffffffffffffff1673ffffffffffffffffffffffffffffffffffffffff168152602001908152602001600020604051806040016040529081600082015481526020016001820160009054906101000a900460ff1615151515815250509050806000015182141561395b5760405180604001604052806000815260200160001515815250600c60008c73ffffffffffffffffffffffffffffffffffffffff1673ffffffffffffffffffffffffffffffffffffffff1681526020019081526020016000206000820151816000015560208201518160010160006101000a81548160ff0219169083151502179055509050505b50505050505050505050565b600080fd5b600073ffffffffffffffffffffffffffffffffffffffff82169050919050565b60006139978261396c565b9050919050565b6139a78161398c565b81146139b257600080fd5b50565b6000813590506139c48161399e565b92915050565b6000819050919050565b6139dd816139ca565b81146139e857600080fd5b50565b6000813590506139fa816139d4565b92915050565b60008060408385031215613a1757613a16613967565b5b6000613a25858286016139b5565b9250506020613a36858286016139eb565b9150509250929050565b60008060408385031215613a5757613a56613967565b5b6000613a65858286016139b5565b9250506020613a76858286016139b5565b9150509250929050565b613a89816139ca565b82525050565b6000602082019050613aa46000830184613a80565b92915050565b600080600060608486031215613ac357613ac2613967565b5b6000613ad1868287016139b5565b9350506020613ae2868287016139b5565b9250506040613af3868287016139eb565b9150509250925092565b600060208284031215613b1357613b12613967565b5b6000613b21848285016139b5565b91505092915050565b600082825260208201905092915050565b7f52756c6520636f6e646974696f6e206661696c65640000000000000000000000600082015250565b6000613b71601583613b2a565b9150613b7c82613b3b565b602082019050919050565b60006020820190508181036000830152613ba081613b64565b9050919050565b7f4e487b7100000000000000000000000000000000000000000000000000000000600052601160045260246000fd5b6000613be1826139ca565b9150613bec836139ca565b925082821015613bff57613bfe613ba7565b5b828203905092915050565b613c138161398c565b82525050565b6000606082019050613c2e6000830186613c0a565b613c3b6020830185613c0a565b613c486040830184613a80565b949350505050565b6000608082019050613c656000830187613c0a565b613c726020830186613c0a565b613c7f6040830185613c0a565b613c8c6060830184613a80565b95945050505050565b60008115159050919050565b613caa81613c95565b82525050565b6000602082019050613cc56000830184613ca1565b92915050565b6000604082019050613ce06000830185613c0a565b613ced6020830184613a80565b9392505050565b6000604082019050613d096000830185613c0a565b613d166020830184613ca1565b9392505050565b6000613d28826139ca565b9150613d33836139ca565b9250827fffffffffffffffffffffffffffffffffffffffffffffffffffffffffffffffff03821115613d6857613d67613ba7565b5b828201905092915050565b6000819050919050565b6000613d8882613d73565b9150613d9383613d73565b9250817f7fffffffffffffffffffffffffffffffffffffffffffffffffffffffffffffff03831360008312151615613dce57613dcd613ba7565b5b817f8000000000000000000000000000000000000000000000000000000000000000038312600083121615613e0657613e05613ba7565b5b82820190509291505056fea2646970667358221220cc5d3f7b5b43d32dfc06f5fafcbe801ba66dfd38fb7393fc983d07e66d635f5d64736f6c634300080c0033",
  "immutableReferences": {},
  "source": "contract Matic {\n  struct TotalInTuple {\n    uint n;\n    bool _valid;\n  }\n  struct TotalOutTuple {\n    uint n;\n    bool _valid;\n  }\n  struct OwnerTuple {\n    address p;\n    bool _valid;\n  }\n  struct TotalMintTuple {\n    uint n;\n    bool _valid;\n  }\n  struct TotalSupplyTuple {\n    uint n;\n    bool _valid;\n  }\n  struct AllMintTuple {\n    uint n;\n    bool _valid;\n  }\n  struct IsPauserTuple {\n    bool b;\n    bool _valid;\n  }\n  struct AllowanceTotalTuple {\n    uint m;\n    bool _valid;\n  }\n  struct SpentTotalTuple {\n    uint m;\n    bool _valid;\n  }\n  struct TotalBurnTuple {\n    uint n;\n    bool _valid;\n  }\n  struct BalanceOfTuple {\n    uint n;\n    bool _valid;\n  }\n  struct AllBurnTuple {\n    uint n;\n    bool _valid;\n  }\n  struct AllowanceTuple {\n    uint n;\n    bool _valid;\n  }\n  struct PausedTuple {\n    bool b;\n    bool _valid;\n  }\n  mapping(address=>TotalInTuple) totalIn;\n  mapping(address=>TotalOutTuple) totalOut;\n  mapping(address=>TotalBurnTuple) totalBurn;\n  OwnerTuple owner;\n  mapping(address=>TotalMintTuple) totalMint;\n  TotalSupplyTuple totalSupply;\n  AllMintTuple allMint;\n  mapping(address=>IsPauserTuple) isPauser;\n  mapping(address=>mapping(address=>AllowanceTotalTuple)) allowanceTotal;\n  mapping(address=>mapping(address=>SpentTotalTuple)) spentTotal;\n  mapping(address=>BalanceOfTuple) balanceOf;\n  AllBurnTuple allBurn;\n  mapping(address=>mapping(address=>AllowanceTuple)) allowance;\n  PausedTuple paused;\n  event Burn(address p,uint amount);\n  event Mint(address p,uint amount);\n  event IncreaseAllowance(address p,address s,uint n);\n  event IsPauser(address p,bool b);\n  event Transfer(address from,address to,uint amount);\n  event Paused(bool b);\n  event TransferFrom(address from,address to,address spender,uint amount);\n  constructor(uint n) public {\n    updateBalanceOfOnInsertConstructor_r4(n);\n    updateTotalSupplyOnInsertConstructor_r24(n);\n    updateTotalMintOnInsertConstructor_r18(n);\n    updateOwnerOnInsertConstructor_r7();\n    updatePausedOnInsertConstructor_r21();\n    updateTotalBalancesOnInsertConstructor_r29(n);\n    updateAllMintOnInsertConstructor_r13(n);\n    updateIsPauserOnInsertConstructor_r5();\n  }\n  function burn(address p,uint amount) public    {\n      bool r9 = updateBurnOnInsertRecv_burn_r9(p,amount);\n      if(r9==false) {\n        revert(\"Rule condition failed\");\n      }\n  }\n  function getTotalSupply() public view  returns (uint) {\n      uint n = totalSupply.n;\n      return n;\n  }\n  function approve(address s,uint n) public    {\n      bool r28 = updateIncreaseAllowanceOnInsertRecv_approve_r28(s,n);\n      if(r28==false) {\n        revert(\"Rule condition failed\");\n      }\n  }\n  function addPauser(address p) public    {\n      bool r6 = updateIsPauserOnInsertRecv_addPauser_r6(p);\n      if(r6==false) {\n        revert(\"Rule condition failed\");\n      }\n  }\n  function mint(address p,uint amount) public    {\n      bool r10 = updateMintOnInsertRecv_mint_r10(p,amount);\n      if(r10==false) {\n        revert(\"Rule condition failed\");\n      }\n  }\n  function getAllowance(address p,address s) public view  returns (uint) {\n      AllowanceTuple memory allowanceTuple = allowance[p][s];\n      uint n = allowanceTuple.n;\n      return n;\n  }\n  function unpause() public    {\n      bool r26 = updatePausedOnInsertRecv_unpause_r26();\n      if(r26==false) {\n        revert(\"Rule condition failed\");\n      }\n  }\n  function transfer(address to,uint amount) public    {\n      bool r12 = updateTransferOnInsertRecv_transfer_r12(to,amount);\n      if(r12==false) {\n        revert(\"Rule condition failed\");\n      }\n  }\n  function renouncePauser(address p) public    {\n      bool r11 = updateIsPauserOnInsertRecv_renouncePauser_r11(p);\n      if(r11==false) {\n        revert(\"Rule condition failed\");\n      }\n  }\n  function transferFrom(address from,address to,uint amount) public    {\n      bool r1 = updateTransferFromOnInsertRecv_transferFrom_r1(from,to,amount);\n      if(r1==false) {\n        revert(\"Rule condition failed\");\n      }\n  }\n  function pause() public    {\n      bool r2 = updatePausedOnInsertRecv_pause_r2();\n      if(r2==false) {\n        revert(\"Rule condition failed\");\n      }\n  }\n  function getBalanceOf(address p) public view  returns (uint) {\n      BalanceOfTuple memory balanceOfTuple = balanceOf[p];\n      uint n = balanceOfTuple.n;\n      return n;\n  }\n  function updateBalanceOfOnIncrementTotalOut_r22(address p,int o) private    {\n      int _delta = int(o);\n      uint newValue = updateuintByint(totalOut[p].n,_delta);\n      updateBalanceOfOnInsertTotalOut_r22(p,newValue);\n  }\n  function updateTransferOnInsertRecv_transfer_r12(address r,uint n) private   returns (bool) {\n      if(false==paused.b) {\n        address s = msg.sender;\n        BalanceOfTuple memory balanceOfTuple = balanceOf[s];\n        uint m = balanceOfTuple.n;\n        if(n<=m) {\n          updateTotalInOnInsertTransfer_r8(r,n);\n          updateTotalOutOnInsertTransfer_r19(s,n);\n          emit Transfer(s,r,n);\n          return true;\n        }\n      }\n      return false;\n  }\n  function updateAllowanceOnIncrementSpentTotal_r25(address o,address s,int l) private    {\n      int _delta = int(l);\n      uint newValue = updateuintByint(spentTotal[o][s].m,_delta);\n      updateAllowanceOnInsertSpentTotal_r25(o,s,newValue);\n  }\n  function updateAllowanceOnIncrementAllowanceTotal_r25(address o,address s,int m) private    {\n      int _delta = int(m);\n      uint newValue = updateuintByint(allowanceTotal[o][s].m,_delta);\n      updateAllowanceOnInsertAllowanceTotal_r25(o,s,newValue);\n  }\n  function updateBalanceOfOnIncrementTotalMint_r22(address p,int n) private    {\n      int _delta = int(n);\n      uint newValue = updateuintByint(totalMint[p].n,_delta);\n      updateBalanceOfOnInsertTotalMint_r22(p,newValue);\n  }\n  function updateTransferFromOnInsertRecv_transferFrom_r1(address o,address r,uint n) private   returns (bool) {\n      address s = msg.sender;\n      if(false==paused.b) {\n        BalanceOfTuple memory balanceOfTuple = balanceOf[o];\n        uint m = balanceOfTuple.n;\n        AllowanceTuple memory allowanceTuple = allowance[o][s];\n        uint k = allowanceTuple.n;\n        if(m>=n && k>=n) {\n          updateTransferOnInsertTransferFrom_r0(o,r,n);\n          updateSpentTotalOnInsertTransferFrom_r23(o,s,n);\n          emit TransferFrom(o,r,s,n);\n          return true;\n        }\n      }\n      return false;\n  }\n  function updateTotalSupplyOnInsertAllBurn_r16(uint b) private    {\n      uint m = allMint.n;\n      uint n = m-b;\n      totalSupply = TotalSupplyTuple(n,true);\n  }\n  function updateBalanceOfOnInsertTotalOut_r22(address p,uint o) private    {\n      TotalOutTuple memory toDelete = totalOut[p];\n      if(toDelete._valid==true) {\n        updateBalanceOfOnDeleteTotalOut_r22(p,toDelete.n);\n      }\n      TotalInTuple memory totalInTuple = totalIn[p];\n      uint i = totalInTuple.n;\n      TotalBurnTuple memory totalBurnTuple = totalBurn[p];\n      uint m = totalBurnTuple.n;\n      TotalMintTuple memory totalMintTuple = totalMint[p];\n      uint n = totalMintTuple.n;\n      uint s = ((n+i)-m)-o;\n      balanceOf[p] = BalanceOfTuple(s,true);\n  }\n  function updatePausedOnInsertRecv_pause_r2() private   returns (bool) {\n      address s = owner.p;\n      if(s==msg.sender) {\n        paused = PausedTuple(true,true);\n        emit Paused(true);\n        return true;\n      }\n      return false;\n  }\n  function updateAllowanceOnInsertAllowanceTotal_r25(address o,address s,uint m) private    {\n      AllowanceTotalTuple memory toDelete = allowanceTotal[o][s];\n      if(toDelete._valid==true) {\n        updateAllowanceOnDeleteAllowanceTotal_r25(o,s,toDelete.m);\n      }\n      SpentTotalTuple memory spentTotalTuple = spentTotal[o][s];\n      uint l = spentTotalTuple.m;\n      uint n = m-l;\n      allowance[o][s] = AllowanceTuple(n,true);\n  }\n  function updateBalanceOfOnIncrementTotalBurn_r22(address p,int m) private    {\n      int _delta = int(m);\n      uint newValue = updateuintByint(totalBurn[p].n,_delta);\n      updateBalanceOfOnInsertTotalBurn_r22(p,newValue);\n  }\n  function updateTransferOnInsertTransferFrom_r0(address o,address r,uint n) private    {\n      updateTotalInOnInsertTransfer_r8(r,n);\n      updateTotalOutOnInsertTransfer_r19(o,n);\n      emit Transfer(o,r,n);\n  }\n  function updateBurnOnInsertRecv_burn_r9(address p,uint n) private   returns (bool) {\n      address s = msg.sender;\n      if(false==paused.b) {\n        if(s==owner.p) {\n          BalanceOfTuple memory balanceOfTuple = balanceOf[p];\n          uint m = balanceOfTuple.n;\n          if(p!=address(0) && n<=m) {\n            updateTotalBurnOnInsertBurn_r14(p,n);\n            updateAllBurnOnInsertBurn_r27(n);\n            emit Burn(p,n);\n            return true;\n          }\n        }\n      }\n      return false;\n  }\n  function updateTotalSupplyOnIncrementAllMint_r16(int m) private    {\n      int _delta = int(m);\n      uint newValue = updateuintByint(allMint.n,_delta);\n      updateTotalSupplyOnInsertAllMint_r16(newValue);\n  }\n  function updateMintOnInsertRecv_mint_r10(address p,uint n) private   returns (bool) {\n      if(false==paused.b) {\n        address s = owner.p;\n        if(s==msg.sender) {\n          if(p!=address(0)) {\n            updateAllMintOnInsertMint_r3(n);\n            updateTotalMintOnInsertMint_r15(p,n);\n            emit Mint(p,n);\n            return true;\n          }\n        }\n      }\n      return false;\n  }\n  function updateBalanceOfOnInsertTotalBurn_r22(address p,uint m) private    {\n      TotalBurnTuple memory toDelete = totalBurn[p];\n      if(toDelete._valid==true) {\n        updateBalanceOfOnDeleteTotalBurn_r22(p,toDelete.n);\n      }\n      TotalInTuple memory totalInTuple = totalIn[p];\n      uint i = totalInTuple.n;\n      TotalOutTuple memory totalOutTuple = totalOut[p];\n      uint o = totalOutTuple.n;\n      TotalMintTuple memory totalMintTuple = totalMint[p];\n      uint n = totalMintTuple.n;\n      uint s = ((n+i)-m)-o;\n      balanceOf[p] = BalanceOfTuple(s,true);\n  }\n  function updateAllowanceOnDeleteSpentTotal_r25(address o,address s,uint l) private    {\n      AllowanceTotalTuple memory allowanceTotalTuple = allowanceTotal[o][s];\n      uint m = allowanceTotalTuple.m;\n      uint n = m-l;\n      AllowanceTuple memory allowanceTuple = allowance[o][s];\n      if(n==allowanceTuple.n) {\n        allowance[o][s] = AllowanceTuple(0,false);\n      }\n  }\n  function updateTotalMintOnInsertMint_r15(address p,uint n) private    {\n      int delta1 = int(n);\n      updateBalanceOfOnIncrementTotalMint_r22(p,delta1);\n      totalMint[p].n += n;\n  }\n  function updateOwnerOnInsertConstructor_r7() private    {\n      address s = msg.sender;\n      owner = OwnerTuple(s,true);\n  }\n  function updateAllowanceOnDeleteAllowanceTotal_r25(address o,address s,uint m) private    {\n      SpentTotalTuple memory spentTotalTuple = spentTotal[o][s];\n      uint l = spentTotalTuple.m;\n      uint n = m-l;\n      AllowanceTuple memory allowanceTuple = allowance[o][s];\n      if(n==allowanceTuple.n) {\n        allowance[o][s] = AllowanceTuple(0,false);\n      }\n  }\n  function updateuintByint(uint x,int delta) private   returns (uint) {\n      int convertedX = int(x);\n      int value = convertedX+delta;\n      uint convertedValue = uint(value);\n      return convertedValue;\n  }\n  function updateBalanceOfOnIncrementTotalIn_r22(address p,int i) private    {\n      int _delta = int(i);\n      uint newValue = updateuintByint(totalIn[p].n,_delta);\n      updateBalanceOfOnInsertTotalIn_r22(p,newValue);\n  }\n  function updatePausedOnInsertRecv_unpause_r26() private   returns (bool) {\n      address s = owner.p;\n      if(s==msg.sender) {\n        paused = PausedTuple(false,true);\n        emit Paused(false);\n        return true;\n      }\n      return false;\n  }\n  function updateTotalBalancesOnInsertConstructor_r29(uint n) private    {\n      // Empty()\n  }\n  function updateBalanceOfOnDeleteTotalBurn_r22(address p,uint m) private    {\n      TotalInTuple memory totalInTuple = totalIn[p];\n      uint i = totalInTuple.n;\n      TotalOutTuple memory totalOutTuple = totalOut[p];\n      uint o = totalOutTuple.n;\n      TotalMintTuple memory totalMintTuple = totalMint[p];\n      uint n = totalMintTuple.n;\n      uint s = ((n+i)-m)-o;\n      BalanceOfTuple memory balanceOfTuple = balanceOf[p];\n      if(s==balanceOfTuple.n) {\n        balanceOf[p] = BalanceOfTuple(0,false);\n      }\n  }\n  function updateIsPauserOnInsertConstructor_r5() private    {\n      address s = msg.sender;\n      isPauser[s] = IsPauserTuple(true,true);\n      emit IsPauser(s,true);\n  }\n  function updateTotalMintOnInsertConstructor_r18(uint n) private    {\n      address s = msg.sender;\n      updateBalanceOfOnInsertTotalMint_r22(s,n);\n      totalMint[s] = TotalMintTuple(n,true);\n  }\n  function updateAllBurnOnInsertBurn_r27(uint n) private    {\n      int delta0 = int(n);\n      updateTotalSupplyOnIncrementAllBurn_r16(delta0);\n      allBurn.n += n;\n  }\n  function updateTotalOutOnInsertTransfer_r19(address p,uint n) private    {\n      int delta1 = int(n);\n      updateBalanceOfOnIncrementTotalOut_r22(p,delta1);\n      totalOut[p].n += n;\n  }\n  function updateBalanceOfOnInsertConstructor_r4(uint n) private    {\n      address s = msg.sender;\n      balanceOf[s] = BalanceOfTuple(n,true);\n  }\n  function updateAllMintOnInsertConstructor_r13(uint n) private    {\n      updateTotalSupplyOnInsertAllMint_r16(n);\n      allMint = AllMintTuple(n,true);\n  }\n  function updateTotalInOnInsertTransfer_r8(address p,uint n) private    {\n      int delta1 = int(n);\n      updateBalanceOfOnIncrementTotalIn_r22(p,delta1);\n      totalIn[p].n += n;\n  }\n  function updateTotalSupplyOnInsertAllMint_r16(uint m) private    {\n      uint b = allBurn.n;\n      uint n = m-b;\n      totalSupply = TotalSupplyTuple(n,true);\n  }\n  function updateAllowanceTotalOnInsertIncreaseAllowance_r30(address o,address s,uint n) private    {\n      int delta1 = int(n);\n      updateAllowanceOnIncrementAllowanceTotal_r25(o,s,delta1);\n      allowanceTotal[o][s].m += n;\n  }\n  function updateIncreaseAllowanceOnInsertRecv_approve_r28(address s,uint n) private   returns (bool) {\n      address o = msg.sender;\n      AllowanceTuple memory allowanceTuple = allowance[o][s];\n      uint m = allowanceTuple.n;\n      uint d = n-m;\n      updateAllowanceTotalOnInsertIncreaseAllowance_r30(o,s,d);\n      emit IncreaseAllowance(o,s,d);\n      return true;\n      return false;\n  }\n  function updateAllMintOnInsertMint_r3(uint n) private    {\n      int delta1 = int(n);\n      updateTotalSupplyOnIncrementAllMint_r16(delta1);\n      allMint.n += n;\n  }\n  function updatePausedOnInsertConstructor_r21() private    {\n      paused = PausedTuple(false,true);\n      emit Paused(false);\n  }\n  function updateTotalBurnOnInsertBurn_r14(address p,uint n) private    {\n      int delta2 = int(n);\n      updateBalanceOfOnIncrementTotalBurn_r22(p,delta2);\n      totalBurn[p].n += n;\n  }\n  function updateBalanceOfOnDeleteTotalOut_r22(address p,uint o) private    {\n      TotalInTuple memory totalInTuple = totalIn[p];\n      uint i = totalInTuple.n;\n      TotalBurnTuple memory totalBurnTuple = totalBurn[p];\n      uint m = totalBurnTuple.n;\n      TotalMintTuple memory totalMintTuple = totalMint[p];\n      uint n = totalMintTuple.n;\n      uint s = ((n+i)-m)-o;\n      BalanceOfTuple memory balanceOfTuple = balanceOf[p];\n      if(s==balanceOfTuple.n) {\n        balanceOf[p] = BalanceOfTuple(0,false);\n      }\n  }\n  function updateBalanceOfOnInsertTotalIn_r22(address p,uint i) private    {\n      TotalInTuple memory toDelete = totalIn[p];\n      if(toDelete._valid==true) {\n        updateBalanceOfOnDeleteTotalIn_r22(p,toDelete.n);\n      }\n      TotalOutTuple memory totalOutTuple = totalOut[p];\n      uint o = totalOutTuple.n;\n      TotalBurnTuple memory totalBurnTuple = totalBurn[p];\n      uint m = totalBurnTuple.n;\n      TotalMintTuple memory totalMintTuple = totalMint[p];\n      uint n = totalMintTuple.n;\n      uint s = ((n+i)-m)-o;\n      balanceOf[p] = BalanceOfTuple(s,true);\n  }\n  function updateAllowanceOnInsertSpentTotal_r25(address o,address s,uint l) private    {\n      SpentTotalTuple memory toDelete = spentTotal[o][s];\n      if(toDelete._valid==true) {\n        updateAllowanceOnDeleteSpentTotal_r25(o,s,toDelete.m);\n      }\n      AllowanceTotalTuple memory allowanceTotalTuple = allowanceTotal[o][s];\n      uint m = allowanceTotalTuple.m;\n      uint n = m-l;\n      allowance[o][s] = AllowanceTuple(n,true);\n  }\n  function updateIsPauserOnInsertRecv_renouncePauser_r11(address p) private   returns (bool) {\n      address s = msg.sender;\n      IsPauserTuple memory isPauserTuple = isPauser[s];\n      if(true==isPauserTuple.b) {\n        isPauser[p] = IsPauserTuple(false,true);\n        emit IsPauser(p,false);\n        return true;\n      }\n      return false;\n  }\n  function updateBalanceOfOnDeleteTotalMint_r22(address p,uint n) private    {\n      TotalInTuple memory totalInTuple = totalIn[p];\n      uint i = totalInTuple.n;\n      TotalOutTuple memory totalOutTuple = totalOut[p];\n      uint o = totalOutTuple.n;\n      TotalBurnTuple memory totalBurnTuple = totalBurn[p];\n      uint m = totalBurnTuple.n;\n      uint s = ((n+i)-m)-o;\n      BalanceOfTuple memory balanceOfTuple = balanceOf[p];\n      if(s==balanceOfTuple.n) {\n        balanceOf[p] = BalanceOfTuple(0,false);\n      }\n  }\n  function updateBalanceOfOnInsertTotalMint_r22(address p,uint n) private    {\n      TotalMintTuple memory toDelete = totalMint[p];\n      if(toDelete._valid==true) {\n        updateBalanceOfOnDeleteTotalMint_r22(p,toDelete.n);\n      }\n      TotalInTuple memory totalInTuple = totalIn[p];\n      uint i = totalInTuple.n;\n      TotalOutTuple memory totalOutTuple = totalOut[p];\n      uint o = totalOutTuple.n;\n      TotalBurnTuple memory totalBurnTuple = totalBurn[p];\n      uint m = totalBurnTuple.n;\n      uint s = ((n+i)-m)-o;\n      balanceOf[p] = BalanceOfTuple(s,true);\n  }\n  function updateIsPauserOnInsertRecv_addPauser_r6(address p) private   returns (bool) {\n      address s = msg.sender;\n      IsPauserTuple memory isPauserTuple = isPauser[s];\n      if(true==isPauserTuple.b) {\n        isPauser[p] = IsPauserTuple(true,true);\n        emit IsPauser(p,true);\n        return true;\n      }\n      return false;\n  }\n  function updateBalanceOfOnDeleteTotalIn_r22(address p,uint i) private    {\n      TotalOutTuple memory totalOutTuple = totalOut[p];\n      uint o = totalOutTuple.n;\n      TotalBurnTuple memory totalBurnTuple = totalBurn[p];\n      uint m = totalBurnTuple.n;\n      TotalMintTuple memory totalMintTuple = totalMint[p];\n      uint n = totalMintTuple.n;\n      uint s = ((n+i)-m)-o;\n      BalanceOfTuple memory balanceOfTuple = balanceOf[p];\n      if(s==balanceOfTuple.n) {\n        balanceOf[p] = BalanceOfTuple(0,false);\n      }\n  }\n  function updateSpentTotalOnInsertTransferFrom_r23(address o,address s,uint n) private    {\n      int delta2 = int(n);\n      updateAllowanceOnIncrementSpentTotal_r25(o,s,delta2);\n      spentTotal[o][s].m += n;\n  }\n  function updateTotalSupplyOnIncrementAllBurn_r16(int b) private    {\n      int _delta = int(b);\n      uint newValue = updateuintByint(allBurn.n,_delta);\n      updateTotalSupplyOnInsertAllBurn_r16(newValue);\n  }\n  function updateTotalSupplyOnInsertConstructor_r24(uint n) private    {\n      totalSupply = TotalSupplyTuple(n,true);\n  }\n}",
  "sourcePath": "/Users/ljy/Desktop/PENN/2023_summer/boon_dsc/smart-contracts/optimizations/full/contracts/matic.sol",
  "compiler": {
    "name": "solc",
    "version": "0.8.12+commit.f00d7308.Emscripten.clang"
  },
  "schemaVersion": "3.4.13",
  "updatedAt": "2023-07-24T05:57:56.443Z",
  "devdoc": {
    "kind": "dev",
    "methods": {},
    "version": 1
  },
  "userdoc": {
    "kind": "user",
    "methods": {},
    "version": 1
  }
}