{
  "contractName": "Shib",
  "abi": [
    {
      "inputs": [
        {
          "internalType": "uint256",
          "name": "name",
          "type": "uint256"
        },
        {
          "internalType": "uint256",
          "name": "symbol",
          "type": "uint256"
        },
        {
          "internalType": "uint256",
          "name": "decimals",
          "type": "uint256"
        },
        {
          "internalType": "uint256",
          "name": "totalSupply",
          "type": "uint256"
        },
        {
          "internalType": "address",
          "name": "feeReceiver",
          "type": "address"
        },
        {
          "internalType": "address",
          "name": "tokenOwnerAddress",
          "type": "address"
        }
      ],
      "stateMutability": "nonpayable",
      "type": "constructor"
    },
    {
      "anonymous": false,
      "inputs": [
        {
          "indexed": false,
          "internalType": "address",
          "name": "p",
          "type": "address"
        },
        {
          "indexed": false,
          "internalType": "uint256",
          "name": "amount",
          "type": "uint256"
        }
      ],
      "name": "Burn",
      "type": "event"
    },
    {
      "anonymous": false,
      "inputs": [
        {
          "indexed": false,
          "internalType": "address",
          "name": "p",
          "type": "address"
        },
        {
          "indexed": false,
          "internalType": "address",
          "name": "from",
          "type": "address"
        },
        {
          "indexed": false,
          "internalType": "uint256",
          "name": "n",
          "type": "uint256"
        }
      ],
      "name": "BurnFrom",
      "type": "event"
    },
    {
      "anonymous": false,
      "inputs": [
        {
          "indexed": false,
          "internalType": "address",
          "name": "p",
          "type": "address"
        },
        {
          "indexed": false,
          "internalType": "address",
          "name": "s",
          "type": "address"
        },
        {
          "indexed": false,
          "internalType": "uint256",
          "name": "n",
          "type": "uint256"
        }
      ],
      "name": "DecreaseAllowance",
      "type": "event"
    },
    {
      "anonymous": false,
      "inputs": [
        {
          "indexed": false,
          "internalType": "address",
          "name": "p",
          "type": "address"
        },
        {
          "indexed": false,
          "internalType": "address",
          "name": "s",
          "type": "address"
        },
        {
          "indexed": false,
          "internalType": "uint256",
          "name": "n",
          "type": "uint256"
        }
      ],
      "name": "IncreaseAllowance",
      "type": "event"
    },
    {
      "anonymous": false,
      "inputs": [
        {
          "indexed": false,
          "internalType": "address",
          "name": "p",
          "type": "address"
        },
        {
          "indexed": false,
          "internalType": "uint256",
          "name": "amount",
          "type": "uint256"
        }
      ],
      "name": "Mint",
      "type": "event"
    },
    {
      "anonymous": false,
      "inputs": [
        {
          "indexed": false,
          "internalType": "address",
          "name": "from",
          "type": "address"
        },
        {
          "indexed": false,
          "internalType": "address",
          "name": "to",
          "type": "address"
        },
        {
          "indexed": false,
          "internalType": "uint256",
          "name": "amount",
          "type": "uint256"
        }
      ],
      "name": "Transfer",
      "type": "event"
    },
    {
      "anonymous": false,
      "inputs": [
        {
          "indexed": false,
          "internalType": "address",
          "name": "from",
          "type": "address"
        },
        {
          "indexed": false,
          "internalType": "address",
          "name": "to",
          "type": "address"
        },
        {
          "indexed": false,
          "internalType": "address",
          "name": "spender",
          "type": "address"
        },
        {
          "indexed": false,
          "internalType": "uint256",
          "name": "amount",
          "type": "uint256"
        }
      ],
      "name": "TransferFrom",
      "type": "event"
    },
    {
      "inputs": [],
      "name": "getTotalSupply",
      "outputs": [
        {
          "internalType": "uint256",
          "name": "",
          "type": "uint256"
        }
      ],
      "stateMutability": "view",
      "type": "function"
    },
    {
      "inputs": [
        {
          "internalType": "address",
          "name": "p",
          "type": "address"
        },
        {
          "internalType": "address",
          "name": "s",
          "type": "address"
        }
      ],
      "name": "getAllowance",
      "outputs": [
        {
          "internalType": "uint256",
          "name": "",
          "type": "uint256"
        }
      ],
      "stateMutability": "view",
      "type": "function"
    },
    {
      "inputs": [
        {
          "internalType": "address",
          "name": "p",
          "type": "address"
        }
      ],
      "name": "getBalanceOf",
      "outputs": [
        {
          "internalType": "uint256",
          "name": "",
          "type": "uint256"
        }
      ],
      "stateMutability": "view",
      "type": "function"
    },
    {
      "inputs": [
        {
          "internalType": "uint256",
          "name": "amount",
          "type": "uint256"
        }
      ],
      "name": "burn",
      "outputs": [],
      "stateMutability": "nonpayable",
      "type": "function"
    },
    {
      "inputs": [
        {
          "internalType": "address",
          "name": "s",
          "type": "address"
        },
        {
          "internalType": "uint256",
          "name": "n",
          "type": "uint256"
        }
      ],
      "name": "approve",
      "outputs": [],
      "stateMutability": "nonpayable",
      "type": "function"
    },
    {
      "inputs": [
        {
          "internalType": "address",
          "name": "to",
          "type": "address"
        },
        {
          "internalType": "uint256",
          "name": "amount",
          "type": "uint256"
        }
      ],
      "name": "transfer",
      "outputs": [],
      "stateMutability": "nonpayable",
      "type": "function"
    },
    {
      "inputs": [
        {
          "internalType": "address",
          "name": "s",
          "type": "address"
        },
        {
          "internalType": "uint256",
          "name": "n",
          "type": "uint256"
        }
      ],
      "name": "decreaseAllowance",
      "outputs": [],
      "stateMutability": "nonpayable",
      "type": "function"
    },
    {
      "inputs": [
        {
          "internalType": "address",
          "name": "s",
          "type": "address"
        },
        {
          "internalType": "uint256",
          "name": "n",
          "type": "uint256"
        }
      ],
      "name": "increaseAllowance",
      "outputs": [],
      "stateMutability": "nonpayable",
      "type": "function"
    },
    {
      "inputs": [
        {
          "internalType": "address",
          "name": "from",
          "type": "address"
        },
        {
          "internalType": "address",
          "name": "to",
          "type": "address"
        },
        {
          "internalType": "uint256",
          "name": "amount",
          "type": "uint256"
        }
      ],
      "name": "transferFrom",
      "outputs": [],
      "stateMutability": "nonpayable",
      "type": "function"
    }
  ],
  "bytecode": "0x60806040523480156200001157600080fd5b5060405162001cbb38038062001cbb8339818101604052810190620000379190620002f3565b6200004983826200009860201b60201c565b6200005a826200012060201b60201c565b6200006b836200015f60201b60201c565b6200007b620001a960201b60201c565b6200008c836200024b60201b60201c565b5050505050506200038f565b604051806040016040528083815260200160011515815250600c60008373ffffffffffffffffffffffffffffffffffffffff1673ffffffffffffffffffffffffffffffffffffffff1681526020019081526020016000206000820151816000015560208201518160010160006101000a81548160ff0219169083151502179055509050505050565b60003490508173ffffffffffffffffffffffffffffffffffffffff166108fc829081150290604051600060405180830381858888f19350505050505050565b60405180604001604052808281526020016001151581525060066000820151816000015560208201518160010160006101000a81548160ff02191690831515021790555090505050565b600033905060405180604001604052808273ffffffffffffffffffffffffffffffffffffffff16815260200160011515815250600360008201518160000160006101000a81548173ffffffffffffffffffffffffffffffffffffffff021916908373ffffffffffffffffffffffffffffffffffffffff16021790555060208201518160000160146101000a81548160ff02191690831515021790555090505050565b50565b600080fd5b6000819050919050565b620002688162000253565b81146200027457600080fd5b50565b60008151905062000288816200025d565b92915050565b600073ffffffffffffffffffffffffffffffffffffffff82169050919050565b6000620002bb826200028e565b9050919050565b620002cd81620002ae565b8114620002d957600080fd5b50565b600081519050620002ed81620002c2565b92915050565b60008060008060008060c087890312156200031357620003126200024e565b5b60006200032389828a0162000277565b96505060206200033689828a0162000277565b95505060406200034989828a0162000277565b94505060606200035c89828a0162000277565b93505060806200036f89828a01620002dc565b92505060a06200038289828a01620002dc565b9150509295509295509295565b61191c806200039f6000396000f3fe608060405234801561001057600080fd5b50600436106100935760003560e01c806342966c681161006657806342966c681461011c5780639b96eece14610138578063a457c2d714610168578063a9059cbb14610184578063c4e41b22146101a057610093565b8063095ea7b3146100985780630af4187d146100b457806323b872dd146100e45780633950935114610100575b600080fd5b6100b260048036038101906100ad91906114be565b6101be565b005b6100ce60048036038101906100c991906114fe565b610238565b6040516100db919061154d565b60405180910390f35b6100fe60048036038101906100f99190611568565b6102c7565b005b61011a600480360381019061011591906114be565b610324565b005b610136600480360381019061013191906115bb565b61037f565b005b610152600480360381019061014d91906115e8565b6103d8565b60405161015f919061154d565b60405180910390f35b610182600480360381019061017d91906114be565b610429565b005b61019e600480360381019061019991906114be565b610484565b005b6101a86104df565b6040516101b5919061154d565b60405180910390f35b60006101ca83836104f1565b905060006101d884846105f1565b9050600015158215151480156101f2575060001515811515145b15610232576040517f08c379a000000000000000000000000000000000000000000000000000000000815260040161022990611672565b60405180910390fd5b50505050565b600080600b60008573ffffffffffffffffffffffffffffffffffffffff1673ffffffffffffffffffffffffffffffffffffffff16815260200190815260200160002060008473ffffffffffffffffffffffffffffffffffffffff1673ffffffffffffffffffffffffffffffffffffffff1681526020019081526020016000206000015490508091505092915050565b60006102d48484846106f2565b905060001515811515141561031e576040517f08c379a000000000000000000000000000000000000000000000000000000000815260040161031590611672565b60405180910390fd5b50505050565b60006103308383610846565b905060001515811515141561037a576040517f08c379a000000000000000000000000000000000000000000000000000000000815260040161037190611672565b60405180910390fd5b505050565b600061038a8261089d565b90506000151581151514156103d4576040517f08c379a00000000000000000000000000000000000000000000000000000000081526004016103cb90611672565b60405180910390fd5b5050565b600080600c60008473ffffffffffffffffffffffffffffffffffffffff1673ffffffffffffffffffffffffffffffffffffffff16815260200190815260200160002060000154905080915050919050565b6000610435838361098f565b905060001515811515141561047f576040517f08c379a000000000000000000000000000000000000000000000000000000000815260040161047690611672565b60405180910390fd5b505050565b600061049083836109e6565b90506000151581151514156104da576040517f08c379a00000000000000000000000000000000000000000000000000000000081526004016104d190611672565b60405180910390fd5b505050565b60008060066000015490508091505090565b6000803390506000600b60008373ffffffffffffffffffffffffffffffffffffffff1673ffffffffffffffffffffffffffffffffffffffff16815260200190815260200160002060008673ffffffffffffffffffffffffffffffffffffffff1673ffffffffffffffffffffffffffffffffffffffff1681526020019081526020016000206000015490508084106105e4576000818561059091906116c1565b905061059d838783610aa1565b7f01722f0e92ffd761d4a842cffdd36fe3adb6091e41732a4e714250176b7d8d228387836040516105d093929190611704565b60405180910390a1600193505050506105eb565b6000925050505b92915050565b6000803390506000600b60008373ffffffffffffffffffffffffffffffffffffffff1673ffffffffffffffffffffffffffffffffffffffff16815260200190815260200160002060008673ffffffffffffffffffffffffffffffffffffffff1673ffffffffffffffffffffffffffffffffffffffff168152602001908152602001600020600001549050808410156106e5576000848261069191906116c1565b905061069e838783610b4d565b7f3fda289a93fbd447987ffc8940a1af71a1fad600cc184d06b56d4aa2713935228387836040516106d193929190611704565b60405180910390a1600193505050506106ec565b6000925050505b92915050565b6000803390506000600b60008773ffffffffffffffffffffffffffffffffffffffff1673ffffffffffffffffffffffffffffffffffffffff16815260200190815260200160002060008373ffffffffffffffffffffffffffffffffffffffff1673ffffffffffffffffffffffffffffffffffffffff1681526020019081526020016000206000015490506000600c60008873ffffffffffffffffffffffffffffffffffffffff1673ffffffffffffffffffffffffffffffffffffffff1681526020019081526020016000206000015490508481101580156107d35750848210155b15610837576107e3878487610bf9565b6107ee878787610ca5565b7f5f7542858008eeb041631f30e6109ae94b83a58e9a58261dd2c42c508850f93987878588604051610823949392919061173b565b60405180910390a16001935050505061083f565b600093505050505b9392505050565b600080339050610857818585610aa1565b7f01722f0e92ffd761d4a842cffdd36fe3adb6091e41732a4e714250176b7d8d2281858560405161088a93929190611704565b60405180910390a1600191505092915050565b6000803390506000600c60008373ffffffffffffffffffffffffffffffffffffffff1673ffffffffffffffffffffffffffffffffffffffff168152602001908152602001600020600001549050600073ffffffffffffffffffffffffffffffffffffffff168273ffffffffffffffffffffffffffffffffffffffff16141580156109275750808411155b15610983576109368285610cf9565b61093f84610d66565b7fcc16f5dbb4873280815c1ee09dbd06736cffcc184412cf7a71a0fdb75d397ca58285604051610970929190611780565b60405180910390a160019250505061098a565b6000925050505b919050565b6000803390506109a0818585610b4d565b7f3fda289a93fbd447987ffc8940a1af71a1fad600cc184d06b56d4aa2713935228185856040516109d393929190611704565b60405180910390a1600191505092915050565b6000803390506000600c60008373ffffffffffffffffffffffffffffffffffffffff1673ffffffffffffffffffffffffffffffffffffffff168152602001908152602001600020600001549050808411610a9457610a448585610d94565b610a4e8285610e00565b7fddf252ad1be2c89b69c2b068fc378daa952ba7f163c4a11628f55a4df523b3ef828686604051610a8193929190611704565b60405180910390a1600192505050610a9b565b6000925050505b92915050565b6000819050610ab1848483610e6d565b81600f60008673ffffffffffffffffffffffffffffffffffffffff1673ffffffffffffffffffffffffffffffffffffffff16815260200190815260200160002060008573ffffffffffffffffffffffffffffffffffffffff1673ffffffffffffffffffffffffffffffffffffffff1681526020019081526020016000206000016000828254610b4091906117a9565b9250508190555050505050565b6000819050610b5d848483610f8a565b81600460008673ffffffffffffffffffffffffffffffffffffffff1673ffffffffffffffffffffffffffffffffffffffff16815260200190815260200160002060008573ffffffffffffffffffffffffffffffffffffffff1673ffffffffffffffffffffffffffffffffffffffff1681526020019081526020016000206000016000828254610bec91906117a9565b9250508190555050505050565b6000819050610c098484836110b0565b81600a60008673ffffffffffffffffffffffffffffffffffffffff1673ffffffffffffffffffffffffffffffffffffffff16815260200190815260200160002060008573ffffffffffffffffffffffffffffffffffffffff1673ffffffffffffffffffffffffffffffffffffffff1681526020019081526020016000206000016000828254610c9891906117a9565b9250508190555050505050565b610caf8282610d94565b610cb98382610e00565b7fddf252ad1be2c89b69c2b068fc378daa952ba7f163c4a11628f55a4df523b3ef838383604051610cec93929190611704565b60405180910390a1505050565b6000819050610d0883826111d6565b81600260008573ffffffffffffffffffffffffffffffffffffffff1673ffffffffffffffffffffffffffffffffffffffff1681526020019081526020016000206000016000828254610d5a91906117a9565b92505081905550505050565b6000819050610d7481611281565b81600d6000016000828254610d8991906117a9565b925050819055505050565b6000819050610da383826112b1565b816000808573ffffffffffffffffffffffffffffffffffffffff1673ffffffffffffffffffffffffffffffffffffffff1681526020019081526020016000206000016000828254610df491906117a9565b92505081905550505050565b6000819050610e0f8382611353565b81600160008573ffffffffffffffffffffffffffffffffffffffff1673ffffffffffffffffffffffffffffffffffffffff1681526020019081526020016000206000016000828254610e6191906117a9565b92505081905550505050565b60008190506000610efd600b60008773ffffffffffffffffffffffffffffffffffffffff1673ffffffffffffffffffffffffffffffffffffffff16815260200190815260200160002060008673ffffffffffffffffffffffffffffffffffffffff1673ffffffffffffffffffffffffffffffffffffffff16815260200190815260200160002060000154836113fe565b905080600b60008773ffffffffffffffffffffffffffffffffffffffff1673ffffffffffffffffffffffffffffffffffffffff16815260200190815260200160002060008673ffffffffffffffffffffffffffffffffffffffff1673ffffffffffffffffffffffffffffffffffffffff168152602001908152602001600020600001819055505050505050565b600081610f9690611809565b90506000611023600b60008773ffffffffffffffffffffffffffffffffffffffff1673ffffffffffffffffffffffffffffffffffffffff16815260200190815260200160002060008673ffffffffffffffffffffffffffffffffffffffff1673ffffffffffffffffffffffffffffffffffffffff16815260200190815260200160002060000154836113fe565b905080600b60008773ffffffffffffffffffffffffffffffffffffffff1673ffffffffffffffffffffffffffffffffffffffff16815260200190815260200160002060008673ffffffffffffffffffffffffffffffffffffffff1673ffffffffffffffffffffffffffffffffffffffff168152602001908152602001600020600001819055505050505050565b6000816110bc90611809565b90506000611149600b60008773ffffffffffffffffffffffffffffffffffffffff1673ffffffffffffffffffffffffffffffffffffffff16815260200190815260200160002060008673ffffffffffffffffffffffffffffffffffffffff1673ffffffffffffffffffffffffffffffffffffffff16815260200190815260200160002060000154836113fe565b905080600b60008773ffffffffffffffffffffffffffffffffffffffff1673ffffffffffffffffffffffffffffffffffffffff16815260200190815260200160002060008673ffffffffffffffffffffffffffffffffffffffff1673ffffffffffffffffffffffffffffffffffffffff168152602001908152602001600020600001819055505050505050565b6000816111e290611809565b90506000611232600c60008673ffffffffffffffffffffffffffffffffffffffff1673ffffffffffffffffffffffffffffffffffffffff16815260200190815260200160002060000154836113fe565b905080600c60008673ffffffffffffffffffffffffffffffffffffffff1673ffffffffffffffffffffffffffffffffffffffff1681526020019081526020016000206000018190555050505050565b60008161128d90611809565b905060006112a0600660000154836113fe565b905080600660000181905550505050565b60008190506000611304600c60008673ffffffffffffffffffffffffffffffffffffffff1673ffffffffffffffffffffffffffffffffffffffff16815260200190815260200160002060000154836113fe565b905080600c60008673ffffffffffffffffffffffffffffffffffffffff1673ffffffffffffffffffffffffffffffffffffffff1681526020019081526020016000206000018190555050505050565b60008161135f90611809565b905060006113af600c60008673ffffffffffffffffffffffffffffffffffffffff1673ffffffffffffffffffffffffffffffffffffffff16815260200190815260200160002060000154836113fe565b905080600c60008673ffffffffffffffffffffffffffffffffffffffff1673ffffffffffffffffffffffffffffffffffffffff1681526020019081526020016000206000018190555050505050565b600080839050600083826114129190611852565b9050600081905080935050505092915050565b600080fd5b600073ffffffffffffffffffffffffffffffffffffffff82169050919050565b60006114558261142a565b9050919050565b6114658161144a565b811461147057600080fd5b50565b6000813590506114828161145c565b92915050565b6000819050919050565b61149b81611488565b81146114a657600080fd5b50565b6000813590506114b881611492565b92915050565b600080604083850312156114d5576114d4611425565b5b60006114e385828601611473565b92505060206114f4858286016114a9565b9150509250929050565b6000806040838503121561151557611514611425565b5b600061152385828601611473565b925050602061153485828601611473565b9150509250929050565b61154781611488565b82525050565b6000602082019050611562600083018461153e565b92915050565b60008060006060848603121561158157611580611425565b5b600061158f86828701611473565b93505060206115a086828701611473565b92505060406115b1868287016114a9565b9150509250925092565b6000602082840312156115d1576115d0611425565b5b60006115df848285016114a9565b91505092915050565b6000602082840312156115fe576115fd611425565b5b600061160c84828501611473565b91505092915050565b600082825260208201905092915050565b7f52756c6520636f6e646974696f6e206661696c65640000000000000000000000600082015250565b600061165c601583611615565b915061166782611626565b602082019050919050565b6000602082019050818103600083015261168b8161164f565b9050919050565b7f4e487b7100000000000000000000000000000000000000000000000000000000600052601160045260246000fd5b60006116cc82611488565b91506116d783611488565b9250828210156116ea576116e9611692565b5b828203905092915050565b6116fe8161144a565b82525050565b600060608201905061171960008301866116f5565b61172660208301856116f5565b611733604083018461153e565b949350505050565b600060808201905061175060008301876116f5565b61175d60208301866116f5565b61176a60408301856116f5565b611777606083018461153e565b95945050505050565b600060408201905061179560008301856116f5565b6117a2602083018461153e565b9392505050565b60006117b482611488565b91506117bf83611488565b9250827fffffffffffffffffffffffffffffffffffffffffffffffffffffffffffffffff038211156117f4576117f3611692565b5b828201905092915050565b6000819050919050565b6000611814826117ff565b91507f800000000000000000000000000000000000000000000000000000000000000082141561184757611846611692565b5b816000039050919050565b600061185d826117ff565b9150611868836117ff565b9250817f7fffffffffffffffffffffffffffffffffffffffffffffffffffffffffffffff038313600083121516156118a3576118a2611692565b5b817f80000000000000000000000000000000000000000000000000000000000000000383126000831216156118db576118da611692565b5b82820190509291505056fea2646970667358221220aaad2c9f08a147e2f31cb64b8179b14cc3361dfbf289432c5b4c4a707496cbee64736f6c634300080c0033",
  "immutableReferences": {},
  "source": "contract Shib {\n  struct TotalInTuple {\n    uint n;\n    bool _valid;\n  }\n  struct TotalOutTuple {\n    uint n;\n    bool _valid;\n  }\n  struct OwnerTuple {\n    address p;\n    bool _valid;\n  }\n  struct DecreaseAllowanceTotalTuple {\n    uint m;\n    bool _valid;\n  }\n  struct TotalMintTuple {\n    uint n;\n    bool _valid;\n  }\n  struct TotalSupplyTuple {\n    uint n;\n    bool _valid;\n  }\n  struct AllMintTuple {\n    uint n;\n    bool _valid;\n  }\n  struct SpentTotalTuple {\n    uint m;\n    bool _valid;\n  }\n  struct AllowanceTuple {\n    uint n;\n    bool _valid;\n  }\n  struct TotalBurnTuple {\n    uint n;\n    bool _valid;\n  }\n  struct BalanceOfTuple {\n    uint n;\n    bool _valid;\n  }\n  struct AllBurnTuple {\n    uint n;\n    bool _valid;\n  }\n  struct IncreaseAllowanceTotalTuple {\n    uint m;\n    bool _valid;\n  }\n  mapping(address=>TotalInTuple) totalIn;\n  mapping(address=>TotalOutTuple) totalOut;\n  mapping(address=>TotalBurnTuple) totalBurn;\n  OwnerTuple owner;\n  mapping(address=>mapping(address=>DecreaseAllowanceTotalTuple)) decreaseAllowanceTotal;\n  mapping(address=>TotalMintTuple) totalMint;\n  TotalSupplyTuple totalSupply;\n  AllMintTuple allMint;\n  mapping(address=>mapping(address=>SpentTotalTuple)) spentTotal;\n  mapping(address=>mapping(address=>AllowanceTuple)) allowance;\n  mapping(address=>BalanceOfTuple) balanceOf;\n  AllBurnTuple allBurn;\n  mapping(address=>mapping(address=>IncreaseAllowanceTotalTuple)) increaseAllowanceTotal;\n  event TransferFrom(address from,address to,address spender,uint amount);\n  event Burn(address p,uint amount);\n  event Mint(address p,uint amount);\n  event DecreaseAllowance(address p,address s,uint n);\n  event IncreaseAllowance(address p,address s,uint n);\n  event BurnFrom(address p,address from,uint n);\n  event Transfer(address from,address to,uint amount);\n  constructor(uint name,uint symbol,uint decimals,uint totalSupply,address feeReceiver,address tokenOwnerAddress) public {\n    updateBalanceOfOnInsertConstructor_r0(totalSupply,tokenOwnerAddress);\n    updateSendOnInsertConstructor_r2(feeReceiver);\n    updateTotalSupplyOnInsertConstructor_r4(totalSupply);\n    updateOwnerOnInsertConstructor_r15();\n    updateTotalBalancesOnInsertConstructor_r28(totalSupply);\n  }\n  function getTotalSupply() public view  returns (uint) {\n      uint n = totalSupply.n;\n      return n;\n  }\n  function getAllowance(address p,address s) public view  returns (uint) {\n      uint n = allowance[p][s].n;\n      return n;\n  }\n  function getBalanceOf(address p) public view  returns (uint) {\n      uint n = balanceOf[p].n;\n      return n;\n  }\n  function burn(uint amount) public    {\n      bool r5 = updateBurnOnInsertRecv_burn_r5(amount);\n      if(r5==false) {\n        revert(\"Rule condition failed\");\n      }\n  }\n  function approve(address s,uint n) public    {\n      bool r18 = updateIncreaseAllowanceOnInsertRecv_approve_r18(s,n);\n      bool r13 = updateDecreaseAllowanceOnInsertRecv_approve_r13(s,n);\n      if(r18==false && r13==false) {\n        revert(\"Rule condition failed\");\n      }\n  }\n  function transfer(address to,uint amount) public    {\n      bool r20 = updateTransferOnInsertRecv_transfer_r20(to,amount);\n      if(r20==false) {\n        revert(\"Rule condition failed\");\n      }\n  }\n  function decreaseAllowance(address s,uint n) public    {\n      bool r24 = updateDecreaseAllowanceOnInsertRecv_decreaseAllowance_r24(s,n);\n      if(r24==false) {\n        revert(\"Rule condition failed\");\n      }\n  }\n  function increaseAllowance(address s,uint n) public    {\n      bool r11 = updateIncreaseAllowanceOnInsertRecv_increaseAllowance_r11(s,n);\n      if(r11==false) {\n        revert(\"Rule condition failed\");\n      }\n  }\n  function transferFrom(address from,address to,uint amount) public    {\n      bool r26 = updateTransferFromOnInsertRecv_transferFrom_r26(from,to,amount);\n      if(r26==false) {\n        revert(\"Rule condition failed\");\n      }\n  }\n  function updateSendOnInsertConstructor_r2(address p) private    {\n      uint n = msg.value;\n      payable(p).send(n);\n  }\n  function updateDecreaseAllowanceOnInsertRecv_decreaseAllowance_r24(address s,uint n) private   returns (bool) {\n      address o = msg.sender;\n      updateDecreaseAllowanceTotalOnInsertDecreaseAllowance_r8(o,s,n);\n      emit DecreaseAllowance(o,s,n);\n      return true;\n      return false;\n  }\n  function updateIncreaseAllowanceOnInsertRecv_approve_r18(address s,uint n) private   returns (bool) {\n      address o = msg.sender;\n      uint m = allowance[o][s].n;\n      if(n>=m) {\n        uint d = n-m;\n        updateIncreaseAllowanceTotalOnInsertIncreaseAllowance_r29(o,s,d);\n        emit IncreaseAllowance(o,s,d);\n        return true;\n      }\n      return false;\n  }\n  function updateAllowanceOnIncrementIncreaseAllowanceTotal_r1(address o,address s,int m) private    {\n      int _delta = int(m);\n      uint newValue = updateuintByint(allowance[o][s].n,_delta);\n      allowance[o][s].n = newValue;\n  }\n  function updateTotalSupplyOnInsertConstructor_r4(uint n) private    {\n      totalSupply = TotalSupplyTuple(n,true);\n  }\n  function updateSpentTotalOnInsertTransferFrom_r9(address o,address s,uint n) private    {\n      int delta0 = int(n);\n      updateAllowanceOnIncrementSpentTotal_r1(o,s,delta0);\n      spentTotal[o][s].m += n;\n  }\n  function updateBalanceOfOnIncrementTotalIn_r7(address p,int i) private    {\n      int _delta = int(i);\n      uint newValue = updateuintByint(balanceOf[p].n,_delta);\n      balanceOf[p].n = newValue;\n  }\n  function updateAllowanceOnIncrementDecreaseAllowanceTotal_r1(address o,address s,int d) private    {\n      int _delta = int(-d);\n      uint newValue = updateuintByint(allowance[o][s].n,_delta);\n      allowance[o][s].n = newValue;\n  }\n  function updateTransferOnInsertRecv_transfer_r20(address r,uint n) private   returns (bool) {\n      address s = msg.sender;\n      uint m = balanceOf[s].n;\n      if(n<=m) {\n        updateTotalInOnInsertTransfer_r30(r,n);\n        updateTotalOutOnInsertTransfer_r22(s,n);\n        emit Transfer(s,r,n);\n        return true;\n      }\n      return false;\n  }\n  function updateDecreaseAllowanceTotalOnInsertDecreaseAllowance_r8(address o,address s,uint n) private    {\n      int delta0 = int(n);\n      updateAllowanceOnIncrementDecreaseAllowanceTotal_r1(o,s,delta0);\n      decreaseAllowanceTotal[o][s].m += n;\n  }\n  function updateTotalBurnOnInsertBurn_r16(address p,uint n) private    {\n      int delta0 = int(n);\n      updateBalanceOfOnIncrementTotalBurn_r7(p,delta0);\n      totalBurn[p].n += n;\n  }\n  function updateTransferOnInsertTransferFrom_r12(address o,address r,uint n) private    {\n      updateTotalInOnInsertTransfer_r30(r,n);\n      updateTotalOutOnInsertTransfer_r22(o,n);\n      emit Transfer(o,r,n);\n  }\n  function updateTransferFromOnInsertRecv_transferFrom_r26(address o,address r,uint n) private   returns (bool) {\n      address s = msg.sender;\n      uint k = allowance[o][s].n;\n      uint m = balanceOf[o].n;\n      if(m>=n && k>=n) {\n        updateSpentTotalOnInsertTransferFrom_r9(o,s,n);\n        updateTransferOnInsertTransferFrom_r12(o,r,n);\n        emit TransferFrom(o,r,s,n);\n        return true;\n      }\n      return false;\n  }\n  function updateBurnOnInsertRecv_burn_r5(uint n) private   returns (bool) {\n      address s = msg.sender;\n      uint m = balanceOf[s].n;\n      if(s!=address(0) && n<=m) {\n        updateTotalBurnOnInsertBurn_r16(s,n);\n        updateAllBurnOnInsertBurn_r27(n);\n        emit Burn(s,n);\n        return true;\n      }\n      return false;\n  }\n  function updateAllBurnOnInsertBurn_r27(uint n) private    {\n      int delta0 = int(n);\n      updateTotalSupplyOnIncrementAllBurn_r17(delta0);\n      allBurn.n += n;\n  }\n  function updateBalanceOfOnIncrementTotalOut_r7(address p,int o) private    {\n      int _delta = int(-o);\n      uint newValue = updateuintByint(balanceOf[p].n,_delta);\n      balanceOf[p].n = newValue;\n  }\n  function updateTotalSupplyOnIncrementAllBurn_r17(int b) private    {\n      int _delta = int(-b);\n      uint newValue = updateuintByint(totalSupply.n,_delta);\n      totalSupply.n = newValue;\n  }\n  function updateIncreaseAllowanceTotalOnInsertIncreaseAllowance_r29(address o,address s,uint n) private    {\n      int delta0 = int(n);\n      updateAllowanceOnIncrementIncreaseAllowanceTotal_r1(o,s,delta0);\n      increaseAllowanceTotal[o][s].m += n;\n  }\n  function updateBalanceOfOnInsertConstructor_r0(uint n,address p) private    {\n      balanceOf[p] = BalanceOfTuple(n,true);\n  }\n  function updateuintByint(uint x,int delta) private   returns (uint) {\n      int convertedX = int(x);\n      int value = convertedX+delta;\n      uint convertedValue = uint(value);\n      return convertedValue;\n  }\n  function updateTotalInOnInsertTransfer_r30(address p,uint n) private    {\n      int delta0 = int(n);\n      updateBalanceOfOnIncrementTotalIn_r7(p,delta0);\n      totalIn[p].n += n;\n  }\n  function updateIncreaseAllowanceOnInsertRecv_increaseAllowance_r11(address s,uint n) private   returns (bool) {\n      address o = msg.sender;\n      updateIncreaseAllowanceTotalOnInsertIncreaseAllowance_r29(o,s,n);\n      emit IncreaseAllowance(o,s,n);\n      return true;\n      return false;\n  }\n  function updateOwnerOnInsertConstructor_r15() private    {\n      address s = msg.sender;\n      owner = OwnerTuple(s,true);\n  }\n  function updateTotalOutOnInsertTransfer_r22(address p,uint n) private    {\n      int delta0 = int(n);\n      updateBalanceOfOnIncrementTotalOut_r7(p,delta0);\n      totalOut[p].n += n;\n  }\n  function updateAllowanceOnIncrementSpentTotal_r1(address o,address s,int l) private    {\n      int _delta = int(-l);\n      uint newValue = updateuintByint(allowance[o][s].n,_delta);\n      allowance[o][s].n = newValue;\n  }\n  function updateDecreaseAllowanceOnInsertRecv_approve_r13(address s,uint n) private   returns (bool) {\n      address o = msg.sender;\n      uint m = allowance[o][s].n;\n      if(n<m) {\n        uint d = m-n;\n        updateDecreaseAllowanceTotalOnInsertDecreaseAllowance_r8(o,s,d);\n        emit DecreaseAllowance(o,s,d);\n        return true;\n      }\n      return false;\n  }\n  function updateBalanceOfOnIncrementTotalBurn_r7(address p,int m) private    {\n      int _delta = int(-m);\n      uint newValue = updateuintByint(balanceOf[p].n,_delta);\n      balanceOf[p].n = newValue;\n  }\n  function updateTotalBalancesOnInsertConstructor_r28(uint n) private    {\n      // Empty()\n  }\n}",
  "sourcePath": "/Users/ljy/Desktop/PENN/2023_summer/boon_dsc/smart-contracts/optimizations/full/contracts/shib.sol",
  "compiler": {
    "name": "solc",
    "version": "0.8.12+commit.f00d7308.Emscripten.clang"
  },
  "schemaVersion": "3.4.16",
  "updatedAt": "2023-12-29T01:37:55.818Z",
  "devdoc": {
    "kind": "dev",
    "methods": {},
    "version": 1
  },
  "userdoc": {
    "kind": "user",
    "methods": {},
    "version": 1
  }
}