{
  "contractName": "Tether",
  "abi": [
    {
      "inputs": [
        {
          "internalType": "uint256",
          "name": "n",
          "type": "uint256"
        }
      ],
      "stateMutability": "nonpayable",
      "type": "constructor"
    },
    {
      "anonymous": false,
      "inputs": [
        {
          "indexed": false,
          "internalType": "address",
          "name": "p",
          "type": "address"
        }
      ],
      "name": "AddBlackList",
      "type": "event"
    },
    {
      "anonymous": false,
      "inputs": [
        {
          "indexed": false,
          "internalType": "address",
          "name": "p",
          "type": "address"
        },
        {
          "indexed": false,
          "internalType": "uint256",
          "name": "n",
          "type": "uint256"
        }
      ],
      "name": "DestroyBlackFunds",
      "type": "event"
    },
    {
      "anonymous": false,
      "inputs": [
        {
          "indexed": false,
          "internalType": "address",
          "name": "p",
          "type": "address"
        },
        {
          "indexed": false,
          "internalType": "address",
          "name": "s",
          "type": "address"
        },
        {
          "indexed": false,
          "internalType": "uint256",
          "name": "n",
          "type": "uint256"
        }
      ],
      "name": "IncreaseAllowance",
      "type": "event"
    },
    {
      "anonymous": false,
      "inputs": [
        {
          "indexed": false,
          "internalType": "address",
          "name": "p",
          "type": "address"
        },
        {
          "indexed": false,
          "internalType": "uint256",
          "name": "amount",
          "type": "uint256"
        }
      ],
      "name": "Issue",
      "type": "event"
    },
    {
      "anonymous": false,
      "inputs": [
        {
          "indexed": false,
          "internalType": "bool",
          "name": "b",
          "type": "bool"
        }
      ],
      "name": "Pause",
      "type": "event"
    },
    {
      "anonymous": false,
      "inputs": [
        {
          "indexed": false,
          "internalType": "address",
          "name": "p",
          "type": "address"
        },
        {
          "indexed": false,
          "internalType": "uint256",
          "name": "amount",
          "type": "uint256"
        }
      ],
      "name": "Redeem",
      "type": "event"
    },
    {
      "anonymous": false,
      "inputs": [
        {
          "indexed": false,
          "internalType": "address",
          "name": "p",
          "type": "address"
        }
      ],
      "name": "RemoveBlackList",
      "type": "event"
    },
    {
      "anonymous": false,
      "inputs": [
        {
          "indexed": false,
          "internalType": "uint256",
          "name": "b",
          "type": "uint256"
        },
        {
          "indexed": false,
          "internalType": "uint256",
          "name": "f",
          "type": "uint256"
        }
      ],
      "name": "SetParams",
      "type": "event"
    },
    {
      "anonymous": false,
      "inputs": [
        {
          "indexed": false,
          "internalType": "address",
          "name": "from",
          "type": "address"
        },
        {
          "indexed": false,
          "internalType": "address",
          "name": "to",
          "type": "address"
        },
        {
          "indexed": false,
          "internalType": "uint256",
          "name": "fee",
          "type": "uint256"
        },
        {
          "indexed": false,
          "internalType": "uint256",
          "name": "amount",
          "type": "uint256"
        }
      ],
      "name": "Transfer",
      "type": "event"
    },
    {
      "anonymous": false,
      "inputs": [
        {
          "indexed": false,
          "internalType": "address",
          "name": "from",
          "type": "address"
        },
        {
          "indexed": false,
          "internalType": "address",
          "name": "to",
          "type": "address"
        },
        {
          "indexed": false,
          "internalType": "address",
          "name": "spender",
          "type": "address"
        },
        {
          "indexed": false,
          "internalType": "uint256",
          "name": "fee",
          "type": "uint256"
        },
        {
          "indexed": false,
          "internalType": "uint256",
          "name": "amount",
          "type": "uint256"
        }
      ],
      "name": "TransferFrom",
      "type": "event"
    },
    {
      "anonymous": false,
      "inputs": [
        {
          "indexed": false,
          "internalType": "address",
          "name": "o",
          "type": "address"
        }
      ],
      "name": "TransferOwnership",
      "type": "event"
    },
    {
      "anonymous": false,
      "inputs": [
        {
          "indexed": false,
          "internalType": "bool",
          "name": "b",
          "type": "bool"
        }
      ],
      "name": "Unpause",
      "type": "event"
    },
    {
      "inputs": [
        {
          "internalType": "address",
          "name": "o",
          "type": "address"
        }
      ],
      "name": "transferOwnership",
      "outputs": [],
      "stateMutability": "nonpayable",
      "type": "function"
    },
    {
      "inputs": [],
      "name": "pause",
      "outputs": [],
      "stateMutability": "nonpayable",
      "type": "function"
    },
    {
      "inputs": [
        {
          "internalType": "address",
          "name": "p",
          "type": "address"
        }
      ],
      "name": "removeBlackList",
      "outputs": [],
      "stateMutability": "nonpayable",
      "type": "function"
    },
    {
      "inputs": [
        {
          "internalType": "uint256",
          "name": "b",
          "type": "uint256"
        },
        {
          "internalType": "uint256",
          "name": "f",
          "type": "uint256"
        }
      ],
      "name": "setParams",
      "outputs": [],
      "stateMutability": "nonpayable",
      "type": "function"
    },
    {
      "inputs": [],
      "name": "getTotalSupply",
      "outputs": [
        {
          "internalType": "uint256",
          "name": "",
          "type": "uint256"
        }
      ],
      "stateMutability": "view",
      "type": "function"
    },
    {
      "inputs": [
        {
          "internalType": "address",
          "name": "from",
          "type": "address"
        },
        {
          "internalType": "address",
          "name": "to",
          "type": "address"
        },
        {
          "internalType": "uint256",
          "name": "amount",
          "type": "uint256"
        }
      ],
      "name": "transferFrom",
      "outputs": [],
      "stateMutability": "nonpayable",
      "type": "function"
    },
    {
      "inputs": [
        {
          "internalType": "address",
          "name": "p",
          "type": "address"
        }
      ],
      "name": "destroyBlackFunds",
      "outputs": [],
      "stateMutability": "nonpayable",
      "type": "function"
    },
    {
      "inputs": [
        {
          "internalType": "address",
          "name": "p",
          "type": "address"
        },
        {
          "internalType": "address",
          "name": "s",
          "type": "address"
        }
      ],
      "name": "getAllowance",
      "outputs": [
        {
          "internalType": "uint256",
          "name": "",
          "type": "uint256"
        }
      ],
      "stateMutability": "view",
      "type": "function"
    },
    {
      "inputs": [
        {
          "internalType": "address",
          "name": "p",
          "type": "address"
        }
      ],
      "name": "addBlackList",
      "outputs": [],
      "stateMutability": "nonpayable",
      "type": "function"
    },
    {
      "inputs": [
        {
          "internalType": "address",
          "name": "to",
          "type": "address"
        },
        {
          "internalType": "uint256",
          "name": "amount",
          "type": "uint256"
        }
      ],
      "name": "transfer",
      "outputs": [],
      "stateMutability": "nonpayable",
      "type": "function"
    },
    {
      "inputs": [
        {
          "internalType": "address",
          "name": "s",
          "type": "address"
        },
        {
          "internalType": "uint256",
          "name": "n",
          "type": "uint256"
        }
      ],
      "name": "approve",
      "outputs": [],
      "stateMutability": "nonpayable",
      "type": "function"
    },
    {
      "inputs": [
        {
          "internalType": "address",
          "name": "p",
          "type": "address"
        }
      ],
      "name": "getBalanceOf",
      "outputs": [
        {
          "internalType": "uint256",
          "name": "",
          "type": "uint256"
        }
      ],
      "stateMutability": "view",
      "type": "function"
    },
    {
      "inputs": [
        {
          "internalType": "uint256",
          "name": "amount",
          "type": "uint256"
        }
      ],
      "name": "redeem",
      "outputs": [],
      "stateMutability": "nonpayable",
      "type": "function"
    },
    {
      "inputs": [],
      "name": "unpause",
      "outputs": [],
      "stateMutability": "nonpayable",
      "type": "function"
    },
    {
      "inputs": [
        {
          "internalType": "uint256",
          "name": "amount",
          "type": "uint256"
        }
      ],
      "name": "issue",
      "outputs": [],
      "stateMutability": "nonpayable",
      "type": "function"
    }
  ],
  "bytecode": "0x60806040523480156200001157600080fd5b50604051620043fe380380620043fe833981810160405281019062000037919062000cd0565b6200004881620000b160201b60201c565b620000586200013e60201b60201c565b62000069816200020260201b60201c565b620000796200020560201b60201c565b620000896200024f60201b60201c565b62000099620002b160201b60201c565b620000aa81620002fb60201b60201c565b5062000e84565b6000339050604051806040016040528083815260200160011515815250601160008373ffffffffffffffffffffffffffffffffffffffff1673ffffffffffffffffffffffffffffffffffffffff1681526020019081526020016000206000820151816000015560208201518160010160006101000a81548160ff0219169083151502179055509050505050565b600033905062000154816200034560201b60201c565b62000165816200056a60201b60201c565b60405180604001604052808273ffffffffffffffffffffffffffffffffffffffff16815260200160011515815250600260008201518160000160006101000a81548173ffffffffffffffffffffffffffffffffffffffff021916908373ffffffffffffffffffffffffffffffffffffffff16021790555060208201518160000160146101000a81548160ff02191690831515021790555090505050565b50565b6040518060400160405280600081526020016001151581525060236000820151816000015560208201518160010160006101000a81548160ff021916908315150217905550905050565b604051806040016040528060001515815260200160011515815250602860008201518160000160006101000a81548160ff02191690831515021790555060208201518160000160016101000a81548160ff021916908315150217905550905050565b6040518060400160405280600081526020016001151581525060096000820151816000015560208201518160010160006101000a81548160ff021916908315150217905550905050565b60405180604001604052808281526020016001151581525060056000820151816000015560208201518160010160006101000a81548160ff02191690831515021790555090505050565b6000601860000160009054906101000a900473ffffffffffffffffffffffffffffffffffffffff1690506000601860010160009054906101000a900473ffffffffffffffffffffffffffffffffffffffff1690506000601860020160009054906101000a900473ffffffffffffffffffffffffffffffffffffffff16905060006018600301549050620003e0848683620006ff60201b60201c565b620003f38483836200083560201b60201c565b6040518060a001604052808573ffffffffffffffffffffffffffffffffffffffff1681526020018673ffffffffffffffffffffffffffffffffffffffff1681526020018373ffffffffffffffffffffffffffffffffffffffff16815260200182815260200160011515815250601260008201518160000160006101000a81548173ffffffffffffffffffffffffffffffffffffffff021916908373ffffffffffffffffffffffffffffffffffffffff16021790555060208201518160010160006101000a81548173ffffffffffffffffffffffffffffffffffffffff021916908373ffffffffffffffffffffffffffffffffffffffff16021790555060408201518160020160006101000a81548173ffffffffffffffffffffffffffffffffffffffff021916908373ffffffffffffffffffffffffffffffffffffffff1602179055506060820151816003015560808201518160040160006101000a81548160ff0219169083151502179055509050505050505050565b6000601e60000160009054906101000a900473ffffffffffffffffffffffffffffffffffffffff1690506000601e60010160009054906101000a900473ffffffffffffffffffffffffffffffffffffffff1690506000601e600201549050620005da8482620008eb60201b60201c565b620005ec83826200096260201b60201c565b60405180608001604052808473ffffffffffffffffffffffffffffffffffffffff1681526020018573ffffffffffffffffffffffffffffffffffffffff16815260200182815260200160011515815250600d60008201518160000160006101000a81548173ffffffffffffffffffffffffffffffffffffffff021916908373ffffffffffffffffffffffffffffffffffffffff16021790555060208201518160010160006101000a81548173ffffffffffffffffffffffffffffffffffffffff021916908373ffffffffffffffffffffffffffffffffffffffff1602179055506040820151816002015560608201518160030160006101000a81548160ff02191690831515021790555090505050505050565b6200071183826200096260201b60201c565b620007238282620008eb60201b60201c565b60405180608001604052808473ffffffffffffffffffffffffffffffffffffffff1681526020018373ffffffffffffffffffffffffffffffffffffffff16815260200182815260200160011515815250600d60008201518160000160006101000a81548173ffffffffffffffffffffffffffffffffffffffff021916908373ffffffffffffffffffffffffffffffffffffffff16021790555060208201518160010160006101000a81548173ffffffffffffffffffffffffffffffffffffffff021916908373ffffffffffffffffffffffffffffffffffffffff1602179055506040820151816002015560608201518160030160006101000a81548160ff021916908315150217905550905050505050565b60008190506200084d848483620009d860201b60201c565b81602660008673ffffffffffffffffffffffffffffffffffffffff1673ffffffffffffffffffffffffffffffffffffffff16815260200190815260200160002060008573ffffffffffffffffffffffffffffffffffffffff1673ffffffffffffffffffffffffffffffffffffffff1681526020019081526020016000206000016000828254620008de919062000d31565b9250508190555050505050565b600081905062000902838262000b0860201b60201c565b81601760008573ffffffffffffffffffffffffffffffffffffffff1673ffffffffffffffffffffffffffffffffffffffff168152602001908152602001600020600001600082825462000956919062000d31565b92505081905550505050565b600081905062000979838262000bb260201b60201c565b816000808573ffffffffffffffffffffffffffffffffffffffff1673ffffffffffffffffffffffffffffffffffffffff1681526020019081526020016000206000016000828254620009cc919062000d31565b92505081905550505050565b600081620009e69062000d98565b9050600062000a7b602760008773ffffffffffffffffffffffffffffffffffffffff1673ffffffffffffffffffffffffffffffffffffffff16815260200190815260200160002060008673ffffffffffffffffffffffffffffffffffffffff1673ffffffffffffffffffffffffffffffffffffffff168152602001908152602001600020600001548362000c6760201b60201c565b905080602760008773ffffffffffffffffffffffffffffffffffffffff1673ffffffffffffffffffffffffffffffffffffffff16815260200190815260200160002060008673ffffffffffffffffffffffffffffffffffffffff1673ffffffffffffffffffffffffffffffffffffffff168152602001908152602001600020600001819055505050505050565b6000819050600062000b63601160008673ffffffffffffffffffffffffffffffffffffffff1673ffffffffffffffffffffffffffffffffffffffff168152602001908152602001600020600001548362000c6760201b60201c565b905080601160008673ffffffffffffffffffffffffffffffffffffffff1673ffffffffffffffffffffffffffffffffffffffff1681526020019081526020016000206000018190555050505050565b60008162000bc09062000d98565b9050600062000c18601160008673ffffffffffffffffffffffffffffffffffffffff1673ffffffffffffffffffffffffffffffffffffffff168152602001908152602001600020600001548362000c6760201b60201c565b905080601160008673ffffffffffffffffffffffffffffffffffffffff1673ffffffffffffffffffffffffffffffffffffffff1681526020019081526020016000206000018190555050505050565b6000808390506000838262000c7d919062000de6565b9050600081905080935050505092915050565b600080fd5b6000819050919050565b62000caa8162000c95565b811462000cb657600080fd5b50565b60008151905062000cca8162000c9f565b92915050565b60006020828403121562000ce95762000ce862000c90565b5b600062000cf98482850162000cb9565b91505092915050565b7f4e487b7100000000000000000000000000000000000000000000000000000000600052601160045260246000fd5b600062000d3e8262000c95565b915062000d4b8362000c95565b9250827fffffffffffffffffffffffffffffffffffffffffffffffffffffffffffffffff0382111562000d835762000d8262000d02565b5b828201905092915050565b6000819050919050565b600062000da58262000d8e565b91507f800000000000000000000000000000000000000000000000000000000000000082141562000ddb5762000dda62000d02565b5b816000039050919050565b600062000df38262000d8e565b915062000e008362000d8e565b9250817f7fffffffffffffffffffffffffffffffffffffffffffffffffffffffffffffff0383136000831215161562000e3e5762000e3d62000d02565b5b817f800000000000000000000000000000000000000000000000000000000000000003831260008312161562000e795762000e7862000d02565b5b828201905092915050565b61356a8062000e946000396000f3fe608060405234801561001057600080fd5b50600436106100f55760003560e01c8063a9059cbb11610097578063db006a7511610066578063db006a7514610234578063e4997dc514610250578063f2fde38b1461026c578063f3bdc22814610288576100f5565b8063a9059cbb146101c2578063c0324c77146101de578063c4e41b22146101fa578063cc872b6614610218576100f5565b806323b872dd116100d357806323b872dd146101625780633f4ba83a1461017e5780638456cb59146101885780639b96eece14610192576100f5565b8063095ea7b3146100fa5780630af4187d146101165780630ecb93c014610146575b600080fd5b610114600480360381019061010f9190612f45565b6102a4565b005b610130600480360381019061012b9190612f85565b6102ff565b60405161013d9190612fd4565b60405180910390f35b610160600480360381019061015b9190612fef565b61038e565b005b61017c6004803603810190610177919061301c565b6103e7565b005b610186610444565b005b61019061049b565b005b6101ac60048036038101906101a79190612fef565b6104f2565b6040516101b99190612fd4565b60405180910390f35b6101dc60048036038101906101d79190612f45565b610543565b005b6101f860048036038101906101f3919061306f565b61059e565b005b6102026105f9565b60405161020f9190612fd4565b60405180910390f35b610232600480360381019061022d91906130af565b61060b565b005b61024e600480360381019061024991906130af565b610664565b005b61026a60048036038101906102659190612fef565b6106bd565b005b61028660048036038101906102819190612fef565b610716565b005b6102a2600480360381019061029d9190612fef565b61076f565b005b60006102b083836107c8565b90506000151581151514156102fa576040517f08c379a00000000000000000000000000000000000000000000000000000000081526004016102f190613139565b60405180910390fd5b505050565b600080602760008573ffffffffffffffffffffffffffffffffffffffff1673ffffffffffffffffffffffffffffffffffffffff16815260200190815260200160002060008473ffffffffffffffffffffffffffffffffffffffff1673ffffffffffffffffffffffffffffffffffffffff1681526020019081526020016000206000015490508091505092915050565b6000610399826108b5565b90506000151581151514156103e3576040517f08c379a00000000000000000000000000000000000000000000000000000000081526004016103da90613139565b60405180910390fd5b5050565b60006103f4848484610969565b905060001515811515141561043e576040517f08c379a000000000000000000000000000000000000000000000000000000000815260040161043590613139565b60405180910390fd5b50505050565b600061044e610b6f565b9050600015158115151415610498576040517f08c379a000000000000000000000000000000000000000000000000000000000815260040161048f90613139565b60405180910390fd5b50565b60006104a5610c44565b90506000151581151514156104ef576040517f08c379a00000000000000000000000000000000000000000000000000000000081526004016104e690613139565b60405180910390fd5b50565b600080601160008473ffffffffffffffffffffffffffffffffffffffff1673ffffffffffffffffffffffffffffffffffffffff16815260200190815260200160002060000154905080915050919050565b600061054f8383610d19565b9050600015158115151415610599576040517f08c379a000000000000000000000000000000000000000000000000000000000815260040161059090613139565b60405180910390fd5b505050565b60006105aa8383610e87565b90506000151581151514156105f4576040517f08c379a00000000000000000000000000000000000000000000000000000000081526004016105eb90613139565b60405180910390fd5b505050565b60008060056000015490508091505090565b600061061682610f5d565b9050600015158115151415610660576040517f08c379a000000000000000000000000000000000000000000000000000000000815260040161065790613139565b60405180910390fd5b5050565b600061066f82611052565b90506000151581151514156106b9576040517f08c379a00000000000000000000000000000000000000000000000000000000081526004016106b090613139565b60405180910390fd5b5050565b60006106c88261119e565b9050600015158115151415610712576040517f08c379a000000000000000000000000000000000000000000000000000000000815260040161070990613139565b60405180910390fd5b5050565b600061072182611252565b905060001515811515141561076b576040517f08c379a000000000000000000000000000000000000000000000000000000000815260040161076290613139565b60405180910390fd5b5050565b600061077a8261133b565b90506000151581151514156107c4576040517f08c379a00000000000000000000000000000000000000000000000000000000081526004016107bb90613139565b60405180910390fd5b5050565b6000803390506000602760008373ffffffffffffffffffffffffffffffffffffffff1673ffffffffffffffffffffffffffffffffffffffff16815260200190815260200160002060008673ffffffffffffffffffffffffffffffffffffffff1673ffffffffffffffffffffffffffffffffffffffff168152602001908152602001600020600001549050600081856108609190613188565b905061086d8387836114db565b7f01722f0e92ffd761d4a842cffdd36fe3adb6091e41732a4e714250176b7d8d228387836040516108a0939291906131cb565b60405180910390a16001935050505092915050565b600080600260000160009054906101000a900473ffffffffffffffffffffffffffffffffffffffff1690503373ffffffffffffffffffffffffffffffffffffffff168173ffffffffffffffffffffffffffffffffffffffff16141561095e5761091d83611587565b7ff9dfc5050bb4c9b200f093a995458a80fb19943585b189fe5d317391abdc76458360405161094c9190613202565b60405180910390a16001915050610964565b60009150505b919050565b60008060236000015490506000600960000154905060003390506000601160008973ffffffffffffffffffffffffffffffffffffffff1673ffffffffffffffffffffffffffffffffffffffff168152602001908152602001600020600001549050600760008973ffffffffffffffffffffffffffffffffffffffff1673ffffffffffffffffffffffffffffffffffffffff16815260200190815260200160002060000160009054906101000a900460ff161515600015151415610b5f576000602760008a73ffffffffffffffffffffffffffffffffffffffff1673ffffffffffffffffffffffffffffffffffffffff16815260200190815260200160002060008473ffffffffffffffffffffffffffffffffffffffff1673ffffffffffffffffffffffffffffffffffffffff168152602001908152602001600020600001549050868210158015610aba5750868110155b15610b5d576000846127108988610ad1919061321d565b610adb91906132a6565b10610ae65784610b00565b6127108887610af5919061321d565b610aff91906132a6565b5b9050610b0f8a8a86848c611627565b7f26ceac12eb3ea1484e67fe4d7fad256e2cd84a5b9477808c4642d6e1f23cc2178a8a86848c604051610b469594939291906132d7565b60405180910390a160019650505050505050610b68565b505b60009450505050505b9392505050565b6000602860000160009054906101000a900460ff161515600115151415610c3c576000600260000160009054906101000a900473ffffffffffffffffffffffffffffffffffffffff1690503373ffffffffffffffffffffffffffffffffffffffff168173ffffffffffffffffffffffffffffffffffffffff161415610c3a57610bf860006117c7565b7f438b0bb88e1b4ec35c11877ff82c0cdfb4d7a0053df376e1d8f8494b0335c3f46000604051610c289190613345565b60405180910390a16001915050610c41565b505b600090505b90565b6000602860000160009054906101000a900460ff161515600015151415610d11576000600260000160009054906101000a900473ffffffffffffffffffffffffffffffffffffffff1690503373ffffffffffffffffffffffffffffffffffffffff168173ffffffffffffffffffffffffffffffffffffffff161415610d0f57610ccd6001611829565b7f9422424b175dda897495a07b091ef74a3ef715cf6d866fc972954c1c7f4593046001604051610cfd9190613345565b60405180910390a16001915050610d16565b505b600090505b90565b60008060236000015490506000600960000154905060003390506000601160008373ffffffffffffffffffffffffffffffffffffffff1673ffffffffffffffffffffffffffffffffffffffff168152602001908152602001600020600001549050600760008373ffffffffffffffffffffffffffffffffffffffff1673ffffffffffffffffffffffffffffffffffffffff16815260200190815260200160002060000160009054906101000a900460ff161515600015151415610e7857808611610e77576000836127108887610def919061321d565b610df991906132a6565b10610e045783610e1e565b6127108786610e13919061321d565b610e1d91906132a6565b5b9050610e2c8389838a61188b565b7f9ed053bb818ff08b8353cd46f78db1f0799f31c9e4458fdb425c10eccd2efc448389838a604051610e619493929190613360565b60405180910390a1600195505050505050610e81565b5b60009450505050505b92915050565b600080600260000160009054906101000a900473ffffffffffffffffffffffffffffffffffffffff1690503373ffffffffffffffffffffffffffffffffffffffff168173ffffffffffffffffffffffffffffffffffffffff161415610f5157601484108015610ef65750603283105b15610f5057610f04836119c5565b610f0d84611a0f565b7f76a48d886100aa830bdaee3067b3804b124a7a680c4d53e33a941c62861aa2898484604051610f3e9291906133a5565b60405180910390a16001915050610f57565b5b60009150505b92915050565b600080600260000160009054906101000a900473ffffffffffffffffffffffffffffffffffffffff1690503373ffffffffffffffffffffffffffffffffffffffff168173ffffffffffffffffffffffffffffffffffffffff16141561104757600073ffffffffffffffffffffffffffffffffffffffff168173ffffffffffffffffffffffffffffffffffffffff161461104657610ff983611a59565b6110038184611a87565b7fc65a3f767206d2fdcede0b094a4840e01c0dd0be1888b5ba800346eaa0123c1681846040516110349291906133ce565b60405180910390a1600191505061104d565b5b60009150505b919050565b600080600260000160009054906101000a900473ffffffffffffffffffffffffffffffffffffffff1690503373ffffffffffffffffffffffffffffffffffffffff168173ffffffffffffffffffffffffffffffffffffffff161415611193576000601160008373ffffffffffffffffffffffffffffffffffffffff1673ffffffffffffffffffffffffffffffffffffffff168152602001908152602001600020600001549050600073ffffffffffffffffffffffffffffffffffffffff168273ffffffffffffffffffffffffffffffffffffffff16141580156111355750808411155b15611191576111448285611af4565b61114d84611b61565b7f222838db2794d11532d940e8dec38ae307ed0b63cd97c233322e221f998767a6828560405161117e9291906133ce565b60405180910390a1600192505050611199565b505b60009150505b919050565b600080600260000160009054906101000a900473ffffffffffffffffffffffffffffffffffffffff1690503373ffffffffffffffffffffffffffffffffffffffff168173ffffffffffffffffffffffffffffffffffffffff1614156112475761120683611b8f565b7f2234edb6f393cd207251f6579b5852192c144c4c12b9cc32e80539ef12faed3f836040516112359190613202565b60405180910390a1600191505061124d565b60009150505b919050565b600080600260000160009054906101000a900473ffffffffffffffffffffffffffffffffffffffff1690503373ffffffffffffffffffffffffffffffffffffffff168173ffffffffffffffffffffffffffffffffffffffff16141561133057600073ffffffffffffffffffffffffffffffffffffffff168373ffffffffffffffffffffffffffffffffffffffff161461132f576112ee83611c2f565b7fcfaaa26691e16e66e73290fc725eee1a6b4e0e693a1640484937aac25ffb55a48360405161131d9190613202565b60405180910390a16001915050611336565b5b60009150505b919050565b600080339050600260000160009054906101000a900473ffffffffffffffffffffffffffffffffffffffff1673ffffffffffffffffffffffffffffffffffffffff168173ffffffffffffffffffffffffffffffffffffffff1614156114d0576000601160008573ffffffffffffffffffffffffffffffffffffffff1673ffffffffffffffffffffffffffffffffffffffff168152602001908152602001600020600001549050600760008573ffffffffffffffffffffffffffffffffffffffff1673ffffffffffffffffffffffffffffffffffffffff16815260200190815260200160002060000160009054906101000a900460ff1615156001151514156114ce57600073ffffffffffffffffffffffffffffffffffffffff168473ffffffffffffffffffffffffffffffffffffffff161415801561147a5750600081115b156114cd576114898482611cde565b7f11d33c4bdbad6892d3d8fe9b29fca9d1701c823ddea540b942b102366a4a47e284826040516114ba9291906133ce565b60405180910390a16001925050506114d6565b5b505b60009150505b919050565b60008190506114eb848483611d2e565b81600860008673ffffffffffffffffffffffffffffffffffffffff1673ffffffffffffffffffffffffffffffffffffffff16815260200190815260200160002060008573ffffffffffffffffffffffffffffffffffffffff1673ffffffffffffffffffffffffffffffffffffffff168152602001908152602001600020600001600082825461157a91906133f7565b9250508190555050505050565b604051806040016040528060011515815260200160011515815250600760008373ffffffffffffffffffffffffffffffffffffffff1673ffffffffffffffffffffffffffffffffffffffff16815260200190815260200160002060008201518160000160006101000a81548160ff02191690831515021790555060208201518160000160016101000a81548160ff02191690831515021790555090505050565b61163385858585611e4b565b6116408585858585612002565b6040518060c001604052808673ffffffffffffffffffffffffffffffffffffffff1681526020018573ffffffffffffffffffffffffffffffffffffffff1681526020018473ffffffffffffffffffffffffffffffffffffffff16815260200183815260200182815260200160011515815250601860008201518160000160006101000a81548173ffffffffffffffffffffffffffffffffffffffff021916908373ffffffffffffffffffffffffffffffffffffffff16021790555060208201518160010160006101000a81548173ffffffffffffffffffffffffffffffffffffffff021916908373ffffffffffffffffffffffffffffffffffffffff16021790555060408201518160020160006101000a81548173ffffffffffffffffffffffffffffffffffffffff021916908373ffffffffffffffffffffffffffffffffffffffff160217905550606082015181600301556080820151816004015560a08201518160050160006101000a81548160ff0219169083151502179055509050505050505050565b6040518060400160405280821515815260200160011515815250602860008201518160000160006101000a81548160ff02191690831515021790555060208201518160000160016101000a81548160ff02191690831515021790555090505050565b6040518060400160405280821515815260200160011515815250602860008201518160000160006101000a81548160ff02191690831515021790555060208201518160000160016101000a81548160ff02191690831515021790555090505050565b611897848484846121a0565b6118a28484846122d8565b6040518060a001604052808573ffffffffffffffffffffffffffffffffffffffff1681526020018473ffffffffffffffffffffffffffffffffffffffff16815260200183815260200182815260200160011515815250601e60008201518160000160006101000a81548173ffffffffffffffffffffffffffffffffffffffff021916908373ffffffffffffffffffffffffffffffffffffffff16021790555060208201518160010160006101000a81548173ffffffffffffffffffffffffffffffffffffffff021916908373ffffffffffffffffffffffffffffffffffffffff160217905550604082015181600201556060820151816003015560808201518160040160006101000a81548160ff02191690831515021790555090505050505050565b60405180604001604052808281526020016001151581525060096000820151816000015560208201518160010160006101000a81548160ff02191690831515021790555090505050565b60405180604001604052808281526020016001151581525060236000820151816000015560208201518160010160006101000a81548160ff02191690831515021790555090505050565b6000819050611a6781612429565b8160036000016000828254611a7c91906133f7565b925050819055505050565b6000819050611a968382612450565b81600160008573ffffffffffffffffffffffffffffffffffffffff1673ffffffffffffffffffffffffffffffffffffffff1681526020019081526020016000206000016000828254611ae891906133f7565b92505081905550505050565b6000819050611b0383826124f2565b81602560008573ffffffffffffffffffffffffffffffffffffffff1673ffffffffffffffffffffffffffffffffffffffff1681526020019081526020016000206000016000828254611b5591906133f7565b92505081905550505050565b6000819050611b6f8161259d565b81600b6000016000828254611b8491906133f7565b925050819055505050565b604051806040016040528060001515815260200160011515815250600760008373ffffffffffffffffffffffffffffffffffffffff1673ffffffffffffffffffffffffffffffffffffffff16815260200190815260200160002060008201518160000160006101000a81548160ff02191690831515021790555060208201518160000160016101000a81548160ff02191690831515021790555090505050565b611c38816125cd565b611c41816127e2565b60405180604001604052808273ffffffffffffffffffffffffffffffffffffffff16815260200160011515815250600260008201518160000160006101000a81548173ffffffffffffffffffffffffffffffffffffffff021916908373ffffffffffffffffffffffffffffffffffffffff16021790555060208201518160000160146101000a81548160ff02191690831515021790555090505050565b611ce88282611af4565b611cf181611b61565b7f222838db2794d11532d940e8dec38ae307ed0b63cd97c233322e221f998767a68282604051611d229291906133ce565b60405180910390a15050565b60008190506000611dbe602760008773ffffffffffffffffffffffffffffffffffffffff1673ffffffffffffffffffffffffffffffffffffffff16815260200190815260200160002060008673ffffffffffffffffffffffffffffffffffffffff1673ffffffffffffffffffffffffffffffffffffffff1681526020019081526020016000206000015483612967565b905080602760008773ffffffffffffffffffffffffffffffffffffffff1673ffffffffffffffffffffffffffffffffffffffff16815260200190815260200160002060008673ffffffffffffffffffffffffffffffffffffffff1673ffffffffffffffffffffffffffffffffffffffff168152602001908152602001600020600001819055505050505050565b6000600260000160009054906101000a900473ffffffffffffffffffffffffffffffffffffffff169050611e8085828461298e565b611e8b858484612ab4565b6040518060a001604052808673ffffffffffffffffffffffffffffffffffffffff1681526020018273ffffffffffffffffffffffffffffffffffffffff1681526020018473ffffffffffffffffffffffffffffffffffffffff16815260200183815260200160011515815250601260008201518160000160006101000a81548173ffffffffffffffffffffffffffffffffffffffff021916908373ffffffffffffffffffffffffffffffffffffffff16021790555060208201518160010160006101000a81548173ffffffffffffffffffffffffffffffffffffffff021916908373ffffffffffffffffffffffffffffffffffffffff16021790555060408201518160020160006101000a81548173ffffffffffffffffffffffffffffffffffffffff021916908373ffffffffffffffffffffffffffffffffffffffff1602179055506060820151816003015560808201518160040160006101000a81548160ff0219169083151502179055509050505050505050565b600082826120109190613188565b905061201d86868361298e565b612028868583612ab4565b6040518060a001604052808773ffffffffffffffffffffffffffffffffffffffff1681526020018673ffffffffffffffffffffffffffffffffffffffff1681526020018573ffffffffffffffffffffffffffffffffffffffff16815260200182815260200160011515815250601260008201518160000160006101000a81548173ffffffffffffffffffffffffffffffffffffffff021916908373ffffffffffffffffffffffffffffffffffffffff16021790555060208201518160010160006101000a81548173ffffffffffffffffffffffffffffffffffffffff021916908373ffffffffffffffffffffffffffffffffffffffff16021790555060408201518160020160006101000a81548173ffffffffffffffffffffffffffffffffffffffff021916908373ffffffffffffffffffffffffffffffffffffffff1602179055506060820151816003015560808201518160040160006101000a81548160ff021916908315150217905550905050505050505050565b600082826121ae9190613188565b90506121ba8482612b60565b6121c48582612bcd565b60405180608001604052808673ffffffffffffffffffffffffffffffffffffffff1681526020018573ffffffffffffffffffffffffffffffffffffffff16815260200182815260200160011515815250600d60008201518160000160006101000a81548173ffffffffffffffffffffffffffffffffffffffff021916908373ffffffffffffffffffffffffffffffffffffffff16021790555060208201518160010160006101000a81548173ffffffffffffffffffffffffffffffffffffffff021916908373ffffffffffffffffffffffffffffffffffffffff1602179055506040820151816002015560608201518160030160006101000a81548160ff0219169083151502179055509050505050505050565b6000600260000160009054906101000a900473ffffffffffffffffffffffffffffffffffffffff16905061230c8183612b60565b6123168483612bcd565b60405180608001604052808573ffffffffffffffffffffffffffffffffffffffff1681526020018273ffffffffffffffffffffffffffffffffffffffff16815260200183815260200160011515815250600d60008201518160000160006101000a81548173ffffffffffffffffffffffffffffffffffffffff021916908373ffffffffffffffffffffffffffffffffffffffff16021790555060208201518160010160006101000a81548173ffffffffffffffffffffffffffffffffffffffff021916908373ffffffffffffffffffffffffffffffffffffffff1602179055506040820151816002015560608201518160030160006101000a81548160ff02191690831515021790555090505050505050565b6000819050600061243f60056000015483612967565b905080600560000181905550505050565b600081905060006124a3601160008673ffffffffffffffffffffffffffffffffffffffff1673ffffffffffffffffffffffffffffffffffffffff1681526020019081526020016000206000015483612967565b905080601160008673ffffffffffffffffffffffffffffffffffffffff1673ffffffffffffffffffffffffffffffffffffffff1681526020019081526020016000206000018190555050505050565b6000816124fe90613457565b9050600061254e601160008673ffffffffffffffffffffffffffffffffffffffff1673ffffffffffffffffffffffffffffffffffffffff1681526020019081526020016000206000015483612967565b905080601160008673ffffffffffffffffffffffffffffffffffffffff1673ffffffffffffffffffffffffffffffffffffffff1681526020019081526020016000206000018190555050505050565b6000816125a990613457565b905060006125bc60056000015483612967565b905080600560000181905550505050565b6000601860000160009054906101000a900473ffffffffffffffffffffffffffffffffffffffff1690506000601860010160009054906101000a900473ffffffffffffffffffffffffffffffffffffffff1690506000601860020160009054906101000a900473ffffffffffffffffffffffffffffffffffffffff1690506000601860030154905061266084868361298e565b61266b848383612ab4565b6040518060a001604052808573ffffffffffffffffffffffffffffffffffffffff1681526020018673ffffffffffffffffffffffffffffffffffffffff1681526020018373ffffffffffffffffffffffffffffffffffffffff16815260200182815260200160011515815250601260008201518160000160006101000a81548173ffffffffffffffffffffffffffffffffffffffff021916908373ffffffffffffffffffffffffffffffffffffffff16021790555060208201518160010160006101000a81548173ffffffffffffffffffffffffffffffffffffffff021916908373ffffffffffffffffffffffffffffffffffffffff16021790555060408201518160020160006101000a81548173ffffffffffffffffffffffffffffffffffffffff021916908373ffffffffffffffffffffffffffffffffffffffff1602179055506060820151816003015560808201518160040160006101000a81548160ff0219169083151502179055509050505050505050565b6000601e60000160009054906101000a900473ffffffffffffffffffffffffffffffffffffffff1690506000601e60010160009054906101000a900473ffffffffffffffffffffffffffffffffffffffff1690506000601e60020154905061284a8482612b60565b6128548382612bcd565b60405180608001604052808473ffffffffffffffffffffffffffffffffffffffff1681526020018573ffffffffffffffffffffffffffffffffffffffff16815260200182815260200160011515815250600d60008201518160000160006101000a81548173ffffffffffffffffffffffffffffffffffffffff021916908373ffffffffffffffffffffffffffffffffffffffff16021790555060208201518160010160006101000a81548173ffffffffffffffffffffffffffffffffffffffff021916908373ffffffffffffffffffffffffffffffffffffffff1602179055506040820151816002015560608201518160030160006101000a81548160ff02191690831515021790555090505050505050565b6000808390506000838261297b91906134a0565b9050600081905080935050505092915050565b6129988382612bcd565b6129a28282612b60565b60405180608001604052808473ffffffffffffffffffffffffffffffffffffffff1681526020018373ffffffffffffffffffffffffffffffffffffffff16815260200182815260200160011515815250600d60008201518160000160006101000a81548173ffffffffffffffffffffffffffffffffffffffff021916908373ffffffffffffffffffffffffffffffffffffffff16021790555060208201518160010160006101000a81548173ffffffffffffffffffffffffffffffffffffffff021916908373ffffffffffffffffffffffffffffffffffffffff1602179055506040820151816002015560608201518160030160006101000a81548160ff021916908315150217905550905050505050565b6000819050612ac4848483612c39565b81602660008673ffffffffffffffffffffffffffffffffffffffff1673ffffffffffffffffffffffffffffffffffffffff16815260200190815260200160002060008573ffffffffffffffffffffffffffffffffffffffff1673ffffffffffffffffffffffffffffffffffffffff1681526020019081526020016000206000016000828254612b5391906133f7565b9250508190555050505050565b6000819050612b6f8382612d5f565b81601760008573ffffffffffffffffffffffffffffffffffffffff1673ffffffffffffffffffffffffffffffffffffffff1681526020019081526020016000206000016000828254612bc191906133f7565b92505081905550505050565b6000819050612bdc8382612e01565b816000808573ffffffffffffffffffffffffffffffffffffffff1673ffffffffffffffffffffffffffffffffffffffff1681526020019081526020016000206000016000828254612c2d91906133f7565b92505081905550505050565b600081612c4590613457565b90506000612cd2602760008773ffffffffffffffffffffffffffffffffffffffff1673ffffffffffffffffffffffffffffffffffffffff16815260200190815260200160002060008673ffffffffffffffffffffffffffffffffffffffff1673ffffffffffffffffffffffffffffffffffffffff1681526020019081526020016000206000015483612967565b905080602760008773ffffffffffffffffffffffffffffffffffffffff1673ffffffffffffffffffffffffffffffffffffffff16815260200190815260200160002060008673ffffffffffffffffffffffffffffffffffffffff1673ffffffffffffffffffffffffffffffffffffffff168152602001908152602001600020600001819055505050505050565b60008190506000612db2601160008673ffffffffffffffffffffffffffffffffffffffff1673ffffffffffffffffffffffffffffffffffffffff1681526020019081526020016000206000015483612967565b905080601160008673ffffffffffffffffffffffffffffffffffffffff1673ffffffffffffffffffffffffffffffffffffffff1681526020019081526020016000206000018190555050505050565b600081612e0d90613457565b90506000612e5d601160008673ffffffffffffffffffffffffffffffffffffffff1673ffffffffffffffffffffffffffffffffffffffff1681526020019081526020016000206000015483612967565b905080601160008673ffffffffffffffffffffffffffffffffffffffff1673ffffffffffffffffffffffffffffffffffffffff1681526020019081526020016000206000018190555050505050565b600080fd5b600073ffffffffffffffffffffffffffffffffffffffff82169050919050565b6000612edc82612eb1565b9050919050565b612eec81612ed1565b8114612ef757600080fd5b50565b600081359050612f0981612ee3565b92915050565b6000819050919050565b612f2281612f0f565b8114612f2d57600080fd5b50565b600081359050612f3f81612f19565b92915050565b60008060408385031215612f5c57612f5b612eac565b5b6000612f6a85828601612efa565b9250506020612f7b85828601612f30565b9150509250929050565b60008060408385031215612f9c57612f9b612eac565b5b6000612faa85828601612efa565b9250506020612fbb85828601612efa565b9150509250929050565b612fce81612f0f565b82525050565b6000602082019050612fe96000830184612fc5565b92915050565b60006020828403121561300557613004612eac565b5b600061301384828501612efa565b91505092915050565b60008060006060848603121561303557613034612eac565b5b600061304386828701612efa565b935050602061305486828701612efa565b925050604061306586828701612f30565b9150509250925092565b6000806040838503121561308657613085612eac565b5b600061309485828601612f30565b92505060206130a585828601612f30565b9150509250929050565b6000602082840312156130c5576130c4612eac565b5b60006130d384828501612f30565b91505092915050565b600082825260208201905092915050565b7f52756c6520636f6e646974696f6e206661696c65640000000000000000000000600082015250565b60006131236015836130dc565b915061312e826130ed565b602082019050919050565b6000602082019050818103600083015261315281613116565b9050919050565b7f4e487b7100000000000000000000000000000000000000000000000000000000600052601160045260246000fd5b600061319382612f0f565b915061319e83612f0f565b9250828210156131b1576131b0613159565b5b828203905092915050565b6131c581612ed1565b82525050565b60006060820190506131e060008301866131bc565b6131ed60208301856131bc565b6131fa6040830184612fc5565b949350505050565b600060208201905061321760008301846131bc565b92915050565b600061322882612f0f565b915061323383612f0f565b9250817fffffffffffffffffffffffffffffffffffffffffffffffffffffffffffffffff048311821515161561326c5761326b613159565b5b828202905092915050565b7f4e487b7100000000000000000000000000000000000000000000000000000000600052601260045260246000fd5b60006132b182612f0f565b91506132bc83612f0f565b9250826132cc576132cb613277565b5b828204905092915050565b600060a0820190506132ec60008301886131bc565b6132f960208301876131bc565b61330660408301866131bc565b6133136060830185612fc5565b6133206080830184612fc5565b9695505050505050565b60008115159050919050565b61333f8161332a565b82525050565b600060208201905061335a6000830184613336565b92915050565b600060808201905061337560008301876131bc565b61338260208301866131bc565b61338f6040830185612fc5565b61339c6060830184612fc5565b95945050505050565b60006040820190506133ba6000830185612fc5565b6133c76020830184612fc5565b9392505050565b60006040820190506133e360008301856131bc565b6133f06020830184612fc5565b9392505050565b600061340282612f0f565b915061340d83612f0f565b9250827fffffffffffffffffffffffffffffffffffffffffffffffffffffffffffffffff0382111561344257613441613159565b5b828201905092915050565b6000819050919050565b60006134628261344d565b91507f800000000000000000000000000000000000000000000000000000000000000082141561349557613494613159565b5b816000039050919050565b60006134ab8261344d565b91506134b68361344d565b9250817f7fffffffffffffffffffffffffffffffffffffffffffffffffffffffffffffff038313600083121516156134f1576134f0613159565b5b817f800000000000000000000000000000000000000000000000000000000000000003831260008312161561352957613528613159565b5b82820190509291505056fea264697066735822122089e718b5cbb8968d848a9e4054c68723b1de9ad83cdca36602db0d412114f43a64736f6c634300080c0033",
  "immutableReferences": {},
  "source": "contract Tether {\n  struct TotalOutTuple {\n    uint n;\n    bool _valid;\n  }\n  struct TotalIssueTuple {\n    uint n;\n    bool _valid;\n  }\n  struct OwnerTuple {\n    address p;\n    bool _valid;\n  }\n  struct TotalSupplyTuple {\n    uint n;\n    bool _valid;\n  }\n  struct AllowanceTotalTuple {\n    uint m;\n    bool _valid;\n  }\n  struct MaxFeeTuple {\n    uint m;\n    bool _valid;\n  }\n  struct AllRedeemTuple {\n    uint n;\n    bool _valid;\n  }\n  struct TransferWithoutFeeTuple {\n    address from;\n    address to;\n    uint amount;\n    bool _valid;\n  }\n  struct BalanceOfTuple {\n    uint n;\n    bool _valid;\n  }\n  struct TransferFromWithoutFeeTuple {\n    address from;\n    address to;\n    address spender;\n    uint amount;\n    bool _valid;\n  }\n  struct TotalInTuple {\n    uint n;\n    bool _valid;\n  }\n  struct TransferFromWithFeeTuple {\n    address from;\n    address to;\n    address spender;\n    uint fee;\n    uint amount;\n    bool _valid;\n  }\n  struct AllIssueTuple {\n    uint n;\n    bool _valid;\n  }\n  struct TransferWithFeeTuple {\n    address from;\n    address to;\n    uint fee;\n    uint amount;\n    bool _valid;\n  }\n  struct RateTuple {\n    uint r;\n    bool _valid;\n  }\n  struct IsBlackListedTuple {\n    bool b;\n    bool _valid;\n  }\n  struct TotalRedeemTuple {\n    uint n;\n    bool _valid;\n  }\n  struct SpentTotalTuple {\n    uint m;\n    bool _valid;\n  }\n  struct AllowanceTuple {\n    uint n;\n    bool _valid;\n  }\n  struct PausedTuple {\n    bool b;\n    bool _valid;\n  }\n  mapping(address=>TotalOutTuple) totalOut;\n  mapping(address=>TotalIssueTuple) totalIssue;\n  OwnerTuple owner;\n  AllIssueTuple allIssue;\n  TotalSupplyTuple totalSupply;\n  mapping(address=>IsBlackListedTuple) isBlackListed;\n  mapping(address=>mapping(address=>AllowanceTotalTuple)) allowanceTotal;\n  MaxFeeTuple maxFee;\n  AllRedeemTuple allRedeem;\n  TransferWithoutFeeTuple transferWithoutFee;\n  mapping(address=>BalanceOfTuple) balanceOf;\n  TransferFromWithoutFeeTuple transferFromWithoutFee;\n  mapping(address=>TotalInTuple) totalIn;\n  TransferFromWithFeeTuple transferFromWithFee;\n  TransferWithFeeTuple transferWithFee;\n  RateTuple rate;\n  mapping(address=>TotalRedeemTuple) totalRedeem;\n  mapping(address=>mapping(address=>SpentTotalTuple)) spentTotal;\n  mapping(address=>mapping(address=>AllowanceTuple)) allowance;\n  PausedTuple paused;\n  event RemoveBlackList(address p);\n  event Issue(address p,uint amount);\n  event SetParams(uint b,uint f);\n  event Redeem(address p,uint amount);\n  event Transfer(address from,address to,uint fee,uint amount);\n  event DestroyBlackFunds(address p,uint n);\n  event TransferOwnership(address o);\n  event Unpause(bool b);\n  event AddBlackList(address p);\n  event TransferFrom(address from,address to,address spender,uint fee,uint amount);\n  event IncreaseAllowance(address p,address s,uint n);\n  event Pause(bool b);\n  constructor(uint n) public {\n    updateBalanceOfOnInsertConstructor_r24(n);\n    updateOwnerOnInsertConstructor_r38();\n    updateTotalBalancesOnInsertConstructor_r45(n);\n    updateRateOnInsertConstructor_r26();\n    updatePausedOnInsertConstructor_r5();\n    updateMaxFeeOnInsertConstructor_r43();\n    updateTotalSupplyOnInsertConstructor_r6(n);\n  }\n  function transferOwnership(address o) public    {\n      bool r32 = updateTransferOwnershipOnInsertRecv_transferOwnership_r32(o);\n      if(r32==false) {\n        revert(\"Rule condition failed\");\n      }\n  }\n  function pause() public    {\n      bool r40 = updatePauseOnInsertRecv_pause_r40();\n      if(r40==false) {\n        revert(\"Rule condition failed\");\n      }\n  }\n  function removeBlackList(address p) public    {\n      bool r36 = updateRemoveBlackListOnInsertRecv_removeBlackList_r36(p);\n      if(r36==false) {\n        revert(\"Rule condition failed\");\n      }\n  }\n  function setParams(uint b,uint f) public    {\n      bool r17 = updateSetParamsOnInsertRecv_setParams_r17(b,f);\n      if(r17==false) {\n        revert(\"Rule condition failed\");\n      }\n  }\n  function getTotalSupply() public view  returns (uint) {\n      uint n = totalSupply.n;\n      return n;\n  }\n  function transferFrom(address from,address to,uint amount) public    {\n      bool r0 = updateTransferFromOnInsertRecv_transferFrom_r0(from,to,amount);\n      if(r0==false) {\n        revert(\"Rule condition failed\");\n      }\n  }\n  function destroyBlackFunds(address p) public    {\n      bool r13 = updateDestroyBlackFundsOnInsertRecv_destroyBlackFunds_r13(p);\n      if(r13==false) {\n        revert(\"Rule condition failed\");\n      }\n  }\n  function getAllowance(address p,address s) public view  returns (uint) {\n      uint n = allowance[p][s].n;\n      return n;\n  }\n  function addBlackList(address p) public    {\n      bool r18 = updateAddBlackListOnInsertRecv_addBlackList_r18(p);\n      if(r18==false) {\n        revert(\"Rule condition failed\");\n      }\n  }\n  function transfer(address to,uint amount) public    {\n      bool r1 = updateTransferOnInsertRecv_transfer_r1(to,amount);\n      if(r1==false) {\n        revert(\"Rule condition failed\");\n      }\n  }\n  function approve(address s,uint n) public    {\n      bool r42 = updateIncreaseAllowanceOnInsertRecv_approve_r42(s,n);\n      if(r42==false) {\n        revert(\"Rule condition failed\");\n      }\n  }\n  function getBalanceOf(address p) public view  returns (uint) {\n      uint n = balanceOf[p].n;\n      return n;\n  }\n  function redeem(uint amount) public    {\n      bool r31 = updateRedeemOnInsertRecv_redeem_r31(amount);\n      if(r31==false) {\n        revert(\"Rule condition failed\");\n      }\n  }\n  function unpause() public    {\n      bool r4 = updateUnpauseOnInsertRecv_unpause_r4();\n      if(r4==false) {\n        revert(\"Rule condition failed\");\n      }\n  }\n  function issue(uint amount) public    {\n      bool r33 = updateIssueOnInsertRecv_issue_r33(amount);\n      if(r33==false) {\n        revert(\"Rule condition failed\");\n      }\n  }\n  function updateTransferFromWithFeeOnInsertTransferFrom_r16(address o,address r,address s,uint f,uint n) private    {\n      updateTransferFromWithoutFeeOnInsertTransferFromWithFee_r35(o,r,s,f);\n      updateTransferFromWithoutFeeOnInsertTransferFromWithFee_r2(o,r,s,f,n);\n      transferFromWithFee = TransferFromWithFeeTuple(o,r,s,f,n,true);\n  }\n  function updatePausedOnInsertPause_r22(bool p) private    {\n      paused = PausedTuple(p,true);\n  }\n  function updateAddBlackListOnInsertRecv_addBlackList_r18(address p) private   returns (bool) {\n      address s = owner.p;\n      if(s==msg.sender) {\n        updateIsBlackListedOnInsertAddBlackList_r30(p);\n        emit AddBlackList(p);\n        return true;\n      }\n      return false;\n  }\n  function updateIsBlackListedOnInsertAddBlackList_r30(address p) private    {\n      isBlackListed[p] = IsBlackListedTuple(true,true);\n  }\n  function updateRedeemOnInsertDestroyBlackFunds_r10(address p,uint n) private    {\n      updateTotalRedeemOnInsertRedeem_r28(p,n);\n      updateAllRedeemOnInsertRedeem_r9(n);\n      emit Redeem(p,n);\n  }\n  function updateRemoveBlackListOnInsertRecv_removeBlackList_r36(address p) private   returns (bool) {\n      address s = owner.p;\n      if(s==msg.sender) {\n        updateIsBlackListedOnInsertRemoveBlackList_r39(p);\n        emit RemoveBlackList(p);\n        return true;\n      }\n      return false;\n  }\n  function updateTotalSupplyOnIncrementAllRedeem_r11(int b) private    {\n      int _delta = int(-b);\n      uint newValue = updateuintByint(totalSupply.n,_delta);\n      totalSupply.n = newValue;\n  }\n  function updateTransferWithoutFeeOnInsertTransferWithFee_r7(address s,address r,uint f) private    {\n      address o = owner.p;\n      updateTotalInOnInsertTransferWithoutFee_r12(o,f);\n      updateTotalOutOnInsertTransferWithoutFee_r14(s,f);\n      transferWithoutFee = TransferWithoutFeeTuple(s,o,f,true);\n  }\n  function updateRedeemOnInsertRecv_redeem_r31(uint n) private   returns (bool) {\n      address s = owner.p;\n      if(s==msg.sender) {\n        uint m = balanceOf[s].n;\n        if(s!=address(0) && n<=m) {\n          updateTotalRedeemOnInsertRedeem_r28(s,n);\n          updateAllRedeemOnInsertRedeem_r9(n);\n          emit Redeem(s,n);\n          return true;\n        }\n      }\n      return false;\n  }\n  function updateAllIssueOnInsertIssue_r44(uint n) private    {\n      int delta0 = int(n);\n      updateTotalSupplyOnIncrementAllIssue_r11(delta0);\n      allIssue.n += n;\n  }\n  function updateTransferWithFeeOnInsertTransfer_r29(address s,address r,uint f,uint n) private    {\n      updateTransferWithoutFeeOnInsertTransferWithFee_r41(s,r,f,n);\n      updateTransferWithoutFeeOnInsertTransferWithFee_r7(s,r,f);\n      transferWithFee = TransferWithFeeTuple(s,r,f,n,true);\n  }\n  function updateIsBlackListedOnInsertRemoveBlackList_r39(address p) private    {\n      isBlackListed[p] = IsBlackListedTuple(false,true);\n  }\n  function updateTransferOnInsertRecv_transfer_r1(address r,uint n) private   returns (bool) {\n      uint rt = rate.r;\n      uint mf = maxFee.m;\n      address s = msg.sender;\n      uint m = balanceOf[s].n;\n      if(false==isBlackListed[s].b) {\n        if(n<=m) {\n          uint f = (rt*n)/10000 < mf ? (rt*n)/10000 : mf;\n          updateTransferWithFeeOnInsertTransfer_r29(s,r,f,n);\n          emit Transfer(s,r,f,n);\n          return true;\n        }\n      }\n      return false;\n  }\n  function updateBalanceOfOnIncrementTotalIn_r20(address p,int i) private    {\n      int _delta = int(i);\n      uint newValue = updateuintByint(balanceOf[p].n,_delta);\n      balanceOf[p].n = newValue;\n  }\n  function updateOwnerOnInsertConstructor_r38() private    {\n      address s = msg.sender;\n      updateTransferFromWithoutFeeOnInsertOwner_r35(s);\n      updateTransferWithoutFeeOnInsertOwner_r7(s);\n      owner = OwnerTuple(s,true);\n  }\n  function updateIncreaseAllowanceOnInsertRecv_approve_r42(address s,uint n) private   returns (bool) {\n      address o = msg.sender;\n      uint m = allowance[o][s].n;\n      uint d = n-m;\n      updateAllowanceTotalOnInsertIncreaseAllowance_r46(o,s,d);\n      emit IncreaseAllowance(o,s,d);\n      return true;\n      return false;\n  }\n  function updateBalanceOfOnIncrementTotalOut_r20(address p,int o) private    {\n      int _delta = int(-o);\n      uint newValue = updateuintByint(balanceOf[p].n,_delta);\n      balanceOf[p].n = newValue;\n  }\n  function updateTransferOwnershipOnInsertRecv_transferOwnership_r32(address o) private   returns (bool) {\n      address s = owner.p;\n      if(s==msg.sender) {\n        if(o!=address(0)) {\n          updateOwnerOnInsertTransferOwnership_r3(o);\n          emit TransferOwnership(o);\n          return true;\n        }\n      }\n      return false;\n  }\n  function updateTransferFromWithoutFeeOnInsertTransferFromWithFee_r35(address o,address r,address s,uint f) private    {\n      address p = owner.p;\n      updateTransferWithoutFeeOnInsertTransferFromWithoutFee_r19(o,p,f);\n      updateSpentTotalOnInsertTransferFromWithoutFee_r23(o,s,f);\n      transferFromWithoutFee = TransferFromWithoutFeeTuple(o,p,s,f,true);\n  }\n  function updateTotalOutOnInsertTransferWithoutFee_r14(address p,uint n) private    {\n      int delta0 = int(n);\n      updateBalanceOfOnIncrementTotalOut_r20(p,delta0);\n      totalOut[p].n += n;\n  }\n  function updatePausedOnInsertUnpause_r25(bool p) private    {\n      paused = PausedTuple(p,true);\n  }\n  function updateBalanceOfOnInsertConstructor_r24(uint n) private    {\n      address s = msg.sender;\n      balanceOf[s] = BalanceOfTuple(n,true);\n  }\n  function updateTransferWithoutFeeOnInsertTransferWithFee_r41(address s,address r,uint f,uint n) private    {\n      uint m = n-f;\n      updateTotalInOnInsertTransferWithoutFee_r12(r,m);\n      updateTotalOutOnInsertTransferWithoutFee_r14(s,m);\n      transferWithoutFee = TransferWithoutFeeTuple(s,r,m,true);\n  }\n  function updateTotalSupplyOnInsertConstructor_r6(uint n) private    {\n      totalSupply = TotalSupplyTuple(n,true);\n  }\n  function updateBalanceOfOnIncrementTotalRedeem_r20(address p,int m) private    {\n      int _delta = int(-m);\n      uint newValue = updateuintByint(balanceOf[p].n,_delta);\n      balanceOf[p].n = newValue;\n  }\n  function updateDestroyBlackFundsOnInsertRecv_destroyBlackFunds_r13(address p) private   returns (bool) {\n      address s = msg.sender;\n      if(s==owner.p) {\n        uint n = balanceOf[p].n;\n        if(true==isBlackListed[p].b) {\n          if(p!=address(0) && n>0) {\n            updateRedeemOnInsertDestroyBlackFunds_r10(p,n);\n            emit DestroyBlackFunds(p,n);\n            return true;\n          }\n        }\n      }\n      return false;\n  }\n  function updateTotalSupplyOnIncrementAllIssue_r11(int m) private    {\n      int _delta = int(m);\n      uint newValue = updateuintByint(totalSupply.n,_delta);\n      totalSupply.n = newValue;\n  }\n  function updateTotalBalancesOnInsertConstructor_r45(uint n) private    {\n      // Empty()\n  }\n  function updateRateOnInsertSetParams_r21(uint b) private    {\n      rate = RateTuple(b,true);\n  }\n  function updatePauseOnInsertRecv_pause_r40() private   returns (bool) {\n      if(false==paused.b) {\n        address s = owner.p;\n        if(s==msg.sender) {\n          updatePausedOnInsertPause_r22(bool(true));\n          emit Pause(true);\n          return true;\n        }\n      }\n      return false;\n  }\n  function updateTransferFromWithoutFeeOnInsertTransferFromWithFee_r2(address o,address r,address s,uint f,uint n) private    {\n      uint m = n-f;\n      updateTransferWithoutFeeOnInsertTransferFromWithoutFee_r19(o,r,m);\n      updateSpentTotalOnInsertTransferFromWithoutFee_r23(o,s,m);\n      transferFromWithoutFee = TransferFromWithoutFeeTuple(o,r,s,m,true);\n  }\n  function updateTotalIssueOnInsertIssue_r37(address p,uint n) private    {\n      int delta0 = int(n);\n      updateBalanceOfOnIncrementTotalIssue_r20(p,delta0);\n      totalIssue[p].n += n;\n  }\n  function updateTotalInOnInsertTransferWithoutFee_r12(address p,uint n) private    {\n      int delta0 = int(n);\n      updateBalanceOfOnIncrementTotalIn_r20(p,delta0);\n      totalIn[p].n += n;\n  }\n  function updateSetParamsOnInsertRecv_setParams_r17(uint b,uint f) private   returns (bool) {\n      address s = owner.p;\n      if(s==msg.sender) {\n        if(b<20 && f<50) {\n          updateMaxFeeOnInsertSetParams_r15(f);\n          updateRateOnInsertSetParams_r21(b);\n          emit SetParams(b,f);\n          return true;\n        }\n      }\n      return false;\n  }\n  function updateTransferFromWithoutFeeOnInsertOwner_r35(address p) private    {\n      address o = transferFromWithFee.from;\n      address r = transferFromWithFee.to;\n      address s = transferFromWithFee.spender;\n      uint f = transferFromWithFee.fee;\n      updateTransferWithoutFeeOnInsertTransferFromWithoutFee_r19(o,p,f);\n      updateSpentTotalOnInsertTransferFromWithoutFee_r23(o,s,f);\n      transferFromWithoutFee = TransferFromWithoutFeeTuple(o,p,s,f,true);\n  }\n  function updateTransferWithoutFeeOnInsertOwner_r7(address o) private    {\n      address s = transferWithFee.from;\n      address r = transferWithFee.to;\n      uint f = transferWithFee.fee;\n      updateTotalInOnInsertTransferWithoutFee_r12(o,f);\n      updateTotalOutOnInsertTransferWithoutFee_r14(s,f);\n      transferWithoutFee = TransferWithoutFeeTuple(s,o,f,true);\n  }\n  function updateTransferWithoutFeeOnInsertTransferFromWithoutFee_r19(address o,address r,uint n) private    {\n      updateTotalOutOnInsertTransferWithoutFee_r14(o,n);\n      updateTotalInOnInsertTransferWithoutFee_r12(r,n);\n      transferWithoutFee = TransferWithoutFeeTuple(o,r,n,true);\n  }\n  function updateuintByint(uint x,int delta) private   returns (uint) {\n      int convertedX = int(x);\n      int value = convertedX+delta;\n      uint convertedValue = uint(value);\n      return convertedValue;\n  }\n  function updateBalanceOfOnIncrementTotalIssue_r20(address p,int n) private    {\n      int _delta = int(n);\n      uint newValue = updateuintByint(balanceOf[p].n,_delta);\n      balanceOf[p].n = newValue;\n  }\n  function updateMaxFeeOnInsertConstructor_r43() private    {\n      maxFee = MaxFeeTuple(0,true);\n  }\n  function updateUnpauseOnInsertRecv_unpause_r4() private   returns (bool) {\n      if(true==paused.b) {\n        address s = owner.p;\n        if(s==msg.sender) {\n          updatePausedOnInsertUnpause_r25(bool(false));\n          emit Unpause(false);\n          return true;\n        }\n      }\n      return false;\n  }\n  function updateOwnerOnInsertTransferOwnership_r3(address s) private    {\n      updateTransferFromWithoutFeeOnInsertOwner_r35(s);\n      updateTransferWithoutFeeOnInsertOwner_r7(s);\n      owner = OwnerTuple(s,true);\n  }\n  function updateSpentTotalOnInsertTransferFromWithoutFee_r23(address o,address s,uint n) private    {\n      int delta0 = int(n);\n      updateAllowanceOnIncrementSpentTotal_r8(o,s,delta0);\n      spentTotal[o][s].m += n;\n  }\n  function updatePausedOnInsertConstructor_r5() private    {\n      paused = PausedTuple(false,true);\n  }\n  function updateIssueOnInsertRecv_issue_r33(uint n) private   returns (bool) {\n      address s = owner.p;\n      if(s==msg.sender) {\n        if(s!=address(0)) {\n          updateAllIssueOnInsertIssue_r44(n);\n          updateTotalIssueOnInsertIssue_r37(s,n);\n          emit Issue(s,n);\n          return true;\n        }\n      }\n      return false;\n  }\n  function updateTransferFromOnInsertRecv_transferFrom_r0(address o,address r,uint n) private   returns (bool) {\n      uint rt = rate.r;\n      uint mf = maxFee.m;\n      address s = msg.sender;\n      uint m = balanceOf[o].n;\n      if(false==isBlackListed[o].b) {\n        uint k = allowance[o][s].n;\n        if(m>=n && k>=n) {\n          uint f = (rt*n)/10000 < mf ? (rt*n)/10000 : mf;\n          updateTransferFromWithFeeOnInsertTransferFrom_r16(o,r,s,f,n);\n          emit TransferFrom(o,r,s,f,n);\n          return true;\n        }\n      }\n      return false;\n  }\n  function updateRateOnInsertConstructor_r26() private    {\n      rate = RateTuple(0,true);\n  }\n  function updateAllowanceOnIncrementSpentTotal_r8(address o,address s,int l) private    {\n      int _delta = int(-l);\n      uint newValue = updateuintByint(allowance[o][s].n,_delta);\n      allowance[o][s].n = newValue;\n  }\n  function updateMaxFeeOnInsertSetParams_r15(uint f) private    {\n      maxFee = MaxFeeTuple(f,true);\n  }\n  function updateAllowanceOnIncrementAllowanceTotal_r8(address o,address s,int m) private    {\n      int _delta = int(m);\n      uint newValue = updateuintByint(allowance[o][s].n,_delta);\n      allowance[o][s].n = newValue;\n  }\n  function updateAllowanceTotalOnInsertIncreaseAllowance_r46(address o,address s,uint n) private    {\n      int delta0 = int(n);\n      updateAllowanceOnIncrementAllowanceTotal_r8(o,s,delta0);\n      allowanceTotal[o][s].m += n;\n  }\n  function updateAllRedeemOnInsertRedeem_r9(uint n) private    {\n      int delta0 = int(n);\n      updateTotalSupplyOnIncrementAllRedeem_r11(delta0);\n      allRedeem.n += n;\n  }\n  function updateTotalRedeemOnInsertRedeem_r28(address p,uint n) private    {\n      int delta0 = int(n);\n      updateBalanceOfOnIncrementTotalRedeem_r20(p,delta0);\n      totalRedeem[p].n += n;\n  }\n}",
  "sourcePath": "/Users/ljy/Desktop/PENN/2023_summer/boon_dsc/smart-contracts/optimizations/full/contracts/tether.sol",
  "compiler": {
    "name": "solc",
    "version": "0.8.12+commit.f00d7308.Emscripten.clang"
  },
  "schemaVersion": "3.4.16",
  "updatedAt": "2023-12-29T00:19:14.676Z",
  "devdoc": {
    "kind": "dev",
    "methods": {},
    "version": 1
  },
  "userdoc": {
    "kind": "user",
    "methods": {},
    "version": 1
  }
}