{
  "contractName": "Tether",
  "abi": [
    {
      "inputs": [
        {
          "internalType": "uint256",
          "name": "n",
          "type": "uint256"
        }
      ],
      "stateMutability": "nonpayable",
      "type": "constructor"
    },
    {
      "anonymous": false,
      "inputs": [
        {
          "indexed": false,
          "internalType": "address",
          "name": "p",
          "type": "address"
        }
      ],
      "name": "AddBlackList",
      "type": "event"
    },
    {
      "anonymous": false,
      "inputs": [
        {
          "indexed": false,
          "internalType": "address",
          "name": "p",
          "type": "address"
        },
        {
          "indexed": false,
          "internalType": "uint256",
          "name": "n",
          "type": "uint256"
        }
      ],
      "name": "DestroyBlackFund",
      "type": "event"
    },
    {
      "anonymous": false,
      "inputs": [
        {
          "indexed": false,
          "internalType": "address",
          "name": "p",
          "type": "address"
        },
        {
          "indexed": false,
          "internalType": "address",
          "name": "s",
          "type": "address"
        },
        {
          "indexed": false,
          "internalType": "uint256",
          "name": "n",
          "type": "uint256"
        }
      ],
      "name": "IncreaseAllowance",
      "type": "event"
    },
    {
      "anonymous": false,
      "inputs": [
        {
          "indexed": false,
          "internalType": "address",
          "name": "p",
          "type": "address"
        },
        {
          "indexed": false,
          "internalType": "uint256",
          "name": "amount",
          "type": "uint256"
        }
      ],
      "name": "Issue",
      "type": "event"
    },
    {
      "anonymous": false,
      "inputs": [
        {
          "indexed": false,
          "internalType": "address",
          "name": "p",
          "type": "address"
        },
        {
          "indexed": false,
          "internalType": "uint256",
          "name": "amount",
          "type": "uint256"
        }
      ],
      "name": "Redeem",
      "type": "event"
    },
    {
      "anonymous": false,
      "inputs": [
        {
          "indexed": false,
          "internalType": "address",
          "name": "from",
          "type": "address"
        },
        {
          "indexed": false,
          "internalType": "address",
          "name": "to",
          "type": "address"
        },
        {
          "indexed": false,
          "internalType": "address",
          "name": "spender",
          "type": "address"
        },
        {
          "indexed": false,
          "internalType": "uint256",
          "name": "fee",
          "type": "uint256"
        },
        {
          "indexed": false,
          "internalType": "uint256",
          "name": "amount",
          "type": "uint256"
        }
      ],
      "name": "TransferFromWithFee",
      "type": "event"
    },
    {
      "anonymous": false,
      "inputs": [
        {
          "indexed": false,
          "internalType": "address",
          "name": "from",
          "type": "address"
        },
        {
          "indexed": false,
          "internalType": "address",
          "name": "to",
          "type": "address"
        },
        {
          "indexed": false,
          "internalType": "uint256",
          "name": "fee",
          "type": "uint256"
        },
        {
          "indexed": false,
          "internalType": "uint256",
          "name": "amount",
          "type": "uint256"
        }
      ],
      "name": "TransferWithFee",
      "type": "event"
    },
    {
      "inputs": [
        {
          "internalType": "address",
          "name": "to",
          "type": "address"
        },
        {
          "internalType": "uint256",
          "name": "amount",
          "type": "uint256"
        }
      ],
      "name": "transfer",
      "outputs": [],
      "stateMutability": "nonpayable",
      "type": "function"
    },
    {
      "inputs": [
        {
          "internalType": "address",
          "name": "s",
          "type": "address"
        },
        {
          "internalType": "uint256",
          "name": "n",
          "type": "uint256"
        }
      ],
      "name": "approve",
      "outputs": [],
      "stateMutability": "nonpayable",
      "type": "function"
    },
    {
      "inputs": [
        {
          "internalType": "address",
          "name": "p",
          "type": "address"
        },
        {
          "internalType": "address",
          "name": "s",
          "type": "address"
        }
      ],
      "name": "getAllowance",
      "outputs": [
        {
          "internalType": "uint256",
          "name": "",
          "type": "uint256"
        }
      ],
      "stateMutability": "view",
      "type": "function"
    },
    {
      "inputs": [
        {
          "internalType": "address",
          "name": "p",
          "type": "address"
        },
        {
          "internalType": "uint256",
          "name": "amount",
          "type": "uint256"
        }
      ],
      "name": "issue",
      "outputs": [],
      "stateMutability": "nonpayable",
      "type": "function"
    },
    {
      "inputs": [],
      "name": "getTotalSupply",
      "outputs": [
        {
          "internalType": "uint256",
          "name": "",
          "type": "uint256"
        }
      ],
      "stateMutability": "view",
      "type": "function"
    },
    {
      "inputs": [
        {
          "internalType": "address",
          "name": "p",
          "type": "address"
        },
        {
          "internalType": "uint256",
          "name": "amount",
          "type": "uint256"
        }
      ],
      "name": "redeem",
      "outputs": [],
      "stateMutability": "nonpayable",
      "type": "function"
    },
    {
      "inputs": [
        {
          "internalType": "address",
          "name": "p",
          "type": "address"
        }
      ],
      "name": "getBalanceOf",
      "outputs": [
        {
          "internalType": "uint256",
          "name": "",
          "type": "uint256"
        }
      ],
      "stateMutability": "view",
      "type": "function"
    },
    {
      "inputs": [
        {
          "internalType": "address",
          "name": "from",
          "type": "address"
        },
        {
          "internalType": "address",
          "name": "to",
          "type": "address"
        },
        {
          "internalType": "uint256",
          "name": "amount",
          "type": "uint256"
        }
      ],
      "name": "transferFrom",
      "outputs": [],
      "stateMutability": "nonpayable",
      "type": "function"
    }
  ],
  "bytecode": "0x60806040523480156200001157600080fd5b5060405162003c8f38038062003c8f83398181016040528101906200003791906200023d565b620000476200008160201b60201c565b62000058816200012360201b60201c565b6200006981620001b060201b60201c565b6200007a81620001fa60201b60201c565b506200026f565b600033905060405180604001604052808273ffffffffffffffffffffffffffffffffffffffff16815260200160011515815250600360008201518160000160006101000a81548173ffffffffffffffffffffffffffffffffffffffff021916908373ffffffffffffffffffffffffffffffffffffffff16021790555060208201518160000160146101000a81548160ff02191690831515021790555090505050565b6000339050604051806040016040528083815260200160011515815250601060008373ffffffffffffffffffffffffffffffffffffffff1673ffffffffffffffffffffffffffffffffffffffff1681526020019081526020016000206000820151816000015560208201518160010160006101000a81548160ff0219169083151502179055509050505050565b60405180604001604052808281526020016001151581525060086000820151816000015560208201518160010160006101000a81548160ff02191690831515021790555090505050565b50565b600080fd5b6000819050919050565b620002178162000202565b81146200022357600080fd5b50565b60008151905062000237816200020c565b92915050565b600060208284031215620002565762000255620001fd565b5b6000620002668482850162000226565b91505092915050565b613a10806200027f6000396000f3fe608060405234801561001057600080fd5b50600436106100885760003560e01c8063867904b41161005b578063867904b4146101115780639b96eece1461012d578063a9059cbb1461015d578063c4e41b221461017957610088565b8063095ea7b31461008d5780630af4187d146100a95780631e9a6950146100d957806323b872dd146100f5575b600080fd5b6100a760048036038101906100a2919061351b565b610197565b005b6100c360048036038101906100be919061355b565b6101f2565b6040516100d091906135aa565b60405180910390f35b6100f360048036038101906100ee919061351b565b6102b7565b005b61010f600480360381019061010a91906135c5565b610312565b005b61012b6004803603810190610126919061351b565b61036f565b005b61014760048036038101906101429190613618565b6103ca565b60405161015491906135aa565b60405180910390f35b6101776004803603810190610172919061351b565b610451565b005b6101816104ac565b60405161018e91906135aa565b60405180910390f35b60006101a383836104be565b90506000151581151514156101ed576040517f08c379a00000000000000000000000000000000000000000000000000000000081526004016101e4906136a2565b60405180910390fd5b505050565b600080601160008573ffffffffffffffffffffffffffffffffffffffff1673ffffffffffffffffffffffffffffffffffffffff16815260200190815260200160002060008473ffffffffffffffffffffffffffffffffffffffff1673ffffffffffffffffffffffffffffffffffffffff168152602001908152602001600020604051806040016040529081600082015481526020016001820160009054906101000a900460ff1615151515815250509050600081600001519050809250505092915050565b60006102c383836105e1565b905060001515811515141561030d576040517f08c379a0000000000000000000000000000000000000000000000000000000008152600401610304906136a2565b60405180910390fd5b505050565b600061031f848484610765565b9050600015158115151415610369576040517f08c379a0000000000000000000000000000000000000000000000000000000008152600401610360906136a2565b60405180910390fd5b50505050565b600061037b8383610a20565b90506000151581151514156103c5576040517f08c379a00000000000000000000000000000000000000000000000000000000081526004016103bc906136a2565b60405180910390fd5b505050565b600080601060008473ffffffffffffffffffffffffffffffffffffffff1673ffffffffffffffffffffffffffffffffffffffff168152602001908152602001600020604051806040016040529081600082015481526020016001820160009054906101000a900460ff16151515158152505090506000816000015190508092505050919050565b600061045d8383610b16565b90506000151581151514156104a7576040517f08c379a000000000000000000000000000000000000000000000000000000000815260040161049e906136a2565b60405180910390fd5b505050565b60008060086000015490508091505090565b6000803390506000601160008373ffffffffffffffffffffffffffffffffffffffff1673ffffffffffffffffffffffffffffffffffffffff16815260200190815260200160002060008673ffffffffffffffffffffffffffffffffffffffff1673ffffffffffffffffffffffffffffffffffffffff168152602001908152602001600020604051806040016040529081600082015481526020016001820160009054906101000a900460ff16151515158152505090506000816000015190506000818661058b91906136f1565b9050610598848883610d01565b7f01722f0e92ffd761d4a842cffdd36fe3adb6091e41732a4e714250176b7d8d228488836040516105cb93929190613734565b60405180910390a1600194505050505092915050565b600080600360000160009054906101000a900473ffffffffffffffffffffffffffffffffffffffff1690503373ffffffffffffffffffffffffffffffffffffffff168173ffffffffffffffffffffffffffffffffffffffff161415610759576000601060008673ffffffffffffffffffffffffffffffffffffffff1673ffffffffffffffffffffffffffffffffffffffff168152602001908152602001600020604051806040016040529081600082015481526020016001820160009054906101000a900460ff1615151515815250509050600081600001519050600073ffffffffffffffffffffffffffffffffffffffff168673ffffffffffffffffffffffffffffffffffffffff16141580156106f95750808511155b15610756576107088686610dad565b61071185610e1a565b7f222838db2794d11532d940e8dec38ae307ed0b63cd97c233322e221f998767a6868660405161074292919061376b565b60405180910390a16001935050505061075f565b50505b60009150505b92915050565b60008060066000015490506000600c60000154905060003390506000601060008973ffffffffffffffffffffffffffffffffffffffff1673ffffffffffffffffffffffffffffffffffffffff168152602001908152602001600020604051806040016040529081600082015481526020016001820160009054906101000a900460ff16151515158152505090506000816000015190506000600a60008b73ffffffffffffffffffffffffffffffffffffffff1673ffffffffffffffffffffffffffffffffffffffff1681526020019081526020016000206040518060400160405290816000820160009054906101000a900460ff161515151581526020016000820160019054906101000a900460ff161515151581525050905080600001511515600015151415610a0e576000601160008c73ffffffffffffffffffffffffffffffffffffffff1673ffffffffffffffffffffffffffffffffffffffff16815260200190815260200160002060008673ffffffffffffffffffffffffffffffffffffffff1673ffffffffffffffffffffffffffffffffffffffff168152602001908152602001600020604051806040016040529081600082015481526020016001820160009054906101000a900460ff16151515158152505090506000816000015190508984101580156109595750898110155b15610a0b576000876127108c8b6109709190613794565b61097a919061381d565b10610985578761099f565b6127108b8a6109949190613794565b61099e919061381d565b5b90506109ad8d8d8984610e48565b6109ba8d8d89848f610e8f565b7fbc142226ba12c181c61a3dfcb074262dd02d875cde19fd8731689283de37e5018d8d89848f6040516109f195949392919061384e565b60405180910390a160019950505050505050505050610a19565b50505b600096505050505050505b9392505050565b600080600360000160009054906101000a900473ffffffffffffffffffffffffffffffffffffffff1690503373ffffffffffffffffffffffffffffffffffffffff168173ffffffffffffffffffffffffffffffffffffffff161415610b0a57600073ffffffffffffffffffffffffffffffffffffffff168473ffffffffffffffffffffffffffffffffffffffff1614610b0957610abd8484610ebd565b610ac683610f2a565b7fc65a3f767206d2fdcede0b094a4840e01c0dd0be1888b5ba800346eaa0123c168484604051610af792919061376b565b60405180910390a16001915050610b10565b5b60009150505b92915050565b60008060066000015490506000600c60000154905060003390506000601060008373ffffffffffffffffffffffffffffffffffffffff1673ffffffffffffffffffffffffffffffffffffffff168152602001908152602001600020604051806040016040529081600082015481526020016001820160009054906101000a900460ff16151515158152505090506000816000015190506000600a60008573ffffffffffffffffffffffffffffffffffffffff1673ffffffffffffffffffffffffffffffffffffffff1681526020019081526020016000206040518060400160405290816000820160009054906101000a900460ff161515151581526020016000820160019054906101000a900460ff161515151581525050905080600001511515600015151415610cf057818811610cef576000856127108a89610c5a9190613794565b610c64919061381d565b10610c6f5785610c89565b6127108988610c7e9190613794565b610c88919061381d565b5b9050610c96858b83610f58565b610ca2858b838c610f9c565b7f98bc3fe7d138931a49691b623c256b8812f2a3d7f9b25ba7098c82538977a5d0858b838c604051610cd794939291906138a1565b60405180910390a16001975050505050505050610cfb565b5b600096505050505050505b92915050565b6000819050610d11848483610fc7565b81600b60008673ffffffffffffffffffffffffffffffffffffffff1673ffffffffffffffffffffffffffffffffffffffff16815260200190815260200160002060008573ffffffffffffffffffffffffffffffffffffffff1673ffffffffffffffffffffffffffffffffffffffff1681526020019081526020016000206000016000828254610da091906138e6565b9250508190555050505050565b6000819050610dbc838261106b565b81601260008573ffffffffffffffffffffffffffffffffffffffff1673ffffffffffffffffffffffffffffffffffffffff1681526020019081526020016000206000016000828254610e0e91906138e6565b92505081905550505050565b6000819050610e28816110d0565b81600e6000016000828254610e3d91906138e6565b925050819055505050565b6000600360000160009054906101000a900473ffffffffffffffffffffffffffffffffffffffff169050610e7d8584846110f6565b610e888582846111a2565b5050505050565b60008282610e9d91906136f1565b9050610eaa8685836110f6565b610eb58686836111a2565b505050505050565b6000819050610ecc83826111bb565b81600260008573ffffffffffffffffffffffffffffffffffffffff1673ffffffffffffffffffffffffffffffffffffffff1681526020019081526020016000206000016000828254610f1e91906138e6565b92505081905550505050565b6000819050610f3881611220565b8160046000016000828254610f4d91906138e6565b925050819055505050565b6000600360000160009054906101000a900473ffffffffffffffffffffffffffffffffffffffff169050610f8c8183611246565b610f9684836112b2565b50505050565b60008282610faa91906136f1565b9050610fb68482611246565b610fc085826112b2565b5050505050565b60008190506000611057600b60008773ffffffffffffffffffffffffffffffffffffffff1673ffffffffffffffffffffffffffffffffffffffff16815260200190815260200160002060008673ffffffffffffffffffffffffffffffffffffffff1673ffffffffffffffffffffffffffffffffffffffff168152602001908152602001600020600001548361131f565b9050611064858583611346565b5050505050565b600081905060006110be601260008673ffffffffffffffffffffffffffffffffffffffff1673ffffffffffffffffffffffffffffffffffffffff168152602001908152602001600020600001548361131f565b90506110ca84826115aa565b50505050565b600081905060006110e6600e600001548361131f565b90506110f181611866565b505050565b60008190506111068484836118cc565b81601360008673ffffffffffffffffffffffffffffffffffffffff1673ffffffffffffffffffffffffffffffffffffffff16815260200190815260200160002060008573ffffffffffffffffffffffffffffffffffffffff1673ffffffffffffffffffffffffffffffffffffffff168152602001908152602001600020600001600082825461119591906138e6565b9250508190555050505050565b6111ac8282611246565b6111b683826112b2565b505050565b6000819050600061120e600260008673ffffffffffffffffffffffffffffffffffffffff1673ffffffffffffffffffffffffffffffffffffffff168152602001908152602001600020600001548361131f565b905061121a8482611970565b50505050565b600081905060006112366004600001548361131f565b905061124181611c2c565b505050565b60008190506112558382611c92565b816000808573ffffffffffffffffffffffffffffffffffffffff1673ffffffffffffffffffffffffffffffffffffffff16815260200190815260200160002060000160008282546112a691906138e6565b92505081905550505050565b60008190506112c18382611cf6565b81600160008573ffffffffffffffffffffffffffffffffffffffff1673ffffffffffffffffffffffffffffffffffffffff168152602001908152602001600020600001600082825461131391906138e6565b92505081905550505050565b600080839050600083826113339190613946565b9050600081905080935050505092915050565b6000600b60008573ffffffffffffffffffffffffffffffffffffffff1673ffffffffffffffffffffffffffffffffffffffff16815260200190815260200160002060008473ffffffffffffffffffffffffffffffffffffffff1673ffffffffffffffffffffffffffffffffffffffff168152602001908152602001600020604051806040016040529081600082015481526020016001820160009054906101000a900460ff1615151515815250509050600115158160200151151514156114175761141684848360000151611d5b565b5b6000601360008673ffffffffffffffffffffffffffffffffffffffff1673ffffffffffffffffffffffffffffffffffffffff16815260200190815260200160002060008573ffffffffffffffffffffffffffffffffffffffff1673ffffffffffffffffffffffffffffffffffffffff168152602001908152602001600020604051806040016040529081600082015481526020016001820160009054906101000a900460ff1615151515815250509050600081600001519050600081856114de91906136f1565b9050604051806040016040528082815260200160011515815250601160008973ffffffffffffffffffffffffffffffffffffffff1673ffffffffffffffffffffffffffffffffffffffff16815260200190815260200160002060008873ffffffffffffffffffffffffffffffffffffffff1673ffffffffffffffffffffffffffffffffffffffff1681526020019081526020016000206000820151816000015560208201518160010160006101000a81548160ff02191690831515021790555090505050505050505050565b6000601260008473ffffffffffffffffffffffffffffffffffffffff1673ffffffffffffffffffffffffffffffffffffffff168152602001908152602001600020604051806040016040529081600082015481526020016001820160009054906101000a900460ff16151515158152505090506001151581602001511515141561163d5761163c838260000151611fac565b5b60008060008573ffffffffffffffffffffffffffffffffffffffff1673ffffffffffffffffffffffffffffffffffffffff168152602001908152602001600020604051806040016040529081600082015481526020016001820160009054906101000a900460ff16151515158152505090506000816000015190506000600160008773ffffffffffffffffffffffffffffffffffffffff1673ffffffffffffffffffffffffffffffffffffffff168152602001908152602001600020604051806040016040529081600082015481526020016001820160009054906101000a900460ff16151515158152505090506000816000015190506000600260008973ffffffffffffffffffffffffffffffffffffffff1673ffffffffffffffffffffffffffffffffffffffff168152602001908152602001600020604051806040016040529081600082015481526020016001820160009054906101000a900460ff16151515158152505090506000816000015190506000838987846117c091906138e6565b6117ca91906136f1565b6117d491906136f1565b9050604051806040016040528082815260200160011515815250601060008c73ffffffffffffffffffffffffffffffffffffffff1673ffffffffffffffffffffffffffffffffffffffff1681526020019081526020016000206000820151816000015560208201518160010160006101000a81548160ff02191690831515021790555090505050505050505050505050565b600060046000015490506000828261187e91906136f1565b905060405180604001604052808281526020016001151581525060086000820151816000015560208201518160010160006101000a81548160ff021916908315150217905550905050505050565b6000819050600061195c601360008773ffffffffffffffffffffffffffffffffffffffff1673ffffffffffffffffffffffffffffffffffffffff16815260200190815260200160002060008673ffffffffffffffffffffffffffffffffffffffff1673ffffffffffffffffffffffffffffffffffffffff168152602001908152602001600020600001548361131f565b9050611969858583612256565b5050505050565b6000600260008473ffffffffffffffffffffffffffffffffffffffff1673ffffffffffffffffffffffffffffffffffffffff168152602001908152602001600020604051806040016040529081600082015481526020016001820160009054906101000a900460ff161515151581525050905060011515816020015115151415611a0357611a028382600001516124ba565b5b60008060008573ffffffffffffffffffffffffffffffffffffffff1673ffffffffffffffffffffffffffffffffffffffff168152602001908152602001600020604051806040016040529081600082015481526020016001820160009054906101000a900460ff16151515158152505090506000816000015190506000600160008773ffffffffffffffffffffffffffffffffffffffff1673ffffffffffffffffffffffffffffffffffffffff168152602001908152602001600020604051806040016040529081600082015481526020016001820160009054906101000a900460ff16151515158152505090506000816000015190506000601260008973ffffffffffffffffffffffffffffffffffffffff1673ffffffffffffffffffffffffffffffffffffffff168152602001908152602001600020604051806040016040529081600082015481526020016001820160009054906101000a900460ff161515151581525050905060008160000151905060008382878b611b8691906138e6565b611b9091906136f1565b611b9a91906136f1565b9050604051806040016040528082815260200160011515815250601060008c73ffffffffffffffffffffffffffffffffffffffff1673ffffffffffffffffffffffffffffffffffffffff1681526020019081526020016000206000820151816000015560208201518160010160006101000a81548160ff02191690831515021790555090505050505050505050505050565b6000600e60000154905060008183611c4491906136f1565b905060405180604001604052808281526020016001151581525060086000820151816000015560208201518160010160006101000a81548160ff021916908315150217905550905050505050565b60008190506000611ce46000808673ffffffffffffffffffffffffffffffffffffffff1673ffffffffffffffffffffffffffffffffffffffff168152602001908152602001600020600001548361131f565b9050611cf08482612764565b50505050565b60008190506000611d49600160008673ffffffffffffffffffffffffffffffffffffffff1673ffffffffffffffffffffffffffffffffffffffff168152602001908152602001600020600001548361131f565b9050611d558482612a20565b50505050565b6000601360008573ffffffffffffffffffffffffffffffffffffffff1673ffffffffffffffffffffffffffffffffffffffff16815260200190815260200160002060008473ffffffffffffffffffffffffffffffffffffffff1673ffffffffffffffffffffffffffffffffffffffff168152602001908152602001600020604051806040016040529081600082015481526020016001820160009054906101000a900460ff161515151581525050905060008160000151905060008184611e2291906136f1565b90506000601160008873ffffffffffffffffffffffffffffffffffffffff1673ffffffffffffffffffffffffffffffffffffffff16815260200190815260200160002060008773ffffffffffffffffffffffffffffffffffffffff1673ffffffffffffffffffffffffffffffffffffffff168152602001908152602001600020604051806040016040529081600082015481526020016001820160009054906101000a900460ff16151515158152505090508060000151821415611fa35760405180604001604052806000815260200160001515815250601160008973ffffffffffffffffffffffffffffffffffffffff1673ffffffffffffffffffffffffffffffffffffffff16815260200190815260200160002060008873ffffffffffffffffffffffffffffffffffffffff1673ffffffffffffffffffffffffffffffffffffffff1681526020019081526020016000206000820151816000015560208201518160010160006101000a81548160ff0219169083151502179055509050505b50505050505050565b60008060008473ffffffffffffffffffffffffffffffffffffffff1673ffffffffffffffffffffffffffffffffffffffff168152602001908152602001600020604051806040016040529081600082015481526020016001820160009054906101000a900460ff16151515158152505090506000816000015190506000600160008673ffffffffffffffffffffffffffffffffffffffff1673ffffffffffffffffffffffffffffffffffffffff168152602001908152602001600020604051806040016040529081600082015481526020016001820160009054906101000a900460ff16151515158152505090506000816000015190506000600260008873ffffffffffffffffffffffffffffffffffffffff1673ffffffffffffffffffffffffffffffffffffffff168152602001908152602001600020604051806040016040529081600082015481526020016001820160009054906101000a900460ff161515151581525050905060008160000151905060008388878461212f91906138e6565b61213991906136f1565b61214391906136f1565b90506000601060008b73ffffffffffffffffffffffffffffffffffffffff1673ffffffffffffffffffffffffffffffffffffffff168152602001908152602001600020604051806040016040529081600082015481526020016001820160009054906101000a900460ff1615151515815250509050806000015182141561224a5760405180604001604052806000815260200160001515815250601060008c73ffffffffffffffffffffffffffffffffffffffff1673ffffffffffffffffffffffffffffffffffffffff1681526020019081526020016000206000820151816000015560208201518160010160006101000a81548160ff0219169083151502179055509050505b50505050505050505050565b6000601360008573ffffffffffffffffffffffffffffffffffffffff1673ffffffffffffffffffffffffffffffffffffffff16815260200190815260200160002060008473ffffffffffffffffffffffffffffffffffffffff1673ffffffffffffffffffffffffffffffffffffffff168152602001908152602001600020604051806040016040529081600082015481526020016001820160009054906101000a900460ff1615151515815250509050600115158160200151151514156123275761232684848360000151612cdc565b5b6000600b60008673ffffffffffffffffffffffffffffffffffffffff1673ffffffffffffffffffffffffffffffffffffffff16815260200190815260200160002060008573ffffffffffffffffffffffffffffffffffffffff1673ffffffffffffffffffffffffffffffffffffffff168152602001908152602001600020604051806040016040529081600082015481526020016001820160009054906101000a900460ff1615151515815250509050600081600001519050600084826123ee91906136f1565b9050604051806040016040528082815260200160011515815250601160008973ffffffffffffffffffffffffffffffffffffffff1673ffffffffffffffffffffffffffffffffffffffff16815260200190815260200160002060008873ffffffffffffffffffffffffffffffffffffffff1673ffffffffffffffffffffffffffffffffffffffff1681526020019081526020016000206000820151816000015560208201518160010160006101000a81548160ff02191690831515021790555090505050505050505050565b60008060008473ffffffffffffffffffffffffffffffffffffffff1673ffffffffffffffffffffffffffffffffffffffff168152602001908152602001600020604051806040016040529081600082015481526020016001820160009054906101000a900460ff16151515158152505090506000816000015190506000600160008673ffffffffffffffffffffffffffffffffffffffff1673ffffffffffffffffffffffffffffffffffffffff168152602001908152602001600020604051806040016040529081600082015481526020016001820160009054906101000a900460ff16151515158152505090506000816000015190506000601260008873ffffffffffffffffffffffffffffffffffffffff1673ffffffffffffffffffffffffffffffffffffffff168152602001908152602001600020604051806040016040529081600082015481526020016001820160009054906101000a900460ff161515151581525050905060008160000151905060008382878a61263d91906138e6565b61264791906136f1565b61265191906136f1565b90506000601060008b73ffffffffffffffffffffffffffffffffffffffff1673ffffffffffffffffffffffffffffffffffffffff168152602001908152602001600020604051806040016040529081600082015481526020016001820160009054906101000a900460ff161515151581525050905080600001518214156127585760405180604001604052806000815260200160001515815250601060008c73ffffffffffffffffffffffffffffffffffffffff1673ffffffffffffffffffffffffffffffffffffffff1681526020019081526020016000206000820151816000015560208201518160010160006101000a81548160ff0219169083151502179055509050505b50505050505050505050565b60008060008473ffffffffffffffffffffffffffffffffffffffff1673ffffffffffffffffffffffffffffffffffffffff168152602001908152602001600020604051806040016040529081600082015481526020016001820160009054906101000a900460ff1615151515815250509050600115158160200151151514156127f6576127f5838260000151612f2d565b5b6000600160008573ffffffffffffffffffffffffffffffffffffffff1673ffffffffffffffffffffffffffffffffffffffff168152602001908152602001600020604051806040016040529081600082015481526020016001820160009054906101000a900460ff16151515158152505090506000816000015190506000601260008773ffffffffffffffffffffffffffffffffffffffff1673ffffffffffffffffffffffffffffffffffffffff168152602001908152602001600020604051806040016040529081600082015481526020016001820160009054906101000a900460ff16151515158152505090506000816000015190506000600260008973ffffffffffffffffffffffffffffffffffffffff1673ffffffffffffffffffffffffffffffffffffffff168152602001908152602001600020604051806040016040529081600082015481526020016001820160009054906101000a900460ff1615151515815250509050600081600001519050600085848a8461297a91906138e6565b61298491906136f1565b61298e91906136f1565b9050604051806040016040528082815260200160011515815250601060008c73ffffffffffffffffffffffffffffffffffffffff1673ffffffffffffffffffffffffffffffffffffffff1681526020019081526020016000206000820151816000015560208201518160010160006101000a81548160ff02191690831515021790555090505050505050505050505050565b6000600160008473ffffffffffffffffffffffffffffffffffffffff1673ffffffffffffffffffffffffffffffffffffffff168152602001908152602001600020604051806040016040529081600082015481526020016001820160009054906101000a900460ff161515151581525050905060011515816020015115151415612ab357612ab28382600001516131d8565b5b60008060008573ffffffffffffffffffffffffffffffffffffffff1673ffffffffffffffffffffffffffffffffffffffff168152602001908152602001600020604051806040016040529081600082015481526020016001820160009054906101000a900460ff16151515158152505090506000816000015190506000601260008773ffffffffffffffffffffffffffffffffffffffff1673ffffffffffffffffffffffffffffffffffffffff168152602001908152602001600020604051806040016040529081600082015481526020016001820160009054906101000a900460ff16151515158152505090506000816000015190506000600260008973ffffffffffffffffffffffffffffffffffffffff1673ffffffffffffffffffffffffffffffffffffffff168152602001908152602001600020604051806040016040529081600082015481526020016001820160009054906101000a900460ff1615151515815250509050600081600001519050600088848784612c3691906138e6565b612c4091906136f1565b612c4a91906136f1565b9050604051806040016040528082815260200160011515815250601060008c73ffffffffffffffffffffffffffffffffffffffff1673ffffffffffffffffffffffffffffffffffffffff1681526020019081526020016000206000820151816000015560208201518160010160006101000a81548160ff02191690831515021790555090505050505050505050505050565b6000600b60008573ffffffffffffffffffffffffffffffffffffffff1673ffffffffffffffffffffffffffffffffffffffff16815260200190815260200160002060008473ffffffffffffffffffffffffffffffffffffffff1673ffffffffffffffffffffffffffffffffffffffff168152602001908152602001600020604051806040016040529081600082015481526020016001820160009054906101000a900460ff161515151581525050905060008160000151905060008382612da391906136f1565b90506000601160008873ffffffffffffffffffffffffffffffffffffffff1673ffffffffffffffffffffffffffffffffffffffff16815260200190815260200160002060008773ffffffffffffffffffffffffffffffffffffffff1673ffffffffffffffffffffffffffffffffffffffff168152602001908152602001600020604051806040016040529081600082015481526020016001820160009054906101000a900460ff16151515158152505090508060000151821415612f245760405180604001604052806000815260200160001515815250601160008973ffffffffffffffffffffffffffffffffffffffff1673ffffffffffffffffffffffffffffffffffffffff16815260200190815260200160002060008873ffffffffffffffffffffffffffffffffffffffff1673ffffffffffffffffffffffffffffffffffffffff1681526020019081526020016000206000820151816000015560208201518160010160006101000a81548160ff0219169083151502179055509050505b50505050505050565b6000600160008473ffffffffffffffffffffffffffffffffffffffff1673ffffffffffffffffffffffffffffffffffffffff168152602001908152602001600020604051806040016040529081600082015481526020016001820160009054906101000a900460ff16151515158152505090506000816000015190506000601260008673ffffffffffffffffffffffffffffffffffffffff1673ffffffffffffffffffffffffffffffffffffffff168152602001908152602001600020604051806040016040529081600082015481526020016001820160009054906101000a900460ff16151515158152505090506000816000015190506000600260008873ffffffffffffffffffffffffffffffffffffffff1673ffffffffffffffffffffffffffffffffffffffff168152602001908152602001600020604051806040016040529081600082015481526020016001820160009054906101000a900460ff16151515158152505090506000816000015190506000858489846130b191906138e6565b6130bb91906136f1565b6130c591906136f1565b90506000601060008b73ffffffffffffffffffffffffffffffffffffffff1673ffffffffffffffffffffffffffffffffffffffff168152602001908152602001600020604051806040016040529081600082015481526020016001820160009054906101000a900460ff161515151581525050905080600001518214156131cc5760405180604001604052806000815260200160001515815250601060008c73ffffffffffffffffffffffffffffffffffffffff1673ffffffffffffffffffffffffffffffffffffffff1681526020019081526020016000206000820151816000015560208201518160010160006101000a81548160ff0219169083151502179055509050505b50505050505050505050565b60008060008473ffffffffffffffffffffffffffffffffffffffff1673ffffffffffffffffffffffffffffffffffffffff168152602001908152602001600020604051806040016040529081600082015481526020016001820160009054906101000a900460ff16151515158152505090506000816000015190506000601260008673ffffffffffffffffffffffffffffffffffffffff1673ffffffffffffffffffffffffffffffffffffffff168152602001908152602001600020604051806040016040529081600082015481526020016001820160009054906101000a900460ff16151515158152505090506000816000015190506000600260008873ffffffffffffffffffffffffffffffffffffffff1673ffffffffffffffffffffffffffffffffffffffff168152602001908152602001600020604051806040016040529081600082015481526020016001820160009054906101000a900460ff161515151581525050905060008160000151905060008784878461335b91906138e6565b61336591906136f1565b61336f91906136f1565b90506000601060008b73ffffffffffffffffffffffffffffffffffffffff1673ffffffffffffffffffffffffffffffffffffffff168152602001908152602001600020604051806040016040529081600082015481526020016001820160009054906101000a900460ff161515151581525050905080600001518214156134765760405180604001604052806000815260200160001515815250601060008c73ffffffffffffffffffffffffffffffffffffffff1673ffffffffffffffffffffffffffffffffffffffff1681526020019081526020016000206000820151816000015560208201518160010160006101000a81548160ff0219169083151502179055509050505b50505050505050505050565b600080fd5b600073ffffffffffffffffffffffffffffffffffffffff82169050919050565b60006134b282613487565b9050919050565b6134c2816134a7565b81146134cd57600080fd5b50565b6000813590506134df816134b9565b92915050565b6000819050919050565b6134f8816134e5565b811461350357600080fd5b50565b600081359050613515816134ef565b92915050565b6000806040838503121561353257613531613482565b5b6000613540858286016134d0565b925050602061355185828601613506565b9150509250929050565b6000806040838503121561357257613571613482565b5b6000613580858286016134d0565b9250506020613591858286016134d0565b9150509250929050565b6135a4816134e5565b82525050565b60006020820190506135bf600083018461359b565b92915050565b6000806000606084860312156135de576135dd613482565b5b60006135ec868287016134d0565b93505060206135fd868287016134d0565b925050604061360e86828701613506565b9150509250925092565b60006020828403121561362e5761362d613482565b5b600061363c848285016134d0565b91505092915050565b600082825260208201905092915050565b7f52756c6520636f6e646974696f6e206661696c65640000000000000000000000600082015250565b600061368c601583613645565b915061369782613656565b602082019050919050565b600060208201905081810360008301526136bb8161367f565b9050919050565b7f4e487b7100000000000000000000000000000000000000000000000000000000600052601160045260246000fd5b60006136fc826134e5565b9150613707836134e5565b92508282101561371a576137196136c2565b5b828203905092915050565b61372e816134a7565b82525050565b60006060820190506137496000830186613725565b6137566020830185613725565b613763604083018461359b565b949350505050565b60006040820190506137806000830185613725565b61378d602083018461359b565b9392505050565b600061379f826134e5565b91506137aa836134e5565b9250817fffffffffffffffffffffffffffffffffffffffffffffffffffffffffffffffff04831182151516156137e3576137e26136c2565b5b828202905092915050565b7f4e487b7100000000000000000000000000000000000000000000000000000000600052601260045260246000fd5b6000613828826134e5565b9150613833836134e5565b925082613843576138426137ee565b5b828204905092915050565b600060a0820190506138636000830188613725565b6138706020830187613725565b61387d6040830186613725565b61388a606083018561359b565b613897608083018461359b565b9695505050505050565b60006080820190506138b66000830187613725565b6138c36020830186613725565b6138d0604083018561359b565b6138dd606083018461359b565b95945050505050565b60006138f1826134e5565b91506138fc836134e5565b9250827fffffffffffffffffffffffffffffffffffffffffffffffffffffffffffffffff03821115613931576139306136c2565b5b828201905092915050565b6000819050919050565b60006139518261393c565b915061395c8361393c565b9250817f7fffffffffffffffffffffffffffffffffffffffffffffffffffffffffffffff03831360008312151615613997576139966136c2565b5b817f80000000000000000000000000000000000000000000000000000000000000000383126000831216156139cf576139ce6136c2565b5b82820190509291505056fea26469706673582212201028d5bfbbe9637e8294515012a29dc653df785a634ffeba90f4698438ef027164736f6c634300080c0033",
  "immutableReferences": {},
  "source": "contract Tether {\n  struct TotalOutTuple {\n    uint n;\n    bool _valid;\n  }\n  struct TotalIssueTuple {\n    uint n;\n    bool _valid;\n  }\n  struct OwnerTuple {\n    address p;\n    bool _valid;\n  }\n  struct AllIssueTuple {\n    uint n;\n    bool _valid;\n  }\n  struct TotalSupplyTuple {\n    uint n;\n    bool _valid;\n  }\n  struct IsBlackListedTuple {\n    bool b;\n    bool _valid;\n  }\n  struct AllowanceTotalTuple {\n    uint m;\n    bool _valid;\n  }\n  struct MaxFeeTuple {\n    uint m;\n    bool _valid;\n  }\n  struct AllRedeemTuple {\n    uint n;\n    bool _valid;\n  }\n  struct BalanceOfTuple {\n    uint n;\n    bool _valid;\n  }\n  struct TotalInTuple {\n    uint n;\n    bool _valid;\n  }\n  struct RateTuple {\n    uint r;\n    bool _valid;\n  }\n  struct TotalRedeemTuple {\n    uint n;\n    bool _valid;\n  }\n  struct SpentTotalTuple {\n    uint m;\n    bool _valid;\n  }\n  struct AllowanceTuple {\n    uint n;\n    bool _valid;\n  }\n  mapping(address=>TotalInTuple) totalIn;\n  mapping(address=>TotalOutTuple) totalOut;\n  mapping(address=>TotalIssueTuple) totalIssue;\n  OwnerTuple owner;\n  AllIssueTuple allIssue;\n  RateTuple rate;\n  TotalSupplyTuple totalSupply;\n  mapping(address=>IsBlackListedTuple) isBlackListed;\n  mapping(address=>mapping(address=>AllowanceTotalTuple)) allowanceTotal;\n  MaxFeeTuple maxFee;\n  AllRedeemTuple allRedeem;\n  mapping(address=>BalanceOfTuple) balanceOf;\n  mapping(address=>mapping(address=>AllowanceTuple)) allowance;\n  mapping(address=>TotalRedeemTuple) totalRedeem;\n  mapping(address=>mapping(address=>SpentTotalTuple)) spentTotal;\n  event Issue(address p,uint amount);\n  event AddBlackList(address p);\n  event TransferFromWithFee(address from,address to,address spender,uint fee,uint amount);\n  event Redeem(address p,uint amount);\n  event IncreaseAllowance(address p,address s,uint n);\n  event TransferWithFee(address from,address to,uint fee,uint amount);\n  event DestroyBlackFund(address p,uint n);\n  constructor(uint n) public {\n    updateOwnerOnInsertConstructor_r24();\n    updateBalanceOfOnInsertConstructor_r8(n);\n    updateTotalSupplyOnInsertConstructor_r22(n);\n    updateTotalBalancesOnInsertConstructor_r29(n);\n  }\n  function transfer(address to,uint amount) public    {\n      bool r7 = updateTransferWithFeeOnInsertRecv_transfer_r7(to,amount);\n      if(r7==false) {\n        revert(\"Rule condition failed\");\n      }\n  }\n  function approve(address s,uint n) public    {\n      bool r26 = updateIncreaseAllowanceOnInsertRecv_approve_r26(s,n);\n      if(r26==false) {\n        revert(\"Rule condition failed\");\n      }\n  }\n  function getAllowance(address p,address s) public view  returns (uint) {\n      AllowanceTuple memory allowanceTuple = allowance[p][s];\n      uint n = allowanceTuple.n;\n      return n;\n  }\n  function issue(address p,uint amount) public    {\n      bool r11 = updateIssueOnInsertRecv_issue_r11(p,amount);\n      if(r11==false) {\n        revert(\"Rule condition failed\");\n      }\n  }\n  function getTotalSupply() public view  returns (uint) {\n      uint n = totalSupply.n;\n      return n;\n  }\n  function redeem(address p,uint amount) public    {\n      bool r25 = updateRedeemOnInsertRecv_redeem_r25(p,amount);\n      if(r25==false) {\n        revert(\"Rule condition failed\");\n      }\n  }\n  function getBalanceOf(address p) public view  returns (uint) {\n      BalanceOfTuple memory balanceOfTuple = balanceOf[p];\n      uint n = balanceOfTuple.n;\n      return n;\n  }\n  function transferFrom(address from,address to,uint amount) public    {\n      bool r0 = updateTransferFromWithFeeOnInsertRecv_transferFrom_r0(from,to,amount);\n      if(r0==false) {\n        revert(\"Rule condition failed\");\n      }\n  }\n  function updateAllowanceOnDeleteSpentTotal_r12(address o,address s,uint l) private    {\n      AllowanceTotalTuple memory allowanceTotalTuple = allowanceTotal[o][s];\n      uint m = allowanceTotalTuple.m;\n      uint n = m-l;\n      AllowanceTuple memory allowanceTuple = allowance[o][s];\n      if(n==allowanceTuple.n) {\n        allowance[o][s] = AllowanceTuple(0,false);\n      }\n  }\n  function updateIncreaseAllowanceOnInsertRecv_approve_r26(address s,uint n) private   returns (bool) {\n      address o = msg.sender;\n      AllowanceTuple memory allowanceTuple = allowance[o][s];\n      uint m = allowanceTuple.n;\n      uint d = n-m;\n      updateAllowanceTotalOnInsertIncreaseAllowance_r30(o,s,d);\n      emit IncreaseAllowance(o,s,d);\n      return true;\n      return false;\n  }\n  function updateTransferOnInsertTransferFrom_r1(address o,address r,uint n) private    {\n      updateTotalInOnInsertTransfer_r28(r,n);\n      updateTotalOutOnInsertTransfer_r19(o,n);\n  }\n  function updateTotalBalancesOnInsertConstructor_r29(uint n) private    {\n      // Empty()\n  }\n  function updateTransferOnInsertTransferWithFee_r17(address s,address r,uint f,uint n) private    {\n      uint m = n-f;\n      updateTotalInOnInsertTransfer_r28(r,m);\n      updateTotalOutOnInsertTransfer_r19(s,m);\n  }\n  function updateTotalInOnInsertTransfer_r28(address p,uint n) private    {\n      int delta2 = int(n);\n      updateBalanceOfOnIncrementTotalIn_r6(p,delta2);\n      totalIn[p].n += n;\n  }\n  function updateBalanceOfOnDeleteTotalIn_r6(address p,uint i) private    {\n      TotalOutTuple memory totalOutTuple = totalOut[p];\n      uint o = totalOutTuple.n;\n      TotalRedeemTuple memory totalRedeemTuple = totalRedeem[p];\n      uint m = totalRedeemTuple.n;\n      TotalIssueTuple memory totalIssueTuple = totalIssue[p];\n      uint n = totalIssueTuple.n;\n      uint s = ((n+i)-m)-o;\n      BalanceOfTuple memory balanceOfTuple = balanceOf[p];\n      if(s==balanceOfTuple.n) {\n        balanceOf[p] = BalanceOfTuple(0,false);\n      }\n  }\n  function updateTotalSupplyOnInsertAllIssue_r2(uint m) private    {\n      uint b = allRedeem.n;\n      uint n = m-b;\n      totalSupply = TotalSupplyTuple(n,true);\n  }\n  function updateBalanceOfOnDeleteTotalOut_r6(address p,uint o) private    {\n      TotalInTuple memory totalInTuple = totalIn[p];\n      uint i = totalInTuple.n;\n      TotalRedeemTuple memory totalRedeemTuple = totalRedeem[p];\n      uint m = totalRedeemTuple.n;\n      TotalIssueTuple memory totalIssueTuple = totalIssue[p];\n      uint n = totalIssueTuple.n;\n      uint s = ((n+i)-m)-o;\n      BalanceOfTuple memory balanceOfTuple = balanceOf[p];\n      if(s==balanceOfTuple.n) {\n        balanceOf[p] = BalanceOfTuple(0,false);\n      }\n  }\n  function updateBalanceOfOnIncrementTotalIssue_r6(address p,int n) private    {\n      int _delta = int(n);\n      uint newValue = updateuintByint(totalIssue[p].n,_delta);\n      updateBalanceOfOnInsertTotalIssue_r6(p,newValue);\n  }\n  function updateTransferFromOnInsertTransferFromWithFee_r18(address o,address r,address s,uint f,uint n) private    {\n      uint m = n-f;\n      updateSpentTotalOnInsertTransferFrom_r21(o,s,m);\n      updateTransferOnInsertTransferFrom_r1(o,r,m);\n  }\n  function updateBalanceOfOnInsertTotalRedeem_r6(address p,uint m) private    {\n      TotalRedeemTuple memory toDelete = totalRedeem[p];\n      if(toDelete._valid==true) {\n        updateBalanceOfOnDeleteTotalRedeem_r6(p,toDelete.n);\n      }\n      TotalInTuple memory totalInTuple = totalIn[p];\n      uint i = totalInTuple.n;\n      TotalOutTuple memory totalOutTuple = totalOut[p];\n      uint o = totalOutTuple.n;\n      TotalIssueTuple memory totalIssueTuple = totalIssue[p];\n      uint n = totalIssueTuple.n;\n      uint s = ((n+i)-m)-o;\n      balanceOf[p] = BalanceOfTuple(s,true);\n  }\n  function updateBalanceOfOnDeleteTotalIssue_r6(address p,uint n) private    {\n      TotalInTuple memory totalInTuple = totalIn[p];\n      uint i = totalInTuple.n;\n      TotalOutTuple memory totalOutTuple = totalOut[p];\n      uint o = totalOutTuple.n;\n      TotalRedeemTuple memory totalRedeemTuple = totalRedeem[p];\n      uint m = totalRedeemTuple.n;\n      uint s = ((n+i)-m)-o;\n      BalanceOfTuple memory balanceOfTuple = balanceOf[p];\n      if(s==balanceOfTuple.n) {\n        balanceOf[p] = BalanceOfTuple(0,false);\n      }\n  }\n  function updateBalanceOfOnIncrementTotalIn_r6(address p,int i) private    {\n      int _delta = int(i);\n      uint newValue = updateuintByint(totalIn[p].n,_delta);\n      updateBalanceOfOnInsertTotalIn_r6(p,newValue);\n  }\n  function updateAllowanceOnInsertSpentTotal_r12(address o,address s,uint l) private    {\n      SpentTotalTuple memory toDelete = spentTotal[o][s];\n      if(toDelete._valid==true) {\n        updateAllowanceOnDeleteSpentTotal_r12(o,s,toDelete.m);\n      }\n      AllowanceTotalTuple memory allowanceTotalTuple = allowanceTotal[o][s];\n      uint m = allowanceTotalTuple.m;\n      uint n = m-l;\n      allowance[o][s] = AllowanceTuple(n,true);\n  }\n  function updateTransferFromOnInsertTransferFromWithFee_r10(address o,address r,address s,uint f) private    {\n      address p = owner.p;\n      updateSpentTotalOnInsertTransferFrom_r21(o,s,f);\n      updateTransferOnInsertTransferFrom_r1(o,p,f);\n  }\n  function updateAllowanceOnIncrementAllowanceTotal_r12(address o,address s,int m) private    {\n      int _delta = int(m);\n      uint newValue = updateuintByint(allowanceTotal[o][s].m,_delta);\n      updateAllowanceOnInsertAllowanceTotal_r12(o,s,newValue);\n  }\n  function updateTransferOnInsertTransferWithFee_r3(address s,address r,uint f) private    {\n      address o = owner.p;\n      updateTotalInOnInsertTransfer_r28(o,f);\n      updateTotalOutOnInsertTransfer_r19(s,f);\n  }\n  function updateBalanceOfOnInsertTotalIssue_r6(address p,uint n) private    {\n      TotalIssueTuple memory toDelete = totalIssue[p];\n      if(toDelete._valid==true) {\n        updateBalanceOfOnDeleteTotalIssue_r6(p,toDelete.n);\n      }\n      TotalInTuple memory totalInTuple = totalIn[p];\n      uint i = totalInTuple.n;\n      TotalOutTuple memory totalOutTuple = totalOut[p];\n      uint o = totalOutTuple.n;\n      TotalRedeemTuple memory totalRedeemTuple = totalRedeem[p];\n      uint m = totalRedeemTuple.n;\n      uint s = ((n+i)-m)-o;\n      balanceOf[p] = BalanceOfTuple(s,true);\n  }\n  function updateTotalRedeemOnInsertRedeem_r15(address p,uint n) private    {\n      int delta1 = int(n);\n      updateBalanceOfOnIncrementTotalRedeem_r6(p,delta1);\n      totalRedeem[p].n += n;\n  }\n  function updateAllowanceTotalOnInsertIncreaseAllowance_r30(address o,address s,uint n) private    {\n      int delta0 = int(n);\n      updateAllowanceOnIncrementAllowanceTotal_r12(o,s,delta0);\n      allowanceTotal[o][s].m += n;\n  }\n  function updateBalanceOfOnDeleteTotalRedeem_r6(address p,uint m) private    {\n      TotalInTuple memory totalInTuple = totalIn[p];\n      uint i = totalInTuple.n;\n      TotalOutTuple memory totalOutTuple = totalOut[p];\n      uint o = totalOutTuple.n;\n      TotalIssueTuple memory totalIssueTuple = totalIssue[p];\n      uint n = totalIssueTuple.n;\n      uint s = ((n+i)-m)-o;\n      BalanceOfTuple memory balanceOfTuple = balanceOf[p];\n      if(s==balanceOfTuple.n) {\n        balanceOf[p] = BalanceOfTuple(0,false);\n      }\n  }\n  function updateIssueOnInsertRecv_issue_r11(address p,uint n) private   returns (bool) {\n      address s = owner.p;\n      if(s==msg.sender) {\n        if(p!=address(0)) {\n          updateTotalIssueOnInsertIssue_r23(p,n);\n          updateAllIssueOnInsertIssue_r27(n);\n          emit Issue(p,n);\n          return true;\n        }\n      }\n      return false;\n  }\n  function updateSpentTotalOnInsertTransferFrom_r21(address o,address s,uint n) private    {\n      int delta0 = int(n);\n      updateAllowanceOnIncrementSpentTotal_r12(o,s,delta0);\n      spentTotal[o][s].m += n;\n  }\n  function updateuintByint(uint x,int delta) private   returns (uint) {\n      int convertedX = int(x);\n      int value = convertedX+delta;\n      uint convertedValue = uint(value);\n      return convertedValue;\n  }\n  function updateTransferWithFeeOnInsertRecv_transfer_r7(address r,uint n) private   returns (bool) {\n      uint rt = rate.r;\n      uint mf = maxFee.m;\n      address s = msg.sender;\n      BalanceOfTuple memory balanceOfTuple = balanceOf[s];\n      uint m = balanceOfTuple.n;\n      IsBlackListedTuple memory isBlackListedTuple = isBlackListed[s];\n      if(false==isBlackListedTuple.b) {\n        if(n<=m) {\n          uint f = (rt*n)/10000 < mf ? (rt*n)/10000 : mf;\n          updateTransferOnInsertTransferWithFee_r3(s,r,f);\n          updateTransferOnInsertTransferWithFee_r17(s,r,f,n);\n          emit TransferWithFee(s,r,f,n);\n          return true;\n        }\n      }\n      return false;\n  }\n  function updateAllowanceOnDeleteAllowanceTotal_r12(address o,address s,uint m) private    {\n      SpentTotalTuple memory spentTotalTuple = spentTotal[o][s];\n      uint l = spentTotalTuple.m;\n      uint n = m-l;\n      AllowanceTuple memory allowanceTuple = allowance[o][s];\n      if(n==allowanceTuple.n) {\n        allowance[o][s] = AllowanceTuple(0,false);\n      }\n  }\n  function updateBalanceOfOnIncrementTotalRedeem_r6(address p,int m) private    {\n      int _delta = int(m);\n      uint newValue = updateuintByint(totalRedeem[p].n,_delta);\n      updateBalanceOfOnInsertTotalRedeem_r6(p,newValue);\n  }\n  function updateTransferFromWithFeeOnInsertRecv_transferFrom_r0(address o,address r,uint n) private   returns (bool) {\n      uint rt = rate.r;\n      uint mf = maxFee.m;\n      address s = msg.sender;\n      BalanceOfTuple memory balanceOfTuple = balanceOf[o];\n      uint m = balanceOfTuple.n;\n      IsBlackListedTuple memory isBlackListedTuple = isBlackListed[o];\n      if(false==isBlackListedTuple.b) {\n        AllowanceTuple memory allowanceTuple = allowance[o][s];\n        uint k = allowanceTuple.n;\n        if(m>=n && k>=n) {\n          uint f = (rt*n)/10000 < mf ? (rt*n)/10000 : mf;\n          updateTransferFromOnInsertTransferFromWithFee_r10(o,r,s,f);\n          updateTransferFromOnInsertTransferFromWithFee_r18(o,r,s,f,n);\n          emit TransferFromWithFee(o,r,s,f,n);\n          return true;\n        }\n      }\n      return false;\n  }\n  function updateBalanceOfOnIncrementTotalOut_r6(address p,int o) private    {\n      int _delta = int(o);\n      uint newValue = updateuintByint(totalOut[p].n,_delta);\n      updateBalanceOfOnInsertTotalOut_r6(p,newValue);\n  }\n  function updateRedeemOnInsertRecv_redeem_r25(address p,uint n) private   returns (bool) {\n      address s = owner.p;\n      if(s==msg.sender) {\n        BalanceOfTuple memory balanceOfTuple = balanceOf[p];\n        uint m = balanceOfTuple.n;\n        if(p!=address(0) && n<=m) {\n          updateTotalRedeemOnInsertRedeem_r15(p,n);\n          updateAllRedeemOnInsertRedeem_r13(n);\n          emit Redeem(p,n);\n          return true;\n        }\n      }\n      return false;\n  }\n  function updateAllRedeemOnInsertRedeem_r13(uint n) private    {\n      int delta0 = int(n);\n      updateTotalSupplyOnIncrementAllRedeem_r2(delta0);\n      allRedeem.n += n;\n  }\n  function updateAllowanceOnInsertAllowanceTotal_r12(address o,address s,uint m) private    {\n      AllowanceTotalTuple memory toDelete = allowanceTotal[o][s];\n      if(toDelete._valid==true) {\n        updateAllowanceOnDeleteAllowanceTotal_r12(o,s,toDelete.m);\n      }\n      SpentTotalTuple memory spentTotalTuple = spentTotal[o][s];\n      uint l = spentTotalTuple.m;\n      uint n = m-l;\n      allowance[o][s] = AllowanceTuple(n,true);\n  }\n  function updateTotalOutOnInsertTransfer_r19(address p,uint n) private    {\n      int delta0 = int(n);\n      updateBalanceOfOnIncrementTotalOut_r6(p,delta0);\n      totalOut[p].n += n;\n  }\n  function updateOwnerOnInsertConstructor_r24() private    {\n      address s = msg.sender;\n      owner = OwnerTuple(s,true);\n  }\n  function updateTotalSupplyOnIncrementAllIssue_r2(int m) private    {\n      int _delta = int(m);\n      uint newValue = updateuintByint(allIssue.n,_delta);\n      updateTotalSupplyOnInsertAllIssue_r2(newValue);\n  }\n  function updateAllowanceOnIncrementSpentTotal_r12(address o,address s,int l) private    {\n      int _delta = int(l);\n      uint newValue = updateuintByint(spentTotal[o][s].m,_delta);\n      updateAllowanceOnInsertSpentTotal_r12(o,s,newValue);\n  }\n  function updateBalanceOfOnInsertConstructor_r8(uint n) private    {\n      address s = msg.sender;\n      balanceOf[s] = BalanceOfTuple(n,true);\n  }\n  function updateTotalSupplyOnIncrementAllRedeem_r2(int b) private    {\n      int _delta = int(b);\n      uint newValue = updateuintByint(allRedeem.n,_delta);\n      updateTotalSupplyOnInsertAllRedeem_r2(newValue);\n  }\n  function updateAllIssueOnInsertIssue_r27(uint n) private    {\n      int delta0 = int(n);\n      updateTotalSupplyOnIncrementAllIssue_r2(delta0);\n      allIssue.n += n;\n  }\n  function updateTotalIssueOnInsertIssue_r23(address p,uint n) private    {\n      int delta2 = int(n);\n      updateBalanceOfOnIncrementTotalIssue_r6(p,delta2);\n      totalIssue[p].n += n;\n  }\n  function updateBalanceOfOnInsertTotalOut_r6(address p,uint o) private    {\n      TotalOutTuple memory toDelete = totalOut[p];\n      if(toDelete._valid==true) {\n        updateBalanceOfOnDeleteTotalOut_r6(p,toDelete.n);\n      }\n      TotalInTuple memory totalInTuple = totalIn[p];\n      uint i = totalInTuple.n;\n      TotalRedeemTuple memory totalRedeemTuple = totalRedeem[p];\n      uint m = totalRedeemTuple.n;\n      TotalIssueTuple memory totalIssueTuple = totalIssue[p];\n      uint n = totalIssueTuple.n;\n      uint s = ((n+i)-m)-o;\n      balanceOf[p] = BalanceOfTuple(s,true);\n  }\n  function updateBalanceOfOnInsertTotalIn_r6(address p,uint i) private    {\n      TotalInTuple memory toDelete = totalIn[p];\n      if(toDelete._valid==true) {\n        updateBalanceOfOnDeleteTotalIn_r6(p,toDelete.n);\n      }\n      TotalOutTuple memory totalOutTuple = totalOut[p];\n      uint o = totalOutTuple.n;\n      TotalRedeemTuple memory totalRedeemTuple = totalRedeem[p];\n      uint m = totalRedeemTuple.n;\n      TotalIssueTuple memory totalIssueTuple = totalIssue[p];\n      uint n = totalIssueTuple.n;\n      uint s = ((n+i)-m)-o;\n      balanceOf[p] = BalanceOfTuple(s,true);\n  }\n  function updateTotalSupplyOnInsertConstructor_r22(uint n) private    {\n      totalSupply = TotalSupplyTuple(n,true);\n  }\n  function updateTotalSupplyOnInsertAllRedeem_r2(uint b) private    {\n      uint m = allIssue.n;\n      uint n = m-b;\n      totalSupply = TotalSupplyTuple(n,true);\n  }\n}",
  "sourcePath": "/Users/ljy/Desktop/PENN/2023_summer/boon_dsc/smart-contracts/optimizations/full/contracts/tether.sol",
  "compiler": {
    "name": "solc",
    "version": "0.8.12+commit.f00d7308.Emscripten.clang"
  },
  "schemaVersion": "3.4.13",
  "updatedAt": "2023-07-24T05:57:56.486Z",
  "devdoc": {
    "kind": "dev",
    "methods": {},
    "version": 1
  },
  "userdoc": {
    "kind": "user",
    "methods": {},
    "version": 1
  }
}