{
  "contractName": "Theta",
  "abi": [
    {
      "inputs": [
        {
          "internalType": "uint256",
          "name": "t",
          "type": "uint256"
        }
      ],
      "stateMutability": "nonpayable",
      "type": "constructor"
    },
    {
      "anonymous": false,
      "inputs": [
        {
          "indexed": false,
          "internalType": "address",
          "name": "p",
          "type": "address"
        },
        {
          "indexed": false,
          "internalType": "uint256",
          "name": "amount",
          "type": "uint256"
        }
      ],
      "name": "Burn",
      "type": "event"
    },
    {
      "anonymous": false,
      "inputs": [
        {
          "indexed": false,
          "internalType": "address",
          "name": "p",
          "type": "address"
        },
        {
          "indexed": false,
          "internalType": "address",
          "name": "s",
          "type": "address"
        },
        {
          "indexed": false,
          "internalType": "uint256",
          "name": "n",
          "type": "uint256"
        }
      ],
      "name": "IncreaseAllowance",
      "type": "event"
    },
    {
      "anonymous": false,
      "inputs": [
        {
          "indexed": false,
          "internalType": "address",
          "name": "p",
          "type": "address"
        },
        {
          "indexed": false,
          "internalType": "uint256",
          "name": "amount",
          "type": "uint256"
        }
      ],
      "name": "Mint",
      "type": "event"
    },
    {
      "anonymous": false,
      "inputs": [
        {
          "indexed": false,
          "internalType": "address",
          "name": "p",
          "type": "address"
        },
        {
          "indexed": false,
          "internalType": "bool",
          "name": "b",
          "type": "bool"
        }
      ],
      "name": "Precirculated",
      "type": "event"
    },
    {
      "anonymous": false,
      "inputs": [
        {
          "indexed": false,
          "internalType": "address",
          "name": "from",
          "type": "address"
        },
        {
          "indexed": false,
          "internalType": "address",
          "name": "to",
          "type": "address"
        },
        {
          "indexed": false,
          "internalType": "uint256",
          "name": "amount",
          "type": "uint256"
        }
      ],
      "name": "Transfer",
      "type": "event"
    },
    {
      "anonymous": false,
      "inputs": [
        {
          "indexed": false,
          "internalType": "address",
          "name": "from",
          "type": "address"
        },
        {
          "indexed": false,
          "internalType": "address",
          "name": "to",
          "type": "address"
        },
        {
          "indexed": false,
          "internalType": "address",
          "name": "spender",
          "type": "address"
        },
        {
          "indexed": false,
          "internalType": "uint256",
          "name": "amount",
          "type": "uint256"
        }
      ],
      "name": "TransferFrom",
      "type": "event"
    },
    {
      "inputs": [
        {
          "internalType": "address",
          "name": "to",
          "type": "address"
        },
        {
          "internalType": "uint256",
          "name": "amount",
          "type": "uint256"
        }
      ],
      "name": "transfer",
      "outputs": [],
      "stateMutability": "nonpayable",
      "type": "function"
    },
    {
      "inputs": [
        {
          "internalType": "address",
          "name": "p",
          "type": "address"
        }
      ],
      "name": "disallowPrecirculation",
      "outputs": [],
      "stateMutability": "nonpayable",
      "type": "function"
    },
    {
      "inputs": [
        {
          "internalType": "address",
          "name": "s",
          "type": "address"
        },
        {
          "internalType": "uint256",
          "name": "n",
          "type": "uint256"
        }
      ],
      "name": "approve",
      "outputs": [],
      "stateMutability": "nonpayable",
      "type": "function"
    },
    {
      "inputs": [
        {
          "internalType": "address",
          "name": "p",
          "type": "address"
        }
      ],
      "name": "allowPrecirculation",
      "outputs": [],
      "stateMutability": "nonpayable",
      "type": "function"
    },
    {
      "inputs": [
        {
          "internalType": "address",
          "name": "p",
          "type": "address"
        }
      ],
      "name": "getBalanceOf",
      "outputs": [
        {
          "internalType": "uint256",
          "name": "",
          "type": "uint256"
        }
      ],
      "stateMutability": "view",
      "type": "function"
    },
    {
      "inputs": [
        {
          "internalType": "address",
          "name": "from",
          "type": "address"
        },
        {
          "internalType": "address",
          "name": "to",
          "type": "address"
        },
        {
          "internalType": "uint256",
          "name": "amount",
          "type": "uint256"
        }
      ],
      "name": "transferFrom",
      "outputs": [],
      "stateMutability": "nonpayable",
      "type": "function"
    },
    {
      "inputs": [],
      "name": "getTotalSupply",
      "outputs": [
        {
          "internalType": "uint256",
          "name": "",
          "type": "uint256"
        }
      ],
      "stateMutability": "view",
      "type": "function"
    },
    {
      "inputs": [
        {
          "internalType": "address",
          "name": "p",
          "type": "address"
        },
        {
          "internalType": "uint256",
          "name": "amount",
          "type": "uint256"
        }
      ],
      "name": "burn",
      "outputs": [],
      "stateMutability": "nonpayable",
      "type": "function"
    },
    {
      "inputs": [
        {
          "internalType": "address",
          "name": "p",
          "type": "address"
        },
        {
          "internalType": "address",
          "name": "s",
          "type": "address"
        }
      ],
      "name": "getAllowance",
      "outputs": [
        {
          "internalType": "uint256",
          "name": "",
          "type": "uint256"
        }
      ],
      "stateMutability": "view",
      "type": "function"
    },
    {
      "inputs": [
        {
          "internalType": "address",
          "name": "p",
          "type": "address"
        },
        {
          "internalType": "uint256",
          "name": "amount",
          "type": "uint256"
        }
      ],
      "name": "mint",
      "outputs": [],
      "stateMutability": "nonpayable",
      "type": "function"
    }
  ],
  "bytecode": "0x60806040523480156200001157600080fd5b5060405162001f2c38038062001f2c8339818101604052810190620000379190620001f7565b620000476200007f60201b60201c565b6200005881620000c960201b60201c565b620000686200011360201b60201c565b62000078620001b560201b60201c565b5062000229565b6040518060400160405280600081526020016001151581525060086000820151816000015560208201518160010160006101000a81548160ff021916908315150217905550905050565b60405180604001604052808281526020016001151581525060026000820151816000015560208201518160010160006101000a81548160ff02191690831515021790555090505050565b600033905060405180604001604052808273ffffffffffffffffffffffffffffffffffffffff16815260200160011515815250600560008201518160000160006101000a81548173ffffffffffffffffffffffffffffffffffffffff021916908373ffffffffffffffffffffffffffffffffffffffff16021790555060208201518160000160146101000a81548160ff02191690831515021790555090505050565b565b600080fd5b6000819050919050565b620001d181620001bc565b8114620001dd57600080fd5b50565b600081519050620001f181620001c6565b92915050565b60006020828403121562000210576200020f620001b7565b5b60006200022084828501620001e0565b91505092915050565b611cf380620002396000396000f3fe608060405234801561001057600080fd5b506004361061009e5760003560e01c80639b96eece116100665780639b96eece146101435780639dc29fac14610173578063a9059cbb1461018f578063c4e41b22146101ab578063cc481912146101c95761009e565b8063095ea7b3146100a35780630af4187d146100bf57806323b872dd146100ef57806340c10f191461010b5780638ef16d0214610127575b600080fd5b6100bd60048036038101906100b8919061187e565b6101e5565b005b6100d960048036038101906100d491906118be565b610240565b6040516100e6919061190d565b60405180910390f35b61010960048036038101906101049190611928565b610305565b005b6101256004803603810190610120919061187e565b610362565b005b610141600480360381019061013c919061197b565b6103bd565b005b61015d6004803603810190610158919061197b565b610416565b60405161016a919061190d565b60405180910390f35b61018d6004803603810190610188919061187e565b61049d565b005b6101a960048036038101906101a4919061187e565b6104f8565b005b6101b3610553565b6040516101c0919061190d565b60405180910390f35b6101e360048036038101906101de919061197b565b610565565b005b60006101f183836105be565b905060001515811515141561023b576040517f08c379a000000000000000000000000000000000000000000000000000000000815260040161023290611a05565b60405180910390fd5b505050565b600080600b60008573ffffffffffffffffffffffffffffffffffffffff1673ffffffffffffffffffffffffffffffffffffffff16815260200190815260200160002060008473ffffffffffffffffffffffffffffffffffffffff1673ffffffffffffffffffffffffffffffffffffffff168152602001908152602001600020604051806040016040529081600082015481526020016001820160009054906101000a900460ff1615151515815250509050600081600001519050809250505092915050565b60006103128484846106e1565b905060001515811515141561035c576040517f08c379a000000000000000000000000000000000000000000000000000000000815260040161035390611a05565b60405180910390fd5b50505050565b600061036e83836108b5565b90506000151581151514156103b8576040517f08c379a00000000000000000000000000000000000000000000000000000000081526004016103af90611a05565b60405180910390fd5b505050565b60006103c8826109ab565b9050600015158115151415610412576040517f08c379a000000000000000000000000000000000000000000000000000000000815260040161040990611a05565b60405180910390fd5b5050565b600080600a60008473ffffffffffffffffffffffffffffffffffffffff1673ffffffffffffffffffffffffffffffffffffffff168152602001908152602001600020604051806040016040529081600082015481526020016001820160009054906101000a900460ff16151515158152505090506000816000015190508092505050919050565b60006104a98383610af6565b90506000151581151514156104f3576040517f08c379a00000000000000000000000000000000000000000000000000000000081526004016104ea90611a05565b60405180910390fd5b505050565b60006105048383610c7a565b905060001515811515141561054e576040517f08c379a000000000000000000000000000000000000000000000000000000000815260040161054590611a05565b60405180910390fd5b505050565b60008060086000015490508091505090565b600061057082610d80565b90506000151581151514156105ba576040517f08c379a00000000000000000000000000000000000000000000000000000000081526004016105b190611a05565b60405180910390fd5b5050565b6000803390506000600b60008373ffffffffffffffffffffffffffffffffffffffff1673ffffffffffffffffffffffffffffffffffffffff16815260200190815260200160002060008673ffffffffffffffffffffffffffffffffffffffff1673ffffffffffffffffffffffffffffffffffffffff168152602001908152602001600020604051806040016040529081600082015481526020016001820160009054906101000a900460ff16151515158152505090506000816000015190506000818661068b9190611a54565b9050610698848883610ecb565b7f01722f0e92ffd761d4a842cffdd36fe3adb6091e41732a4e714250176b7d8d228488836040516106cb93929190611a97565b60405180910390a1600194505050505092915050565b6000803390506000600a60008773ffffffffffffffffffffffffffffffffffffffff1673ffffffffffffffffffffffffffffffffffffffff168152602001908152602001600020604051806040016040529081600082015481526020016001820160009054906101000a900460ff16151515158152505090506000816000015190506000600b60008973ffffffffffffffffffffffffffffffffffffffff1673ffffffffffffffffffffffffffffffffffffffff16815260200190815260200160002060008573ffffffffffffffffffffffffffffffffffffffff1673ffffffffffffffffffffffffffffffffffffffff168152602001908152602001600020604051806040016040529081600082015481526020016001820160009054906101000a900460ff161515151581525050905060008160000151905086831015801561082c5750868110155b801561083e575061083d8989610ee1565b5b156108a45761084e898689611049565b61085989898961105f565b7f5f7542858008eeb041631f30e6109ae94b83a58e9a58261dd2c42c508850f9398989878a60405161088e9493929190611ace565b60405180910390a16001955050505050506108ae565b6000955050505050505b9392505050565b600080600560000160009054906101000a900473ffffffffffffffffffffffffffffffffffffffff1690503373ffffffffffffffffffffffffffffffffffffffff168173ffffffffffffffffffffffffffffffffffffffff16141561099f57600073ffffffffffffffffffffffffffffffffffffffff168473ffffffffffffffffffffffffffffffffffffffff161461099e5761095284846110b3565b61095b83611120565b7f0f6798a560793a54c3bcfe86a93cde1e73087d944c0ea20544137d4121396885848460405161098c929190611b13565b60405180910390a160019150506109a5565b5b60009150505b92915050565b600080600560000160009054906101000a900473ffffffffffffffffffffffffffffffffffffffff1690503373ffffffffffffffffffffffffffffffffffffffff168173ffffffffffffffffffffffffffffffffffffffff161415610aeb57604051806040016040528060011515815260200160011515815250600760008573ffffffffffffffffffffffffffffffffffffffff1673ffffffffffffffffffffffffffffffffffffffff16815260200190815260200160002060008201518160000160006101000a81548160ff02191690831515021790555060208201518160000160016101000a81548160ff0219169083151502179055509050507f36e995283d4afed494698eef4affc534306de2b88866118541483a58a6d52360836001604051610ad9929190611b57565b60405180910390a16001915050610af1565b60009150505b919050565b600080600560000160009054906101000a900473ffffffffffffffffffffffffffffffffffffffff1690503373ffffffffffffffffffffffffffffffffffffffff168173ffffffffffffffffffffffffffffffffffffffff161415610c6e576000600a60008673ffffffffffffffffffffffffffffffffffffffff1673ffffffffffffffffffffffffffffffffffffffff168152602001908152602001600020604051806040016040529081600082015481526020016001820160009054906101000a900460ff1615151515815250509050600081600001519050600073ffffffffffffffffffffffffffffffffffffffff168673ffffffffffffffffffffffffffffffffffffffff1614158015610c0e5750808511155b15610c6b57610c1d8686611132565b610c268561119f565b7fcc16f5dbb4873280815c1ee09dbd06736cffcc184412cf7a71a0fdb75d397ca58686604051610c57929190611b13565b60405180910390a160019350505050610c74565b50505b60009150505b92915050565b6000803390506000600a60008373ffffffffffffffffffffffffffffffffffffffff1673ffffffffffffffffffffffffffffffffffffffff168152602001908152602001600020604051806040016040529081600082015481526020016001820160009054906101000a900460ff1615151515815250509050600081600001519050808511158015610d125750610d118387610ee1565b5b15610d7257610d2183866111b1565b610d2b868661121e565b7fddf252ad1be2c89b69c2b068fc378daa952ba7f163c4a11628f55a4df523b3ef838787604051610d5e93929190611a97565b60405180910390a160019350505050610d7a565b600093505050505b92915050565b600080600560000160009054906101000a900473ffffffffffffffffffffffffffffffffffffffff1690503373ffffffffffffffffffffffffffffffffffffffff168173ffffffffffffffffffffffffffffffffffffffff161415610ec057604051806040016040528060001515815260200160011515815250600760008573ffffffffffffffffffffffffffffffffffffffff1673ffffffffffffffffffffffffffffffffffffffff16815260200190815260200160002060008201518160000160006101000a81548160ff02191690831515021790555060208201518160000160016101000a81548160ff0219169083151502179055509050507f36e995283d4afed494698eef4affc534306de2b88866118541483a58a6d52360836000604051610eae929190611b57565b60405180910390a16001915050610ec6565b60009150505b919050565b6000819050610edb84848361128a565b50505050565b600080600760008473ffffffffffffffffffffffffffffffffffffffff1673ffffffffffffffffffffffffffffffffffffffff1681526020019081526020016000206040518060400160405290816000820160009054906101000a900460ff161515151581526020016000820160019054906101000a900460ff161515151581525050905080600001511515600115151415611019576000600760008673ffffffffffffffffffffffffffffffffffffffff1673ffffffffffffffffffffffffffffffffffffffff1681526020019081526020016000206040518060400160405290816000820160009054906101000a900460ff161515151581526020016000820160019054906101000a900460ff16151515158152505090508060000151151560011515141561101757600192505050611043565b505b60006002600001549050600042905081811061103b5760019350505050611043565b600093505050505b92915050565b60008190506110598484836113a7565b50505050565b61106983826111b1565b611073828261121e565b7fddf252ad1be2c89b69c2b068fc378daa952ba7f163c4a11628f55a4df523b3ef8383836040516110a693929190611a97565b60405180910390a1505050565b60008190506110c283826114cd565b81600660008573ffffffffffffffffffffffffffffffffffffffff1673ffffffffffffffffffffffffffffffffffffffff16815260200190815260200160002060000160008282546111149190611b80565b92505081905550505050565b600081905061112e8161156f565b5050565b60008190506111418382611596565b81600460008573ffffffffffffffffffffffffffffffffffffffff1673ffffffffffffffffffffffffffffffffffffffff16815260200190815260200160002060000160008282546111939190611b80565b92505081905550505050565b60008190506111ad81611641565b5050565b60008190506111c08382611671565b81600160008573ffffffffffffffffffffffffffffffffffffffff1673ffffffffffffffffffffffffffffffffffffffff16815260200190815260200160002060000160008282546112129190611b80565b92505081905550505050565b600081905061122d838261171c565b816000808573ffffffffffffffffffffffffffffffffffffffff1673ffffffffffffffffffffffffffffffffffffffff168152602001908152602001600020600001600082825461127e9190611b80565b92505081905550505050565b6000819050600061131a600b60008773ffffffffffffffffffffffffffffffffffffffff1673ffffffffffffffffffffffffffffffffffffffff16815260200190815260200160002060008673ffffffffffffffffffffffffffffffffffffffff1673ffffffffffffffffffffffffffffffffffffffff16815260200190815260200160002060000154836117be565b905080600b60008773ffffffffffffffffffffffffffffffffffffffff1673ffffffffffffffffffffffffffffffffffffffff16815260200190815260200160002060008673ffffffffffffffffffffffffffffffffffffffff1673ffffffffffffffffffffffffffffffffffffffff168152602001908152602001600020600001819055505050505050565b6000816113b390611be0565b90506000611440600b60008773ffffffffffffffffffffffffffffffffffffffff1673ffffffffffffffffffffffffffffffffffffffff16815260200190815260200160002060008673ffffffffffffffffffffffffffffffffffffffff1673ffffffffffffffffffffffffffffffffffffffff16815260200190815260200160002060000154836117be565b905080600b60008773ffffffffffffffffffffffffffffffffffffffff1673ffffffffffffffffffffffffffffffffffffffff16815260200190815260200160002060008673ffffffffffffffffffffffffffffffffffffffff1673ffffffffffffffffffffffffffffffffffffffff168152602001908152602001600020600001819055505050505050565b60008190506000611520600a60008673ffffffffffffffffffffffffffffffffffffffff1673ffffffffffffffffffffffffffffffffffffffff16815260200190815260200160002060000154836117be565b905080600a60008673ffffffffffffffffffffffffffffffffffffffff1673ffffffffffffffffffffffffffffffffffffffff1681526020019081526020016000206000018190555050505050565b60008190506000611585600860000154836117be565b905080600860000181905550505050565b6000816115a290611be0565b905060006115f2600a60008673ffffffffffffffffffffffffffffffffffffffff1673ffffffffffffffffffffffffffffffffffffffff16815260200190815260200160002060000154836117be565b905080600a60008673ffffffffffffffffffffffffffffffffffffffff1673ffffffffffffffffffffffffffffffffffffffff1681526020019081526020016000206000018190555050505050565b60008161164d90611be0565b90506000611660600860000154836117be565b905080600860000181905550505050565b60008161167d90611be0565b905060006116cd600a60008673ffffffffffffffffffffffffffffffffffffffff1673ffffffffffffffffffffffffffffffffffffffff16815260200190815260200160002060000154836117be565b905080600a60008673ffffffffffffffffffffffffffffffffffffffff1673ffffffffffffffffffffffffffffffffffffffff1681526020019081526020016000206000018190555050505050565b6000819050600061176f600a60008673ffffffffffffffffffffffffffffffffffffffff1673ffffffffffffffffffffffffffffffffffffffff16815260200190815260200160002060000154836117be565b905080600a60008673ffffffffffffffffffffffffffffffffffffffff1673ffffffffffffffffffffffffffffffffffffffff1681526020019081526020016000206000018190555050505050565b600080839050600083826117d29190611c29565b9050600081905080935050505092915050565b600080fd5b600073ffffffffffffffffffffffffffffffffffffffff82169050919050565b6000611815826117ea565b9050919050565b6118258161180a565b811461183057600080fd5b50565b6000813590506118428161181c565b92915050565b6000819050919050565b61185b81611848565b811461186657600080fd5b50565b60008135905061187881611852565b92915050565b60008060408385031215611895576118946117e5565b5b60006118a385828601611833565b92505060206118b485828601611869565b9150509250929050565b600080604083850312156118d5576118d46117e5565b5b60006118e385828601611833565b92505060206118f485828601611833565b9150509250929050565b61190781611848565b82525050565b600060208201905061192260008301846118fe565b92915050565b600080600060608486031215611941576119406117e5565b5b600061194f86828701611833565b935050602061196086828701611833565b925050604061197186828701611869565b9150509250925092565b600060208284031215611991576119906117e5565b5b600061199f84828501611833565b91505092915050565b600082825260208201905092915050565b7f52756c6520636f6e646974696f6e206661696c65640000000000000000000000600082015250565b60006119ef6015836119a8565b91506119fa826119b9565b602082019050919050565b60006020820190508181036000830152611a1e816119e2565b9050919050565b7f4e487b7100000000000000000000000000000000000000000000000000000000600052601160045260246000fd5b6000611a5f82611848565b9150611a6a83611848565b925082821015611a7d57611a7c611a25565b5b828203905092915050565b611a918161180a565b82525050565b6000606082019050611aac6000830186611a88565b611ab96020830185611a88565b611ac660408301846118fe565b949350505050565b6000608082019050611ae36000830187611a88565b611af06020830186611a88565b611afd6040830185611a88565b611b0a60608301846118fe565b95945050505050565b6000604082019050611b286000830185611a88565b611b3560208301846118fe565b9392505050565b60008115159050919050565b611b5181611b3c565b82525050565b6000604082019050611b6c6000830185611a88565b611b796020830184611b48565b9392505050565b6000611b8b82611848565b9150611b9683611848565b9250827fffffffffffffffffffffffffffffffffffffffffffffffffffffffffffffffff03821115611bcb57611bca611a25565b5b828201905092915050565b6000819050919050565b6000611beb82611bd6565b91507f8000000000000000000000000000000000000000000000000000000000000000821415611c1e57611c1d611a25565b5b816000039050919050565b6000611c3482611bd6565b9150611c3f83611bd6565b9250817f7fffffffffffffffffffffffffffffffffffffffffffffffffffffffffffffff03831360008312151615611c7a57611c79611a25565b5b817f8000000000000000000000000000000000000000000000000000000000000000038312600083121615611cb257611cb1611a25565b5b82820190509291505056fea2646970667358221220c5fb192e51b8954e0a7bb6f9819ca70b463e86873a620917cd3b9fc8251deefb64736f6c634300080c0033",
  "immutableReferences": {},
  "source": "contract Theta {\n  struct TotalInTuple {\n    uint n;\n    bool _valid;\n  }\n  struct TotalOutTuple {\n    uint n;\n    bool _valid;\n  }\n  struct UnlockTimeTuple {\n    uint t;\n    bool _valid;\n  }\n  struct OwnerTuple {\n    address p;\n    bool _valid;\n  }\n  struct TotalMintTuple {\n    uint n;\n    bool _valid;\n  }\n  struct TotalSupplyTuple {\n    uint n;\n    bool _valid;\n  }\n  struct AllowanceTuple {\n    uint n;\n    bool _valid;\n  }\n  struct TotalBurnTuple {\n    uint n;\n    bool _valid;\n  }\n  struct PrecirculatedTuple {\n    bool b;\n    bool _valid;\n  }\n  struct BalanceOfTuple {\n    uint n;\n    bool _valid;\n  }\n  mapping(address=>TotalInTuple) totalIn;\n  mapping(address=>TotalOutTuple) totalOut;\n  UnlockTimeTuple unlockTime;\n  mapping(address=>TotalBurnTuple) totalBurn;\n  OwnerTuple owner;\n  mapping(address=>TotalMintTuple) totalMint;\n  mapping(address=>PrecirculatedTuple) precirculated;\n  TotalSupplyTuple totalSupply;\n  mapping(address=>BalanceOfTuple) balanceOf;\n  mapping(address=>mapping(address=>AllowanceTuple)) allowance;\n  event TransferFrom(address from,address to,address spender,uint amount);\n  event Burn(address p,uint amount);\n  event Mint(address p,uint amount);\n  event Precirculated(address p,bool b);\n  event IncreaseAllowance(address p,address s,uint n);\n  event Transfer(address from,address to,uint amount);\n  constructor(uint t) public {\n    updateTotalSupplyOnInsertConstructor_r3();\n    updateUnlockTimeOnInsertConstructor_r7(t);\n    updateOwnerOnInsertConstructor_r2();\n    updateTotalBalancesOnInsertConstructor_r20();\n  }\n  function transfer(address to,uint amount) public    {\n      bool r25 = updateTransferOnInsertRecv_transfer_r25(to,amount);\n      if(r25==false) {\n        revert(\"Rule condition failed\");\n      }\n  }\n  function disallowPrecirculation(address p) public    {\n      bool r26 = updatePrecirculatedOnInsertRecv_disallowPrecirculation_r26(p);\n      if(r26==false) {\n        revert(\"Rule condition failed\");\n      }\n  }\n  function approve(address s,uint n) public    {\n      bool r24 = updateIncreaseAllowanceOnInsertRecv_approve_r24(s,n);\n      if(r24==false) {\n        revert(\"Rule condition failed\");\n      }\n  }\n  function allowPrecirculation(address p) public    {\n      bool r19 = updatePrecirculatedOnInsertRecv_allowPrecirculation_r19(p);\n      if(r19==false) {\n        revert(\"Rule condition failed\");\n      }\n  }\n  function getBalanceOf(address p) public view  returns (uint) {\n      BalanceOfTuple memory balanceOfTuple = balanceOf[p];\n      uint n = balanceOfTuple.n;\n      return n;\n  }\n  function transferFrom(address from,address to,uint amount) public    {\n      bool r10 = updateTransferFromOnInsertRecv_transferFrom_r10(from,to,amount);\n      if(r10==false) {\n        revert(\"Rule condition failed\");\n      }\n  }\n  function getTotalSupply() public view  returns (uint) {\n      uint n = totalSupply.n;\n      return n;\n  }\n  function burn(address p,uint amount) public    {\n      bool r8 = updateBurnOnInsertRecv_burn_r8(p,amount);\n      if(r8==false) {\n        revert(\"Rule condition failed\");\n      }\n  }\n  function getAllowance(address p,address s) public view  returns (uint) {\n      AllowanceTuple memory allowanceTuple = allowance[p][s];\n      uint n = allowanceTuple.n;\n      return n;\n  }\n  function mint(address p,uint amount) public    {\n      bool r22 = updateMintOnInsertRecv_mint_r22(p,amount);\n      if(r22==false) {\n        revert(\"Rule condition failed\");\n      }\n  }\n  function updateSpentTotalOnInsertTransferFrom_r11(address o,address s,uint n) private    {\n      int delta0 = int(n);\n      updateAllowanceOnIncrementSpentTotal_r21(o,s,delta0);\n  }\n  function updateOwnerOnInsertConstructor_r2() private    {\n      address s = msg.sender;\n      owner = OwnerTuple(s,true);\n  }\n  function updateTotalSupplyOnIncrementAllBurn_r16(int b) private    {\n      int _delta = int(-b);\n      uint newValue = updateuintByint(totalSupply.n,_delta);\n      totalSupply.n = newValue;\n  }\n  function updateUnlockTimeOnInsertConstructor_r7(uint t) private    {\n      unlockTime = UnlockTimeTuple(t,true);\n  }\n  function updateMintOnInsertRecv_mint_r22(address p,uint n) private   returns (bool) {\n      address s = owner.p;\n      if(s==msg.sender) {\n        if(p!=address(0)) {\n          updateTotalMintOnInsertMint_r15(p,n);\n          updateAllMintOnInsertMint_r4(n);\n          emit Mint(p,n);\n          return true;\n        }\n      }\n      return false;\n  }\n  function updateTotalSupplyOnIncrementAllMint_r16(int m) private    {\n      int _delta = int(m);\n      uint newValue = updateuintByint(totalSupply.n,_delta);\n      totalSupply.n = newValue;\n  }\n  function updateAllBurnOnInsertBurn_r23(uint n) private    {\n      int delta0 = int(n);\n      updateTotalSupplyOnIncrementAllBurn_r16(delta0);\n  }\n  function updateTransferFromOnInsertRecv_transferFrom_r10(address o,address r,uint n) private   returns (bool) {\n      address s = msg.sender;\n      BalanceOfTuple memory balanceOfTuple = balanceOf[o];\n      uint m = balanceOfTuple.n;\n      AllowanceTuple memory allowanceTuple = allowance[o][s];\n      uint k = allowanceTuple.n;\n      if(m>=n && k>=n && canTransfer(o,r)) {\n        updateSpentTotalOnInsertTransferFrom_r11(o,s,n);\n        updateTransferOnInsertTransferFrom_r0(o,r,n);\n        emit TransferFrom(o,r,s,n);\n        return true;\n      }\n      return false;\n  }\n  function updateAllowanceOnIncrementAllowanceTotal_r21(address o,address s,int m) private    {\n      int _delta = int(m);\n      uint newValue = updateuintByint(allowance[o][s].n,_delta);\n      allowance[o][s].n = newValue;\n  }\n  function updateAllowanceOnIncrementSpentTotal_r21(address o,address s,int l) private    {\n      int _delta = int(-l);\n      uint newValue = updateuintByint(allowance[o][s].n,_delta);\n      allowance[o][s].n = newValue;\n  }\n  function updateTotalOutOnInsertTransfer_r17(address p,uint n) private    {\n      int delta0 = int(n);\n      updateBalanceOfOnIncrementTotalOut_r9(p,delta0);\n      totalOut[p].n += n;\n  }\n  function updateuintByint(uint x,int delta) private   returns (uint) {\n      int convertedX = int(x);\n      int value = convertedX+delta;\n      uint convertedValue = uint(value);\n      return convertedValue;\n  }\n  function updateAllMintOnInsertMint_r4(uint n) private    {\n      int delta0 = int(n);\n      updateTotalSupplyOnIncrementAllMint_r16(delta0);\n  }\n  function updateBalanceOfOnIncrementTotalOut_r9(address p,int o) private    {\n      int _delta = int(-o);\n      uint newValue = updateuintByint(balanceOf[p].n,_delta);\n      balanceOf[p].n = newValue;\n  }\n  function updateTotalMintOnInsertMint_r15(address p,uint n) private    {\n      int delta0 = int(n);\n      updateBalanceOfOnIncrementTotalMint_r9(p,delta0);\n      totalMint[p].n += n;\n  }\n  function updateBalanceOfOnIncrementTotalIn_r9(address p,int i) private    {\n      int _delta = int(i);\n      uint newValue = updateuintByint(balanceOf[p].n,_delta);\n      balanceOf[p].n = newValue;\n  }\n  function updateIncreaseAllowanceOnInsertRecv_approve_r24(address s,uint n) private   returns (bool) {\n      address o = msg.sender;\n      AllowanceTuple memory allowanceTuple = allowance[o][s];\n      uint m = allowanceTuple.n;\n      uint d = n-m;\n      updateAllowanceTotalOnInsertIncreaseAllowance_r13(o,s,d);\n      emit IncreaseAllowance(o,s,d);\n      return true;\n      return false;\n  }\n  function updatePrecirculatedOnInsertRecv_disallowPrecirculation_r26(address p) private   returns (bool) {\n      address s = owner.p;\n      if(s==msg.sender) {\n        precirculated[p] = PrecirculatedTuple(false,true);\n        emit Precirculated(p,false);\n        return true;\n      }\n      return false;\n  }\n  function updateBalanceOfOnIncrementTotalBurn_r9(address p,int m) private    {\n      int _delta = int(-m);\n      uint newValue = updateuintByint(balanceOf[p].n,_delta);\n      balanceOf[p].n = newValue;\n  }\n  function updatePrecirculatedOnInsertRecv_allowPrecirculation_r19(address p) private   returns (bool) {\n      address s = owner.p;\n      if(s==msg.sender) {\n        precirculated[p] = PrecirculatedTuple(true,true);\n        emit Precirculated(p,true);\n        return true;\n      }\n      return false;\n  }\n  function canTransfer(address p,address q) private view  returns (bool) {\n      PrecirculatedTuple memory precirculatedTuple = precirculated[q];\n      if(true==precirculatedTuple.b) {\n        PrecirculatedTuple memory precirculatedTuple = precirculated[p];\n        if(true==precirculatedTuple.b) {\n          return true;\n        }\n      }\n      uint ut = unlockTime.t;\n      uint t = block.timestamp;\n      if(t>=ut) {\n        return true;\n      }\n      return false;\n  }\n  function updateTotalBalancesOnInsertConstructor_r20() private    {\n      // Empty()\n  }\n  function updateTotalSupplyOnInsertConstructor_r3() private    {\n      totalSupply = TotalSupplyTuple(0,true);\n  }\n  function updateTransferOnInsertTransferFrom_r0(address o,address r,uint n) private    {\n      updateTotalOutOnInsertTransfer_r17(o,n);\n      updateTotalInOnInsertTransfer_r12(r,n);\n      emit Transfer(o,r,n);\n  }\n  function updateTransferOnInsertRecv_transfer_r25(address r,uint n) private   returns (bool) {\n      address s = msg.sender;\n      BalanceOfTuple memory balanceOfTuple = balanceOf[s];\n      uint m = balanceOfTuple.n;\n      if(n<=m && canTransfer(s,r)) {\n        updateTotalOutOnInsertTransfer_r17(s,n);\n        updateTotalInOnInsertTransfer_r12(r,n);\n        emit Transfer(s,r,n);\n        return true;\n      }\n      return false;\n  }\n  function updateBurnOnInsertRecv_burn_r8(address p,uint n) private   returns (bool) {\n      address s = owner.p;\n      if(s==msg.sender) {\n        BalanceOfTuple memory balanceOfTuple = balanceOf[p];\n        uint m = balanceOfTuple.n;\n        if(p!=address(0) && n<=m) {\n          updateTotalBurnOnInsertBurn_r14(p,n);\n          updateAllBurnOnInsertBurn_r23(n);\n          emit Burn(p,n);\n          return true;\n        }\n      }\n      return false;\n  }\n  function updateTotalBurnOnInsertBurn_r14(address p,uint n) private    {\n      int delta0 = int(n);\n      updateBalanceOfOnIncrementTotalBurn_r9(p,delta0);\n      totalBurn[p].n += n;\n  }\n  function updateBalanceOfOnIncrementTotalMint_r9(address p,int n) private    {\n      int _delta = int(n);\n      uint newValue = updateuintByint(balanceOf[p].n,_delta);\n      balanceOf[p].n = newValue;\n  }\n  function updateAllowanceTotalOnInsertIncreaseAllowance_r13(address o,address s,uint n) private    {\n      int delta0 = int(n);\n      updateAllowanceOnIncrementAllowanceTotal_r21(o,s,delta0);\n  }\n  function updateTotalInOnInsertTransfer_r12(address p,uint n) private    {\n      int delta0 = int(n);\n      updateBalanceOfOnIncrementTotalIn_r9(p,delta0);\n      totalIn[p].n += n;\n  }\n}",
  "sourcePath": "/Users/ljy/Desktop/PENN/2023_summer/boon_dsc/smart-contracts/optimizations/full/contracts/theta.sol",
  "compiler": {
    "name": "solc",
    "version": "0.8.12+commit.f00d7308.Emscripten.clang"
  },
  "schemaVersion": "3.4.13",
  "updatedAt": "2023-07-25T15:37:02.458Z",
  "devdoc": {
    "kind": "dev",
    "methods": {},
    "version": 1
  },
  "userdoc": {
    "kind": "user",
    "methods": {},
    "version": 1
  }
}