{
  "contractName": "Wbtc",
  "abi": [
    {
      "inputs": [],
      "stateMutability": "nonpayable",
      "type": "constructor"
    },
    {
      "anonymous": false,
      "inputs": [
        {
          "indexed": false,
          "internalType": "address",
          "name": "p",
          "type": "address"
        },
        {
          "indexed": false,
          "internalType": "uint256",
          "name": "amount",
          "type": "uint256"
        }
      ],
      "name": "Burn",
      "type": "event"
    },
    {
      "anonymous": false,
      "inputs": [
        {
          "indexed": false,
          "internalType": "address",
          "name": "p",
          "type": "address"
        }
      ],
      "name": "ClaimOwnership",
      "type": "event"
    },
    {
      "anonymous": false,
      "inputs": [
        {
          "indexed": false,
          "internalType": "address",
          "name": "p",
          "type": "address"
        },
        {
          "indexed": false,
          "internalType": "address",
          "name": "s",
          "type": "address"
        },
        {
          "indexed": false,
          "internalType": "uint256",
          "name": "n",
          "type": "uint256"
        }
      ],
      "name": "DecreaseAllowance",
      "type": "event"
    },
    {
      "anonymous": false,
      "inputs": [
        {
          "indexed": false,
          "internalType": "address",
          "name": "p",
          "type": "address"
        },
        {
          "indexed": false,
          "internalType": "address",
          "name": "s",
          "type": "address"
        },
        {
          "indexed": false,
          "internalType": "uint256",
          "name": "n",
          "type": "uint256"
        }
      ],
      "name": "IncreaseAllowance",
      "type": "event"
    },
    {
      "anonymous": false,
      "inputs": [
        {
          "indexed": false,
          "internalType": "address",
          "name": "p",
          "type": "address"
        },
        {
          "indexed": false,
          "internalType": "uint256",
          "name": "amount",
          "type": "uint256"
        }
      ],
      "name": "Mint",
      "type": "event"
    },
    {
      "anonymous": false,
      "inputs": [
        {
          "indexed": false,
          "internalType": "bool",
          "name": "b",
          "type": "bool"
        }
      ],
      "name": "Paused",
      "type": "event"
    },
    {
      "anonymous": false,
      "inputs": [
        {
          "indexed": false,
          "internalType": "address",
          "name": "p",
          "type": "address"
        }
      ],
      "name": "PendingOwner",
      "type": "event"
    },
    {
      "anonymous": false,
      "inputs": [
        {
          "indexed": false,
          "internalType": "address",
          "name": "t",
          "type": "address"
        },
        {
          "indexed": false,
          "internalType": "address",
          "name": "s",
          "type": "address"
        },
        {
          "indexed": false,
          "internalType": "uint256",
          "name": "n",
          "type": "uint256"
        }
      ],
      "name": "ReclaimToken",
      "type": "event"
    },
    {
      "anonymous": false,
      "inputs": [
        {
          "indexed": false,
          "internalType": "address",
          "name": "from",
          "type": "address"
        },
        {
          "indexed": false,
          "internalType": "address",
          "name": "to",
          "type": "address"
        },
        {
          "indexed": false,
          "internalType": "uint256",
          "name": "amount",
          "type": "uint256"
        }
      ],
      "name": "Transfer",
      "type": "event"
    },
    {
      "anonymous": false,
      "inputs": [
        {
          "indexed": false,
          "internalType": "address",
          "name": "from",
          "type": "address"
        },
        {
          "indexed": false,
          "internalType": "address",
          "name": "to",
          "type": "address"
        },
        {
          "indexed": false,
          "internalType": "address",
          "name": "spender",
          "type": "address"
        },
        {
          "indexed": false,
          "internalType": "uint256",
          "name": "amount",
          "type": "uint256"
        }
      ],
      "name": "TransferFrom",
      "type": "event"
    },
    {
      "inputs": [
        {
          "internalType": "address",
          "name": "from",
          "type": "address"
        },
        {
          "internalType": "address",
          "name": "to",
          "type": "address"
        },
        {
          "internalType": "uint256",
          "name": "amount",
          "type": "uint256"
        }
      ],
      "name": "transferFrom",
      "outputs": [],
      "stateMutability": "nonpayable",
      "type": "function"
    },
    {
      "inputs": [
        {
          "internalType": "address",
          "name": "p",
          "type": "address"
        },
        {
          "internalType": "uint256",
          "name": "amount",
          "type": "uint256"
        }
      ],
      "name": "mint",
      "outputs": [],
      "stateMutability": "nonpayable",
      "type": "function"
    },
    {
      "inputs": [
        {
          "internalType": "address",
          "name": "p",
          "type": "address"
        },
        {
          "internalType": "address",
          "name": "s",
          "type": "address"
        }
      ],
      "name": "getAllowance",
      "outputs": [
        {
          "internalType": "uint256",
          "name": "",
          "type": "uint256"
        }
      ],
      "stateMutability": "view",
      "type": "function"
    },
    {
      "inputs": [],
      "name": "pause",
      "outputs": [],
      "stateMutability": "nonpayable",
      "type": "function"
    },
    {
      "inputs": [],
      "name": "getTotalSupply",
      "outputs": [
        {
          "internalType": "uint256",
          "name": "",
          "type": "uint256"
        }
      ],
      "stateMutability": "view",
      "type": "function"
    },
    {
      "inputs": [
        {
          "internalType": "address",
          "name": "to",
          "type": "address"
        },
        {
          "internalType": "uint256",
          "name": "amount",
          "type": "uint256"
        }
      ],
      "name": "transfer",
      "outputs": [],
      "stateMutability": "nonpayable",
      "type": "function"
    },
    {
      "inputs": [],
      "name": "reclaimToken",
      "outputs": [],
      "stateMutability": "nonpayable",
      "type": "function"
    },
    {
      "inputs": [],
      "name": "unpause",
      "outputs": [],
      "stateMutability": "nonpayable",
      "type": "function"
    },
    {
      "inputs": [
        {
          "internalType": "address",
          "name": "s",
          "type": "address"
        },
        {
          "internalType": "uint256",
          "name": "n",
          "type": "uint256"
        }
      ],
      "name": "approve",
      "outputs": [],
      "stateMutability": "nonpayable",
      "type": "function"
    },
    {
      "inputs": [
        {
          "internalType": "address",
          "name": "p",
          "type": "address"
        }
      ],
      "name": "getBalanceOf",
      "outputs": [
        {
          "internalType": "uint256",
          "name": "",
          "type": "uint256"
        }
      ],
      "stateMutability": "view",
      "type": "function"
    },
    {
      "inputs": [],
      "name": "claimOwnership",
      "outputs": [],
      "stateMutability": "nonpayable",
      "type": "function"
    },
    {
      "inputs": [
        {
          "internalType": "uint256",
          "name": "amount",
          "type": "uint256"
        }
      ],
      "name": "burn",
      "outputs": [],
      "stateMutability": "nonpayable",
      "type": "function"
    },
    {
      "inputs": [
        {
          "internalType": "address",
          "name": "p",
          "type": "address"
        }
      ],
      "name": "transferOwnership",
      "outputs": [],
      "stateMutability": "nonpayable",
      "type": "function"
    }
  ],
  "bytecode": "0x60806040523480156200001157600080fd5b50620000226200004860201b60201c565b62000032620000ea60201b60201c565b620000426200013460201b60201c565b62000136565b600033905060405180604001604052808273ffffffffffffffffffffffffffffffffffffffff16815260200160011515815250600360008201518160000160006101000a81548173ffffffffffffffffffffffffffffffffffffffff021916908373ffffffffffffffffffffffffffffffffffffffff16021790555060208201518160000160146101000a81548160ff02191690831515021790555090505050565b6040518060400160405280600081526020016001151581525060076000820151816000015560208201518160010160006101000a81548160ff021916908315150217905550905050565b565b61434080620001466000396000f3fe608060405234801561001057600080fd5b50600436106100cf5760003560e01c80634e71e0c81161008c578063a9059cbb11610066578063a9059cbb146101c2578063c4e41b22146101de578063f2fde38b146101fc578063fff2813714610218576100cf565b80634e71e0c81461017e5780638456cb59146101885780639b96eece14610192576100cf565b8063095ea7b3146100d45780630af4187d146100f057806323b872dd146101205780633f4ba83a1461013c57806340c10f191461014657806342966c6814610162575b600080fd5b6100ee60048036038101906100e99190613eda565b610222565b005b61010a60048036038101906101059190613f1a565b61027d565b6040516101179190613f69565b60405180910390f35b61013a60048036038101906101359190613f84565b610342565b005b61014461039f565b005b610160600480360381019061015b9190613eda565b6103f6565b005b61017c60048036038101906101779190613fd7565b610451565b005b6101866104aa565b005b610190610501565b005b6101ac60048036038101906101a79190614004565b610558565b6040516101b99190613f69565b60405180910390f35b6101dc60048036038101906101d79190613eda565b6105df565b005b6101e661063a565b6040516101f39190613f69565b60405180910390f35b61021660048036038101906102119190614004565b61064c565b005b6102206106a5565b005b600061022e83836106fc565b9050600015158115151415610278576040517f08c379a000000000000000000000000000000000000000000000000000000000815260040161026f9061408e565b60405180910390fd5b505050565b600080601060008573ffffffffffffffffffffffffffffffffffffffff1673ffffffffffffffffffffffffffffffffffffffff16815260200190815260200160002060008473ffffffffffffffffffffffffffffffffffffffff1673ffffffffffffffffffffffffffffffffffffffff168152602001908152602001600020604051806040016040529081600082015481526020016001820160009054906101000a900460ff1615151515815250509050600081600001519050809250505092915050565b600061034f84848461081f565b9050600015158115151415610399576040517f08c379a00000000000000000000000000000000000000000000000000000000081526004016103909061408e565b60405180910390fd5b50505050565b60006103a9610a01565b90506000151581151514156103f3576040517f08c379a00000000000000000000000000000000000000000000000000000000081526004016103ea9061408e565b60405180910390fd5b50565b60006104028383610b0b565b905060001515811515141561044c576040517f08c379a00000000000000000000000000000000000000000000000000000000081526004016104439061408e565b60405180910390fd5b505050565b600061045c82610c01565b90506000151581151514156104a6576040517f08c379a000000000000000000000000000000000000000000000000000000000815260040161049d9061408e565b60405180910390fd5b5050565b60006104b4610cef565b90506000151581151514156104fe576040517f08c379a00000000000000000000000000000000000000000000000000000000081526004016104f59061408e565b60405180910390fd5b50565b600061050b610da9565b9050600015158115151415610555576040517f08c379a000000000000000000000000000000000000000000000000000000000815260040161054c9061408e565b60405180910390fd5b50565b600080600d60008473ffffffffffffffffffffffffffffffffffffffff1673ffffffffffffffffffffffffffffffffffffffff168152602001908152602001600020604051806040016040529081600082015481526020016001820160009054906101000a900460ff16151515158152505090506000816000015190508092505050919050565b60006105eb8383610eb3565b9050600015158115151415610635576040517f08c379a000000000000000000000000000000000000000000000000000000000815260040161062c9061408e565b60405180910390fd5b505050565b60008060076000015490508091505090565b600061065782610fc6565b90506000151581151514156106a1576040517f08c379a00000000000000000000000000000000000000000000000000000000081526004016106989061408e565b60405180910390fd5b5050565b60006106af61110b565b90506000151581151514156106f9576040517f08c379a00000000000000000000000000000000000000000000000000000000081526004016106f09061408e565b60405180910390fd5b50565b6000803390506000601060008373ffffffffffffffffffffffffffffffffffffffff1673ffffffffffffffffffffffffffffffffffffffff16815260200190815260200160002060008673ffffffffffffffffffffffffffffffffffffffff1673ffffffffffffffffffffffffffffffffffffffff168152602001908152602001600020604051806040016040529081600082015481526020016001820160009054906101000a900460ff1615151515815250509050600081600001519050600081866107c991906140dd565b90506107d6848883611251565b7f01722f0e92ffd761d4a842cffdd36fe3adb6091e41732a4e714250176b7d8d2284888360405161080993929190614120565b60405180910390a1600194505050505092915050565b600080339050601160000160009054906101000a900460ff1615156000151514156109f4576000600d60008773ffffffffffffffffffffffffffffffffffffffff1673ffffffffffffffffffffffffffffffffffffffff168152602001908152602001600020604051806040016040529081600082015481526020016001820160009054906101000a900460ff16151515158152505090506000816000015190506000601060008973ffffffffffffffffffffffffffffffffffffffff1673ffffffffffffffffffffffffffffffffffffffff16815260200190815260200160002060008573ffffffffffffffffffffffffffffffffffffffff1673ffffffffffffffffffffffffffffffffffffffff168152602001908152602001600020604051806040016040529081600082015481526020016001820160009054906101000a900460ff16151515158152505090506000816000015190508683101580156109895750868110155b156109ef576109998986896112fd565b6109a48989896113a9565b7f5f7542858008eeb041631f30e6109ae94b83a58e9a58261dd2c42c508850f9398989878a6040516109d99493929190614157565b60405180910390a16001955050505050506109fa565b505050505b60009150505b9392505050565b600080600360000160009054906101000a900473ffffffffffffffffffffffffffffffffffffffff1690503373ffffffffffffffffffffffffffffffffffffffff168173ffffffffffffffffffffffffffffffffffffffff161415610b0257604051806040016040528060001515815260200160011515815250601160008201518160000160006101000a81548160ff02191690831515021790555060208201518160000160016101000a81548160ff0219169083151502179055509050507f0e2fb031ee032dc02d8011dc50b816eb450cf856abd8261680dac74f72165bd26000604051610af091906141b7565b60405180910390a16001915050610b08565b60009150505b90565b600080600360000160009054906101000a900473ffffffffffffffffffffffffffffffffffffffff1690503373ffffffffffffffffffffffffffffffffffffffff168173ffffffffffffffffffffffffffffffffffffffff161415610bf557600073ffffffffffffffffffffffffffffffffffffffff168473ffffffffffffffffffffffffffffffffffffffff1614610bf457610ba7836113fd565b610bb1848461142b565b7f0f6798a560793a54c3bcfe86a93cde1e73087d944c0ea20544137d41213968858484604051610be29291906141d2565b60405180910390a16001915050610bfb565b5b60009150505b92915050565b6000803390506000600d60008373ffffffffffffffffffffffffffffffffffffffff1673ffffffffffffffffffffffffffffffffffffffff168152602001908152602001600020604051806040016040529081600082015481526020016001820160009054906101000a900460ff1615151515815250509050600081600001519050808511610ce257610c948386611498565b610c9d85611505565b7fcc16f5dbb4873280815c1ee09dbd06736cffcc184412cf7a71a0fdb75d397ca58386604051610cce9291906141d2565b60405180910390a160019350505050610cea565b600093505050505b919050565b600080600460000160009054906101000a900473ffffffffffffffffffffffffffffffffffffffff1690503373ffffffffffffffffffffffffffffffffffffffff168173ffffffffffffffffffffffffffffffffffffffff161415610da057610d5781611533565b610d5f6115d0565b7f85a8c8100c1d48466310240af79644f50cdae7d09cb4820d60dfc5b2462f0fd081604051610d8e91906141fb565b60405180910390a16001915050610da6565b60009150505b90565b600080600360000160009054906101000a900473ffffffffffffffffffffffffffffffffffffffff1690503373ffffffffffffffffffffffffffffffffffffffff168173ffffffffffffffffffffffffffffffffffffffff161415610eaa57604051806040016040528060011515815260200160011515815250601160008201518160000160006101000a81548160ff02191690831515021790555060208201518160000160016101000a81548160ff0219169083151502179055509050507f0e2fb031ee032dc02d8011dc50b816eb450cf856abd8261680dac74f72165bd26001604051610e9891906141b7565b60405180910390a16001915050610eb0565b60009150505b90565b6000601160000160009054906101000a900460ff161515600015151415610fbb5760003390506000600d60008373ffffffffffffffffffffffffffffffffffffffff1673ffffffffffffffffffffffffffffffffffffffff168152602001908152602001600020604051806040016040529081600082015481526020016001820160009054906101000a900460ff1615151515815250509050600081600001519050808511610fb757610f6683866116a5565b610f708686611712565b7fddf252ad1be2c89b69c2b068fc378daa952ba7f163c4a11628f55a4df523b3ef838787604051610fa393929190614120565b60405180910390a160019350505050610fc0565b5050505b600090505b92915050565b600080600360000160009054906101000a900473ffffffffffffffffffffffffffffffffffffffff1690503373ffffffffffffffffffffffffffffffffffffffff168173ffffffffffffffffffffffffffffffffffffffff1614156111005760405180604001604052808473ffffffffffffffffffffffffffffffffffffffff16815260200160011515815250600460008201518160000160006101000a81548173ffffffffffffffffffffffffffffffffffffffff021916908373ffffffffffffffffffffffffffffffffffffffff16021790555060208201518160000160146101000a81548160ff0219169083151502179055509050507f4306745d208e8707535ce9418abeb2b0a7136ecb794c23956c829fff4fc18f89836040516110ee91906141fb565b60405180910390a16001915050611106565b60009150505b919050565b600080339050600360000160009054906101000a900473ffffffffffffffffffffffffffffffffffffffff1673ffffffffffffffffffffffffffffffffffffffff168173ffffffffffffffffffffffffffffffffffffffff1614156112485760003090506000600d60008373ffffffffffffffffffffffffffffffffffffffff1673ffffffffffffffffffffffffffffffffffffffff168152602001908152602001600020604051806040016040529081600082015481526020016001820160009054906101000a900460ff16151515158152505090506000816000015190506111f5848261177e565b6112008385836117b8565b7fc016730911d66378b481a7db6a27b66ee03f202be57a4ba7f7a839b6f2f45f3b83858360405161123393929190614120565b60405180910390a1600194505050505061124e565b60009150505b90565b600081905061126184848361180c565b81600b60008673ffffffffffffffffffffffffffffffffffffffff1673ffffffffffffffffffffffffffffffffffffffff16815260200190815260200160002060008573ffffffffffffffffffffffffffffffffffffffff1673ffffffffffffffffffffffffffffffffffffffff16815260200190815260200160002060000160008282546112f09190614216565b9250508190555050505050565b600081905061130d8484836118b0565b81600c60008673ffffffffffffffffffffffffffffffffffffffff1673ffffffffffffffffffffffffffffffffffffffff16815260200190815260200160002060008573ffffffffffffffffffffffffffffffffffffffff1673ffffffffffffffffffffffffffffffffffffffff168152602001908152602001600020600001600082825461139c9190614216565b9250508190555050505050565b6113b383826116a5565b6113bd8282611712565b7fddf252ad1be2c89b69c2b068fc378daa952ba7f163c4a11628f55a4df523b3ef8383836040516113f093929190614120565b60405180910390a1505050565b600081905061140b81611954565b81600960000160008282546114209190614216565b925050819055505050565b600081905061143a838261197a565b81600660008573ffffffffffffffffffffffffffffffffffffffff1673ffffffffffffffffffffffffffffffffffffffff168152602001908152602001600020600001600082825461148c9190614216565b92505081905550505050565b60008190506114a783826119df565b81600260008573ffffffffffffffffffffffffffffffffffffffff1673ffffffffffffffffffffffffffffffffffffffff16815260200190815260200160002060000160008282546114f99190614216565b92505081905550505050565b600081905061151381611a44565b81600e60000160008282546115289190614216565b925050819055505050565b60405180604001604052808273ffffffffffffffffffffffffffffffffffffffff16815260200160011515815250600360008201518160000160006101000a81548173ffffffffffffffffffffffffffffffffffffffff021916908373ffffffffffffffffffffffffffffffffffffffff16021790555060208201518160000160146101000a81548160ff02191690831515021790555090505050565b6040518060400160405280600073ffffffffffffffffffffffffffffffffffffffff16815260200160011515815250600460008201518160000160006101000a81548173ffffffffffffffffffffffffffffffffffffffff021916908373ffffffffffffffffffffffffffffffffffffffff16021790555060208201518160000160146101000a81548160ff0219169083151502179055509050507f4306745d208e8707535ce9418abeb2b0a7136ecb794c23956c829fff4fc18f89600060405161169b91906141fb565b60405180910390a1565b60008190506116b48382611a6a565b81600160008573ffffffffffffffffffffffffffffffffffffffff1673ffffffffffffffffffffffffffffffffffffffff16815260200190815260200160002060000160008282546117069190614216565b92505081905550505050565b60008190506117218382611acf565b816000808573ffffffffffffffffffffffffffffffffffffffff1673ffffffffffffffffffffffffffffffffffffffff16815260200190815260200160002060000160008282546117729190614216565b92505081905550505050565b8173ffffffffffffffffffffffffffffffffffffffff166108fc829081150290604051600060405180830381858888f19350505050505050565b6117c28282611712565b6117cc83826116a5565b7fddf252ad1be2c89b69c2b068fc378daa952ba7f163c4a11628f55a4df523b3ef8383836040516117ff93929190614120565b60405180910390a1505050565b6000819050600061189c600b60008773ffffffffffffffffffffffffffffffffffffffff1673ffffffffffffffffffffffffffffffffffffffff16815260200190815260200160002060008673ffffffffffffffffffffffffffffffffffffffff1673ffffffffffffffffffffffffffffffffffffffff1681526020019081526020016000206000015483611b33565b90506118a9858583611b5a565b5050505050565b60008190506000611940600c60008773ffffffffffffffffffffffffffffffffffffffff1673ffffffffffffffffffffffffffffffffffffffff16815260200190815260200160002060008673ffffffffffffffffffffffffffffffffffffffff1673ffffffffffffffffffffffffffffffffffffffff1681526020019081526020016000206000015483611b33565b905061194d858583611e84565b5050505050565b6000819050600061196a60096000015483611b33565b9050611975816121ae565b505050565b600081905060006119cd600660008673ffffffffffffffffffffffffffffffffffffffff1673ffffffffffffffffffffffffffffffffffffffff1681526020019081526020016000206000015483611b33565b90506119d98482612214565b50505050565b60008190506000611a32600260008673ffffffffffffffffffffffffffffffffffffffff1673ffffffffffffffffffffffffffffffffffffffff1681526020019081526020016000206000015483611b33565b9050611a3e84826124d0565b50505050565b60008190506000611a5a600e6000015483611b33565b9050611a658161278c565b505050565b60008190506000611abd600160008673ffffffffffffffffffffffffffffffffffffffff1673ffffffffffffffffffffffffffffffffffffffff1681526020019081526020016000206000015483611b33565b9050611ac984826127f2565b50505050565b60008190506000611b216000808673ffffffffffffffffffffffffffffffffffffffff1673ffffffffffffffffffffffffffffffffffffffff1681526020019081526020016000206000015483611b33565b9050611b2d8482612aae565b50505050565b60008083905060008382611b479190614276565b9050600081905080935050505092915050565b6000600b60008573ffffffffffffffffffffffffffffffffffffffff1673ffffffffffffffffffffffffffffffffffffffff16815260200190815260200160002060008473ffffffffffffffffffffffffffffffffffffffff1673ffffffffffffffffffffffffffffffffffffffff168152602001908152602001600020604051806040016040529081600082015481526020016001820160009054906101000a900460ff161515151581525050905060011515816020015115151415611c2b57611c2a84848360000151612d6a565b5b6000600560008673ffffffffffffffffffffffffffffffffffffffff1673ffffffffffffffffffffffffffffffffffffffff16815260200190815260200160002060008573ffffffffffffffffffffffffffffffffffffffff1673ffffffffffffffffffffffffffffffffffffffff168152602001908152602001600020604051806040016040529081600082015481526020016001820160009054906101000a900460ff16151515158152505090506000816000015190506000600c60008873ffffffffffffffffffffffffffffffffffffffff1673ffffffffffffffffffffffffffffffffffffffff16815260200190815260200160002060008773ffffffffffffffffffffffffffffffffffffffff1673ffffffffffffffffffffffffffffffffffffffff168152602001908152602001600020604051806040016040529081600082015481526020016001820160009054906101000a900460ff16151515158152505090506000816000015190506000838288611dac91906140dd565b611db691906140dd565b9050604051806040016040528082815260200160011515815250601060008b73ffffffffffffffffffffffffffffffffffffffff1673ffffffffffffffffffffffffffffffffffffffff16815260200190815260200160002060008a73ffffffffffffffffffffffffffffffffffffffff1673ffffffffffffffffffffffffffffffffffffffff1681526020019081526020016000206000820151816000015560208201518160010160006101000a81548160ff021916908315150217905550905050505050505050505050565b6000600c60008573ffffffffffffffffffffffffffffffffffffffff1673ffffffffffffffffffffffffffffffffffffffff16815260200190815260200160002060008473ffffffffffffffffffffffffffffffffffffffff1673ffffffffffffffffffffffffffffffffffffffff168152602001908152602001600020604051806040016040529081600082015481526020016001820160009054906101000a900460ff161515151581525050905060011515816020015115151415611f5557611f5484848360000151613081565b5b6000600560008673ffffffffffffffffffffffffffffffffffffffff1673ffffffffffffffffffffffffffffffffffffffff16815260200190815260200160002060008573ffffffffffffffffffffffffffffffffffffffff1673ffffffffffffffffffffffffffffffffffffffff168152602001908152602001600020604051806040016040529081600082015481526020016001820160009054906101000a900460ff16151515158152505090506000816000015190506000600b60008873ffffffffffffffffffffffffffffffffffffffff1673ffffffffffffffffffffffffffffffffffffffff16815260200190815260200160002060008773ffffffffffffffffffffffffffffffffffffffff1673ffffffffffffffffffffffffffffffffffffffff168152602001908152602001600020604051806040016040529081600082015481526020016001820160009054906101000a900460ff161515151581525050905060008160000151905060008387836120d691906140dd565b6120e091906140dd565b9050604051806040016040528082815260200160011515815250601060008b73ffffffffffffffffffffffffffffffffffffffff1673ffffffffffffffffffffffffffffffffffffffff16815260200190815260200160002060008a73ffffffffffffffffffffffffffffffffffffffff1673ffffffffffffffffffffffffffffffffffffffff1681526020019081526020016000206000820151816000015560208201518160010160006101000a81548160ff021916908315150217905550905050505050505050505050565b6000600e600001549050600081836121c691906140dd565b905060405180604001604052808281526020016001151581525060076000820151816000015560208201518160010160006101000a81548160ff021916908315150217905550905050505050565b6000600660008473ffffffffffffffffffffffffffffffffffffffff1673ffffffffffffffffffffffffffffffffffffffff168152602001908152602001600020604051806040016040529081600082015481526020016001820160009054906101000a900460ff1615151515815250509050600115158160200151151514156122a7576122a6838260000151613398565b5b60008060008573ffffffffffffffffffffffffffffffffffffffff1673ffffffffffffffffffffffffffffffffffffffff168152602001908152602001600020604051806040016040529081600082015481526020016001820160009054906101000a900460ff16151515158152505090506000816000015190506000600160008773ffffffffffffffffffffffffffffffffffffffff1673ffffffffffffffffffffffffffffffffffffffff168152602001908152602001600020604051806040016040529081600082015481526020016001820160009054906101000a900460ff16151515158152505090506000816000015190506000600260008973ffffffffffffffffffffffffffffffffffffffff1673ffffffffffffffffffffffffffffffffffffffff168152602001908152602001600020604051806040016040529081600082015481526020016001820160009054906101000a900460ff161515151581525050905060008160000151905060008382878b61242a9190614216565b61243491906140dd565b61243e91906140dd565b9050604051806040016040528082815260200160011515815250600d60008c73ffffffffffffffffffffffffffffffffffffffff1673ffffffffffffffffffffffffffffffffffffffff1681526020019081526020016000206000820151816000015560208201518160010160006101000a81548160ff02191690831515021790555090505050505050505050505050565b6000600260008473ffffffffffffffffffffffffffffffffffffffff1673ffffffffffffffffffffffffffffffffffffffff168152602001908152602001600020604051806040016040529081600082015481526020016001820160009054906101000a900460ff16151515158152505090506001151581602001511515141561256357612562838260000151613642565b5b60008060008573ffffffffffffffffffffffffffffffffffffffff1673ffffffffffffffffffffffffffffffffffffffff168152602001908152602001600020604051806040016040529081600082015481526020016001820160009054906101000a900460ff16151515158152505090506000816000015190506000600160008773ffffffffffffffffffffffffffffffffffffffff1673ffffffffffffffffffffffffffffffffffffffff168152602001908152602001600020604051806040016040529081600082015481526020016001820160009054906101000a900460ff16151515158152505090506000816000015190506000600660008973ffffffffffffffffffffffffffffffffffffffff1673ffffffffffffffffffffffffffffffffffffffff168152602001908152602001600020604051806040016040529081600082015481526020016001820160009054906101000a900460ff16151515158152505090506000816000015190506000838987846126e69190614216565b6126f091906140dd565b6126fa91906140dd565b9050604051806040016040528082815260200160011515815250600d60008c73ffffffffffffffffffffffffffffffffffffffff1673ffffffffffffffffffffffffffffffffffffffff1681526020019081526020016000206000820151816000015560208201518160010160006101000a81548160ff02191690831515021790555090505050505050505050505050565b60006009600001549050600082826127a491906140dd565b905060405180604001604052808281526020016001151581525060076000820151816000015560208201518160010160006101000a81548160ff021916908315150217905550905050505050565b6000600160008473ffffffffffffffffffffffffffffffffffffffff1673ffffffffffffffffffffffffffffffffffffffff168152602001908152602001600020604051806040016040529081600082015481526020016001820160009054906101000a900460ff161515151581525050905060011515816020015115151415612885576128848382600001516138ec565b5b60008060008573ffffffffffffffffffffffffffffffffffffffff1673ffffffffffffffffffffffffffffffffffffffff168152602001908152602001600020604051806040016040529081600082015481526020016001820160009054906101000a900460ff16151515158152505090506000816000015190506000600260008773ffffffffffffffffffffffffffffffffffffffff1673ffffffffffffffffffffffffffffffffffffffff168152602001908152602001600020604051806040016040529081600082015481526020016001820160009054906101000a900460ff16151515158152505090506000816000015190506000600660008973ffffffffffffffffffffffffffffffffffffffff1673ffffffffffffffffffffffffffffffffffffffff168152602001908152602001600020604051806040016040529081600082015481526020016001820160009054906101000a900460ff1615151515815250509050600081600001519050600088848784612a089190614216565b612a1291906140dd565b612a1c91906140dd565b9050604051806040016040528082815260200160011515815250600d60008c73ffffffffffffffffffffffffffffffffffffffff1673ffffffffffffffffffffffffffffffffffffffff1681526020019081526020016000206000820151816000015560208201518160010160006101000a81548160ff02191690831515021790555090505050505050505050505050565b60008060008473ffffffffffffffffffffffffffffffffffffffff1673ffffffffffffffffffffffffffffffffffffffff168152602001908152602001600020604051806040016040529081600082015481526020016001820160009054906101000a900460ff161515151581525050905060011515816020015115151415612b4057612b3f838260000151613b96565b5b6000600160008573ffffffffffffffffffffffffffffffffffffffff1673ffffffffffffffffffffffffffffffffffffffff168152602001908152602001600020604051806040016040529081600082015481526020016001820160009054906101000a900460ff16151515158152505090506000816000015190506000600260008773ffffffffffffffffffffffffffffffffffffffff1673ffffffffffffffffffffffffffffffffffffffff168152602001908152602001600020604051806040016040529081600082015481526020016001820160009054906101000a900460ff16151515158152505090506000816000015190506000600660008973ffffffffffffffffffffffffffffffffffffffff1673ffffffffffffffffffffffffffffffffffffffff168152602001908152602001600020604051806040016040529081600082015481526020016001820160009054906101000a900460ff1615151515815250509050600081600001519050600085848a84612cc49190614216565b612cce91906140dd565b612cd891906140dd565b9050604051806040016040528082815260200160011515815250600d60008c73ffffffffffffffffffffffffffffffffffffffff1673ffffffffffffffffffffffffffffffffffffffff1681526020019081526020016000206000820151816000015560208201518160010160006101000a81548160ff02191690831515021790555090505050505050505050505050565b6000600560008573ffffffffffffffffffffffffffffffffffffffff1673ffffffffffffffffffffffffffffffffffffffff16815260200190815260200160002060008473ffffffffffffffffffffffffffffffffffffffff1673ffffffffffffffffffffffffffffffffffffffff168152602001908152602001600020604051806040016040529081600082015481526020016001820160009054906101000a900460ff16151515158152505090506000816000015190506000600c60008773ffffffffffffffffffffffffffffffffffffffff1673ffffffffffffffffffffffffffffffffffffffff16815260200190815260200160002060008673ffffffffffffffffffffffffffffffffffffffff1673ffffffffffffffffffffffffffffffffffffffff168152602001908152602001600020604051806040016040529081600082015481526020016001820160009054906101000a900460ff16151515158152505090506000816000015190506000838287612eeb91906140dd565b612ef591906140dd565b90506000601060008a73ffffffffffffffffffffffffffffffffffffffff1673ffffffffffffffffffffffffffffffffffffffff16815260200190815260200160002060008973ffffffffffffffffffffffffffffffffffffffff1673ffffffffffffffffffffffffffffffffffffffff168152602001908152602001600020604051806040016040529081600082015481526020016001820160009054906101000a900460ff161515151581525050905080600001518214156130765760405180604001604052806000815260200160001515815250601060008b73ffffffffffffffffffffffffffffffffffffffff1673ffffffffffffffffffffffffffffffffffffffff16815260200190815260200160002060008a73ffffffffffffffffffffffffffffffffffffffff1673ffffffffffffffffffffffffffffffffffffffff1681526020019081526020016000206000820151816000015560208201518160010160006101000a81548160ff0219169083151502179055509050505b505050505050505050565b6000600560008573ffffffffffffffffffffffffffffffffffffffff1673ffffffffffffffffffffffffffffffffffffffff16815260200190815260200160002060008473ffffffffffffffffffffffffffffffffffffffff1673ffffffffffffffffffffffffffffffffffffffff168152602001908152602001600020604051806040016040529081600082015481526020016001820160009054906101000a900460ff16151515158152505090506000816000015190506000600b60008773ffffffffffffffffffffffffffffffffffffffff1673ffffffffffffffffffffffffffffffffffffffff16815260200190815260200160002060008673ffffffffffffffffffffffffffffffffffffffff1673ffffffffffffffffffffffffffffffffffffffff168152602001908152602001600020604051806040016040529081600082015481526020016001820160009054906101000a900460ff1615151515815250509050600081600001519050600083868361320291906140dd565b61320c91906140dd565b90506000601060008a73ffffffffffffffffffffffffffffffffffffffff1673ffffffffffffffffffffffffffffffffffffffff16815260200190815260200160002060008973ffffffffffffffffffffffffffffffffffffffff1673ffffffffffffffffffffffffffffffffffffffff168152602001908152602001600020604051806040016040529081600082015481526020016001820160009054906101000a900460ff1615151515815250509050806000015182141561338d5760405180604001604052806000815260200160001515815250601060008b73ffffffffffffffffffffffffffffffffffffffff1673ffffffffffffffffffffffffffffffffffffffff16815260200190815260200160002060008a73ffffffffffffffffffffffffffffffffffffffff1673ffffffffffffffffffffffffffffffffffffffff1681526020019081526020016000206000820151816000015560208201518160010160006101000a81548160ff0219169083151502179055509050505b505050505050505050565b60008060008473ffffffffffffffffffffffffffffffffffffffff1673ffffffffffffffffffffffffffffffffffffffff168152602001908152602001600020604051806040016040529081600082015481526020016001820160009054906101000a900460ff16151515158152505090506000816000015190506000600160008673ffffffffffffffffffffffffffffffffffffffff1673ffffffffffffffffffffffffffffffffffffffff168152602001908152602001600020604051806040016040529081600082015481526020016001820160009054906101000a900460ff16151515158152505090506000816000015190506000600260008873ffffffffffffffffffffffffffffffffffffffff1673ffffffffffffffffffffffffffffffffffffffff168152602001908152602001600020604051806040016040529081600082015481526020016001820160009054906101000a900460ff161515151581525050905060008160000151905060008382878a61351b9190614216565b61352591906140dd565b61352f91906140dd565b90506000600d60008b73ffffffffffffffffffffffffffffffffffffffff1673ffffffffffffffffffffffffffffffffffffffff168152602001908152602001600020604051806040016040529081600082015481526020016001820160009054906101000a900460ff161515151581525050905080600001518214156136365760405180604001604052806000815260200160001515815250600d60008c73ffffffffffffffffffffffffffffffffffffffff1673ffffffffffffffffffffffffffffffffffffffff1681526020019081526020016000206000820151816000015560208201518160010160006101000a81548160ff0219169083151502179055509050505b50505050505050505050565b60008060008473ffffffffffffffffffffffffffffffffffffffff1673ffffffffffffffffffffffffffffffffffffffff168152602001908152602001600020604051806040016040529081600082015481526020016001820160009054906101000a900460ff16151515158152505090506000816000015190506000600160008673ffffffffffffffffffffffffffffffffffffffff1673ffffffffffffffffffffffffffffffffffffffff168152602001908152602001600020604051806040016040529081600082015481526020016001820160009054906101000a900460ff16151515158152505090506000816000015190506000600660008873ffffffffffffffffffffffffffffffffffffffff1673ffffffffffffffffffffffffffffffffffffffff168152602001908152602001600020604051806040016040529081600082015481526020016001820160009054906101000a900460ff16151515158152505090506000816000015190506000838887846137c59190614216565b6137cf91906140dd565b6137d991906140dd565b90506000600d60008b73ffffffffffffffffffffffffffffffffffffffff1673ffffffffffffffffffffffffffffffffffffffff168152602001908152602001600020604051806040016040529081600082015481526020016001820160009054906101000a900460ff161515151581525050905080600001518214156138e05760405180604001604052806000815260200160001515815250600d60008c73ffffffffffffffffffffffffffffffffffffffff1673ffffffffffffffffffffffffffffffffffffffff1681526020019081526020016000206000820151816000015560208201518160010160006101000a81548160ff0219169083151502179055509050505b50505050505050505050565b60008060008473ffffffffffffffffffffffffffffffffffffffff1673ffffffffffffffffffffffffffffffffffffffff168152602001908152602001600020604051806040016040529081600082015481526020016001820160009054906101000a900460ff16151515158152505090506000816000015190506000600260008673ffffffffffffffffffffffffffffffffffffffff1673ffffffffffffffffffffffffffffffffffffffff168152602001908152602001600020604051806040016040529081600082015481526020016001820160009054906101000a900460ff16151515158152505090506000816000015190506000600660008873ffffffffffffffffffffffffffffffffffffffff1673ffffffffffffffffffffffffffffffffffffffff168152602001908152602001600020604051806040016040529081600082015481526020016001820160009054906101000a900460ff1615151515815250509050600081600001519050600087848784613a6f9190614216565b613a7991906140dd565b613a8391906140dd565b90506000600d60008b73ffffffffffffffffffffffffffffffffffffffff1673ffffffffffffffffffffffffffffffffffffffff168152602001908152602001600020604051806040016040529081600082015481526020016001820160009054906101000a900460ff16151515158152505090508060000151821415613b8a5760405180604001604052806000815260200160001515815250600d60008c73ffffffffffffffffffffffffffffffffffffffff1673ffffffffffffffffffffffffffffffffffffffff1681526020019081526020016000206000820151816000015560208201518160010160006101000a81548160ff0219169083151502179055509050505b50505050505050505050565b6000600160008473ffffffffffffffffffffffffffffffffffffffff1673ffffffffffffffffffffffffffffffffffffffff168152602001908152602001600020604051806040016040529081600082015481526020016001820160009054906101000a900460ff16151515158152505090506000816000015190506000600260008673ffffffffffffffffffffffffffffffffffffffff1673ffffffffffffffffffffffffffffffffffffffff168152602001908152602001600020604051806040016040529081600082015481526020016001820160009054906101000a900460ff16151515158152505090506000816000015190506000600660008873ffffffffffffffffffffffffffffffffffffffff1673ffffffffffffffffffffffffffffffffffffffff168152602001908152602001600020604051806040016040529081600082015481526020016001820160009054906101000a900460ff1615151515815250509050600081600001519050600085848984613d1a9190614216565b613d2491906140dd565b613d2e91906140dd565b90506000600d60008b73ffffffffffffffffffffffffffffffffffffffff1673ffffffffffffffffffffffffffffffffffffffff168152602001908152602001600020604051806040016040529081600082015481526020016001820160009054906101000a900460ff16151515158152505090508060000151821415613e355760405180604001604052806000815260200160001515815250600d60008c73ffffffffffffffffffffffffffffffffffffffff1673ffffffffffffffffffffffffffffffffffffffff1681526020019081526020016000206000820151816000015560208201518160010160006101000a81548160ff0219169083151502179055509050505b50505050505050505050565b600080fd5b600073ffffffffffffffffffffffffffffffffffffffff82169050919050565b6000613e7182613e46565b9050919050565b613e8181613e66565b8114613e8c57600080fd5b50565b600081359050613e9e81613e78565b92915050565b6000819050919050565b613eb781613ea4565b8114613ec257600080fd5b50565b600081359050613ed481613eae565b92915050565b60008060408385031215613ef157613ef0613e41565b5b6000613eff85828601613e8f565b9250506020613f1085828601613ec5565b9150509250929050565b60008060408385031215613f3157613f30613e41565b5b6000613f3f85828601613e8f565b9250506020613f5085828601613e8f565b9150509250929050565b613f6381613ea4565b82525050565b6000602082019050613f7e6000830184613f5a565b92915050565b600080600060608486031215613f9d57613f9c613e41565b5b6000613fab86828701613e8f565b9350506020613fbc86828701613e8f565b9250506040613fcd86828701613ec5565b9150509250925092565b600060208284031215613fed57613fec613e41565b5b6000613ffb84828501613ec5565b91505092915050565b60006020828403121561401a57614019613e41565b5b600061402884828501613e8f565b91505092915050565b600082825260208201905092915050565b7f52756c6520636f6e646974696f6e206661696c65640000000000000000000000600082015250565b6000614078601583614031565b915061408382614042565b602082019050919050565b600060208201905081810360008301526140a78161406b565b9050919050565b7f4e487b7100000000000000000000000000000000000000000000000000000000600052601160045260246000fd5b60006140e882613ea4565b91506140f383613ea4565b925082821015614106576141056140ae565b5b828203905092915050565b61411a81613e66565b82525050565b60006060820190506141356000830186614111565b6141426020830185614111565b61414f6040830184613f5a565b949350505050565b600060808201905061416c6000830187614111565b6141796020830186614111565b6141866040830185614111565b6141936060830184613f5a565b95945050505050565b60008115159050919050565b6141b18161419c565b82525050565b60006020820190506141cc60008301846141a8565b92915050565b60006040820190506141e76000830185614111565b6141f46020830184613f5a565b9392505050565b60006020820190506142106000830184614111565b92915050565b600061422182613ea4565b915061422c83613ea4565b9250827fffffffffffffffffffffffffffffffffffffffffffffffffffffffffffffffff03821115614261576142606140ae565b5b828201905092915050565b6000819050919050565b60006142818261426c565b915061428c8361426c565b9250817f7fffffffffffffffffffffffffffffffffffffffffffffffffffffffffffffff038313600083121516156142c7576142c66140ae565b5b817f80000000000000000000000000000000000000000000000000000000000000000383126000831216156142ff576142fe6140ae565b5b82820190509291505056fea264697066735822122031187a2a753355dd49b3eaa6c2c8622d168de41a091071d93a84ce730327d0bc64736f6c634300080c0033",
  "immutableReferences": {},
  "source": "contract Wbtc {\n  struct TotalInTuple {\n    uint n;\n    bool _valid;\n  }\n  struct TotalOutTuple {\n    uint n;\n    bool _valid;\n  }\n  struct OwnerTuple {\n    address p;\n    bool _valid;\n  }\n  struct PendingOwnerTuple {\n    address p;\n    bool _valid;\n  }\n  struct TotalMintTuple {\n    uint n;\n    bool _valid;\n  }\n  struct TotalSupplyTuple {\n    uint n;\n    bool _valid;\n  }\n  struct AllMintTuple {\n    uint n;\n    bool _valid;\n  }\n  struct AllowanceTotalTuple {\n    uint m;\n    bool _valid;\n  }\n  struct SpentTotalTuple {\n    uint m;\n    bool _valid;\n  }\n  struct TotalBurnTuple {\n    uint n;\n    bool _valid;\n  }\n  struct DecreaseAllowanceTotalTuple {\n    uint m;\n    bool _valid;\n  }\n  struct BalanceOfTuple {\n    uint n;\n    bool _valid;\n  }\n  struct AllBurnTuple {\n    uint n;\n    bool _valid;\n  }\n  struct AllowanceTuple {\n    uint n;\n    bool _valid;\n  }\n  struct PausedTuple {\n    bool b;\n    bool _valid;\n  }\n  mapping(address=>TotalInTuple) totalIn;\n  mapping(address=>TotalOutTuple) totalOut;\n  mapping(address=>TotalBurnTuple) totalBurn;\n  OwnerTuple owner;\n  PendingOwnerTuple pendingOwner;\n  mapping(address=>mapping(address=>DecreaseAllowanceTotalTuple)) decreaseAllowanceTotal;\n  mapping(address=>TotalMintTuple) totalMint;\n  TotalSupplyTuple totalSupply;\n  AllMintTuple allMint;\n  mapping(address=>mapping(address=>AllowanceTotalTuple)) allowanceTotal;\n  mapping(address=>mapping(address=>SpentTotalTuple)) spentTotal;\n  mapping(address=>BalanceOfTuple) balanceOf;\n  AllBurnTuple allBurn;\n  mapping(address=>mapping(address=>AllowanceTuple)) allowance;\n  PausedTuple paused;\n  event Burn(address p,uint amount);\n  event ReclaimToken(address t,address s,uint n);\n  event Mint(address p,uint amount);\n  event PendingOwner(address p);\n  event ClaimOwnership(address p);\n  event DecreaseAllowance(address p,address s,uint n);\n  event IncreaseAllowance(address p,address s,uint n);\n  event Transfer(address from,address to,uint amount);\n  event Paused(bool b);\n  event TransferFrom(address from,address to,address spender,uint amount);\n  constructor() public {\n    updateOwnerOnInsertConstructor_r9();\n    updateTotalSupplyOnInsertConstructor_r14();\n    updateTotalBalancesOnInsertConstructor_r33();\n  }\n  function transferFrom(address from,address to,uint amount) public    {\n      bool r12 = updateTransferFromOnInsertRecv_transferFrom_r12(from,to,amount);\n      if(r12==false) {\n        revert(\"Rule condition failed\");\n      }\n  }\n  function mint(address p,uint amount) public    {\n      bool r28 = updateMintOnInsertRecv_mint_r28(p,amount);\n      if(r28==false) {\n        revert(\"Rule condition failed\");\n      }\n  }\n  function getAllowance(address p,address s) public view  returns (uint) {\n      AllowanceTuple memory allowanceTuple = allowance[p][s];\n      uint n = allowanceTuple.n;\n      return n;\n  }\n  function pause() public    {\n      bool r13 = updatePausedOnInsertRecv_pause_r13();\n      if(r13==false) {\n        revert(\"Rule condition failed\");\n      }\n  }\n  function getTotalSupply() public view  returns (uint) {\n      uint n = totalSupply.n;\n      return n;\n  }\n  function transfer(address to,uint amount) public    {\n      bool r3 = updateTransferOnInsertRecv_transfer_r3(to,amount);\n      if(r3==false) {\n        revert(\"Rule condition failed\");\n      }\n  }\n  function reclaimToken() public    {\n      bool r6 = updateReclaimTokenOnInsertRecv_reclaimToken_r6();\n      if(r6==false) {\n        revert(\"Rule condition failed\");\n      }\n  }\n  function unpause() public    {\n      bool r27 = updatePausedOnInsertRecv_unpause_r27();\n      if(r27==false) {\n        revert(\"Rule condition failed\");\n      }\n  }\n  function approve(address s,uint n) public    {\n      bool r31 = updateIncreaseAllowanceOnInsertRecv_approve_r31(s,n);\n      if(r31==false) {\n        revert(\"Rule condition failed\");\n      }\n  }\n  function getBalanceOf(address p) public view  returns (uint) {\n      BalanceOfTuple memory balanceOfTuple = balanceOf[p];\n      uint n = balanceOfTuple.n;\n      return n;\n  }\n  function claimOwnership() public    {\n      bool r11 = updateClaimOwnershipOnInsertRecv_claimOwnership_r11();\n      if(r11==false) {\n        revert(\"Rule condition failed\");\n      }\n  }\n  function burn(uint amount) public    {\n      bool r15 = updateBurnOnInsertRecv_burn_r15(amount);\n      if(r15==false) {\n        revert(\"Rule condition failed\");\n      }\n  }\n  function transferOwnership(address p) public    {\n      bool r0 = updatePendingOwnerOnInsertRecv_transferOwnership_r0(p);\n      if(r0==false) {\n        revert(\"Rule condition failed\");\n      }\n  }\n  function updateAllMintOnInsertMint_r16(uint n) private    {\n      int delta0 = int(n);\n      updateTotalSupplyOnIncrementAllMint_r20(delta0);\n      allMint.n += n;\n  }\n  function updateClaimOwnershipOnInsertRecv_claimOwnership_r11() private   returns (bool) {\n      address s = pendingOwner.p;\n      if(s==msg.sender) {\n        updateOwnerOnInsertClaimOwnership_r30(s);\n        updatePendingOwnerOnInsertClaimOwnership_r2();\n        emit ClaimOwnership(s);\n        return true;\n      }\n      return false;\n  }\n  function updateTotalBurnOnInsertBurn_r18(address p,uint n) private    {\n      int delta2 = int(n);\n      updateBalanceOfOnIncrementTotalBurn_r7(p,delta2);\n      totalBurn[p].n += n;\n  }\n  function updateBalanceOfOnIncrementTotalOut_r7(address p,int o) private    {\n      int _delta = int(o);\n      uint newValue = updateuintByint(totalOut[p].n,_delta);\n      updateBalanceOfOnInsertTotalOut_r7(p,newValue);\n  }\n  function updateTotalSupplyOnInsertAllBurn_r20(uint b) private    {\n      uint m = allMint.n;\n      uint n = m-b;\n      totalSupply = TotalSupplyTuple(n,true);\n  }\n  function updateTotalBalancesOnInsertConstructor_r33() private    {\n      // Empty()\n  }\n  function updatePausedOnInsertRecv_unpause_r27() private   returns (bool) {\n      address s = owner.p;\n      if(s==msg.sender) {\n        paused = PausedTuple(false,true);\n        emit Paused(false);\n        return true;\n      }\n      return false;\n  }\n  function updateBalanceOfOnDeleteTotalMint_r7(address p,uint n) private    {\n      TotalInTuple memory totalInTuple = totalIn[p];\n      uint i = totalInTuple.n;\n      TotalOutTuple memory totalOutTuple = totalOut[p];\n      uint o = totalOutTuple.n;\n      TotalBurnTuple memory totalBurnTuple = totalBurn[p];\n      uint m = totalBurnTuple.n;\n      uint s = ((n+i)-m)-o;\n      BalanceOfTuple memory balanceOfTuple = balanceOf[p];\n      if(s==balanceOfTuple.n) {\n        balanceOf[p] = BalanceOfTuple(0,false);\n      }\n  }\n  function updateTransferOnInsertRecv_transfer_r3(address r,uint n) private   returns (bool) {\n      if(false==paused.b) {\n        address s = msg.sender;\n        BalanceOfTuple memory balanceOfTuple = balanceOf[s];\n        uint m = balanceOfTuple.n;\n        if(n<=m) {\n          updateTotalOutOnInsertTransfer_r23(s,n);\n          updateTotalInOnInsertTransfer_r10(r,n);\n          emit Transfer(s,r,n);\n          return true;\n        }\n      }\n      return false;\n  }\n  function updateBalanceOfOnIncrementTotalIn_r7(address p,int i) private    {\n      int _delta = int(i);\n      uint newValue = updateuintByint(totalIn[p].n,_delta);\n      updateBalanceOfOnInsertTotalIn_r7(p,newValue);\n  }\n  function updateAllowanceOnDeleteSpentTotal_r26(address o,address s,uint l) private    {\n      DecreaseAllowanceTotalTuple memory decreaseAllowanceTotalTuple = decreaseAllowanceTotal[o][s];\n      uint d = decreaseAllowanceTotalTuple.m;\n      AllowanceTotalTuple memory allowanceTotalTuple = allowanceTotal[o][s];\n      uint m = allowanceTotalTuple.m;\n      uint n = (m-l)-d;\n      AllowanceTuple memory allowanceTuple = allowance[o][s];\n      if(n==allowanceTuple.n) {\n        allowance[o][s] = AllowanceTuple(0,false);\n      }\n  }\n  function updateBalanceOfOnDeleteTotalBurn_r7(address p,uint m) private    {\n      TotalInTuple memory totalInTuple = totalIn[p];\n      uint i = totalInTuple.n;\n      TotalOutTuple memory totalOutTuple = totalOut[p];\n      uint o = totalOutTuple.n;\n      TotalMintTuple memory totalMintTuple = totalMint[p];\n      uint n = totalMintTuple.n;\n      uint s = ((n+i)-m)-o;\n      BalanceOfTuple memory balanceOfTuple = balanceOf[p];\n      if(s==balanceOfTuple.n) {\n        balanceOf[p] = BalanceOfTuple(0,false);\n      }\n  }\n  function updateBurnOnInsertRecv_burn_r15(uint n) private   returns (bool) {\n      address p = msg.sender;\n      BalanceOfTuple memory balanceOfTuple = balanceOf[p];\n      uint m = balanceOfTuple.n;\n      if(n<=m) {\n        updateTotalBurnOnInsertBurn_r18(p,n);\n        updateAllBurnOnInsertBurn_r29(n);\n        emit Burn(p,n);\n        return true;\n      }\n      return false;\n  }\n  function updateBalanceOfOnInsertTotalMint_r7(address p,uint n) private    {\n      TotalMintTuple memory toDelete = totalMint[p];\n      if(toDelete._valid==true) {\n        updateBalanceOfOnDeleteTotalMint_r7(p,toDelete.n);\n      }\n      TotalInTuple memory totalInTuple = totalIn[p];\n      uint i = totalInTuple.n;\n      TotalOutTuple memory totalOutTuple = totalOut[p];\n      uint o = totalOutTuple.n;\n      TotalBurnTuple memory totalBurnTuple = totalBurn[p];\n      uint m = totalBurnTuple.n;\n      uint s = ((n+i)-m)-o;\n      balanceOf[p] = BalanceOfTuple(s,true);\n  }\n  function updateIncreaseAllowanceOnInsertRecv_approve_r31(address s,uint n) private   returns (bool) {\n      address o = msg.sender;\n      AllowanceTuple memory allowanceTuple = allowance[o][s];\n      uint m = allowanceTuple.n;\n      uint d = n-m;\n      updateAllowanceTotalOnInsertIncreaseAllowance_r32(o,s,d);\n      emit IncreaseAllowance(o,s,d);\n      return true;\n      return false;\n  }\n  function updateOwnerOnInsertClaimOwnership_r30(address s) private    {\n      owner = OwnerTuple(s,true);\n  }\n  function updateAllowanceOnIncrementSpentTotal_r26(address o,address s,int l) private    {\n      int _delta = int(l);\n      uint newValue = updateuintByint(spentTotal[o][s].m,_delta);\n      updateAllowanceOnInsertSpentTotal_r26(o,s,newValue);\n  }\n  function updateOwnerOnInsertConstructor_r9() private    {\n      address s = msg.sender;\n      owner = OwnerTuple(s,true);\n  }\n  function updateTransferOnInsertReclaimToken_r4(address t,address s,uint n) private    {\n      updateTotalInOnInsertTransfer_r10(s,n);\n      updateTotalOutOnInsertTransfer_r23(t,n);\n      emit Transfer(t,s,n);\n  }\n  function updateAllowanceOnDeleteAllowanceTotal_r26(address o,address s,uint m) private    {\n      DecreaseAllowanceTotalTuple memory decreaseAllowanceTotalTuple = decreaseAllowanceTotal[o][s];\n      uint d = decreaseAllowanceTotalTuple.m;\n      SpentTotalTuple memory spentTotalTuple = spentTotal[o][s];\n      uint l = spentTotalTuple.m;\n      uint n = (m-l)-d;\n      AllowanceTuple memory allowanceTuple = allowance[o][s];\n      if(n==allowanceTuple.n) {\n        allowance[o][s] = AllowanceTuple(0,false);\n      }\n  }\n  function updateTransferOnInsertTransferFrom_r1(address o,address r,uint n) private    {\n      updateTotalOutOnInsertTransfer_r23(o,n);\n      updateTotalInOnInsertTransfer_r10(r,n);\n      emit Transfer(o,r,n);\n  }\n  function updateBalanceOfOnInsertTotalBurn_r7(address p,uint m) private    {\n      TotalBurnTuple memory toDelete = totalBurn[p];\n      if(toDelete._valid==true) {\n        updateBalanceOfOnDeleteTotalBurn_r7(p,toDelete.n);\n      }\n      TotalInTuple memory totalInTuple = totalIn[p];\n      uint i = totalInTuple.n;\n      TotalOutTuple memory totalOutTuple = totalOut[p];\n      uint o = totalOutTuple.n;\n      TotalMintTuple memory totalMintTuple = totalMint[p];\n      uint n = totalMintTuple.n;\n      uint s = ((n+i)-m)-o;\n      balanceOf[p] = BalanceOfTuple(s,true);\n  }\n  function updateTotalOutOnInsertTransfer_r23(address p,uint n) private    {\n      int delta1 = int(n);\n      updateBalanceOfOnIncrementTotalOut_r7(p,delta1);\n      totalOut[p].n += n;\n  }\n  function updateReclaimTokenOnInsertRecv_reclaimToken_r6() private   returns (bool) {\n      address s = msg.sender;\n      if(s==owner.p) {\n        address t = address(this);\n        BalanceOfTuple memory balanceOfTuple = balanceOf[t];\n        uint n = balanceOfTuple.n;\n        updateSendOnInsertReclaimToken_r22(s,n);\n        updateTransferOnInsertReclaimToken_r4(t,s,n);\n        emit ReclaimToken(t,s,n);\n        return true;\n      }\n      return false;\n  }\n  function updateMintOnInsertRecv_mint_r28(address p,uint n) private   returns (bool) {\n      address s = owner.p;\n      if(s==msg.sender) {\n        if(p!=address(0)) {\n          updateAllMintOnInsertMint_r16(n);\n          updateTotalMintOnInsertMint_r19(p,n);\n          emit Mint(p,n);\n          return true;\n        }\n      }\n      return false;\n  }\n  function updateTransferFromOnInsertRecv_transferFrom_r12(address o,address r,uint n) private   returns (bool) {\n      address s = msg.sender;\n      if(false==paused.b) {\n        BalanceOfTuple memory balanceOfTuple = balanceOf[o];\n        uint m = balanceOfTuple.n;\n        AllowanceTuple memory allowanceTuple = allowance[o][s];\n        uint k = allowanceTuple.n;\n        if(m>=n && k>=n) {\n          updateSpentTotalOnInsertTransferFrom_r25(o,s,n);\n          updateTransferOnInsertTransferFrom_r1(o,r,n);\n          emit TransferFrom(o,r,s,n);\n          return true;\n        }\n      }\n      return false;\n  }\n  function updateTotalSupplyOnInsertAllMint_r20(uint m) private    {\n      uint b = allBurn.n;\n      uint n = m-b;\n      totalSupply = TotalSupplyTuple(n,true);\n  }\n  function updateTotalInOnInsertTransfer_r10(address p,uint n) private    {\n      int delta1 = int(n);\n      updateBalanceOfOnIncrementTotalIn_r7(p,delta1);\n      totalIn[p].n += n;\n  }\n  function updateAllowanceOnInsertAllowanceTotal_r26(address o,address s,uint m) private    {\n      AllowanceTotalTuple memory toDelete = allowanceTotal[o][s];\n      if(toDelete._valid==true) {\n        updateAllowanceOnDeleteAllowanceTotal_r26(o,s,toDelete.m);\n      }\n      DecreaseAllowanceTotalTuple memory decreaseAllowanceTotalTuple = decreaseAllowanceTotal[o][s];\n      uint d = decreaseAllowanceTotalTuple.m;\n      SpentTotalTuple memory spentTotalTuple = spentTotal[o][s];\n      uint l = spentTotalTuple.m;\n      uint n = (m-l)-d;\n      allowance[o][s] = AllowanceTuple(n,true);\n  }\n  function updateuintByint(uint x,int delta) private   returns (uint) {\n      int convertedX = int(x);\n      int value = convertedX+delta;\n      uint convertedValue = uint(value);\n      return convertedValue;\n  }\n  function updateAllowanceOnIncrementAllowanceTotal_r26(address o,address s,int m) private    {\n      int _delta = int(m);\n      uint newValue = updateuintByint(allowanceTotal[o][s].m,_delta);\n      updateAllowanceOnInsertAllowanceTotal_r26(o,s,newValue);\n  }\n  function updatePendingOwnerOnInsertClaimOwnership_r2() private    {\n      pendingOwner = PendingOwnerTuple(address(0),true);\n      emit PendingOwner(address(0));\n  }\n  function updateBalanceOfOnDeleteTotalOut_r7(address p,uint o) private    {\n      TotalInTuple memory totalInTuple = totalIn[p];\n      uint i = totalInTuple.n;\n      TotalBurnTuple memory totalBurnTuple = totalBurn[p];\n      uint m = totalBurnTuple.n;\n      TotalMintTuple memory totalMintTuple = totalMint[p];\n      uint n = totalMintTuple.n;\n      uint s = ((n+i)-m)-o;\n      BalanceOfTuple memory balanceOfTuple = balanceOf[p];\n      if(s==balanceOfTuple.n) {\n        balanceOf[p] = BalanceOfTuple(0,false);\n      }\n  }\n  function updateSendOnInsertReclaimToken_r22(address s,uint n) private    {\n      payable(s).send(n);\n  }\n  function updateTotalSupplyOnInsertConstructor_r14() private    {\n      totalSupply = TotalSupplyTuple(0,true);\n  }\n  function updateBalanceOfOnIncrementTotalMint_r7(address p,int n) private    {\n      int _delta = int(n);\n      uint newValue = updateuintByint(totalMint[p].n,_delta);\n      updateBalanceOfOnInsertTotalMint_r7(p,newValue);\n  }\n  function updateBalanceOfOnInsertTotalOut_r7(address p,uint o) private    {\n      TotalOutTuple memory toDelete = totalOut[p];\n      if(toDelete._valid==true) {\n        updateBalanceOfOnDeleteTotalOut_r7(p,toDelete.n);\n      }\n      TotalInTuple memory totalInTuple = totalIn[p];\n      uint i = totalInTuple.n;\n      TotalBurnTuple memory totalBurnTuple = totalBurn[p];\n      uint m = totalBurnTuple.n;\n      TotalMintTuple memory totalMintTuple = totalMint[p];\n      uint n = totalMintTuple.n;\n      uint s = ((n+i)-m)-o;\n      balanceOf[p] = BalanceOfTuple(s,true);\n  }\n  function updateSpentTotalOnInsertTransferFrom_r25(address o,address s,uint n) private    {\n      int delta1 = int(n);\n      updateAllowanceOnIncrementSpentTotal_r26(o,s,delta1);\n      spentTotal[o][s].m += n;\n  }\n  function updateAllowanceOnInsertSpentTotal_r26(address o,address s,uint l) private    {\n      SpentTotalTuple memory toDelete = spentTotal[o][s];\n      if(toDelete._valid==true) {\n        updateAllowanceOnDeleteSpentTotal_r26(o,s,toDelete.m);\n      }\n      DecreaseAllowanceTotalTuple memory decreaseAllowanceTotalTuple = decreaseAllowanceTotal[o][s];\n      uint d = decreaseAllowanceTotalTuple.m;\n      AllowanceTotalTuple memory allowanceTotalTuple = allowanceTotal[o][s];\n      uint m = allowanceTotalTuple.m;\n      uint n = (m-l)-d;\n      allowance[o][s] = AllowanceTuple(n,true);\n  }\n  function updateAllowanceTotalOnInsertIncreaseAllowance_r32(address o,address s,uint n) private    {\n      int delta0 = int(n);\n      updateAllowanceOnIncrementAllowanceTotal_r26(o,s,delta0);\n      allowanceTotal[o][s].m += n;\n  }\n  function updateBalanceOfOnInsertTotalIn_r7(address p,uint i) private    {\n      TotalInTuple memory toDelete = totalIn[p];\n      if(toDelete._valid==true) {\n        updateBalanceOfOnDeleteTotalIn_r7(p,toDelete.n);\n      }\n      TotalOutTuple memory totalOutTuple = totalOut[p];\n      uint o = totalOutTuple.n;\n      TotalBurnTuple memory totalBurnTuple = totalBurn[p];\n      uint m = totalBurnTuple.n;\n      TotalMintTuple memory totalMintTuple = totalMint[p];\n      uint n = totalMintTuple.n;\n      uint s = ((n+i)-m)-o;\n      balanceOf[p] = BalanceOfTuple(s,true);\n  }\n  function updateTotalSupplyOnIncrementAllBurn_r20(int b) private    {\n      int _delta = int(b);\n      uint newValue = updateuintByint(allBurn.n,_delta);\n      updateTotalSupplyOnInsertAllBurn_r20(newValue);\n  }\n  function updateBalanceOfOnIncrementTotalBurn_r7(address p,int m) private    {\n      int _delta = int(m);\n      uint newValue = updateuintByint(totalBurn[p].n,_delta);\n      updateBalanceOfOnInsertTotalBurn_r7(p,newValue);\n  }\n  function updateBalanceOfOnDeleteTotalIn_r7(address p,uint i) private    {\n      TotalOutTuple memory totalOutTuple = totalOut[p];\n      uint o = totalOutTuple.n;\n      TotalBurnTuple memory totalBurnTuple = totalBurn[p];\n      uint m = totalBurnTuple.n;\n      TotalMintTuple memory totalMintTuple = totalMint[p];\n      uint n = totalMintTuple.n;\n      uint s = ((n+i)-m)-o;\n      BalanceOfTuple memory balanceOfTuple = balanceOf[p];\n      if(s==balanceOfTuple.n) {\n        balanceOf[p] = BalanceOfTuple(0,false);\n      }\n  }\n  function updatePausedOnInsertRecv_pause_r13() private   returns (bool) {\n      address s = owner.p;\n      if(s==msg.sender) {\n        paused = PausedTuple(true,true);\n        emit Paused(true);\n        return true;\n      }\n      return false;\n  }\n  function updateTotalSupplyOnIncrementAllMint_r20(int m) private    {\n      int _delta = int(m);\n      uint newValue = updateuintByint(allMint.n,_delta);\n      updateTotalSupplyOnInsertAllMint_r20(newValue);\n  }\n  function updateTotalMintOnInsertMint_r19(address p,uint n) private    {\n      int delta1 = int(n);\n      updateBalanceOfOnIncrementTotalMint_r7(p,delta1);\n      totalMint[p].n += n;\n  }\n  function updatePendingOwnerOnInsertRecv_transferOwnership_r0(address p) private   returns (bool) {\n      address s = owner.p;\n      if(s==msg.sender) {\n        pendingOwner = PendingOwnerTuple(p,true);\n        emit PendingOwner(p);\n        return true;\n      }\n      return false;\n  }\n  function updateAllBurnOnInsertBurn_r29(uint n) private    {\n      int delta0 = int(n);\n      updateTotalSupplyOnIncrementAllBurn_r20(delta0);\n      allBurn.n += n;\n  }\n}",
  "sourcePath": "/Users/ljy/Desktop/PENN/2023_summer/boon_dsc/smart-contracts/optimizations/full/contracts/wbtc.sol",
  "compiler": {
    "name": "solc",
    "version": "0.8.12+commit.f00d7308.Emscripten.clang"
  },
  "schemaVersion": "3.4.13",
  "updatedAt": "2023-07-24T05:57:56.522Z",
  "devdoc": {
    "kind": "dev",
    "methods": {},
    "version": 1
  },
  "userdoc": {
    "kind": "user",
    "methods": {},
    "version": 1
  }
}