{
  "contractName": "Matic",
  "abi": [
    {
      "inputs": [
        {
          "internalType": "uint256",
          "name": "n",
          "type": "uint256"
        }
      ],
      "stateMutability": "nonpayable",
      "type": "constructor"
    },
    {
      "anonymous": false,
      "inputs": [
        {
          "indexed": false,
          "internalType": "address",
          "name": "p",
          "type": "address"
        },
        {
          "indexed": false,
          "internalType": "uint256",
          "name": "amount",
          "type": "uint256"
        }
      ],
      "name": "Burn",
      "type": "event"
    },
    {
      "anonymous": false,
      "inputs": [
        {
          "indexed": false,
          "internalType": "address",
          "name": "p",
          "type": "address"
        },
        {
          "indexed": false,
          "internalType": "address",
          "name": "s",
          "type": "address"
        },
        {
          "indexed": false,
          "internalType": "uint256",
          "name": "n",
          "type": "uint256"
        }
      ],
      "name": "DecreaseAllowance",
      "type": "event"
    },
    {
      "anonymous": false,
      "inputs": [
        {
          "indexed": false,
          "internalType": "address",
          "name": "p",
          "type": "address"
        },
        {
          "indexed": false,
          "internalType": "address",
          "name": "s",
          "type": "address"
        },
        {
          "indexed": false,
          "internalType": "uint256",
          "name": "n",
          "type": "uint256"
        }
      ],
      "name": "IncreaseAllowance",
      "type": "event"
    },
    {
      "anonymous": false,
      "inputs": [
        {
          "indexed": false,
          "internalType": "address",
          "name": "p",
          "type": "address"
        },
        {
          "indexed": false,
          "internalType": "bool",
          "name": "b",
          "type": "bool"
        }
      ],
      "name": "IsPauser",
      "type": "event"
    },
    {
      "anonymous": false,
      "inputs": [
        {
          "indexed": false,
          "internalType": "address",
          "name": "p",
          "type": "address"
        },
        {
          "indexed": false,
          "internalType": "uint256",
          "name": "amount",
          "type": "uint256"
        }
      ],
      "name": "Mint",
      "type": "event"
    },
    {
      "anonymous": false,
      "inputs": [
        {
          "indexed": false,
          "internalType": "bool",
          "name": "b",
          "type": "bool"
        }
      ],
      "name": "Paused",
      "type": "event"
    },
    {
      "anonymous": false,
      "inputs": [
        {
          "indexed": false,
          "internalType": "address",
          "name": "from",
          "type": "address"
        },
        {
          "indexed": false,
          "internalType": "address",
          "name": "to",
          "type": "address"
        },
        {
          "indexed": false,
          "internalType": "uint256",
          "name": "amount",
          "type": "uint256"
        }
      ],
      "name": "Transfer",
      "type": "event"
    },
    {
      "anonymous": false,
      "inputs": [
        {
          "indexed": false,
          "internalType": "address",
          "name": "from",
          "type": "address"
        },
        {
          "indexed": false,
          "internalType": "address",
          "name": "to",
          "type": "address"
        },
        {
          "indexed": false,
          "internalType": "address",
          "name": "spender",
          "type": "address"
        },
        {
          "indexed": false,
          "internalType": "uint256",
          "name": "amount",
          "type": "uint256"
        }
      ],
      "name": "TransferFrom",
      "type": "event"
    },
    {
      "inputs": [
        {
          "internalType": "address",
          "name": "p",
          "type": "address"
        }
      ],
      "name": "addPauser",
      "outputs": [],
      "stateMutability": "nonpayable",
      "type": "function"
    },
    {
      "inputs": [
        {
          "internalType": "address",
          "name": "p",
          "type": "address"
        }
      ],
      "name": "getBalanceOf",
      "outputs": [
        {
          "internalType": "uint256",
          "name": "",
          "type": "uint256"
        }
      ],
      "stateMutability": "view",
      "type": "function"
    },
    {
      "inputs": [
        {
          "internalType": "address",
          "name": "from",
          "type": "address"
        },
        {
          "internalType": "address",
          "name": "to",
          "type": "address"
        },
        {
          "internalType": "uint256",
          "name": "amount",
          "type": "uint256"
        }
      ],
      "name": "transferFrom",
      "outputs": [],
      "stateMutability": "nonpayable",
      "type": "function"
    },
    {
      "inputs": [
        {
          "internalType": "address",
          "name": "to",
          "type": "address"
        },
        {
          "internalType": "uint256",
          "name": "amount",
          "type": "uint256"
        }
      ],
      "name": "transfer",
      "outputs": [],
      "stateMutability": "nonpayable",
      "type": "function"
    },
    {
      "inputs": [
        {
          "internalType": "address",
          "name": "s",
          "type": "address"
        },
        {
          "internalType": "uint256",
          "name": "n",
          "type": "uint256"
        }
      ],
      "name": "approve",
      "outputs": [],
      "stateMutability": "nonpayable",
      "type": "function"
    },
    {
      "inputs": [
        {
          "internalType": "address",
          "name": "p",
          "type": "address"
        },
        {
          "internalType": "uint256",
          "name": "amount",
          "type": "uint256"
        }
      ],
      "name": "mint",
      "outputs": [],
      "stateMutability": "nonpayable",
      "type": "function"
    },
    {
      "inputs": [],
      "name": "unpause",
      "outputs": [],
      "stateMutability": "nonpayable",
      "type": "function"
    },
    {
      "inputs": [
        {
          "internalType": "address",
          "name": "p",
          "type": "address"
        },
        {
          "internalType": "uint256",
          "name": "n",
          "type": "uint256"
        }
      ],
      "name": "increaseAllowance",
      "outputs": [],
      "stateMutability": "nonpayable",
      "type": "function"
    },
    {
      "inputs": [
        {
          "internalType": "address",
          "name": "p",
          "type": "address"
        },
        {
          "internalType": "uint256",
          "name": "n",
          "type": "uint256"
        }
      ],
      "name": "decreaseAllowance",
      "outputs": [],
      "stateMutability": "nonpayable",
      "type": "function"
    },
    {
      "inputs": [],
      "name": "getTotalSupply",
      "outputs": [
        {
          "internalType": "uint256",
          "name": "",
          "type": "uint256"
        }
      ],
      "stateMutability": "view",
      "type": "function"
    },
    {
      "inputs": [
        {
          "internalType": "address",
          "name": "p",
          "type": "address"
        },
        {
          "internalType": "address",
          "name": "s",
          "type": "address"
        }
      ],
      "name": "getAllowance",
      "outputs": [
        {
          "internalType": "uint256",
          "name": "",
          "type": "uint256"
        }
      ],
      "stateMutability": "view",
      "type": "function"
    },
    {
      "inputs": [],
      "name": "renouncePauser",
      "outputs": [],
      "stateMutability": "nonpayable",
      "type": "function"
    },
    {
      "inputs": [
        {
          "internalType": "address",
          "name": "p",
          "type": "address"
        },
        {
          "internalType": "uint256",
          "name": "amount",
          "type": "uint256"
        }
      ],
      "name": "burn",
      "outputs": [],
      "stateMutability": "nonpayable",
      "type": "function"
    },
    {
      "inputs": [],
      "name": "pause",
      "outputs": [],
      "stateMutability": "nonpayable",
      "type": "function"
    }
  ],
  "bytecode": "0x60806040523480156200001157600080fd5b506040516200264e3803806200264e8339818101604052810190620000379190620004d3565b62000047620000c360201b60201c565b62000057620001a460201b60201c565b62000068816200024060201b60201c565b6200007981620002cd60201b60201c565b6200008a81620002d060201b60201c565b6200009b816200035d60201b60201c565b620000ab620003a760201b60201c565b620000bc816200044960201b60201c565b50620005b1565b6000339050604051806040016040528060011515815260200160011515815250600a60008373ffffffffffffffffffffffffffffffffffffffff1673ffffffffffffffffffffffffffffffffffffffff16815260200190815260200160002060008201518160000160006101000a81548160ff02191690831515021790555060208201518160000160016101000a81548160ff0219169083151502179055509050507f8ac9153754152e5b728b2c6bdaca961a07c94cfbf57278f89a9865679d90fe738160016040516200019992919062000567565b60405180910390a150565b604051806040016040528060001515815260200160011515815250601160008201518160000160006101000a81548160ff02191690831515021790555060208201518160000160016101000a81548160ff0219169083151502179055509050507f0e2fb031ee032dc02d8011dc50b816eb450cf856abd8261680dac74f72165bd2600060405162000236919062000594565b60405180910390a1565b6000339050604051806040016040528083815260200160011515815250600d60008373ffffffffffffffffffffffffffffffffffffffff1673ffffffffffffffffffffffffffffffffffffffff1681526020019081526020016000206000820151816000015560208201518160010160006101000a81548160ff0219169083151502179055509050505050565b50565b6000339050604051806040016040528083815260200160011515815250600560008373ffffffffffffffffffffffffffffffffffffffff1673ffffffffffffffffffffffffffffffffffffffff1681526020019081526020016000206000820151816000015560208201518160010160006101000a81548160ff0219169083151502179055509050505050565b60405180604001604052808281526020016001151581525060086000820151816000015560208201518160010160006101000a81548160ff02191690831515021790555090505050565b600033905060405180604001604052808273ffffffffffffffffffffffffffffffffffffffff16815260200160011515815250600360008201518160000160006101000a81548173ffffffffffffffffffffffffffffffffffffffff021916908373ffffffffffffffffffffffffffffffffffffffff16021790555060208201518160000160146101000a81548160ff02191690831515021790555090505050565b60405180604001604052808281526020016001151581525060066000820151816000015560208201518160010160006101000a81548160ff02191690831515021790555090505050565b600080fd5b6000819050919050565b620004ad8162000498565b8114620004b957600080fd5b50565b600081519050620004cd81620004a2565b92915050565b600060208284031215620004ec57620004eb62000493565b5b6000620004fc84828501620004bc565b91505092915050565b600073ffffffffffffffffffffffffffffffffffffffff82169050919050565b6000620005328262000505565b9050919050565b620005448162000525565b82525050565b60008115159050919050565b62000561816200054a565b82525050565b60006040820190506200057e600083018562000539565b6200058d602083018462000556565b9392505050565b6000602082019050620005ab600083018462000556565b92915050565b61208d80620005c16000396000f3fe608060405234801561001057600080fd5b50600436106100ea5760003560e01c806382dc1ec41161008c5780639dc29fac116100665780639dc29fac146101f9578063a457c2d714610215578063a9059cbb14610231578063c4e41b221461024d576100ea565b806382dc1ec4146101a35780638456cb59146101bf5780639b96eece146101c9576100ea565b806339509351116100c857806339509351146101575780633f4ba83a1461017357806340c10f191461017d5780636ef8d66d14610199576100ea565b8063095ea7b3146100ef5780630af4187d1461010b57806323b872dd1461013b575b600080fd5b61010960048036038101906101049190611ce4565b61026b565b005b61012560048036038101906101209190611d24565b6102c6565b6040516101329190611d73565b60405180910390f35b61015560048036038101906101509190611d8e565b610355565b005b610171600480360381019061016c9190611ce4565b6103b2565b005b61017b61040d565b005b61019760048036038101906101929190611ce4565b610464565b005b6101a16104bf565b005b6101bd60048036038101906101b89190611de1565b610516565b005b6101c761056f565b005b6101e360048036038101906101de9190611de1565b6105c6565b6040516101f09190611d73565b60405180910390f35b610213600480360381019061020e9190611ce4565b610617565b005b61022f600480360381019061022a9190611ce4565b610672565b005b61024b60048036038101906102469190611ce4565b6106cd565b005b610255610728565b6040516102629190611d73565b60405180910390f35b6000610277838361073a565b90506000151581151514156102c1576040517f08c379a00000000000000000000000000000000000000000000000000000000081526004016102b890611e6b565b60405180910390fd5b505050565b600080601060008573ffffffffffffffffffffffffffffffffffffffff1673ffffffffffffffffffffffffffffffffffffffff16815260200190815260200160002060008473ffffffffffffffffffffffffffffffffffffffff1673ffffffffffffffffffffffffffffffffffffffff1681526020019081526020016000206000015490508091505092915050565b6000610362848484610948565b90506000151581151514156103ac576040517f08c379a00000000000000000000000000000000000000000000000000000000081526004016103a390611e6b565b60405180910390fd5b50505050565b60006103be8383610d70565b9050600015158115151415610408576040517f08c379a00000000000000000000000000000000000000000000000000000000081526004016103ff90611e6b565b60405180910390fd5b505050565b6000610417610ee8565b9050600015158115151415610461576040517f08c379a000000000000000000000000000000000000000000000000000000000815260040161045890611e6b565b60405180910390fd5b50565b60006104708383611016565b90506000151581151514156104ba576040517f08c379a00000000000000000000000000000000000000000000000000000000081526004016104b190611e6b565b60405180910390fd5b505050565b60006104c9611204565b9050600015158115151415610513576040517f08c379a000000000000000000000000000000000000000000000000000000000815260040161050a90611e6b565b60405180910390fd5b50565b600061052182611350565b905060001515811515141561056b576040517f08c379a000000000000000000000000000000000000000000000000000000000815260040161056290611e6b565b60405180910390fd5b5050565b600061057961149e565b90506000151581151514156105c3576040517f08c379a00000000000000000000000000000000000000000000000000000000081526004016105ba90611e6b565b60405180910390fd5b50565b600080600d60008473ffffffffffffffffffffffffffffffffffffffff1673ffffffffffffffffffffffffffffffffffffffff16815260200190815260200160002060000154905080915050919050565b600061062383836115cc565b905060001515811515141561066d576040517f08c379a000000000000000000000000000000000000000000000000000000000815260040161066490611e6b565b60405180910390fd5b505050565b600061067e8383611810565b90506000151581151514156106c8576040517f08c379a00000000000000000000000000000000000000000000000000000000081526004016106bf90611e6b565b60405180910390fd5b505050565b60006106d98383611a20565b9050600015158115151415610723576040517f08c379a000000000000000000000000000000000000000000000000000000000815260040161071a90611e6b565b60405180910390fd5b505050565b60008060066000015490508091505090565b6000803390506000601060008373ffffffffffffffffffffffffffffffffffffffff1673ffffffffffffffffffffffffffffffffffffffff16815260200190815260200160002060008673ffffffffffffffffffffffffffffffffffffffff1673ffffffffffffffffffffffffffffffffffffffff168152602001908152602001600020600001549050600081856107d29190611eba565b90507f01722f0e92ffd761d4a842cffdd36fe3adb6091e41732a4e714250176b7d8d2283878360405161080793929190611efd565b60405180910390a180600b60008573ffffffffffffffffffffffffffffffffffffffff1673ffffffffffffffffffffffffffffffffffffffff16815260200190815260200160002060008873ffffffffffffffffffffffffffffffffffffffff1673ffffffffffffffffffffffffffffffffffffffff168152602001908152602001600020600001600082825461089e9190611f34565b9250508190555080601060008573ffffffffffffffffffffffffffffffffffffffff1673ffffffffffffffffffffffffffffffffffffffff16815260200190815260200160002060008873ffffffffffffffffffffffffffffffffffffffff1673ffffffffffffffffffffffffffffffffffffffff16815260200190815260200160002060000160008282546109349190611f34565b925050819055506001935050505092915050565b600080339050601160000160009054906101000a900460ff161515600015151415610d63576000600d60008773ffffffffffffffffffffffffffffffffffffffff1673ffffffffffffffffffffffffffffffffffffffff1681526020019081526020016000206000015490506000601060008873ffffffffffffffffffffffffffffffffffffffff1673ffffffffffffffffffffffffffffffffffffffff16815260200190815260200160002060008473ffffffffffffffffffffffffffffffffffffffff1673ffffffffffffffffffffffffffffffffffffffff168152602001908152602001600020600001549050848210158015610a485750848110155b15610d60577f5f7542858008eeb041631f30e6109ae94b83a58e9a58261dd2c42c508850f93987878588604051610a829493929190611f8a565b60405180910390a17fddf252ad1be2c89b69c2b068fc378daa952ba7f163c4a11628f55a4df523b3ef878787604051610abd93929190611efd565b60405180910390a184600160008973ffffffffffffffffffffffffffffffffffffffff1673ffffffffffffffffffffffffffffffffffffffff1681526020019081526020016000206000016000828254610b179190611f34565b9250508190555084600d60008973ffffffffffffffffffffffffffffffffffffffff1673ffffffffffffffffffffffffffffffffffffffff1681526020019081526020016000206000016000828254610b709190611eba565b92505081905550846000808873ffffffffffffffffffffffffffffffffffffffff1673ffffffffffffffffffffffffffffffffffffffff1681526020019081526020016000206000016000828254610bc89190611f34565b9250508190555084600d60008873ffffffffffffffffffffffffffffffffffffffff1673ffffffffffffffffffffffffffffffffffffffff1681526020019081526020016000206000016000828254610c219190611f34565b9250508190555084600c60008973ffffffffffffffffffffffffffffffffffffffff1673ffffffffffffffffffffffffffffffffffffffff16815260200190815260200160002060008573ffffffffffffffffffffffffffffffffffffffff1673ffffffffffffffffffffffffffffffffffffffff1681526020019081526020016000206000016000828254610cb79190611f34565b9250508190555084601060008973ffffffffffffffffffffffffffffffffffffffff1673ffffffffffffffffffffffffffffffffffffffff16815260200190815260200160002060008573ffffffffffffffffffffffffffffffffffffffff1673ffffffffffffffffffffffffffffffffffffffff1681526020019081526020016000206000016000828254610d4d9190611eba565b9250508190555060019350505050610d69565b50505b60009150505b9392505050565b6000803390507f01722f0e92ffd761d4a842cffdd36fe3adb6091e41732a4e714250176b7d8d22818585604051610da993929190611efd565b60405180910390a182600b60008373ffffffffffffffffffffffffffffffffffffffff1673ffffffffffffffffffffffffffffffffffffffff16815260200190815260200160002060008673ffffffffffffffffffffffffffffffffffffffff1673ffffffffffffffffffffffffffffffffffffffff1681526020019081526020016000206000016000828254610e409190611f34565b9250508190555082601060008373ffffffffffffffffffffffffffffffffffffffff1673ffffffffffffffffffffffffffffffffffffffff16815260200190815260200160002060008673ffffffffffffffffffffffffffffffffffffffff1673ffffffffffffffffffffffffffffffffffffffff1681526020019081526020016000206000016000828254610ed69190611f34565b92505081905550600191505092915050565b6000601160000160009054906101000a900460ff16151560011515141561100e576000339050600a60008273ffffffffffffffffffffffffffffffffffffffff1673ffffffffffffffffffffffffffffffffffffffff16815260200190815260200160002060000160009054906101000a900460ff16151560011515141561100c57604051806040016040528060001515815260200160011515815250601160008201518160000160006101000a81548160ff02191690831515021790555060208201518160000160016101000a81548160ff0219169083151502179055509050507f0e2fb031ee032dc02d8011dc50b816eb450cf856abd8261680dac74f72165bd26000604051610ffa9190611fea565b60405180910390a16001915050611013565b505b600090505b90565b6000601160000160009054906101000a900460ff1615156000151514156111f9576000600360000160009054906101000a900473ffffffffffffffffffffffffffffffffffffffff1690503373ffffffffffffffffffffffffffffffffffffffff168173ffffffffffffffffffffffffffffffffffffffff1614156111f757600073ffffffffffffffffffffffffffffffffffffffff168473ffffffffffffffffffffffffffffffffffffffff16146111f6577f0f6798a560793a54c3bcfe86a93cde1e73087d944c0ea20544137d412139688584846040516110fa929190612005565b60405180910390a182600860000160008282546111179190611f34565b9250508190555082600660000160008282546111339190611f34565b9250508190555082600560008673ffffffffffffffffffffffffffffffffffffffff1673ffffffffffffffffffffffffffffffffffffffff168152602001908152602001600020600001600082825461118c9190611f34565b9250508190555082600d60008673ffffffffffffffffffffffffffffffffffffffff1673ffffffffffffffffffffffffffffffffffffffff16815260200190815260200160002060000160008282546111e59190611f34565b9250508190555060019150506111fe565b5b505b600090505b92915050565b600080339050600a60008273ffffffffffffffffffffffffffffffffffffffff1673ffffffffffffffffffffffffffffffffffffffff16815260200190815260200160002060000160009054906101000a900460ff16151560011515141561134757604051806040016040528060001515815260200160011515815250600a60008373ffffffffffffffffffffffffffffffffffffffff1673ffffffffffffffffffffffffffffffffffffffff16815260200190815260200160002060008201518160000160006101000a81548160ff02191690831515021790555060208201518160000160016101000a81548160ff0219169083151502179055509050507f8ac9153754152e5b728b2c6bdaca961a07c94cfbf57278f89a9865679d90fe7381600060405161133592919061202e565b60405180910390a1600191505061134d565b60009150505b90565b600080339050600a60008273ffffffffffffffffffffffffffffffffffffffff1673ffffffffffffffffffffffffffffffffffffffff16815260200190815260200160002060000160009054906101000a900460ff16151560011515141561149357604051806040016040528060011515815260200160011515815250600a60008573ffffffffffffffffffffffffffffffffffffffff1673ffffffffffffffffffffffffffffffffffffffff16815260200190815260200160002060008201518160000160006101000a81548160ff02191690831515021790555060208201518160000160016101000a81548160ff0219169083151502179055509050507f8ac9153754152e5b728b2c6bdaca961a07c94cfbf57278f89a9865679d90fe7383600160405161148192919061202e565b60405180910390a16001915050611499565b60009150505b919050565b6000601160000160009054906101000a900460ff1615156000151514156115c4576000339050600a60008273ffffffffffffffffffffffffffffffffffffffff1673ffffffffffffffffffffffffffffffffffffffff16815260200190815260200160002060000160009054906101000a900460ff1615156001151514156115c257604051806040016040528060011515815260200160011515815250601160008201518160000160006101000a81548160ff02191690831515021790555060208201518160000160016101000a81548160ff0219169083151502179055509050507f0e2fb031ee032dc02d8011dc50b816eb450cf856abd8261680dac74f72165bd260016040516115b09190611fea565b60405180910390a160019150506115c9565b505b600090505b90565b600080339050601160000160009054906101000a900460ff16151560001515141561180457600360000160009054906101000a900473ffffffffffffffffffffffffffffffffffffffff1673ffffffffffffffffffffffffffffffffffffffff168173ffffffffffffffffffffffffffffffffffffffff161415611803576000600d60008673ffffffffffffffffffffffffffffffffffffffff1673ffffffffffffffffffffffffffffffffffffffff168152602001908152602001600020600001549050600073ffffffffffffffffffffffffffffffffffffffff168573ffffffffffffffffffffffffffffffffffffffff16141580156116ce5750808411155b15611801577fcc16f5dbb4873280815c1ee09dbd06736cffcc184412cf7a71a0fdb75d397ca58585604051611704929190612005565b60405180910390a183600260008773ffffffffffffffffffffffffffffffffffffffff1673ffffffffffffffffffffffffffffffffffffffff168152602001908152602001600020600001600082825461175e9190611f34565b9250508190555083600d60008773ffffffffffffffffffffffffffffffffffffffff1673ffffffffffffffffffffffffffffffffffffffff16815260200190815260200160002060000160008282546117b79190611eba565b9250508190555083600e60000160008282546117d39190611f34565b9250508190555083600660000160008282546117ef9190611eba565b9250508190555060019250505061180a565b505b5b60009150505b92915050565b6000803390506000601060008373ffffffffffffffffffffffffffffffffffffffff1673ffffffffffffffffffffffffffffffffffffffff16815260200190815260200160002060008673ffffffffffffffffffffffffffffffffffffffff1673ffffffffffffffffffffffffffffffffffffffff168152602001908152602001600020600001549050838110611a13577f3fda289a93fbd447987ffc8940a1af71a1fad600cc184d06b56d4aa2713935228286866040516118d493929190611efd565b60405180910390a183600460008473ffffffffffffffffffffffffffffffffffffffff1673ffffffffffffffffffffffffffffffffffffffff16815260200190815260200160002060008773ffffffffffffffffffffffffffffffffffffffff1673ffffffffffffffffffffffffffffffffffffffff168152602001908152602001600020600001600082825461196b9190611f34565b9250508190555083601060008473ffffffffffffffffffffffffffffffffffffffff1673ffffffffffffffffffffffffffffffffffffffff16815260200190815260200160002060008773ffffffffffffffffffffffffffffffffffffffff1673ffffffffffffffffffffffffffffffffffffffff1681526020019081526020016000206000016000828254611a019190611eba565b92505081905550600192505050611a1a565b6000925050505b92915050565b6000601160000160009054906101000a900460ff161515600015151415611c405760003390506000600d60008373ffffffffffffffffffffffffffffffffffffffff1673ffffffffffffffffffffffffffffffffffffffff168152602001908152602001600020600001549050808411611c3d577fddf252ad1be2c89b69c2b068fc378daa952ba7f163c4a11628f55a4df523b3ef828686604051611ac793929190611efd565b60405180910390a183600160008473ffffffffffffffffffffffffffffffffffffffff1673ffffffffffffffffffffffffffffffffffffffff1681526020019081526020016000206000016000828254611b219190611f34565b9250508190555083600d60008473ffffffffffffffffffffffffffffffffffffffff1673ffffffffffffffffffffffffffffffffffffffff1681526020019081526020016000206000016000828254611b7a9190611eba565b92505081905550836000808773ffffffffffffffffffffffffffffffffffffffff1673ffffffffffffffffffffffffffffffffffffffff1681526020019081526020016000206000016000828254611bd29190611f34565b9250508190555083600d60008773ffffffffffffffffffffffffffffffffffffffff1673ffffffffffffffffffffffffffffffffffffffff1681526020019081526020016000206000016000828254611c2b9190611f34565b92505081905550600192505050611c45565b50505b600090505b92915050565b600080fd5b600073ffffffffffffffffffffffffffffffffffffffff82169050919050565b6000611c7b82611c50565b9050919050565b611c8b81611c70565b8114611c9657600080fd5b50565b600081359050611ca881611c82565b92915050565b6000819050919050565b611cc181611cae565b8114611ccc57600080fd5b50565b600081359050611cde81611cb8565b92915050565b60008060408385031215611cfb57611cfa611c4b565b5b6000611d0985828601611c99565b9250506020611d1a85828601611ccf565b9150509250929050565b60008060408385031215611d3b57611d3a611c4b565b5b6000611d4985828601611c99565b9250506020611d5a85828601611c99565b9150509250929050565b611d6d81611cae565b82525050565b6000602082019050611d886000830184611d64565b92915050565b600080600060608486031215611da757611da6611c4b565b5b6000611db586828701611c99565b9350506020611dc686828701611c99565b9250506040611dd786828701611ccf565b9150509250925092565b600060208284031215611df757611df6611c4b565b5b6000611e0584828501611c99565b91505092915050565b600082825260208201905092915050565b7f52756c6520636f6e646974696f6e206661696c65640000000000000000000000600082015250565b6000611e55601583611e0e565b9150611e6082611e1f565b602082019050919050565b60006020820190508181036000830152611e8481611e48565b9050919050565b7f4e487b7100000000000000000000000000000000000000000000000000000000600052601160045260246000fd5b6000611ec582611cae565b9150611ed083611cae565b925082821015611ee357611ee2611e8b565b5b828203905092915050565b611ef781611c70565b82525050565b6000606082019050611f126000830186611eee565b611f1f6020830185611eee565b611f2c6040830184611d64565b949350505050565b6000611f3f82611cae565b9150611f4a83611cae565b9250827fffffffffffffffffffffffffffffffffffffffffffffffffffffffffffffffff03821115611f7f57611f7e611e8b565b5b828201905092915050565b6000608082019050611f9f6000830187611eee565b611fac6020830186611eee565b611fb96040830185611eee565b611fc66060830184611d64565b95945050505050565b60008115159050919050565b611fe481611fcf565b82525050565b6000602082019050611fff6000830184611fdb565b92915050565b600060408201905061201a6000830185611eee565b6120276020830184611d64565b9392505050565b60006040820190506120436000830185611eee565b6120506020830184611fdb565b939250505056fea264697066735822122040064925eb87abc13ae418e95e288277851273cb250f172e33141610829f5d3964736f6c634300080c0033",
  "immutableReferences": {},
  "source": "contract Matic {\n  struct TotalInTuple {\n    uint n;\n    bool _valid;\n  }\n  struct TotalOutTuple {\n    uint n;\n    bool _valid;\n  }\n  struct OwnerTuple {\n    address p;\n    bool _valid;\n  }\n  struct DecreaseAllowanceTotalTuple {\n    uint m;\n    bool _valid;\n  }\n  struct TotalMintTuple {\n    uint n;\n    bool _valid;\n  }\n  struct TotalSupplyTuple {\n    uint n;\n    bool _valid;\n  }\n  struct AllMintTuple {\n    uint n;\n    bool _valid;\n  }\n  struct IsPauserTuple {\n    bool b;\n    bool _valid;\n  }\n  struct AllowanceTotalTuple {\n    uint m;\n    bool _valid;\n  }\n  struct SpentTotalTuple {\n    uint m;\n    bool _valid;\n  }\n  struct TotalBurnTuple {\n    uint n;\n    bool _valid;\n  }\n  struct BalanceOfTuple {\n    uint n;\n    bool _valid;\n  }\n  struct AllBurnTuple {\n    uint n;\n    bool _valid;\n  }\n  struct AllowanceTuple {\n    uint n;\n    bool _valid;\n  }\n  struct PausedTuple {\n    bool b;\n    bool _valid;\n  }\n  mapping(address=>TotalInTuple) totalIn;\n  mapping(address=>TotalOutTuple) totalOut;\n  mapping(address=>TotalBurnTuple) totalBurn;\n  OwnerTuple owner;\n  mapping(address=>mapping(address=>DecreaseAllowanceTotalTuple)) decreaseAllowanceTotal;\n  mapping(address=>TotalMintTuple) totalMint;\n  TotalSupplyTuple totalSupply;\n  AllMintTuple allMint;\n  mapping(address=>IsPauserTuple) isPauser;\n  mapping(address=>mapping(address=>AllowanceTotalTuple)) allowanceTotal;\n  mapping(address=>mapping(address=>SpentTotalTuple)) spentTotal;\n  mapping(address=>BalanceOfTuple) balanceOf;\n  AllBurnTuple allBurn;\n  mapping(address=>mapping(address=>AllowanceTuple)) allowance;\n  PausedTuple paused;\n  event Burn(address p,uint amount);\n  event Mint(address p,uint amount);\n  event DecreaseAllowance(address p,address s,uint n);\n  event IncreaseAllowance(address p,address s,uint n);\n  event IsPauser(address p,bool b);\n  event Transfer(address from,address to,uint amount);\n  event Paused(bool b);\n  event TransferFrom(address from,address to,address spender,uint amount);\n  constructor(uint n) public {\n    updateIsPauserOnInsertConstructor_r22();\n    updatePausedOnInsertConstructor_r25();\n    updateBalanceOfOnInsertConstructor_r18(n);\n    updateTotalBalancesOnInsertConstructor_r32(n);\n    updateTotalMintOnInsertConstructor_r20(n);\n    updateAllMintOnInsertConstructor_r12(n);\n    updateOwnerOnInsertConstructor_r6();\n    updateTotalSupplyOnInsertConstructor_r28(n);\n  }\n  function addPauser(address p) public    {\n      bool r5 = updateIsPauserOnInsertRecv_addPauser_r5(p);\n      if(r5==false) {\n        revert(\"Rule condition failed\");\n      }\n  }\n  function getBalanceOf(address p) public view  returns (uint) {\n      uint n = balanceOf[p].n;\n      return n;\n  }\n  function transferFrom(address from,address to,uint amount) public    {\n      bool r2 = updateTransferFromOnInsertRecv_transferFrom_r2(from,to,amount);\n      if(r2==false) {\n        revert(\"Rule condition failed\");\n      }\n  }\n  function transfer(address to,uint amount) public    {\n      bool r11 = updateTransferOnInsertRecv_transfer_r11(to,amount);\n      if(r11==false) {\n        revert(\"Rule condition failed\");\n      }\n  }\n  function approve(address s,uint n) public    {\n      bool r31 = updateIncreaseAllowanceOnInsertRecv_approve_r31(s,n);\n      if(r31==false) {\n        revert(\"Rule condition failed\");\n      }\n  }\n  function mint(address p,uint amount) public    {\n      bool r3 = updateMintOnInsertRecv_mint_r3(p,amount);\n      if(r3==false) {\n        revert(\"Rule condition failed\");\n      }\n  }\n  function unpause() public    {\n      bool r13 = updatePausedOnInsertRecv_unpause_r13();\n      if(r13==false) {\n        revert(\"Rule condition failed\");\n      }\n  }\n  function increaseAllowance(address p,uint n) public    {\n      bool r10 = updateIncreaseAllowanceOnInsertRecv_increaseApproval_r10(p,n);\n      if(r10==false) {\n        revert(\"Rule condition failed\");\n      }\n  }\n  function decreaseAllowance(address p,uint n) public    {\n      bool r17 = updateDecreaseAllowanceOnInsertRecv_decreaseApproval_r17(p,n);\n      if(r17==false) {\n        revert(\"Rule condition failed\");\n      }\n  }\n  function getTotalSupply() public view  returns (uint) {\n      uint n = totalSupply.n;\n      return n;\n  }\n  function getAllowance(address p,address s) public view  returns (uint) {\n      uint n = allowance[p][s].n;\n      return n;\n  }\n  function renouncePauser() public    {\n      bool r0 = updateIsPauserOnInsertRecv_renouncePauser_r0();\n      if(r0==false) {\n        revert(\"Rule condition failed\");\n      }\n  }\n  function burn(address p,uint amount) public    {\n      bool r8 = updateBurnOnInsertRecv_burn_r8(p,amount);\n      if(r8==false) {\n        revert(\"Rule condition failed\");\n      }\n  }\n  function pause() public    {\n      bool r21 = updatePausedOnInsertRecv_pause_r21();\n      if(r21==false) {\n        revert(\"Rule condition failed\");\n      }\n  }\n  function updateBalanceOfOnInsertConstructor_r18(uint n) private    {\n      address s = msg.sender;\n      balanceOf[s] = BalanceOfTuple(n,true);\n  }\n  function updatePausedOnInsertConstructor_r25() private    {\n      paused = PausedTuple(false,true);\n      emit Paused(false);\n  }\n  function updateTransferFromOnInsertRecv_transferFrom_r2(address o,address r,uint n) private   returns (bool) {\n      address s = msg.sender;\n      if(false==paused.b) {\n        uint m = balanceOf[o].n;\n        uint k = allowance[o][s].n;\n        if(m>=n && k>=n) {\n          emit TransferFrom(o,r,s,n);\n          emit Transfer(o,r,n);\n          totalOut[o].n += n;\n          balanceOf[o].n -= n;\n          totalIn[r].n += n;\n          balanceOf[r].n += n;\n          spentTotal[o][s].m += n;\n          allowance[o][s].n -= n;\n          return true;\n        }\n      }\n      return false;\n  }\n  function updateIncreaseAllowanceOnInsertRecv_approve_r31(address s,uint n) private   returns (bool) {\n      address o = msg.sender;\n      uint m = allowance[o][s].n;\n      uint d = n-m;\n      emit IncreaseAllowance(o,s,d);\n      allowanceTotal[o][s].m += d;\n      allowance[o][s].n += d;\n      return true;\n      return false;\n  }\n  function updatePausedOnInsertRecv_pause_r21() private   returns (bool) {\n      if(false==paused.b) {\n        address s = msg.sender;\n        if(true==isPauser[s].b) {\n          paused = PausedTuple(true,true);\n          emit Paused(true);\n          return true;\n        }\n      }\n      return false;\n  }\n  function updatePausedOnInsertRecv_unpause_r13() private   returns (bool) {\n      if(true==paused.b) {\n        address s = msg.sender;\n        if(true==isPauser[s].b) {\n          paused = PausedTuple(false,true);\n          emit Paused(false);\n          return true;\n        }\n      }\n      return false;\n  }\n  function updateTotalBalancesOnInsertConstructor_r32(uint n) private    {\n      // Empty()\n  }\n  function updateTotalMintOnInsertConstructor_r20(uint n) private    {\n      address s = msg.sender;\n      totalMint[s] = TotalMintTuple(n,true);\n  }\n  function updateIsPauserOnInsertConstructor_r22() private    {\n      address s = msg.sender;\n      isPauser[s] = IsPauserTuple(true,true);\n      emit IsPauser(s,true);\n  }\n  function updateTotalSupplyOnInsertConstructor_r28(uint n) private    {\n      totalSupply = TotalSupplyTuple(n,true);\n  }\n  function updateTransferOnInsertRecv_transfer_r11(address r,uint n) private   returns (bool) {\n      if(false==paused.b) {\n        address s = msg.sender;\n        uint m = balanceOf[s].n;\n        if(n<=m) {\n          emit Transfer(s,r,n);\n          totalOut[s].n += n;\n          balanceOf[s].n -= n;\n          totalIn[r].n += n;\n          balanceOf[r].n += n;\n          return true;\n        }\n      }\n      return false;\n  }\n  function updateIsPauserOnInsertRecv_renouncePauser_r0() private   returns (bool) {\n      address s = msg.sender;\n      if(true==isPauser[s].b) {\n        isPauser[s] = IsPauserTuple(false,true);\n        emit IsPauser(s,false);\n        return true;\n      }\n      return false;\n  }\n  function updateIsPauserOnInsertRecv_addPauser_r5(address p) private   returns (bool) {\n      address s = msg.sender;\n      if(true==isPauser[s].b) {\n        isPauser[p] = IsPauserTuple(true,true);\n        emit IsPauser(p,true);\n        return true;\n      }\n      return false;\n  }\n  function updateDecreaseAllowanceOnInsertRecv_decreaseApproval_r17(address s,uint n) private   returns (bool) {\n      address o = msg.sender;\n      uint m = allowance[o][s].n;\n      if(m>=n) {\n        emit DecreaseAllowance(o,s,n);\n        decreaseAllowanceTotal[o][s].m += n;\n        allowance[o][s].n -= n;\n        return true;\n      }\n      return false;\n  }\n  function updateBurnOnInsertRecv_burn_r8(address p,uint n) private   returns (bool) {\n      address s = msg.sender;\n      if(false==paused.b) {\n        if(s==owner.p) {\n          uint m = balanceOf[p].n;\n          if(p!=address(0) && n<=m) {\n            emit Burn(p,n);\n            totalBurn[p].n += n;\n            balanceOf[p].n -= n;\n            allBurn.n += n;\n            totalSupply.n -= n;\n            return true;\n          }\n        }\n      }\n      return false;\n  }\n  function updateOwnerOnInsertConstructor_r6() private    {\n      address s = msg.sender;\n      owner = OwnerTuple(s,true);\n  }\n  function updateAllMintOnInsertConstructor_r12(uint n) private    {\n      allMint = AllMintTuple(n,true);\n  }\n  function updateuintByint(uint x,int delta) private   returns (uint) {\n      int convertedX = int(x);\n      int value = convertedX+delta;\n      uint convertedValue = uint(value);\n      return convertedValue;\n  }\n  function updateIncreaseAllowanceOnInsertRecv_increaseApproval_r10(address s,uint n) private   returns (bool) {\n      address o = msg.sender;\n      emit IncreaseAllowance(o,s,n);\n      allowanceTotal[o][s].m += n;\n      allowance[o][s].n += n;\n      return true;\n      return false;\n  }\n  function updateMintOnInsertRecv_mint_r3(address p,uint n) private   returns (bool) {\n      if(false==paused.b) {\n        address s = owner.p;\n        if(s==msg.sender) {\n          if(p!=address(0)) {\n            emit Mint(p,n);\n            allMint.n += n;\n            totalSupply.n += n;\n            totalMint[p].n += n;\n            balanceOf[p].n += n;\n            return true;\n          }\n        }\n      }\n      return false;\n  }\n}",
  "sourcePath": "/Users/ljy/Desktop/PENN/2023_summer/boon_dsc/smart-contracts/optimizations/ablation/selective-views/contracts/matic.sol",
  "compiler": {
    "name": "solc",
    "version": "0.8.12+commit.f00d7308.Emscripten.clang"
  },
  "schemaVersion": "3.4.13",
  "updatedAt": "2023-07-27T04:47:23.993Z",
  "devdoc": {
    "kind": "dev",
    "methods": {},
    "version": 1
  },
  "userdoc": {
    "kind": "user",
    "methods": {},
    "version": 1
  }
}