{
  "contractName": "Wbtc",
  "abi": [
    {
      "inputs": [],
      "stateMutability": "nonpayable",
      "type": "constructor"
    },
    {
      "anonymous": false,
      "inputs": [
        {
          "indexed": false,
          "internalType": "address",
          "name": "p",
          "type": "address"
        },
        {
          "indexed": false,
          "internalType": "uint256",
          "name": "amount",
          "type": "uint256"
        }
      ],
      "name": "Burn",
      "type": "event"
    },
    {
      "anonymous": false,
      "inputs": [
        {
          "indexed": false,
          "internalType": "address",
          "name": "p",
          "type": "address"
        }
      ],
      "name": "ClaimOwnership",
      "type": "event"
    },
    {
      "anonymous": false,
      "inputs": [
        {
          "indexed": false,
          "internalType": "address",
          "name": "p",
          "type": "address"
        },
        {
          "indexed": false,
          "internalType": "address",
          "name": "s",
          "type": "address"
        },
        {
          "indexed": false,
          "internalType": "uint256",
          "name": "n",
          "type": "uint256"
        }
      ],
      "name": "DecreaseAllowance",
      "type": "event"
    },
    {
      "anonymous": false,
      "inputs": [
        {
          "indexed": false,
          "internalType": "address",
          "name": "p",
          "type": "address"
        },
        {
          "indexed": false,
          "internalType": "address",
          "name": "s",
          "type": "address"
        },
        {
          "indexed": false,
          "internalType": "uint256",
          "name": "n",
          "type": "uint256"
        }
      ],
      "name": "IncreaseAllowance",
      "type": "event"
    },
    {
      "anonymous": false,
      "inputs": [
        {
          "indexed": false,
          "internalType": "address",
          "name": "p",
          "type": "address"
        },
        {
          "indexed": false,
          "internalType": "uint256",
          "name": "amount",
          "type": "uint256"
        }
      ],
      "name": "Mint",
      "type": "event"
    },
    {
      "anonymous": false,
      "inputs": [
        {
          "indexed": false,
          "internalType": "bool",
          "name": "b",
          "type": "bool"
        }
      ],
      "name": "Paused",
      "type": "event"
    },
    {
      "anonymous": false,
      "inputs": [
        {
          "indexed": false,
          "internalType": "address",
          "name": "p",
          "type": "address"
        }
      ],
      "name": "PendingOwner",
      "type": "event"
    },
    {
      "anonymous": false,
      "inputs": [
        {
          "indexed": false,
          "internalType": "address",
          "name": "t",
          "type": "address"
        },
        {
          "indexed": false,
          "internalType": "address",
          "name": "s",
          "type": "address"
        },
        {
          "indexed": false,
          "internalType": "uint256",
          "name": "n",
          "type": "uint256"
        }
      ],
      "name": "ReclaimToken",
      "type": "event"
    },
    {
      "anonymous": false,
      "inputs": [
        {
          "indexed": false,
          "internalType": "address",
          "name": "from",
          "type": "address"
        },
        {
          "indexed": false,
          "internalType": "address",
          "name": "to",
          "type": "address"
        },
        {
          "indexed": false,
          "internalType": "uint256",
          "name": "amount",
          "type": "uint256"
        }
      ],
      "name": "Transfer",
      "type": "event"
    },
    {
      "anonymous": false,
      "inputs": [
        {
          "indexed": false,
          "internalType": "address",
          "name": "from",
          "type": "address"
        },
        {
          "indexed": false,
          "internalType": "address",
          "name": "to",
          "type": "address"
        },
        {
          "indexed": false,
          "internalType": "address",
          "name": "spender",
          "type": "address"
        },
        {
          "indexed": false,
          "internalType": "uint256",
          "name": "amount",
          "type": "uint256"
        }
      ],
      "name": "TransferFrom",
      "type": "event"
    },
    {
      "inputs": [
        {
          "internalType": "address",
          "name": "from",
          "type": "address"
        },
        {
          "internalType": "address",
          "name": "to",
          "type": "address"
        },
        {
          "internalType": "uint256",
          "name": "amount",
          "type": "uint256"
        }
      ],
      "name": "transferFrom",
      "outputs": [],
      "stateMutability": "nonpayable",
      "type": "function"
    },
    {
      "inputs": [
        {
          "internalType": "address",
          "name": "p",
          "type": "address"
        },
        {
          "internalType": "uint256",
          "name": "amount",
          "type": "uint256"
        }
      ],
      "name": "mint",
      "outputs": [],
      "stateMutability": "nonpayable",
      "type": "function"
    },
    {
      "inputs": [],
      "name": "pause",
      "outputs": [],
      "stateMutability": "nonpayable",
      "type": "function"
    },
    {
      "inputs": [
        {
          "internalType": "address",
          "name": "to",
          "type": "address"
        },
        {
          "internalType": "uint256",
          "name": "amount",
          "type": "uint256"
        }
      ],
      "name": "transfer",
      "outputs": [],
      "stateMutability": "nonpayable",
      "type": "function"
    },
    {
      "inputs": [
        {
          "internalType": "address",
          "name": "p",
          "type": "address"
        }
      ],
      "name": "getBalanceOf",
      "outputs": [
        {
          "internalType": "uint256",
          "name": "",
          "type": "uint256"
        }
      ],
      "stateMutability": "view",
      "type": "function"
    },
    {
      "inputs": [
        {
          "internalType": "address",
          "name": "p",
          "type": "address"
        },
        {
          "internalType": "uint256",
          "name": "n",
          "type": "uint256"
        }
      ],
      "name": "increaseApproval",
      "outputs": [],
      "stateMutability": "nonpayable",
      "type": "function"
    },
    {
      "inputs": [],
      "name": "unpause",
      "outputs": [],
      "stateMutability": "nonpayable",
      "type": "function"
    },
    {
      "inputs": [
        {
          "internalType": "address",
          "name": "s",
          "type": "address"
        },
        {
          "internalType": "uint256",
          "name": "n",
          "type": "uint256"
        }
      ],
      "name": "approve",
      "outputs": [],
      "stateMutability": "nonpayable",
      "type": "function"
    },
    {
      "inputs": [],
      "name": "claimOwnership",
      "outputs": [],
      "stateMutability": "nonpayable",
      "type": "function"
    },
    {
      "inputs": [
        {
          "internalType": "uint256",
          "name": "amount",
          "type": "uint256"
        }
      ],
      "name": "burn",
      "outputs": [],
      "stateMutability": "nonpayable",
      "type": "function"
    },
    {
      "inputs": [
        {
          "internalType": "address",
          "name": "p",
          "type": "address"
        }
      ],
      "name": "transferOwnership",
      "outputs": [],
      "stateMutability": "nonpayable",
      "type": "function"
    },
    {
      "inputs": [
        {
          "internalType": "address",
          "name": "p",
          "type": "address"
        },
        {
          "internalType": "uint256",
          "name": "n",
          "type": "uint256"
        }
      ],
      "name": "decreaseApproval",
      "outputs": [],
      "stateMutability": "nonpayable",
      "type": "function"
    },
    {
      "inputs": [],
      "name": "getTotalSupply",
      "outputs": [
        {
          "internalType": "uint256",
          "name": "",
          "type": "uint256"
        }
      ],
      "stateMutability": "view",
      "type": "function"
    },
    {
      "inputs": [
        {
          "internalType": "address",
          "name": "p",
          "type": "address"
        },
        {
          "internalType": "address",
          "name": "s",
          "type": "address"
        }
      ],
      "name": "getAllowance",
      "outputs": [
        {
          "internalType": "uint256",
          "name": "",
          "type": "uint256"
        }
      ],
      "stateMutability": "view",
      "type": "function"
    },
    {
      "inputs": [],
      "name": "reclaimToken",
      "outputs": [],
      "stateMutability": "nonpayable",
      "type": "function"
    }
  ],
  "bytecode": "0x60806040523480156200001157600080fd5b50620000226200004860201b60201c565b62000032620000ea60201b60201c565b620000426200013460201b60201c565b62000136565b600033905060405180604001604052808273ffffffffffffffffffffffffffffffffffffffff16815260200160011515815250600360008201518160000160006101000a81548173ffffffffffffffffffffffffffffffffffffffff021916908373ffffffffffffffffffffffffffffffffffffffff16021790555060208201518160000160146101000a81548160ff02191690831515021790555090505050565b6040518060400160405280600081526020016001151581525060076000820151816000015560208201518160010160006101000a81548160ff021916908315150217905550905050565b565b61238780620001466000396000f3fe608060405234801561001057600080fd5b50600436106100f55760003560e01c80636618846311610097578063c4e41b2211610066578063c4e41b2214610220578063d73dd6231461023e578063f2fde38b1461025a578063fff2813714610276576100f5565b806366188463146101ae5780638456cb59146101ca5780639b96eece146101d4578063a9059cbb14610204576100f5565b80633f4ba83a116100d35780633f4ba83a1461016257806340c10f191461016c57806342966c68146101885780634e71e0c8146101a4576100f5565b8063095ea7b3146100fa5780630af4187d1461011657806323b872dd14610146575b600080fd5b610114600480360381019061010f9190611fbf565b610280565b005b610130600480360381019061012b9190611fff565b6102db565b60405161013d919061204e565b60405180910390f35b610160600480360381019061015b9190612069565b61036a565b005b61016a6103c7565b005b61018660048036038101906101819190611fbf565b61041e565b005b6101a2600480360381019061019d91906120bc565b610479565b005b6101ac6104d2565b005b6101c860048036038101906101c39190611fbf565b610529565b005b6101d2610584565b005b6101ee60048036038101906101e991906120e9565b6105db565b6040516101fb919061204e565b60405180910390f35b61021e60048036038101906102199190611fbf565b61062c565b005b610228610687565b604051610235919061204e565b60405180910390f35b61025860048036038101906102539190611fbf565b610699565b005b610274600480360381019061026f91906120e9565b6106f4565b005b61027e61074d565b005b600061028c83836107a4565b90506000151581151514156102d6576040517f08c379a00000000000000000000000000000000000000000000000000000000081526004016102cd90612173565b60405180910390fd5b505050565b600080601060008573ffffffffffffffffffffffffffffffffffffffff1673ffffffffffffffffffffffffffffffffffffffff16815260200190815260200160002060008473ffffffffffffffffffffffffffffffffffffffff1673ffffffffffffffffffffffffffffffffffffffff1681526020019081526020016000206000015490508091505092915050565b60006103778484846109b2565b90506000151581151514156103c1576040517f08c379a00000000000000000000000000000000000000000000000000000000081526004016103b890612173565b60405180910390fd5b50505050565b60006103d1610dda565b905060001515811515141561041b576040517f08c379a000000000000000000000000000000000000000000000000000000000815260040161041290612173565b60405180910390fd5b50565b600061042a8383610ee4565b9050600015158115151415610474576040517f08c379a000000000000000000000000000000000000000000000000000000000815260040161046b90612173565b60405180910390fd5b505050565b6000610484826110b1565b90506000151581151514156104ce576040517f08c379a00000000000000000000000000000000000000000000000000000000081526004016104c590612173565b60405180910390fd5b5050565b60006104dc61123f565b9050600015158115151415610526576040517f08c379a000000000000000000000000000000000000000000000000000000000815260040161051d90612173565b60405180910390fd5b50565b60006105358383611455565b905060001515811515141561057f576040517f08c379a000000000000000000000000000000000000000000000000000000000815260040161057690612173565b60405180910390fd5b505050565b600061058e611665565b90506000151581151514156105d8576040517f08c379a00000000000000000000000000000000000000000000000000000000081526004016105cf90612173565b60405180910390fd5b50565b600080600d60008473ffffffffffffffffffffffffffffffffffffffff1673ffffffffffffffffffffffffffffffffffffffff16815260200190815260200160002060000154905080915050919050565b6000610638838361176f565b9050600015158115151415610682576040517f08c379a000000000000000000000000000000000000000000000000000000000815260040161067990612173565b60405180910390fd5b505050565b60008060076000015490508091505090565b60006106a5838361199a565b90506000151581151514156106ef576040517f08c379a00000000000000000000000000000000000000000000000000000000081526004016106e690612173565b60405180910390fd5b505050565b60006106ff82611b12565b9050600015158115151415610749576040517f08c379a000000000000000000000000000000000000000000000000000000000815260040161074090612173565b60405180910390fd5b5050565b6000610757611c57565b90506000151581151514156107a1576040517f08c379a000000000000000000000000000000000000000000000000000000000815260040161079890612173565b60405180910390fd5b50565b6000803390506000601060008373ffffffffffffffffffffffffffffffffffffffff1673ffffffffffffffffffffffffffffffffffffffff16815260200190815260200160002060008673ffffffffffffffffffffffffffffffffffffffff1673ffffffffffffffffffffffffffffffffffffffff1681526020019081526020016000206000015490506000818561083c91906121c2565b90507f01722f0e92ffd761d4a842cffdd36fe3adb6091e41732a4e714250176b7d8d2283878360405161087193929190612205565b60405180910390a180600b60008573ffffffffffffffffffffffffffffffffffffffff1673ffffffffffffffffffffffffffffffffffffffff16815260200190815260200160002060008873ffffffffffffffffffffffffffffffffffffffff1673ffffffffffffffffffffffffffffffffffffffff1681526020019081526020016000206000016000828254610908919061223c565b9250508190555080601060008573ffffffffffffffffffffffffffffffffffffffff1673ffffffffffffffffffffffffffffffffffffffff16815260200190815260200160002060008873ffffffffffffffffffffffffffffffffffffffff1673ffffffffffffffffffffffffffffffffffffffff168152602001908152602001600020600001600082825461099e919061223c565b925050819055506001935050505092915050565b600080339050601160000160009054906101000a900460ff161515600015151415610dcd576000600d60008773ffffffffffffffffffffffffffffffffffffffff1673ffffffffffffffffffffffffffffffffffffffff1681526020019081526020016000206000015490506000601060008873ffffffffffffffffffffffffffffffffffffffff1673ffffffffffffffffffffffffffffffffffffffff16815260200190815260200160002060008473ffffffffffffffffffffffffffffffffffffffff1673ffffffffffffffffffffffffffffffffffffffff168152602001908152602001600020600001549050848210158015610ab25750848110155b15610dca577f5f7542858008eeb041631f30e6109ae94b83a58e9a58261dd2c42c508850f93987878588604051610aec9493929190612292565b60405180910390a17fddf252ad1be2c89b69c2b068fc378daa952ba7f163c4a11628f55a4df523b3ef878787604051610b2793929190612205565b60405180910390a184600160008973ffffffffffffffffffffffffffffffffffffffff1673ffffffffffffffffffffffffffffffffffffffff1681526020019081526020016000206000016000828254610b81919061223c565b9250508190555084600d60008973ffffffffffffffffffffffffffffffffffffffff1673ffffffffffffffffffffffffffffffffffffffff1681526020019081526020016000206000016000828254610bda91906121c2565b92505081905550846000808873ffffffffffffffffffffffffffffffffffffffff1673ffffffffffffffffffffffffffffffffffffffff1681526020019081526020016000206000016000828254610c32919061223c565b9250508190555084600d60008873ffffffffffffffffffffffffffffffffffffffff1673ffffffffffffffffffffffffffffffffffffffff1681526020019081526020016000206000016000828254610c8b919061223c565b9250508190555084600c60008973ffffffffffffffffffffffffffffffffffffffff1673ffffffffffffffffffffffffffffffffffffffff16815260200190815260200160002060008573ffffffffffffffffffffffffffffffffffffffff1673ffffffffffffffffffffffffffffffffffffffff1681526020019081526020016000206000016000828254610d21919061223c565b9250508190555084601060008973ffffffffffffffffffffffffffffffffffffffff1673ffffffffffffffffffffffffffffffffffffffff16815260200190815260200160002060008573ffffffffffffffffffffffffffffffffffffffff1673ffffffffffffffffffffffffffffffffffffffff1681526020019081526020016000206000016000828254610db791906121c2565b9250508190555060019350505050610dd3565b50505b60009150505b9392505050565b600080600360000160009054906101000a900473ffffffffffffffffffffffffffffffffffffffff1690503373ffffffffffffffffffffffffffffffffffffffff168173ffffffffffffffffffffffffffffffffffffffff161415610edb57604051806040016040528060001515815260200160011515815250601160008201518160000160006101000a81548160ff02191690831515021790555060208201518160000160016101000a81548160ff0219169083151502179055509050507f0e2fb031ee032dc02d8011dc50b816eb450cf856abd8261680dac74f72165bd26000604051610ec991906122f2565b60405180910390a16001915050610ee1565b60009150505b90565b600080600360000160009054906101000a900473ffffffffffffffffffffffffffffffffffffffff1690503373ffffffffffffffffffffffffffffffffffffffff168173ffffffffffffffffffffffffffffffffffffffff1614156110a557600073ffffffffffffffffffffffffffffffffffffffff168473ffffffffffffffffffffffffffffffffffffffff16146110a4577f0f6798a560793a54c3bcfe86a93cde1e73087d944c0ea20544137d41213968858484604051610fa892919061230d565b60405180910390a18260096000016000828254610fc5919061223c565b925050819055508260076000016000828254610fe1919061223c565b9250508190555082600660008673ffffffffffffffffffffffffffffffffffffffff1673ffffffffffffffffffffffffffffffffffffffff168152602001908152602001600020600001600082825461103a919061223c565b9250508190555082600d60008673ffffffffffffffffffffffffffffffffffffffff1673ffffffffffffffffffffffffffffffffffffffff1681526020019081526020016000206000016000828254611093919061223c565b9250508190555060019150506110ab565b5b60009150505b92915050565b6000803390506000600d60008373ffffffffffffffffffffffffffffffffffffffff1673ffffffffffffffffffffffffffffffffffffffff168152602001908152602001600020600001549050808411611233577fcc16f5dbb4873280815c1ee09dbd06736cffcc184412cf7a71a0fdb75d397ca5828560405161113692919061230d565b60405180910390a183600260008473ffffffffffffffffffffffffffffffffffffffff1673ffffffffffffffffffffffffffffffffffffffff1681526020019081526020016000206000016000828254611190919061223c565b9250508190555083600d60008473ffffffffffffffffffffffffffffffffffffffff1673ffffffffffffffffffffffffffffffffffffffff16815260200190815260200160002060000160008282546111e991906121c2565b9250508190555083600e6000016000828254611205919061223c565b92505081905550836007600001600082825461122191906121c2565b9250508190555060019250505061123a565b6000925050505b919050565b600080600460000160009054906101000a900473ffffffffffffffffffffffffffffffffffffffff1690503373ffffffffffffffffffffffffffffffffffffffff168173ffffffffffffffffffffffffffffffffffffffff16141561144c577f85a8c8100c1d48466310240af79644f50cdae7d09cb4820d60dfc5b2462f0fd0816040516112cd9190612336565b60405180910390a16040518060400160405280600073ffffffffffffffffffffffffffffffffffffffff16815260200160011515815250600460008201518160000160006101000a81548173ffffffffffffffffffffffffffffffffffffffff021916908373ffffffffffffffffffffffffffffffffffffffff16021790555060208201518160000160146101000a81548160ff0219169083151502179055509050507f4306745d208e8707535ce9418abeb2b0a7136ecb794c23956c829fff4fc18f8960006040516113a09190612336565b60405180910390a160405180604001604052808273ffffffffffffffffffffffffffffffffffffffff16815260200160011515815250600360008201518160000160006101000a81548173ffffffffffffffffffffffffffffffffffffffff021916908373ffffffffffffffffffffffffffffffffffffffff16021790555060208201518160000160146101000a81548160ff0219169083151502179055509050506001915050611452565b60009150505b90565b6000803390506000601060008373ffffffffffffffffffffffffffffffffffffffff1673ffffffffffffffffffffffffffffffffffffffff16815260200190815260200160002060008673ffffffffffffffffffffffffffffffffffffffff1673ffffffffffffffffffffffffffffffffffffffff168152602001908152602001600020600001549050838110611658577f3fda289a93fbd447987ffc8940a1af71a1fad600cc184d06b56d4aa27139352282868660405161151993929190612205565b60405180910390a183600560008473ffffffffffffffffffffffffffffffffffffffff1673ffffffffffffffffffffffffffffffffffffffff16815260200190815260200160002060008773ffffffffffffffffffffffffffffffffffffffff1673ffffffffffffffffffffffffffffffffffffffff16815260200190815260200160002060000160008282546115b0919061223c565b9250508190555083601060008473ffffffffffffffffffffffffffffffffffffffff1673ffffffffffffffffffffffffffffffffffffffff16815260200190815260200160002060008773ffffffffffffffffffffffffffffffffffffffff1673ffffffffffffffffffffffffffffffffffffffff168152602001908152602001600020600001600082825461164691906121c2565b9250508190555060019250505061165f565b6000925050505b92915050565b600080600360000160009054906101000a900473ffffffffffffffffffffffffffffffffffffffff1690503373ffffffffffffffffffffffffffffffffffffffff168173ffffffffffffffffffffffffffffffffffffffff16141561176657604051806040016040528060011515815260200160011515815250601160008201518160000160006101000a81548160ff02191690831515021790555060208201518160000160016101000a81548160ff0219169083151502179055509050507f0e2fb031ee032dc02d8011dc50b816eb450cf856abd8261680dac74f72165bd2600160405161175491906122f2565b60405180910390a1600191505061176c565b60009150505b90565b6000601160000160009054906101000a900460ff16151560001515141561198f5760003390506000600d60008373ffffffffffffffffffffffffffffffffffffffff1673ffffffffffffffffffffffffffffffffffffffff16815260200190815260200160002060000154905080841161198c577fddf252ad1be2c89b69c2b068fc378daa952ba7f163c4a11628f55a4df523b3ef82868660405161181693929190612205565b60405180910390a183600160008473ffffffffffffffffffffffffffffffffffffffff1673ffffffffffffffffffffffffffffffffffffffff1681526020019081526020016000206000016000828254611870919061223c565b9250508190555083600d60008473ffffffffffffffffffffffffffffffffffffffff1673ffffffffffffffffffffffffffffffffffffffff16815260200190815260200160002060000160008282546118c991906121c2565b92505081905550836000808773ffffffffffffffffffffffffffffffffffffffff1673ffffffffffffffffffffffffffffffffffffffff1681526020019081526020016000206000016000828254611921919061223c565b9250508190555083600d60008773ffffffffffffffffffffffffffffffffffffffff1673ffffffffffffffffffffffffffffffffffffffff168152602001908152602001600020600001600082825461197a919061223c565b92505081905550600192505050611994565b50505b600090505b92915050565b6000803390507f01722f0e92ffd761d4a842cffdd36fe3adb6091e41732a4e714250176b7d8d228185856040516119d393929190612205565b60405180910390a182600b60008373ffffffffffffffffffffffffffffffffffffffff1673ffffffffffffffffffffffffffffffffffffffff16815260200190815260200160002060008673ffffffffffffffffffffffffffffffffffffffff1673ffffffffffffffffffffffffffffffffffffffff1681526020019081526020016000206000016000828254611a6a919061223c565b9250508190555082601060008373ffffffffffffffffffffffffffffffffffffffff1673ffffffffffffffffffffffffffffffffffffffff16815260200190815260200160002060008673ffffffffffffffffffffffffffffffffffffffff1673ffffffffffffffffffffffffffffffffffffffff1681526020019081526020016000206000016000828254611b00919061223c565b92505081905550600191505092915050565b600080600360000160009054906101000a900473ffffffffffffffffffffffffffffffffffffffff1690503373ffffffffffffffffffffffffffffffffffffffff168173ffffffffffffffffffffffffffffffffffffffff161415611c4c5760405180604001604052808473ffffffffffffffffffffffffffffffffffffffff16815260200160011515815250600460008201518160000160006101000a81548173ffffffffffffffffffffffffffffffffffffffff021916908373ffffffffffffffffffffffffffffffffffffffff16021790555060208201518160000160146101000a81548160ff0219169083151502179055509050507f4306745d208e8707535ce9418abeb2b0a7136ecb794c23956c829fff4fc18f8983604051611c3a9190612336565b60405180910390a16001915050611c52565b60009150505b919050565b600080339050600360000160009054906101000a900473ffffffffffffffffffffffffffffffffffffffff1673ffffffffffffffffffffffffffffffffffffffff168173ffffffffffffffffffffffffffffffffffffffff161415611f1d5760003090506000600d60008373ffffffffffffffffffffffffffffffffffffffff1673ffffffffffffffffffffffffffffffffffffffff1681526020019081526020016000206000015490507fc016730911d66378b481a7db6a27b66ee03f202be57a4ba7f7a839b6f2f45f3b828483604051611d3593929190612205565b60405180910390a17fddf252ad1be2c89b69c2b068fc378daa952ba7f163c4a11628f55a4df523b3ef828483604051611d7093929190612205565b60405180910390a180600160008473ffffffffffffffffffffffffffffffffffffffff1673ffffffffffffffffffffffffffffffffffffffff1681526020019081526020016000206000016000828254611dca919061223c565b9250508190555080600d60008473ffffffffffffffffffffffffffffffffffffffff1673ffffffffffffffffffffffffffffffffffffffff1681526020019081526020016000206000016000828254611e2391906121c2565b92505081905550806000808573ffffffffffffffffffffffffffffffffffffffff1673ffffffffffffffffffffffffffffffffffffffff1681526020019081526020016000206000016000828254611e7b919061223c565b9250508190555080600d60008573ffffffffffffffffffffffffffffffffffffffff1673ffffffffffffffffffffffffffffffffffffffff1681526020019081526020016000206000016000828254611ed4919061223c565b925050819055508273ffffffffffffffffffffffffffffffffffffffff166108fc829081150290604051600060405180830381858888f193505050505060019350505050611f23565b60009150505b90565b600080fd5b600073ffffffffffffffffffffffffffffffffffffffff82169050919050565b6000611f5682611f2b565b9050919050565b611f6681611f4b565b8114611f7157600080fd5b50565b600081359050611f8381611f5d565b92915050565b6000819050919050565b611f9c81611f89565b8114611fa757600080fd5b50565b600081359050611fb981611f93565b92915050565b60008060408385031215611fd657611fd5611f26565b5b6000611fe485828601611f74565b9250506020611ff585828601611faa565b9150509250929050565b6000806040838503121561201657612015611f26565b5b600061202485828601611f74565b925050602061203585828601611f74565b9150509250929050565b61204881611f89565b82525050565b6000602082019050612063600083018461203f565b92915050565b60008060006060848603121561208257612081611f26565b5b600061209086828701611f74565b93505060206120a186828701611f74565b92505060406120b286828701611faa565b9150509250925092565b6000602082840312156120d2576120d1611f26565b5b60006120e084828501611faa565b91505092915050565b6000602082840312156120ff576120fe611f26565b5b600061210d84828501611f74565b91505092915050565b600082825260208201905092915050565b7f52756c6520636f6e646974696f6e206661696c65640000000000000000000000600082015250565b600061215d601583612116565b915061216882612127565b602082019050919050565b6000602082019050818103600083015261218c81612150565b9050919050565b7f4e487b7100000000000000000000000000000000000000000000000000000000600052601160045260246000fd5b60006121cd82611f89565b91506121d883611f89565b9250828210156121eb576121ea612193565b5b828203905092915050565b6121ff81611f4b565b82525050565b600060608201905061221a60008301866121f6565b61222760208301856121f6565b612234604083018461203f565b949350505050565b600061224782611f89565b915061225283611f89565b9250827fffffffffffffffffffffffffffffffffffffffffffffffffffffffffffffffff0382111561228757612286612193565b5b828201905092915050565b60006080820190506122a760008301876121f6565b6122b460208301866121f6565b6122c160408301856121f6565b6122ce606083018461203f565b95945050505050565b60008115159050919050565b6122ec816122d7565b82525050565b600060208201905061230760008301846122e3565b92915050565b600060408201905061232260008301856121f6565b61232f602083018461203f565b9392505050565b600060208201905061234b60008301846121f6565b9291505056fea26469706673582212201b7ffadc42627ee2a69dc4f3e7470491eb10a0079a51fa6fd1908bdd77d2465f64736f6c634300080c0033",
  "immutableReferences": {},
  "source": "contract Wbtc {\n  struct TotalInTuple {\n    uint n;\n    bool _valid;\n  }\n  struct TotalOutTuple {\n    uint n;\n    bool _valid;\n  }\n  struct OwnerTuple {\n    address p;\n    bool _valid;\n  }\n  struct PendingOwnerTuple {\n    address p;\n    bool _valid;\n  }\n  struct TotalMintTuple {\n    uint n;\n    bool _valid;\n  }\n  struct TotalSupplyTuple {\n    uint n;\n    bool _valid;\n  }\n  struct AllMintTuple {\n    uint n;\n    bool _valid;\n  }\n  struct AllowanceTotalTuple {\n    uint m;\n    bool _valid;\n  }\n  struct SpentTotalTuple {\n    uint m;\n    bool _valid;\n  }\n  struct TotalBurnTuple {\n    uint n;\n    bool _valid;\n  }\n  struct DecreaseAllowanceTotalTuple {\n    uint m;\n    bool _valid;\n  }\n  struct BalanceOfTuple {\n    uint n;\n    bool _valid;\n  }\n  struct AllBurnTuple {\n    uint n;\n    bool _valid;\n  }\n  struct AllowanceTuple {\n    uint n;\n    bool _valid;\n  }\n  struct PausedTuple {\n    bool b;\n    bool _valid;\n  }\n  mapping(address=>TotalInTuple) totalIn;\n  mapping(address=>TotalOutTuple) totalOut;\n  mapping(address=>TotalBurnTuple) totalBurn;\n  OwnerTuple owner;\n  PendingOwnerTuple pendingOwner;\n  mapping(address=>mapping(address=>DecreaseAllowanceTotalTuple)) decreaseAllowanceTotal;\n  mapping(address=>TotalMintTuple) totalMint;\n  TotalSupplyTuple totalSupply;\n  AllMintTuple allMint;\n  mapping(address=>mapping(address=>AllowanceTotalTuple)) allowanceTotal;\n  mapping(address=>mapping(address=>SpentTotalTuple)) spentTotal;\n  mapping(address=>BalanceOfTuple) balanceOf;\n  AllBurnTuple allBurn;\n  mapping(address=>mapping(address=>AllowanceTuple)) allowance;\n  PausedTuple paused;\n  event Burn(address p,uint amount);\n  event ReclaimToken(address t,address s,uint n);\n  event Mint(address p,uint amount);\n  event PendingOwner(address p);\n  event ClaimOwnership(address p);\n  event DecreaseAllowance(address p,address s,uint n);\n  event IncreaseAllowance(address p,address s,uint n);\n  event Transfer(address from,address to,uint amount);\n  event Paused(bool b);\n  event TransferFrom(address from,address to,address spender,uint amount);\n  constructor() public {\n    updateOwnerOnInsertConstructor_r9();\n    updateTotalSupplyOnInsertConstructor_r14();\n    updateTotalBalancesOnInsertConstructor_r33();\n  }\n  function transferFrom(address from,address to,uint amount) public    {\n      bool r12 = updateTransferFromOnInsertRecv_transferFrom_r12(from,to,amount);\n      if(r12==false) {\n        revert(\"Rule condition failed\");\n      }\n  }\n  function mint(address p,uint amount) public    {\n      bool r28 = updateMintOnInsertRecv_mint_r28(p,amount);\n      if(r28==false) {\n        revert(\"Rule condition failed\");\n      }\n  }\n  function pause() public    {\n      bool r13 = updatePausedOnInsertRecv_pause_r13();\n      if(r13==false) {\n        revert(\"Rule condition failed\");\n      }\n  }\n  function transfer(address to,uint amount) public    {\n      bool r3 = updateTransferOnInsertRecv_transfer_r3(to,amount);\n      if(r3==false) {\n        revert(\"Rule condition failed\");\n      }\n  }\n  function getBalanceOf(address p) public view  returns (uint) {\n      uint n = balanceOf[p].n;\n      return n;\n  }\n  function increaseApproval(address p,uint n) public    {\n      bool r17 = updateIncreaseAllowanceOnInsertRecv_increaseApproval_r17(p,n);\n      if(r17==false) {\n        revert(\"Rule condition failed\");\n      }\n  }\n  function unpause() public    {\n      bool r27 = updatePausedOnInsertRecv_unpause_r27();\n      if(r27==false) {\n        revert(\"Rule condition failed\");\n      }\n  }\n  function approve(address s,uint n) public    {\n      bool r31 = updateIncreaseAllowanceOnInsertRecv_approve_r31(s,n);\n      if(r31==false) {\n        revert(\"Rule condition failed\");\n      }\n  }\n  function claimOwnership() public    {\n      bool r11 = updateClaimOwnershipOnInsertRecv_claimOwnership_r11();\n      if(r11==false) {\n        revert(\"Rule condition failed\");\n      }\n  }\n  function burn(uint amount) public    {\n      bool r15 = updateBurnOnInsertRecv_burn_r15(amount);\n      if(r15==false) {\n        revert(\"Rule condition failed\");\n      }\n  }\n  function transferOwnership(address p) public    {\n      bool r0 = updatePendingOwnerOnInsertRecv_transferOwnership_r0(p);\n      if(r0==false) {\n        revert(\"Rule condition failed\");\n      }\n  }\n  function decreaseApproval(address p,uint n) public    {\n      bool r21 = updateDecreaseAllowanceOnInsertRecv_decreaseApproval_r21(p,n);\n      if(r21==false) {\n        revert(\"Rule condition failed\");\n      }\n  }\n  function getTotalSupply() public view  returns (uint) {\n      uint n = totalSupply.n;\n      return n;\n  }\n  function getAllowance(address p,address s) public view  returns (uint) {\n      uint n = allowance[p][s].n;\n      return n;\n  }\n  function reclaimToken() public    {\n      bool r6 = updateReclaimTokenOnInsertRecv_reclaimToken_r6();\n      if(r6==false) {\n        revert(\"Rule condition failed\");\n      }\n  }\n  function updateBurnOnInsertRecv_burn_r15(uint n) private   returns (bool) {\n      address p = msg.sender;\n      uint m = balanceOf[p].n;\n      if(n<=m) {\n        emit Burn(p,n);\n        totalBurn[p].n += n;\n        balanceOf[p].n -= n;\n        allBurn.n += n;\n        totalSupply.n -= n;\n        return true;\n      }\n      return false;\n  }\n  function updatePausedOnInsertRecv_unpause_r27() private   returns (bool) {\n      address s = owner.p;\n      if(s==msg.sender) {\n        paused = PausedTuple(false,true);\n        emit Paused(false);\n        return true;\n      }\n      return false;\n  }\n  function updateReclaimTokenOnInsertRecv_reclaimToken_r6() private   returns (bool) {\n      address s = msg.sender;\n      if(s==owner.p) {\n        address t = address(this);\n        uint n = balanceOf[t].n;\n        emit ReclaimToken(t,s,n);\n        emit Transfer(t,s,n);\n        totalOut[t].n += n;\n        balanceOf[t].n -= n;\n        totalIn[s].n += n;\n        balanceOf[s].n += n;\n        payable(s).send(n);\n        return true;\n      }\n      return false;\n  }\n  function updateTransferOnInsertRecv_transfer_r3(address r,uint n) private   returns (bool) {\n      if(false==paused.b) {\n        address s = msg.sender;\n        uint m = balanceOf[s].n;\n        if(n<=m) {\n          emit Transfer(s,r,n);\n          totalOut[s].n += n;\n          balanceOf[s].n -= n;\n          totalIn[r].n += n;\n          balanceOf[r].n += n;\n          return true;\n        }\n      }\n      return false;\n  }\n  function updateuintByint(uint x,int delta) private   returns (uint) {\n      int convertedX = int(x);\n      int value = convertedX+delta;\n      uint convertedValue = uint(value);\n      return convertedValue;\n  }\n  function updateOwnerOnInsertConstructor_r9() private    {\n      address s = msg.sender;\n      owner = OwnerTuple(s,true);\n  }\n  function updatePendingOwnerOnInsertRecv_transferOwnership_r0(address p) private   returns (bool) {\n      address s = owner.p;\n      if(s==msg.sender) {\n        pendingOwner = PendingOwnerTuple(p,true);\n        emit PendingOwner(p);\n        return true;\n      }\n      return false;\n  }\n  function updateTotalSupplyOnInsertConstructor_r14() private    {\n      totalSupply = TotalSupplyTuple(0,true);\n  }\n  function updateIncreaseAllowanceOnInsertRecv_increaseApproval_r17(address s,uint n) private   returns (bool) {\n      address o = msg.sender;\n      emit IncreaseAllowance(o,s,n);\n      allowanceTotal[o][s].m += n;\n      allowance[o][s].n += n;\n      return true;\n      return false;\n  }\n  function updatePausedOnInsertRecv_pause_r13() private   returns (bool) {\n      address s = owner.p;\n      if(s==msg.sender) {\n        paused = PausedTuple(true,true);\n        emit Paused(true);\n        return true;\n      }\n      return false;\n  }\n  function updateClaimOwnershipOnInsertRecv_claimOwnership_r11() private   returns (bool) {\n      address s = pendingOwner.p;\n      if(s==msg.sender) {\n        emit ClaimOwnership(s);\n        pendingOwner = PendingOwnerTuple(address(0),true);\n        emit PendingOwner(address(0));\n        owner = OwnerTuple(s,true);\n        return true;\n      }\n      return false;\n  }\n  function updateTransferFromOnInsertRecv_transferFrom_r12(address o,address r,uint n) private   returns (bool) {\n      address s = msg.sender;\n      if(false==paused.b) {\n        uint m = balanceOf[o].n;\n        uint k = allowance[o][s].n;\n        if(m>=n && k>=n) {\n          emit TransferFrom(o,r,s,n);\n          emit Transfer(o,r,n);\n          totalOut[o].n += n;\n          balanceOf[o].n -= n;\n          totalIn[r].n += n;\n          balanceOf[r].n += n;\n          spentTotal[o][s].m += n;\n          allowance[o][s].n -= n;\n          return true;\n        }\n      }\n      return false;\n  }\n  function updateMintOnInsertRecv_mint_r28(address p,uint n) private   returns (bool) {\n      address s = owner.p;\n      if(s==msg.sender) {\n        if(p!=address(0)) {\n          emit Mint(p,n);\n          allMint.n += n;\n          totalSupply.n += n;\n          totalMint[p].n += n;\n          balanceOf[p].n += n;\n          return true;\n        }\n      }\n      return false;\n  }\n  function updateIncreaseAllowanceOnInsertRecv_approve_r31(address s,uint n) private   returns (bool) {\n      address o = msg.sender;\n      uint m = allowance[o][s].n;\n      uint d = n-m;\n      emit IncreaseAllowance(o,s,d);\n      allowanceTotal[o][s].m += d;\n      allowance[o][s].n += d;\n      return true;\n      return false;\n  }\n  function updateDecreaseAllowanceOnInsertRecv_decreaseApproval_r21(address s,uint n) private   returns (bool) {\n      address o = msg.sender;\n      uint m = allowance[o][s].n;\n      if(m>=n) {\n        emit DecreaseAllowance(o,s,n);\n        decreaseAllowanceTotal[o][s].m += n;\n        allowance[o][s].n -= n;\n        return true;\n      }\n      return false;\n  }\n  function updateTotalBalancesOnInsertConstructor_r33() private    {\n      // Empty()\n  }\n}",
  "sourcePath": "/Users/ljy/Desktop/PENN/2023_summer/boon_dsc/smart-contracts/optimizations/ablation/selective-views/contracts/wbtc.sol",
  "compiler": {
    "name": "solc",
    "version": "0.8.12+commit.f00d7308.Emscripten.clang"
  },
  "schemaVersion": "3.4.13",
  "updatedAt": "2023-07-25T16:12:52.800Z",
  "devdoc": {
    "kind": "dev",
    "methods": {},
    "version": 1
  },
  "userdoc": {
    "kind": "user",
    "methods": {},
    "version": 1
  }
}